02RETORNO01COBRANCA       041300648601        CLEAN AMB SERV COL TRANSP LTDA341BANCO ITAU S.A.08032101600BPI02619080321                                                                                                                                                                                                                                                                                   000001
10205539814000112041300648601        CLEAN AMBIENTAL          00310067            109003100673             I04080321000031006700310067            05032100000000119543412897708000000000000000000000000000000000000000000000000000000000000000000000000000000000000000000000000000000000000000000000         00000000000000000000000PLANETA DENTE CLINICA ODONTOLO                                        000002
10205539814000112041300648601        CLEAN AMBIENTAL          00310670            109003106704             I04080321000031067000310670            08032100000000503093412897708000000000000000000000000000000000000000000000000000000000000000000000000000000000000000000000000000000000000000000000         00000000000000000000000BANCO BRADESCO S/A                                                    000003
10205539814000112041300648601        CLEAN AMBIENTAL          00312391            109003123915             I04080321000031239100312391            05032100000000567163412897708000000000000000000000000000000000000000000000000000000000000000000000000000000000000000000000000000000000000000000000         00000000000000000000000RESTAURANTE FOLHAS E AMENDOAS                                         000004
10205539814000112041300648601        CLEAN AMBIENTAL          00313507            109003135075             I04080321000031350700313507            08032100000000437623412897708000000000000000000000000000000000000000000000000000000000000000000000000000000000000000000000000000000000000000000000         00000000000000000000000CONDOMINIO DO EDIFICIO ANA MAR                                        000005
10205539814000112041300648601        CLEAN AMBIENTAL          00314221            109003142212             I04080321000031422100314221            08032100000000253423412897708000000000000000000000000000000000000000000000000000000000000000000000000000000000000000000000000000000000000000000000         00000000000000000000000NOVO SABOR DISTRIBUIDORA DE BE                                        000006
10205539814000112041300648601        CLEAN AMBIENTAL          00314383            109003143830             I04080321000031438300314383            08032100000000106863412897708000000000000000000000000000000000000000000000000000000000000000000000000000000000000000000000000000000000000000000000         00000000000000000000000EVANETE CORREA DOS SANTOS 0973                                        000007
10205539814000112041300648601        CLEAN AMBIENTAL          00314484            109003144846             I04080321000031448400314484            10032100000000461053412897708000000000000000000000000000000000000000000000000000000000000000000000000000000000000000000000000000000000000000000000         00000000000000000000000DGS COMERCIO DE ALIMENTOS LTDA                                        000008
10205539814000112041300648601        CLEAN AMBIENTAL          00314498            109003144986             I04080321000031449800314498            05032100000000124543412897708000000000000000000000000000000000000000000000000000000000000000000000000000000000000000000000000000000000000000000000         00000000000000000000000PLANETA DENTE CLINICA ODONTOLO                                        000009
10205539814000112041300648601        CLEAN AMBIENTAL          00314643            109003146437             I04080321000031464300314643            08032100000000168953414562508000000000000000000000000000000000000000000000000000000000000000000000000000000000000000000000000000000000000000000000         00000000000000000000000CDE CENTRO DE DIAGNOSTICO ESPE                                        000010
10205539814000112041300648601        CLEAN AMBIENTAL          00314699            109003146999             I04080321000031469900314699            08032100000000168953412897708000000000000000000000000000000000000000000000000000000000000000000000000000000000000000000000000000000000000000000000         00000000000000000000000CLINICA VETERINARIA VITORIA RE                                        000011
10205539814000112041300648601        CLEAN AMBIENTAL          00314793            109003147930             I02080321000031479300314793            18032100000000216843412897708000000000000000000000000000000000000000000000000000000000000000000000000000000000000000000000000000000070000000000000         00000000000000000000000CHURRASCARIA BRAZA LTDA ME                                            000012
10205539814000112041300648601        CLEAN AMBIENTAL          00314963            109003149639             I04080321000031496300314963            10032100000000870613412897708000000000000000000000000000000000000000000000000000000000000000000000000000000000000000000000000000000000000000000000         00000000000000000000000DGS COMERCIO DE ALIMENTOS LTDA                                        000013
10205539814000112041300648601        CLEAN AMBIENTAL          00315065            109003150652             I04080321000031506500315065            10032100000000841253412897708000000000000000000000000000000000000000000000000000000000000000000000000000000000000000000000000000000000000000000000         00000000000000000000000DGS COMERCIO DE ALIMENTOS LTDA                                        000014
10205539814000112041300648601        CLEAN AMBIENTAL          00315072            109003150728             I04080321000031507200315072            10032100000001768003412897708000000000000000000000000000000000000000000000000000000000000000000000000000000000000000000000000000000000000000000000         00000000000000000000000PRINCESA AUTO SERVICOS DE COME                                        000015
10205539814000112041300648601        CLEAN AMBIENTAL          00315240            109003152401             I04080321000031524000315240            08032100000000157003412897708000000000000000000000000000000000000000000000000000000000000000000000000000000000000000000000000000000000000000000000         00000000000000000000000BIOCLIN SAUDE E BEM ESTAR LTDA                                        000016
10205539814000112041300648601        CLEAN AMBIENTAL          00316118            109003161188             I04080321000031611800316118            25032100000000908423412897708000000000000000000000000000000000000000000000000000000000000260000000000000000000000000000000000000000000000000000000         00000000000000000000000COLEGIO SANTO AGOSTINHO                                               000017
10205539814000112041300648601        CLEAN AMBIENTAL          00316254            109003162541             I04080321000031625400316254            10032100000000333803412897708000000000000000000000000000000000000000000000000000000000000095240000000000000000000000000000000000000000000000000000         00000000000000000000000CHINA & CHINA LTDA                                                    000018
10205539814000112041300648601        CLEAN AMBIENTAL          00317392            109003173928             I04080321000031739200317392            12032100000000322553412897708000000000000000000000000000000000000000000000000000000000000137710000000000000000000000000000000000000000000000000000         00000000000000000000000PONTAL DOS BANDEIRANTES 14200                                         000019
10205539814000112041300648601        CLEAN AMBIENTAL          00317543            109003175436             I04080321000031754300317543            13032100000000868123410201408000000000000000000000000000000000000000000000000000000000000782730000000000000000000000000000000000000000000000000000         00000000000000000000000LALU LOUGE CHOPERIA EIRELI                                            000020
10205539814000112041300648601        CLEAN AMBIENTAL          00317874            109003178745             I02080321000031787400317874            16032100000000525113412897708000000000000000000000000000000000000000000000000000000000000000000000000000000000000000000000000000000170000000000000         00000000000000000000000DOCES E SALGADOS DU DUDU LTDA                                         000021
10205539814000112041300648601        CLEAN AMBIENTAL          00317875            109003178752             I02080321000031787500317875            16032100000000528763412897708000000000000000000000000000000000000000000000000000000000000000000000000000000000000000000000000000000170000000000000         00000000000000000000000NICKS RESTAURANTE E PIZZARIA L                                        000022
10205539814000112041300648601        CLEAN AMBIENTAL          00317876            109003178760             I02080321000031787600317876            16032100000000315573412897708000000000000000000000000000000000000000000000000000000000000000000000000000000000000000000000000000000100000000000000         00000000000000000000000CAFE E BAR LAGO AZUL LTDA - ME                                        000023
10205539814000112041300648601        CLEAN AMBIENTAL          00317877            109003178778             I02080321000031787700317877            16032100000000095023412897708000000000000000000000000000000000000000000000000000000000000000000000000000000000000000000000000000000030000000000000         00000000000000000000000SILVIA ODONTO EIRELI                                                  000024
10205539814000112041300648601        CLEAN AMBIENTAL          00317878            109003178786             I02080321000031787800317878            21032100000000393253412897708000000000000000000000000000000000000000000000000000000000000000000000000000000000000000000000000000000130000000000000         00000000000000000000000CAFE E BAR RESTAURANTE TRES CA                                        000025
10205539814000112041300648601        CLEAN AMBIENTAL          00317879            109003178794             I02080321000031787900317879            21032100000000069793416849408000000000000000000000000000000000000000000000000000000000000000000000000000000000000000000000000000000020000000000000         00000000000000000000000ROSANGELA SILVA RIOS                                                  000026
10205539814000112041300648601        CLEAN AMBIENTAL          00317880            109003178802             I02080321000031788000317880            16032100000000125193412897708000000000000000000000000000000000000000000000000000000000000000000000000000000000000000000000000000000040000000000000         00000000000000000000000VITOR PEREIRA DE LEMOS                                                000027
10205539814000112041300648601        CLEAN AMBIENTAL          00317881            109003178810             I02080321000031788100317881            16032100000000451323412897708000000000000000000000000000000000000000000000000000000000000000000000000000000000000000000000000000000150000000000000         00000000000000000000000JAVA RESTAURANTE EIRELI - ME                                          000028
10205539814000112041300648601        CLEAN AMBIENTAL          00317882            109003178828             I02080321000031788200317882            16032100000000716583412897708000000000000000000000000000000000000000000000000000000000000000000000000000000000000000000000000000000240000000000000         00000000000000000000000INSTITUICAO MARIA DE NAZARETH                                         000029
10205539814000112041300648601        CLEAN AMBIENTAL          00317883            109003178836             I02080321000031788300317883            16032100000001262803412897708000000000000000000000000000000000000000000000000000000000000000000000000000000000000000000000000000004170000000000000         00000000000000000000000MERCADO HIPERCOMPRAS LTDA                                             000030
10205539814000112041300648601        CLEAN AMBIENTAL          00317884            109003178844             I02080321000031788400317884            28032100000000331273411282308000000000000000000000000000000000000000000000000000000000000000000000000000000000000000000000000000000110000000000000         00000000000000000000000ITAL EMPRESA TRANSPORTADORA LT                                        000031
10205539814000112041300648601        CLEAN AMBIENTAL          00317885            109003178851             I02080321000031788500317885            25032100000001509933411282308000000000000000000000000000000000000000000000000000000000000000000000000000000000000000000000000000004980000000000000         00000000000000000000000TREVISO RIO VEICULOS LTDA                                             000032
10205539814000112041300648601        CLEAN AMBIENTAL          00317886            109003178869             I02080321000031788600317886            25032100000002359583412897708000000000000000000000000000000000000000000000000000000000000000000000000000000000000000000000000000007790000000000000         00000000000000000000000VIACAO PAVUNENSE S/A                                                  000033
10205539814000112041300648601        CLEAN AMBIENTAL          00317887            109003178877             I02080321000031788700317887            25032100000000875603411282308000000000000000000000000000000000000000000000000000000000000000000000000000000000000000000000000000000290000000000000         00000000000000000000000TRANSPORTADORA JOLIVAN LTDA                                           000034
10205539814000112041300648601        CLEAN AMBIENTAL          00317888            109003178885             I02080321000031788800317888            16032100000000814283412897708000000000000000000000000000000000000000000000000000000000000000000000000000000000000000000000000000000270000000000000         00000000000000000000000CLINICA ORTOPEDICA BANGU LTDA                                         000035
10205539814000112041300648601        CLEAN AMBIENTAL          00317889            109003178893             I02080321000031788900317889            16032100000000640883412897708000000000000000000000000000000000000000000000000000000000000000000000000000000000000000000000000000000210000000000000         00000000000000000000000STIELETRONICA S/A                                                     000036
10205539814000112041300648601        CLEAN AMBIENTAL          00317890            109003178901             I02080321000031789000317890            16032100000002152563412897708000000000000000000000000000000000000000000000000000000000000000000000000000000000000000000000000000007100000000000000         00000000000000000000000ASSOCIACAO BRASILEIRA DE ODONT                                        000037
10205539814000112041300648601        CLEAN AMBIENTAL          00317891            109003178919             I02080321000031789100317891            16032100000002570053412897708000000000000000000000000000000000000000000000000000000000000000000000000000000000000000000000000000008480000000000000         00000000000000000000000TOB'S LANCHES LTDA                                                    000038
10205539814000112041300648601        CLEAN AMBIENTAL          00317892            109003178927             I02080321000031789200317892            25032100000000354953412897708000000000000000000000000000000000000000000000000000000000000000000000000000000000000000000000000000000120000000000000         00000000000000000000000NOVA GERACAO COMESTIVEIS S.A                                          000039
10205539814000112041300648601        CLEAN AMBIENTAL          00317893            109003178935             I02080321000031789300317893            21032100000000483163412897708000000000000000000000000000000000000000000000000000000000000000000000000000000000000000000000000000000160000000000000         00000000000000000000000NOVA GERACAO COMESTIVEIS S.A                                          000040
10205539814000112041300648601        CLEAN AMBIENTAL          00317894            109003178943             I02080321000031789400317894            16032100000000387843412897708000000000000000000000000000000000000000000000000000000000000000000000000000000000000000000000000000000130000000000000         00000000000000000000000PASTELARIA QUATRO ESTACOES LTD                                        000041
10205539814000112041300648601        CLEAN AMBIENTAL          00317895            109003178950             I02080321000031789500317895            16032100000000579053412897708000000000000000000000000000000000000000000000000000000000000000000000000000000000000000000000000000000190000000000000         00000000000000000000000PINHEIRO FERNANDES COLEGIO E C                                        000042
10205539814000112041300648601        CLEAN AMBIENTAL          00317896            109003178968             I02080321000031789600317896            16032100000001006523412897708000000000000000000000000000000000000000000000000000000000000000000000000000000000000000000000000000003320000000000000         00000000000000000000000GIANNINI COMERCIO DE ALIMENTOS                                        000043
10205539814000112041300648601        CLEAN AMBIENTAL          00317897            109003178976             I02080321000031789700317897            21032100000000396853412897708000000000000000000000000000000000000000000000000000000000000000000000000000000000000000000000000000000130000000000000         00000000000000000000000HORTIFRUTI MEGA FRUTI DE REALE                                        000044
10205539814000112041300648601        CLEAN AMBIENTAL          00317898            109003178984             I02080321000031789800317898            16032100000001028533412897708000000000000000000000000000000000000000000000000000000000000000000000000000000000000000000000000000003390000000000000         00000000000000000000000CASA JARDIM PINOCHIO LTDA                                             000045
10205539814000112041300648601        CLEAN AMBIENTAL          00317899            109003178992             I02080321000031789900317899            16032100000000431833410229508000000000000000000000000000000000000000000000000000000000000000000000000000000000000000000000000000000140000000000000         00000000000000000000000HOTEL AVENIDA DE MERITI LTDA -                                        000046
10205539814000112041300648601        CLEAN AMBIENTAL          00317900            109003179008             I02080321000031790000317900            26032100000000925673412897708000000000000000000000000000000000000000000000000000000000000000000000000000000000000000000000000000000310000000000000         00000000000000000000000L AMOUR MOTEL LTDA                                                    000047
10205539814000112041300648601        CLEAN AMBIENTAL          00317901            109003179016             I02080321000031790100317901            16032100000000185733412897708000000000000000000000000000000000000000000000000000000000000000000000000000000000000000000000000000000060000000000000         00000000000000000000000RESTAURANTE QUATRO ESTACOES MI                                        000048
10205539814000112041300648601        CLEAN AMBIENTAL          00317902            109003179024             I02080321000031790200317902            16032100000000618893412897708000000000000000000000000000000000000000000000000000000000000000000000000000000000000000000000000000000200000000000000         00000000000000000000000GERIAL GERIATRIA ASSISTENCIAL                                         000049
10205539814000112041300648601        CLEAN AMBIENTAL          00317903            109003179032             I02080321000031790300317903            16032100000000415263412897708000000000000000000000000000000000000000000000000000000000000000000000000000000000000000000000000000000140000000000000         00000000000000000000000LAPA WAY LANCHONETE LTDA - ME                                         000050
10205539814000112041300648601        CLEAN AMBIENTAL          00317904            109003179040             I02080321000031790400317904            16032100000000255543412897708000000000000000000000000000000000000000000000000000000000000000000000000000000000000000000000000000000080000000000000         00000000000000000000000JBB COMERCIO DE DOCES E SALGAD                                        000051
10205539814000112041300648601        CLEAN AMBIENTAL          00317905            109003179057             I02080321000031790500317905            21032100000000685473412897708000000000000000000000000000000000000000000000000000000000000000000000000000000000000000000000000000000230000000000000         00000000000000000000000GRAVIOLA LEBLON COMERCIO DE AL                                        000052
10205539814000112041300648601        CLEAN AMBIENTAL          00317906            109003179065             I02080321000031790600317906            16032100000000317813412897708000000000000000000000000000000000000000000000000000000000000000000000000000000000000000000000000000000100000000000000         00000000000000000000000CLAISA BAR E LANCHONETE LTDA -                                        000053
10205539814000112041300648601        CLEAN AMBIENTAL          00317907            109003179073             I02080321000031790700317907            16032100000001176153412897708000000000000000000000000000000000000000000000000000000000000000000000000000000000000000000000000000003880000000000000         00000000000000000000000HORTIFRUTIGRANJEIROS THAISA LT                                        000054
10205539814000112041300648601        CLEAN AMBIENTAL          00317908            109003179081             I02080321000031790800317908            16032100000000525123412897708000000000000000000000000000000000000000000000000000000000000000000000000000000000000000000000000000000170000000000000         00000000000000000000000HORTIFRUTIGRANJEIROS THAISA LT                                        000055
10205539814000112041300648601        CLEAN AMBIENTAL          00317909            109003179099             I02080321000031790900317909            16032100000001267243412897708000000000000000000000000000000000000000000000000000000000000000000000000000000000000000000000000000004180000000000000         00000000000000000000000RJ -REDE QUALLY DE HORTIFRUT L                                        000056
10205539814000112041300648601        CLEAN AMBIENTAL          00317910            109003179107             I02080321000031791000317910            16032100000000349353412897708000000000000000000000000000000000000000000000000000000000000000000000000000000000000000000000000000000120000000000000         00000000000000000000000PRANZO FORTUNATO LANCHONETE -                                         000057
10205539814000112041300648601        CLEAN AMBIENTAL          00317911            109003179115             I02080321000031791100317911            16032100000000349353412897708000000000000000000000000000000000000000000000000000000000000000000000000000000000000000000000000000000120000000000000         00000000000000000000000PRANZO FORTUNATO LANCHONETE -                                         000058
10205539814000112041300648601        CLEAN AMBIENTAL          00317912            109003179123             I02080321000031791200317912            16032100000000579433412897708000000000000000000000000000000000000000000000000000000000000000000000000000000000000000000000000000000190000000000000         00000000000000000000000SABOREAR RESTAURANTE SELF SERV                                        000059
10205539814000112041300648601        CLEAN AMBIENTAL          00317913            109003179131             I02080321000031791300317913            25032100000000433223412897708000000000000000000000000000000000000000000000000000000000000000000000000000000000000000000000000000000140000000000000         00000000000000000000000ENTRE TRILHOS LANCHONETE LTDA                                         000060
10205539814000112041300648601        CLEAN AMBIENTAL          00317914            109003179149             I02080321000031791400317914            16032100000000494293412897708000000000000000000000000000000000000000000000000000000000000000000000000000000000000000000000000000000160000000000000         00000000000000000000000CONDOMINIO DO EDIFICIO CENTRO                                         000061
10205539814000112041300648601        CLEAN AMBIENTAL          00317915            109003179156             I02080321000031791500317915            16032100000000527993412897708000000000000000000000000000000000000000000000000000000000000000000000000000000000000000000000000000000170000000000000         00000000000000000000000CONDOMINIO DO EDIFICIO CIVITA                                         000062
10205539814000112041300648601        CLEAN AMBIENTAL          00317916            109003179164             I02080321000031791600317916            21032100000000450993412897708000000000000000000000000000000000000000000000000000000000000000000000000000000000000000000000000000000150000000000000         00000000000000000000000ZERO FRUTI HORTIFRUTI LTDA - M                                        000063
10205539814000112041300648601        CLEAN AMBIENTAL          00317917            109003179172             I02080321000031791700317917            21032100000000352813412897708000000000000000000000000000000000000000000000000000000000000000000000000000000000000000000000000000000120000000000000         00000000000000000000000HORTIFRUTI PRIMOS RIO DA PRATA                                        000064
10205539814000112041300648601        CLEAN AMBIENTAL          00317918            109003179180             I02080321000031791800317918            16032100000000484733412897708000000000000000000000000000000000000000000000000000000000000000000000000000000000000000000000000000000160000000000000         00000000000000000000000MERCADO MEGA REDE LTDA - EPP                                          000065
10205539814000112041300648601        CLEAN AMBIENTAL          00317919            109003179198             I02080321000031791900317919            16032100000000546053412897708000000000000000000000000000000000000000000000000000000000000000000000000000000000000000000000000000000180000000000000         00000000000000000000000MINIMERCADO SALMAO EIRELI - ME                                        000066
10205539814000112041300648601        CLEAN AMBIENTAL          00317920            109003179206             I02080321000031792000317920            16032100000000947113412897708000000000000000000000000000000000000000000000000000000000000000000000000000000000000000000000000000000310000000000000         00000000000000000000000LANCHES PLANALTO DA CENTRAL LT                                        000067
10205539814000112041300648601        CLEAN AMBIENTAL          00317921            109003179214             I02080321000031792100317921            16032100000000283953412897708000000000000000000000000000000000000000000000000000000000000000000000000000000000000000000000000000000090000000000000         00000000000000000000000MP SERVICOS EDUCACIONAIS LTDA                                         000068
10205539814000112041300648601        CLEAN AMBIENTAL          00317922            109003179222             I02080321000031792200317922            16032100000000354403412897708000000000000000000000000000000000000000000000000000000000000000000000000000000000000000000000000000000120000000000000         00000000000000000000000CLINICA VETERINARIA BOM PASTOR                                        000069
10205539814000112041300648601        CLEAN AMBIENTAL          00317923            109003179230             I02080321000031792300317923            16032100000000626993412897708000000000000000000000000000000000000000000000000000000000000000000000000000000000000000000000000000000210000000000000         00000000000000000000000CONDOMINIO DO EDIFICIO COMERCI                                        000070
10205539814000112041300648601        CLEAN AMBIENTAL          00317924            109003179248             I02080321000031792400317924            20032100000000680013412897708000000000000000000000000000000000000000000000000000000000000000000000000000000000000000000000000000000220000000000000         00000000000000000000000CRECHE ESCOLA TBT LTDA - EPP                                          000071
10205539814000112041300648601        CLEAN AMBIENTAL          00317925            109003179255             I02080321000031792500317925            21032100000000257663412897708000000000000000000000000000000000000000000000000000000000000000000000000000000000000000000000000000000080000000000000         00000000000000000000000CONDOMINIO EDIFICIO SETE DE SE                                        000072
10205539814000112041300648601        CLEAN AMBIENTAL          00317926            109003179263             I02080321000031792600317926            16032100000000880423412897708000000000000000000000000000000000000000000000000000000000000000000000000000000000000000000000000000000290000000000000         00000000000000000000000PANIFICACAO LUANDA LTDA                                               000073
10205539814000112041300648601        CLEAN AMBIENTAL          00317927            109003179271             I02080321000031792700317927            21032100000000427213412897708000000000000000000000000000000000000000000000000000000000000000000000000000000000000000000000000000000140000000000000         00000000000000000000000RESTAURANTE FRUTOS DO MAR PEDR                                        000074
10205539814000112041300648601        CLEAN AMBIENTAL          00317928            109003179289             I02080321000031792800317928            16032100000000263693412897708000000000000000000000000000000000000000000000000000000000000000000000000000000000000000000000000000000090000000000000         00000000000000000000000ARS STOK COMERCIO DE FERRAGENS                                        000075
10205539814000112041300648601        CLEAN AMBIENTAL          00317929            109003179297             I02080321000031792900317929            21032100000000281683412897708000000000000000000000000000000000000000000000000000000000000000000000000000000000000000000000000000000090000000000000         00000000000000000000000NOVA GERACAO COMESTIVEIS S.A                                          000076
10205539814000112041300648601        CLEAN AMBIENTAL          00317930            109003179305             I02080321000031793000317930            16032100000000196683412897708000000000000000000000000000000000000000000000000000000000000000000000000000000000000000000000000000000060000000000000         00000000000000000000000HOTEL SAO FRANCISCO DA BARRA L                                        000077
10205539814000112041300648601        CLEAN AMBIENTAL          00317931            109003179313             I02080321000031793100317931            16032100000000272793412897708000000000000000000000000000000000000000000000000000000000000000000000000000000000000000000000000000000090000000000000         00000000000000000000000ALAMEDA GOURMET LANCHONETE LTD                                        000078
10205539814000112041300648601        CLEAN AMBIENTAL          00317932            109003179321             I02080321000031793200317932            16032100000001237633412897708000000000000000000000000000000000000000000000000000000000000000000000000000000000000000000000000000004080000000000000         00000000000000000000000CONDOMINIO DO EDIFICIO SAO LUI                                        000079
10205539814000112041300648601        CLEAN AMBIENTAL          00317933            109003179339             I02080321000031793300317933            16032100000000421693412897708000000000000000000000000000000000000000000000000000000000000000000000000000000000000000000000000000000140000000000000         00000000000000000000000CASA DE REPOUSO RECANTO DO IDO                                        000080
10205539814000112041300648601        CLEAN AMBIENTAL          00317934            109003179347             I02080321000031793400317934            21032100000000534683412897708000000000000000000000000000000000000000000000000000000000000000000000000000000000000000000000000000000180000000000000         00000000000000000000000STAMBUL IPANEMA BAR E RESTAURA                                        000081
10205539814000112041300648601        CLEAN AMBIENTAL          00317935            109003179354             I02080321000031793500317935            16032100000000392403412897708000000000000000000000000000000000000000000000000000000000000000000000000000000000000000000000000000000130000000000000         00000000000000000000000DROGARIA CENTRAL DO RIACHUELO                                         000082
10205539814000112041300648601        CLEAN AMBIENTAL          00317936            109003179362             I02080321000031793600317936            26032100000000395573410201408000000000000000000000000000000000000000000000000000000000000000000000000000000000000000000000000000000130000000000000         00000000000000000000000LOCALIZA RENT A CAR SA                                                000083
10205539814000112041300648601        CLEAN AMBIENTAL          00317937            109003179370             I02080321000031793700317937            16032100000000561713412897708000000000000000000000000000000000000000000000000000000000000000000000000000000000000000000000000000000190000000000000         00000000000000000000000CAFE E BAR ESCONDIDINHO DO ANI                                        000084
10205539814000112041300648601        CLEAN AMBIENTAL          00317938            109003179388             I02080321000031793800317938            16032100000000481843412897708000000000000000000000000000000000000000000000000000000000000000000000000000000000000000000000000000000160000000000000         00000000000000000000000HANDOVER BAR E RESTAURANTE EIR                                        000085
10205539814000112041300648601        CLEAN AMBIENTAL          00317939            109003179396             I02080321000031793900317939            16032100000000386433412897708000000000000000000000000000000000000000000000000000000000000000000000000000000000000000000000000000000130000000000000         00000000000000000000000ADEGA ROMANA DE SAO CRISTOVAO                                         000086
10205539814000112041300648601        CLEAN AMBIENTAL          00317940            109003179404             I02080321000031794000317940            16032100000000416073412897708000000000000000000000000000000000000000000000000000000000000000000000000000000000000000000000000000000140000000000000         00000000000000000000000BAR CARLOS PINHEIRO EIRELI                                            000087
10205539814000112041300648601        CLEAN AMBIENTAL          00317941            109003179412             I02080321000031794100317941            16032100000000327163412897708000000000000000000000000000000000000000000000000000000000000000000000000000000000000000000000000000000110000000000000         00000000000000000000000RESTAURANTE IELE CONTEMPORANEO                                        000088
10205539814000112041300648601        CLEAN AMBIENTAL          00317942            109003179420             I02080321000031794200317942            16032100000000426413412897708000000000000000000000000000000000000000000000000000000000000000000000000000000000000000000000000000000140000000000000         00000000000000000000000PANIFICACAO PONTO DE OURO LTDA                                        000089
10205539814000112041300648601        CLEAN AMBIENTAL          00317943            109003179438             I02080321000031794300317943            16032100000000843193412897708000000000000000000000000000000000000000000000000000000000000000000000000000000000000000000000000000000280000000000000         00000000000000000000000FRANCINETE COMIDA AFETIVA LTDA                                        000090
10205539814000112041300648601        CLEAN AMBIENTAL          00317944            109003179446             I02080321000031794400317944            16032100000000117633412897708000000000000000000000000000000000000000000000000000000000000000000000000000000000000000000000000000000040000000000000         00000000000000000000000POLICLINICA DR CABRAL LTDA                                            000091
10205539814000112041300648601        CLEAN AMBIENTAL          00317945            109003179453             I02080321000031794500317945            16032100000000329213412897708000000000000000000000000000000000000000000000000000000000000000000000000000000000000000000000000000000110000000000000         00000000000000000000000VALDIVINO LEITE DIAS                                                  000092
10205539814000112041300648601        CLEAN AMBIENTAL          00317946            109003179461             I02080321000031794600317946            16032100000002666263412897708000000000000000000000000000000000000000000000000000000000000000000000000000000000000000000000000000008800000000000000         00000000000000000000000NEW SCOTCH BAR LTDA                                                   000093
10205539814000112041300648601        CLEAN AMBIENTAL          00317947            109003179479             I02080321000031794700317947            16032100000000506053412897708000000000000000000000000000000000000000000000000000000000000000000000000000000000000000000000000000000170000000000000         00000000000000000000000SELF SERVICE MAIS VOCE                                                000094
10205539814000112041300648601        CLEAN AMBIENTAL          00317948            109003179487             I02080321000031794800317948            16032100000000379743412897708000000000000000000000000000000000000000000000000000000000000000000000000000000000000000000000000000000130000000000000         00000000000000000000000PADARIA E CONFEITARIA CANTAGAL                                        000095
10205539814000112041300648601        CLEAN AMBIENTAL          00317949            109003179495             I02080321000031794900317949            16032100000000379743412897708000000000000000000000000000000000000000000000000000000000000000000000000000000000000000000000000000000130000000000000         00000000000000000000000CONFEITARIA OPERA DE BOTAFOGO                                         000096
10205539814000112041300648601        CLEAN AMBIENTAL          00317950            109003179503             I02080321000031795000317950            16032100000001344013411306008000000000000000000000000000000000000000000000000000000000000000000000000000000000000000000000000000004440000000000000         00000000000000000000000SUPERMERCADOS ALVORADA EIRELI                                         000097
10205539814000112041300648601        CLEAN AMBIENTAL          00317951            109003179511             I02080321000031795100317951            16032100000001802003411306008000000000000000000000000000000000000000000000000000000000000000000000000000000000000000000000000000005950000000000000         00000000000000000000000SUPERMERCADOS ALVORADA EIRELI                                         000098
10205539814000112041300648601        CLEAN AMBIENTAL          00317952            109003179529             I02080321000031795200317952            16032100000000152893412897708000000000000000000000000000000000000000000000000000000000000000000000000000000000000000000000000000000050000000000000         00000000000000000000000VILA NOVA BISTRO LTDA                                                 000099
10205539814000112041300648601        CLEAN AMBIENTAL          00317953            109003179537             I02080321000031795300317953            16032100000000506053412897708000000000000000000000000000000000000000000000000000000000000000000000000000000000000000000000000000000170000000000000         00000000000000000000000JGJ UNI SUSHI LTDA                                                    000100
10205539814000112041300648601        CLEAN AMBIENTAL          00317954            109003179545             I02080321000031795400317954            16032100000001254913412897708000000000000000000000000000000000000000000000000000000000000000000000000000000000000000000000000000004140000000000000         00000000000000000000000SUPERPRIX LOJAS DE ALIMENTOS L                                        000101
10205539814000112041300648601        CLEAN AMBIENTAL          00317955            109003179552             I02080321000031795500317955            16032100000000304623412897708000000000000000000000000000000000000000000000000000000000000000000000000000000000000000000000000000000100000000000000         00000000000000000000000POSTO DE GASOLINA JANA LTDA  (                                        000102
10205539814000112041300648601        CLEAN AMBIENTAL          00317956            109003179560             I02080321000031795600317956            16032100000000627163412897708000000000000000000000000000000000000000000000000000000000000000000000000000000000000000000000000000000210000000000000         00000000000000000000000CAFE E BAR RIO TAMEGA LTDA                                            000103
10205539814000112041300648601        CLEAN AMBIENTAL          00317957            109003179578             I02080321000031795700317957            16032100000000654383412897708000000000000000000000000000000000000000000000000000000000000000000000000000000000000000000000000000000220000000000000         00000000000000000000000CONDOMINIO PLAZA CORPORATE                                            000104
10205539814000112041300648601        CLEAN AMBIENTAL          00317958            109003179586             I02080321000031795800317958            16032100000000523673412897708000000000000000000000000000000000000000000000000000000000000000000000000000000000000000000000000000000170000000000000         00000000000000000000000COLEGIO TALES DE MILETO EM CAM                                        000105
10205539814000112041300648601        CLEAN AMBIENTAL          00317959            109003179594             I02080321000031795900317959            18032100000000756163412897708000000000000000000000000000000000000000000000000000000000000000000000000000000000000000000000000000000250000000000000         00000000000000000000000CONDOMINIO DO EDIFICIO IDEALE                                         000106
10205539814000112041300648601        CLEAN AMBIENTAL          00317960            109003179602             I02080321000031796000317960            16032100000000831213412897708000000000000000000000000000000000000000000000000000000000000000000000000000000000000000000000000000000270000000000000         00000000000000000000000INSTITUTO CIRURGICO GABRIEL DE                                        000107
10205539814000112041300648601        CLEAN AMBIENTAL          00317961            109003179610             I02080321000031796100317961            15032100000000142513412897708000000000000000000000000000000000000000000000000000000000000000000000000000000000000000000000000000000050000000000000         00000000000000000000000COND ED DOM ALMEIDA                                                   000108
10205539814000112041300648601        CLEAN AMBIENTAL          00317962            109003179628             I02080321000031796200317962            15032100000000153053412897708000000000000000000000000000000000000000000000000000000000000000000000000000000000000000000000000000000050000000000000         00000000000000000000000COND ED DOM MARCELO                                                   000109
10205539814000112041300648601        CLEAN AMBIENTAL          00317963            109003179636             I02080321000031796300317963            15032100000000175043412897708000000000000000000000000000000000000000000000000000000000000000000000000000000000000000000000000000000060000000000000         00000000000000000000000COND ED JOAO AUGUSTO                                                  000110
10205539814000112041300648601        CLEAN AMBIENTAL          00317964            109003179644             I02080321000031796400317964            25032100000000146553412897708000000000000000000000000000000000000000000000000000000000000000000000000000000000000000000000000000000050000000000000         00000000000000000000000CENTRO OFTALMOLOGICO JACAREPAG                                        000111
10205539814000112041300648601        CLEAN AMBIENTAL          00317965            109003179651             I02080321000031796500317965            16032100000000098953410201408000000000000000000000000000000000000000000000000000000000000000000000000000000000000000000000000000000030000000000000         00000000000000000000000SORRISO SAUDAVEL ODONTOLOGIA L                                        000112
10205539814000112041300648601        CLEAN AMBIENTAL          00317966            109003179669             I02080321000031796600317966            16032100000000154823410201408000000000000000000000000000000000000000000000000000000000000000000000000000000000000000000000000000000050000000000000         00000000000000000000000VIRGINIA MARIA QUEIROZ DA SILV                                        000113
10205539814000112041300648601        CLEAN AMBIENTAL          00317967            109003179677             I02080321000031796700317967            16032100000000094203412897708000000000000000000000000000000000000000000000000000000000000000000000000000000000000000000000000000000030000000000000         00000000000000000000000FERNANDO AUGUSTO F. CORDEIRO                                          000114
10205539814000112041300648601        CLEAN AMBIENTAL          00317968            109003179685             I02080321000031796800317968            16032100000000131253412897708000000000000000000000000000000000000000000000000000000000000000000000000000000000000000000000000000000040000000000000         00000000000000000000000CEMOC CENTRO MEDICO E ODONTOLO                                        000115
10205539814000112041300648601        CLEAN AMBIENTAL          00317969            109003179693             I02080321000031796900317969            16032100000002057493410229508000000000000000000000000000000000000000000000000000000000000000000000000000000000000000000000000000006790000000000000         00000000000000000000000APICE HOSPITAL DIA LTDA (MATRI                                        000116
10205539814000112041300648601        CLEAN AMBIENTAL          00317970            109003179701             I02080321000031797000317970            16032100000000144453410945608000000000000000000000000000000000000000000000000000000000000000000000000000000000000000000000000000000050000000000000         00000000000000000000000CLINICA SANTA HELENA DE ITAGUA                                        000117
10205539814000112041300648601        CLEAN AMBIENTAL          00317971            109003179719             I02080321000031797100317971            16032100000000137083412897708000000000000000000000000000000000000000000000000000000000000000000000000000000000000000000000000000000050000000000000         00000000000000000000000DH MED EIRELI                                                         000118
10205539814000112041300648601        CLEAN AMBIENTAL          00317972            109003179727             I02080321000031797200317972            16032100000000209213412897708000000000000000000000000000000000000000000000000000000000000000000000000000000000000000000000000000000070000000000000         00000000000000000000000LEGADO ROMANI ESTETIC TATTOO E                                        000119
10205539814000112041300648601        CLEAN AMBIENTAL          00317973            109003179735             I02080321000031797300317973            20032100000002090243412897708000000000000000000000000000000000000000000000000000000000000000000000000000000000000000000000000000006900000000000000         00000000000000000000000EDIFICIO BOTAFOGO MEDICAL CENT                                        000120
10205539814000112041300648601        CLEAN AMBIENTAL          00317974            109003179743             I02080321000031797400317974            20032100000000581773412897708000000000000000000000000000000000000000000000000000000000000000000000000000000000000000000000000000000190000000000000         00000000000000000000000CONDOMINIO DO EDIFICIO PABLO P                                        000121
10205539814000112041300648601        CLEAN AMBIENTAL          00317975            109003179750             I02080321000031797500317975            17032100000000251953412897708000000000000000000000000000000000000000000000000000000000000000000000000000000000000000000000000000000080000000000000         00000000000000000000000TOKE KA SUAL COMERCIO DE ALIME                                        000122
10205539814000112041300648601        CLEAN AMBIENTAL          00317976            109003179768             I02080321000031797600317976            17032100000000585473412897708000000000000000000000000000000000000000000000000000000000000000000000000000000000000000000000000000000190000000000000         00000000000000000000000CONDOMINIO DO EDIFICIO PABLO P                                        000123
10205539814000112041300648601        CLEAN AMBIENTAL          00317977            109003179776             I02080321000031797700317977            17032100000000072453412897708000000000000000000000000000000000000000000000000000000000000000000000000000000000000000000000000000000020000000000000         00000000000000000000000THATIANA PRUDENTE JARDIM                                              000124
10205539814000112041300648601        CLEAN AMBIENTAL          00317978            109003179784             I02080321000031797800317978            17032100000000117633412897708000000000000000000000000000000000000000000000000000000000000000000000000000000000000000000000000000000040000000000000         00000000000000000000000DENTAL RBS LTDA                                                       000125
10205539814000112041300648601        CLEAN AMBIENTAL          00317979            109003179792             I02080321000031797900317979            17032100000000376393412897708000000000000000000000000000000000000000000000000000000000000000000000000000000000000000000000000000000120000000000000         00000000000000000000000SULAMARKET MERCEARIA LTDA                                             000126
10205539814000112041300648601        CLEAN AMBIENTAL          00317980            109003179800             I02080321000031798000317980            17032100000001750413412897708000000000000000000000000000000000000000000000000000000000000000000000000000000000000000000000000000005780000000000000         00000000000000000000000ASSOCIACAO SOLIDARIOS AMIGOS D                                        000127
10205539814000112041300648601        CLEAN AMBIENTAL          00317981            109003179818             I02080321000031798100317981            25032100000000662193411282308000000000000000000000000000000000000000000000000000000000000000000000000000000000000000000000000000000220000000000000         00000000000000000000000TEXSA BRASILEIRA LTDA                                                 000128
10205539814000112041300648601        CLEAN AMBIENTAL          00317982            109003179826             I02080321000031798200317982            25032100000000467473412897708000000000000000000000000000000000000000000000000000000000000000000000000000000000000000000000000000000150000000000000         00000000000000000000000SOLARIS EQUIPAMENTOS E SERVICO                                        000129
10205539814000112041300648601        CLEAN AMBIENTAL          00317983            109003179834             I02080321000031798300317983            24032100000001152403412897708000000000000000000000000000000000000000000000000000000000000000000000000000000000000000000000000000003800000000000000         00000000000000000000000AUTO CENTER MAYARA LTDA                                               000130
10205539814000112041300648601        CLEAN AMBIENTAL          00317984            109003179842             I02080321000031798400317984            16032100000000203573412897708000000000000000000000000000000000000000000000000000000000000000000000000000000000000000000000000000000070000000000000         00000000000000000000000ANDREIA LEONARDO DA SILVA                                             000131
10205539814000112041300648601        CLEAN AMBIENTAL          00317985            109003179859             I02080321000031798500317985            16032100000000324283412897708000000000000000000000000000000000000000000000000000000000000000000000000000000000000000000000000000000110000000000000         00000000000000000000000UNITRAUMA LTDA                                                        000132
10205539814000112041300648601        CLEAN AMBIENTAL          00317986            109003179867             I02080321000031798600317986            16032100000001945843412897708000000000000000000000000000000000000000000000000000000000000000000000000000000000000000000000000000006420000000000000         00000000000000000000000LABORATORIO CENTRAL MEDICINA L                                        000133
10205539814000112041300648601        CLEAN AMBIENTAL          00317987            109003179875             I02080321000031798700317987            16032100000000393183412897708000000000000000000000000000000000000000000000000000000000000000000000000000000000000000000000000000000130000000000000         00000000000000000000000CORPUS DIAGNOSTICOS LABORATORI                                        000134
10205539814000112041300648601        CLEAN AMBIENTAL          00317988            109003179883             I02080321000031798800317988            16032100000000306683412897708000000000000000000000000000000000000000000000000000000000000000000000000000000000000000000000000000000100000000000000         00000000000000000000000LANACLI-M.S.MATTOS E SAMPAIO L                                        000135
10205539814000112041300648601        CLEAN AMBIENTAL          00317989            109003179891             I02080321000031798900317989            16032100000000077763410059608000000000000000000000000000000000000000000000000000000000000000000000000000000000000000000000000000000030000000000000         00000000000000000000000IN NITEROI CLINICA ODONTOLOGIC                                        000136
10205539814000112041300648601        CLEAN AMBIENTAL          00317990            109003179909             I02080321000031799000317990            16032100000000579863412897708000000000000000000000000000000000000000000000000000000000000000000000000000000000000000000000000000000190000000000000         00000000000000000000000INTENSIVE CARE SERV. MEDICOS H                                        000137
10205539814000112041300648601        CLEAN AMBIENTAL          00317991            109003179917             I02080321000031799100317991            16032100000000100443412897708000000000000000000000000000000000000000000000000000000000000000000000000000000000000000000000000000000030000000000000         00000000000000000000000MITRA ARQUIEPISCOPAL DO RIO DE                                        000138
10205539814000112041300648601        CLEAN AMBIENTAL          00317992            109003179925             I02080321000031799200317992            16032100000000376963412897708000000000000000000000000000000000000000000000000000000000000000000000000000000000000000000000000000000120000000000000         00000000000000000000000DLC DIAGNOSTICOS LTDA                                                 000139
10205539814000112041300648601        CLEAN AMBIENTAL          00317993            109003179933             I02080321000031799300317993            16032100000000068713412897708000000000000000000000000000000000000000000000000000000000000000000000000000000000000000000000000000000020000000000000         00000000000000000000000VITALLE - ODONTOLOGIA LTDA                                            000140
10205539814000112041300648601        CLEAN AMBIENTAL          00317994            109003179941             I02080321000031799400317994            16032100000000098533412897708000000000000000000000000000000000000000000000000000000000000000000000000000000000000000000000000000000030000000000000         00000000000000000000000FABIANA BASTOS ALVIM                                                  000141
10205539814000112041300648601        CLEAN AMBIENTAL          00317995            109003179958             I02080321000031799500317995            16032100000000087273410201408000000000000000000000000000000000000000000000000000000000000000000000000000000000000000000000000000000030000000000000         00000000000000000000000ASSISTENCIA DENTARIA GOVERNADO                                        000142
10205539814000112041300648601        CLEAN AMBIENTAL          00317996            109003179966             I02080321000031799600317996            16032100000000170753412897708000000000000000000000000000000000000000000000000000000000000000000000000000000000000000000000000000000060000000000000         00000000000000000000000PROEXI COMERCIO, EXPORTACAO E                                         000143
10205539814000112041300648601        CLEAN AMBIENTAL          00317997            109003179974             I02080321000031799700317997            16032100000000170753412897708000000000000000000000000000000000000000000000000000000000000000000000000000000000000000000000000000000060000000000000         000000000000000000000004-MEDICA PRODUTOS HOSPITALARES                                        000144
10205539814000112041300648601        CLEAN AMBIENTAL          00317998            109003179982             I02080321000031799800317998            16032100000000090333412897708000000000000000000000000000000000000000000000000000000000000000000000000000000000000000000000000000000030000000000000         00000000000000000000000CLINICA VETERINARIA CETRA-VET                                         000145
10205539814000112041300648601        CLEAN AMBIENTAL          00317999            109003179990             I02080321000031799900317999            16032100000000033033412897708000000000000000000000000000000000000000000000000000000000000000000000000000000000000000000000000000000010000000000000         00000000000000000000000PEDRO SILVA COSTA DIAS 1683482                                        000146
10205539814000112041300648601        CLEAN AMBIENTAL          00318000            109003180006             I02080321000031800000318000            16032100000000119233412897708000000000000000000000000000000000000000000000000000000000000000000000000000000000000000000000000000000040000000000000         00000000000000000000000RV ESTETICA FACIAL EIRELI                                             000147
10205539814000112041300648601        CLEAN AMBIENTAL          00318001            109003180014             I02080321000031800100318001            16032100000000113933412897708000000000000000000000000000000000000000000000000000000000000000000000000000000000000000000000000000000040000000000000         00000000000000000000000CLAUDIA REGINA ROSAS DE SOUZA                                         000148
10205539814000112041300648601        CLEAN AMBIENTAL          00318002            109003180022             I02080321000031800200318002            16032100000000155023411306008000000000000000000000000000000000000000000000000000000000000000000000000000000000000000000000000000000050000000000000         00000000000000000000000021 DENTAL SAO GONCALO ODONTOL                                        000149
10205539814000112041300648601        CLEAN AMBIENTAL          00318003            109003180030             I02080321000031800300318003            20032100000000058953411282308000000000000000000000000000000000000000000000000000000000000000000000000000000000000000000000000000000020000000000000         00000000000000000000000R. P SERVICOS ODONTOLOGICOS EI                                        000150
10205539814000112041300648601        CLEAN AMBIENTAL          00318004            109003180048             I02080321000031800400318004            20032100000000058923414561708000000000000000000000000000000000000000000000000000000000000000000000000000000000000000000000000000000020000000000000         00000000000000000000000R. P SERVICOS ODONTOLOGICOS EI                                        000151
10205539814000112041300648601        CLEAN AMBIENTAL          00318005            109003180055             I02080321000031800500318005            20032100000000058923414561708000000000000000000000000000000000000000000000000000000000000000000000000000000000000000000000000000000020000000000000         00000000000000000000000J. A. 2018 SERVICOS ODONTOLOGI                                        000152
10205539814000112041300648601        CLEAN AMBIENTAL          00318006            109003180063             I02080321000031800600318006            16032100000000096483412897708000000000000000000000000000000000000000000000000000000000000000000000000000000000000000000000000000000030000000000000         00000000000000000000000GISELA GONCALVES SANTOS                                               000153
10205539814000112041300648601        CLEAN AMBIENTAL          00318007            109003180071             I02080321000031800700318007            16032100000000131573412897708000000000000000000000000000000000000000000000000000000000000000000000000000000000000000000000000000000040000000000000         00000000000000000000000CONDOMINIO DO EDIFICIO UZAI                                           000154
10205539814000112041300648601        CLEAN AMBIENTAL          00318008            109003180089             I02080321000031800800318008            16032100000000057633412897708000000000000000000000000000000000000000000000000000000000000000000000000000000000000000000000000000000020000000000000         00000000000000000000000PROLIFE GESTAO DE QUALIDADE EM                                        000155
10205539814000112041300648601        CLEAN AMBIENTAL          00318009            109003180097             I02080321000031800900318009            16032100000000056053412897708000000000000000000000000000000000000000000000000000000000000000000000000000000000000000000000000000000020000000000000         00000000000000000000000FONTANA DI BELLE FISIOTERAPIA                                         000156
10205539814000112041300648601        CLEAN AMBIENTAL          00318010            109003180105             I02080321000031801000318010            16032100000000056053412897708000000000000000000000000000000000000000000000000000000000000000000000000000000000000000000000000000000020000000000000         00000000000000000000000JFP FISIOTERAPIA DERMATO FUNCI                                        000157
10205539814000112041300648601        CLEAN AMBIENTAL          00318011            109003180113             I02080321000031801100318011            16032100000000061323412897708000000000000000000000000000000000000000000000000000000000000000000000000000000000000000000000000000000020000000000000         00000000000000000000000GABRIELA LEMOS BENIGNO                                                000158
10205539814000112041300648601        CLEAN AMBIENTAL          00318012            109003180121             I02080321000031801200318012            16032100000000128163412897708000000000000000000000000000000000000000000000000000000000000000000000000000000000000000000000000000000040000000000000         00000000000000000000000SB FREGUESIA CLINICA ODONTOLOG                                        000159
10205539814000112041300648601        CLEAN AMBIENTAL          00318013            109003180139             I02080321000031801300318013            16032100000000068293412897708000000000000000000000000000000000000000000000000000000000000000000000000000000000000000000000000000000020000000000000         00000000000000000000000CLEANE ALVES GONDIM                                                   000160
10205539814000112041300648601        CLEAN AMBIENTAL          00318014            109003180147             I02080321000031801400318014            16032100000000087633412897708000000000000000000000000000000000000000000000000000000000000000000000000000000000000000000000000000000030000000000000         00000000000000000000000DROGARIA VIVA BEM DE ROCHA MIR                                        000161
10205539814000112041300648601        CLEAN AMBIENTAL          00318015            109003180154             I02080321000031801500318015            16032100000000117633412897708000000000000000000000000000000000000000000000000000000000000000000000000000000000000000000000000000000040000000000000         00000000000000000000000BECHARA DERME SERVICOS MEDICOS                                        000162
10205539814000112041300648601        CLEAN AMBIENTAL          00318016            109003180162             I02080321000031801600318016            16032100000000117633412897708000000000000000000000000000000000000000000000000000000000000000000000000000000000000000000000000000000040000000000000         00000000000000000000000ANDERSON DO ESPIRITO SANTO                                            000163
10205539814000112041300648601        CLEAN AMBIENTAL          00318017            109003180170             I02080321000031801700318017            16032100000000087633412897708000000000000000000000000000000000000000000000000000000000000000000000000000000000000000000000000000000030000000000000         00000000000000000000000FERNANDA DE OLIVEIRA SOLIVA ME                                        000164
10205539814000112041300648601        CLEAN AMBIENTAL          00318018            109003180188             I02080321000031801800318018            16032100000000132983412897708000000000000000000000000000000000000000000000000000000000000000000000000000000000000000000000000000000040000000000000         00000000000000000000000MNH SERVICOS ODONTOLOGICOS LTD                                        000165
10205539814000112041300648601        CLEAN AMBIENTAL          00318019            109003180196             I02080321000031801900318019            16032100000000102493412897708000000000000000000000000000000000000000000000000000000000000000000000000000000000000000000000000000000030000000000000         00000000000000000000000XTEC MATERIAL HOSPITALAR LTDA                                         000166
10205539814000112041300648601        CLEAN AMBIENTAL          00318020            109003180204             I02080321000031802000318020            16032100000000102493412897708000000000000000000000000000000000000000000000000000000000000000000000000000000000000000000000000000000030000000000000         00000000000000000000000HL COMERCIO HOSPITALAR LTDA                                           000167
10205539814000112041300648601        CLEAN AMBIENTAL          00318021            109003180212             I02080321000031802100318021            16032100000000117633412897708000000000000000000000000000000000000000000000000000000000000000000000000000000000000000000000000000000040000000000000         00000000000000000000000INSTITUTO DE BELEZA INTEGRATIV                                        000168
10205539814000112041300648601        CLEAN AMBIENTAL          00318022            109003180220             I02080321000031802200318022            16032100000000061323412897708000000000000000000000000000000000000000000000000000000000000000000000000000000000000000000000000000000020000000000000         00000000000000000000000THALYTA BRAGA DE MORAES                                               000169
10205539814000112041300648601        CLEAN AMBIENTAL          00318023            109003180238             I02080321000031802300318023            16032100000000071383412897708000000000000000000000000000000000000000000000000000000000000000000000000000000000000000000000000000000020000000000000         00000000000000000000000CENTRO REABILITAR LTDA                                                000170
10205539814000112041300648601        CLEAN AMBIENTAL          00318024            109003180246             I02080321000031802400318024            14032100000000302183412897708000000000000000000000000000000000000000000000000000000000000000000000000000000000000000000000000000000100000000000000         00000000000000000000000CASA GERIATRICA SAO MATEUS                                            000171
10205539814000112041300648601        CLEAN AMBIENTAL          00318025            109003180253             I02080321000031802500318025            16032100000000120013412897708000000000000000000000000000000000000000000000000000000000000000000000000000000000000000000000000000000040000000000000         00000000000000000000000WELCOME PET CLINICA VETERINARI                                        000172
10205539814000112041300648601        CLEAN AMBIENTAL          00318026            109003180261             I02080321000031802600318026            16032100000000101973410059608000000000000000000000000000000000000000000000000000000000000000000000000000000000000000000000000000000030000000000000         00000000000000000000000ASSOCIACAO BRASILEIRA DE EDUCA                                        000173
10205539814000112041300648601        CLEAN AMBIENTAL          00318027            109003180279             I02080321000031802700318027            25032100000000097493410059608000000000000000000000000000000000000000000000000000000000000000000000000000000000000000000000000000000030000000000000         00000000000000000000000ORTOPEDIA E TRAUMATOLOGIA ICAR                                        000174
10205539814000112041300648601        CLEAN AMBIENTAL          00318028            109003180287             I02080321000031802800318028            17032100000000583953412897708000000000000000000000000000000000000000000000000000000000000000000000000000000000000000000000000000000190000000000000         00000000000000000000000RESTAURANTE E BAR NOVA TABERNA                                        000175
10205539814000112041300648601        CLEAN AMBIENTAL          00318029            109003180295             I02080321000031802900318029            17032100000002091893412897708000000000000000000000000000000000000000000000000000000000000000000000000000000000000000000000000000006900000000000000         00000000000000000000000CEI COMERCIO EXPORTACAO E IMP                                         000176
10205539814000112041300648601        CLEAN AMBIENTAL          00318030            109003180303             I02080321000031803000318030            17032100000000527363412897708000000000000000000000000000000000000000000000000000000000000000000000000000000000000000000000000000000170000000000000         00000000000000000000000CAFE EXPRESSO LTDA                                                    000177
10205539814000112041300648601        CLEAN AMBIENTAL          00318031            109003180311             I02080321000031803100318031            17032100000000266193412897708000000000000000000000000000000000000000000000000000000000000000000000000000000000000000000000000000000090000000000000         00000000000000000000000PRODUTOS ALIMENTICIOS ELIE LTD                                        000178
10205539814000112041300648601        CLEAN AMBIENTAL          00318032            109003180329             I02080321000031803200318032            17032100000000494433412897708000000000000000000000000000000000000000000000000000000000000000000000000000000000000000000000000000000160000000000000         00000000000000000000000MEDITRAUMA LTDA - EPP                                                 000179
10205539814000112041300648601        CLEAN AMBIENTAL          00318033            109003180337             I02080321000031803300318033            08042100000000696323412897708000000000000000000000000000000000000000000000000000000000000000000000000000000000000000000000000000000230000000000000         00000000000000000000000CIDADE MARAVILHOS INDUSTRIA E                                         000180
10205539814000112041300648601        CLEAN AMBIENTAL          00318034            109003180345             I02080321000031803400318034            17032100000000430263412897708000000000000000000000000000000000000000000000000000000000000000000000000000000000000000000000000000000140000000000000         00000000000000000000000BAR E RESTAURANTE PEDRA FURADA                                        000181
10205539814000112041300648601        CLEAN AMBIENTAL          00318035            109003180352             I02080321000031803500318035            17032100000000623473412897708000000000000000000000000000000000000000000000000000000000000000000000000000000000000000000000000000000210000000000000         00000000000000000000000HONDARRIBIA RESTAURANTE LTDA                                          000182
10205539814000112041300648601        CLEAN AMBIENTAL          00318036            109003180360             I02080321000031803600318036            17032100000000562713412897708000000000000000000000000000000000000000000000000000000000000000000000000000000000000000000000000000000190000000000000         00000000000000000000000GENIPABU CONFECCOES LTDA - EPP                                        000183
10205539814000112041300648601        CLEAN AMBIENTAL          00318037            109003180378             I02080321000031803700318037            22032100000000529213412897708000000000000000000000000000000000000000000000000000000000000000000000000000000000000000000000000000000170000000000000         00000000000000000000000ZERO FRUTI RICARDO DE ALBUQUER                                        000184
10205539814000112041300648601        CLEAN AMBIENTAL          00318038            109003180386             I02080321000031803800318038            22032100000000665583412897708000000000000000000000000000000000000000000000000000000000000000000000000000000000000000000000000000000220000000000000         00000000000000000000000CONFEITARIA MARACANA LTDA - ME                                        000185
10205539814000112041300648601        CLEAN AMBIENTAL          00318039            109003180394             I02080321000031803900318039            08042100000003808773412897708000000000000000000000000000000000000000000000000000000000000000000000000000000000000000000000000000012570000000000000         00000000000000000000000RBX RIO COMERCIO DE ROUPAS S.A                                        000186
10205539814000112041300648601        CLEAN AMBIENTAL          00318040            109003180402             I02080321000031804000318040            17032100000001631583412897708000000000000000000000000000000000000000000000000000000000000000000000000000000000000000000000000000005380000000000000         00000000000000000000000GRILL CLUB RESTAURANTE LTDA -                                         000187
10205539814000112041300648601        CLEAN AMBIENTAL          00318041            109003180410             I02080321000031804100318041            17032100000000510953412897708000000000000000000000000000000000000000000000000000000000000000000000000000000000000000000000000000000170000000000000         00000000000000000000000BAR ESCRITORIO DA ESQUINA LTDA                                        000188
10205539814000112041300648601        CLEAN AMBIENTAL          00318042            109003180428             I02080321000031804200318042            22032100000000398603412897708000000000000000000000000000000000000000000000000000000000000000000000000000000000000000000000000000000130000000000000         00000000000000000000000ARTE DE FAZER PADARIA E CONFEI                                        000189
10205539814000112041300648601        CLEAN AMBIENTAL          00318043            109003180436             I02080321000031804300318043            17032100000000218953412897708000000000000000000000000000000000000000000000000000000000000000000000000000000000000000000000000000000070000000000000         00000000000000000000000CAFE E BAR CAMPEAO LTDA - EPP                                         000190
10205539814000112041300648601        CLEAN AMBIENTAL          00318044            109003180444             I02080321000031804400318044            17032100000000229593412897708000000000000000000000000000000000000000000000000000000000000000000000000000000000000000000000000000000080000000000000         00000000000000000000000CANAL A COMUNICACAO S/S LTDA                                          000191
10205539814000112041300648601        CLEAN AMBIENTAL          00318045            109003180451             I02080321000031804500318045            17032100000001393163412897708000000000000000000000000000000000000000000000000000000000000000000000000000000000000000000000000000004600000000000000         00000000000000000000000CONDOMINIO DO EDIFICIO COMERCI                                        000192
10205539814000112041300648601        CLEAN AMBIENTAL          00318046            109003180469             I02080321000031804600318046            17032100000000263693412897708000000000000000000000000000000000000000000000000000000000000000000000000000000000000000000000000000000090000000000000         00000000000000000000000PADARIA E CONFEITARIA REAL DE                                         000193
10205539814000112041300648601        CLEAN AMBIENTAL          00318047            109003180477             I02080321000031804700318047            17032100000000353673412897708000000000000000000000000000000000000000000000000000000000000000000000000000000000000000000000000000000120000000000000         00000000000000000000000HAMBURGUERIA RRG DO CENTRO LTD                                        000194
10205539814000112041300648601        CLEAN AMBIENTAL          00318048            109003180485             I02080321000031804800318048            17032100000000252673412897708000000000000000000000000000000000000000000000000000000000000000000000000000000000000000000000000000000080000000000000         00000000000000000000000POSTO SERVICENTRO CARNEIRO LTD                                        000195
10205539814000112041300648601        CLEAN AMBIENTAL          00318049            109003180493             I02080321000031804900318049            22032100000003027373412897708000000000000000000000000000000000000000000000000000000000000000000000000000000000000000000000000000009990000000000000         00000000000000000000000CGGOMES76 INDUSTRIA E COMERCIO                                        000196
10205539814000112041300648601        CLEAN AMBIENTAL          00318050            109003180501             I02080321000031805000318050            17032100000000239063412897708000000000000000000000000000000000000000000000000000000000000000000000000000000000000000000000000000000080000000000000         00000000000000000000000POSTO DE GASOLINA MARECHAL DE                                         000197
10205539814000112041300648601        CLEAN AMBIENTAL          00318051            109003180519             I02080321000031805100318051            17032100000000354373412897708000000000000000000000000000000000000000000000000000000000000000000000000000000000000000000000000000000120000000000000         00000000000000000000000CONDOMINIO ED CENTRO EMPRESARI                                        000198
10205539814000112041300648601        CLEAN AMBIENTAL          00318052            109003180527             I02080321000031805200318052            25032100000000365723412897708000000000000000000000000000000000000000000000000000000000000000000000000000000000000000000000000000000120000000000000         00000000000000000000000CONDOMINIO DO EDIFICIO SAO JER                                        000199
10205539814000112041300648601        CLEAN AMBIENTAL          00318053            109003180535             I02080321000031805300318053            17032100000001111363412897708000000000000000000000000000000000000000000000000000000000000000000000000000000000000000000000000000003670000000000000         00000000000000000000000CENTRO COMERCIAL SAN FRANCISCO                                        000200
10205539814000112041300648601        CLEAN AMBIENTAL          00318054            109003180543             I02080321000031805400318054            17032100000000335773412897708000000000000000000000000000000000000000000000000000000000000000000000000000000000000000000000000000000110000000000000         00000000000000000000000PADARIA E CONFEITARIA WEST POS                                        000201
10205539814000112041300648601        CLEAN AMBIENTAL          00318055            109003180550             I02080321000031805500318055            17032100000000335783412897708000000000000000000000000000000000000000000000000000000000000000000000000000000000000000000000000000000110000000000000         00000000000000000000000CONFEITARIA MOCIDADE DO SAO VI                                        000202
10205539814000112041300648601        CLEAN AMBIENTAL          00318056            109003180568             I02080321000031805600318056            17032100000000358683412897708000000000000000000000000000000000000000000000000000000000000000000000000000000000000000000000000000000120000000000000         00000000000000000000000GALANTE SUCOS E LANCHES LTDA M                                        000203
10205539814000112041300648601        CLEAN AMBIENTAL          00318057            109003180576             I02080321000031805700318057            22032100000000316613412897708000000000000000000000000000000000000000000000000000000000000000000000000000000000000000000000000000000100000000000000         00000000000000000000000AVIARIO PADRE MIGUEL LTDA                                             000204
10205539814000112041300648601        CLEAN AMBIENTAL          00318058            109003180584             I02080321000031805800318058            17032100000000403613412897708000000000000000000000000000000000000000000000000000000000000000000000000000000000000000000000000000000130000000000000         00000000000000000000000CRECHE ALEGRIA & CIA LTDA - ME                                        000205
10205539814000112041300648601        CLEAN AMBIENTAL          00318059            109003180592             I02080321000031805900318059            17032100000000756993412897708000000000000000000000000000000000000000000000000000000000000000000000000000000000000000000000000000000250000000000000         00000000000000000000000RJ BOTAFOGO CLINICA ODONTOLOGI                                        000206
10205539814000112041300648601        CLEAN AMBIENTAL          00318060            109003180600             I02080321000031806000318060            17032100000000367273412897708000000000000000000000000000000000000000000000000000000000000000000000000000000000000000000000000000000120000000000000         00000000000000000000000LANCHONETE MAYFLOWER LTDA                                             000207
10205539814000112041300648601        CLEAN AMBIENTAL          00318061            109003180618             I02080321000031806100318061            17032100000000468833412897708000000000000000000000000000000000000000000000000000000000000000000000000000000000000000000000000000000150000000000000         00000000000000000000000PEQUENA ITALIA BARRA LANCHONET                                        000208
10205539814000112041300648601        CLEAN AMBIENTAL          00318062            109003180626             I02080321000031806200318062            17032100000000303953412897708000000000000000000000000000000000000000000000000000000000000000000000000000000000000000000000000000000100000000000000         00000000000000000000000NOVO MUNDO 2007 RESTAURANTE LT                                        000209
10205539814000112041300648601        CLEAN AMBIENTAL          00318063            109003180634             I02080321000031806300318063            17032100000001043783412897708000000000000000000000000000000000000000000000000000000000000000000000000000000000000000000000000000003440000000000000         00000000000000000000000HOTEL ROSA DA VILA LTDA                                               000210
10205539814000112041300648601        CLEAN AMBIENTAL          00318064            109003180642             I02080321000031806400318064            17032100000000497923412897708000000000000000000000000000000000000000000000000000000000000000000000000000000000000000000000000000000160000000000000         00000000000000000000000SIL 22 HORTIFRUTI EIRELI                                              000211
10205539814000112041300648601        CLEAN AMBIENTAL          00318065            109003180659             I02080321000031806500318065            17032100000000137963412897708000000000000000000000000000000000000000000000000000000000000000000000000000000000000000000000000000000050000000000000         00000000000000000000000REJANE ARAUJO DOS SANTOS 04319                                        000212
10205539814000112041300648601        CLEAN AMBIENTAL          00318066            109003180667             I02080321000031806600318066            17032100000000497823412897708000000000000000000000000000000000000000000000000000000000000000000000000000000000000000000000000000000160000000000000         00000000000000000000000MANUJOIAS COMERCIO DE ROUPAS E                                        000213
10205539814000112041300648601        CLEAN AMBIENTAL          00318067            109003180675             I02080321000031806700318067            17032100000000896593412897708000000000000000000000000000000000000000000000000000000000000000000000000000000000000000000000000000000300000000000000         00000000000000000000000EMBREPAR DO BRASIL - EIRELI                                           000214
10205539814000112041300648601        CLEAN AMBIENTAL          00318068            109003180683             I02080321000031806800318068            17032100000000393423412897708000000000000000000000000000000000000000000000000000000000000000000000000000000000000000000000000000000130000000000000         00000000000000000000000CAFE E BAR BAMBINA LTDA                                               000215
10205539814000112041300648601        CLEAN AMBIENTAL          00318069            109003180691             I02080321000031806900318069            17032100000000314473412897708000000000000000000000000000000000000000000000000000000000000000000000000000000000000000000000000000000100000000000000         00000000000000000000000COPPOS COMPANY BURGER LANCHONE                                        000216
10205539814000112041300648601        CLEAN AMBIENTAL          00318070            109003180709             I02080321000031807000318070            17032100000000416393412897708000000000000000000000000000000000000000000000000000000000000000000000000000000000000000000000000000000140000000000000         00000000000000000000000MAHINA COMERCIO DE ALIMENTOS L                                        000217
10205539814000112041300648601        CLEAN AMBIENTAL          00318071            109003180717             I02080321000031807100318071            17032100000000518643412897708000000000000000000000000000000000000000000000000000000000000000000000000000000000000000000000000000000170000000000000         00000000000000000000000AUTO POSTO LAGOA CARIOCA LTDA                                         000218
10205539814000112041300648601        CLEAN AMBIENTAL          00318072            109003180725             I02080321000031807200318072            17032100000000882513412897708000000000000000000000000000000000000000000000000000000000000000000000000000000000000000000000000000000290000000000000         00000000000000000000000BELINUTRI DISTRIBUIDORA DE MED                                        000219
10205539814000112041300648601        CLEAN AMBIENTAL          00318073            109003180733             I02080321000031807300318073            17032100000000250053412897708000000000000000000000000000000000000000000000000000000000000000000000000000000000000000000000000000000080000000000000         00000000000000000000000CAFE E BAR FONTE NOVA LTDA                                            000220
10205539814000112041300648601        CLEAN AMBIENTAL          00318074            109003180741             I02080321000031807400318074            17032100000000435653412897708000000000000000000000000000000000000000000000000000000000000000000000000000000000000000000000000000000140000000000000         00000000000000000000000MJB RODRIGUES HORTIFRUTI                                              000221
10205539814000112041300648601        CLEAN AMBIENTAL          00318075            109003180758             I02080321000031807500318075            17032100000000354583412897708000000000000000000000000000000000000000000000000000000000000000000000000000000000000000000000000000000120000000000000         00000000000000000000000SHAKA POKE SUSHI BAR E POKE HA                                        000222
10205539814000112041300648601        CLEAN AMBIENTAL          00318076            109003180766             I02080321000031807600318076            17032100000000975323412897708000000000000000000000000000000000000000000000000000000000000000000000000000000000000000000000000000000320000000000000         00000000000000000000000AUTO POSTO NOVO AMERICAS LTDA                                         000223
10205539814000112041300648601        CLEAN AMBIENTAL          00318077            109003180774             I02080321000031807700318077            27032100000000816793412897708000000000000000000000000000000000000000000000000000000000000000000000000000000000000000000000000000000270000000000000         00000000000000000000000BAR E RESTAURANTE GEGE LTDA                                           000224
10205539814000112041300648601        CLEAN AMBIENTAL          00318078            109003180782             I02080321000031807800318078            17032100000001615533412897708000000000000000000000000000000000000000000000000000000000000000000000000000000000000000000000000000005330000000000000         00000000000000000000000SM RECREIO - COMERCIO DE ALIME                                        000225
10205539814000112041300648601        CLEAN AMBIENTAL          00318079            109003180790             I02080321000031807900318079            17032100000000163233412897708000000000000000000000000000000000000000000000000000000000000000000000000000000000000000000000000000000050000000000000         00000000000000000000000MLF FAST FOOD EIRELE                                                  000226
10205539814000112041300648601        CLEAN AMBIENTAL          00318080            109003180808             I02080321000031808000318080            17032100000000284323412897708000000000000000000000000000000000000000000000000000000000000000000000000000000000000000000000000000000090000000000000         00000000000000000000000FITZZA - PIZZARIA LOJA ARPOADO                                        000227
10205539814000112041300648601        CLEAN AMBIENTAL          00318081            109003180816             I02080321000031808100318081            17032100000001246423412897708000000000000000000000000000000000000000000000000000000000000000000000000000000000000000000000000000004110000000000000         00000000000000000000000COOPETUR EMPREENDIMENTOS TURIS                                        000228
10205539814000112041300648601        CLEAN AMBIENTAL          00318082            109003180824             I02080321000031808200318082            22032100000002871983412897708000000000000000000000000000000000000000000000000000000000000000000000000000000000000000000000000000009480000000000000         00000000000000000000000CENTRO EMPRESARIAL OFFICE TOWE                                        000229
10205539814000112041300648601        CLEAN AMBIENTAL          00318083            109003180832             I02080321000031808300318083            17032100000000807623412897708000000000000000000000000000000000000000000000000000000000000000000000000000000000000000000000000000000270000000000000         00000000000000000000000CONDOMINIO DO EDIFICIO COPACAB                                        000230
10205539814000112041300648601        CLEAN AMBIENTAL          00318084            109003180840             I02080321000031808400318084            15032100000000071343410229508000000000000000000000000000000000000000000000000000000000000000000000000000000000000000000000000000000020000000000000         00000000000000000000000DROGA EPPUS LTDA ME                                                   000231
10205539814000112041300648601        CLEAN AMBIENTAL          00318085            109003180857             I02080321000031808500318085            15032100000000162523411282308000000000000000000000000000000000000000000000000000000000000000000000000000000000000000000000000000000050000000000000         00000000000000000000000FARMACIA CHILE LTDA - EPP                                             000232
10205539814000112041300648601        CLEAN AMBIENTAL          00318086            109003180865             I02080321000031808600318086            25032100000001233473412897708000000000000000000000000000000000000000000000000000000000000000000000000000000000000000000000000000004070000000000000         00000000000000000000000JORGE JABER CLINICA DE PSICOTE                                        000233
10205539814000112041300648601        CLEAN AMBIENTAL          00318087            109003180873             I02080321000031808700318087            15032100000000190053411282308000000000000000000000000000000000000000000000000000000000000000000000000000000000000000000000000000000060000000000000         00000000000000000000000NORTE CAXIENSE POLICLINICA LTD                                        000234
10205539814000112041300648601        CLEAN AMBIENTAL          00318088            109003180881             I02080321000031808800318088            25032100000000676123410201408000000000000000000000000000000000000000000000000000000000000000000000000000000000000000000000000000000220000000000000         00000000000000000000000CENTRO MEDICO CIRURGICO SAO PA                                        000235
10205539814000112041300648601        CLEAN AMBIENTAL          00318089            109003180899             I02080321000031808900318089            25032100000000219533412897708000000000000000000000000000000000000000000000000000000000000000000000000000000000000000000000000000000070000000000000         00000000000000000000000COND ED MAD SHOPPING DAYS                                             000236
10205539814000112041300648601        CLEAN AMBIENTAL          00318090            109003180907             I02080321000031809000318090            18032100000000281943412897708000000000000000000000000000000000000000000000000000000000000000000000000000000000000000000000000000000090000000000000         00000000000000000000000D\'JULIA RESTAURANTE LTDA                                             000237
10205539814000112041300648601        CLEAN AMBIENTAL          00318091            109003180915             I02080321000031809100318091            18032100000000390713412897708000000000000000000000000000000000000000000000000000000000000000000000000000000000000000000000000000000130000000000000         00000000000000000000000GARDENIA RESTAURANTE LTDA                                             000238
10205539814000112041300648601        CLEAN AMBIENTAL          00318092            109003180923             I02080321000031809200318092            18032100000000045003412897708000000000000000000000000000000000000000000000000000000000000000000000000000000000000000000000000000000010000000000000         00000000000000000000000ODONTOCLINICA BARRA DA TIJUCA                                         000239
10205539814000112041300648601        CLEAN AMBIENTAL          00318093            109003180931             I02080321000031809300318093            18032100000000096583412897708000000000000000000000000000000000000000000000000000000000000000000000000000000000000000000000000000000030000000000000         00000000000000000000000BEL PIZZARIA LTDA                                                     000240
10205539814000112041300648601        CLEAN AMBIENTAL          00318094            109003180949             I02080321000031809400318094            18032100000000635533412897708000000000000000000000000000000000000000000000000000000000000000000000000000000000000000000000000000000210000000000000         00000000000000000000000BASE TATTOO COMERCIO E SERVICO                                        000241
10205539814000112041300648601        CLEAN AMBIENTAL          00318095            109003180956             I02080321000031809500318095            17032100000000132803410201408000000000000000000000000000000000000000000000000000000000000000000000000000000000000000000000000000000040000000000000         00000000000000000000000JOAO GILBERTO COSTA NETO                                              000242
10205539814000112041300648601        CLEAN AMBIENTAL          00318096            109003180964             I02080321000031809600318096            17032100000000079143410201408000000000000000000000000000000000000000000000000000000000000000000000000000000000000000000000000000000030000000000000         00000000000000000000000CILEIA REGINA B. RODRIGUES                                            000243
10205539814000112041300648601        CLEAN AMBIENTAL          00318097            109003180972             I02080321000031809700318097            17032100000000103243410229508000000000000000000000000000000000000000000000000000000000000000000000000000000000000000000000000000000030000000000000         00000000000000000000000GUSTAVO NOSSAR PIRES MATHEUS D                                        000244
10205539814000112041300648601        CLEAN AMBIENTAL          00318098            109003180980             I02080321000031809800318098            17032100000000203143412897708000000000000000000000000000000000000000000000000000000000000000000000000000000000000000000000000000000070000000000000         00000000000000000000000AZEVEDO & PATRICIO ABRIGO PARA                                        000245
10205539814000112041300648601        CLEAN AMBIENTAL          00318099            109003180998             I02080321000031809900318099            17032100000000199573412897708000000000000000000000000000000000000000000000000000000000000000000000000000000000000000000000000000000070000000000000         00000000000000000000000BRUNO MONTEIRO MENDES                                                 000246
10205539814000112041300648601        CLEAN AMBIENTAL          00318100            109003181004             I02080321000031810000318100            17032100000003307783410059608000000000000000000000000000000000000000000000000000000000000000000000000000000000000000000000000000010920000000000000         00000000000000000000000LABORATORIO DOM BOSCO LTDA                                            000247
10205539814000112041300648601        CLEAN AMBIENTAL          00318101            109003181012             I02080321000031810100318101            17032100000000514093412897708000000000000000000000000000000000000000000000000000000000000000000000000000000000000000000000000000000170000000000000         00000000000000000000000CONDOMINIO DO EDIFICIO VILA TR                                        000248
