02RETORNO01COBRANCA       041300648601        CLEAN AMB SERV COL TRANSP LTDA341BANCO ITAU S.A.01111701600BPI01782011117                                                                                                                                                                                                                                                                                   000001
10205539814000112041300648601        CLEAN AMBIENTAL          00000694            109000006949             I04011117000000069400000694            01111700000000231353412897715000000000000000000000000000000000000000000000000000000000000000000000000000000000000000000000000000000000000000000000         00000000000000000000000WM WORLD MEDICAL IMPORTACAO E                                         000002
10205539814000112041300648601        CLEAN AMBIENTAL          00001217            109000012178             I02011117000000121700001217            03111700000000416843412897715000000000000000000000000000000000000000000000000000000000000000000000000000000000000000000000000000001370000000000000         00000000000000000000000BANCO BRADESCO S.A                                                    000003
10205539814000112041300648601        CLEAN AMBIENTAL          00001547            109000015478             I04011117000000154700001547            01111700000000325143412897715000000000000000000000000000000000000000000000000000000000000000000000000000000000000000000000000000000000000000000000         00000000000000000000000RB 177 COMERCIO DE ALIMENTOS L                                        000004
10205539814000112041300648601        CLEAN AMBIENTAL          00001642            109000016427             I04011117000000164200001642            06111700000000119843412897715000000000000000000000000000000000000000000000000000000000000000000000000000000000000000000000000000000000000000000000         00000000000000000000000XIAOXIAN RESTAURANTE LTDA - EP                                        000005
10205539814000112041300648601        CLEAN AMBIENTAL          00001666            109000016666             I04011117000000166600001666            01111700000000115533412897715000000000000000000000000000000000000000000000000000000000000000000000000000000000000000000000000000000000000000000000         00000000000000000000000CARLOS AUGUSTO CABO PEREIRA                                           000006
10205539814000112041300648601        CLEAN AMBIENTAL          00001734            109000017342             I04011117000000173400001734            06111700000000336583412897715000000000000000000000000000000000000000000000000000000000000000000000000000000000000000000000000000000000000000000000         00000000000000000000000GULAS DE BANGU RESTAURANTE LTD                                        000007
10205539814000112041300648601        CLEAN AMBIENTAL          00001754            109000017540             I04011117000000175400001754            01111700000000283163412897715000000000000000000000000000000000000000000000000000000000000000000000000000000000000000000000000000000000000000000000         00000000000000000000000CAFE E BAR BOTAFOGO LTDA - ME                                         000008
10205539814000112041300648601        CLEAN AMBIENTAL          00001864            109000018647             I04011117000000186400001864            01111700000000163163412897715000000000000000000000000000000000000000000000000000000000000000000000000000000000000000000000000000000000000000000000         00000000000000000000000THE SCOLE ENSINO DE IDIOMAS EI                                        000009
10205539814000112041300648601        CLEAN AMBIENTAL          00002210            109000022102             I02011117000000221000002210            06111700000000173003412897715000000000000000000000000000000000000000000000000000000000000000000000000000000000000000000000000000000570000000000000         00000000000000000000000PASTELARIA DA REDE CAMPOGRANDE                                        000010
10205539814000112041300648601        CLEAN AMBIENTAL          00002983            109000029834             I02011117000000298300002983            07111700000001183003412897715000000000000000000000000000000000000000000000000000000000000000000000000000000000000000000000000000003900000000000000         00000000000000000000000ZILDS BAR LTDA                                                        000011
10205539814000112041300648601        CLEAN AMBIENTAL          00003522            109000035229             I04011117000000352200003522            10111700000000194393412897715000000000000000000000000000000000000000000000000000000000000000000000000000000000000000000000000000000000000000000000         00000000000000000000000LANCHONETE ROSA DO ADRO LTDA -                                        000012
10205539814000112041300648601        CLEAN AMBIENTAL          00003837            109000038371             I04011117000000383700003837            06111700000000336323412897715000000000000000000000000000000000000000000000000000000000000000000000000000000000000000000000000000000000000000000000         00000000000000000000000MERCEARIA TELLES VIEIRA EIRELI                                        000013
10205539814000112041300648601        CLEAN AMBIENTAL          00003970            109000039700             I04011117000000397000003970            06111700000000268683412897715000000000000000000000000000000000000000000000000000000000000000000000000000000000000000000000000000000000000000000000         00000000000000000000000RESTAURANTE SABOR DE FAMILIA L                                        000014
10205539814000112041300648601        CLEAN AMBIENTAL          00004692            109000046929             I04011117000000469200004692            01111700000001438553412897715000000000000000000000000000000000000000000000000000000000000000000000000000000000000000000000000000000000000000000000         00000000000000000000000BAR RIAN LTDA                                                         000015
10205539814000112041300648601        CLEAN AMBIENTAL          00004851            109000048511             I04011117000000485100004851            03111700000000224673412897715000000000000000000000000000000000000000000000000000000000000000000000000000000000000000000000000000000000000000000000         00000000000000000000000MELADE LANCHONETE BAR DOCES E                                         000016
10205539814000112041300648601        CLEAN AMBIENTAL          00004855            109000048552             I04011117000000485500004855            03111700000000310433412897715000000000000000000000000000000000000000000000000000000000000000000000000000000000000000000000000000000000000000000000         00000000000000000000000IVSON COMERCIO DE PRODUTOS DE                                         000017
10205539814000112041300648601        CLEAN AMBIENTAL          00004954            109000049543             I02011117000000495400004954            03111700000000281053412897715000000000000000000000000000000000000000000000000000000000000000000000000000000000000000000000000000000930000000000000         00000000000000000000000ACOUGUE DOM MAR LTDA - ME                                             000018
10205539814000112041300648601        CLEAN AMBIENTAL          00005067            109000050673             I02011117000000506700005067            03111700000000586053412897715000000000000000000000000000000000000000000000000000000000000000000000000000000000000000000000000000001930000000000000         00000000000000000000000CONDOMINIO DO EDIFICIO SANTO A                                        000019
10205539814000112041300648601        CLEAN AMBIENTAL          00005229            109000052299             I04011117000000522900005229            01111700000000423223412897715000000000000000000000000000000000000000000000000000000000000000000000000000000000000000000000000000000000000000000000         00000000000000000000000BOM SUCESSO - O SABOR DO PALAD                                        000020
10205539814000112041300648601        CLEAN AMBIENTAL          00005319            109000053198             I04011117000000531900005319            03111700000000257313412897715000000000000000000000000000000000000000000000000000000000000000000000000000000000000000000000000000000000000000000000         00000000000000000000000SEBASTIAO G DA SILVA BAR RESTA                                        000021
10205539814000112041300648601        CLEAN AMBIENTAL          00005351            109000053511             I04011117000000535100005351            03111700000000520513412897715000000000000000000000000000000000000000000000000000000000000000000000000000000000000000000000000000000000000000000000         00000000000000000000000RESTAURANTE GARFO E SABOR LTDA                                        000022
10205539814000112041300648601        CLEAN AMBIENTAL          00005390            109000053909             I04011117000000539000005390            13111700000000383163412897715000000000000000000000000000000000000000000000000000000000000000000000000000000000000000000000000000000000000000000000         00000000000000000000000PLATINUM BENEDICTUS LTDA - EPP                                        000023
10205539814000112041300648601        CLEAN AMBIENTAL          00005598            109000055987             I04011117000000559800005598            06111700000000128683412897715000000000000000000000000000000000000000000000000000000000000000000000000000000000000000000000000000000000000000000000         00000000000000000000000RESTAURANTE DELICIA DA GULA DA                                        000024
10205539814000112041300648601        CLEAN AMBIENTAL          00005676            109000056761             I02011117000000567600005676            01111700000000205263412897715000000000000000000000000000000000000000000000000000000000000000000000000000000000000000000000000000000680000000000000         00000000000000000000000BAR E LANCHONETE QUEBRA GALHO                                         000025
10205539814000112041300648601        CLEAN AMBIENTAL          00005988            109000059880             I04011117000000598800005988            07111700000001742113412897715000000000000000000000000000000000000000000000000000000000000000000000000000000000000000000000000000000000000000000000         00000000000000000000000VIACAO AGUIA BRANCA S/A                                               000026
10205539814000112041300648601        CLEAN AMBIENTAL          00006028            109000060284             I04011117000000602800006028            06111700000000225473412897715000000000000000000000000000000000000000000000000000000000000000000000000000000000000000000000000000000000000000000000         00000000000000000000000HORTIFRUTI SUPER VITORIA EIREL                                        000027
10205539814000112041300648601        CLEAN AMBIENTAL          00006036            109000060367             I04011117000000603600006036            01111700000000094743412897715000000000000000000000000000000000000000000000000000000000000000000000000000000000000000000000000000000000000000000000         00000000000000000000000GINASIO GAMA E SOUZA LTDA                                             000028
10205539814000112041300648601        CLEAN AMBIENTAL          00006169            109000061696             I04011117000000616900006169            02111700000001577823410059615000000000000000000000000000000000000000000000000000000000000005000000000000000000000000000000000000000000000000000000         00000000000000000000000GALETO CINELANDIA                                                     000029
10205539814000112041300648601        CLEAN AMBIENTAL          00006300            109000063007             I04011117000000630000006300            01111700000000312003412897715000000000000000000000000000000000000000000000000000000000000000000000000000000000000000000000000000000000000000000000         00000000000000000000000RB 177 COMERCIO DE ALIMENTOS L                                        000030
10205539814000112041300648601        CLEAN AMBIENTAL          00006301            109000063015             I04011117000000630100006301            01111700000000410363412897715000000000000000000000000000000000000000000000000000000000000000000000000000000000000000000000000000000000000000000000         00000000000000000000000ADEGA GAROTA DA TIROL LTDA - E                                        000031
10205539814000112041300648601        CLEAN AMBIENTAL          00006328            109000063288             I04011117000000632800006328            06111700000000232113412897715000000000000000000000000000000000000000000000000000000000000000000000000000000000000000000000000000000000000000000000         00000000000000000000000BAR E BOTEQUIM 78 LTDA - ME                                           000032
10205539814000112041300648601        CLEAN AMBIENTAL          00006353            109000063536             I02011117000000635300006353            10111700000001385273412897715000000000000000000000000000000000000000000000000000000000000000000000000000000000000000000000000000004570000000000000         00000000000000000000000CONDOMINIO GUADALUPE SHOPPING                                         000033
10205539814000112041300648601        CLEAN AMBIENTAL          00006354            109000063544             I02011117000000635400006354            04111700000000484423412897715000000000000000000000000000000000000000000000000000000000000000000000000000000000000000000000000000001600000000000000         00000000000000000000000CONFEITARIA BELA CAKE LTDA                                            000034
10205539814000112041300648601        CLEAN AMBIENTAL          00006356            109000063569             I02011117000000635600006356            29101700000001080323412897715000000000000000000000000000000000000000000000000000000000000000000000000000000000000000000000000000003570000000000000         00000000000000000000000DONA MOCA CONFEITARIA EIRILI -                                        000035
10205539814000112041300648601        CLEAN AMBIENTAL          00006358            109000063585             I02011117000000635800006358            04111700000000218473412897715000000000000000000000000000000000000000000000000000000000000000000000000000000000000000000000000000000720000000000000         00000000000000000000000PASTELARIA NIE CERTISSIMO LTDA                                        000036
10205539814000112041300648601        CLEAN AMBIENTAL          00006361            109000063619             I02011117000000636100006361            29101700000001039623412897715000000000000000000000000000000000000000000000000000000000000000000000000000000000000000000000000000003430000000000000         00000000000000000000000PADARIA CONDE DE IRAJA LTDA                                           000037
10205539814000112041300648601        CLEAN AMBIENTAL          00006362            109000063627             I02011117000000636200006362            10111700000000293433412897715000000000000000000000000000000000000000000000000000000000000000000000000000000000000000000000000000000970000000000000         00000000000000000000000NOVA GERACAO COMESTIVEIS LTDA                                         000038
10205539814000112041300648601        CLEAN AMBIENTAL          00006365            109000063650             I02011117000000636500006365            29101700000001000423412897715000000000000000000000000000000000000000000000000000000000000000000000000000000000000000000000000000003300000000000000         00000000000000000000000KIEL VEICULOS LTDA                                                    000039
10205539814000112041300648601        CLEAN AMBIENTAL          00006370            109000063700             I02011117000000637000006370            29101700000000315793412897715000000000000000000000000000000000000000000000000000000000000000000000000000000000000000000000000000001040000000000000         00000000000000000000000CASA DO RAFAEL RESTAURANTE LTD                                        000040
10205539814000112041300648601        CLEAN AMBIENTAL          00006372            109000063726             I02011117000000637200006372            29101700000000290803412897715000000000000000000000000000000000000000000000000000000000000000000000000000000000000000000000000000000960000000000000         00000000000000000000000FONTE E FORCA PRODUTOS ALIMENT                                        000041
10205539814000112041300648601        CLEAN AMBIENTAL          00006374            109000063742             I02011117000000637400006374            29101700000001065173412897715000000000000000000000000000000000000000000000000000000000000000000000000000000000000000000000000000003520000000000000         00000000000000000000000OS LOCA RESTAURANTE E BAR LTDA                                        000042
10205539814000112041300648601        CLEAN AMBIENTAL          00006375            109000063759             I02011117000000637500006375            29101700000000302253412897715000000000000000000000000000000000000000000000000000000000000000000000000000000000000000000000000000001000000000000000         00000000000000000000000R S COMERCIO DE PRODUTOS ALIME                                        000043
10205539814000112041300648601        CLEAN AMBIENTAL          00006377            109000063775             I02011117000000637700006377            29101700000000194473412897715000000000000000000000000000000000000000000000000000000000000000000000000000000000000000000000000000000640000000000000         00000000000000000000000DROGARIA ARQUIPELAGO                                                  000044
10205539814000112041300648601        CLEAN AMBIENTAL          00006378            109000063783             I02011117000000637800006378            29101700000001260003412897715000000000000000000000000000000000000000000000000000000000000000000000000000000000000000000000000000004160000000000000         00000000000000000000000GORILA DA BARRA BAR E RESTAURA                                        000045
10205539814000112041300648601        CLEAN AMBIENTAL          00006382            109000063825             I02011117000000638200006382            29101700000000794693412897715000000000000000000000000000000000000000000000000000000000000000000000000000000000000000000000000000002620000000000000         00000000000000000000000PALMS RECREIO (OBRA JOAO FORTE                                        000046
10205539814000112041300648601        CLEAN AMBIENTAL          00006386            109000063866             I02011117000000638600006386            29101700000000259743412897715000000000000000000000000000000000000000000000000000000000000000000000000000000000000000000000000000000850000000000000         00000000000000000000000BISTRO COMERCIO DE LANCHES E S                                        000047
10205539814000112041300648601        CLEAN AMBIENTAL          00006387            109000063874             I02011117000000638700006387            29101700000000581003412897715000000000000000000000000000000000000000000000000000000000000000000000000000000000000000000000000000001920000000000000         00000000000000000000000J.T.G.M. QUITUTES DO NORDESTE                                         000048
10205539814000112041300648601        CLEAN AMBIENTAL          00006390            109000063908             I02011117000000639000006390            09111700000000437633412897715000000000000000000000000000000000000000000000000000000000000000000000000000000000000000000000000000001440000000000000         00000000000000000000000CONDOMINIO DO EDIFICIO BROADWA                                        000049
10205539814000112041300648601        CLEAN AMBIENTAL          00006392            109000063924             I02011117000000639200006392            04111700000000170793412897715000000000000000000000000000000000000000000000000000000000000000000000000000000000000000000000000000000560000000000000         00000000000000000000000BAR E RESTAURANTE CORACAO DE M                                        000050
10205539814000112041300648601        CLEAN AMBIENTAL          00006394            109000063940             I02011117000000639400006394            29101700000000289633412897715000000000000000000000000000000000000000000000000000000000000000000000000000000000000000000000000000000950000000000000         00000000000000000000000PASTELARIA CENTRAL DO ACRE LTD                                        000051
10205539814000112041300648601        CLEAN AMBIENTAL          00006395            109000063957             I02011117000000639500006395            29101700000000295113412897715000000000000000000000000000000000000000000000000000000000000000000000000000000000000000000000000000000970000000000000         00000000000000000000000SINFONIA LANCHES E SUMOS LTDA                                         000052
10205539814000112041300648601        CLEAN AMBIENTAL          00006396            109000063965             I02011117000000639600006396            29101700000000259743412897715000000000000000000000000000000000000000000000000000000000000000000000000000000000000000000000000000000850000000000000         00000000000000000000000A VIDRACARIA POPULAR LTDA - EP                                        000053
10205539814000112041300648601        CLEAN AMBIENTAL          00006397            109000063973             I02011117000000639700006397            29101700000000531243412897715000000000000000000000000000000000000000000000000000000000000000000000000000000000000000000000000000001750000000000000         00000000000000000000000JPR 47 HORTIFRUTI LTDA - EPP                                          000054
10205539814000112041300648601        CLEAN AMBIENTAL          00006399            109000063999             I02011117000000639900006399            05111700000000364753412897715000000000000000000000000000000000000000000000000000000000000000000000000000000000000000000000000000001200000000000000         00000000000000000000000REPUBLICA DA CANCELA RESTAURAN                                        000055
10205539814000112041300648601        CLEAN AMBIENTAL          00006400            109000064005             I02011117000000640000006400            29101700000000131323412897715000000000000000000000000000000000000000000000000000000000000000000000000000000000000000000000000000000430000000000000         00000000000000000000000PARANAPUA 304 COMERCIO DE FERR                                        000056
10205539814000112041300648601        CLEAN AMBIENTAL          00006402            109000064021             I02011117000000640200006402            29101700000000152363412897715000000000000000000000000000000000000000000000000000000000000000000000000000000000000000000000000000000500000000000000         00000000000000000000000SUSHIMIX JG COMERCIO DE ALIMEN                                        000057
10205539814000112041300648601        CLEAN AMBIENTAL          00006405            109000064054             I02011117000000640500006405            29101700000000726053412897715000000000000000000000000000000000000000000000000000000000000000000000000000000000000000000000000000002400000000000000         00000000000000000000000A3D COMUNICACAO VISUAL EIRELI                                         000058
10205539814000112041300648601        CLEAN AMBIENTAL          00006411            109000064112             I02011117000000641100006411            29101700000000312893412897715000000000000000000000000000000000000000000000000000000000000000000000000000000000000000000000000000001030000000000000         00000000000000000000000FAMILIA REAL RESTAURANTE EIREL                                        000059
10205539814000112041300648601        CLEAN AMBIENTAL          00006412            109000064120             I02011117000000641200006412            04111700000000387113412897715000000000000000000000000000000000000000000000000000000000000000000000000000000000000000000000000000001280000000000000         00000000000000000000000ADEGA ROMANA DE SAO CRISTOVAO                                         000060
10205539814000112041300648601        CLEAN AMBIENTAL          00006415            109000064153             I02011117000000641500006415            29101700000000110263412897715000000000000000000000000000000000000000000000000000000000000000000000000000000000000000000000000000000360000000000000         00000000000000000000000VANUSA DE OLIVEIRA PORTELA RES                                        000061
10205539814000112041300648601        CLEAN AMBIENTAL          00006418            109000064187             I02011117000000641800006418            29101700000000315793412897715000000000000000000000000000000000000000000000000000000000000000000000000000000000000000000000000000001040000000000000         00000000000000000000000HOTEL INGLES LTDA                                                     000062
10205539814000112041300648601        CLEAN AMBIENTAL          00006421            109000064211             I02011117000000642100006421            29101700000000303423412897715000000000000000000000000000000000000000000000000000000000000000000000000000000000000000000000000000001000000000000000         00000000000000000000000BRASPHILL IMPORTACAO EXPORTACA                                        000063
10205539814000112041300648601        CLEAN AMBIENTAL          00006422            109000064229             I02011117000000642200006422            29101700000000228163412897715000000000000000000000000000000000000000000000000000000000000000000000000000000000000000000000000000000750000000000000         00000000000000000000000A VIEGAS DOS SANTOS MERCEARIA                                         000064
10205539814000112041300648601        CLEAN AMBIENTAL          00006423            109000064237             I02011117000000642300006423            29101700000001237953414562515000000000000000000000000000000000000000000000000000000000000000000000000000000000000000000000000000004090000000000000         00000000000000000000000MERIDIAN LOGISTICA INTEGRADA L                                        000065
10205539814000112041300648601        CLEAN AMBIENTAL          00006424            109000064245             I02011117000000642400006424            29101700000001154473412897715000000000000000000000000000000000000000000000000000000000000000000000000000000000000000000000000000003810000000000000         00000000000000000000000CONDOMINIO DO EDIFICIO ANGLIA                                         000066
10205539814000112041300648601        CLEAN AMBIENTAL          00006425            109000064252             I02011117000000642500006425            29101700000000373953412897715000000000000000000000000000000000000000000000000000000000000000000000000000000000000000000000000000001230000000000000         00000000000000000000000V. H. K. RESTAURANTE LTDA - ME                                        000067
10205539814000112041300648601        CLEAN AMBIENTAL          00006426            109000064260             I02011117000000642600006426            29101700000000238163412897715000000000000000000000000000000000000000000000000000000000000000000000000000000000000000000000000000000790000000000000         00000000000000000000000ALESSANDRA PEREIRA DA CUNHA GU                                        000068
10205539814000112041300648601        CLEAN AMBIENTAL          00006427            109000064278             I02011117000000642700006427            29101700000000126583412897715000000000000000000000000000000000000000000000000000000000000000000000000000000000000000000000000000000420000000000000         00000000000000000000000BORGES MATOS LANCHONETE LTDA -                                        000069
10205539814000112041300648601        CLEAN AMBIENTAL          00006431            109000064310             I02011117000000643100006431            29101700000000236583412897715000000000000000000000000000000000000000000000000000000000000000000000000000000000000000000000000000000780000000000000         00000000000000000000000TEMPLO COWORKING E EDUCACAO LT                                        000070
10205539814000112041300648601        CLEAN AMBIENTAL          00006435            109000064351             I02011117000000643500006435            06111700000000120793412897715000000000000000000000000000000000000000000000000000000000000000000000000000000000000000000000000000000400000000000000         00000000000000000000000CARLOS AUGUSTO CABO PEREIRA                                           000071
10205539814000112041300648601        CLEAN AMBIENTAL          00006503            109000065036             I04011117000000650300006503            08111700000000315793412897715000000000000000000000000000000000000000000000000000000000000000000000000000000000000000000000000000000000000000000000         00000000000000000000000GULAS DE BANGU RESTAURANTE LTD                                        000072
10205539814000112041300648601        CLEAN AMBIENTAL          00006525            109000065259             I04011117000000652500006525            05111700000000268423412897715000000000000000000000000000000000000000000000000000000000000005000000000000000000000000000000000000000000000000000000         00000000000000000000000CAFE E BAR BOTAFOGO LTDA - ME                                         000073
10205539814000112041300648601        CLEAN AMBIENTAL          00007617            109000076173             I04011117000000761700007617            01111700000000157893412897715000000000000000000000000000000000000000000000000000000000000005000000000000000000000000000000000000000000000000000000         00000000000000000000000THE SCOLE ENSINO DE IDIOMAS EI                                        000074
10205539814000112041300648601        CLEAN AMBIENTAL          00007633            109000076330             I04011117000000763300007633            01111700000000176843412897715000000000000000000000000000000000000000000000000000000000000005000000000000000000000000000000000000000000000000000000         00000000000000000000000BANCO BRADESCO                                                        000075
10205539814000112041300648601        CLEAN AMBIENTAL          00007721            109000077213             I04011117000000772100007721            02111700000000168423412897715000000000000000000000000000000000000000000000000000000000000005000000000000000000000000000000000000000000000000000000         00000000000000000000000PASTELARIA HAO MEI DAO LTDA -                                         000076
10205539814000112041300648601        CLEAN AMBIENTAL          00008185            109000081850             I02011117000000818500008185            08111700000000363953412897715000000000000000000000000000000000000000000000000000000000000000000000000000000000000000000000000000001200000000000000         00000000000000000000000ROCHA E ANDRADE COMERCIO E IND                                        000077
10205539814000112041300648601        CLEAN AMBIENTAL          00008186            109000081868             I02011117000000818600008186            08111700000000848263412897715000000000000000000000000000000000000000000000000000000000000000000000000000000000000000000000000000002800000000000000         00000000000000000000000CASA DO SARDO RESTAURANTE E CA                                        000078
10205539814000112041300648601        CLEAN AMBIENTAL          00008187            109000081876             I02011117000000818700008187            08111700000000707373412897715000000000000000000000000000000000000000000000000000000000000000000000000000000000000000000000000000002330000000000000         00000000000000000000000RESTAURANTE BELA GRILL LTDA EP                                        000079
10205539814000112041300648601        CLEAN AMBIENTAL          00008188            109000081884             I02011117000000818800008188            13111700000000675613412897715000000000000000000000000000000000000000000000000000000000000000000000000000000000000000000000000000002230000000000000         00000000000000000000000CAFE MERCADORES LTDA EPP                                              000080
10205539814000112041300648601        CLEAN AMBIENTAL          00008189            109000081892             I02011117000000818900008189            17111700000001075793412897715000000000000000000000000000000000000000000000000000000000000000000000000000000000000000000000000000003550000000000000         00000000000000000000000CAMPANHA NACIONAL DE ESCOLA DA                                        000081
10205539814000112041300648601        CLEAN AMBIENTAL          00008190            109000081900             I02011117000000819000008190            25111700000000312633412897715000000000000000000000000000000000000000000000000000000000000000000000000000000000000000000000000000001030000000000000         00000000000000000000000NOVA GERACAO COMESTIVEIS LTDA                                         000082
10205539814000112041300648601        CLEAN AMBIENTAL          00008191            109000081918             I02011117000000819100008191            08111700000000369743412897715000000000000000000000000000000000000000000000000000000000000000000000000000000000000000000000000000001220000000000000         00000000000000000000000GULA GRILL RESTAURANTE LTDA                                           000083
10205539814000112041300648601        CLEAN AMBIENTAL          00008192            109000081926             I02011117000000819200008192            08111700000000447113412897715000000000000000000000000000000000000000000000000000000000000000000000000000000000000000000000000000001480000000000000         00000000000000000000000JAPITA STORE RESTAURANTE LTDA                                         000084
10205539814000112041300648601        CLEAN AMBIENTAL          00008193            109000081934             I02011117000000819300008193            08111700000000983163412897715000000000000000000000000000000000000000000000000000000000000000000000000000000000000000000000000000003240000000000000         00000000000000000000000HOTEL DEBRET LTDA - EPP                                               000085
10205539814000112041300648601        CLEAN AMBIENTAL          00008194            109000081942             I02011117000000819400008194            08111700000001071633412897715000000000000000000000000000000000000000000000000000000000000000000000000000000000000000000000000000003540000000000000         00000000000000000000000SOLAR DE SANTA TURISMO LTDA                                           000086
10205539814000112041300648601        CLEAN AMBIENTAL          00008195            109000081959             I02011117000000819500008195            08111700000001297843412897715000000000000000000000000000000000000000000000000000000000000000000000000000000000000000000000000000004280000000000000         00000000000000000000000KOBE ELIJA VEICULOS LTDA                                              000087
10205539814000112041300648601        CLEAN AMBIENTAL          00008196            109000081967             I02011117000000819600008196            08111700000001372793412897715000000000000000000000000000000000000000000000000000000000000000000000000000000000000000000000000000004530000000000000         00000000000000000000000VILLA DUARTE RESIDENCIAL PARA                                         000088
10205539814000112041300648601        CLEAN AMBIENTAL          00008197            109000081975             I02011117000000819700008197            08111700000000562463412897715000000000000000000000000000000000000000000000000000000000000000000000000000000000000000000000000000001850000000000000         00000000000000000000000HB 82 COMERCIO DE ALIMENTOS LT                                        000089
10205539814000112041300648601        CLEAN AMBIENTAL          00008198            109000081983             I02011117000000819800008198            08111700000002743843412897715000000000000000000000000000000000000000000000000000000000000000000000000000000000000000000000000000000010000000000000         00000000000000000000000LNY 2005 INDUSTRIA DE ROUPAS L                                        000090
10205539814000112041300648601        CLEAN AMBIENTAL          00008199            109000081991             I02011117000000819900008199            08111700000000378953412897715000000000000000000000000000000000000000000000000000000000000000000000000000000000000000000000000000001250000000000000         00000000000000000000000HB FRANQUIA 1 DE ALIMENTOS LTD                                        000091
10205539814000112041300648601        CLEAN AMBIENTAL          00008200            109000082007             I02011117000000820000008200            08111700000000563523412897715000000000000000000000000000000000000000000000000000000000000000000000000000000000000000000000000000001860000000000000         00000000000000000000000AUTO POSTO MIKONOS LTDA                                               000092
10205539814000112041300648601        CLEAN AMBIENTAL          00008201            109000082015             I02011117000000820100008201            08111700000000549313412897715000000000000000000000000000000000000000000000000000000000000000000000000000000000000000000000000000001810000000000000         00000000000000000000000ASSOCIACAO ISRAELITA TEMPLO SI                                        000093
10205539814000112041300648601        CLEAN AMBIENTAL          00008202            109000082023             I02011117000000820200008202            08111700000000979893412897715000000000000000000000000000000000000000000000000000000000000000000000000000000000000000000000000000003230000000000000         00000000000000000000000ALVAROS BAR LTDA                                                      000094
10205539814000112041300648601        CLEAN AMBIENTAL          00008203            109000082031             I02011117000000820300008203            20111700000000609373412897715000000000000000000000000000000000000000000000000000000000000000000000000000000000000000000000000000002010000000000000         00000000000000000000000R R FOODS LANCHONETE LTDA                                             000095
10205539814000112041300648601        CLEAN AMBIENTAL          00008204            109000082049             I02011117000000820400008204            08111700000001260003412897715000000000000000000000000000000000000000000000000000000000000000000000000000000000000000000000000000004160000000000000         00000000000000000000000F4 FAZDOLAR ALIMENTOS LTDA                                            000096
10205539814000112041300648601        CLEAN AMBIENTAL          00008205            109000082056             I02011117000000820500008205            08111700000001260003412897715000000000000000000000000000000000000000000000000000000000000000000000000000000000000000000000000000004160000000000000         00000000000000000000000GORILA DE IPANEMA BAR E RESTAU                                        000097
10205539814000112041300648601        CLEAN AMBIENTAL          00008206            109000082064             I02011117000000820600008206            08111700000000402893412897715000000000000000000000000000000000000000000000000000000000000000000000000000000000000000000000000000001330000000000000         00000000000000000000000BAR E RESTAURANTE BAIXO GAGO L                                        000098
10205539814000112041300648601        CLEAN AMBIENTAL          00008207            109000082072             I02011117000000820700008207            08111700000000709463412897715000000000000000000000000000000000000000000000000000000000000000000000000000000000000000000000000000002340000000000000         00000000000000000000000PET CHEF INDUSTRIA E COMERCIO                                         000099
10205539814000112041300648601        CLEAN AMBIENTAL          00008208            109000082080             I02011117000000820800008208            08111700000000293953412897715000000000000000000000000000000000000000000000000000000000000000000000000000000000000000000000000000000970000000000000         00000000000000000000000TIMONE BAR LTDA                                                       000100
10205539814000112041300648601        CLEAN AMBIENTAL          00008209            109000082098             I02011117000000820900008209            08111700000000512983412897715000000000000000000000000000000000000000000000000000000000000000000000000000000000000000000000000000001690000000000000         00000000000000000000000LA SAGRADA FAMILIA COMERCIO DE                                        000101
10205539814000112041300648601        CLEAN AMBIENTAL          00008210            109000082106             I02011117000000821000008210            08111700000000464223412897715000000000000000000000000000000000000000000000000000000000000000000000000000000000000000000000000000001530000000000000         00000000000000000000000HOSPEDAGEM LAGARTO'S LTDA                                             000102
10205539814000112041300648601        CLEAN AMBIENTAL          00008211            109000082114             I02011117000000821100008211            08111700000000241843412897715000000000000000000000000000000000000000000000000000000000000000000000000000000000000000000000000000000800000000000000         00000000000000000000000HORTIFRUTAS CORACAO DE BONSUCE                                        000103
10205539814000112041300648601        CLEAN AMBIENTAL          00008212            109000082122             I02011117000000821200008212            08111700000002498953412897715000000000000000000000000000000000000000000000000000000000000000000000000000000000000000000000000000000010000000000000         00000000000000000000000SUPERPRIX LOJAS DE ALIMENTOS L                                        000104
10205539814000112041300648601        CLEAN AMBIENTAL          00008213            109000082130             I02011117000000821300008213            08111700000000773433412897715000000000000000000000000000000000000000000000000000000000000000000000000000000000000000000000000000002550000000000000         00000000000000000000000AUTO POSTO CHACALTAYA LTDA                                            000105
10205539814000112041300648601        CLEAN AMBIENTAL          00008214            109000082148             I02011117000000821400008214            08111700000000552373412897715000000000000000000000000000000000000000000000000000000000000000000000000000000000000000000000000000001820000000000000         00000000000000000000000KILO EXPRESS COMERCIO DE ALIME                                        000106
10205539814000112041300648601        CLEAN AMBIENTAL          00008215            109000082155             I02011117000000821500008215            08111700000000320793412897715000000000000000000000000000000000000000000000000000000000000000000000000000000000000000000000000000001060000000000000         00000000000000000000000CUNHA & TRAVASSOS CAFETERIA E                                         000107
10205539814000112041300648601        CLEAN AMBIENTAL          00008216            109000082163             I02011117000000821600008216            08111700000000490313412897715000000000000000000000000000000000000000000000000000000000000000000000000000000000000000000000000000001620000000000000         00000000000000000000000RESTAURANTE NAGARA LTDA - ME                                          000108
10205539814000112041300648601        CLEAN AMBIENTAL          00008217            109000082171             I02011117000000821700008217            08111700000000531323412897715000000000000000000000000000000000000000000000000000000000000000000000000000000000000000000000000000001750000000000000         00000000000000000000000LNY 2005 INDUSTRIA DE ROUPAS L                                        000109
10205539814000112041300648601        CLEAN AMBIENTAL          00008218            109000082189             I02011117000000821800008218            08111700000000517133412897715000000000000000000000000000000000000000000000000000000000000000000000000000000000000000000000000000001710000000000000         00000000000000000000000POSTO JARDIM OCEANICO LTDA                                            000110
10205539814000112041300648601        CLEAN AMBIENTAL          00008219            109000082197             I02011117000000821900008219            08111700000000315793412897715000000000000000000000000000000000000000000000000000000000000000000000000000000000000000000000000000001040000000000000         00000000000000000000000NOVOVIDRO AUTO PECAS LTDA - ME                                        000111
10205539814000112041300648601        CLEAN AMBIENTAL          00008220            109000082205             I02011117000000822000008220            15111700000000235003412897715000000000000000000000000000000000000000000000000000000000000000000000000000000000000000000000000000000780000000000000         00000000000000000000000COPA CAKE BOLOS CASEIROS LTDA                                         000112
10205539814000112041300648601        CLEAN AMBIENTAL          00008221            109000082213             I02011117000000822100008221            08111700000000306323412897715000000000000000000000000000000000000000000000000000000000000000000000000000000000000000000000000000001010000000000000         00000000000000000000000FOLHA NOVA COMERCIO DE ALIMENT                                        000113
10205539814000112041300648601        CLEAN AMBIENTAL          00008222            109000082221             I02011117000000822200008222            18111700000000267743412897715000000000000000000000000000000000000000000000000000000000000000000000000000000000000000000000000000000880000000000000         00000000000000000000000LE CAFE D ICI CAFETERIA GOURME                                        000114
10205539814000112041300648601        CLEAN AMBIENTAL          00008223            109000082239             I02011117000000822300008223            08111700000001406743412897715000000000000000000000000000000000000000000000000000000000000000000000000000000000000000000000000000004640000000000000         00000000000000000000000PRIMO PANE INDUSTRIA E COMERCI                                        000115
10205539814000112041300648601        CLEAN AMBIENTAL          00008224            109000082247             I02011117000000822400008224            08111700000000516583412897715000000000000000000000000000000000000000000000000000000000000000000000000000000000000000000000000000001700000000000000         00000000000000000000000OS FILHOS DA MAE BURGERS EIREL                                        000116
10205539814000112041300648601        CLEAN AMBIENTAL          00008225            109000082254             I02011117000000822500008225            08111700000000293003412897715000000000000000000000000000000000000000000000000000000000000000000000000000000000000000000000000000000970000000000000         00000000000000000000000PRAIA DA BARRA COMERCIO DE ALI                                        000117
10205539814000112041300648601        CLEAN AMBIENTAL          00008226            109000082262             I02011117000000822600008226            08111700000002899743412897715000000000000000000000000000000000000000000000000000000000000000000000000000000000000000000000000000000010000000000000         00000000000000000000000PARADA 021 RESTAURANTE LTDA EP                                        000118
10205539814000112041300648601        CLEAN AMBIENTAL          00008227            109000082270             I02011117000000822700008227            08111700000000836583411282315000000000000000000000000000000000000000000000000000000000000000000000000000000000000000000000000000002760000000000000         00000000000000000000000CONDOMINIO BEST WESTERN MULTI                                         000119
10205539814000112041300648601        CLEAN AMBIENTAL          00008228            109000082288             I02011117000000822800008228            08111700000000674473412897715000000000000000000000000000000000000000000000000000000000000000000000000000000000000000000000000000002220000000000000         00000000000000000000000ASSOCIACAO EDUCACIONAL MACHADO                                        000120
10205539814000112041300648601        CLEAN AMBIENTAL          00008229            109000082296             I02011117000000822900008229            08111700000000104993412897715000000000000000000000000000000000000000000000000000000000000000000000000000000000000000000000000000000340000000000000         00000000000000000000000CENTRO EDUCACIONAL FELIPPO DE                                         000121
10205539814000112041300648601        CLEAN AMBIENTAL          00008230            109000082304             I02011117000000823000008230            08111700000000518163412897715000000000000000000000000000000000000000000000000000000000000000000000000000000000000000000000000000001710000000000000         00000000000000000000000KATMANDU RESTAURANTE & LOUNGE                                         000122
10205539814000112041300648601        CLEAN AMBIENTAL          00008231            109000082312             I02011117000000823100008231            08111700000000168163412897715000000000000000000000000000000000000000000000000000000000000000000000000000000000000000000000000000000550000000000000         00000000000000000000000TABERNA SEVILHANA LTDA - ME                                           000123
10205539814000112041300648601        CLEAN AMBIENTAL          00008232            109000082320             I02011117000000823200008232            08111700000000125423412897715000000000000000000000000000000000000000000000000000000000000000000000000000000000000000000000000000000410000000000000         00000000000000000000000SHOW ME YOUR TEETH MADUREIRA C                                        000124
10205539814000112041300648601        CLEAN AMBIENTAL          00008233            109000082338             I02011117000000823300008233            08111700000000320793412897715000000000000000000000000000000000000000000000000000000000000000000000000000000000000000000000000000001060000000000000         00000000000000000000000HOTIFRUTI E MERCEARIA SANTA CR                                        000125
10205539814000112041300648601        CLEAN AMBIENTAL          00008235            109000082353             I02011117000000823500008235            08111700000000462893412897715000000000000000000000000000000000000000000000000000000000000000000000000000000000000000000000000000001520000000000000         00000000000000000000000COSTELARIA RIO BRASIL RESTAURA                                        000126
10205539814000112041300648601        CLEAN AMBIENTAL          00008236            109000082361             I02011117000000823600008236            13111700000000164163412897715000000000000000000000000000000000000000000000000000000000000000000000000000000000000000000000000000000540000000000000         00000000000000000000000PASTELARIA HONG DE BANGU 2009                                         000127
10205539814000112041300648601        CLEAN AMBIENTAL          00008237            109000082379             I02011117000000823700008237            08111700000000271113412897715000000000000000000000000000000000000000000000000000000000000000000000000000000000000000000000000000000890000000000000         00000000000000000000000PADARIA NACIONAL DE SAO CRISTO                                        000128
10205539814000112041300648601        CLEAN AMBIENTAL          00008238            109000082387             I02011117000000823800008238            13111700000000264343412897715000000000000000000000000000000000000000000000000000000000000000000000000000000000000000000000000000000870000000000000         00000000000000000000000BAR E LANCHONETE 2005 R.J.S. L                                        000129
10205539814000112041300648601        CLEAN AMBIENTAL          00008239            109000082395             I02011117000000823900008239            13111700000000333423412897715000000000000000000000000000000000000000000000000000000000000000000000000000000000000000000000000000001100000000000000         00000000000000000000000FONSECA MIX PADARIA E CONFEITA                                        000130
10205539814000112041300648601        CLEAN AMBIENTAL          00008240            109000082403             I02011117000000824000008240            08111700000000289083412897715000000000000000000000000000000000000000000000000000000000000000000000000000000000000000000000000000000950000000000000         00000000000000000000000AKIFRUTAS & LEGUMES FOLHAS VER                                        000131
10205539814000112041300648601        CLEAN AMBIENTAL          00008241            109000082411             I02011117000000824100008241            08111700000000405733412897715000000000000000000000000000000000000000000000000000000000000000000000000000000000000000000000000000001340000000000000         00000000000000000000000BANCO BRADESCO S.A.                                                   000132
10205539814000112041300648601        CLEAN AMBIENTAL          00008242            109000082429             I02011117000000824200008242            08111700000000352373412897715000000000000000000000000000000000000000000000000000000000000000000000000000000000000000000000000000001160000000000000         00000000000000000000000BANCO BRADESCO S.A.                                                   000133
10205539814000112041300648601        CLEAN AMBIENTAL          00008243            109000082437             I02011117000000824300008243            08111700000000383953412897715000000000000000000000000000000000000000000000000000000000000000000000000000000000000000000000000000001260000000000000         00000000000000000000000FLAMENGO BOLO LANCHONETE LTDA                                         000134
10205539814000112041300648601        CLEAN AMBIENTAL          00008244            109000082445             I02011117000000824400008244            08111700000000954893412897715000000000000000000000000000000000000000000000000000000000000000000000000000000000000000000000000000003150000000000000         00000000000000000000000VILLA BUDGET HOSTEL SERVICOS D                                        000135
10205539814000112041300648601        CLEAN AMBIENTAL          00008245            109000082452             I02011117000000824500008245            08111700000000728163412897715000000000000000000000000000000000000000000000000000000000000000000000000000000000000000000000000000002400000000000000         00000000000000000000000COLEGIO GALORY BENTOSO LTDA                                           000136
10205539814000112041300648601        CLEAN AMBIENTAL          00008246            109000082460             I02011117000000824600008246            08111700000000415533412897715000000000000000000000000000000000000000000000000000000000000000000000000000000000000000000000000000001370000000000000         00000000000000000000000CENTRO DE ENSINO KELSEN LTDA                                          000137
10205539814000112041300648601        CLEAN AMBIENTAL          00008247            109000082478             I02011117000000824700008247            18111700000000267393410059615000000000000000000000000000000000000000000000000000000000000000000000000000000000000000000000000000000880000000000000         00000000000000000000000SISTEMA P H DE ENSINO LTDA                                            000138
10205539814000112041300648601        CLEAN AMBIENTAL          00008248            109000082486             I02011117000000824800008248            18111700000001203253412897715000000000000000000000000000000000000000000000000000000000000000000000000000000000000000000000000000003970000000000000         00000000000000000000000SISTEMA P H DE ENSINO LTDA                                            000139
10205539814000112041300648601        CLEAN AMBIENTAL          00008250            109000082502             I02011117000000825000008250            13111700000000085003412897715000000000000000000000000000000000000000000000000000000000000000000000000000000000000000000000000000000280000000000000         00000000000000000000000KINOS RECREIO LANCHONETE E BAR                                        000140
10205539814000112041300648601        CLEAN AMBIENTAL          00008252            109000082528             I02011117000000825200008252            08111700000000341843412897715000000000000000000000000000000000000000000000000000000000000000000000000000000000000000000000000000001130000000000000         00000000000000000000000LANCHONETE LUIZ DE CAMOES LTDA                                        000141
10205539814000112041300648601        CLEAN AMBIENTAL          00008253            109000082536             I02011117000000825300008253            08111700000000245003412897715000000000000000000000000000000000000000000000000000000000000000000000000000000000000000000000000000000810000000000000         00000000000000000000000THIAGO RICARDO DA SILVA                                               000142
10205539814000112041300648601        CLEAN AMBIENTAL          00008254            109000082544             I02011117000000825400008254            08111700000000222373412897715000000000000000000000000000000000000000000000000000000000000000000000000000000000000000000000000000000730000000000000         00000000000000000000000CONDOMINIO DO EDIFICIO EMPRESA                                        000143
10205539814000112041300648601        CLEAN AMBIENTAL          00008255            109000082551             I02011117000000825500008255            08111700000000285003412897715000000000000000000000000000000000000000000000000000000000000000000000000000000000000000000000000000000940000000000000         00000000000000000000000PESSOA AGUIAR SORVETES E ALIME                                        000144
10205539814000112041300648601        CLEAN AMBIENTAL          00008256            109000082569             I02011117000000825600008256            08111700000000110263412897715000000000000000000000000000000000000000000000000000000000000000000000000000000000000000000000000000000360000000000000         00000000000000000000000UTILICASA DO TANQUE COMERCIO D                                        000145
10205539814000112041300648601        CLEAN AMBIENTAL          00008257            109000082577             I02011117000000825700008257            08111700000000110263412897715000000000000000000000000000000000000000000000000000000000000000000000000000000000000000000000000000000360000000000000         00000000000000000000000GOSTOSURAS DO TANQUE COMERCIO                                         000146
10205539814000112041300648601        CLEAN AMBIENTAL          00008258            109000082585             I02011117000000825800008258            08111700000000340793412897715000000000000000000000000000000000000000000000000000000000000000000000000000000000000000000000000000001120000000000000         00000000000000000000000ABX COMERCIO DE ALIMENTOS LTDA                                        000147
10205539814000112041300648601        CLEAN AMBIENTAL          00008259            109000082593             I02011117000000825900008259            13111700000000282893412897715000000000000000000000000000000000000000000000000000000000000000000000000000000000000000000000000000000930000000000000         00000000000000000000000CONDOMINIO DO EDIFICIO ESPLANA                                        000148
10205539814000112041300648601        CLEAN AMBIENTAL          00008260            109000082601             I02011117000000826000008260            08111700000000526053412897715000000000000000000000000000000000000000000000000000000000000000000000000000000000000000000000000000001740000000000000         00000000000000000000000COMPRIX IMPRESSOS E ETIQUETAS                                         000149
10205539814000112041300648601        CLEAN AMBIENTAL          00008261            109000082619             I02011117000000826100008261            08111700000000407633412897715000000000000000000000000000000000000000000000000000000000000000000000000000000000000000000000000000001340000000000000         00000000000000000000000CONDOMINIO DO EDIFICIO SARANDY                                        000150
10205539814000112041300648601        CLEAN AMBIENTAL          00008262            109000082627             I02011117000000826200008262            08111700000000333423412897715000000000000000000000000000000000000000000000000000000000000000000000000000000000000000000000000000001100000000000000         00000000000000000000000CONDOMINIO DO EDIFICIO OUVIDOR                                        000151
10205539814000112041300648601        CLEAN AMBIENTAL          00008263            109000082635             I02011117000000826300008263            08111700000000228683412897715000000000000000000000000000000000000000000000000000000000000000000000000000000000000000000000000000000750000000000000         00000000000000000000000RMS - LANCHES LTDA. - ME                                              000152
10205539814000112041300648601        CLEAN AMBIENTAL          00008264            109000082643             I02011117000000826400008264            08111700000000223173412897715000000000000000000000000000000000000000000000000000000000000000000000000000000000000000000000000000000740000000000000         00000000000000000000000VALENTE PRODUCAO DE DOCES LTDA                                        000153
10205539814000112041300648601        CLEAN AMBIENTAL          00008265            109000082650             I02011117000000826500008265            08111700000000120793412897715000000000000000000000000000000000000000000000000000000000000000000000000000000000000000000000000000000400000000000000         00000000000000000000000POSTO DE GASOLINA BOA FE LTDA                                         000154
10205539814000112041300648601        CLEAN AMBIENTAL          00008267            109000082676             I02011117000000826700008267            13111700000000199743412897715000000000000000000000000000000000000000000000000000000000000000000000000000000000000000000000000000000660000000000000         00000000000000000000000LANCHONETE GAROTA DO TRAJANO L                                        000155
10205539814000112041300648601        CLEAN AMBIENTAL          00008268            109000082684             I02011117000000826800008268            08111700000000303953412897715000000000000000000000000000000000000000000000000000000000000000000000000000000000000000000000000000001000000000000000         00000000000000000000000HORTI LIFE FRUTAS E LEGUMES EI                                        000156
10205539814000112041300648601        CLEAN AMBIENTAL          00008269            109000082692             I02011117000000826900008269            08111700000000144473412897715000000000000000000000000000000000000000000000000000000000000000000000000000000000000000000000000000000480000000000000         00000000000000000000000JAURU MANIA LANCHONETE E PIZZA                                        000157
10205539814000112041300648601        CLEAN AMBIENTAL          00008270            109000082700             I02011117000000827000008270            08111700000000328163412897715000000000000000000000000000000000000000000000000000000000000000000000000000000000000000000000000000001080000000000000         00000000000000000000000ASSOCIACAO ARQUIDIOCESANA TARD                                        000158
10205539814000112041300648601        CLEAN AMBIENTAL          00008271            109000082718             I02011117000000827100008271            08111700000000118683412897715000000000000000000000000000000000000000000000000000000000000000000000000000000000000000000000000000000390000000000000         00000000000000000000000PEQUENA ITALIA BARRA LANCHONET                                        000159
10205539814000112041300648601        CLEAN AMBIENTAL          00008272            109000082726             I02011117000000827200008272            08111700000000231323412897715000000000000000000000000000000000000000000000000000000000000000000000000000000000000000000000000000000760000000000000         00000000000000000000000LOURENCO\'S CHURRASCARIA E PIZ                                        000160
10205539814000112041300648601        CLEAN AMBIENTAL          00008273            109000082734             I02011117000000827300008273            08111700000000239213412897715000000000000000000000000000000000000000000000000000000000000000000000000000000000000000000000000000000790000000000000         00000000000000000000000COLEGIO ICARO LTDA. - EPP                                             000161
10205539814000112041300648601        CLEAN AMBIENTAL          00008274            109000082742             I02011117000000827400008274            13111700000000203953412897715000000000000000000000000000000000000000000000000000000000000000000000000000000000000000000000000000000670000000000000         00000000000000000000000PADARIA FLOR DA AVENIDA LTDA                                          000162
10205539814000112041300648601        CLEAN AMBIENTAL          00008275            109000082759             I02011117000000827500008275            08111700000000143953412897715000000000000000000000000000000000000000000000000000000000000000000000000000000000000000000000000000000470000000000000         00000000000000000000000BAR E RESTAURANTE SUBSOLO 14 L                                        000163
10205539814000112041300648601        CLEAN AMBIENTAL          00008276            109000082767             I02011117000000827600008276            08111700000000162893412897715000000000000000000000000000000000000000000000000000000000000000000000000000000000000000000000000000000530000000000000         00000000000000000000000FELIPE DE OLIVEIRA NOGUEIRA 15                                        000164
10205539814000112041300648601        CLEAN AMBIENTAL          00008277            109000082775             I02011117000000827700008277            08111700000001192893412897715000000000000000000000000000000000000000000000000000000000000000000000000000000000000000000000000000003940000000000000         00000000000000000000000SUPERPRIX LOJAS DE ALIMENTOS L                                        000165
10205539814000112041300648601        CLEAN AMBIENTAL          00008278            109000082783             I02011117000000827800008278            08111700000001975003412897715000000000000000000000000000000000000000000000000000000000000000000000000000000000000000000000000000000010000000000000         00000000000000000000000SUPERPRIX LOJAS DE ALIMENTOS L                                        000166
10205539814000112041300648601        CLEAN AMBIENTAL          00008279            109000082791             I02011117000000827900008279            08111700000000210263412897715000000000000000000000000000000000000000000000000000000000000000000000000000000000000000000000000000000690000000000000         00000000000000000000000BOTAVIDROS COMERCIO E INDUSTRI                                        000167
10205539814000112041300648601        CLEAN AMBIENTAL          00008280            109000082809             I02011117000000828000008280            13111700000000194473412897715000000000000000000000000000000000000000000000000000000000000000000000000000000000000000000000000000000640000000000000         00000000000000000000000KIKO E NANDO CEREAIS LTDA - ME                                        000168
10205539814000112041300648601        CLEAN AMBIENTAL          00008281            109000082817             I02011117000000828100008281            13111700000000147373412897715000000000000000000000000000000000000000000000000000000000000000000000000000000000000000000000000000000490000000000000         00000000000000000000000MARISOL RIO LANCHES LTDA                                              000169
10205539814000112041300648601        CLEAN AMBIENTAL          00008282            109000082825             I02011117000000828200008282            08111700000000369743412897715000000000000000000000000000000000000000000000000000000000000000000000000000000000000000000000000000001220000000000000         00000000000000000000000MARVA COLLINS CENTRO EDUCACION                                        000170
10205539814000112041300648601        CLEAN AMBIENTAL          00008283            109000082833             I02011117000000828300008283            08111700000000232843412897715000000000000000000000000000000000000000000000000000000000000000000000000000000000000000000000000000000770000000000000         00000000000000000000000ZOT RESTAURANTE E GASTRONOMIA                                         000171
10205539814000112041300648601        CLEAN AMBIENTAL          00008284            109000082841             I02011117000000828400008284            13111700000000164213412897715000000000000000000000000000000000000000000000000000000000000000000000000000000000000000000000000000000540000000000000         00000000000000000000000CAFE E BAR TONDELA LTDA - ME                                          000172
10205539814000112041300648601        CLEAN AMBIENTAL          00008285            109000082858             I02011117000000828500008285            08111700000000169213412897715000000000000000000000000000000000000000000000000000000000000000000000000000000000000000000000000000000560000000000000         00000000000000000000000JOSE HIGINO LANCHES LTDA - ME                                         000173
10205539814000112041300648601        CLEAN AMBIENTAL          00008286            109000082866             I02011117000000828600008286            08111700000000181843412897715000000000000000000000000000000000000000000000000000000000000000000000000000000000000000000000000000000600000000000000         00000000000000000000000LA VILLE KIDS ESPACO INFANTIL                                         000174
10205539814000112041300648601        CLEAN AMBIENTAL          00008287            109000082874             I02011117000000828700008287            15111700000001528713412897715000000000000000000000000000000000000000000000000000000000000000000000000000000000000000000000000000000010000000000000         00000000000000000000000ASSOCIACAO ATLETICO PORTUGUESA                                        000175
10205539814000112041300648601        CLEAN AMBIENTAL          00008288            109000082882             I02011117000000828800008288            17111700000001981313412897715000000000000000000000000000000000000000000000000000000000000000000000000000000000000000000000000000000010000000000000         00000000000000000000000UNIAO BRASILEIRA DE EDUCACAO E                                        000176
10205539814000112041300648601        CLEAN AMBIENTAL          00008292            109000082924             I02011117000000829200008292            09111700000000671423412897715000000000000000000000000000000000000000000000000000000000000000000000000000000000000000000000000000002210000000000000         00000000000000000000000LA RESIDENCE CENTRO RESIDENCIA                                        000177
10205539814000112041300648601        CLEAN AMBIENTAL          00008293            109000082932             I02011117000000829300008293            09111700000000743833412897715000000000000000000000000000000000000000000000000000000000000000000000000000000000000000000000000000002450000000000000         00000000000000000000000PRINCESINHA DA ILHA PADARIA E                                         000178
10205539814000112041300648601        CLEAN AMBIENTAL          00008294            109000082940             I02011117000000829400008294            09111700000001040003412897715000000000000000000000000000000000000000000000000000000000000000000000000000000000000000000000000000003430000000000000         00000000000000000000000DC GRILL CHURRASCARIA LTDA                                            000179
10205539814000112041300648601        CLEAN AMBIENTAL          00008295            109000082957             I02011117000000829500008295            09111700000002234663410059615000000000000000000000000000000000000000000000000000000000000000000000000000000000000000000000000000000010000000000000         00000000000000000000000QUINDIN COMESTIVEIS LTDA                                              000180
10205539814000112041300648601        CLEAN AMBIENTAL          00008296            109000082965             I02011117000000829600008296            09111700000001055953412897715000000000000000000000000000000000000000000000000000000000000000000000000000000000000000000000000000003480000000000000         00000000000000000000000SABOR MALAGUETTA ESPACO GASTRO                                        000181
10205539814000112041300648601        CLEAN AMBIENTAL          00008297            109000082973             I02011117000000829700008297            09111700000000372543411282315000000000000000000000000000000000000000000000000000000000000000000000000000000000000000000000000000001230000000000000         00000000000000000000000FABRICA DE CONSERVAS ADCRIS LT                                        000182
10205539814000112041300648601        CLEAN AMBIENTAL          00008298            109000082981             I02011117000000829800008298            09111700000000375043412897715000000000000000000000000000000000000000000000000000000000000000000000000000000000000000000000000000001240000000000000         00000000000000000000000LANCHONETE DAS FRUTAS  DO NORT                                        000183
10205539814000112041300648601        CLEAN AMBIENTAL          00008299            109000082999             I02011117000000829900008299            10111700000000865523412897715000000000000000000000000000000000000000000000000000000000000000000000000000000000000000000000000000002850000000000000         00000000000000000000000TECHNOGYM EQUIPAM. DE GINAS. E                                        000184
10205539814000112041300648601        CLEAN AMBIENTAL          00008300            109000083005             I02011117000000830000008300            09111700000000221053412897715000000000000000000000000000000000000000000000000000000000000000000000000000000000000000000000000000000730000000000000         00000000000000000000000CENTRO DE MICROCIRURGIA E DIAG                                        000185
10205539814000112041300648601        CLEAN AMBIENTAL          00008301            109000083013             I02011117000000830100008301            09111700000000162393412897715000000000000000000000000000000000000000000000000000000000000000000000000000000000000000000000000000000530000000000000         00000000000000000000000CENTRO DE ESTETICA JARDIM OCEA                                        000186
10205539814000112041300648601        CLEAN AMBIENTAL          00008302            109000083021             I02011117000000830200008302            09111700000000388883412897715000000000000000000000000000000000000000000000000000000000000000000000000000000000000000000000000000001280000000000000         00000000000000000000000SOCIEDADE EDUCACIONAL GIRASSOL                                        000187
10205539814000112041300648601        CLEAN AMBIENTAL          00008303            109000083039             I02011117000000830300008303            09111700000000681983412897715000000000000000000000000000000000000000000000000000000000000000000000000000000000000000000000000000002250000000000000         00000000000000000000000ELITE DO CHURRASCO E RESTAURAN                                        000188
10205539814000112041300648601        CLEAN AMBIENTAL          00008304            109000083047             I02011117000000830400008304            09111700000000838313412897715000000000000000000000000000000000000000000000000000000000000000000000000000000000000000000000000000002770000000000000         00000000000000000000000ESPACO CAVERNA RESTAURANTE LTD                                        000189
10205539814000112041300648601        CLEAN AMBIENTAL          00008305            109000083054             I02011117000000830500008305            09111700000000769473412897715000000000000000000000000000000000000000000000000000000000000000000000000000000000000000000000000000002540000000000000         00000000000000000000000TERE HORTIFRUTI COMERCIO DE AL                                        000190
10205539814000112041300648601        CLEAN AMBIENTAL          00008306            109000083062             I02011117000000830600008306            09111700000000694683412897715000000000000000000000000000000000000000000000000000000000000000000000000000000000000000000000000000002290000000000000         00000000000000000000000ACADEMIA RIO WILLNESS LTDA                                            000191
10205539814000112041300648601        CLEAN AMBIENTAL          00008307            109000083070             I02011117000000830700008307            09111700000000401893412897715000000000000000000000000000000000000000000000000000000000000000000000000000000000000000000000000000001320000000000000         00000000000000000000000CAFE E BAR CONTABILISTA LTDA                                          000192
10205539814000112041300648601        CLEAN AMBIENTAL          00008308            109000083088             I02011117000000830800008308            09111700000000628493412897715000000000000000000000000000000000000000000000000000000000000000000000000000000000000000000000000000002070000000000000         00000000000000000000000BAR E LARANJADA ACAT LTDA                                             000193
10205539814000112041300648601        CLEAN AMBIENTAL          00008309            109000083096             I02011117000000830900008309            09111700000000685533412897715000000000000000000000000000000000000000000000000000000000000000000000000000000000000000000000000000002260000000000000         00000000000000000000000GASINDUR DO BRASIL LTDA                                               000194
10205539814000112041300648601        CLEAN AMBIENTAL          00008310            109000083104             I02011117000000831000008310            09111700000000491843412897715000000000000000000000000000000000000000000000000000000000000000000000000000000000000000000000000000001620000000000000         00000000000000000000000HOTEL VILA RICA LTDA                                                  000195
10205539814000112041300648601        CLEAN AMBIENTAL          00008311            109000083112             I02011117000000831100008311            09111700000000600563412897715000000000000000000000000000000000000000000000000000000000000000000000000000000000000000000000000000001980000000000000         00000000000000000000000MULTGAS POSTO DE GASOLINA LTDA                                        000196
10205539814000112041300648601        CLEAN AMBIENTAL          00008312            109000083120             I02011117000000831200008312            09111700000000421713412897715000000000000000000000000000000000000000000000000000000000000000000000000000000000000000000000000000001390000000000000         00000000000000000000000PADARIA E CONFEITARIA MOUZINHO                                        000197
10205539814000112041300648601        CLEAN AMBIENTAL          00008313            109000083138             I02011117000000831300008313            09111700000000346563412897715000000000000000000000000000000000000000000000000000000000000000000000000000000000000000000000000000001140000000000000         00000000000000000000000DGS COMERCIO DE ALIMENTOS LTDA                                        000198
10205539814000112041300648601        CLEAN AMBIENTAL          00008314            109000083146             I02011117000000831400008314            09111700000000270263412897715000000000000000000000000000000000000000000000000000000000000000000000000000000000000000000000000000000890000000000000         00000000000000000000000BEACH BACKPACKERS HOSTEL LTDA                                         000199
10205539814000112041300648601        CLEAN AMBIENTAL          00008315            109000083153             I02011117000000831500008315            09111700000000251323412897715000000000000000000000000000000000000000000000000000000000000000000000000000000000000000000000000000000830000000000000         00000000000000000000000RESTAURANTE EXPRESSO SELF SERV                                        000200
10205539814000112041300648601        CLEAN AMBIENTAL          00008316            109000083161             I02011117000000831600008316            09111700000001138233412897715000000000000000000000000000000000000000000000000000000000000000000000000000000000000000000000000000003760000000000000         00000000000000000000000CHURRASCARIA TRADICAO DO SUL L                                        000201
10205539814000112041300648601        CLEAN AMBIENTAL          00008317            109000083179             I02011117000000831700008317            09111700000001138233412897715000000000000000000000000000000000000000000000000000000000000000000000000000000000000000000000000000003760000000000000         00000000000000000000000ROMA GRILL EIRELI                                                     000202
10205539814000112041300648601        CLEAN AMBIENTAL          00008318            109000083187             I02011117000000831800008318            09111700000001138233412897715000000000000000000000000000000000000000000000000000000000000000000000000000000000000000000000000000003760000000000000         00000000000000000000000RESTAURANTE E PIZZARIA WEST GR                                        000203
10205539814000112041300648601        CLEAN AMBIENTAL          00008319            109000083195             I02011117000000831900008319            09111700000000130893412897715000000000000000000000000000000000000000000000000000000000000000000000000000000000000000000000000000000430000000000000         00000000000000000000000LONDRES 2008 LANCHES LTDA. - M                                        000204
10205539814000112041300648601        CLEAN AMBIENTAL          00008320            109000083203             I02011117000000832000008320            09111700000001638583412897715000000000000000000000000000000000000000000000000000000000000000000000000000000000000000000000000000000010000000000000         00000000000000000000000DUARTE MAISON RECOLHIMENTO PAR                                        000205
10205539814000112041300648601        CLEAN AMBIENTAL          00008321            109000083211             I02011117000000832100008321            09111700000000427233412897715000000000000000000000000000000000000000000000000000000000000000000000000000000000000000000000000000001410000000000000         00000000000000000000000SOL DA BARRA 880 APART HOTEL L                                        000206
10205539814000112041300648601        CLEAN AMBIENTAL          00008322            109000083229             I02011117000000832200008322            09111700000003248473414556715000000000000000000000000000000000000000000000000000000000000000000000000000000000000000000000000000000010000000000000         00000000000000000000000ASSOCIACAO DE MORADORES QUINTA                                        000207
10205539814000112041300648601        CLEAN AMBIENTAL          00008323            109000083237             I02011117000000832300008323            09111700000000407783412897715000000000000000000000000000000000000000000000000000000000000000000000000000000000000000000000000000001340000000000000         00000000000000000000000LARALEGO COMERCIO DE PRODUTOS                                         000208
10205539814000112041300648601        CLEAN AMBIENTAL          00008324            109000083245             I02011117000000832400008324            09111700000000476573412897715000000000000000000000000000000000000000000000000000000000000000000000000000000000000000000000000000001570000000000000         00000000000000000000000ZIZA BAR LTDA - ME                                                    000209
10205539814000112041300648601        CLEAN AMBIENTAL          00008325            109000083252             I02011117000000832500008325            09111700000000331323412897715000000000000000000000000000000000000000000000000000000000000000000000000000000000000000000000000000001090000000000000         00000000000000000000000POUSADA SHENKIN LTDA - ME                                             000210
10205539814000112041300648601        CLEAN AMBIENTAL          00008326            109000083260             I02011117000000832600008326            09111700000000869933412897715000000000000000000000000000000000000000000000000000000000000000000000000000000000000000000000000000002870000000000000         00000000000000000000000BAR E RESTAURANTE VOLGA LTDA -                                        000211
10205539814000112041300648601        CLEAN AMBIENTAL          00008327            109000083278             I02011117000000832700008327            09111700000000437463412897715000000000000000000000000000000000000000000000000000000000000000000000000000000000000000000000000000001440000000000000         00000000000000000000000SUCOS E SORVETERIA SUISSA LTDA                                        000212
10205539814000112041300648601        CLEAN AMBIENTAL          00008328            109000083286             I02011117000000832800008328            09111700000000291323412897715000000000000000000000000000000000000000000000000000000000000000000000000000000000000000000000000000000960000000000000         00000000000000000000000VILLA 106 ALIMENTOS LTDA - EPP                                        000213
10205539814000112041300648601        CLEAN AMBIENTAL          00008330            109000083302             I02011117000000833000008330            09111700000000385843412897715000000000000000000000000000000000000000000000000000000000000000000000000000000000000000000000000000001270000000000000         00000000000000000000000PANIFICACAO GOVERNADOR LTDA -                                         000214
10205539814000112041300648601        CLEAN AMBIENTAL          00008331            109000083310             I02011117000000833100008331            09111700000000385843412897715000000000000000000000000000000000000000000000000000000000000000000000000000000000000000000000000000001270000000000000         00000000000000000000000PANIFICACAO E CONFEITARIA TAUA                                        000215
10205539814000112041300648601        CLEAN AMBIENTAL          00008332            109000083328             I02011117000000833200008332            09111700000000405003412897715000000000000000000000000000000000000000000000000000000000000000000000000000000000000000000000000000001340000000000000         00000000000000000000000SORVETERIA GRAJAU LTDA - ME                                           000216
10205539814000112041300648601        CLEAN AMBIENTAL          00008333            109000083336             I02011117000000833300008333            09111700000000157893412897715000000000000000000000000000000000000000000000000000000000000000000000000000000000000000000000000000000520000000000000         00000000000000000000000LULUS BOLOS COMERCIO DE ALIMEN                                        000217
10205539814000112041300648601        CLEAN AMBIENTAL          00008334            109000083344             I02011117000000833400008334            09111700000000162893412897715000000000000000000000000000000000000000000000000000000000000000000000000000000000000000000000000000000530000000000000         00000000000000000000000MERCADO DE CARNES IRMAOS DA VI                                        000218
10205539814000112041300648601        CLEAN AMBIENTAL          00008335            109000083351             I02011117000000833500008335            09111700000000290043412897715000000000000000000000000000000000000000000000000000000000000000000000000000000000000000000000000000000960000000000000         00000000000000000000000PADARIA MARIA FARINHA LTDA - M                                        000219
10205539814000112041300648601        CLEAN AMBIENTAL          00008336            109000083369             I02011117000000833600008336            09111700000000685123412897715000000000000000000000000000000000000000000000000000000000000000000000000000000000000000000000000000002260000000000000         00000000000000000000000M3FC RESTAURANTE LTDA - ME                                            000220
10205539814000112041300648601        CLEAN AMBIENTAL          00008337            109000083377             I02011117000000833700008337            09111700000000320793412897715000000000000000000000000000000000000000000000000000000000000000000000000000000000000000000000000000001060000000000000         00000000000000000000000BEER 16 PETISCARIA LTDA - ME                                          000221
10205539814000112041300648601        CLEAN AMBIENTAL          00008339            109000083393             I02011117000000833900008339            09111700000000320793412897715000000000000000000000000000000000000000000000000000000000000000000000000000000000000000000000000000001060000000000000         00000000000000000000000MESTRE SALA ALIMENTACAO LTDA M                                        000222
10205539814000112041300648601        CLEAN AMBIENTAL          00008340            109000083401             I02011117000000834000008340            09111700000000235003412897715000000000000000000000000000000000000000000000000000000000000000000000000000000000000000000000000000000780000000000000         00000000000000000000000BAR PAISAGEM DA CIDADE LTDA -                                         000223
10205539814000112041300648601        CLEAN AMBIENTAL          00008341            109000083419             I02011117000000834100008341            14111700000000110373412897715000000000000000000000000000000000000000000000000000000000000000000000000000000000000000000000000000000360000000000000         00000000000000000000000TAI LEO PENSAO LTDA - ME                                              000224
10205539814000112041300648601        CLEAN AMBIENTAL          00008342            109000083427             I02011117000000834200008342            09111700000000335883412897715000000000000000000000000000000000000000000000000000000000000000000000000000000000000000000000000000001110000000000000         00000000000000000000000AMF1 PARTICIPACOES E EMPREENDI                                        000225
10205539814000112041300648601        CLEAN AMBIENTAL          00008343            109000083435             I02011117000000834300008343            09111700000000289213412897715000000000000000000000000000000000000000000000000000000000000000000000000000000000000000000000000000000950000000000000         00000000000000000000000GALETO MANIA DA TIJUCA RESTAUR                                        000226
10205539814000112041300648601        CLEAN AMBIENTAL          00008344            109000083443             I02011117000000834400008344            09111700000000141843412897715000000000000000000000000000000000000000000000000000000000000000000000000000000000000000000000000000000470000000000000         00000000000000000000000UTILICASA DE IPANEMA LTDA - ME                                        000227
10205539814000112041300648601        CLEAN AMBIENTAL          00008345            109000083450             I02011117000000834500008345            09111700000000174743412897715000000000000000000000000000000000000000000000000000000000000000000000000000000000000000000000000000000570000000000000         00000000000000000000000CAFE E BAR ALVITE LTDA - ME                                           000228
10205539814000112041300648601        CLEAN AMBIENTAL          00008346            109000083468             I02011117000000834600008346            14111700000000131323412897715000000000000000000000000000000000000000000000000000000000000000000000000000000000000000000000000000000430000000000000         00000000000000000000000T. C. A. DOS SANTOS F. VIANNA                                         000229
10205539814000112041300648601        CLEAN AMBIENTAL          00008347            109000083476             I02011117000000834700008347            09111700000001647113412897715000000000000000000000000000000000000000000000000000000000000000000000000000000000000000000000000000000010000000000000         00000000000000000000000COMERCIO DE HORT FRUIT GRAJAU                                         000230
10205539814000112041300648601        CLEAN AMBIENTAL          00008348            109000083484             I02011117000000834800008348            09111700000000210263412897715000000000000000000000000000000000000000000000000000000000000000000000000000000000000000000000000000000690000000000000         00000000000000000000000CID BAR E SELF SERVICE LTDA -                                         000231
10205539814000112041300648601        CLEAN AMBIENTAL          00008350            109000083500             I02011117000000835000008350            09111700000000257883412897715000000000000000000000000000000000000000000000000000000000000000000000000000000000000000000000000000000850000000000000         00000000000000000000000BAR FAVAIOS LANCHONETE LTDA -                                         000232
10205539814000112041300648601        CLEAN AMBIENTAL          00008351            109000083518             I02011117000000835100008351            09111700000000163743412897715000000000000000000000000000000000000000000000000000000000000000000000000000000000000000000000000000000540000000000000         00000000000000000000000TIBAR TAQUARA LTDA - ME                                               000233
10205539814000112041300648601        CLEAN AMBIENTAL          00008352            109000083526             I02011117000000835200008352            09111700000000176053412897715000000000000000000000000000000000000000000000000000000000000000000000000000000000000000000000000000000580000000000000         00000000000000000000000ARTE & PALADAR COMESTIVEIS LTD                                        000234
10205539814000112041300648601        CLEAN AMBIENTAL          00008353            109000083534             I02011117000000835300008353            09111700000000265533412897715000000000000000000000000000000000000000000000000000000000000000000000000000000000000000000000000000000870000000000000         00000000000000000000000COLEGIO CURSO NETTO LTDA - ME                                         000235
10205539814000112041300648601        CLEAN AMBIENTAL          00008354            109000083542             I02011117000000835400008354            09111700000000270793412897715000000000000000000000000000000000000000000000000000000000000000000000000000000000000000000000000000000890000000000000         00000000000000000000000PADARIA E CONFEITARIA RAINHA D                                        000236
10205539814000112041300648601        CLEAN AMBIENTAL          00008355            109000083559             I02011117000000835500008355            09111700000000218683412897715000000000000000000000000000000000000000000000000000000000000000000000000000000000000000000000000000000720000000000000         00000000000000000000000BAR E LANCHONETE RIO DA PRATA                                         000237
10205539814000112041300648601        CLEAN AMBIENTAL          00008356            109000083567             I02011117000000835600008356            09111700000000191843412897715000000000000000000000000000000000000000000000000000000000000000000000000000000000000000000000000000000630000000000000         00000000000000000000000BAR E RESTAURANTE PINGO D\\\'P                                        000238
10205539814000112041300648601        CLEAN AMBIENTAL          00008357            109000083575             I02011117000000835700008357            14111700000000144463412897715000000000000000000000000000000000000000000000000000000000000000000000000000000000000000000000000000000480000000000000         00000000000000000000000PADARIA TRES MENINOS LTDA - ME                                        000239
10205539814000112041300648601        CLEAN AMBIENTAL          00008358            109000083583             I02011117000000835800008358            09111700000000164473412897715000000000000000000000000000000000000000000000000000000000000000000000000000000000000000000000000000000540000000000000         00000000000000000000000MS REFEICOES E LANCHONETE EIRE                                        000240
10205539814000112041300648601        CLEAN AMBIENTAL          00008359            109000083591             I02011117000000835900008359            09111700000000131323412897715000000000000000000000000000000000000000000000000000000000000000000000000000000000000000000000000000000430000000000000         00000000000000000000000COM BOLO INDUSTRIA E COMERCIO                                         000241
10205539814000112041300648601        CLEAN AMBIENTAL          00008360            109000083609             I02011117000000836000008360            14111700000000230793412897715000000000000000000000000000000000000000000000000000000000000000000000000000000000000000000000000000000760000000000000         00000000000000000000000COMERCIAL DISTRIBUIDORA MARNO                                         000242
10205539814000112041300648601        CLEAN AMBIENTAL          00008361            109000083617             I02011117000000836100008361            14111700000000194473412897715000000000000000000000000000000000000000000000000000000000000000000000000000000000000000000000000000000640000000000000         00000000000000000000000SOCIEDADE EDUCACIONAL RECRIAND                                        000243
10205539814000112041300648601        CLEAN AMBIENTAL          00008362            109000083625             I02011117000000836200008362            09111700000000126323412897715000000000000000000000000000000000000000000000000000000000000000000000000000000000000000000000000000000420000000000000         00000000000000000000000CAFE DO FORUM CAFETERIA GOURME                                        000244
10205539814000112041300648601        CLEAN AMBIENTAL          00008363            109000083633             I02011117000000836300008363            08111700000000207633412897715000000000000000000000000000000000000000000000000000000000000000000000000000000000000000000000000000000680000000000000         00000000000000000000000SABOR REAL RESTAURANTE E LANCH                                        000245
10205539814000112041300648601        CLEAN AMBIENTAL          00008364            109000083641             I02011117000000836400008364            09111700000001410263412897715000000000000000000000000000000000000000000000000000000000000000000000000000000000000000000000000000004650000000000000         00000000000000000000000MINI MARKET BARRA SUL MERCADO                                         000246
10205539814000112041300648601        CLEAN AMBIENTAL          00008366            109000083666             I02011117000000836600008366            09111700000000793423412897715000000000000000000000000000000000000000000000000000000000000000000000000000000000000000000000000000002620000000000000         00000000000000000000000BRASA CARNES E BEER EIRELI                                            000247
10205539814000112041300648601        CLEAN AMBIENTAL          00008367            109000083674             I02011117000000836700008367            09111700000000253953412897715000000000000000000000000000000000000000000000000000000000000000000000000000000000000000000000000000000830000000000000         00000000000000000000000ACOUGUE VISCONDE DE OURO PRETO                                        000248
