02RETORNO01COBRANCA       041300648601        CLEAN AMB SERV COL TRANSP LTDA341BANCO ITAU S.A.02011801600BPI01822020118                                                                                                                                                                                                                                                                                   000001
10205539814000112041300648601        CLEAN AMBIENTAL          00010708            109000107085             I04020118000001070800010708            15011800000000331583412897715000000000000000000000000000000000000000000000000000000000000000000000000000000000000000000000000000000000000000000000         00000000000000000000000SONHO DE MEL BAR E RESTAURANTE                                        000002
10205539814000112041300648601        CLEAN AMBIENTAL          00011289            109000112895             I04020118000001128900011289            05011800000000063773412897715000000000000000000000000000000000000000000000000000000000000000000000000000000000000000000000000000000000000000000000         00000000000000000000000SINDICATO DOS EMPREGADOS NO CO                                        000003
10205539814000112041300648601        CLEAN AMBIENTAL          00011422            109000114222             I04020118000001142200011422            05011800000000097263412897715000000000000000000000000000000000000000000000000000000000000000000000000000000000000000000000000000000000000000000000         00000000000000000000000TEMPERO DOS SONHOS VO LAYCE EI                                        000004
10205539814000112041300648601        CLEAN AMBIENTAL          00013783            109000137835             I04020118000001378300013783            10011800000000652803412897715000000000000000000000000000000000000000000000000000000000000000000000000000000000000000000000000000000000000000000000         00000000000000000000000VESUVIUS REFRATARIOS LTDA                                             000005
10205539814000112041300648601        CLEAN AMBIENTAL          00014688            109000146885             I04020118000001468800014688            15011800000000315793412897715000000000000000000000000000000000000000000000000000000000000000000000000000000000000000000000000000000000000000000000         00000000000000000000000SONHO DE MEL BAR E RESTAURANTE                                        000006
10205539814000112041300648601        CLEAN AMBIENTAL          00014929            109000149293             I04020118000001492900014929            05011800000000800003412897715000000000000000000000000000000000000000000000000000000000000000000000000000000000000000000000000000000000000000000000         00000000000000000000000ABE COMERCIO DE ALIMENTOS E BE                                        000007
10205539814000112041300648601        CLEAN AMBIENTAL          00015022            109000150226             I04020118000001502200015022            04011800000002842113412897715000000000000000000000000000000000000000000000000000000000000000000000000000000000000000000000000000000000000000000000         00000000000000000000000COMISSARIA AEREA RIO DE JANEIR                                        000008
10205539814000112041300648601        CLEAN AMBIENTAL          00015025            109000150259             I04020118000001502500015025            05011800000000352633412897715000000000000000000000000000000000000000000000000000000000000000000000000000000000000000000000000000000000000000000000         00000000000000000000000PADARIA, CONFEITARIA E MERCEAR                                        000009
10205539814000112041300648601        CLEAN AMBIENTAL          00015113            109000151133             I04020118000001511300015113            05011800000000126313412897715000000000000000000000000000000000000000000000000000000000000000000000000000000000000000000000000000000000000000000000         00000000000000000000000RC HOTELARIA LTDA - ME                                                000010
10205539814000112041300648601        CLEAN AMBIENTAL          00015573            109000155738             I04020118000001557300015573            18011800000000518423412897715000000000000000000000000000000000000000000000000000000000000000000000000000000000000000000000000000000000000000000000         00000000000000000000000AEROPREST COMBUSTIVEIS DE AVIA                                        000011
10205539814000112041300648601        CLEAN AMBIENTAL          00015679            109000156793             I02020118000001567900015679            05011800000001447533412897715000000000000000000000000000000000000000000000000000000000000000000000000000000000000000000000000000004780000000000000         00000000000000000000000BAMBU RESTAURANTE & PIZZARIA L                                        000012
10205539814000112041300648601        CLEAN AMBIENTAL          00015680            109000156801             I02020118000001568000015680            05011800000000301633412897715000000000000000000000000000000000000000000000000000000000000000000000000000000000000000000000000000000990000000000000         00000000000000000000000NOVO MILENIO SUCOS LTDA                                               000013
10205539814000112041300648601        CLEAN AMBIENTAL          00015681            109000156819             I02020118000001568100015681            05011800000000570683412897715000000000000000000000000000000000000000000000000000000000000000000000000000000000000000000000000000001880000000000000         00000000000000000000000PADARIA E CONFEITARIA FILE DE                                         000014
10205539814000112041300648601        CLEAN AMBIENTAL          00015682            109000156827             I02020118000001568200015682            05011800000001815003412897715000000000000000000000000000000000000000000000000000000000000000000000000000000000000000000000000000000010000000000000         00000000000000000000000VALQUEIRE FRUT HORTIFRUTIGRANJ                                        000015
10205539814000112041300648601        CLEAN AMBIENTAL          00015683            109000156835             I02020118000001568300015683            05011800000000799683412897715000000000000000000000000000000000000000000000000000000000000000000000000000000000000000000000000000002640000000000000         00000000000000000000000B HERZ & CIA LTDA - EPP                                               000016
10205539814000112041300648601        CLEAN AMBIENTAL          00015684            109000156843             I02020118000001568400015684            10011800000000341053412897715000000000000000000000000000000000000000000000000000000000000000000000000000000000000000000000000000001130000000000000         00000000000000000000000CAFE E BAR VERA CRUZ LTDA                                             000017
10205539814000112041300648601        CLEAN AMBIENTAL          00015685            109000156850             I02020118000001568500015685            10011800000000300873412897715000000000000000000000000000000000000000000000000000000000000000000000000000000000000000000000000000000990000000000000         00000000000000000000000FEELGOOD COMERCIO DE ALIMENTOS                                        000018
10205539814000112041300648601        CLEAN AMBIENTAL          00015686            109000156868             I02020118000001568600015686            05011800000000591783412897715000000000000000000000000000000000000000000000000000000000000000000000000000000000000000000000000000001950000000000000         00000000000000000000000CONDOMINIO DO EDIFICIO LAS PAL                                        000019
10205539814000112041300648601        CLEAN AMBIENTAL          00015687            109000156876             I02020118000001568700015687            05011800000000405133412897715000000000000000000000000000000000000000000000000000000000000000000000000000000000000000000000000000001340000000000000         00000000000000000000000MANZANA RESTAURANTE LTDA                                              000020
10205539814000112041300648601        CLEAN AMBIENTAL          00015688            109000156884             I02020118000001568800015688            10011800000000021673412897715000000000000000000000000000000000000000000000000000000000000000000000000000000000000000000000000000000070000000000000         00000000000000000000000BAR E LANCHONETE RIO MARAVILHA                                        000021
10205539814000112041300648601        CLEAN AMBIENTAL          00015689            109000156892             I02020118000001568900015689            10011800000000261423412897715000000000000000000000000000000000000000000000000000000000000000000000000000000000000000000000000000000860000000000000         00000000000000000000000REI DO QUEIJO LTDA                                                    000022
10205539814000112041300648601        CLEAN AMBIENTAL          00015690            109000156900             I02020118000001569000015690            05011800000000593043412897715000000000000000000000000000000000000000000000000000000000000000000000000000000000000000000000000000001960000000000000         00000000000000000000000RAINHA 95 COMERCIO DE ALIMENTO                                        000023
10205539814000112041300648601        CLEAN AMBIENTAL          00015691            109000156918             I02020118000001569100015691            05011800000000369843412897715000000000000000000000000000000000000000000000000000000000000000000000000000000000000000000000000000001220000000000000         00000000000000000000000BAR E MERCEARIA TIO AUGUSTO LT                                        000024
10205539814000112041300648601        CLEAN AMBIENTAL          00015692            109000156926             I02020118000001569200015692            05011800000000806113412897715000000000000000000000000000000000000000000000000000000000000000000000000000000000000000000000000000002660000000000000         00000000000000000000000BROZ ASSEMBLEIA RESTAURANTE LT                                        000025
10205539814000112041300648601        CLEAN AMBIENTAL          00015693            109000156934             I02020118000001569300015693            05011800000000556693412897715000000000000000000000000000000000000000000000000000000000000000000000000000000000000000000000000000001830000000000000         00000000000000000000000CAFE E BAR VILA FRANCA LTDA                                           000026
10205539814000112041300648601        CLEAN AMBIENTAL          00015694            109000156942             I02020118000001569400015694            05011800000000324583412897715000000000000000000000000000000000000000000000000000000000000000000000000000000000000000000000000000001070000000000000         00000000000000000000000RESTAURANTE CANTINA DA MAMA LT                                        000027
10205539814000112041300648601        CLEAN AMBIENTAL          00015695            109000156959             I02020118000001569500015695            05011800000000344443412897715000000000000000000000000000000000000000000000000000000000000000000000000000000000000000000000000000001140000000000000         00000000000000000000000SYN BIJOUX COMERCIO DE BIJUTER                                        000028
10205539814000112041300648601        CLEAN AMBIENTAL          00015697            109000156975             I02020118000001569700015697            05011800000000317233412897715000000000000000000000000000000000000000000000000000000000000000000000000000000000000000000000000000001050000000000000         00000000000000000000000L. L RODRIGUES HORTIFRUTI LTDA                                        000029
10205539814000112041300648601        CLEAN AMBIENTAL          00015699            109000156991             I02020118000001569900015699            05011800000000731323412897715000000000000000000000000000000000000000000000000000000000000000000000000000000000000000000000000000002410000000000000         00000000000000000000000CONFEITARIA SO TATI LTDA                                              000030
10205539814000112041300648601        CLEAN AMBIENTAL          00015700            109000157007             I02020118000001570000015700            10011800000000263953412897715000000000000000000000000000000000000000000000000000000000000000000000000000000000000000000000000000000870000000000000         00000000000000000000000CAFE E BAR CANTINHO DOS SERVID                                        000031
10205539814000112041300648601        CLEAN AMBIENTAL          00015701            109000157015             I02020118000001570100015701            10011800000000178313412897715000000000000000000000000000000000000000000000000000000000000000000000000000000000000000000000000000000590000000000000         00000000000000000000000LANCHONETE E PASTELARIA DRAGAO                                        000032
10205539814000112041300648601        CLEAN AMBIENTAL          00015702            109000157023             I02020118000001570200015702            10011800000000386013412897715000000000000000000000000000000000000000000000000000000000000000000000000000000000000000000000000000001270000000000000         00000000000000000000000POSTO DE GASOLINA RENASCER LTD                                        000033
10205539814000112041300648601        CLEAN AMBIENTAL          00015703            109000157031             I02020118000001570300015703            05011800000000115533412897715000000000000000000000000000000000000000000000000000000000000000000000000000000000000000000000000000000380000000000000         00000000000000000000000CAFE E LANCHONETE PINHEIRO MAC                                        000034
10205539814000112041300648601        CLEAN AMBIENTAL          00015704            109000157049             I02020118000001570400015704            05011800000000181843412897715000000000000000000000000000000000000000000000000000000000000000000000000000000000000000000000000000000600000000000000         00000000000000000000000ALIMAR BAR E LANCHONETE LTDA -                                        000035
10205539814000112041300648601        CLEAN AMBIENTAL          00015705            109000157056             I02020118000001570500015705            15011800000000421473412897715000000000000000000000000000000000000000000000000000000000000000000000000000000000000000000000000000001390000000000000         00000000000000000000000KILORD RESTAURANTE E LANCHONET                                        000036
10205539814000112041300648601        CLEAN AMBIENTAL          00015707            109000157072             I02020118000001570700015707            05011800000000251323412897715000000000000000000000000000000000000000000000000000000000000000000000000000000000000000000000000000000830000000000000         00000000000000000000000PEIXARIA CORACAO DE CAMPO GRAN                                        000037
10205539814000112041300648601        CLEAN AMBIENTAL          00015710            109000157106             I02020118000001571000015710            10011800000000419643412897715000000000000000000000000000000000000000000000000000000000000000000000000000000000000000000000000000001380000000000000         00000000000000000000000M T 73 BAR E RESTAURANTE LTDA                                         000038
10205539814000112041300648601        CLEAN AMBIENTAL          00015711            109000157114             I02020118000001571100015711            05011800000000721973412897715000000000000000000000000000000000000000000000000000000000000000000000000000000000000000000000000000002380000000000000         00000000000000000000000COLEGIO EDUCACIONAL CLM 2006 L                                        000039
10205539814000112041300648601        CLEAN AMBIENTAL          00015712            109000157122             I02020118000001571200015712            05011800000000347113412897715000000000000000000000000000000000000000000000000000000000000000000000000000000000000000000000000000001150000000000000         00000000000000000000000LEOS LANCHONETE E MERCEARIA EI                                        000040
10205539814000112041300648601        CLEAN AMBIENTAL          00015713            109000157130             I02020118000001571300015713            05011800000000131323412897715000000000000000000000000000000000000000000000000000000000000000000000000000000000000000000000000000000430000000000000         00000000000000000000000ELETRICO PAIVA LTDA - ME                                              000041
10205539814000112041300648601        CLEAN AMBIENTAL          00015714            109000157148             I02020118000001571400015714            05011800000000207633412897715000000000000000000000000000000000000000000000000000000000000000000000000000000000000000000000000000000680000000000000         00000000000000000000000RL LANCHES LTDA - ME                                                  000042
10205539814000112041300648601        CLEAN AMBIENTAL          00015715            109000157155             I02020118000001571500015715            05011800000000114473412897715000000000000000000000000000000000000000000000000000000000000000000000000000000000000000000000000000000380000000000000         00000000000000000000000LANCHONETE AVENIDA LONDRES LTD                                        000043
10205539814000112041300648601        CLEAN AMBIENTAL          00015716            109000157163             I02020118000001571600015716            05011800000000114473412897715000000000000000000000000000000000000000000000000000000000000000000000000000000000000000000000000000000380000000000000         00000000000000000000000COLIZEU BAR E RESTAURANTE LTDA                                        000044
10205539814000112041300648601        CLEAN AMBIENTAL          00015717            109000157171             I02020118000001571700015717            05011800000000233423412897715000000000000000000000000000000000000000000000000000000000000000000000000000000000000000000000000000000770000000000000         00000000000000000000000PANIFICADORA PLENITUDE DE IRAJ                                        000045
10205539814000112041300648601        CLEAN AMBIENTAL          00015718            109000157189             I02020118000001571800015718            05011800000000110473412897715000000000000000000000000000000000000000000000000000000000000000000000000000000000000000000000000000000360000000000000         00000000000000000000000DEPOSITOS DE BEBIDAS ESTACAO C                                        000046
10205539814000112041300648601        CLEAN AMBIENTAL          00015719            109000157197             I02020118000001571900015719            10011800000000326913412897715000000000000000000000000000000000000000000000000000000000000000000000000000000000000000000000000000001080000000000000         00000000000000000000000LANCHES ESCOL LTDA - ME                                               000047
10205539814000112041300648601        CLEAN AMBIENTAL          00015720            109000157205             I02020118000001572000015720            05011800000000383953412897715000000000000000000000000000000000000000000000000000000000000000000000000000000000000000000000000000001260000000000000         00000000000000000000000CONFEITARIA CENTRAL DA VILA NO                                        000048
10205539814000112041300648601        CLEAN AMBIENTAL          00015721            109000157213             I02020118000001572100015721            05011800000000322373412897715000000000000000000000000000000000000000000000000000000000000000000000000000000000000000000000000000001060000000000000         00000000000000000000000BARRA POINT RESTAURANTE LTDA -                                        000049
10205539814000112041300648601        CLEAN AMBIENTAL          00015722            109000157221             I02020118000001572200015722            05011800000000320793412897715000000000000000000000000000000000000000000000000000000000000000000000000000000000000000000000000000001060000000000000         00000000000000000000000MAGIARTE RECREIO ENSINO LTDA -                                        000050
10205539814000112041300648601        CLEAN AMBIENTAL          00015725            109000157254             I02020118000001572500015725            05011800000000340263412897715000000000000000000000000000000000000000000000000000000000000000000000000000000000000000000000000000001120000000000000         00000000000000000000000BAR E LANCHONETE RAMA LTDA - E                                        000051
10205539814000112041300648601        CLEAN AMBIENTAL          00015726            109000157262             I02020118000001572600015726            05011800000000321113412897715000000000000000000000000000000000000000000000000000000000000000000000000000000000000000000000000000001060000000000000         00000000000000000000000TATIANA MOREIRA CAMPOS PAIVA 0                                        000052
10205539814000112041300648601        CLEAN AMBIENTAL          00015727            109000157270             I02020118000001572700015727            05011800000000165003412897715000000000000000000000000000000000000000000000000000000000000000000000000000000000000000000000000000000540000000000000         00000000000000000000000LANCHONETE RIBEIRINHA DO BAIAO                                        000053
10205539814000112041300648601        CLEAN AMBIENTAL          00015728            109000157288             I02020118000001572800015728            05011800000000285593412897715000000000000000000000000000000000000000000000000000000000000000000000000000000000000000000000000000000940000000000000         00000000000000000000000HOTEL TRES NACOES LTDA - EPP                                          000054
10205539814000112041300648601        CLEAN AMBIENTAL          00015729            109000157296             I02020118000001572900015729            05011800000000131323412897715000000000000000000000000000000000000000000000000000000000000000000000000000000000000000000000000000000430000000000000         00000000000000000000000PASSOS GOURMET LTDA - EPP                                             000055
10205539814000112041300648601        CLEAN AMBIENTAL          00015730            109000157304             I02020118000001573000015730            05011800000000157893412897715000000000000000000000000000000000000000000000000000000000000000000000000000000000000000000000000000000520000000000000         00000000000000000000000RESTAURANTE GALETO DIVINO LTDA                                        000056
10205539814000112041300648601        CLEAN AMBIENTAL          00015732            109000157320             I02020118000001573200015732            05011800000000256793412897715000000000000000000000000000000000000000000000000000000000000000000000000000000000000000000000000000000840000000000000         00000000000000000000000BORGES & SILVA RESTAURANTE E M                                        000057
10205539814000112041300648601        CLEAN AMBIENTAL          00015733            109000157338             I02020118000001573300015733            05011800000000256793412897715000000000000000000000000000000000000000000000000000000000000000000000000000000000000000000000000000000840000000000000         00000000000000000000000RESTAURANTE TKL LTDA - ME                                             000058
10205539814000112041300648601        CLEAN AMBIENTAL          00015735            109000157353             I02020118000001573500015735            05011800000000215323412897715000000000000000000000000000000000000000000000000000000000000000000000000000000000000000000000000000000710000000000000         00000000000000000000000BANCO BRADESCO S.A.                                                   000059
10205539814000112041300648601        CLEAN AMBIENTAL          00015736            109000157361             I02020118000001573600015736            05011800000000252373412897715000000000000000000000000000000000000000000000000000000000000000000000000000000000000000000000000000000830000000000000         00000000000000000000000AUTO POSTO DE GASOLINA RECREIO                                        000060
10205539814000112041300648601        CLEAN AMBIENTAL          00015737            109000157379             I02020118000001573700015737            05011800000000210263412897715000000000000000000000000000000000000000000000000000000000000000000000000000000000000000000000000000000690000000000000         00000000000000000000000HORTIFRUTI MEGA FRUTI DO PRE L                                        000061
10205539814000112041300648601        CLEAN AMBIENTAL          00015739            109000157395             I02020118000001573900015739            05011800000000500053412897715000000000000000000000000000000000000000000000000000000000000000000000000000000000000000000000000000001650000000000000         00000000000000000000000CONDOMINIO DO EDIFICIO DOM LEO                                        000062
10205539814000112041300648601        CLEAN AMBIENTAL          00015741            109000157411             I02020118000001574100015741            05011800000000174773412897715000000000000000000000000000000000000000000000000000000000000000000000000000000000000000000000000000000570000000000000         00000000000000000000000FONTANA SKY RESTAURANTE LEGITI                                        000063
10205539814000112041300648601        CLEAN AMBIENTAL          00015742            109000157429             I02020118000001574200015742            05011800000000145263412897715000000000000000000000000000000000000000000000000000000000000000000000000000000000000000000000000000000480000000000000         00000000000000000000000TABERNA DA VILA BAR E RESTAURA                                        000064
10205539814000112041300648601        CLEAN AMBIENTAL          00015743            109000157437             I02020118000001574300015743            05011800000000248423412897715000000000000000000000000000000000000000000000000000000000000000000000000000000000000000000000000000000820000000000000         00000000000000000000000VENERAVEL E ARQ ORDEM 3 DE N S                                        000065
10205539814000112041300648601        CLEAN AMBIENTAL          00015744            109000157445             I02020118000001574400015744            05011800000000308163412897715000000000000000000000000000000000000000000000000000000000000000000000000000000000000000000000000000001020000000000000         00000000000000000000000BARAO COPACABANA HOSTEL HOSPED                                        000066
10205539814000112041300648601        CLEAN AMBIENTAL          00015745            109000157452             I02020118000001574500015745            05011800000000223953412897715000000000000000000000000000000000000000000000000000000000000000000000000000000000000000000000000000000740000000000000         00000000000000000000000BAR E MERCEARIA PIONEIRA DO BA                                        000067
10205539814000112041300648601        CLEAN AMBIENTAL          00015746            109000157460             I02020118000001574600015746            05011800000000263163412897715000000000000000000000000000000000000000000000000000000000000000000000000000000000000000000000000000000870000000000000         00000000000000000000000MGV COMERCIO DE DERIVADOS DE P                                        000068
10205539814000112041300648601        CLEAN AMBIENTAL          00015748            109000157486             I02020118000001574800015748            05011800000000840003412897715000000000000000000000000000000000000000000000000000000000000000000000000000000000000000000000000000002770000000000000         00000000000000000000000DECK BEER BAR E RESTAURANTE                                           000069
10205539814000112041300648601        CLEAN AMBIENTAL          00015749            109000157494             I02020118000001574900015749            10011800000000157893412897715000000000000000000000000000000000000000000000000000000000000000000000000000000000000000000000000000000520000000000000         00000000000000000000000CASTELO GAUCHO BAR E LANCHONET                                        000070
10205539814000112041300648601        CLEAN AMBIENTAL          00015750            109000157502             I02020118000001575000015750            11011800000000585473412897715000000000000000000000000000000000000000000000000000000000000000000000000000000000000000000000000000001930000000000000         00000000000000000000000AZEVEDO & PATRICIO ABRIGO PARA                                        000071
10205539814000112041300648601        CLEAN AMBIENTAL          00015752            109000157528             I02020118000001575200015752            10011800000000426053412897715000000000000000000000000000000000000000000000000000000000000000000000000000000000000000000000000000001410000000000000         00000000000000000000000CONDOMINIO DO EDIFICIO MERCANT                                        000072
10205539814000112041300648601        CLEAN AMBIENTAL          00015753            109000157536             I02020118000001575300015753            05011800000000223953412897715000000000000000000000000000000000000000000000000000000000000000000000000000000000000000000000000000000740000000000000         00000000000000000000000CASA DA FARTURA HORTIFRUTI EIR                                        000073
10205539814000112041300648601        CLEAN AMBIENTAL          00015754            109000157544             I02020118000001575400015754            05011800000000194473412897715000000000000000000000000000000000000000000000000000000000000000000000000000000000000000000000000000000640000000000000         00000000000000000000000POUSADA COLINA DE COPACABANA L                                        000074
10205539814000112041300648601        CLEAN AMBIENTAL          00015755            109000157551             I02020118000001575500015755            05011800000000187533412897715000000000000000000000000000000000000000000000000000000000000000000000000000000000000000000000000000000620000000000000         00000000000000000000000SJ RODRIGUES HORTIFRUTI EIRELI                                        000075
10205539814000112041300648601        CLEAN AMBIENTAL          00015756            109000157569             I02020118000001575600015756            05011800000000637633412897715000000000000000000000000000000000000000000000000000000000000000000000000000000000000000000000000000002100000000000000         00000000000000000000000SISTEMA EDUCACIONAL MOMENTO                                           000076
10205539814000112041300648601        CLEAN AMBIENTAL          00015757            109000157577             I02020118000001575700015757            05011800000000847113412897715000000000000000000000000000000000000000000000000000000000000000000000000000000000000000000000000000002800000000000000         00000000000000000000000CONDOMINIO DO EDIFICIO MAXIME                                         000077
10205539814000112041300648601        CLEAN AMBIENTAL          00015758            109000157585             I02020118000001575800015758            05011800000000178683412897715000000000000000000000000000000000000000000000000000000000000000000000000000000000000000000000000000000590000000000000         00000000000000000000000VERFATT & RODIN INDUSTRIA E CO                                        000078
10205539814000112041300648601        CLEAN AMBIENTAL          00015759            109000157593             I02020118000001575900015759            05011800000000105263412897715000000000000000000000000000000000000000000000000000000000000000000000000000000000000000000000000000000350000000000000         00000000000000000000000PEIXARIA E ACOUGUE DO COQUEIRO                                        000079
10205539814000112041300648601        CLEAN AMBIENTAL          00015760            109000157601             I02020118000001576000015760            05011800000000278683412897715000000000000000000000000000000000000000000000000000000000000000000000000000000000000000000000000000000920000000000000         00000000000000000000000ESTACIO SUBMARINO COMERCIO DE                                         000080
10205539814000112041300648601        CLEAN AMBIENTAL          00015761            109000157619             I02020118000001576100015761            05011800000000278683412897715000000000000000000000000000000000000000000000000000000000000000000000000000000000000000000000000000000920000000000000         00000000000000000000000RIO COMPRIDO SUBMARINO COMERCI                                        000081
10205539814000112041300648601        CLEAN AMBIENTAL          00015762            109000157627             I02020118000001576200015762            05011800000000336583412897715000000000000000000000000000000000000000000000000000000000000000000000000000000000000000000000000000001110000000000000         00000000000000000000000BOTERO HAMBURGUERIA E RESTAURA                                        000082
10205539814000112041300648601        CLEAN AMBIENTAL          00015763            109000157635             I02020118000001576300015763            05011800000000141843412897715000000000000000000000000000000000000000000000000000000000000000000000000000000000000000000000000000000470000000000000         00000000000000000000000C. R. CIPRIANO PEIXARIA EIRELI                                        000083
10205539814000112041300648601        CLEAN AMBIENTAL          00015764            109000157643             I02020118000001576400015764            05011800000000110263412897715000000000000000000000000000000000000000000000000000000000000000000000000000000000000000000000000000000360000000000000         00000000000000000000000GM FLORES E DECORACOES LTDA -                                         000084
10205539814000112041300648601        CLEAN AMBIENTAL          00015765            109000157650             I02020118000001576500015765            05011800000000273423412897715000000000000000000000000000000000000000000000000000000000000000000000000000000000000000000000000000000900000000000000         00000000000000000000000TAMBORIL E GRILL RESTAURANTE L                                        000085
10205539814000112041300648601        CLEAN AMBIENTAL          00015766            109000157668             I02020118000001576600015766            05011800000000267743412897715000000000000000000000000000000000000000000000000000000000000000000000000000000000000000000000000000000880000000000000         00000000000000000000000VIA MARECHAL COMERCIO DE ALIME                                        000086
10205539814000112041300648601        CLEAN AMBIENTAL          00015767            109000157676             I02020118000001576700015767            05011800000000291323412897715000000000000000000000000000000000000000000000000000000000000000000000000000000000000000000000000000000960000000000000         00000000000000000000000RESTAURANTE DELICIA DE BONSUCE                                        000087
10205539814000112041300648601        CLEAN AMBIENTAL          00015768            109000157684             I02020118000001576800015768            10011800000000336583412897715000000000000000000000000000000000000000000000000000000000000000000000000000000000000000000000000000001110000000000000         00000000000000000000000CAFE VISCONDE                                                         000088
10205539814000112041300648601        CLEAN AMBIENTAL          00015777            109000157775             I02020118000001577700015777            11011800000000593863412897715000000000000000000000000000000000000000000000000000000000000000000000000000000000000000000000000000001960000000000000         00000000000000000000000RESTAURANTE DUKE LTDA                                                 000089
10205539814000112041300648601        CLEAN AMBIENTAL          00015778            109000157783             I02020118000001577800015778            06011800000000467803412897715000000000000000000000000000000000000000000000000000000000000000000000000000000000000000000000000000001540000000000000         00000000000000000000000BRASAS PENHA RESTAURANTE                                              000090
10205539814000112041300648601        CLEAN AMBIENTAL          00015779            109000157791             I02020118000001577900015779            06011800000000455693412897715000000000000000000000000000000000000000000000000000000000000000000000000000000000000000000000000000001500000000000000         00000000000000000000000LUIZA AQUIM EVENTOS CULINARIOS                                        000091
10205539814000112041300648601        CLEAN AMBIENTAL          00015780            109000157809             I02020118000001578000015780            11011800000000365003412897715000000000000000000000000000000000000000000000000000000000000000000000000000000000000000000000000000001200000000000000         00000000000000000000000ARNALDO LANCHES LTDA - ME                                             000092
10205539814000112041300648601        CLEAN AMBIENTAL          00015781            109000157817             I02020118000001578100015781            06011800000000436163412897715000000000000000000000000000000000000000000000000000000000000000000000000000000000000000000000000000001440000000000000         00000000000000000000000MARCOPAO LANCHONETE E PANIFICA                                        000093
10205539814000112041300648601        CLEAN AMBIENTAL          00015782            109000157825             I02020118000001578200015782            11011800000000783613412897715000000000000000000000000000000000000000000000000000000000000000000000000000000000000000000000000000002580000000000000         00000000000000000000000BAR E CAFE UNIAO LTDA                                                 000094
10205539814000112041300648601        CLEAN AMBIENTAL          00015783            109000157833             I02020118000001578300015783            11011800000000522893412897715000000000000000000000000000000000000000000000000000000000000000000000000000000000000000000000000000001720000000000000         00000000000000000000000COMESTIVEIS DA PR 2013 LTDA -                                         000095
10205539814000112041300648601        CLEAN AMBIENTAL          00015784            109000157841             I02020118000001578400015784            06011800000001387843412897715000000000000000000000000000000000000000000000000000000000000000000000000000000000000000000000000000004580000000000000         00000000000000000000000FEKGD IPANEMA BAR E RESTAURANT                                        000096
10205539814000112041300648601        CLEAN AMBIENTAL          00015785            109000157858             I02020118000001578500015785            06011800000000588133412897715000000000000000000000000000000000000000000000000000000000000000000000000000000000000000000000000000001940000000000000         00000000000000000000000PIZZARIA AMERICANA LTDA - EPP                                         000097
10205539814000112041300648601        CLEAN AMBIENTAL          00015786            109000157866             I02020118000001578600015786            06011800000000712373412897715000000000000000000000000000000000000000000000000000000000000000000000000000000000000000000000000000002350000000000000         00000000000000000000000MULTI FRUTI PRINCESA DO MAR LT                                        000098
10205539814000112041300648601        CLEAN AMBIENTAL          00015788            109000157882             I02020118000001578800015788            06011800000000336583412897715000000000000000000000000000000000000000000000000000000000000000000000000000000000000000000000000000001110000000000000         00000000000000000000000KOSMOS ATENDIMENTO AMBULATORIA                                        000099
10205539814000112041300648601        CLEAN AMBIENTAL          00015789            109000157890             I02020118000001578900015789            06011800000001025673412897715000000000000000000000000000000000000000000000000000000000000000000000000000000000000000000000000000003380000000000000         00000000000000000000000RESTAURANTE SUKIYAKI LTDA - ME                                        000100
10205539814000112041300648601        CLEAN AMBIENTAL          00015791            109000157916             I02020118000001579100015791            06011800000000343213412897715000000000000000000000000000000000000000000000000000000000000000000000000000000000000000000000000000001130000000000000         00000000000000000000000IL DUONO BAR E RESTAURANTE LTD                                        000101
10205539814000112041300648601        CLEAN AMBIENTAL          00015792            109000157924             I02020118000001579200015792            06011800000000682993412897715000000000000000000000000000000000000000000000000000000000000000000000000000000000000000000000000000002250000000000000         00000000000000000000000TIAGO COMPOSTELA LANCHONETE LT                                        000102
10205539814000112041300648601        CLEAN AMBIENTAL          00015793            109000157932             I02020118000001579300015793            11011800000000271653412897715000000000000000000000000000000000000000000000000000000000000000000000000000000000000000000000000000000890000000000000         00000000000000000000000CONDOMINIO DO EDIFICIO SANTO A                                        000103
10205539814000112041300648601        CLEAN AMBIENTAL          00015794            109000157940             I02020118000001579400015794            06011800000000428813412897715000000000000000000000000000000000000000000000000000000000000000000000000000000000000000000000000000001410000000000000         00000000000000000000000PRIMA DONA DOCES LTDA                                                 000104
10205539814000112041300648601        CLEAN AMBIENTAL          00015795            109000157957             I02020118000001579500015795            06011800000000285003412897715000000000000000000000000000000000000000000000000000000000000000000000000000000000000000000000000000000940000000000000         00000000000000000000000ALOHA SUSHI CULINARIA JAPONESA                                        000105
10205539814000112041300648601        CLEAN AMBIENTAL          00015796            109000157965             I02020118000001579600015796            06011800000000455003412897715000000000000000000000000000000000000000000000000000000000000000000000000000000000000000000000000000001500000000000000         00000000000000000000000MOREAU & STERN GASTRONOMIE, BA                                        000106
10205539814000112041300648601        CLEAN AMBIENTAL          00015797            109000157973             I02020118000001579700015797            06011800000000790483412897715000000000000000000000000000000000000000000000000000000000000000000000000000000000000000000000000000002610000000000000         00000000000000000000000RNJB ALIMENTACAO LTDA                                                 000107
10205539814000112041300648601        CLEAN AMBIENTAL          00015798            109000157981             I02020118000001579800015798            06011800000000430123412897715000000000000000000000000000000000000000000000000000000000000000000000000000000000000000000000000000001420000000000000         00000000000000000000000REFENGE REFR. ENGENHARIA, INDU                                        000108
10205539814000112041300648601        CLEAN AMBIENTAL          00015799            109000157999             I02020118000001579900015799            06011800000000265083412897715000000000000000000000000000000000000000000000000000000000000000000000000000000000000000000000000000000870000000000000         00000000000000000000000PADARIA CONFEITARIA E LANCHONE                                        000109
10205539814000112041300648601        CLEAN AMBIENTAL          00015800            109000158005             I02020118000001580000015800            06011800000000672473412897715000000000000000000000000000000000000000000000000000000000000000000000000000000000000000000000000000002220000000000000         00000000000000000000000BAGATELLE LANCHONETE LTDA ME                                          000110
10205539814000112041300648601        CLEAN AMBIENTAL          00015801            109000158013             I02020118000001580100015801            06011800000000541873412897715000000000000000000000000000000000000000000000000000000000000000000000000000000000000000000000000000001790000000000000         00000000000000000000000BUFFET E CONTINARGL VERDE LTDA                                        000111
10205539814000112041300648601        CLEAN AMBIENTAL          00015802            109000158021             I02020118000001580200015802            16011800000000431053412897715000000000000000000000000000000000000000000000000000000000000000000000000000000000000000000000000000001420000000000000         00000000000000000000000MOVIDA LOCACAO DE VEICULOS S.A                                        000112
10205539814000112041300648601        CLEAN AMBIENTAL          00015803            109000158039             I02020118000001580300015803            06011800000000440793412897715000000000000000000000000000000000000000000000000000000000000000000000000000000000000000000000000000001450000000000000         00000000000000000000000PARCO PAPELARIA LTDA                                                  000113
10205539814000112041300648601        CLEAN AMBIENTAL          00015804            109000158047             I02020118000001580400015804            06011800000000295113412897715000000000000000000000000000000000000000000000000000000000000000000000000000000000000000000000000000000970000000000000         00000000000000000000000BAR TABERNA DO MINHO LTDA                                             000114
10205539814000112041300648601        CLEAN AMBIENTAL          00015805            109000158054             I02020118000001580500015805            06011800000000202683412897715000000000000000000000000000000000000000000000000000000000000000000000000000000000000000000000000000000670000000000000         00000000000000000000000JXL BAR E LANCHONETE LTDA                                             000115
10205539814000112041300648601        CLEAN AMBIENTAL          00015806            109000158062             I02020118000001580600015806            10011800000000214383412897715000000000000000000000000000000000000000000000000000000000000000000000000000000000000000000000000000000710000000000000         00000000000000000000000POSITANO BAR E PIZZARIA LTDA                                          000116
10205539814000112041300648601        CLEAN AMBIENTAL          00015807            109000158070             I02020118000001580700015807            06011800000000539733412897715000000000000000000000000000000000000000000000000000000000000000000000000000000000000000000000000000001780000000000000         00000000000000000000000BONG 2015 RESTAURANTE E LANCHO                                        000117
10205539814000112041300648601        CLEAN AMBIENTAL          00015808            109000158088             I02020118000001580800015808            16011800000000557083412897715000000000000000000000000000000000000000000000000000000000000000000000000000000000000000000000000000001840000000000000         00000000000000000000000MR. OX BOUTIQUE DAS CARNES, BA                                        000118
10205539814000112041300648601        CLEAN AMBIENTAL          00015809            109000158096             I02020118000001580900015809            06011800000000490063412897715000000000000000000000000000000000000000000000000000000000000000000000000000000000000000000000000000001620000000000000         00000000000000000000000C & T ADUANEIROS LTDA - EPP                                           000119
10205539814000112041300648601        CLEAN AMBIENTAL          00015810            109000158104             I02020118000001581000015810            06011800000001154473412897715000000000000000000000000000000000000000000000000000000000000000000000000000000000000000000000000000003810000000000000         00000000000000000000000CRF EMPREENDIMENTOS E PARTICIP                                        000120
10205539814000112041300648601        CLEAN AMBIENTAL          00015811            109000158112             I02020118000001581100015811            06011800000000362433412897715000000000000000000000000000000000000000000000000000000000000000000000000000000000000000000000000000001190000000000000         00000000000000000000000FAFE LANCHES LTDA - ME                                                000121
10205539814000112041300648601        CLEAN AMBIENTAL          00015812            109000158120             I02020118000001581200015812            11011800000000173043412897715000000000000000000000000000000000000000000000000000000000000000000000000000000000000000000000000000000570000000000000         00000000000000000000000EDVANIA APRIGIO DA SILVA RESTA                                        000122
10205539814000112041300648601        CLEAN AMBIENTAL          00015813            109000158138             I02020118000001581300015813            06011800000000333423412897715000000000000000000000000000000000000000000000000000000000000000000000000000000000000000000000000000001100000000000000         00000000000000000000000PALACIO INDUSTRIA E COMERCIO D                                        000123
10205539814000112041300648601        CLEAN AMBIENTAL          00015815            109000158153             I02020118000001581500015815            11011800000000215533412897715000000000000000000000000000000000000000000000000000000000000000000000000000000000000000000000000000000710000000000000         00000000000000000000000ROGUIMAR LANCHONETE LTDA                                              000124
10205539814000112041300648601        CLEAN AMBIENTAL          00015816            109000158161             I02020118000001581600015816            11011800000000215533412897715000000000000000000000000000000000000000000000000000000000000000000000000000000000000000000000000000000710000000000000         00000000000000000000000CALDO DE CANA KAU LTDA - ME                                           000125
10205539814000112041300648601        CLEAN AMBIENTAL          00015817            109000158179             I02020118000001581700015817            06011800000000335003412897715000000000000000000000000000000000000000000000000000000000000000000000000000000000000000000000000000001110000000000000         00000000000000000000000SUSHI BAR RIO TOKIO LTDA - ME                                         000126
10205539814000112041300648601        CLEAN AMBIENTAL          00015818            109000158187             I02020118000001581800015818            06011800000000257633412897715000000000000000000000000000000000000000000000000000000000000000000000000000000000000000000000000000000850000000000000         00000000000000000000000BRAGA RESTAURANTE E CREPERIA L                                        000127
10205539814000112041300648601        CLEAN AMBIENTAL          00015819            109000158195             I02020118000001581900015819            06011800000000320793412897715000000000000000000000000000000000000000000000000000000000000000000000000000000000000000000000000000001060000000000000         00000000000000000000000ALEKRIM COMERCIO DE ALIMENTOS                                         000128
10205539814000112041300648601        CLEAN AMBIENTAL          00015820            109000158203             I02020118000001582000015820            06011800000002652373412897715000000000000000000000000000000000000000000000000000000000000000000000000000000000000000000000000000000010000000000000         00000000000000000000000CONDOMINIO DO EDIFICIO TOP CEN                                        000129
10205539814000112041300648601        CLEAN AMBIENTAL          00015821            109000158211             I02020118000001582100015821            17011800000000758473412897715000000000000000000000000000000000000000000000000000000000000000000000000000000000000000000000000000002500000000000000         00000000000000000000000NECA DA VILA BAR E RESTAURANTE                                        000130
10205539814000112041300648601        CLEAN AMBIENTAL          00015822            109000158229             I02020118000001582200015822            06011800000000601693412897715000000000000000000000000000000000000000000000000000000000000000000000000000000000000000000000000000001980000000000000         00000000000000000000000COLEGIO JOAO PAULO I LTDA - EP                                        000131
10205539814000112041300648601        CLEAN AMBIENTAL          00015824            109000158245             I02020118000001582400015824            06011800000000510263412897715000000000000000000000000000000000000000000000000000000000000000000000000000000000000000000000000000001680000000000000         00000000000000000000000FERNANDES XAVIER COMERCIO DE A                                        000132
10205539814000112041300648601        CLEAN AMBIENTAL          00015826            109000158260             I02020118000001582600015826            06011800000000223323412897715000000000000000000000000000000000000000000000000000000000000000000000000000000000000000000000000000000740000000000000         00000000000000000000000SOFT SALAD COMERCIO DE ALIMENT                                        000133
10205539814000112041300648601        CLEAN AMBIENTAL          00015827            109000158278             I02020118000001582700015827            06011800000000189743412897715000000000000000000000000000000000000000000000000000000000000000000000000000000000000000000000000000000620000000000000         00000000000000000000000CASA DA FESTA MANSAO DAS AGUAS                                        000134
10205539814000112041300648601        CLEAN AMBIENTAL          00015828            109000158286             I02020118000001582800015828            06011800000000283953412897715000000000000000000000000000000000000000000000000000000000000000000000000000000000000000000000000000000930000000000000         00000000000000000000000IGREJA BATISTA DE BARAO DA TAQ                                        000135
10205539814000112041300648601        CLEAN AMBIENTAL          00015829            109000158294             I02020118000001582900015829            06011800000000253823412897715000000000000000000000000000000000000000000000000000000000000000000000000000000000000000000000000000000830000000000000         00000000000000000000000A. F. RANGEL JUNIOR RESTAURANT                                        000136
10205539814000112041300648601        CLEAN AMBIENTAL          00015830            109000158302             I02020118000001583000015830            11011800000000345723412897715000000000000000000000000000000000000000000000000000000000000000000000000000000000000000000000000000001140000000000000         00000000000000000000000LARACHE ALIMENTOS LTDA - EPP                                          000137
10205539814000112041300648601        CLEAN AMBIENTAL          00015831            109000158310             I02020118000001583100015831            06011800000000999743412897715000000000000000000000000000000000000000000000000000000000000000000000000000000000000000000000000000003300000000000000         00000000000000000000000HORA 25 LTDA - ME (LAMSA)                                             000138
10205539814000112041300648601        CLEAN AMBIENTAL          00015832            109000158328             I02020118000001583200015832            11011800000000326053412897715000000000000000000000000000000000000000000000000000000000000000000000000000000000000000000000000000001080000000000000         00000000000000000000000PASTELARIA BOTAFOGO - ME                                              000139
10205539814000112041300648601        CLEAN AMBIENTAL          00015833            109000158336             I02020118000001583300015833            06011800000000123163412897715000000000000000000000000000000000000000000000000000000000000000000000000000000000000000000000000000000410000000000000         00000000000000000000000CENTRO MEDICO LEOPOLDINENSE LT                                        000140
10205539814000112041300648601        CLEAN AMBIENTAL          00015835            109000158351             I02020118000001583500015835            06011800000000137633412897715000000000000000000000000000000000000000000000000000000000000000000000000000000000000000000000000000000450000000000000         00000000000000000000000MUNDO VEGAN GASTRONOMIA LTDA -                                        000141
10205539814000112041300648601        CLEAN AMBIENTAL          00015837            109000158377             I02020118000001583700015837            06011800000000125423412897715000000000000000000000000000000000000000000000000000000000000000000000000000000000000000000000000000000410000000000000         00000000000000000000000C.E. RESTAURANTE E PETISQUERIA                                        000142
10205539814000112041300648601        CLEAN AMBIENTAL          00015838            109000158385             I02020118000001583800015838            06011800000000162893412897715000000000000000000000000000000000000000000000000000000000000000000000000000000000000000000000000000000530000000000000         00000000000000000000000AUDIO CORP. LTDA - EPP                                                000143
10205539814000112041300648601        CLEAN AMBIENTAL          00015839            109000158393             I02020118000001583900015839            06011800000000315793412897715000000000000000000000000000000000000000000000000000000000000000000000000000000000000000000000000000001040000000000000         00000000000000000000000DONA EMPADA X DOCES E SALGADOS                                        000144
10205539814000112041300648601        CLEAN AMBIENTAL          00015840            109000158401             I02020118000001584000015840            06011800000000164213412897715000000000000000000000000000000000000000000000000000000000000000000000000000000000000000000000000000000540000000000000         00000000000000000000000BALI LANCHES BAR E LANCHONETE                                         000145
10205539814000112041300648601        CLEAN AMBIENTAL          00015841            109000158419             I02020118000001584100015841            11011800000000194393412897715000000000000000000000000000000000000000000000000000000000000000000000000000000000000000000000000000000640000000000000         00000000000000000000000LANCHONETE ROSA DO ADRO LTDA -                                        000146
10205539814000112041300648601        CLEAN AMBIENTAL          00015842            109000158427             I02020118000001584200015842            06011800000000383953412897715000000000000000000000000000000000000000000000000000000000000000000000000000000000000000000000000000001260000000000000         00000000000000000000000D G ROSA COMERCIO DE ALIMENTOS                                        000147
10205539814000112041300648601        CLEAN AMBIENTAL          00015843            109000158435             I02020118000001584300015843            06011800000000220833412897715000000000000000000000000000000000000000000000000000000000000000000000000000000000000000000000000000000730000000000000         00000000000000000000000ASSOCIACAO SAO VICENTE DE PAUL                                        000148
10205539814000112041300648601        CLEAN AMBIENTAL          00015844            109000158443             I02020118000001584400015844            11011800000000168423412897715000000000000000000000000000000000000000000000000000000000000000000000000000000000000000000000000000000550000000000000         00000000000000000000000CENTRO DE ATIVIDADES PSICO PED                                        000149
10205539814000112041300648601        CLEAN AMBIENTAL          00015845            109000158450             I02020118000001584500015845            11011800000000130893412897715000000000000000000000000000000000000000000000000000000000000000000000000000000000000000000000000000000430000000000000         00000000000000000000000LINDYS LANCHES E COMESTIVEIS L                                        000150
10205539814000112041300648601        CLEAN AMBIENTAL          00015847            109000158476             I02020118000001584700015847            06011800000000594473412897715000000000000000000000000000000000000000000000000000000000000000000000000000000000000000000000000000001960000000000000         00000000000000000000000PREVTOTAL LABORATORIO DE IMAGE                                        000151
10205539814000112041300648601        CLEAN AMBIENTAL          00015848            109000158484             I02020118000001584800015848            06011800000000181843412897715000000000000000000000000000000000000000000000000000000000000000000000000000000000000000000000000000000600000000000000         00000000000000000000000FERREIRAS FONSECAS RESTAURANTE                                        000152
10205539814000112041300648601        CLEAN AMBIENTAL          00015849            109000158492             I02020118000001584900015849            06011800000000268163412897715000000000000000000000000000000000000000000000000000000000000000000000000000000000000000000000000000000880000000000000         00000000000000000000000VIA 19 GOURMET LTDA                                                   000153
10205539814000112041300648601        CLEAN AMBIENTAL          00015850            109000158500             I02020118000001585000015850            11011800000000331323412897715000000000000000000000000000000000000000000000000000000000000000000000000000000000000000000000000000001090000000000000         00000000000000000000000JVFD HAMBURGUERIA LTDA                                                000154
10205539814000112041300648601        CLEAN AMBIENTAL          00015851            109000158518             I02020118000001585100015851            12011800000000196583412897715000000000000000000000000000000000000000000000000000000000000000000000000000000000000000000000000000000650000000000000         00000000000000000000000CULINARIA DI CASA RESTAURANTE                                         000155
10205539814000112041300648601        CLEAN AMBIENTAL          00015852            109000158526             I02020118000001585200015852            06011800000000332893412897715000000000000000000000000000000000000000000000000000000000000000000000000000000000000000000000000000001100000000000000         00000000000000000000000CONDOMINIO DO EDIFICIO CENTRO                                         000156
10205539814000112041300648601        CLEAN AMBIENTAL          00015853            109000158534             I02020118000001585300015853            06011800000000628683412897715000000000000000000000000000000000000000000000000000000000000000000000000000000000000000000000000000002070000000000000         00000000000000000000000MERCEARIA ESTRADA DO MAPUA LTD                                        000157
10205539814000112041300648601        CLEAN AMBIENTAL          00015854            109000158542             I02020118000001585400015854            06011800000000289213412897715000000000000000000000000000000000000000000000000000000000000000000000000000000000000000000000000000000950000000000000         00000000000000000000000CONDOMINIO DO EDIFICIO INSIDE                                         000158
10205539814000112041300648601        CLEAN AMBIENTAL          00015855            109000158559             I02020118000001585500015855            06011800000000257633412897715000000000000000000000000000000000000000000000000000000000000000000000000000000000000000000000000000000850000000000000         00000000000000000000000ESTRELA DO MAR LANCHES CASA DE                                        000159
10205539814000112041300648601        CLEAN AMBIENTAL          00015856            109000158567             I02020118000001585600015856            06011800000000215533412897715000000000000000000000000000000000000000000000000000000000000000000000000000000000000000000000000000000710000000000000         00000000000000000000000AUREA APARECIDA BAIAO VARGAS 0                                        000160
10205539814000112041300648601        CLEAN AMBIENTAL          00015857            109000158575             I02020118000001585700015857            06011800000000146353412897715000000000000000000000000000000000000000000000000000000000000000000000000000000000000000000000000000000480000000000000         00000000000000000000000AQUILA COMERCIO DE PRODUTOS AL                                        000161
10205539814000112041300648601        CLEAN AMBIENTAL          00015858            109000158583             I02020118000001585800015858            06011800000003246373412897715000000000000000000000000000000000000000000000000000000000000000000000000000000000000000000000000000000010000000000000         00000000000000000000000MECKONG BAR LTDA EPP                                                  000162
10205539814000112041300648601        CLEAN AMBIENTAL          00015859            109000158591             I02020118000001585900015859            06011800000000573423412897715000000000000000000000000000000000000000000000000000000000000000000000000000000000000000000000000000001890000000000000         00000000000000000000000MECKONG BAR LTDA EPP                                                  000163
10205539814000112041300648601        CLEAN AMBIENTAL          00015860            109000158609             I02020118000001586000015860            06011800000000451323412897715000000000000000000000000000000000000000000000000000000000000000000000000000000000000000000000000000001490000000000000         00000000000000000000000MERCADO OURO MARKET DE CAMPO G                                        000164
10205539814000112041300648601        CLEAN AMBIENTAL          00015861            109000158617             I02020118000001586100015861            06011800000000281323412897715000000000000000000000000000000000000000000000000000000000000000000000000000000000000000000000000000000930000000000000         00000000000000000000000INSTITUTO GUANABARA LIMITADA                                          000165
10205539814000112041300648601        CLEAN AMBIENTAL          00015862            109000158625             I02020118000001586200015862            06011800000000468613412897715000000000000000000000000000000000000000000000000000000000000000000000000000000000000000000000000000001540000000000000         00000000000000000000000IPANEMA INTERTUR SERVICOS E LA                                        000166
10205539814000112041300648601        CLEAN AMBIENTAL          00015863            109000158633             I02020118000001586300015863            11011800000000210263412897715000000000000000000000000000000000000000000000000000000000000000000000000000000000000000000000000000000690000000000000         00000000000000000000000FAMILIA MARTINS DE CAMPO GRAND                                        000167
10205539814000112041300648601        CLEAN AMBIENTAL          00015864            109000158641             I02020118000001586400015864            11011800000000141843412897715000000000000000000000000000000000000000000000000000000000000000000000000000000000000000000000000000000470000000000000         00000000000000000000000ISAIAS SANTOS GUIMARAES                                               000168
10205539814000112041300648601        CLEAN AMBIENTAL          00015865            109000158658             I02020118000001586500015865            06011800000000426473412897715000000000000000000000000000000000000000000000000000000000000000000000000000000000000000000000000000001410000000000000         00000000000000000000000RESTAURANTE E PIZZARIA THAILAN                                        000169
10205539814000112041300648601        CLEAN AMBIENTAL          00015866            109000158666             I02020118000001586600015866            06011800000000268563412897715000000000000000000000000000000000000000000000000000000000000000000000000000000000000000000000000000000880000000000000         00000000000000000000000ACTIVA MEIER ACADEMIA DE GINAS                                        000170
10205539814000112041300648601        CLEAN AMBIENTAL          00015867            109000158674             I02020118000001586700015867            06011800000000215323412897715000000000000000000000000000000000000000000000000000000000000000000000000000000000000000000000000000000710000000000000         00000000000000000000000XAVECON COMERCIO DE LATICINIOS                                        000171
10205539814000112041300648601        CLEAN AMBIENTAL          00015868            109000158682             I02020118000001586800015868            11011800000000162893412897715000000000000000000000000000000000000000000000000000000000000000000000000000000000000000000000000000000530000000000000         00000000000000000000000CAFE E BAR CANTINHO DO CEU LTD                                        000172
10205539814000112041300648601        CLEAN AMBIENTAL          00015869            109000158690             I02020118000001586900015869            06011800000000196583412897715000000000000000000000000000000000000000000000000000000000000000000000000000000000000000000000000000000650000000000000         00000000000000000000000CENTRO DE FORMACAO PROFISSIONA                                        000173
10205539814000112041300648601        PADRAO AMBIENTAL COLETA E00000004            109000000041             I06020118000000000400000004            02011800000000057633419373215000000000016600000000000000000000000000000000000000000000000000000000000000000000000000559700000000000000000000000000   02011800000000000000000000000ARIANE GONCALVES ESTEVES                                            CP000174
10205539814000112041300648601        PADRAO AMBIENTAL COLETA E00000008            109000000082             I06020118000000000800000008            02011800000000147043414096415000000000016600000000000000000000000000000000000000000000000000000000000000000000000001453800000000000000000000000000   02011800000000000000000000000CLINICA ODONTOLOGICA ODONTOLIV                                      CP000175
10205539814000112041300648601        PADRAO AMBIENTAL COLETA E00000012            109000000124             I06020118000000001200000012            02011800000000140943410541315000000000016600000000000000000000000000000000000000000000000000000000000000000000000001392800000000000000000000000000   02011800000000000000000000000ANA PAULA HIGA                                                      CP000176
10205539814000112041300648601        PADRAO AMBIENTAL COLETA E00000019            109000000199             I06020118000000001900000019            02011800000000084211041327615000000000016600000000000000000000000000000000000000000000000000000000000000000000000000825500000000000000000000000000   02011800000000000000000000000SAUDE ORAL DE NITEROI                                               B3000177
10205539814000112041300648601        PADRAO AMBIENTAL COLETA E00000026            109000000264             I06020118000000002600000026            02011800000000125003418586015000000000016600000000000000000000000000000000000000000000000000000000000000000000000001233400000000000000000000000000   02011800000000000000000000000FERNANDO CARLOS RAMOS                                               Q0000178
10205539814000112041300648601        PADRAO AMBIENTAL COLETA E00000029            109000000298             I06020118000000002900000029            02011800000000078680331640215000000000016600000000000000000000000000000000000000000000000000000000000000000000000000770200000000000000000000000000   02011800000000000000000000000PEREIRA CABELEIREIROS LTDA ME                                       B1000179
10205539814000112041300648601        PADRAO AMBIENTAL COLETA E00000030            109000000306             I06020118000000003000000030            02011800000000078680331640215000000000016600000000000000000000000000000000000000000000000000000000000000000000000000770200000000000000000000000000   02011800000000000000000000000GIVA\'S CABELEIREIROS LTDA ME                                       B1000180
10205539814000112041300648601        PADRAO AMBIENTAL COLETA E00000035            109000000355             I06020118000000003500000035            02011800000000061143417032615000000000016600000000000000000000000000000000000000000000000000000000000000000000000000594800000000000000000000000000   02011800000000000000000000000MARIA EMILIA PEREIRA NOVOTNY                                        CP000181
10205539814000112041300648601        PADRAO AMBIENTAL COLETA E00000036            109000000363             I06020118000000003600000036            02011800000000174163417157115000000000016600000000000000000000000000000000000000000000000000000000000000000000000001725000000000000000000000000000   02011800000000000000000000000CLASSY MED  COMERCIO DE MATERI                                      CK000182
10205539814000112041300648601        PADRAO AMBIENTAL COLETA E00000044            109000000447             I06020118000000004400000044            02011800000000105002376734815000000000016600000000000000000000000000000000000000000000000000000000000000000000000001033400000000000000000000000000   02011800000000000000000000000DROGARIA PALACE LTDA - ME                                           B3000183
10205539814000112041300648601        PADRAO AMBIENTAL COLETA E00000060            109000000603             I06020118000000006000000060            03011800000000099113413069215000000000016600000000000000000000000000000000000000000000000000000000000000000000000000974500000000000000000000000000   02011800000000000000000000000CAROLINA COSTA PRATA                                                CP000184
10205539814000112041300648601        PADRAO AMBIENTAL COLETA E00000061            109000000611             I06020118000000006100000061            03011800000000146602370831815000000000016600000000000000000000000000000000000000000000000000000000000000000000000001449400000000000000000000000000   02011800000000000000000000000ODONTOCLINICA DA PRACA SECA S/                                      B3000185
10205539814000112041300648601        PADRAO AMBIENTAL COLETA E00000074            109000000744             I06020118000000007400000074            03011800000000040963413069215000000000016600000000000000000000000000000000000000000000000000000000000000000000000000393000000000000000000000000000   02011800000000000000000000000CENTRO ODONTOLOGICO MG                                              CP000186
10205539814000112041300648601        PADRAO AMBIENTAL COLETA E00000081            109000000819             I06020118000000008100000081            05011800000000165340010598315000000000000000000000000000000000000000000000000000000000000000000000000000000000000001653400000000000000000000000000   02011800000000000000000000000CLINICA DERMATOLOGICA SAUDE DA                                      B3000187
10205539814000112041300648601        PADRAO AMBIENTAL COLETA E00000083            109000000835             I06020118000000008300000083            05011800000000031581043146815000000000016600000000000000000000000000000000000000000000000000000000000000000000000000299200000000000000000000000000   02011800000000000000000000000FARMACIA JEOVA NISSI DE DEL CA                                      B5000188
10205539814000112041300648601                                 00000134            109000001346             I06020118          00000134            000000000000000808303342135  000000000016600000000000000000000000000000000000000000000000000000000000000000000000000791700000000000000000000000000   02011800000000000000000000000                                                                    B3000189
10205539814000112041300648601                                 00000158            109000001585             I06020118          00000158            000000000000000365834156317  000000000016600000000000000000000000000000000000000000000000000000000000000000000000000349200000000000000000000000000   02011800000000000000000000000                                                                    CP000190
10205539814000112041300648601                                 00000163            109000001635             I06020118          00000163            000000000000000315810441483  000000000016600000000000000000000000000000000000000000000000000000000000000000000000000299200000000000000000000000000   02011800000000000000000000000                                                                    B5000191
10205539814000112041300648601        CLEAN AMBIENTAL          00006400            109000064005             I06020118000000640000006400            28121700000000126323410023215000000000016600000000000000000000000000000000000000000000000000000000000000000000000001246600000000000000000000000000   02011800000000000000000000000PARANAPUA 304 COMERCIO DE FERR                                      CP000192
10205539814000112041300648601        CLEAN AMBIENTAL          00007877            109000078773             I06020118000000787700007877            04111700000000338472376870015000000000000000000000000000000000000000000000000000000000000000000000000000000000000003987900000000060320000000000000   02011800000000000000000000000HORTIFRUTI MEGA FRUTI DE CAMPO                                      B3000193
10205539814000112041300648601        CLEAN AMBIENTAL          00008384            109000083849             I06020118000000838400008384            02011800000000198950331681615000000000016600000000000000000000000000000000000000000000000000000000000000000000000001972900000000000000000000000000   02011800000000000000000000000ARTE FOOD RESTAURANTE LTDA                                          B2000194
10205539814000112041300648601        CLEAN AMBIENTAL          00008774            109000087741             I06020118000000877400008774            16111700000000333673410571015000000000016600000000000000000000000000000000000000000000000000000000000000000000000003320100000000000000000000000000   02011800000000000000000000000BAR TIO PATINHAS LTDA - EPP                                         CP000195
10205539814000112041300648601        CLEAN AMBIENTAL          00009073            109000090737             I06020118000000907300009073            17111700000000640131040211315000000000016600000000000000000000000000000000000000000000000000000000000000000000000007355300000000097060000000000000   02011800000000000000000000000DIONISIUS DELICATESSEN LTDA                                         B3000196
10205539814000112041300648601        CLEAN AMBIENTAL          00009472            109000094721             I06020118000000947200009472            05011800000000421052371075115000000000016600000000000000000000000000000000000000000000000000000000000000000000000004193900000000000000000000000000   02011800000000000000000000000IGREJA EVANGELICA BOLA DE NEVE                                      B1000197
10205539814000112041300648601        CLEAN AMBIENTAL          00009492            109000094929             I06020118000000949200009492            29121700000000252632370469715000000000016600000000000000000000000000000000000000000000000000000000000000000000000002509700000000000000000000000000   02011800000000000000000000000CAFE RESTAURANTE E BAR RAINHA                                       B1000198
10205539814000112041300648601        CLEAN AMBIENTAL          00009720            109000097203             I06020118000000972000009720            29121700000000427970011251815000000000016600000000000000000000000000000000000000000000000000000000000000000000000004263100000000000000000000000000   02011800000000000000000000000GOLDEX BAR E RESTAURANTE LTDA                                       B2000199
10205539814000112041300648601        CLEAN AMBIENTAL          00010355            109000103555             I06020118000001035500010355            22111700000000199440334360415000000000016600000000000000000000000000000000000000000000000000000000000000000000000001977800000000000000000000000000   02011800000000000000000000000COMIDA E PRAZER RESTAURANTE LT                                      B2000200
10205539814000112041300648601        CLEAN AMBIENTAL          00010503            109000105030             I06020118000001050300010503            29121700000000683681044087315000000000016600000000000000000000000000000000000000000000000000000000000000000000000006820200000000000000000000000000   02011800000000000000000000000MERCEARIA J. J. DE VASCONCELOS                                      B5000201
10205539814000112041300648601                                 00010560            109000105600             I06020118          00010560            000000000000004541023765573  000000000016600000000000000000000000000000000000000000000000000000000000000000000000004524400000000000000000000000000   02011800000000000000000000000                                                                    B3000202
10205539814000112041300648601        CLEAN AMBIENTAL          00011003            109000110030             I06020118000001100300011003            08121700000000565942370887015000000000016600000000000000000000000000000000000000000000000000000000000000000000000006035000000000039220000000000000   02011800000000000000000000000SORVETERIA GALO D ORO LTDA                                          B2000203
10205539814000112041300648601        CLEAN AMBIENTAL          00011189            109000111897             I06020118000001118900011189            02121700000000485942372539515000000000016600000000000000000000000000000000000000000000000000000000000000000000000005259700000000041690000000000000   02011800000000000000000000000LEUZINGER & ELARRAT INSTITUTO                                       B3000204
10205539814000112041300648601        CLEAN AMBIENTAL          00011562            109000115625             I06020118000001156200011562            04121700000000399112376870015000000000016600000000000000000000000000000000000000000000000000000000000000000000000004290600000000031610000000000000   02011800000000000000000000000HORTIFRUTI MEGA FRUTI DE CAMPO                                      B3000205
10205539814000112041300648601        CLEAN AMBIENTAL          00012047            109000120476             I06020118000001204700012047            02011800000000176843410310315000000000016600000000000000000000000000000000000000000000000000000000000000000000000001751800000000000000000000000000   02011800000000000000000000000ARTE FOOD RESTAURANTE LTDA                                          CP000206
10205539814000112041300648601        CLEAN AMBIENTAL          00012189            109000121896             I06020118000001218900012189            02011800000002515592370213915000000000016600000000000000000000000000000000000000000000000000000000000000000000000025139300000000000000000000000000   02011800000000000000000000000VANSA HOTELARIA LTDA                                                B3000207
10205539814000112041300648601        CLEAN AMBIENTAL          00012444            109000124445             I06020118000001244400012444            10121700000000257630334466915000000000016600000000000000000000000000000000000000000000000000000000000000500000000002509700000000000000000000000000   02011800000000000000000000000MONTEZA HOTELARIA E TURISMO LT                                      B3000208
10205539814000112041300648601        CLEAN AMBIENTAL          00012507            109000125079             I06020118000001250700012507            11121700000000454232372013115000000000016600000000000000000000000000000000000000000000000000000000000000000000000004855500000000032980000000000000   02011800000000000000000000000BOTEQUIM ESTACIO DE SA LTDA -                                       B2000209
10205539814000112041300648601        CLEAN AMBIENTAL          00012523            109000125236             I06020118000001252300012523            30121700000001120327450001815000000000016600000000000000000000000000000000000000000000000000000000000000000000000011186600000000000000000000000000   02011800000000000000000000000ADIDAS DO BRASIL LTDA                                               B7000210
10205539814000112041300648601        CLEAN AMBIENTAL          00012694            109000126945             I06020118000001269400012694            11121700000001198683416541715000000000016600000000000000000000000000000000000000000000000000000000000000000000000012841400000000087120000000000000   02011800000000000000000000000PANIFICACAO CONFEITARIA E LANC                                      CK000211
10205539814000112041300648601        CLEAN AMBIENTAL          00012700            109000127000             I06020118000001270000012700            29121700000000383951040217015000000000016600000000000000000000000000000000000000000000000000000000000000000000000003822900000000000000000000000000   02011800000000000000000000000CAFE E BAR ALASKA LTDA ME                                           B5000212
10205539814000112041300648601        CLEAN AMBIENTAL          00012826            109000128263             I06020118000001282600012826            17121700000000530470014812415000000000016600000000000000000000000000000000000000000000000000000000000000000000000005568200000000028010000000000000   02011800000000000000000000000ITAJUBA HOTEL LTDA                                                  B1000213
10205539814000112041300648601        CLEAN AMBIENTAL          00012831            109000128313             I06020118000001283100012831            29121700000000445600013519615000000000016600000000000000000000000000000000000000000000000000000000000000000000000004439400000000000000000000000000   02011800000000000000000000000JAR RESTAURANTE GOURMET LTDA -                                      B6000214
10205539814000112041300648601        CLEAN AMBIENTAL          00012869            109000128693             I06020118000001286900012869            29121700000000685372370447315000000000016600000000000000000000000000000000000000000000000000000000000000000000000006837100000000000000000000000000   02011800000000000000000000000CAFE E BAR ROQUE LTDA                                               B3000215
10205539814000112041300648601        CLEAN AMBIENTAL          00012890            109000128909             I06020118000001289000012890            17121700000000278681040573615000000000016600000000000000000000000000000000000000000000000000000000000000000000000002880600000000011040000000000000   02011800000000000000000000000FRIOLANDIA BAR LTDA                                                 B5000216
10205539814000112041300648601        CLEAN AMBIENTAL          00012969            109000129691             I06020118000001296900012969            17121700000000392531040573615000000000016600000000000000000000000000000000000000000000000000000000000000000000000004064100000000015540000000000000   02011800000000000000000000000CAFE BACIL DO LEME LTDA                                             B5000217
10205539814000112041300648601        CLEAN AMBIENTAL          00013085            109000130855             I06020118000001308500013085            13121700000000196583418113315000000000016600000000000000000000000000000000000000000000000000000000000000000000000002079200000000013000000000000000   02011800000000000000000000000ALBECA INSTITUTO DE DEPILACAO                                       CP000218
10205539814000112041300648601        CLEAN AMBIENTAL          00013125            109000131259             I06020118000001312500013125            22121700000000167080333458715000000000016600000000000000000000000000000000000000000000000000000000000000000000000001714900000000006070000000000000   02011800000000000000000000000IVSON COMERCIO DE PRODUTOS DE                                       B3000219
10205539814000112041300648601        CLEAN AMBIENTAL          00013294            109000132943             I06020118000001329400013294            14121700000000200000010265915000000000016600000000000000000000000000000000000000000000000000000000000000000000000002108800000000012540000000000000   02011800000000000000000000000REST CRISTO RESTAURANTE LTDA -                                      B3000220
10205539814000112041300648601        CLEAN AMBIENTAL          00013298            109000132984             I06020118000001329800013298            30121700000000136843418392315000000000016600000000000000000000000000000000000000000000000000000000000000000000000001351800000000000000000000000000   02011800000000000000000000000MOVE ALIMENTOS SAUDAVEIS LTDA                                       CK000221
10205539814000112041300648601        CLEAN AMBIENTAL          00013425            109000134253             I06020118000001342500013425            30121700000000295312373369615000000000016600000000000000000000000000000000000000000000000000000000000000000000000002936500000000000000000000000000   02011800000000000000000000000NOVA GERACAO COMESTIVEIS LTDA                                       B7000222
10205539814000112041300648601        CLEAN AMBIENTAL          00013436            109000134360             I06020118000001343600013436            15121700000000400542373370415000000000016600000000000000000000000000000000000000000000000000000000000000000000000003988800000000000000000000000000   02011800000000000000000000000LITTLE BOSS COMERCIO DE ALIMEN                                      B7000223
10205539814000112041300648601        CLEAN AMBIENTAL          00013544            109000135441             I06020118000001354400013544            29121700000000449920011251815000000000016600000000000000000000000000000000000000000000000000000000000000000000000004482600000000000000000000000000   02011800000000000000000000000GOLDEX BAR E RESTAURANTE LTDA                                       B2000224
10205539814000112041300648601        CLEAN AMBIENTAL          00013659            109000136597             I06020118000001365900013659            21121700000000323423411672515000000000016600000000000000000000000000000000000000000000000000000000000000000000000003346000000000012840000000000000   02011800000000000000000000000STAMBUL IPANEMA BAR E RESTAURA                                      CP000225
10205539814000112041300648601        CLEAN AMBIENTAL          00013715            109000137157             I06020118000001371500013715            17121700000000259743410406915000000000016600000000000000000000000000000000000000000000000000000000000000000000000002716800000000013600000000000000   02011800000000000000000000000BAR ESCRITORIO DA ESQUINA LTDA                                      CP000226
10205539814000112041300648601        CLEAN AMBIENTAL          00013834            109000138346             I06020118000001383400013834            18121700000000148160332286315000000000016600000000000000000000000000000000000000000000000000000000000000000000000001465000000000000000000000000000   02011800000000000000000000000TEXAS BURGUER STEAK E CHOPERIA                                      B2000227
10205539814000112041300648601        CLEAN AMBIENTAL          00013960            109000139609             I06020118000001396000013960            29121700000000472370333262315000000000016600000000000000000000000000000000000000000000000000000000000000000000000004707100000000000000000000000000   02011800000000000000000000000RESTAURANTE,PADARIA E CONFEITA                                      B1000228
10205539814000112041300648601        CLEAN AMBIENTAL          00013961            109000139617             I06020118000001396100013961            19121700000000150260333907315000000000016600000000000000000000000000000000000000000000000000000000000000000000000001555400000000006940000000000000   02011800000000000000000000000EPM ESPACO DE EDUCACAO LTDA -                                       B3000229
10205539814000112041300648601        CLEAN AMBIENTAL          00014089            109000140896             I06020118000001408900014089            20121700000000110260333262315000000000016600000000000000000000000000000000000000000000000000000000000000000000000001133300000000004730000000000000   02011800000000000000000000000COLEGIO FRANCISCO DE ASSIS LTD                                      B1000230
10205539814000112041300648601        CLEAN AMBIENTAL          00014104            109000141043             I06020118000001410400014104            21121700000000454243419087815000000000016600000000000000000000000000000000000000000000000000000000000000000000000004705800000000018000000000000000   02011800000000000000000000000RESTAURANTE E BAR MARESTRELA L                                      CP000231
10205539814000112041300648601        CLEAN AMBIENTAL          00014169            109000141696             I06020118000001416900014169            21121700000000126322373262315000000000016600000000000000000000000000000000000000000000000000000000000000000000000001296600000000005000000000000000   02011800000000000000000000000TEMPERO DA CICI - BAR E LANCHO                                      B3000232
10205539814000112041300648601        CLEAN AMBIENTAL          00014181            109000141811             I06020118000001418100014181            01011800000000183951043111215000000000016600000000000000000000000000000000000000000000000000000000000000000000000001822900000000000000000000000000   02011800000000000000000000000NEI DE OLIVEIRA 37525069700                                         B5000233
10205539814000112041300648601        CLEAN AMBIENTAL          00014280            109000142801             I06020118000001428000014280            22121700000000389051040204815000000000016600000000000000000000000000000000000000000000000000000000000000000000000004014700000000014080000000000000   02011800000000000000000000000SCORPIONS VALQUEIRE BAR LTDA -                                      B5000234
10205539814000112041300648601        CLEAN AMBIENTAL          00014289            109000142892             I06020118000001428900014289            22121700000000210261044415615000000000000000000000000000000000000000000000000000000000000000000000000000000000000002178900000000007630000000000000   02011800000000000000000000000PEIXARIA J B DE BANGU LTDA - M                                      B5000235
10205539814000112041300648601        CLEAN AMBIENTAL          00014294            109000142942             I06020118000001429400014294            30121700000000236003413006415000000000016600000000000000000000000000000000000000000000000000000000000000000000000002343400000000000000000000000000   02011800000000000000000000000MERCATO EXPRESS HOLDING DE PAR                                      CK000236
10205539814000112041300648601        CLEAN AMBIENTAL          00014315            109000143155             I06020118000001431500014315            27121700000000426472371852315000000000016600000000000000000000000000000000000000000000000000000000000000000000000004332700000000008460000000000000   02011800000000000000000000000DOCTOR LEO CLINIC MEDICA LTDA                                       B3000237
10205539814000112041300648601        CLEAN AMBIENTAL          00014318            109000143189             I06020118000001431800014318            22121700000000168422376467515000000000016600000000000000000000000000000000000000000000000000000000000000000000000001700900000000003330000000000000   02011800000000000000000000000CASA DE FESTAS ALGO TAO DOCE 1                                      B3000238
10205539814000112041300648601        CLEAN AMBIENTAL          00014319            109000143197             I06020118000001431900014319            29121700000000265260333906515000000000016600000000000000000000000000000000000000000000000000000000000000000000000002636000000000000000000000000000   02011800000000000000000000000MISTURA CERTA COMERCIO DE BOLO                                      B2000239
10205539814000112041300648601        CLEAN AMBIENTAL          00014364            109000143643             I06020118000001436400014364            05011800000000168213410580115000000000016600000000000000000000000000000000000000000000000000000000000000000000000001665500000000000000000000000000   02011800000000000000000000000RESTAURANTE SOLAR TAMEGA LTDA                                       CP000240
10205539814000112041300648601        CLEAN AMBIENTAL          00014372            109000143726             I06020118000001437200014372            29121700000000405001041026415000000000016600000000000000000000000000000000000000000000000000000000000000000000000004033400000000000000000000000000   02011800000000000000000000000CONFEITARIA PANIFICACAO ELBA L                                      B5000241
10205539814000112041300648601        CLEAN AMBIENTAL          00014432            109000144328             I06020118000001443200014432            02011800000000431581044043615000000000016600000000000000000000000000000000000000000000000000000000000000000000000004299200000000000000000000000000   02011800000000000000000000000JARDIM OCEANICO SUSHI BAR EIRE                                      B3000242
10205539814000112041300648601        CLEAN AMBIENTAL          00014435            109000144351             I06020118000001443500014435            29121700000000670001044087315000000000016600000000000000000000000000000000000000000000000000000000000000000000000006683400000000000000000000000000   02011800000000000000000000000MERCEARIA J. J. DE VASCONCELOS                                      B5000243
10205539814000112041300648601        CLEAN AMBIENTAL          00014453            109000144534             I06020118000001445300014453            28121700000000141840333016315000000000016600000000000000000000000000000000000000000000000000000000000000000000000001425300000000002350000000000000   02011800000000000000000000000KI-BOLINHO ALIMENTOS LTDA                                           B3000244
10205539814000112041300648601        CLEAN AMBIENTAL          00014458            109000144583             I06020118000001445800014458            29121700000001184212370551215000000000016600000000000000000000000000000000000000000000000000000000000000000000000011825500000000000000000000000000   02011800000000000000000000000PAP ACORDA BAR RESTAURANTE E C                                      B3000245
10205539814000112041300648601        CLEAN AMBIENTAL          00014499            109000144997             I06020118000001449900014499            29121700000000254212373369615000000000016600000000000000000000000000000000000000000000000000000000000000000000000002525500000000000000000000000000   02011800000000000000000000000NOVA GERACAO COMESTIVEIS LTDA                                       B7000246
10205539814000112041300648601        CLEAN AMBIENTAL          00014509            109000145093             I06020118000001450900014509            24121700000000250000010597515000000000016600000000000000000000000000000000000000000000000000000000000000000000000002516400000000003300000000000000   02011800000000000000000000000FERNATO LANCHONETE LTDA - ME                                        B3000247
10205539814000112041300648601        CLEAN AMBIENTAL          00014518            109000145184             I06020118000001451800014518            29121700000000369740330057015000000000016600000000000000000000000000000000000000000000000000000000000000000000000003680800000000000000000000000000   02011800000000000000000000000CONDOMINIO DO EDIFICIO OTAVIAN                                      B7000248
