02RETORNO01COBRANCA       041300648601        CLEAN AMB SERV COL TRANSP LTDA341BANCO ITAU S.A.03111701600BPI01783031117                                                                                                                                                                                                                                                                                   000001
10205539814000112041300648601        CLEAN AMBIENTAL          00002216            109000022169             I04031117000000221600002216            06111700000001291003412897715000000000000000000000000000000000000000000000000000000000000000000000000000000000000000000000000000000000000000000000         00000000000000000000000AZUMI RESTAURANTE JAPONES LTDA                                        000002
10205539814000112041300648601        CLEAN AMBIENTAL          00003448            109000034487             I02031117000000344800003448            10111700000000150263412897715000000000000000000000000000000000000000000000000000000000000000000000000000000000000000000000000000000500000000000000         00000000000000000000000TABERNA DA VILA BAR E RESTAURA                                        000003
10205539814000112041300648601        CLEAN AMBIENTAL          00003522            109000035229             I04031117000000352200003522            06111700000000189393412897715000000000000000000000000000000000000000000000000000000000000000000000000000000000000000000000000000000000000000000000         00000000000000000000000LANCHONETE ROSA DO ADRO LTDA -                                        000004
10205539814000112041300648601        CLEAN AMBIENTAL          00003681            109000036813             I04031117000000368100003681            03111700000000026583412897715000000000000000000000000000000000000000000000000000000000000000000000000000000000000000000000000000000000000000000000         00000000000000000000000BAR E RESTAURANTE BAIXO GAGO L                                        000005
10205539814000112041300648601        CLEAN AMBIENTAL          00004229            109000042290             I04031117000000422900004229            06111700000000788203412897715000000000000000000000000000000000000000000000000000000000000000000000000000000000000000000000000000000000000000000000         00000000000000000000000VIEIRA SOUTO RESTAURANTE LTDA                                         000006
10205539814000112041300648601        CLEAN AMBIENTAL          00004275            109000042753             I04031117000000427500004275            10111700000000468793412897715000000000000000000000000000000000000000000000000000000000000000000000000000000000000000000000000000000000000000000000         00000000000000000000000JAR RESTAURANTE GOURMET LTDA -                                        000007
10205539814000112041300648601        CLEAN AMBIENTAL          00004377            109000043777             I04031117000000437700004377            03111700000000410803412897715000000000000000000000000000000000000000000000000000000000000000000000000000000000000000000000000000000000000000000000         00000000000000000000000METRAL EMPRESA DE TRANSPORTES                                         000008
10205539814000112041300648601        CLEAN AMBIENTAL          00004383            109000043835             I04031117000000438300004383            01111700000001366013412897715000000000000000000000000000000000000000000000000000000000000000000000000000000000000000000000000000000000000000000000         00000000000000000000000BANCO BRADESCO S/A                                                    000009
10205539814000112041300648601        CLEAN AMBIENTAL          00004837            109000048370             I04031117000000483700004837            06111700000000292373412897715000000000000000000000000000000000000000000000000000000000000000000000000000000000000000000000000000000000000000000000         00000000000000000000000O MELHOR DE MINAS ALIMENTOS LT                                        000010
10205539814000112041300648601        CLEAN AMBIENTAL          00005172            109000051721             I04031117000000517200005172            03111700000000464213412897715000000000000000000000000000000000000000000000000000000000000000000000000000000000000000000000000000000000000000000000         00000000000000000000000ENTRE TRILHOS LANCHONETE LTDA                                         000011
10205539814000112041300648601        CLEAN AMBIENTAL          00005313            109000053131             I04031117000000531300005313            03111700000000383163412897715000000000000000000000000000000000000000000000000000000000000000000000000000000000000000000000000000000000000000000000         00000000000000000000000BAR COLINDA LTDA - ME                                                 000012
10205539814000112041300648601        CLEAN AMBIENTAL          00005734            109000057348             I04031117000000573400005734            03111700000000423673412897715000000000000000000000000000000000000000000000000000000000000000000000000000000000000000000000000000000000000000000000         00000000000000000000000SABOR DO BRASIL LANCHONETE LTD                                        000013
10205539814000112041300648601        CLEAN AMBIENTAL          00005823            109000058239             I04031117000000582300005823            03111700000000536843412897715000000000000000000000000000000000000000000000000000000000000000000000000000000000000000000000000000000000000000000000         00000000000000000000000MASM COPA BAR E DISCOTECA EIRE                                        000014
10205539814000112041300648601        CLEAN AMBIENTAL          00005926            109000059260             I04031117000000592600005926            06111700000001907373412897715000000000000000000000000000000000000000000000000000000000000000000000000000000000000000000000000000000000000000000000         00000000000000000000000CONDOMINIO DO EDIFICIO BOKEL                                          000015
10205539814000112041300648601        CLEAN AMBIENTAL          00006553            109000065531             I04031117000000655300006553            03111700000000239473412897715000000000000000000000000000000000000000000000000000000000000000000000000000000000000000000000000000000000000000000000         00000000000000000000000RESTAURANTE E PIZZARIA LA VIOL                                        000016
10205539814000112041300648601        CLEAN AMBIENTAL          00007800            109000078005             I04031117000000780000007800            03111700000000283793412897715000000000000000000000000000000000000000000000000000000000000005000000000000000000000000000000000000000000000000000000         00000000000000000000000CONEXAO MERCADO LTDA                                                  000017
10205539814000112041300648601        CLEAN AMBIENTAL          00008396            109000083963             I02031117000000839600008396            10111700000002419293412897715000000000000000000000000000000000000000000000000000000000000000000000000000000000000000000000000000000010000000000000         00000000000000000000000EMPREENDIMENTOS HOTELEIROS RIO                                        000018
10205539814000112041300648601        CLEAN AMBIENTAL          00008397            109000083971             I02031117000000839700008397            10111700000000687113412897715000000000000000000000000000000000000000000000000000000000000000000000000000000000000000000000000000002270000000000000         00000000000000000000000HOTEL CASABLANCA COPACABANA LT                                        000019
10205539814000112041300648601        CLEAN AMBIENTAL          00008398            109000083989             I02031117000000839800008398            15111700000000524583412897715000000000000000000000000000000000000000000000000000000000000000000000000000000000000000000000000000001730000000000000         00000000000000000000000ONDE CANTA O SABIA REFEICOES L                                        000020
10205539814000112041300648601        CLEAN AMBIENTAL          00008399            109000083997             I02031117000000839900008399            17111700000000577633412897715000000000000000000000000000000000000000000000000000000000000000000000000000000000000000000000000000001900000000000000         00000000000000000000000GFT3 COMERCIO DE ALIMENTOS LTD                                        000021
10205539814000112041300648601        CLEAN AMBIENTAL          00008400            109000084003             I02031117000000840000008400            17111700000000243313411282315000000000000000000000000000000000000000000000000000000000000000000000000000000000000000000000000000000800000000000000         00000000000000000000000IMPERIO DAS AVES LTDA                                                 000022
10205539814000112041300648601        CLEAN AMBIENTAL          00008401            109000084011             I02031117000000840100008401            17111700000000985253412897715000000000000000000000000000000000000000000000000000000000000000000000000000000000000000000000000000003250000000000000         00000000000000000000000CONDOMINIO DO EDIFICIO VOLUNTA                                        000023
10205539814000112041300648601        CLEAN AMBIENTAL          00008402            109000084029             I02031117000000840200008402            10111700000002069813412897715000000000000000000000000000000000000000000000000000000000000000000000000000000000000000000000000000000010000000000000         00000000000000000000000CONDOMINIO DO EDIFICIO CIDADE                                         000024
10205539814000112041300648601        CLEAN AMBIENTAL          00008403            109000084037             I02031117000000840300008403            10111700000001368683412897715000000000000000000000000000000000000000000000000000000000000000000000000000000000000000000000000000004520000000000000         00000000000000000000000CENTRO DE REUMATOLOGIA E ORTOP                                        000025
10205539814000112041300648601        CLEAN AMBIENTAL          00008405            109000084052             I02031117000000840500008405            15111700000001245083412897715000000000000000000000000000000000000000000000000000000000000000000000000000000000000000000000000000004110000000000000         00000000000000000000000BOTAFOGO APART HOTEL GERIATRIC                                        000026
10205539814000112041300648601        CLEAN AMBIENTAL          00008406            109000084060             I02031117000000840600008406            10111700000000400003412897715000000000000000000000000000000000000000000000000000000000000000000000000000000000000000000000000000001320000000000000         00000000000000000000000SAL E LIMA BAR E RESTAURANTE L                                        000027
10205539814000112041300648601        CLEAN AMBIENTAL          00008408            109000084086             I02031117000000840800008408            10111700000000971583412897715000000000000000000000000000000000000000000000000000000000000000000000000000000000000000000000000000003200000000000000         00000000000000000000000BUFFET LA DEFENSE LTDA - EPP                                          000028
10205539814000112041300648601        CLEAN AMBIENTAL          00008409            109000084094             I02031117000000840900008409            10111700000000971583412897715000000000000000000000000000000000000000000000000000000000000000000000000000000000000000000000000000003200000000000000         00000000000000000000000TIANGUA BAR LTDA - ME                                                 000029
10205539814000112041300648601        CLEAN AMBIENTAL          00008410            109000084102             I02031117000000841000008410            17111700000000568753412897715000000000000000000000000000000000000000000000000000000000000000000000000000000000000000000000000000001870000000000000         00000000000000000000000PADARIA E CONFEITARIA IBERICA                                         000030
10205539814000112041300648601        CLEAN AMBIENTAL          00008411            109000084110             I02031117000000841100008411            10111700000001510023412897715000000000000000000000000000000000000000000000000000000000000000000000000000000000000000000000000000004980000000000000         00000000000000000000000CACTOS DO CATETE BAR LTDA                                             000031
10205539814000112041300648601        CLEAN AMBIENTAL          00008412            109000084128             I02031117000000841200008412            10111700000000298423412897715000000000000000000000000000000000000000000000000000000000000000000000000000000000000000000000000000000980000000000000         00000000000000000000000REDE DO FRANCISCO EIRELI                                              000032
10205539814000112041300648601        CLEAN AMBIENTAL          00008413            109000084136             I02031117000000841300008413            10111700000000300653412897715000000000000000000000000000000000000000000000000000000000000000000000000000000000000000000000000000000990000000000000         00000000000000000000000MATE MARECHAL LANCHES EIRELI M                                        000033
10205539814000112041300648601        CLEAN AMBIENTAL          00008414            109000084144             I02031117000000841400008414            10111700000002520593412897715000000000000000000000000000000000000000000000000000000000000000000000000000000000000000000000000000000010000000000000         00000000000000000000000VANSA HOTELARIA LTDA                                                  000034
10205539814000112041300648601        CLEAN AMBIENTAL          00008415            109000084151             I02031117000000841500008415            10111700000002447113412897715000000000000000000000000000000000000000000000000000000000000000000000000000000000000000000000000000000010000000000000         00000000000000000000000BOTTINO MATERIAIS DE CONSTRUCA                                        000035
10205539814000112041300648601        CLEAN AMBIENTAL          00008416            109000084169             I02031117000000841600008416            10111700000000391443412897715000000000000000000000000000000000000000000000000000000000000000000000000000000000000000000000000000001290000000000000         00000000000000000000000SANTA MARTA COMERCIO DE DOCES                                         000036
10205539814000112041300648601        CLEAN AMBIENTAL          00008417            109000084177             I02031117000000841700008417            10111700000001046823412897715000000000000000000000000000000000000000000000000000000000000000000000000000000000000000000000000000003450000000000000         00000000000000000000000RIO DROG'S DISTRIBUIDORA DE PR                                        000037
10205539814000112041300648601        CLEAN AMBIENTAL          00008418            109000084185             I02031117000000841800008418            10111700000001509803412897715000000000000000000000000000000000000000000000000000000000000000000000000000000000000000000000000000004980000000000000         00000000000000000000000RESTAURANTE BOM VIVER LTDA                                            000038
10205539814000112041300648601        CLEAN AMBIENTAL          00008419            109000084193             I02031117000000841900008419            15111700000000341823412897715000000000000000000000000000000000000000000000000000000000000000000000000000000000000000000000000000001130000000000000         00000000000000000000000LANCHONETE E BAR IV CENTENARIO                                        000039
10205539814000112041300648601        CLEAN AMBIENTAL          00008420            109000084201             I02031117000000842000008420            10111700000001556213412897715000000000000000000000000000000000000000000000000000000000000000000000000000000000000000000000000000000010000000000000         00000000000000000000000ZETTER BOUTIQUE E RESTAURANTE                                         000040
10205539814000112041300648601        CLEAN AMBIENTAL          00008421            109000084219             I02031117000000842100008421            10111700000000271783412897715000000000000000000000000000000000000000000000000000000000000000000000000000000000000000000000000000000890000000000000         00000000000000000000000BANCO BRADESCO S/A                                                    000041
10205539814000112041300648601        CLEAN AMBIENTAL          00008422            109000084227             I02031117000000842200008422            10111700000001220793412897715000000000000000000000000000000000000000000000000000000000000000000000000000000000000000000000000000004030000000000000         00000000000000000000000POSTO DE GASOLINA PEQUENA CRUZ                                        000042
10205539814000112041300648601        CLEAN AMBIENTAL          00008423            109000084235             I02031117000000842300008423            10111700000001764673412897715000000000000000000000000000000000000000000000000000000000000000000000000000000000000000000000000000000010000000000000         00000000000000000000000CHURRASCARIA TIPICOS NA BRAZA                                         000043
10205539814000112041300648601        CLEAN AMBIENTAL          00008424            109000084243             I02031117000000842400008424            10111700000001512373412897715000000000000000000000000000000000000000000000000000000000000000000000000000000000000000000000000000004990000000000000         00000000000000000000000OKLAHOMA LANCHES LTDA                                                 000044
10205539814000112041300648601        CLEAN AMBIENTAL          00008425            109000084250             I02031117000000842500008425            10111700000000943313412897715000000000000000000000000000000000000000000000000000000000000000000000000000000000000000000000000000003110000000000000         00000000000000000000000PADARIA E CONFEITARIA MARIZ E                                         000045
10205539814000112041300648601        CLEAN AMBIENTAL          00008426            109000084268             I02031117000000842600008426            10111700000001461003412897715000000000000000000000000000000000000000000000000000000000000000000000000000000000000000000000000000004820000000000000         00000000000000000000000BARRA MEX RESTAURANTE E BAR LT                                        000046
10205539814000112041300648601        CLEAN AMBIENTAL          00008427            109000084276             I02031117000000842700008427            10111700000000941003412897715000000000000000000000000000000000000000000000000000000000000000000000000000000000000000000000000000003110000000000000         00000000000000000000000RIO MEX RESTAURANTE E BAR LTDA                                        000047
10205539814000112041300648601        CLEAN AMBIENTAL          00008428            109000084284             I02031117000000842800008428            10111700000000654593412897715000000000000000000000000000000000000000000000000000000000000000000000000000000000000000000000000000002160000000000000         00000000000000000000000LDL PIZZARIA E LANCHONETE EIRE                                        000048
10205539814000112041300648601        CLEAN AMBIENTAL          00008429            109000084292             I02031117000000842900008429            10111700000000552043412897715000000000000000000000000000000000000000000000000000000000000000000000000000000000000000000000000000001820000000000000         00000000000000000000000RESTAURANTE ZONA SUL 2008 LTDA                                        000049
10205539814000112041300648601        CLEAN AMBIENTAL          00008430            109000084300             I02031117000000843000008430            10111700000000572793412897715000000000000000000000000000000000000000000000000000000000000000000000000000000000000000000000000000001890000000000000         00000000000000000000000BAR E RESTAURANTE ALEGRIA DOS                                         000050
10205539814000112041300648601        CLEAN AMBIENTAL          00008431            109000084318             I02031117000000843100008431            10111700000000415023412897715000000000000000000000000000000000000000000000000000000000000000000000000000000000000000000000000000001370000000000000         00000000000000000000000A B & C COMERCIO DE ALIMENTOS                                         000051
10205539814000112041300648601        CLEAN AMBIENTAL          00008432            109000084326             I02031117000000843200008432            10111700000000777263412897715000000000000000000000000000000000000000000000000000000000000000000000000000000000000000000000000000002560000000000000         00000000000000000000000VEJA VEICULOS JACAREPAGUA LTDA                                        000052
10205539814000112041300648601        CLEAN AMBIENTAL          00008433            109000084334             I02031117000000843300008433            15111700000000435093412897715000000000000000000000000000000000000000000000000000000000000000000000000000000000000000000000000000001440000000000000         00000000000000000000000CONFEITARIA E BAR CASA CLIPPER                                        000053
10205539814000112041300648601        CLEAN AMBIENTAL          00008434            109000084342             I02031117000000843400008434            10111700000000236583412897715000000000000000000000000000000000000000000000000000000000000000000000000000000000000000000000000000000780000000000000         00000000000000000000000MINI MERCADO UBAPORANGA DE SAO                                        000054
10205539814000112041300648601        CLEAN AMBIENTAL          00008435            109000084359             I02031117000000843500008435            10111700000000405003412897715000000000000000000000000000000000000000000000000000000000000000000000000000000000000000000000000000001340000000000000         00000000000000000000000LARANJEIRAS WAY LANCHONETE LTD                                        000055
10205539814000112041300648601        CLEAN AMBIENTAL          00008436            109000084367             I02031117000000843600008436            10111700000000400003412897715000000000000000000000000000000000000000000000000000000000000000000000000000000000000000000000000000001320000000000000         00000000000000000000000SOMBRA WAY LANCHONETE LTDA                                            000056
10205539814000112041300648601        CLEAN AMBIENTAL          00008437            109000084375             I02031117000000843700008437            10111700000000400003412897715000000000000000000000000000000000000000000000000000000000000000000000000000000000000000000000000000001320000000000000         00000000000000000000000PENHA WAY LANCHONETE LTDA                                             000057
10205539814000112041300648601        CLEAN AMBIENTAL          00008438            109000084383             I02031117000000843800008438            15111700000000273423412897715000000000000000000000000000000000000000000000000000000000000000000000000000000000000000000000000000000900000000000000         00000000000000000000000BRAZINHA DE IPANEMA GALETO LTD                                        000058
10205539814000112041300648601        CLEAN AMBIENTAL          00008439            109000084391             I02031117000000843900008439            10111700000000875603412897715000000000000000000000000000000000000000000000000000000000000000000000000000000000000000000000000000002890000000000000         00000000000000000000000MPE MONTAGENS E PROJETOS ESPEC                                        000059
10205539814000112041300648601        CLEAN AMBIENTAL          00008440            109000084409             I02031117000000844000008440            10111700000000369573412897715000000000000000000000000000000000000000000000000000000000000000000000000000000000000000000000000000001220000000000000         00000000000000000000000RAMOSWAY LANCHONETE LTDA                                              000060
10205539814000112041300648601        CLEAN AMBIENTAL          00008441            109000084417             I02031117000000844100008441            10111700000000369573412897715000000000000000000000000000000000000000000000000000000000000000000000000000000000000000000000000000001220000000000000         00000000000000000000000GLORIA WAY LANCHONETE LTDA                                            000061
10205539814000112041300648601        CLEAN AMBIENTAL          00008442            109000084425             I02031117000000844200008442            10111700000001559213412897715000000000000000000000000000000000000000000000000000000000000000000000000000000000000000000000000000000010000000000000         00000000000000000000000VEJA VEICULOS JACAREPAGUA LTDA                                        000062
10205539814000112041300648601        CLEAN AMBIENTAL          00008443            109000084433             I02031117000000844300008443            10111700000001083143412897715000000000000000000000000000000000000000000000000000000000000000000000000000000000000000000000000000003570000000000000         00000000000000000000000BAR PIGALLE NIGHT CLUB LIMITAD                                        000063
10205539814000112041300648601        CLEAN AMBIENTAL          00008444            109000084441             I02031117000000844400008444            10111700000000263163412897715000000000000000000000000000000000000000000000000000000000000000000000000000000000000000000000000000000870000000000000         00000000000000000000000ALEGRIA DA VILA DA PENHA CONVE                                        000064
10205539814000112041300648601        CLEAN AMBIENTAL          00008445            109000084458             I02031117000000844500008445            10111700000000475343412897715000000000000000000000000000000000000000000000000000000000000000000000000000000000000000000000000000001570000000000000         00000000000000000000000COSTELLO FORNERIA PREMIATA CID                                        000065
10205539814000112041300648601        CLEAN AMBIENTAL          00008446            109000084466             I02031117000000844600008446            10111700000001476583412897715000000000000000000000000000000000000000000000000000000000000000000000000000000000000000000000000000004870000000000000         00000000000000000000000SAWASDEE FM BAR E RESTAURANTE                                         000066
10205539814000112041300648601        CLEAN AMBIENTAL          00008447            109000084474             I02031117000000844700008447            10111700000000320003412897715000000000000000000000000000000000000000000000000000000000000000000000000000000000000000000000000000001060000000000000         00000000000000000000000MERCEARIA EXPRESSO A JATO LTDA                                        000067
10205539814000112041300648601        CLEAN AMBIENTAL          00008448            109000084482             I02031117000000844800008448            10111700000000409213412897715000000000000000000000000000000000000000000000000000000000000000000000000000000000000000000000000000001350000000000000         00000000000000000000000ODIJOTA COMERCIO DE ALIMENTOS                                         000068
10205539814000112041300648601        CLEAN AMBIENTAL          00008449            109000084490             I02031117000000844900008449            10111700000000397763412897715000000000000000000000000000000000000000000000000000000000000000000000000000000000000000000000000000001310000000000000         00000000000000000000000FLVRSF BOTEQUIM LTDA - EPP                                            000069
10205539814000112041300648601        CLEAN AMBIENTAL          00008450            109000084508             I02031117000000845000008450            10111700000000968243412897715000000000000000000000000000000000000000000000000000000000000000000000000000000000000000000000000000003190000000000000         00000000000000000000000JRE 315 RESTAURANTE EIRELI                                            000070
10205539814000112041300648601        CLEAN AMBIENTAL          00008451            109000084516             I02031117000000845100008451            20111700000000271843412897715000000000000000000000000000000000000000000000000000000000000000000000000000000000000000000000000000000890000000000000         00000000000000000000000HORTIFRUTI MERCADO MARECHAL LT                                        000071
10205539814000112041300648601        CLEAN AMBIENTAL          00008452            109000084524             I02031117000000845200008452            10111700000000661843412897715000000000000000000000000000000000000000000000000000000000000000000000000000000000000000000000000000002180000000000000         00000000000000000000000INSTITUTO GUANABARA LIMITADA                                          000072
10205539814000112041300648601        CLEAN AMBIENTAL          00008453            109000084532             I02031117000000845300008453            10111700000000411573412897715000000000000000000000000000000000000000000000000000000000000000000000000000000000000000000000000000001360000000000000         00000000000000000000000MAUA FORMOSA RESTAURANTE LTDA                                         000073
10205539814000112041300648601        CLEAN AMBIENTAL          00008454            109000084540             I02031117000000845400008454            10111700000000304613412897715000000000000000000000000000000000000000000000000000000000000000000000000000000000000000000000000000001000000000000000         00000000000000000000000VISAGIO CONSULTORIA ASSESSORIA                                        000074
10205539814000112041300648601        CLEAN AMBIENTAL          00008455            109000084557             I02031117000000845500008455            10111700000000475343412897715000000000000000000000000000000000000000000000000000000000000000000000000000000000000000000000000000001570000000000000         00000000000000000000000ARENA SPORT BAR E RESTAURANTE                                         000075
10205539814000112041300648601        CLEAN AMBIENTAL          00008456            109000084565             I02031117000000845600008456            10111700000001087633412897715000000000000000000000000000000000000000000000000000000000000000000000000000000000000000000000000000003590000000000000         00000000000000000000000400 JAMBEIRO ACOUGUE BAR E RES                                        000076
10205539814000112041300648601        CLEAN AMBIENTAL          00008457            109000084573             I02031117000000845700008457            10111700000001649633412897715000000000000000000000000000000000000000000000000000000000000000000000000000000000000000000000000000000010000000000000         00000000000000000000000LABORATORIO BRAVET LTDA                                               000077
10205539814000112041300648601        CLEAN AMBIENTAL          00008458            109000084581             I02031117000000845800008458            20111700000000450753410059615000000000000000000000000000000000000000000000000000000000000000000000000000000000000000000000000000001490000000000000         00000000000000000000000BGLP ALIMENTOS LTDA - ME                                              000078
10205539814000112041300648601        CLEAN AMBIENTAL          00008459            109000084599             I02031117000000845900008459            10111700000000247723412897715000000000000000000000000000000000000000000000000000000000000000000000000000000000000000000000000000000820000000000000         00000000000000000000000MENA BARRIL LTDA - ME                                                 000079
10205539814000112041300648601        CLEAN AMBIENTAL          00008460            109000084607             I02031117000000846000008460            10111700000000337213412897715000000000000000000000000000000000000000000000000000000000000000000000000000000000000000000000000000001110000000000000         00000000000000000000000RIACHO FRUT PRODUTOS ALIMENTIC                                        000080
10205539814000112041300648601        CLEAN AMBIENTAL          00008461            109000084615             I02031117000000846100008461            10111700000004164683412897715000000000000000000000000000000000000000000000000000000000000000000000000000000000000000000000000000000010000000000000         00000000000000000000000A1 COMERCIO DE ALIMENTOS E BEB                                        000081
10205539814000112041300648601        CLEAN AMBIENTAL          00008462            109000084623             I02031117000000846200008462            10111700000000328423412897715000000000000000000000000000000000000000000000000000000000000000000000000000000000000000000000000000001080000000000000         00000000000000000000000SUPER PLIN SUCOS E LANCHONETE                                         000082
10205539814000112041300648601        CLEAN AMBIENTAL          00008464            109000084649             I02031117000000846400008464            10111700000000228163412897715000000000000000000000000000000000000000000000000000000000000000000000000000000000000000000000000000000750000000000000         00000000000000000000000RIO PAIVA VIDROS E CRISTAIS LT                                        000083
10205539814000112041300648601        CLEAN AMBIENTAL          00008465            109000084656             I02031117000000846500008465            10111700000000232643412897715000000000000000000000000000000000000000000000000000000000000000000000000000000000000000000000000000000770000000000000         00000000000000000000000BANCO BRADESCO S.A.                                                   000084
10205539814000112041300648601        CLEAN AMBIENTAL          00008466            109000084664             I02031117000000846600008466            10111700000003219983412897715000000000000000000000000000000000000000000000000000000000000000000000000000000000000000000000000000000010000000000000         00000000000000000000000UNIAO DE ENSINO SUPERIOR DO PA                                        000085
10205539814000112041300648601        CLEAN AMBIENTAL          00008467            109000084672             I02031117000000846700008467            15111700000000458433412897715000000000000000000000000000000000000000000000000000000000000000000000000000000000000000000000000000001510000000000000         00000000000000000000000146 CASA VERDE RESTAURANTE LTD                                        000086
10205539814000112041300648601        CLEAN AMBIENTAL          00008468            109000084680             I02031117000000846800008468            10111700000000510263411306015000000000000000000000000000000000000000000000000000000000000000000000000000000000000000000000000000001680000000000000         00000000000000000000000GRAZIE LOJA DE CONVENIENCIAS L                                        000087
10205539814000112041300648601        CLEAN AMBIENTAL          00008469            109000084698             I02031117000000846900008469            10111700000000515093412897715000000000000000000000000000000000000000000000000000000000000000000000000000000000000000000000000000001700000000000000         00000000000000000000000MMD RESTAURANTE E PIZZARIA EIR                                        000088
10205539814000112041300648601        CLEAN AMBIENTAL          00008470            109000084706             I02031117000000847000008470            10111700000000425883412897715000000000000000000000000000000000000000000000000000000000000000000000000000000000000000000000000000001400000000000000         00000000000000000000000ALBUFEIRA FEIRAS E EVENTOS LTD                                        000089
10205539814000112041300648601        CLEAN AMBIENTAL          00008471            109000084714             I02031117000000847100008471            15111700000000263163412897715000000000000000000000000000000000000000000000000000000000000000000000000000000000000000000000000000000870000000000000         00000000000000000000000LANCHONETE PRACA DA TAQUARA LT                                        000090
10205539814000112041300648601        CLEAN AMBIENTAL          00008472            109000084722             I02031117000000847200008472            10111700000000373423412897715000000000000000000000000000000000000000000000000000000000000000000000000000000000000000000000000000001230000000000000         00000000000000000000000HORTIFRUTI SAO MIGUEL ARCANJO                                         000091
10205539814000112041300648601        CLEAN AMBIENTAL          00008473            109000084730             I02031117000000847300008473            10111700000000368423412897715000000000000000000000000000000000000000000000000000000000000000000000000000000000000000000000000000001210000000000000         00000000000000000000000JB COMERCIO ALIMENTICIO EIRELI                                        000092
10205539814000112041300648601        CLEAN AMBIENTAL          00008474            109000084748             I02031117000000847400008474            10111700000000459743412897715000000000000000000000000000000000000000000000000000000000000000000000000000000000000000000000000000001510000000000000         00000000000000000000000BLACKANGUS ALMEIDA E SILVA RES                                        000093
10205539814000112041300648601        CLEAN AMBIENTAL          00008475            109000084755             I02031117000000847500008475            18121700000001312373410059615000000000000000000000000000000000000000000000000000000000000000000000000000000000000000000000000000004330000000000000         00000000000000000000000CDR - CLINICA DE DOENCAS RENAI                                        000094
10205539814000112041300648601        CLEAN AMBIENTAL          00008476            109000084763             I02031117000000847600008476            18121700000001463953410201415000000000000000000000000000000000000000000000000000000000000000000000000000000000000000000000000000004830000000000000         00000000000000000000000CDR - CLINICA DE DOENCAS RENAI                                        000095
10205539814000112041300648601        CLEAN AMBIENTAL          00008477            109000084771             I02031117000000847700008477            20111700000000582123410059615000000000000000000000000000000000000000000000000000000000000000000000000000000000000000000000000000001920000000000000         00000000000000000000000NOVA GERACAO COMESTIVEIS LTDA                                         000096
10205539814000112041300648601        CLEAN AMBIENTAL          00008478            109000084789             I02031117000000847800008478            10111700000000493423412897715000000000000000000000000000000000000000000000000000000000000000000000000000000000000000000000000000001630000000000000         00000000000000000000000ENCONTRO DOS TEMPEROS CAFE BAR                                        000097
10205539814000112041300648601        CLEAN AMBIENTAL          00008479            109000084797             I02031117000000847900008479            10111700000000268053412897715000000000000000000000000000000000000000000000000000000000000000000000000000000000000000000000000000000880000000000000         00000000000000000000000MERCADO NOVO IRAJA LTDA - ME                                          000098
10205539814000112041300648601        CLEAN AMBIENTAL          00008480            109000084805             I02031117000000848000008480            10111700000000110093412897715000000000000000000000000000000000000000000000000000000000000000000000000000000000000000000000000000000360000000000000         00000000000000000000000MONDE CHIC STUDIO COIFFEUR INS                                        000099
10205539814000112041300648601        CLEAN AMBIENTAL          00008481            109000084813             I02031117000000848100008481            10111700000000416583412897715000000000000000000000000000000000000000000000000000000000000000000000000000000000000000000000000000001370000000000000         00000000000000000000000CONDOMINIO DO EDIFICIO ADVANCE                                        000100
10205539814000112041300648601        CLEAN AMBIENTAL          00008482            109000084821             I02031117000000848200008482            10111700000000663163412897715000000000000000000000000000000000000000000000000000000000000000000000000000000000000000000000000000002190000000000000         00000000000000000000000COMISSARIA AEREA RIO DE JANEIR                                        000101
10205539814000112041300648601        CLEAN AMBIENTAL          00008483            109000084839             I02031117000000848300008483            10111700000000663163412897715000000000000000000000000000000000000000000000000000000000000000000000000000000000000000000000000000002190000000000000         00000000000000000000000TANGO FLAMENGO RESTAURANTE LTD                                        000102
10205539814000112041300648601        CLEAN AMBIENTAL          00008484            109000084847             I02031117000000848400008484            10111700000000215463412897715000000000000000000000000000000000000000000000000000000000000000000000000000000000000000000000000000000710000000000000         00000000000000000000000RESTAURANTE A POLONESA - ME                                           000103
10205539814000112041300648601        CLEAN AMBIENTAL          00008485            109000084854             I02031117000000848500008485            10111700000000220793412897715000000000000000000000000000000000000000000000000000000000000000000000000000000000000000000000000000000730000000000000         00000000000000000000000PADARIA E MERCEARIA LARANJINHA                                        000104
10205539814000112041300648601        CLEAN AMBIENTAL          00008486            109000084862             I02031117000000848600008486            20111700000000226053412897715000000000000000000000000000000000000000000000000000000000000000000000000000000000000000000000000000000750000000000000         00000000000000000000000PAO SHOW PADARIA E CONFEITARIA                                        000105
10205539814000112041300648601        CLEAN AMBIENTAL          00008487            109000084870             I02031117000000848700008487            10111700000000336843412897715000000000000000000000000000000000000000000000000000000000000000000000000000000000000000000000000000001110000000000000         00000000000000000000000OS BATUTINHAS ESPACO DE EDUCAC                                        000106
10205539814000112041300648601        CLEAN AMBIENTAL          00008488            109000084888             I02031117000000848800008488            10111700000000483163412897715000000000000000000000000000000000000000000000000000000000000000000000000000000000000000000000000000001590000000000000         00000000000000000000000OS BATUTINHAS ESPACO DE EDUCAC                                        000107
10205539814000112041300648601        CLEAN AMBIENTAL          00008489            109000084896             I02031117000000848900008489            10111700000000268373412897715000000000000000000000000000000000000000000000000000000000000000000000000000000000000000000000000000000880000000000000         00000000000000000000000MATERNAL E JARDIM CACHINHOS DE                                        000108
10205539814000112041300648601        CLEAN AMBIENTAL          00008491            109000084912             I02031117000000849100008491            10111700000000495533412897715000000000000000000000000000000000000000000000000000000000000000000000000000000000000000000000000000001630000000000000         00000000000000000000000DISCK FRUTAS & LEGUMES EIRELI                                         000109
10205539814000112041300648601        CLEAN AMBIENTAL          00008492            109000084920             I02031117000000849200008492            10111700000000237633412897715000000000000000000000000000000000000000000000000000000000000000000000000000000000000000000000000000000780000000000000         00000000000000000000000RESTAURANTE FG KILO DE MAIO LT                                        000110
10205539814000112041300648601        CLEAN AMBIENTAL          00008493            109000084938             I02031117000000849300008493            10111700000000226583412897715000000000000000000000000000000000000000000000000000000000000000000000000000000000000000000000000000000750000000000000         00000000000000000000000NUTRE SAO COM DE PROD INT IMP                                         000111
10205539814000112041300648601        CLEAN AMBIENTAL          00008495            109000084953             I02031117000000849500008495            10111700000000289213412897715000000000000000000000000000000000000000000000000000000000000000000000000000000000000000000000000000000950000000000000         00000000000000000000000BEN HUR LANCHES LTDA M E - ME                                         000112
10205539814000112041300648601        CLEAN AMBIENTAL          00008496            109000084961             I02031117000000849600008496            10111700000000470793412897715000000000000000000000000000000000000000000000000000000000000000000000000000000000000000000000000000001550000000000000         00000000000000000000000XIX DE FEVEREIRO RESTAURANTE L                                        000113
10205539814000112041300648601        CLEAN AMBIENTAL          00008498            109000084987             I02031117000000849800008498            10111700000000224053412897715000000000000000000000000000000000000000000000000000000000000000000000000000000000000000000000000000000740000000000000         00000000000000000000000LANCHONETE ESQUINA DO IGUATEMI                                        000114
10205539814000112041300648601        CLEAN AMBIENTAL          00008500            109000085000             I02031117000000850000008500            10111700000000215533412897715000000000000000000000000000000000000000000000000000000000000000000000000000000000000000000000000000000710000000000000         00000000000000000000000CONDOMINIO DO EDIFICIO COMERCI                                        000115
10205539814000112041300648601        CLEAN AMBIENTAL          00008501            109000085018             I02031117000000850100008501            10111700000000202373410059615000000000000000000000000000000000000000000000000000000000000000000000000000000000000000000000000000000670000000000000         00000000000000000000000SKINA DO PAULINHO BAR E RESTAU                                        000116
10205539814000112041300648601        CLEAN AMBIENTAL          00008502            109000085026             I02031117000000850200008502            10111700000000402263412897715000000000000000000000000000000000000000000000000000000000000000000000000000000000000000000000000000001330000000000000         00000000000000000000000CAFE PORTO MAR LTDA - EPP                                             000117
10205539814000112041300648601        CLEAN AMBIENTAL          00008503            109000085034             I02031117000000850300008503            10111700000000292373412897715000000000000000000000000000000000000000000000000000000000000000000000000000000000000000000000000000000960000000000000         00000000000000000000000CONDOMINIO DO EDFICIO TIJUCA O                                        000118
10205539814000112041300648601        CLEAN AMBIENTAL          00008504            109000085042             I02031117000000850400008504            10111700000000319743412897715000000000000000000000000000000000000000000000000000000000000000000000000000000000000000000000000000001050000000000000         00000000000000000000000DRASI ALIMENTOS LTDA - ME                                             000119
10205539814000112041300648601        CLEAN AMBIENTAL          00008505            109000085059             I02031117000000850500008505            10111700000000747633412897715000000000000000000000000000000000000000000000000000000000000000000000000000000000000000000000000000002470000000000000         00000000000000000000000CONDOMINIO CENTRO COM. COMUNID                                        000120
10205539814000112041300648601        CLEAN AMBIENTAL          00008506            109000085067             I02031117000000850600008506            10111700000000210533412897715000000000000000000000000000000000000000000000000000000000000000000000000000000000000000000000000000000690000000000000         00000000000000000000000CONDOMINIO DO EDIFICIO SANTA M                                        000121
10205539814000112041300648601        CLEAN AMBIENTAL          00008507            109000085075             I02031117000000850700008507            10111700000000114473412897715000000000000000000000000000000000000000000000000000000000000000000000000000000000000000000000000000000380000000000000         00000000000000000000000GE2 BAR E RESTAURANTE LTDA - M                                        000122
10205539814000112041300648601        CLEAN AMBIENTAL          00008508            109000085083             I02031117000000850800008508            10111700000000476583412897715000000000000000000000000000000000000000000000000000000000000000000000000000000000000000000000000000001570000000000000         00000000000000000000000CONDOMINIO DO EDIFICIO ONIX                                           000123
10205539814000112041300648601        CLEAN AMBIENTAL          00008509            109000085091             I02031117000000850900008509            10111700000000110373412897715000000000000000000000000000000000000000000000000000000000000000000000000000000000000000000000000000000360000000000000         00000000000000000000000DAMABIAH 1600 COMERCIO DE ALIM                                        000124
10205539814000112041300648601        CLEAN AMBIENTAL          00008510            109000085109             I02031117000000851000008510            10111700000000223423412897715000000000000000000000000000000000000000000000000000000000000000000000000000000000000000000000000000000740000000000000         00000000000000000000000JC LANCHONETE EIRELI - ME                                             000125
10205539814000112041300648601        CLEAN AMBIENTAL          00008511            109000085117             I02031117000000851100008511            10111700000000223423412897715000000000000000000000000000000000000000000000000000000000000000000000000000000000000000000000000000000740000000000000         00000000000000000000000RESTAURANTE SABOR DE FAMILIA L                                        000126
10205539814000112041300648601        CLEAN AMBIENTAL          00008513            109000085133             I02031117000000851300008513            11111700000001055003412897715000000000000000000000000000000000000000000000000000000000000000000000000000000000000000000000000000003480000000000000         00000000000000000000000AUTO POSTO LOPES CACHAMORRA LT                                        000127
10205539814000112041300648601        CLEAN AMBIENTAL          00008514            109000085141             I02031117000000851400008514            10111700000000210263412897715000000000000000000000000000000000000000000000000000000000000000000000000000000000000000000000000000000690000000000000         00000000000000000000000DELART ESTUDIOS CINEMATOGRAFIC                                        000128
10205539814000112041300648601        CLEAN AMBIENTAL          00008515            109000085158             I02031117000000851500008515            10111700000000164473412897715000000000000000000000000000000000000000000000000000000000000000000000000000000000000000000000000000000540000000000000         00000000000000000000000BLACK BLENDE BURGERS GOUMERT L                                        000129
10205539814000112041300648601        CLEAN AMBIENTAL          00008516            109000085166             I02031117000000851600008516            10111700000000380003412897715000000000000000000000000000000000000000000000000000000000000000000000000000000000000000000000000000001250000000000000         00000000000000000000000CHADY LEBLON COMERCIO DE ALIME                                        000130
10205539814000112041300648601        CLEAN AMBIENTAL          00008517            109000085174             I02031117000000851700008517            10111700000000251323412897715000000000000000000000000000000000000000000000000000000000000000000000000000000000000000000000000000000830000000000000         00000000000000000000000JARDIM ESCOLA ELZA CAMPOS LTDA                                        000131
10205539814000112041300648601        CLEAN AMBIENTAL          00008518            109000085182             I02031117000000851800008518            10111700000000252583412897715000000000000000000000000000000000000000000000000000000000000000000000000000000000000000000000000000000830000000000000         00000000000000000000000550 GRANDAVE LANCHONETE LTDA -                                        000132
10205539814000112041300648601        CLEAN AMBIENTAL          00008519            109000085190             I02031117000000851900008519            10111700000000263163412897715000000000000000000000000000000000000000000000000000000000000000000000000000000000000000000000000000000870000000000000         00000000000000000000000PREMIUM PANIFICACAO LTDA - ME                                         000133
10205539814000112041300648601        CLEAN AMBIENTAL          00008520            109000085208             I02031117000000852000008520            15111700000000415533412897715000000000000000000000000000000000000000000000000000000000000000000000000000000000000000000000000000001370000000000000         00000000000000000000000CONDOMINIO DO EDIFICIO GALERIA                                        000134
10205539814000112041300648601        CLEAN AMBIENTAL          00008521            109000085216             I02031117000000852100008521            10111700000002123953412897715000000000000000000000000000000000000000000000000000000000000000000000000000000000000000000000000000000010000000000000         00000000000000000000000FUNDICAO DE ARTES E PROGRESSO                                         000135
10205539814000112041300648601        CLEAN AMBIENTAL          00008522            109000085224             I02031117000000852200008522            10111700000003372603412897715000000000000000000000000000000000000000000000000000000000000000000000000000000000000000000000000000000010000000000000         00000000000000000000000CINEMA ARTEPLEX LTDA                                                  000136
10205539814000112041300648601        CLEAN AMBIENTAL SERVICOS 27291043            109272910430             I04031117002729104327291043            06111700000000788203412897715000000000000000000000000000000000000000000000000000000000000000000000000000000000000000000000000000000000000000000000         00000000000000000000000VIEIRA SOUTO RESTAURANTE LTDA                                         000137
10205539814000112041300648601        CLEAN AMBIENTAL SERVICOS 28540044            109285400445             I04031117002854004428540044            01111700000000615453412897715000000000000000000000000000000000000000000000000000000000000000000000000000000000000000000000000000000000000000000000         00000000000000000000000BANCO BRADESCO SA                                                     000138
10205539814000112041300648601        CLEAN AMBIENTAL          00000625            109000006253             I06031117000000062500000625            03111700000000450950333063515000000000016600000000000000000000000000000000000000000000000000000000000000000000000004492900000000000000000000000000   03111700000000000000000000000MARIA FACANHA RESTAURANTE E CO                                      B1000139
10205539814000112041300648601                                 00002782            109000027820             I06031117          00002782            000000000000002042234103020  000000000016600000000000000000000000000000000000000000000000000000000000000000000000002025600000000000000000000000000   03111700000000000000000000000                                                                    CP000140
10205539814000112041300648601        CLEAN AMBIENTAL          00003808            109000038082             I06031117000000380800003808            09101700000000341843410302015000000000016600000000000000000000000000000000000000000000000000000000000000000000000003684300000000028250000000000000   03111700000000000000000000000MESTRE SALA ALIMENTACAO LTDA M                                      CP000141
10205539814000112041300648601        CLEAN AMBIENTAL          00003979            109000039791             I06031117000000397900003979            02111700000003479833418738715000000000016600000000000000000000000000000000000000000000000000000000000000000000000034781700000000000000000000000000   03111700000000000000000000000CINEMA ARTEPLEX LTDA                                                CK000142
10205539814000112041300648601        CLEAN AMBIENTAL          00004564            109000045640             I06031117000000456400004564            11101700000000336780334207715000000000016600000000000000000000000000000000000000000000000000000000000000000000000003606800000000025560000000000000   03111700000000000000000000000MARIA ALICE C HOSKEN COMERCIO                                       B3000143
10205539814000112041300648601        CLEAN AMBIENTAL          00004620            109000046200             I06031117000000462000004620            11101700000000302892371400115000000000016600000000000000000000000000000000000000000000000000000000000006884000000002323900000000000000000000000000   03111700000000000000000000000MITRA ARQUIEPISCOPAL DO RIO DE                                      B1000144
10205539814000112041300648601        CLEAN AMBIENTAL          00004649            109000046499             I06031117000000464900004649            11101700000000426052370468915000000000016600000000000000000000000000000000000000000000000000000000000000000000000004243900000000000000000000000000   03111700000000000000000000000CONDOMINIO DO EDIFICIO RESERVA                                      B7000145
10205539814000112041300648601        CLEAN AMBIENTAL          00004722            109000047224             I06031117000000472200004722            12101700000000351513417190215000000000016600000000000000000000000000000000000000000000000000000000000000000000000003753700000000025520000000000000   03111700000000000000000000000ONE DAY CLINICA CIRURGICA LTDA                                      CK000146
10205539814000112041300648601        CLEAN AMBIENTAL          00004855            109000048552             I06031117000000485500004855            03111700000000310430333458715000000000016600000000000000000000000000000000000000000000000000000000000000000000000003087700000000000000000000000000   03111700000000000000000000000IVSON COMERCIO DE PRODUTOS DE                                       B3000147
10205539814000112041300648601                                 00004937            109000049378             I06031117          00004937            000000000000001965834177172  000000000016600000000000000000000000000000000000000000000000000000000000000000000000002072700000000012350000000000000   03111700000000000000000000000                                                                    CP000148
10205539814000112041300648601                                 00005017            109000050178             I06031117          00005017            000000000000004604634180754  000000000016600000000000000000000000000000000000000000000000000000000000000000000000004588000000000000000000000000000   03111700000000000000000000000                                                                    CP000149
10205539814000112041300648601                                 00005064            109000050640             I06031117          00005064            000000000000004786803300570  000000000016600000000000000000000000000000000000000000000000000000000000000000000000004770200000000000000000000000000   03111700000000000000000000000                                                                    B7000150
10205539814000112041300648601        CLEAN AMBIENTAL          00005172            109000051721             I06031117000000517200005172            03111700000000464213410417615000000000016600000000000000000000000000000000000000000000000000000000000000000000000004625500000000000000000000000000   03111700000000000000000000000ENTRE TRILHOS LANCHONETE LTDA                                       CP000151
10205539814000112041300648601        CLEAN AMBIENTAL          00005313            109000053131             I06031117000000531300005313            03111700000000383163410563715000000000016600000000000000000000000000000000000000000000000000000000000000000000000003815000000000000000000000000000   03111700000000000000000000000BAR COLINDA LTDA - ME                                               CP000152
10205539814000112041300648601        CLEAN AMBIENTAL          00005385            109000053859             I06031117000000538500005385            19101700000000608163410387115000000000016600000000000000000000000000000000000000000000000000000000000000000000000006346400000000028140000000000000   03111700000000000000000000000G M SERVICOS DE ALIMENTACAO LT                                      CK000153
10205539814000112041300648601        CLEAN AMBIENTAL          00005495            109000054956             I06031117000000549500005495            20101700000000176193410783115000000000016600000000000000000000000000000000000000000000000000000000000000000000000001826500000000008120000000000000   03111700000000000000000000000RENATO RIBEIRO DA SILVA                                             CP000154
10205539814000112041300648601        CLEAN AMBIENTAL          00005599            109000055995             I06031117000000559900005599            28101700000000331373416180415000000000016600000000000000000000000000000000000000000000000000000000000000000000000003362500000000006540000000000000   03111700000000000000000000000SEGREDO DO SABOR BAR E RESTAUR                                      CP000155
10205539814000112041300648601        CLEAN AMBIENTAL          00005631            109000056316             I06031117000000563100005631            22101700000001948213418905215000000000016600000000000000000000000000000000000000000000000000000000000000000000000019466700000000000120000000000000   03111700000000000000000000000O JARDIM CUSINE BAR, RESTAURAN                                      CK000156
10205539814000112041300648601        CLEAN AMBIENTAL          00005701            109000057017             I06031117000000570100005701            22101700000000389051040204815000000000016600000000000000000000000000000000000000000000000000000000000000000000000004027500000000015360000000000000   03111700000000000000000000000SCORPIONS VALQUEIRE BAR LTDA -                                      B3000157
10205539814000112041300648601        CLEAN AMBIENTAL          00005823            109000058239             I06031117000000582300005823            03111700000000536842372743315000000000016600000000000000000000000000000000000000000000000000000000000000000000000005351800000000000000000000000000   03111700000000000000000000000MASM COPA BAR E DISCOTECA EIRE                                      B3000158
10205539814000112041300648601        CLEAN AMBIENTAL          00005997            109000059971             I06031117000000599700005997            05111700000000560793410409315000000000016600000000000000000000000000000000000000000000000000000000000000000000000005591300000000000000000000000000   03111700000000000000000000000MIRANTE AZUL RESTAURANTE E LAN                                      CP000159
10205539814000112041300648601        CLEAN AMBIENTAL          00006036            109000060367             I06031117000000603600006036            01111700000000094743416009515000000000016600000000000000000000000000000000000000000000000000000000000000000000000000937000000000000620000000000000   03111700000000000000000000000GINASIO GAMA E SOUZA LTDA                                           CP000160
10205539814000112041300648601        CLEAN AMBIENTAL          00006141            109000061415             I06031117000000614100006141            05111700000000141841040221215000000000016600000000000000000000000000000000000000000000000000000000000000000000000001401800000000000000000000000000   03111700000000000000000000000LANCHELITE SALGADOS E SUCOS LT                                      B5000161
10205539814000112041300648601        CLEAN AMBIENTAL          00006168            109000061688             I06031117000000616800006168            02111700000001493423413239115000000000016600000000000000000000000000000000000000000000000000000000000000000000000014917600000000000000000000000000   03111700000000000000000000000EL CHURRASQUITO LTDA                                                CK000162
10205539814000112041300648601        CLEAN AMBIENTAL          00006169            109000061696             I06031117000000616900006169            02111700000001577823413239115000000000016600000000000000000000000000000000000000000000000000000000000000000000000015761600000000000000000000000000   03111700000000000000000000000GALETO CINELANDIA                                                   CK000163
10205539814000112041300648601        CLEAN AMBIENTAL          00006180            109000061803             I06031117000000618000006180            02111700000000332521042270715000000000016600000000000000000000000000000000000000000000000000000000000000000000000003308600000000000000000000000000   03111700000000000000000000000TOQUINHO LANCHES LTDA                                               B1000164
10205539814000112041300648601        CLEAN AMBIENTAL          00006185            109000061852             I06031117000000618500006185            02111700000000378891042912415000000000016600000000000000000000000000000000000000000000000000000000000000000000000003772300000000000000000000000000   03111700000000000000000000000CAFE E BAR DUVIVER LTDA                                             B5000165
10205539814000112041300648601        CLEAN AMBIENTAL          00006189            109000061894             I06031117000000618900006189            03111700000000819493416006115000000000016600000000000000000000000000000000000000000000000000000000000000000000000008178300000000000000000000000000   03111700000000000000000000000DI CALAFIORI GALERIA CAFE & PR                                      Q0000166
10205539814000112041300648601        CLEAN AMBIENTAL          00006200            109000062009             I06031117000000620000006200            27101700000000298363418309715000000000016600000000000000000000000000000000000000000000000000000000000000000000000003035600000000006860000000000000   03111700000000000000000000000BAR E LANCHONETE FARI-RIBEIRO'                                      CP000167
10205539814000112041300648601        CLEAN AMBIENTAL          00006206            109000062066             I06031117000000620600006206            02111700000000826683410563715000000000016600000000000000000000000000000000000000000000000000000000000000000000000008250200000000000000000000000000   03111700000000000000000000000CAFE E BAR JOBI LTDA - EPP                                          CP000168
10205539814000112041300648601        CLEAN AMBIENTAL          00006219            109000062199             I06031117000000621900006219            01111700000000317003410532215000000000016600000000000000000000000000000000000000000000000000000000000000000000000003174400000000002100000000000000   03111700000000000000000000000ONE COMERCIO DE ALIMENTOS E BE                                      CP000169
10205539814000112041300648601        CLEAN AMBIENTAL          00006274            109000062744             I06031117000000627400006274            03111700000001239702373060115000000000016600000000000000000000000000000000000000000000000000000000000000500000000012330400000000000000000000000000   03111700000000000000000000000CONDOMINIO BANGU OFFICES TORRE                                      B3000170
10205539814000112041300648601        CLEAN AMBIENTAL          00006275            109000062751             I06031117000000627500006275            03111700000001234702373060115000000000016600000000000000000000000000000000000000000000000000000000000000000000000012330400000000000000000000000000   03111700000000000000000000000CONDOMINIO BANGU OFFICES TORRE                                      B3000171
10205539814000112041300648601        CLEAN AMBIENTAL          00006301            109000063015             I06031117000000630100006301            01111700000000410363410387115000000000016600000000000000000000000000000000000000000000000000000000000000000000000004114000000000002700000000000000   03111700000000000000000000000ADEGA GAROTA DA TIROL LTDA - E                                      CP000172
10205539814000112041300648601        CLEAN AMBIENTAL          00006336            109000063361             I06031117000000633600006336            03111700000000317633410310315000000000016600000000000000000000000000000000000000000000000000000000000000000000000003159700000000000000000000000000   03111700000000000000000000000CONDOMINIO DO EDIFICIO CENTRO                                       CK000173
10205539814000112041300648601        CLEAN AMBIENTAL          00006521            109000065218             I06031117000000652100006521            05111700000000322893416179615000000000016600000000000000000000000000000000000000000000000000000000000000000000000003212300000000000000000000000000   03111700000000000000000000000CAFE E BAR AGUIA DOS ANDES LTD                                      CP000174
10205539814000112041300648601        CLEAN AMBIENTAL          00006553            109000065531             I06031117000000655300006553            03111700000000239473418340215000000000016600000000000000000000000000000000000000000000000000000000000000000000000002378100000000000000000000000000   03111700000000000000000000000RESTAURANTE E PIZZARIA LA VIOL                                      CK000175
10205539814000112041300648601        CLEAN AMBIENTAL          00007580            109000075803             I06031117000000758000007580            01111700000000538323417181115000000000016600000000000000000000000000000000000000000000000000000000000000000000000005402200000000003560000000000000   03111700000000000000000000000BAKERY CONFEITARIA E PIZZARIA                                       CP000176
10205539814000112041300648601        CLEAN AMBIENTAL          00007632            109000076322             I06031117000000763200007632            01111700000000437630334676315000000000016600000000000000000000000000000000000000000000000000000000000000000000000004388500000000002880000000000000   03111700000000000000000000000NATURALESKA LTDA - ME                                               B3000177
10205539814000112041300648601        CLEAN AMBIENTAL          00007635            109000076355             I06031117000000763500007635            01111700000000166053410409315000000000016600000000000000000000000000000000000000000000000000000000000000000000000001654900000000001100000000000000   03111700000000000000000000000SORVETERIA PALACE COMERCIO DE                                       CP000178
10205539814000112041300648601        CLEAN AMBIENTAL          00007638            109000076389             I06031117000000763800007638            01111700000000252372373434815000000000016600000000000000000000000000000000000000000000000000000000000000000000000002523700000000001660000000000000   03111700000000000000000000000CAFE E BAR MACAENSE LTDA                                            B3000179
10205539814000112041300648601        CLEAN AMBIENTAL          00007676            109000076769             I06031117000000767600007676            02111700000000667173419273415000000000016600000000000000000000000000000000000000000000000000000000000000000000000006655100000000000000000000000000   03111700000000000000000000000BAR E MARISQUEIRA DO LEBLON LT                                      CP000180
10205539814000112041300648601        CLEAN AMBIENTAL          00007679            109000076793             I06031117000000767900007679            02111700000001493013419144715000000000016600000000000000000000000000000000000000000000000000000000000000000000000014913500000000000000000000000000   03111700000000000000000000000BAR TABERNA SAN SABASTIAN LTDA                                      CK000181
10205539814000112041300648601        CLEAN AMBIENTAL          00007684            109000076843             I06031117000000768400007684            02111700000000533630333843015000000000016600000000000000000000000000000000000000000000000000000000000000000000000005319700000000000000000000000000   03111700000000000000000000000BECO CIDADE NOVA RESTAURANTE E                                      B3000182
10205539814000112041300648601        CLEAN AMBIENTAL          00007687            109000076876             I06031117000000768700007687            02111700000000202370333677215000000000016600000000000000000000000000000000000000000000000000000000000000000000000002007100000000000000000000000000   03111700000000000000000000000PONTAPE BEACH 63 BAR E RESTAUR                                      B3000183
10205539814000112041300648601        CLEAN AMBIENTAL          00007688            109000076884             I06031117000000768800007688            02111700000000178683419218915000000000016600000000000000000000000000000000000000000000000000000000000000000000000001770200000000000000000000000000   03111700000000000000000000000MARZANO E POTT GASTRONOMIA LTD                                      CP000184
10205539814000112041300648601        CLEAN AMBIENTAL          00007690            109000076900             I06031117000000769000007690            02111700000000376183410387115000000000016600000000000000000000000000000000000000000000000000000000000000000000000003745200000000000000000000000000   03111700000000000000000000000CAFE PARIS DE JACAREPAGUA LTDA                                      CP000185
10205539814000112041300648601        CLEAN AMBIENTAL          00007693            109000076934             I06031117000000769300007693            02111700000000215530013010615000000000016600000000000000000000000000000000000000000000000000000000000000000000000002138700000000000000000000000000   03111700000000000000000000000LENTRIX INDUSTRIA E COMERCIO D                                      B3000186
10205539814000112041300648601        CLEAN AMBIENTAL          00007694            109000076942             I06031117000000769400007694            02111700000000472811043073415000000000016600000000000000000000000000000000000000000000000000000000000000500000000004661500000000000000000000000000   03111700000000000000000000000EMPRESA SANTA GERTRUDIS DE COM                                      B3000187
10205539814000112041300648601        CLEAN AMBIENTAL          00007695            109000076959             I06031117000000769500007695            02111700000000769942372915715000000000016600000000000000000000000000000000000000000000000000000000000000000000000007682800000000000000000000000000   03111700000000000000000000000EMPRESA S JOSE DE COM PART E E                                      B3000188
10205539814000112041300648601        CLEAN AMBIENTAL          00007699            109000076991             I06031117000000769900007699            02111700000000478512372819115000000000016600000000000000000000000000000000000000000000000000000000000000000000000004768500000000000000000000000000   03111700000000000000000000000L.C.A - PIEDADE RESTAURANTE LT                                      B3000189
10205539814000112041300648601        CLEAN AMBIENTAL          00007700            109000077007             I06031117000000770000007700            02111700000000746283410406915000000000016600000000000000000000000000000000000000000000000000000000000000000000000007446200000000000000000000000000   03111700000000000000000000000CHOPPERIA 461 BAR E RESTAURANT                                      CK000190
10205539814000112041300648601        CLEAN AMBIENTAL          00007701            109000077015             I06031117000000770100007701            02111700000001163442373184915000000000016600000000000000000000000000000000000000000000000000000000000000000000000011617800000000000000000000000000   03111700000000000000000000000IGREJA EVANGELICA ASSEMBLEIA D                                      B1000191
10205539814000112041300648601        CLEAN AMBIENTAL          00007703            109000077031             I06031117000000770300007703            02111700000000215370333461115000000000016600000000000000000000000000000000000000000000000000000000000000000000000002137100000000000000000000000000   03111700000000000000000000000CENTRO EDUCACIONAL DINAMICO LT                                      B3000192
10205539814000112041300648601        CLEAN AMBIENTAL          00007709            109000077098             I06031117000000770900007709            02111700000000539780330925815000000000016600000000000000000000000000000000000000000000000000000000000000000000000005381200000000000000000000000000   03111700000000000000000000000PADARIA, CONFEITARIA E MINIMER                                      B3000193
10205539814000112041300648601        CLEAN AMBIENTAL          00007711            109000077114             I06031117000000771100007711            02111700000000269111040212115000000000016600000000000000000000000000000000000000000000000000000000000000000000000002674500000000000000000000000000   03111700000000000000000000000SOBRADINHO CARIOCA REFEICOES L                                      B5000194
10205539814000112041300648601        CLEAN AMBIENTAL          00007714            109000077148             I06031117000000771400007714            02111700000000181843419281715000000000016600000000000000000000000000000000000000000000000000000000000000000000000001801800000000000000000000000000   03111700000000000000000000000VERITAS S A CONSTRUCOES E ENGE                                      CP000195
10205539814000112041300648601        CLEAN AMBIENTAL          00007716            109000077163             I06031117000000771600007716            02111700000000178932372785415000000000016600000000000000000000000000000000000000000000000000000000000000000000000001772700000000000000000000000000   03111700000000000000000000000CAFE E BAR RECREIO DO LEME LIM                                      B2000196
10205539814000112041300648601                                 00007723            109000077239             I06031117          00007723            000000000000003757934102691  000000000016600000000000000000000000000000000000000000000000000000000000000000000000003741300000000000000000000000000   03111700000000000000000000000                                                                    CK000197
10205539814000112041300648601        CLEAN AMBIENTAL          00007729            109000077296             I06031117000000772900007729            02111700000000445633410563715000000000016600000000000000000000000000000000000000000000000000000000000000000000000004439700000000000000000000000000   03111700000000000000000000000MINILABO PRODUCOES DE FESTAS E                                      CP000198
10205539814000112041300648601        CLEAN AMBIENTAL          00007733            109000077338             I06031117000000773300007733            02111700000000149742371400115000000000016600000000000000000000000000000000000000000000000000000000000000000000000001480800000000000000000000000000   03111700000000000000000000000NTZ COMERCIO DE ALIMENTOS - EI                                      B3000199
10205539814000112041300648601        CLEAN AMBIENTAL          00007737            109000077379             I06031117000000773700007737            02111700000000336583410532215000000000016600000000000000000000000000000000000000000000000000000000000000000000000003349200000000000000000000000000   03111700000000000000000000000BALLET DALAL ACHCAR LTDA - EPP                                      CP000200
10205539814000112041300648601        CLEAN AMBIENTAL          00007741            109000077411             I06031117000000774100007741            02111700000000406583410313715000000000016600000000000000000000000000000000000000000000000000000000000000000000000004049200000000000000000000000000   03111700000000000000000000000PASTELARIA E RESTAURANTE CANTI                                      CP000201
10205539814000112041300648601        CLEAN AMBIENTAL          00007745            109000077452             I06031117000000774500007745            03111700000000251597564327315000000000016600000000000000000000000000000000000000000000000000000000000000000000000002499300000000000000000000000000   03111700000000000000000000000HEARTS AND MINDS COM. E INDUST                                      B3000202
10205539814000112041300648601        CLEAN AMBIENTAL          00007746            109000077460             I06031117000000774600007746            03111700000000427360333302715000000000016600000000000000000000000000000000000000000000000000000000000000000000000004257000000000000000000000000000   03111700000000000000000000000SUCOS E LANCHES TRES AMIGOS LT                                      B3000203
10205539814000112041300648601        CLEAN AMBIENTAL          00007752            109000077528             I06031117000000775200007752            03111700000000741930333451215000000000016600000000000000000000000000000000000000000000000000000000000000000000000007402700000000000000000000000000   03111700000000000000000000000RESTAURANTE O AMIGAO LTDA                                           B7000204
10205539814000112041300648601        CLEAN AMBIENTAL          00007757            109000077577             I06031117000000775700007757            08111700000000167181044147515000000000016600000000000000000000000000000000000000000000000000000000000000000000000001655200000000000000000000000000   03111700000000000000000000000NOVA KUANG LANCHES LTDA                                             B5000205
10205539814000112041300648601        CLEAN AMBIENTAL          00007760            109000077601             I06031117000000776000007760            03111700000000680920013519615000000000016600000000000000000000000000000000000000000000000000000000000006579000000006134700000000000000000000000000   03111700000000000000000000000BISCUIT DOCES E SALGADOS LTDA                                       B2000206
10205539814000112041300648601        CLEAN AMBIENTAL          00007767            109000077676             I06031117000000776700007767            03111700000000782473410496015000000000016600000000000000000000000000000000000000000000000000000000000000000000000007808100000000000000000000000000   03111700000000000000000000000FORT RIO COMERCIO E REPRESENTA                                      CK000207
10205539814000112041300648601        CLEAN AMBIENTAL          00007779            109000077791             I06031117000000777900007779            03111700000002849250331673315000000000016600000000000000000000000000000000000000000000000000000000000000000000000028475900000000000000000000000000   03111700000000000000000000000PANIFICACAO APOLO LTDA                                              B7000208
10205539814000112041300648601        CLEAN AMBIENTAL          00007786            109000077866             I06031117000000778600007786            03111700000000353681040544715000000000016600000000000000000000000000000000000000000000000000000000000000000000000003520200000000000000000000000000   03111700000000000000000000000MARTINS DO IRAJA FRUTAS LTDA -                                      B5000209
10205539814000112041300648601        CLEAN AMBIENTAL          00007790            109000077908             I06031117000000779000007790            03111700000000297740334702715000000000016600000000000000000000000000000000000000000000000000000000000000000000000002960800000000000000000000000000   03111700000000000000000000000HORTIFRUTI SABOR E QUALIDADE D                                      B3000210
10205539814000112041300648601        CLEAN AMBIENTAL          00007794            109000077940             I06031117000000779400007794            03111700000000268162370436615000000000016600000000000000000000000000000000000000000000000000000000000000000000000002665000000000000000000000000000   03111700000000000000000000000O REI DOS FRANGOS MARITIMOS BA                                      B3000211
10205539814000112041300648601        CLEAN AMBIENTAL          00007800            109000078005             I06031117000000780000007800            03111700000000283792373369615000000000016600000000000000000000000000000000000000000000000000000000000000000000000002821300000000000000000000000000   03111700000000000000000000000CONEXAO MERCADO LTDA                                                B3000212
10205539814000112041300648601        CLEAN AMBIENTAL          00007804            109000078047             I06031117000000780400007804            03111700000000434472370135415000000000016600000000000000000000000000000000000000000000000000000000000000000000000004328100000000000000000000000000   03111700000000000000000000000CONDOMINIO DO EDIFICIO FRANCIL                                      B7000213
10205539814000112041300648601        CLEAN AMBIENTAL          00007806            109000078062             I06031117000000780600007806            03111700000000215530333367015000000000016600000000000000000000000000000000000000000000000000000000000000000000000002138700000000000000000000000000   03111700000000000000000000000SERAPIAO BAR CULTURAL LTDA - E                                      B3000214
10205539814000112041300648601        CLEAN AMBIENTAL          00007809            109000078096             I06031117000000780900007809            03111700000000165533418682715000000000016600000000000000000000000000000000000000000000000000000000000000000000000001638700000000000000000000000000   03111700000000000000000000000RR GARCEZ 905 LANCHES E REFEIC                                      CP000215
10205539814000112041300648601        CLEAN AMBIENTAL          00007813            109000078138             I06031117000000781300007813            03111700000000310261044750615000000000016600000000000000000000000000000000000000000000000000000000000000000000000003086000000000000000000000000000   03111700000000000000000000000PADARIA E CONFEITARIA SULISTA                                       B5000216
10205539814000112041300648601        CLEAN AMBIENTAL          00007816            109000078161             I06031117000000781600007816            03111700000000170790331670915000000000016600000000000000000000000000000000000000000000000000000000000006474000000001043900000000000000000000000000   03111700000000000000000000000SABOR DO MAGARCA RESTAURANTE E                                      B2000217
10205539814000112041300648601        CLEAN AMBIENTAL          00007818            109000078187             I06031117000000781800007818            03111700000000178683419369015000000000016600000000000000000000000000000000000000000000000000000000000000000000000001770200000000000000000000000000   03111700000000000000000000000PASTELARIA E SUCOS SNACKS LTDA                                      CP000218
10205539814000112041300648601        CLEAN AMBIENTAL          00007819            109000078195             I06031117000000781900007819            03111700000000215533415681215000000000016600000000000000000000000000000000000000000000000000000000000000000000000002138700000000000000000000000000   03111700000000000000000000000PADARIA E CONFEITARIA SANTA CA                                      CP000219
10205539814000112041300648601        CLEAN AMBIENTAL          00007820            109000078203             I06031117000000782000007820            03111700000000183950333271415000000000016600000000000000000000000000000000000000000000000000000000000000000000000001822900000000000000000000000000   03111700000000000000000000000PLANETA DO KILO RESTAURANTE LT                                      B1000220
10205539814000112041300648601        CLEAN AMBIENTAL          00007822            109000078229             I06031117000000782200007822            03111700000000197790333458715000000000016600000000000000000000000000000000000000000000000000000000000000000000000001961300000000000000000000000000   03111700000000000000000000000PIBIS & PABIS CAFE BAR LTDA -                                       B3000221
10205539814000112041300648601        CLEAN AMBIENTAL          00007823            109000078237             I06031117000000782300007823            03111700000000215323419926715000000000016600000000000000000000000000000000000000000000000000000000000000000000000002136600000000000000000000000000   03111700000000000000000000000T & S COMERCIO DE PRODUTOS ALI                                      CP000222
10205539814000112041300648601        CLEAN AMBIENTAL          00007824            109000078245             I06031117000000782400007824            03111700000000131321044415615000000000016600000000000000000000000000000000000000000000000000000000000000000000000001296600000000000000000000000000   03111700000000000000000000000FRUITWAY HORTIFRUTI LTDA - EPP                                      B5000223
10205539814000112041300648601        CLEAN AMBIENTAL          00007826            109000078260             I06031117000000782600007826            03111700000000194471043093215000000000016600000000000000000000000000000000000000000000000000000000000000000000000001928100000000000000000000000000   03111700000000000000000000000BAR E CAFE EXPRESSO LTDA - ME                                       B5000224
10205539814000112041300648601        CLEAN AMBIENTAL          00007827            109000078278             I06031117000000782700007827            03111700000000147111043093215000000000016600000000000000000000000000000000000000000000000000000000000000500000000001404500000000000000000000000000   03111700000000000000000000000BAR SANTA ROSA DE LIMA LTDA -                                       B5000225
10205539814000112041300648601        CLEAN AMBIENTAL          00007851            109000078518             I06031117000000785100007851            04111700000000126050333381115000000000016600000000000000000000000000000000000000000000000000000000000000000000000001243900000000000000000000000000   03111700000000000000000000000VISTA VERDE E FLORES                                                B2000226
10205539814000112041300648601        CLEAN AMBIENTAL          00007884            109000078849             I06031117000000788400007884            04111700000000170790331528915000000000016600000000000000000000000000000000000000000000000000000000000000000000000001691300000000000000000000000000   03111700000000000000000000000ADAVILSO MANFRO RESTAURANTE E                                       B3000227
10205539814000112041300648601        CLEAN AMBIENTAL          00007885            109000078856             I06031117000000788500007885            04111700000000273681040203015000000000016600000000000000000000000000000000000000000000000000000000000002105000000002509700000000000000000000000000   03111700000000000000000000000PASTELARIA ESMERALDA DE BANGU                                       B5000228
10205539814000112041300648601        CLEAN AMBIENTAL          00007888            109000078880             I06031117000000788800007888            03111700000000275953418561315000000000016600000000000000000000000000000000000000000000000000000000000000500000000002692900000000000000000000000000   03111700000000000000000000000NOVA GERACAO COMESTIVEIS LTDA                                       CK000229
10205539814000112041300648601        CLEAN AMBIENTAL          00007924            109000079243             I06031117000000792400007924            10111700000000380490331528915000000000016600000000000000000000000000000000000000000000000000000000000000000000000003788300000000000000000000000000   03111700000000000000000000000LANCHONETE E PASTELARIA DRAGAO                                      B3000230
10205539814000112041300648601        CLEAN AMBIENTAL          00007930            109000079300             I06031117000000793000007930            05111700000000251323417759415000000000016600000000000000000000000000000000000000000000000000000000000000000000000002496600000000000000000000000000   03111700000000000000000000000PEIXARIA CORACAO DE CAMPO GRAN                                      CP000231
10205539814000112041300648601        CLEAN AMBIENTAL          00007936            109000079367             I06031117000000793600007936            05111700000000094741040680915000000000016600000000000000000000000000000000000000000000000000000000000000000000000000930800000000000000000000000000   03111700000000000000000000000ELETRICO PAIVA LTDA - ME                                            B3000232
10205539814000112041300648601        CLEAN AMBIENTAL          00007953            109000079532             I06031117000000795300007953            05111700000000215003410598315000000000016600000000000000000000000000000000000000000000000000000000000000000000000002133400000000000000000000000000   03111700000000000000000000000RESTAURANTE GALETO DIVINO LTDA                                      CP000233
10205539814000112041300648601        CLEAN AMBIENTAL          00007964            109000079649             I06031117000000796400007964            05111700000000162893414096415000000000016600000000000000000000000000000000000000000000000000000000000000000000000001612300000000000000000000000000   03111700000000000000000000000FONTANA SKY RESTAURANTE LEGITI                                      CP000234
10205539814000112041300648601        CLEAN AMBIENTAL          00007999            109000079995             I06031117000000799900007999            06111700000000565700019012615000000000016600000000000000000000000000000000000000000000000000000000000000000000000005640400000000000000000000000000   03111700000000000000000000000PIZZARIA AMERICANA LTDA - EPP                                       B1000235
10205539814000112041300648601        CLEAN AMBIENTAL          00008041            109000080415             I06031117000000804100008041            06111700000000341842372728415000000000016600000000000000000000000000000000000000000000000000000000000000000000000003401800000000000000000000000000   03111700000000000000000000000IGREJA BATISTA DE BARAO DA TAQ                                      B1000236
10205539814000112041300648601        CLEAN AMBIENTAL          00008142            109000081421             I06031117000000814200008142            07111700000000320793417953315000000000016600000000000000000000000000000000000000000000000000000000000000000000000003191300000000000000000000000000   03111700000000000000000000000IGREJA EVANGELICA ASSEMBLEIA D                                      CP000237
10205539814000112041300648601        CLEAN AMBIENTAL          00008211            109000082114             I06031117000000821100008211            08111700000000241843413018915000000000016600000000000000000000000000000000000000000000000000000000000000000000000002401800000000000000000000000000   03111700000000000000000000000HORTIFRUTAS CORACAO DE BONSUCE                                      CP000238
10205539814000112041300648601        CLEAN AMBIENTAL          00008301            109000083013             I06031117000000830100008301            09111700000000162390333977615000000000016600000000000000000000000000000000000000000000000000000000000000000000000001607300000000000000000000000000   03111700000000000000000000000CENTRO DE ESTETICA JARDIM OCEA                                      B3000239
10205539814000112041300648601        CLEAN AMBIENTAL          00008403            109000084037             I06031117000000840300008403            10111700000001368680013519615000000000016600000000000000000000000000000000000000000000000000000000000000000000000013670200000000000000000000000000   03111700000000000000000000000CENTRO DE REUMATOLOGIA E ORTOP                                      B3000240
10205539814000112041300648601        CLEAN AMBIENTAL SERVICOS 02637539            109026375393             I06031117000263753902637539            03111700000000362641040573615000000000016600000000000000000000000000000000000000000000000000000000000000000000000003609800000000000000000000000000   03111700000000000000000000000SJ FREITAS BAR E CAFE ETRELI M                                      B5000241
10205539814000112041300648601        CLEAN AMBIENTAL SERVICOS 03285027            109032850272             I06031117000328502703285027            03111700000000356531040573615000000000016600000000000000000000000000000000000000000000000000000000000000000000000003548700000000000000000000000000   03111700000000000000000000000S J FREITAS BAR E CAFE EIRELI                                       B5000242
10205539814000112041300648601                                 11153130            109111531306             I06031117          11153130            000000000000013828934191603  000000000016600000000000000000000000000000000000000000000000000000000000000000000000013812300000000000000000000000000   03111700000000000000000000000                                                                    CP000243
10205539814000112041300648601        CLEAN AMBIENTAL SERVICOS 01784297            109017842971             I09031117000178429701784297            09091700000000426053417788315000000000016600000000000000000000000000000000000000000000000000000000000000000000000000016600000000000000000000000000         00000000000000000000000CONDOMINIO DO EDIFICIO LEBLON                                         000244
10205539814000112041300648601        CLEAN AMBIENTAL SERVICOS 01985097            109019850972             I09031117000198509701985097            09091700000001040003417788315000000000016600000000000000000000000000000000000000000000000000000000000000000000000000016600000000000000000000000000         00000000000000000000000DC GRILL CHURRASCARIA LTDA                                            000245
10205539814000112041300648601        CLEAN AMBIENTAL SERVICOS 02030985            109020309851             I09031117000203098502030985            09091700000002355603417788315000000000016600000000000000000000000000000000000000000000000000000000000000000000000000016600000000000000000000000000         00000000000000000000000QUINDIN COMESTIVEIS LTDA                                              000246
10205539814000112041300648601        CLEAN AMBIENTAL SERVICOS 02061777            109020617774             I09031117000206177702061777            09091700000001121743417788315000000000016600000000000000000000000000000000000000000000000000000000000000000000000000016600000000000000000000000000         00000000000000000000000SABOR MALAGUETTA ESPACO GASTRO                                        000247
10205539814000112041300648601        CLEAN AMBIENTAL SERVICOS 02375664            109023756645             I09031117000237566402375664            08091700000000864523417788315000000000016600000000000000000000000000000000000000000000000000000000000000000000000000016600000000000000000000000000         00000000000000000000000CASA DO SARDO RESTAURANTE E CA                                        000248
