02RETORNO01COBRANCA       041300648601        CLEAN AMB SERV COL TRANSP LTDA341BANCO ITAU S.A.04011801600BPI01824040118                                                                                                                                                                                                                                                                                   000001
10205539814000112041300648601        CLEAN AMBIENTAL          00008146            109000081462             I04040118000000814600008146            04011800000000116323412897715000000000000000000000000000000000000000000000000000000000000000000000000000000000000000000000000000000000000000000000         00000000000000000000000MANDALA MERCADO DO CENTRO LTDA                                        000002
10205539814000112041300648601        CLEAN AMBIENTAL          00008791            109000087915             I04040118000000879100008791            05011800000000383853412897715000000000000000000000000000000000000000000000000000000000000000000000000000000000000000000000000000000000000000000000         00000000000000000000000BAR E LANCHONETE MC TERTULIANO                                        000003
10205539814000112041300648601        CLEAN AMBIENTAL          00008966            109000089663             I04040118000000896600008966            05011800000000489843412897715000000000000000000000000000000000000000000000000000000000000000000000000000000000000000000000000000000000000000000000         00000000000000000000000WAN HUA LTDA                                                          000004
10205539814000112041300648601        CLEAN AMBIENTAL          00009303            109000093038             I04040118000000930300009303            15011800000000599223412897715000000000000000000000000000000000000000000000000000000000000000000000000000000000000000000000000000000000000000000000         00000000000000000000000DENSIDADE CATETE BAR E LANCHON                                        000005
10205539814000112041300648601        CLEAN AMBIENTAL          00009389            109000093897             I04040118000000938900009389            04011800000001002113412897715000000000000000000000000000000000000000000000000000000000000000000000000000000000000000000000000000000000000000000000         00000000000000000000000ROYALTY INN BUSINESS HOTELARIA                                        000006
10205539814000112041300648601        CLEAN AMBIENTAL          00011079            109000110790             I04040118000001107900011079            05011800000000870393412897715000000000000000000000000000000000000000000000000000000000000000000000000000000000000000000000000000000000000000000000         00000000000000000000000BAR E RESTAURANTE PONTAL DO LE                                        000007
10205539814000112041300648601        CLEAN AMBIENTAL          00011247            109000112473             I04040118000001124700011247            05011800000000105263412897715000000000000000000000000000000000000000000000000000000000000000000000000000000000000000000000000000000000000000000000         00000000000000000000000MERLON - LANCHONETE E PASTELAR                                        000008
10205539814000112041300648601        CLEAN AMBIENTAL          00011432            109000114321             I04040118000001143200011432            03011800000000240793412897715000000000000000000000000000000000000000000000000000000000000000000000000000000000000000000000000000000000000000000000         00000000000000000000000CASA HAVANEZA CAFE E BAR LTDA                                         000009
10205539814000112041300648601        CLEAN AMBIENTAL          00012569            109000125699             I04040118000001256900012569            17011800000000402273412897715000000000000000000000000000000000000000000000000000000000000000000000000000000000000000000000000000000000000000000000         00000000000000000000000BAR E LANCHONETE MC TERTULIANO                                        000010
10205539814000112041300648601        CLEAN AMBIENTAL          00012751            109000127513             I04040118000001275100012751            17011800000000468793412897715000000000000000000000000000000000000000000000000000000000000000000000000000000000000000000000000000000000000000000000         00000000000000000000000WAN HUA LTDA                                                          000011
10205539814000112041300648601        CLEAN AMBIENTAL          00013052            109000130525             I04040118000001305200013052            04011800000001052803412897715000000000000000000000000000000000000000000000000000000000000000000000000000000000000000000000000000000000000000000000         00000000000000000000000ROYALTY INN BUSINESS HOTELARIA                                        000012
10205539814000112041300648601        CLEAN AMBIENTAL          00013065            109000130657             I04040118000001306500013065            05011800000000210533412897715000000000000000000000000000000000000000000000000000000000000000000000000000000000000000000000000000000000000000000000         00000000000000000000000CONDOMINIO JARDIM BOTANICO OFF                                        000013
10205539814000112041300648601        CLEAN AMBIENTAL          00013190            109000131903             I04040118000001319000013190            19011800000000618393412897715000000000000000000000000000000000000000000000000000000000000000000000000000000000000000000000000000000000000000000000         00000000000000000000000DENSIDADE CATETE BAR E LANCHON                                        000014
10205539814000112041300648601        CLEAN AMBIENTAL          00013455            109000134550             I04040118000001345500013455            08011800000000241843412897715000000000000000000000000000000000000000000000000000000000000000000000000000000000000000000000000000000000000000000000         00000000000000000000000R.G. DA SILVA RESTAURANTE - ME                                        000015
10205539814000112041300648601        CLEAN AMBIENTAL          00013835            109000138353             I04040118000001383500013835            04011800000000225833412897715000000000000000000000000000000000000000000000000000000000000000000000000000000000000000000000000000000000000000000000         00000000000000000000000PAPO 10 LANCHONETE E CAFE LTDA                                        000016
10205539814000112041300648601        CLEAN AMBIENTAL          00013910            109000139104             I04040118000001391000013910            04011800000001552533412897715000000000000000000000000000000000000000000000000000000000000000000000000000000000000000000000000000000000000000000000         00000000000000000000000BOTEQUIM 22 RESTAURANTE LTDA                                          000017
10205539814000112041300648601        CLEAN AMBIENTAL          00014241            109000142413             I04040118000001424100014241            12011800000000315793412897715000000000000000000000000000000000000000000000000000000000000000000000000000000000000000000000000000000000000000000000         00000000000000000000000JC PENSAO E RESTAURANTE LTDA                                          000018
10205539814000112041300648601        CLEAN AMBIENTAL          00014562            109000145622             I04040118000001456200014562            05011800000000132633412897715000000000000000000000000000000000000000000000000000000000000000000000000000000000000000000000000000000000000000000000         00000000000000000000000FORNO CARIOCA PRODUTOS ALIMENT                                        000019
10205539814000112041300648601        CLEAN AMBIENTAL          00014576            109000145762             I04040118000001457600014576            08011800000000169683412897715000000000000000000000000000000000000000000000000000000000000000000000000000000000000000000000000000000000000000000000         00000000000000000000000REAL BENEM SOCIED PORTUGUESA C                                        000020
10205539814000112041300648601        CLEAN AMBIENTAL          00014858            109000148584             I04040118000001485800014858            17011800000000322533412897715000000000000000000000000000000000000000000000000000000000000000000000000000000000000000000000000000000000000000000000         00000000000000000000000TERRAS DE AVENTURA INDUSTRIA D                                        000021
10205539814000112041300648601        CLEAN AMBIENTAL          00015022            109000150226             I04040118000001502200015022            05011800000002842113412897715000000000000000000000000000000000000000000000000000000000000000000000000000000000000000000000000000000000000000000000         00000000000000000000000COMISSARIA AEREA RIO DE JANEIR                                        000022
10205539814000112041300648601        CLEAN AMBIENTAL          00015035            109000150358             I04040118000001503500015035            05011800000000842473412897715000000000000000000000000000000000000000000000000000000000000000000000000000000000000000000000000000000000000000000000         00000000000000000000000BAR E RESTAURANTE PONTAL DO LE                                        000023
10205539814000112041300648601        CLEAN AMBIENTAL          00015390            109000153907             I04040118000001539000015390            04011800000000284213412897715000000000000000000000000000000000000000000000000000000000000000000000000000000000000000000000000000000000000000000000         00000000000000000000000SINDICATO DOS EMPREGADOS NO CO                                        000024
10205539814000112041300648601        CLEAN AMBIENTAL          00015391            109000153915             I04040118000001539100015391            04011800000000284213412897715000000000000000000000000000000000000000000000000000000000000000000000000000000000000000000000000000000000000000000000         00000000000000000000000SINDICATO DOS EMPREGADOS NO CO                                        000025
10205539814000112041300648601        CLEAN AMBIENTAL          00015393            109000153931             I04040118000001539300015393            04011800000000554213412897715000000000000000000000000000000000000000000000000000000000000000000000000000000000000000000000000000000000000000000000         00000000000000000000000SINDICATO DOS EMPREGADOS NO CO                                        000026
10205539814000112041300648601        CLEAN AMBIENTAL          00015582            109000155829             I04040118000001558200015582            04011800000000226323412897715000000000000000000000000000000000000000000000000000000000000000000000000000000000000000000000000000000000000000000000         00000000000000000000000BAR E CAFE EXPRESSO LTDA - ME                                         000027
10205539814000112041300648601        CLEAN AMBIENTAL          00015583            109000155837             I04040118000001558300015583            04011800000000168423412897715000000000000000000000000000000000000000000000000000000000000000000000000000000000000000000000000000000000000000000000         00000000000000000000000BAR SANTA ROSA DE LIMA LTDA -                                         000028
10205539814000112041300648601        CLEAN AMBIENTAL          00015691            109000156918             I04040118000001569100015691            05011800000000364843412897715000000000000000000000000000000000000000000000000000000000000005000000000000000000000000000000000000000000000000000000         00000000000000000000000BAR E MERCEARIA TIO AUGUSTO LT                                        000029
10205539814000112041300648601        CLEAN AMBIENTAL          00015979            109000159797             I02040118000001597900015979            15011800000002290563412897715000000000000000000000000000000000000000000000000000000000000000000000000000000000000000000000000000000010000000000000         00000000000000000000000ASSOCIACAO ATLETICO PORTUGUESA                                        000030
10205539814000112041300648601        CLEAN AMBIENTAL          00015980            109000159805             I02040118000001598000015980            08011800000000352373412897715000000000000000000000000000000000000000000000000000000000000000000000000000000000000000000000000000001160000000000000         00000000000000000000000ROCHA E ANDRADE COMERCIO E IND                                        000031
10205539814000112041300648601        CLEAN AMBIENTAL          00015981            109000159813             I02040118000001598100015981            08011800000000845633412897715000000000000000000000000000000000000000000000000000000000000000000000000000000000000000000000000000002790000000000000         00000000000000000000000CASA DO SARDO RESTAURANTE E CA                                        000032
10205539814000112041300648601        CLEAN AMBIENTAL          00015982            109000159821             I02040118000001598200015982            08011800000000724213412897715000000000000000000000000000000000000000000000000000000000000000000000000000000000000000000000000000002390000000000000         00000000000000000000000FEEDBACK STEAKHOUSE LTDA                                              000033
10205539814000112041300648601        CLEAN AMBIENTAL          00015983            109000159839             I02040118000001598300015983            13011800000000627003412897715000000000000000000000000000000000000000000000000000000000000000000000000000000000000000000000000000002070000000000000         00000000000000000000000CAFE MERCADORES LTDA EPP                                              000034
10205539814000112041300648601        CLEAN AMBIENTAL          00015984            109000159847             I02040118000001598400015984            17011800000001029853412897715000000000000000000000000000000000000000000000000000000000000000000000000000000000000000000000000000003400000000000000         00000000000000000000000CAMPANHA NACIONAL DE ESCOLA DA                                        000035
10205539814000112041300648601        CLEAN AMBIENTAL          00015985            109000159854             I02040118000001598500015985            25011800000000377773412897715000000000000000000000000000000000000000000000000000000000000000000000000000000000000000000000000000001240000000000000         00000000000000000000000NOVA GERACAO COMESTIVEIS LTDA                                         000036
10205539814000112041300648601        CLEAN AMBIENTAL          00015986            109000159862             I02040118000001598600015986            08011800000000386163412897715000000000000000000000000000000000000000000000000000000000000000000000000000000000000000000000000000001270000000000000         00000000000000000000000GULA GRILL RESTAURANTE LTDA                                           000037
10205539814000112041300648601        CLEAN AMBIENTAL          00015987            109000159870             I02040118000001598700015987            08011800000000205003412897715000000000000000000000000000000000000000000000000000000000000000000000000000000000000000000000000000000680000000000000         00000000000000000000000JAPITA STORE RESTAURANTE LTDA                                         000038
10205539814000112041300648601        CLEAN AMBIENTAL          00015988            109000159888             I02040118000001598800015988            08011800000000967633412897715000000000000000000000000000000000000000000000000000000000000000000000000000000000000000000000000000003190000000000000         00000000000000000000000HOTEL DEBRET LTDA - EPP                                               000039
10205539814000112041300648601        CLEAN AMBIENTAL          00015989            109000159896             I02040118000001598900015989            08011800000000899403412897715000000000000000000000000000000000000000000000000000000000000000000000000000000000000000000000000000002970000000000000         00000000000000000000000SOLAR DE SANTA TURISMO LTDA                                           000040
10205539814000112041300648601        CLEAN AMBIENTAL          00015990            109000159904             I02040118000001599000015990            08011800000001297843412897715000000000000000000000000000000000000000000000000000000000000000000000000000000000000000000000000000004280000000000000         00000000000000000000000KOBE ELIJA VEICULOS LTDA                                              000041
10205539814000112041300648601        CLEAN AMBIENTAL          00015991            109000159912             I02040118000001599100015991            08011800000001356473412897715000000000000000000000000000000000000000000000000000000000000000000000000000000000000000000000000000004480000000000000         00000000000000000000000VILLA DUARTE RESIDENCIAL PARA                                         000042
10205539814000112041300648601        CLEAN AMBIENTAL          00015992            109000159920             I02040118000001599200015992            08011800000000558073412897715000000000000000000000000000000000000000000000000000000000000000000000000000000000000000000000000000001840000000000000         00000000000000000000000HB 82 COMERCIO DE ALIMENTOS LT                                        000043
10205539814000112041300648601        CLEAN AMBIENTAL          00015993            109000159938             I02040118000001599300015993            08011800000002869113412897715000000000000000000000000000000000000000000000000000000000000000000000000000000000000000000000000000000010000000000000         00000000000000000000000LNY 2005 INDUSTRIA DE ROUPAS L                                        000044
10205539814000112041300648601        CLEAN AMBIENTAL          00015994            109000159946             I02040118000001599400015994            08011800000000397143412897715000000000000000000000000000000000000000000000000000000000000000000000000000000000000000000000000000001310000000000000         00000000000000000000000HB FRANQUIA 1 DE ALIMENTOS LTD                                        000045
10205539814000112041300648601        CLEAN AMBIENTAL          00015995            109000159953             I02040118000001599500015995            08011800000000563523412897715000000000000000000000000000000000000000000000000000000000000000000000000000000000000000000000000000001860000000000000         00000000000000000000000AUTO POSTO MIKONOS LTDA                                               000046
10205539814000112041300648601        CLEAN AMBIENTAL          00015996            109000159961             I02040118000001599600015996            08011800000000500413412897715000000000000000000000000000000000000000000000000000000000000000000000000000000000000000000000000000001650000000000000         00000000000000000000000ASSOCIACAO ISRAELITA TEMPLO SI                                        000047
10205539814000112041300648601        CLEAN AMBIENTAL          00015997            109000159979             I02040118000001599700015997            08011800000001025523412897715000000000000000000000000000000000000000000000000000000000000000000000000000000000000000000000000000003380000000000000         00000000000000000000000ALVAROS BAR LTDA                                                      000048
10205539814000112041300648601        CLEAN AMBIENTAL          00015998            109000159987             I02040118000001599800015998            20011800000000609373412897715000000000000000000000000000000000000000000000000000000000000000000000000000000000000000000000000000002010000000000000         00000000000000000000000R R FOODS LANCHONETE LTDA                                             000049
10205539814000112041300648601        CLEAN AMBIENTAL          00015999            109000159995             I02040118000001599900015999            08011800000001260003412897715000000000000000000000000000000000000000000000000000000000000000000000000000000000000000000000000000004160000000000000         00000000000000000000000F4 FAZDOLAR ALIMENTOS LTDA                                            000050
10205539814000112041300648601        CLEAN AMBIENTAL          00016000            109000160001             I02040118000001600000016000            08011800000001260003412897715000000000000000000000000000000000000000000000000000000000000000000000000000000000000000000000000000004160000000000000         00000000000000000000000GORILA DE IPANEMA BAR E RESTAU                                        000051
10205539814000112041300648601        CLEAN AMBIENTAL          00016001            109000160019             I02040118000001600100016001            08011800000000383953412897715000000000000000000000000000000000000000000000000000000000000000000000000000000000000000000000000000001260000000000000         00000000000000000000000BAR E RESTAURANTE BAIXO GAGO L                                        000052
10205539814000112041300648601        CLEAN AMBIENTAL          00016002            109000160027             I02040118000001600200016002            08011800000000694683412897715000000000000000000000000000000000000000000000000000000000000000000000000000000000000000000000000000002290000000000000         00000000000000000000000PET CHEF INDUSTRIA E COMERCIO                                         000053
10205539814000112041300648601        CLEAN AMBIENTAL          00016003            109000160035             I02040118000001600300016003            08011800000000260793412897715000000000000000000000000000000000000000000000000000000000000000000000000000000000000000000000000000000860000000000000         00000000000000000000000TIMONE BAR LTDA                                                       000054
10205539814000112041300648601        CLEAN AMBIENTAL          00016004            109000160043             I02040118000001600400016004            08011800000000524773412897715000000000000000000000000000000000000000000000000000000000000000000000000000000000000000000000000000001730000000000000         00000000000000000000000LA SAGRADA FAMILIA COMERCIO DE                                        000055
10205539814000112041300648601        CLEAN AMBIENTAL          00016005            109000160050             I02040118000001600500016005            08011800000000451523412897715000000000000000000000000000000000000000000000000000000000000000000000000000000000000000000000000000001490000000000000         00000000000000000000000HOSPEDAGEM LAGARTO'S LTDA                                             000056
10205539814000112041300648601        CLEAN AMBIENTAL          00016006            109000160068             I02040118000001600600016006            08011800000000241843412897715000000000000000000000000000000000000000000000000000000000000000000000000000000000000000000000000000000800000000000000         00000000000000000000000HORTIFRUTAS CORACAO DE BONSUCE                                        000057
10205539814000112041300648601        CLEAN AMBIENTAL          00016007            109000160076             I02040118000001600700016007            08011800000002598953412897715000000000000000000000000000000000000000000000000000000000000000000000000000000000000000000000000000000010000000000000         00000000000000000000000SUPERPRIX LOJAS DE ALIMENTOS L                                        000058
10205539814000112041300648601        CLEAN AMBIENTAL          00016008            109000160084             I02040118000001600800016008            08011800000000773433412897715000000000000000000000000000000000000000000000000000000000000000000000000000000000000000000000000000002550000000000000         00000000000000000000000AUTO POSTO CHACALTAYA LTDA                                            000059
10205539814000112041300648601        CLEAN AMBIENTAL          00016009            109000160092             I02040118000001600900016009            08011800000000245523412897715000000000000000000000000000000000000000000000000000000000000000000000000000000000000000000000000000000810000000000000         00000000000000000000000POSTO DE ABASTECIMENTO RJ NORT                                        000060
10205539814000112041300648601        CLEAN AMBIENTAL          00016010            109000160100             I02040118000001601000016010            08011800000000552373412897715000000000000000000000000000000000000000000000000000000000000000000000000000000000000000000000000000001820000000000000         00000000000000000000000KILO EXPRESS COMERCIO DE ALIME                                        000061
10205539814000112041300648601        CLEAN AMBIENTAL          00016011            109000160118             I02040118000001601100016011            08011800000000320793412897715000000000000000000000000000000000000000000000000000000000000000000000000000000000000000000000000000001060000000000000         00000000000000000000000CUNHA & TRAVASSOS CAFETERIA E                                         000062
10205539814000112041300648601        CLEAN AMBIENTAL          00016012            109000160126             I02040118000001601200016012            08011800000000508913412897715000000000000000000000000000000000000000000000000000000000000000000000000000000000000000000000000000001680000000000000         00000000000000000000000RESTAURANTE NAGARA LTDA - ME                                          000063
10205539814000112041300648601        CLEAN AMBIENTAL          00016013            109000160134             I02040118000001601300016013            08011800000000531323412897715000000000000000000000000000000000000000000000000000000000000000000000000000000000000000000000000000001750000000000000         00000000000000000000000LNY 2005 INDUSTRIA DE ROUPAS L                                        000064
10205539814000112041300648601        CLEAN AMBIENTAL          00016014            109000160142             I02040118000001601400016014            08011800000000636463412897715000000000000000000000000000000000000000000000000000000000000000000000000000000000000000000000000000002100000000000000         00000000000000000000000POSTO JARDIM OCEANICO LTDA                                            000065
10205539814000112041300648601        CLEAN AMBIENTAL          00016015            109000160159             I02040118000001601500016015            08011800000000315793412897715000000000000000000000000000000000000000000000000000000000000000000000000000000000000000000000000000001040000000000000         00000000000000000000000NOVOVIDRO AUTO PECAS LTDA - ME                                        000066
10205539814000112041300648601        CLEAN AMBIENTAL          00016016            109000160167             I02040118000001601600016016            15011800000000235003412897715000000000000000000000000000000000000000000000000000000000000000000000000000000000000000000000000000000780000000000000         00000000000000000000000COPA CAKE BOLOS CASEIROS LTDA                                         000067
10205539814000112041300648601        CLEAN AMBIENTAL          00016017            109000160175             I02040118000001601700016017            08011800000000284133412897715000000000000000000000000000000000000000000000000000000000000000000000000000000000000000000000000000000940000000000000         00000000000000000000000FOLHA NOVA COMERCIO DE ALIMENT                                        000068
10205539814000112041300648601        CLEAN AMBIENTAL          00016018            109000160183             I02040118000001601800016018            18011800000000267743412897715000000000000000000000000000000000000000000000000000000000000000000000000000000000000000000000000000000880000000000000         00000000000000000000000LE CAFE D ICI CAFETERIA GOURME                                        000069
10205539814000112041300648601        CLEAN AMBIENTAL          00016019            109000160191             I02040118000001601900016019            08011800000001405513412897715000000000000000000000000000000000000000000000000000000000000000000000000000000000000000000000000000004640000000000000         00000000000000000000000PRIMO PANE INDUSTRIA E COMERCI                                        000070
10205539814000112041300648601        CLEAN AMBIENTAL          00016020            109000160209             I02040118000001602000016020            08011800000000499953412897715000000000000000000000000000000000000000000000000000000000000000000000000000000000000000000000000000001650000000000000         00000000000000000000000OS FILHOS DA MAE BURGERS EIREL                                        000071
10205539814000112041300648601        CLEAN AMBIENTAL          00016021            109000160217             I02040118000001602100016021            08011800000000267743412897715000000000000000000000000000000000000000000000000000000000000000000000000000000000000000000000000000000880000000000000         00000000000000000000000PRAIA DA BARRA COMERCIO DE ALI                                        000072
10205539814000112041300648601        CLEAN AMBIENTAL          00016022            109000160225             I02040118000001602200016022            08011800000002431323412897715000000000000000000000000000000000000000000000000000000000000000000000000000000000000000000000000000000010000000000000         00000000000000000000000PARADA 021 RESTAURANTE LTDA EP                                        000073
10205539814000112041300648601        CLEAN AMBIENTAL          00016023            109000160233             I02040118000001602300016023            08011800000000706053412897715000000000000000000000000000000000000000000000000000000000000000000000000000000000000000000000000000002330000000000000         00000000000000000000000ASSOCIACAO EDUCACIONAL MACHADO                                        000074
10205539814000112041300648601        CLEAN AMBIENTAL          00016024            109000160241             I02040118000001602400016024            08011800000000212893412897715000000000000000000000000000000000000000000000000000000000000000000000000000000000000000000000000000000700000000000000         00000000000000000000000CENTRO EDUCACIONAL FELIPPO DE                                         000075
10205539814000112041300648601        CLEAN AMBIENTAL          00016025            109000160258             I02040118000001602500016025            08011800000000739213412897715000000000000000000000000000000000000000000000000000000000000000000000000000000000000000000000000000002440000000000000         00000000000000000000000KATMANDU RESTAURANTE & LOUNGE                                         000076
10205539814000112041300648601        CLEAN AMBIENTAL          00016026            109000160266             I02040118000001602600016026            08011800000000162893412897715000000000000000000000000000000000000000000000000000000000000000000000000000000000000000000000000000000530000000000000         00000000000000000000000TABERNA SEVILHANA LTDA - ME                                           000077
10205539814000112041300648601        CLEAN AMBIENTAL          00016027            109000160274             I02040118000001602700016027            08011800000000125423412897715000000000000000000000000000000000000000000000000000000000000000000000000000000000000000000000000000000410000000000000         00000000000000000000000SHOW ME YOUR TEETH MADUREIRA C                                        000078
10205539814000112041300648601        CLEAN AMBIENTAL          00016028            109000160282             I02040118000001602800016028            08011800000000273423412897715000000000000000000000000000000000000000000000000000000000000000000000000000000000000000000000000000000900000000000000         00000000000000000000000HOTIFRUTI E MERCEARIA SANTA CR                                        000079
10205539814000112041300648601        CLEAN AMBIENTAL          00016029            109000160290             I02040118000001602900016029            08011800000000181843412897715000000000000000000000000000000000000000000000000000000000000000000000000000000000000000000000000000000600000000000000         00000000000000000000000FRANGOLACO DE BANGU RESTAURANT                                        000080
10205539814000112041300648601        CLEAN AMBIENTAL          00016030            109000160308             I02040118000001603000016030            08011800000000423163412897715000000000000000000000000000000000000000000000000000000000000000000000000000000000000000000000000000001400000000000000         00000000000000000000000COSTELARIA RIO BRASIL RESTAURA                                        000081
10205539814000112041300648601        CLEAN AMBIENTAL          00016031            109000160316             I02040118000001603100016031            13011800000000177423412897715000000000000000000000000000000000000000000000000000000000000000000000000000000000000000000000000000000580000000000000         00000000000000000000000PASTELARIA HONG DE BANGU 2009                                         000082
10205539814000112041300648601        CLEAN AMBIENTAL          00016032            109000160324             I02040118000001603200016032            08011800000000267743412897715000000000000000000000000000000000000000000000000000000000000000000000000000000000000000000000000000000880000000000000         00000000000000000000000PADARIA NACIONAL DE SAO CRISTO                                        000083
10205539814000112041300648601        CLEAN AMBIENTAL          00016033            109000160332             I02040118000001603300016033            13011800000000238773412897715000000000000000000000000000000000000000000000000000000000000000000000000000000000000000000000000000000790000000000000         00000000000000000000000BAR E LANCHONETE 2005 R.J.S. L                                        000084
10205539814000112041300648601        CLEAN AMBIENTAL          00016034            109000160340             I02040118000001603400016034            13011800000000333423412897715000000000000000000000000000000000000000000000000000000000000000000000000000000000000000000000000000001100000000000000         00000000000000000000000FONSECA MIX PADARIA E CONFEITA                                        000085
10205539814000112041300648601        CLEAN AMBIENTAL          00016035            109000160357             I02040118000001603500016035            08011800000000289083412897715000000000000000000000000000000000000000000000000000000000000000000000000000000000000000000000000000000950000000000000         00000000000000000000000AKIFRUTAS & LEGUMES FOLHAS VER                                        000086
10205539814000112041300648601        CLEAN AMBIENTAL          00016036            109000160365             I02040118000001603600016036            08011800000000387283412897715000000000000000000000000000000000000000000000000000000000000000000000000000000000000000000000000000001280000000000000         00000000000000000000000BANCO BRADESCO S.A.                                                   000087
10205539814000112041300648601        CLEAN AMBIENTAL          00016037            109000160373             I02040118000001603700016037            08011800000000336583412897715000000000000000000000000000000000000000000000000000000000000000000000000000000000000000000000000000001110000000000000         00000000000000000000000BANCO BRADESCO S.A.                                                   000088
10205539814000112041300648601        CLEAN AMBIENTAL          00016038            109000160381             I02040118000001603800016038            08011800000000369473412897715000000000000000000000000000000000000000000000000000000000000000000000000000000000000000000000000000001220000000000000         00000000000000000000000FLAMENGO BOLO LANCHONETE LTDA                                         000089
10205539814000112041300648601        CLEAN AMBIENTAL          00016039            109000160399             I02040118000001603900016039            08011800000000914473412897715000000000000000000000000000000000000000000000000000000000000000000000000000000000000000000000000000003020000000000000         00000000000000000000000VILLA BUDGET HOSTEL SERVICOS D                                        000090
10205539814000112041300648601        CLEAN AMBIENTAL          00016040            109000160407             I02040118000001604000016040            08011800000000423163412897715000000000000000000000000000000000000000000000000000000000000000000000000000000000000000000000000000001400000000000000         00000000000000000000000COLEGIO GALORY BENTOSO LTDA                                           000091
10205539814000112041300648601        CLEAN AMBIENTAL          00016041            109000160415             I02040118000001604100016041            08011800000000383953412897715000000000000000000000000000000000000000000000000000000000000000000000000000000000000000000000000000001260000000000000         00000000000000000000000CENTRO DE ENSINO KELSEN LTDA                                          000092
10205539814000112041300648601        CLEAN AMBIENTAL          00016043            109000160431             I02040118000001604300016043            13011800000000085003412897715000000000000000000000000000000000000000000000000000000000000000000000000000000000000000000000000000000280000000000000         00000000000000000000000KINOS RECREIO LANCHONETE E BAR                                        000093
10205539814000112041300648601        CLEAN AMBIENTAL          00016044            109000160449             I02040118000001604400016044            13011800000000213423412897715000000000000000000000000000000000000000000000000000000000000000000000000000000000000000000000000000000700000000000000         00000000000000000000000CAFE E BAR BOGARDO LTDA - ME                                          000094
10205539814000112041300648601        CLEAN AMBIENTAL          00016045            109000160456             I02040118000001604500016045            13011800000000232633412897715000000000000000000000000000000000000000000000000000000000000000000000000000000000000000000000000000000770000000000000         00000000000000000000000JORGE DE S LIMA BAR E RESTAURA                                        000095
10205539814000112041300648601        CLEAN AMBIENTAL          00016046            109000160464             I02040118000001604600016046            08011800000000358683412897715000000000000000000000000000000000000000000000000000000000000000000000000000000000000000000000000000001180000000000000         00000000000000000000000LANCHONETE LUIZ DE CAMOES LTDA                                        000096
10205539814000112041300648601        CLEAN AMBIENTAL          00016047            109000160472             I02040118000001604700016047            08011800000000158163412897715000000000000000000000000000000000000000000000000000000000000000000000000000000000000000000000000000000520000000000000         00000000000000000000000THIAGO RICARDO DA SILVA                                               000097
10205539814000112041300648601        CLEAN AMBIENTAL          00016048            109000160480             I02040118000001604800016048            08011800000000154743412897715000000000000000000000000000000000000000000000000000000000000000000000000000000000000000000000000000000510000000000000         00000000000000000000000CONDOMINIO DO EDIFICIO EMPRESA                                        000098
10205539814000112041300648601        CLEAN AMBIENTAL          00016049            109000160498             I02040118000001604900016049            08011800000000285003412897715000000000000000000000000000000000000000000000000000000000000000000000000000000000000000000000000000000940000000000000         00000000000000000000000PESSOA AGUIAR SORVETES E ALIME                                        000099
10205539814000112041300648601        CLEAN AMBIENTAL          00016050            109000160506             I02040118000001605000016050            08011800000000110263412897715000000000000000000000000000000000000000000000000000000000000000000000000000000000000000000000000000000360000000000000         00000000000000000000000UTILICASA DO TANQUE COMERCIO D                                        000100
10205539814000112041300648601        CLEAN AMBIENTAL          00016051            109000160514             I02040118000001605100016051            08011800000000110263412897715000000000000000000000000000000000000000000000000000000000000000000000000000000000000000000000000000000360000000000000         00000000000000000000000GOSTOSURAS DO TANQUE COMERCIO                                         000101
10205539814000112041300648601        CLEAN AMBIENTAL          00016052            109000160522             I02040118000001605200016052            08011800000000265263412897715000000000000000000000000000000000000000000000000000000000000000000000000000000000000000000000000000000870000000000000         00000000000000000000000ABX COMERCIO DE ALIMENTOS LTDA                                        000102
10205539814000112041300648601        CLEAN AMBIENTAL          00016053            109000160530             I02040118000001605300016053            13011800000000402893412897715000000000000000000000000000000000000000000000000000000000000000000000000000000000000000000000000000001330000000000000         00000000000000000000000CONDOMINIO DO EDIFICIO ESPLANA                                        000103
10205539814000112041300648601        CLEAN AMBIENTAL          00016054            109000160548             I02040118000001605400016054            08011800000000347113412897715000000000000000000000000000000000000000000000000000000000000000000000000000000000000000000000000000001150000000000000         00000000000000000000000COMPRIX IMPRESSOS E ETIQUETAS                                         000104
10205539814000112041300648601        CLEAN AMBIENTAL          00016055            109000160555             I02040118000001605500016055            08011800000000391843412897715000000000000000000000000000000000000000000000000000000000000000000000000000000000000000000000000000001290000000000000         00000000000000000000000CONDOMINIO DO EDIFICIO SARANDY                                        000105
10205539814000112041300648601        CLEAN AMBIENTAL          00016056            109000160563             I02040118000001605600016056            08011800000000320793412897715000000000000000000000000000000000000000000000000000000000000000000000000000000000000000000000000000001060000000000000         00000000000000000000000CONDOMINIO DO EDIFICIO OUVIDOR                                        000106
10205539814000112041300648601        CLEAN AMBIENTAL          00016057            109000160571             I02040118000001605700016057            08011800000000157893412897715000000000000000000000000000000000000000000000000000000000000000000000000000000000000000000000000000000520000000000000         00000000000000000000000RMS - LANCHES LTDA. - ME                                              000107
10205539814000112041300648601        CLEAN AMBIENTAL          00016058            109000160589             I02040118000001605800016058            08011800000000202383412897715000000000000000000000000000000000000000000000000000000000000000000000000000000000000000000000000000000670000000000000         00000000000000000000000VALENTE PRODUCAO DE DOCES LTDA                                        000108
10205539814000112041300648601        CLEAN AMBIENTAL          00016059            109000160597             I02040118000001605900016059            08011800000000115533412897715000000000000000000000000000000000000000000000000000000000000000000000000000000000000000000000000000000380000000000000         00000000000000000000000POSTO DE GASOLINA BOA FE LTDA                                         000109
10205539814000112041300648601        CLEAN AMBIENTAL          00016060            109000160605             I02040118000001606000016060            08011800000000132633412897715000000000000000000000000000000000000000000000000000000000000000000000000000000000000000000000000000000440000000000000         00000000000000000000000MAGIA DE CAMPO GRANDE COMERCIO                                        000110
10205539814000112041300648601        CLEAN AMBIENTAL          00016061            109000160613             I02040118000001606100016061            13011800000000194473412897715000000000000000000000000000000000000000000000000000000000000000000000000000000000000000000000000000000640000000000000         00000000000000000000000LANCHONETE GAROTA DO TRAJANO L                                        000111
10205539814000112041300648601        CLEAN AMBIENTAL          00016062            109000160621             I02040118000001606200016062            08011800000000858163412897715000000000000000000000000000000000000000000000000000000000000000000000000000000000000000000000000000002830000000000000         00000000000000000000000HORTI LIFE FRUTAS E LEGUMES EI                                        000112
10205539814000112041300648601        CLEAN AMBIENTAL          00016063            109000160639             I02040118000001606300016063            08011800000000141843412897715000000000000000000000000000000000000000000000000000000000000000000000000000000000000000000000000000000470000000000000         00000000000000000000000JAURU MANIA LANCHONETE E PIZZA                                        000113
10205539814000112041300648601        CLEAN AMBIENTAL          00016064            109000160647             I02040118000001606400016064            08011800000000320533412897715000000000000000000000000000000000000000000000000000000000000000000000000000000000000000000000000000001060000000000000         00000000000000000000000ASSOCIACAO ARQUIDIOCESANA TARD                                        000114
10205539814000112041300648601        CLEAN AMBIENTAL          00016065            109000160654             I02040118000001606500016065            08011800000000131323412897715000000000000000000000000000000000000000000000000000000000000000000000000000000000000000000000000000000430000000000000         00000000000000000000000PEQUENA ITALIA BARRA LANCHONET                                        000115
10205539814000112041300648601        CLEAN AMBIENTAL          00016066            109000160662             I02040118000001606600016066            08011800000000122893412897715000000000000000000000000000000000000000000000000000000000000000000000000000000000000000000000000000000400000000000000         00000000000000000000000MERCEARIA ALBANY LTDA - ME                                            000116
10205539814000112041300648601        CLEAN AMBIENTAL          00016067            109000160670             I02040118000001606700016067            08011800000000230003412897715000000000000000000000000000000000000000000000000000000000000000000000000000000000000000000000000000000760000000000000         00000000000000000000000LOURENCO\'S CHURRASCARIA E PIZ                                        000117
10205539814000112041300648601        CLEAN AMBIENTAL          00016068            109000160688             I02040118000001606800016068            08011800000000157893412897715000000000000000000000000000000000000000000000000000000000000000000000000000000000000000000000000000000520000000000000         00000000000000000000000COLEGIO ICARO LTDA. - EPP                                             000118
10205539814000112041300648601        CLEAN AMBIENTAL          00016069            109000160696             I02040118000001606900016069            13011800000000194473412897715000000000000000000000000000000000000000000000000000000000000000000000000000000000000000000000000000000640000000000000         00000000000000000000000PEIXE NA LAPA LANCHONETE E BAR                                        000119
10205539814000112041300648601        CLEAN AMBIENTAL          00016070            109000160704             I02040118000001607000016070            13011800000000203953412897715000000000000000000000000000000000000000000000000000000000000000000000000000000000000000000000000000000670000000000000         00000000000000000000000PADARIA FLOR DA AVENIDA LTDA                                          000120
10205539814000112041300648601        CLEAN AMBIENTAL          00016071            109000160712             I02040118000001607100016071            08011800000000137633412897715000000000000000000000000000000000000000000000000000000000000000000000000000000000000000000000000000000450000000000000         00000000000000000000000BAR E RESTAURANTE SUBSOLO 14 L                                        000121
10205539814000112041300648601        CLEAN AMBIENTAL          00016072            109000160720             I02040118000001607200016072            08011800000000131323412897715000000000000000000000000000000000000000000000000000000000000000000000000000000000000000000000000000000430000000000000         00000000000000000000000RESTAURANTE QUINTAL DO MEIER L                                        000122
10205539814000112041300648601        CLEAN AMBIENTAL          00016073            109000160738             I02040118000001607300016073            08011800000000291843412897715000000000000000000000000000000000000000000000000000000000000000000000000000000000000000000000000000000960000000000000         00000000000000000000000AR DE SANTA TERESA BAR E RESTA                                        000123
10205539814000112041300648601        CLEAN AMBIENTAL          00016074            109000160746             I02040118000001607400016074            08011800000000205003412897715000000000000000000000000000000000000000000000000000000000000000000000000000000000000000000000000000000680000000000000         00000000000000000000000ALAIA GASTRONOMIA LTDA - EPP                                          000124
10205539814000112041300648601        CLEAN AMBIENTAL          00016075            109000160753             I02040118000001607500016075            08011800000000128163412897715000000000000000000000000000000000000000000000000000000000000000000000000000000000000000000000000000000420000000000000         00000000000000000000000TERRAS DE AVENTURA INDUSTRIA D                                        000125
10205539814000112041300648601        CLEAN AMBIENTAL          00016076            109000160761             I02040118000001607600016076            08011800000000142373412897715000000000000000000000000000000000000000000000000000000000000000000000000000000000000000000000000000000470000000000000         00000000000000000000000TERRAS DE AVENTURA INDUSTRIA D                                        000126
10205539814000112041300648601        CLEAN AMBIENTAL          00016077            109000160779             I02040118000001607700016077            08011800000000573423412897715000000000000000000000000000000000000000000000000000000000000000000000000000000000000000000000000000001890000000000000         00000000000000000000000HORTIFRUTI GENERAL ROCA EIRELI                                        000127
10205539814000112041300648601        CLEAN AMBIENTAL          00016078            109000160787             I02040118000001607800016078            08011800000000162893412897715000000000000000000000000000000000000000000000000000000000000000000000000000000000000000000000000000000530000000000000         00000000000000000000000PANIFICACAO ESTUDANTIL LTDA -                                         000128
10205539814000112041300648601        CLEAN AMBIENTAL          00016079            109000160795             I02040118000001607900016079            13011800000000194473412897715000000000000000000000000000000000000000000000000000000000000000000000000000000000000000000000000000000640000000000000         00000000000000000000000RESTAURANTE E BAR RIO GEREZ LT                                        000129
10205539814000112041300648601        CLEAN AMBIENTAL          00016080            109000160803             I02040118000001608000016080            08011800000000133953412897715000000000000000000000000000000000000000000000000000000000000000000000000000000000000000000000000000000440000000000000         00000000000000000000000MODULADOS RENAN RIO LTDA - EPP                                        000130
10205539814000112041300648601        CLEAN AMBIENTAL          00016081            109000160811             I02040118000001608100016081            08011800000000202373412897715000000000000000000000000000000000000000000000000000000000000000000000000000000000000000000000000000000670000000000000         00000000000000000000000ASTRAL NATURAL ALIMENTACAO SAU                                        000131
10205539814000112041300648601        CLEAN AMBIENTAL          00016082            109000160829             I02040118000001608200016082            08011800000000510263412897715000000000000000000000000000000000000000000000000000000000000000000000000000000000000000000000000000001680000000000000         00000000000000000000000INSTITUTO CIRURGICO GABRIEL DE                                        000132
10205539814000112041300648601        CLEAN AMBIENTAL          00016083            109000160837             I02040118000001608300016083            08011800000000205213412897715000000000000000000000000000000000000000000000000000000000000000000000000000000000000000000000000000000680000000000000         00000000000000000000000SAUDE E FORCA PRODUTOS NATURAI                                        000133
10205539814000112041300648601        CLEAN AMBIENTAL          00016084            109000160845             I02040118000001608400016084            08011800000000162893412897715000000000000000000000000000000000000000000000000000000000000000000000000000000000000000000000000000000530000000000000         00000000000000000000000FELIPE DE OLIVEIRA NOGUEIRA 15                                        000134
10205539814000112041300648601        CLEAN AMBIENTAL          00016085            109000160852             I02040118000001608500016085            08011800000000982893412897715000000000000000000000000000000000000000000000000000000000000000000000000000000000000000000000000000003240000000000000         00000000000000000000000SUPERPRIX LOJAS DE ALIMENTOS L                                        000135
10205539814000112041300648601        CLEAN AMBIENTAL          00016086            109000160860             I02040118000001608600016086            08011800000001855003412897715000000000000000000000000000000000000000000000000000000000000000000000000000000000000000000000000000000010000000000000         00000000000000000000000SUPERPRIX LOJAS DE ALIMENTOS L                                        000136
10205539814000112041300648601        CLEAN AMBIENTAL          00016087            109000160878             I02040118000001608700016087            08011800000000189473412897715000000000000000000000000000000000000000000000000000000000000000000000000000000000000000000000000000000620000000000000         00000000000000000000000BOTAVIDROS COMERCIO E INDUSTRI                                        000137
10205539814000112041300648601        CLEAN AMBIENTAL          00016088            109000160886             I02040118000001608800016088            13011800000000194473412897715000000000000000000000000000000000000000000000000000000000000000000000000000000000000000000000000000000640000000000000         00000000000000000000000KIKO E NANDO CEREAIS LTDA - ME                                        000138
10205539814000112041300648601        CLEAN AMBIENTAL          00016089            109000160894             I02040118000001608900016089            13011800000000154743412897715000000000000000000000000000000000000000000000000000000000000000000000000000000000000000000000000000000510000000000000         00000000000000000000000MARISOL RIO LANCHES LTDA                                              000139
10205539814000112041300648601        CLEAN AMBIENTAL          00016090            109000160902             I02040118000001609000016090            08011800000000194473412897715000000000000000000000000000000000000000000000000000000000000000000000000000000000000000000000000000000640000000000000         00000000000000000000000MARVA COLLINS CENTRO EDUCACION                                        000140
10205539814000112041300648601        CLEAN AMBIENTAL          00016091            109000160910             I02040118000001609100016091            08011800000000232843412897715000000000000000000000000000000000000000000000000000000000000000000000000000000000000000000000000000000770000000000000         00000000000000000000000ZOT RESTAURANTE E GASTRONOMIA                                         000141
10205539814000112041300648601        CLEAN AMBIENTAL          00016092            109000160928             I02040118000001609200016092            13011800000000164213412897715000000000000000000000000000000000000000000000000000000000000000000000000000000000000000000000000000000540000000000000         00000000000000000000000CAFE E BAR TONDELA LTDA - ME                                          000142
10205539814000112041300648601        CLEAN AMBIENTAL          00016093            109000160936             I02040118000001609300016093            08011800000000169213412897715000000000000000000000000000000000000000000000000000000000000000000000000000000000000000000000000000000560000000000000         00000000000000000000000JOSE HIGINO LANCHES LTDA - ME                                         000143
10205539814000112041300648601        CLEAN AMBIENTAL          00016094            109000160944             I02040118000001609400016094            08011800000000181843412897715000000000000000000000000000000000000000000000000000000000000000000000000000000000000000000000000000000600000000000000         00000000000000000000000LA VILLE KIDS ESPACO INFANTIL                                         000144
10205539814000112041300648601        CLEAN AMBIENTAL          00016095            109000160951             I02040118000001609500016095            09011800000000691953412897715000000000000000000000000000000000000000000000000000000000000000000000000000000000000000000000000000002280000000000000         00000000000000000000000LA RESIDENCE CENTRO RESIDENCIA                                        000145
10205539814000112041300648601        CLEAN AMBIENTAL          00016096            109000160969             I02040118000001609600016096            09011800000000248953412897715000000000000000000000000000000000000000000000000000000000000000000000000000000000000000000000000000000820000000000000         00000000000000000000000PRINCESINHA DA ILHA PADARIA E                                         000146
10205539814000112041300648601        CLEAN AMBIENTAL          00016097            109000160977             I02040118000001609700016097            09011800000001055793412897715000000000000000000000000000000000000000000000000000000000000000000000000000000000000000000000000000003480000000000000         00000000000000000000000DC GRILL CHURRASCARIA LTDA                                            000147
10205539814000112041300648601        CLEAN AMBIENTAL          00016098            109000160985             I02040118000001609800016098            09011800000001692703410059615000000000000000000000000000000000000000000000000000000000000000000000000000000000000000000000000000000010000000000000         00000000000000000000000QUINDIN COMESTIVEIS LTDA                                              000148
10205539814000112041300648601        CLEAN AMBIENTAL          00016099            109000160993             I02040118000001609900016099            09011800000000481283411282315000000000000000000000000000000000000000000000000000000000000000000000000000000000000000000000000000001590000000000000         00000000000000000000000FABRICA DE CONSERVAS ADCRIS LT                                        000149
10205539814000112041300648601        CLEAN AMBIENTAL          00016100            109000161009             I02040118000001610000016100            09011800000000406873412897715000000000000000000000000000000000000000000000000000000000000000000000000000000000000000000000000000001340000000000000         00000000000000000000000LANCHONETE DAS FRUTAS  DO NORT                                        000150
10205539814000112041300648601        CLEAN AMBIENTAL          00016101            109000161017             I02040118000001610100016101            10011800000000901353412897715000000000000000000000000000000000000000000000000000000000000000000000000000000000000000000000000000002970000000000000         00000000000000000000000TECHNOGYM EQUIPAM. DE GINAS. E                                        000151
10205539814000112041300648601        CLEAN AMBIENTAL          00016102            109000161025             I02040118000001610200016102            09011800000000210793412897715000000000000000000000000000000000000000000000000000000000000000000000000000000000000000000000000000000690000000000000         00000000000000000000000CENTRO DE MICROCIRURGIA E DIAG                                        000152
10205539814000112041300648601        CLEAN AMBIENTAL          00016103            109000161033             I02040118000001610300016103            09011800000000197313412897715000000000000000000000000000000000000000000000000000000000000000000000000000000000000000000000000000000650000000000000         00000000000000000000000R&L CENTRO DE ESTETICA LTDA -                                         000153
10205539814000112041300648601        CLEAN AMBIENTAL          00016104            109000161041             I02040118000001610400016104            09011800000000388883412897715000000000000000000000000000000000000000000000000000000000000000000000000000000000000000000000000000001280000000000000         00000000000000000000000SOCIEDADE EDUCACIONAL GIRASSOL                                        000154
10205539814000112041300648601        CLEAN AMBIENTAL          00016105            109000161058             I02040118000001610500016105            09011800000000600163412897715000000000000000000000000000000000000000000000000000000000000000000000000000000000000000000000000000001980000000000000         00000000000000000000000ELITE DO CHURRASCO E RESTAURAN                                        000155
10205539814000112041300648601        CLEAN AMBIENTAL          00016106            109000161066             I02040118000001610600016106            09011800000000720143412897715000000000000000000000000000000000000000000000000000000000000000000000000000000000000000000000000000002380000000000000         00000000000000000000000ESPACO CAVERNA RESTAURANTE LTD                                        000156
10205539814000112041300648601        CLEAN AMBIENTAL          00016107            109000161074             I02040118000001610700016107            09011800000000803813412897715000000000000000000000000000000000000000000000000000000000000000000000000000000000000000000000000000002650000000000000         00000000000000000000000TERE HORTIFRUTI COMERCIO DE AL                                        000157
10205539814000112041300648601        CLEAN AMBIENTAL          00016108            109000161082             I02040118000001610800016108            09011800000000619473412897715000000000000000000000000000000000000000000000000000000000000000000000000000000000000000000000000000002040000000000000         00000000000000000000000ACADEMIA RIO WILLNESS LTDA                                            000158
10205539814000112041300648601        CLEAN AMBIENTAL          00016109            109000161090             I02040118000001610900016109            09011800000000421633412897715000000000000000000000000000000000000000000000000000000000000000000000000000000000000000000000000000001390000000000000         00000000000000000000000CAFE E BAR CONTABILISTA LTDA                                          000159
10205539814000112041300648601        CLEAN AMBIENTAL          00016110            109000161108             I02040118000001611000016110            09011800000000648233412897715000000000000000000000000000000000000000000000000000000000000000000000000000000000000000000000000000002140000000000000         00000000000000000000000BAR E LARANJADA ACAT LTDA                                             000160
10205539814000112041300648601        CLEAN AMBIENTAL          00016111            109000161116             I02040118000001611100016111            09011800000000685843412897715000000000000000000000000000000000000000000000000000000000000000000000000000000000000000000000000000002260000000000000         00000000000000000000000GASINDUR DO BRASIL LTDA                                               000161
10205539814000112041300648601        CLEAN AMBIENTAL          00016112            109000161124             I02040118000001611200016112            09011800000000496053412897715000000000000000000000000000000000000000000000000000000000000000000000000000000000000000000000000000001640000000000000         00000000000000000000000HOTEL VILA RICA LTDA                                                  000162
10205539814000112041300648601        CLEAN AMBIENTAL          00016113            109000161132             I02040118000001611300016113            09011800000000637063412897715000000000000000000000000000000000000000000000000000000000000000000000000000000000000000000000000000002100000000000000         00000000000000000000000MULTGAS POSTO DE GASOLINA LTDA                                        000163
10205539814000112041300648601        CLEAN AMBIENTAL          00016114            109000161140             I02040118000001611400016114            09011800000000498953412897715000000000000000000000000000000000000000000000000000000000000000000000000000000000000000000000000000001640000000000000         00000000000000000000000PADARIA E CONFEITARIA MOUZINHO                                        000164
10205539814000112041300648601        CLEAN AMBIENTAL          00016115            109000161157             I02040118000001611500016115            09011800000000365513412897715000000000000000000000000000000000000000000000000000000000000000000000000000000000000000000000000000001200000000000000         00000000000000000000000DGS COMERCIO DE ALIMENTOS LTDA                                        000165
10205539814000112041300648601        CLEAN AMBIENTAL          00016116            109000161165             I02040118000001611600016116            09011800000000042893412897715000000000000000000000000000000000000000000000000000000000000000000000000000000000000000000000000000000140000000000000         00000000000000000000000BEACH BACKPACKERS HOSTEL LTDA                                         000166
10205539814000112041300648601        CLEAN AMBIENTAL          00016117            109000161173             I02040118000001611700016117            09011800000000270263412897715000000000000000000000000000000000000000000000000000000000000000000000000000000000000000000000000000000890000000000000         00000000000000000000000RESTAURANTE EXPRESSO SELF SERV                                        000167
10205539814000112041300648601        CLEAN AMBIENTAL          00016118            109000161181             I02040118000001611800016118            09011800000001082973412897715000000000000000000000000000000000000000000000000000000000000000000000000000000000000000000000000000003570000000000000         00000000000000000000000CHURRASCARIA TRADICAO DO SUL L                                        000168
10205539814000112041300648601        CLEAN AMBIENTAL          00016119            109000161199             I02040118000001611900016119            09011800000001082973412897715000000000000000000000000000000000000000000000000000000000000000000000000000000000000000000000000000003570000000000000         00000000000000000000000ROMA GRILL EIRELI                                                     000169
10205539814000112041300648601        CLEAN AMBIENTAL          00016120            109000161207             I02040118000001612000016120            09011800000001082183412897715000000000000000000000000000000000000000000000000000000000000000000000000000000000000000000000000000003570000000000000         00000000000000000000000RESTAURANTE E PIZZARIA WEST GR                                        000170
10205539814000112041300648601        CLEAN AMBIENTAL          00016121            109000161215             I02040118000001612100016121            09011800000000150633412897715000000000000000000000000000000000000000000000000000000000000000000000000000000000000000000000000000000500000000000000         00000000000000000000000LONDRES 2008 LANCHES LTDA. - M                                        000171
10205539814000112041300648601        CLEAN AMBIENTAL          00016122            109000161223             I02040118000001612200016122            09011800000001424403412897715000000000000000000000000000000000000000000000000000000000000000000000000000000000000000000000000000004700000000000000         00000000000000000000000DUARTE MAISON RECOLHIMENTO PAR                                        000172
10205539814000112041300648601        CLEAN AMBIENTAL          00016123            109000161231             I02040118000001612300016123            09011800000000472413412897715000000000000000000000000000000000000000000000000000000000000000000000000000000000000000000000000000001560000000000000         00000000000000000000000SOL DA BARRA 880 APART HOTEL L                                        000173
10205539814000112041300648601        CLEAN AMBIENTAL          00016124            109000161249             I02040118000001612400016124            09011800000003249263412897715000000000000000000000000000000000000000000000000000000000000000000000000000000000000000000000000000000010000000000000         00000000000000000000000ASSOCIACAO DE MORADORES QUINTA                                        000174
10205539814000112041300648601        CLEAN AMBIENTAL          00016125            109000161256             I02040118000001612500016125            09011800000000426733412897715000000000000000000000000000000000000000000000000000000000000000000000000000000000000000000000000000001410000000000000         00000000000000000000000LARALEGO COMERCIO DE PRODUTOS                                         000175
10205539814000112041300648601        CLEAN AMBIENTAL          00016126            109000161264             I02040118000001612600016126            09011800000000484463412897715000000000000000000000000000000000000000000000000000000000000000000000000000000000000000000000000000001600000000000000         00000000000000000000000ZIZA BAR LTDA - ME                                                    000176
10205539814000112041300648601        CLEAN AMBIENTAL          00016127            109000161272             I02040118000001612700016127            09011800000000342893412897715000000000000000000000000000000000000000000000000000000000000000000000000000000000000000000000000000001130000000000000         00000000000000000000000POUSADA SHENKIN LTDA - ME                                             000177
10205539814000112041300648601        CLEAN AMBIENTAL          00016128            109000161280             I02040118000001612800016128            09011800000000892823412897715000000000000000000000000000000000000000000000000000000000000000000000000000000000000000000000000000002940000000000000         00000000000000000000000BAR E RESTAURANTE VOLGA LTDA -                                        000178
10205539814000112041300648601        CLEAN AMBIENTAL          00016129            109000161298             I02040118000001612900016129            09011800000000460363412897715000000000000000000000000000000000000000000000000000000000000000000000000000000000000000000000000000001520000000000000         00000000000000000000000SUCOS E SORVETERIA SUISSA LTDA                                        000179
10205539814000112041300648601        CLEAN AMBIENTAL          00016130            109000161306             I02040118000001613000016130            09011800000000322213412897715000000000000000000000000000000000000000000000000000000000000000000000000000000000000000000000000000001060000000000000         00000000000000000000000VILLA 106 ALIMENTOS LTDA - EPP                                        000180
10205539814000112041300648601        CLEAN AMBIENTAL          00016131            109000161314             I02040118000001613100016131            09011800000000405003412897715000000000000000000000000000000000000000000000000000000000000000000000000000000000000000000000000000001340000000000000         00000000000000000000000JK COMERCIO DE ALIMENTOS LTDA                                         000181
10205539814000112041300648601        CLEAN AMBIENTAL          00016132            109000161322             I02040118000001613200016132            09011800000000404003412897715000000000000000000000000000000000000000000000000000000000000000000000000000000000000000000000000000001330000000000000         00000000000000000000000PANIFICACAO GOVERNADOR LTDA -                                         000182
10205539814000112041300648601        CLEAN AMBIENTAL          00016133            109000161330             I02040118000001613300016133            09011800000000406373412897715000000000000000000000000000000000000000000000000000000000000000000000000000000000000000000000000000001340000000000000         00000000000000000000000PANIFICACAO E CONFEITARIA TAUA                                        000183
10205539814000112041300648601        CLEAN AMBIENTAL          00016134            109000161348             I02040118000001613400016134            09011800000000427113412897715000000000000000000000000000000000000000000000000000000000000000000000000000000000000000000000000000001410000000000000         00000000000000000000000SORVETERIA GRAJAU LTDA - ME                                           000184
10205539814000112041300648601        CLEAN AMBIENTAL          00016135            109000161355             I02040118000001613500016135            09011800000000176053412897715000000000000000000000000000000000000000000000000000000000000000000000000000000000000000000000000000000580000000000000         00000000000000000000000LULUS BOLOS COMERCIO DE ALIMEN                                        000185
10205539814000112041300648601        CLEAN AMBIENTAL          00016136            109000161363             I02040118000001613600016136            09011800000000177113412897715000000000000000000000000000000000000000000000000000000000000000000000000000000000000000000000000000000580000000000000         00000000000000000000000MERCADO DE CARNES IRMAOS DA VI                                        000186
10205539814000112041300648601        CLEAN AMBIENTAL          00016137            109000161371             I02040118000001613700016137            09011800000000297943412897715000000000000000000000000000000000000000000000000000000000000000000000000000000000000000000000000000000980000000000000         00000000000000000000000PADARIA MARIA FARINHA LTDA - M                                        000187
10205539814000112041300648601        CLEAN AMBIENTAL          00016138            109000161389             I02040118000001613800016138            09011800000000567263412897715000000000000000000000000000000000000000000000000000000000000000000000000000000000000000000000000000001870000000000000         00000000000000000000000M3FC RESTAURANTE LTDA - ME                                            000188
10205539814000112041300648601        CLEAN AMBIENTAL          00016139            109000161397             I02040118000001613900016139            09011800000000336583412897715000000000000000000000000000000000000000000000000000000000000000000000000000000000000000000000000000001110000000000000         00000000000000000000000BEER 16 PETISCARIA LTDA - ME                                          000189
10205539814000112041300648601        CLEAN AMBIENTAL          00016141            109000161413             I02040118000001614100016141            09011800000000342893412897715000000000000000000000000000000000000000000000000000000000000000000000000000000000000000000000000000001130000000000000         00000000000000000000000MESTRE SALA ALIMENTACAO LTDA M                                        000190
10205539814000112041300648601        CLEAN AMBIENTAL          00016142            109000161421             I02040118000001614200016142            09011800000000178953412897715000000000000000000000000000000000000000000000000000000000000000000000000000000000000000000000000000000590000000000000         00000000000000000000000BAR PAISAGEM DA CIDADE LTDA -                                         000191
10205539814000112041300648601        CLEAN AMBIENTAL          00016144            109000161447             I02040118000001614400016144            09011800000000318333412897715000000000000000000000000000000000000000000000000000000000000000000000000000000000000000000000000000001050000000000000         00000000000000000000000AMF1 PARTICIPACOES E EMPREENDI                                        000192
10205539814000112041300648601        CLEAN AMBIENTAL          00016145            109000161454             I02040118000001614500016145            09011800000000311323412897715000000000000000000000000000000000000000000000000000000000000000000000000000000000000000000000000000001030000000000000         00000000000000000000000GALETO MANIA DA TIJUCA RESTAUR                                        000193
10205539814000112041300648601        CLEAN AMBIENTAL          00016146            109000161462             I02040118000001614600016146            09011800000000143423412897715000000000000000000000000000000000000000000000000000000000000000000000000000000000000000000000000000000470000000000000         00000000000000000000000UTILICASA DE IPANEMA LTDA - ME                                        000194
10205539814000112041300648601        CLEAN AMBIENTAL          00016147            109000161470             I02040118000001614700016147            09011800000000187373412897715000000000000000000000000000000000000000000000000000000000000000000000000000000000000000000000000000000620000000000000         00000000000000000000000CAFE E BAR ALVITE LTDA - ME                                           000195
10205539814000112041300648601        CLEAN AMBIENTAL          00016148            109000161488             I02040118000001614800016148            14011800000000153423412897715000000000000000000000000000000000000000000000000000000000000000000000000000000000000000000000000000000500000000000000         00000000000000000000000T. C. A. DOS SANTOS F. VIANNA                                         000196
10205539814000112041300648601        CLEAN AMBIENTAL          00016149            109000161496             I02040118000001614900016149            09011800000001665263412897715000000000000000000000000000000000000000000000000000000000000000000000000000000000000000000000000000000010000000000000         00000000000000000000000COMERCIO DE HORT FRUIT GRAJAU                                         000197
10205539814000112041300648601        CLEAN AMBIENTAL          00016150            109000161504             I02040118000001615000016150            09011800000000230003412897715000000000000000000000000000000000000000000000000000000000000000000000000000000000000000000000000000000760000000000000         00000000000000000000000CID BAR E SELF SERVICE LTDA -                                         000198
10205539814000112041300648601        CLEAN AMBIENTAL          00016152            109000161520             I02040118000001615200016152            09011800000000277623412897715000000000000000000000000000000000000000000000000000000000000000000000000000000000000000000000000000000910000000000000         00000000000000000000000BAR FAVAIOS LANCHONETE LTDA -                                         000199
10205539814000112041300648601        CLEAN AMBIENTAL          00016153            109000161538             I02040118000001615300016153            09011800000000181113412897715000000000000000000000000000000000000000000000000000000000000000000000000000000000000000000000000000000600000000000000         00000000000000000000000TIBAR TAQUARA LTDA - ME                                               000200
10205539814000112041300648601        CLEAN AMBIENTAL          00016154            109000161546             I02040118000001615400016154            09011800000000181053412897715000000000000000000000000000000000000000000000000000000000000000000000000000000000000000000000000000000600000000000000         00000000000000000000000ARTE & PALADAR COMESTIVEIS LTD                                        000201
10205539814000112041300648601        CLEAN AMBIENTAL          00016155            109000161553             I02040118000001615500016155            09011800000000177893412897715000000000000000000000000000000000000000000000000000000000000000000000000000000000000000000000000000000580000000000000         00000000000000000000000COLEGIO CURSO NETTO LTDA - ME                                         000202
10205539814000112041300648601        CLEAN AMBIENTAL          00016156            109000161561             I02040118000001615600016156            09011800000000183423412897715000000000000000000000000000000000000000000000000000000000000000000000000000000000000000000000000000000600000000000000         00000000000000000000000PADARIA E CONFEITARIA RAINHA D                                        000203
10205539814000112041300648601        CLEAN AMBIENTAL          00016157            109000161579             I02040118000001615700016157            09011800000000151843412897715000000000000000000000000000000000000000000000000000000000000000000000000000000000000000000000000000000500000000000000         00000000000000000000000BAR E LANCHONETE RIO DA PRATA                                         000204
10205539814000112041300648601        CLEAN AMBIENTAL          00016158            109000161587             I02040118000001615800016158            09011800000000147633412897715000000000000000000000000000000000000000000000000000000000000000000000000000000000000000000000000000000490000000000000         00000000000000000000000BAR E RESTAURANTE PINGO D\\\'P                                        000205
10205539814000112041300648601        CLEAN AMBIENTAL          00016159            109000161595             I02040118000001615900016159            14011800000000122363412897715000000000000000000000000000000000000000000000000000000000000000000000000000000000000000000000000000000400000000000000         00000000000000000000000PADARIA TRES MENINOS LTDA - ME                                        000206
10205539814000112041300648601        CLEAN AMBIENTAL          00016160            109000161603             I02040118000001616000016160            09011800000000133423412897715000000000000000000000000000000000000000000000000000000000000000000000000000000000000000000000000000000440000000000000         00000000000000000000000MS REFEICOES E LANCHONETE EIRE                                        000207
10205539814000112041300648601        CLEAN AMBIENTAL          00016161            109000161611             I02040118000001616100016161            09011800000000154213412897715000000000000000000000000000000000000000000000000000000000000000000000000000000000000000000000000000000510000000000000         00000000000000000000000COM BOLO INDUSTRIA E COMERCIO                                         000208
10205539814000112041300648601        CLEAN AMBIENTAL          00016162            109000161629             I02040118000001616200016162            14011800000000241053412897715000000000000000000000000000000000000000000000000000000000000000000000000000000000000000000000000000000800000000000000         00000000000000000000000COMERCIAL DISTRIBUIDORA MARNO                                         000209
10205539814000112041300648601        CLEAN AMBIENTAL          00016163            109000161637             I02040118000001616300016163            14011800000000207893412897715000000000000000000000000000000000000000000000000000000000000000000000000000000000000000000000000000000680000000000000         00000000000000000000000SOCIEDADE EDUCACIONAL RECRIAND                                        000210
10205539814000112041300648601        CLEAN AMBIENTAL          00016164            109000161645             I02040118000001616400016164            09011800000000126323412897715000000000000000000000000000000000000000000000000000000000000000000000000000000000000000000000000000000420000000000000         00000000000000000000000CAFE DO FORUM CAFETERIA GOURME                                        000211
10205539814000112041300648601        CLEAN AMBIENTAL          00016165            109000161652             I02040118000001616500016165            08011800000000156583412897715000000000000000000000000000000000000000000000000000000000000000000000000000000000000000000000000000000510000000000000         00000000000000000000000SABOR REAL RESTAURANTE E LANCH                                        000212
10205539814000112041300648601        CLEAN AMBIENTAL          00016166            109000161660             I02040118000001616600016166            09011800000001355003412897715000000000000000000000000000000000000000000000000000000000000000000000000000000000000000000000000000004470000000000000         00000000000000000000000MINI MARKET BARRA SUL MERCADO                                         000213
10205539814000112041300648601        CLEAN AMBIENTAL          00016168            109000161686             I02040118000001616800016168            09011800000000870003412897715000000000000000000000000000000000000000000000000000000000000000000000000000000000000000000000000000002870000000000000         00000000000000000000000BRASA CARNES E BEER EIRELI                                            000214
10205539814000112041300648601        CLEAN AMBIENTAL          00016169            109000161694             I02040118000001616900016169            09011800000000220533412897715000000000000000000000000000000000000000000000000000000000000000000000000000000000000000000000000000000730000000000000         00000000000000000000000ACOUGUE VISCONDE DE OURO PRETO                                        000215
10205539814000112041300648601        CLEAN AMBIENTAL          00016170            109000161702             I02040118000001617000016170            09011800000000251583412897715000000000000000000000000000000000000000000000000000000000000000000000000000000000000000000000000000000830000000000000         00000000000000000000000EDIFICIO SANTA ISABEL                                                 000216
10205539814000112041300648601        CLEAN AMBIENTAL          00016172            109000161728             I02040118000001617200016172            09011800000000156843412897715000000000000000000000000000000000000000000000000000000000000000000000000000000000000000000000000000000510000000000000         00000000000000000000000F&F LANCHES E REFEICOES LTDA                                          000217
10205539814000112041300648601        CLEAN AMBIENTAL          00016173            109000161736             I02040118000001617300016173            15011800000000295533412897715000000000000000000000000000000000000000000000000000000000000000000000000000000000000000000000000000000970000000000000         00000000000000000000000BANCO BRADESCO S.A                                                    000218
10205539814000112041300648601        CLEAN AMBIENTAL          00016174            109000161744             I02040118000001617400016174            14011800000000280533412897715000000000000000000000000000000000000000000000000000000000000000000000000000000000000000000000000000000920000000000000         00000000000000000000000CAFE E BAR BAMBI LTDA M E - ME                                        000219
10205539814000112041300648601        CLEAN AMBIENTAL          00016176            109000161769             I02040118000001617600016176            09011800000000219743412897715000000000000000000000000000000000000000000000000000000000000000000000000000000000000000000000000000000720000000000000         00000000000000000000000COR E ACAO PIZZARIA E LANCHONE                                        000220
10205539814000112041300648601        CLEAN AMBIENTAL          00016178            109000161785             I02040118000001617800016178            09011800000000185003412897715000000000000000000000000000000000000000000000000000000000000000000000000000000000000000000000000000000610000000000000         00000000000000000000000TELAO CHURRASCO E EVENTOS O PO                                        000221
10205539814000112041300648601        CLEAN AMBIENTAL          00016179            109000161793             I02040118000001617900016179            09011800000000147113412897715000000000000000000000000000000000000000000000000000000000000000000000000000000000000000000000000000000490000000000000         00000000000000000000000EMPORIO SANTA OLIVA EIRELI                                            000222
10205539814000112041300648601        CLEAN AMBIENTAL          00016180            109000161801             I02040118000001618000016180            09011800000001373003412897715000000000000000000000000000000000000000000000000000000000000000000000000000000000000000000000000000004530000000000000         00000000000000000000000CONDOMINIO DO EDIFICIO BARRA P                                        000223
10205539814000112041300648601        CLEAN AMBIENTAL          00016181            109000161819             I02040118000001618100016181            09011800000000190263412897715000000000000000000000000000000000000000000000000000000000000000000000000000000000000000000000000000000630000000000000         00000000000000000000000CONDOMINIO DO EDIFICIO PALLAS                                         000224
10205539814000112041300648601        CLEAN AMBIENTAL          00016182            109000161827             I02040118000001618200016182            10011800000000218683412897715000000000000000000000000000000000000000000000000000000000000000000000000000000000000000000000000000000720000000000000         00000000000000000000000CONDOMINIO DO EDIFICIO VISCOND                                        000225
10205539814000112041300648601        CLEAN AMBIENTAL          00016185            109000161850             I02040118000001618500016185            19011800000000168113412897715000000000000000000000000000000000000000000000000000000000000000000000000000000000000000000000000000000550000000000000         00000000000000000000000CAFE E BAR OUTEIRAL LTDA - ME                                         000226
10205539814000112041300648601        CLEAN AMBIENTAL          00016186            109000161868             I02040118000001618600016186            09011800000000214213412897715000000000000000000000000000000000000000000000000000000000000000000000000000000000000000000000000000000710000000000000         00000000000000000000000RC3 CANTINA E PIZZARIA EIRELI                                         000227
10205539814000112041300648601        CLEAN AMBIENTAL          00016187            109000161876             I02040118000001618700016187            09011800000000159213412897715000000000000000000000000000000000000000000000000000000000000000000000000000000000000000000000000000000520000000000000         00000000000000000000000JOAO PEREIRA NETO                                                     000228
10205539814000112041300648601        CLEAN AMBIENTAL          00016188            109000161884             I02040118000001618800016188            09011800000000260793412897715000000000000000000000000000000000000000000000000000000000000000000000000000000000000000000000000000000860000000000000         00000000000000000000000ARTE FOOD RESTAURANTE LTDA                                            000229
10205539814000112041300648601        CLEAN AMBIENTAL          00016189            109000161892             I02040118000001618900016189            14011800000000428953412897715000000000000000000000000000000000000000000000000000000000000000000000000000000000000000000000000000001410000000000000         00000000000000000000000BAR DOS CHICOS CAFE E BAR REST                                        000230
10205539814000112041300648601        CLEAN AMBIENTAL          00016190            109000161900             I02040118000001619000016190            14011800000000126323412897715000000000000000000000000000000000000000000000000000000000000000000000000000000000000000000000000000000420000000000000         00000000000000000000000CENTRO EDUCACIONAL CONSTRUIR L                                        000231
10205539814000112041300648601        CLEAN AMBIENTAL          00016191            109000161918             I02040118000001619100016191            09011800000000130533412897715000000000000000000000000000000000000000000000000000000000000000000000000000000000000000000000000000000430000000000000         00000000000000000000000LUISA'S ORGANIZACAO DE FESTAS                                         000232
10205539814000112041300648601        CLEAN AMBIENTAL          00016192            109000161926             I02040118000001619200016192            14011800000000180743412897715000000000000000000000000000000000000000000000000000000000000000000000000000000000000000000000000000000590000000000000         00000000000000000000000CAFE E BAR RIO ARCOEIRAS LTDA                                         000233
10205539814000112041300648601        CLEAN AMBIENTAL          00016193            109000161934             I02040118000001619300016193            09011800000000236323412897715000000000000000000000000000000000000000000000000000000000000000000000000000000000000000000000000000000780000000000000         00000000000000000000000R C RESTAURANTE TABULEIRO LTDA                                        000234
10205539814000112041300648601        CLEAN AMBIENTAL          00016194            109000161942             I02040118000001619400016194            09011800000001278403412897715000000000000000000000000000000000000000000000000000000000000000000000000000000000000000000000000000004220000000000000         00000000000000000000000AMEC - AMERICA CAMINHOES LTDA                                         000235
10205539814000112041300648601                                 00000091            109000000918             I06040118          00000091            000000000000001006723702121  000000000016600000000000000000000000000000000000000000000000000000000000000000000000000990100000000000000000000000000   04011800000000000000000000000                                                                    B3000236
10205539814000112041300648601                                 00000093            109000000934             I06040118          00000093            000000000000001755700142200  000000000016600000000000000000000000000000000000000000000000000000000000000000000000001739100000000000000000000000000   04011800000000000000000000000                                                                    B6000237
10205539814000112041300648601        CLEAN AMBIENTAL          00008146            109000081462             I06040118000000814600008146            04011800000000116323410488715000000000016600000000000000000000000000000000000000000000000000000000000000000000000001146600000000000000000000000000   04011800000000000000000000000MANDALA MERCADO DO CENTRO LTDA                                      CP000238
10205539814000112041300648601        CLEAN AMBIENTAL          00008235            109000082353             I06040118000000823500008235            05011800000000366312370226115000000000016600000000000000000000000000000000000000000000000000000000000000000000000003646500000000000000000000000000   04011800000000000000000000000COSTELARIA RIO BRASIL RESTAURA                                      B3000239
10205539814000112041300648601        CLEAN AMBIENTAL          00009147            109000091479             I06040118000000914700009147            04011800000000568423417345215000000000016600000000000000000000000000000000000000000000000000000000000000000000000005667600000000000000000000000000   04011800000000000000000000000DANI PAES PANIFICAO LTDA                                            CP000240
10205539814000112041300648601        CLEAN AMBIENTAL          00009389            109000093897             I06040118000000938900009389            04011800000001002110333153415000000000016600000000000000000000000000000000000000000000000000000000000000000000000010004500000000000000000000000000   04011800000000000000000000000ROYALTY INN BUSINESS HOTELARIA                                      B3000241
10205539814000112041300648601        CLEAN AMBIENTAL          00010286            109000102862             I06040118000001028600010286            27111700000000357893410407715000000000016600000000000000000000000000000000000000000000000000000000000000000000000003562300000000000000000000000000   04011800000000000000000000000MARCRUZ RESTAURANTE LTDA                                            CP000242
10205539814000112041300648601        CLEAN AMBIENTAL          00011289            109000112895             I06040118000001128900011289            05011800000000063770011769915000000000016600000000000000000000000000000000000000000000000000000000000000000000000000621100000000000000000000000000   04011800000000000000000000000SINDICATO DOS EMPREGADOS NO CO                                      B3000243
10205539814000112041300648601        CLEAN AMBIENTAL          00011551            109000115518             I06040118000001155100011551            04121700000000242890333461115000000000016600000000000000000000000000000000000000000000000000000000000000000000000002660800000000024850000000000000   04011800000000000000000000000POSTO DE ABASTECIMENTO LIPE LT                                      B3000244
10205539814000112041300648601        CLEAN AMBIENTAL          00011628            109000116284             I06040118000001162800011628            03121700000000236582373172415000000000016600000000000000000000000000000000000000000000000000000000000000000000000002591200000000024200000000000000   04011800000000000000000000000AL LIBAN LANCHONETE LTDA - ME                                       B2000245
10205539814000112041300648601        CLEAN AMBIENTAL          00011996            109000119965             I06040118000001199600011996            09121700000000157890332286315000000000016600000000000000000000000000000000000000000000000000000000000000000000000001692600000000013030000000000000   04011800000000000000000000000LULUS BOLOS COMERCIO DE ALIMEN                                      B3000246
10205539814000112041300648601        CLEAN AMBIENTAL          00012948            109000129485             I06040118000001294800012948            04011800000000382272372006515000000000016600000000000000000000000000000000000000000000000000000000000000000000000003806100000000000000000000000000   04011800000000000000000000000CARGOSOFT TRANSPORTES LTDA                                          B3000247
10205539814000112041300648601        CLEAN AMBIENTAL          00012960            109000129600             I06040118000001296000012960            04011800000000428002371745915000000000016600000000000000000000000000000000000000000000000000000000000000000000000004263400000000000000000000000000   04011800000000000000000000000A NOSSA SORVETERIA LTDA                                             B1000248
