02RETORNO01COBRANCA       041300648601        CLEAN AMB SERV COL TRANSP LTDA341BANCO ITAU S.A.08012101600BPI02580080121                                                                                                                                                                                                                                                                                   000001
10205539814000112041300648601        CLEAN AMBIENTAL          00294167            109002941671             I04070121000029416700294167            08012100000000111053410201408000000000000000000000000000000000000000000000000000000000000000000000000000000000000000000000000000000000000000000000         00000000000000000000000WELLINGTON DOS REIS SOUSA CONS                                        000002
10205539814000112041300648601        CLEAN AMBIENTAL          00299921            109002999216             I04070121000029992100299921            12012100000000836883412897708000000000000000000000000000000000000000000000000000000000000000000000000000000000000000000000000000000000000000000000         00000000000000000000000LK FOODS LANCHONETE LTDA EPP                                          000003
10205539814000112041300648601        CLEAN AMBIENTAL          00300082            109003000824             I04070121000030008200300082            07012100000000271053412897708000000000000000000000000000000000000000000000000000000000000000000000000000000000000000000000000000000000000000000000         00000000000000000000000CONDOMINIO DO EDIFICIO SAO PAU                                        000004
10205539814000112041300648601        CLEAN AMBIENTAL          00300310            109003003109             I04070121000030031000300310            07012100000000066593412897708000000000000000000000000000000000000000000000000000000000000000000000000000000000000000000000000000000000000000000000         00000000000000000000000MARIA IVONE DA CONCEICAO SILVA                                        000005
10205539814000112041300648601        CLEAN AMBIENTAL          00301347            109003013470             I04070121000030134700301347            07012100000000817603412897708000000000000000000000000000000000000000000000000000000000000000000000000000000000000000000000000000000000000000000000         00000000000000000000000IGOR HERNANDES ALVES DA COSTA                                         000006
10205539814000112041300648601        CLEAN AMBIENTAL          00304176            109003041760             I04070121000030417600304176            08012100000000646293412897708000000000000000000000000000000000000000000000000000000000000000000000000000000000000000000000000000000000000000000000         00000000000000000000000C & T ADUANEIROS LTDA - EPP                                           000007
10205539814000112041300648601        CLEAN AMBIENTAL          00304539            109003045399             I04070121000030453900304539            12012100000000515783412897708000000000000000000000000000000000000000000000000000000000000000000000000000000000000000000000000000000000000000000000         00000000000000000000000LK FOODS LANCHONETE LTDA EPP                                          000008
10205539814000112041300648601        CLEAN AMBIENTAL          00304651            109003046512             I04070121000030465100304651            07012100000000213163412897708000000000000000000000000000000000000000000000000000000000000000000000000000000000000000000000000000000000000000000000         00000000000000000000000CONDOMINIO DO EDIFICIO SAO PAU                                        000009
10205539814000112041300648601        CLEAN AMBIENTAL          00304660            109003046603             I04070121000030466000304660            07012100000000675793412897708000000000000000000000000000000000000000000000000000000000000000000000000000000000000000000000000000000000000000000000         00000000000000000000000GUIZADO DO ZEBU RESTAURANTE LT                                        000010
10205539814000112041300648601        CLEAN AMBIENTAL          00304778            109003047783             I04070121000030477800304778            07012100000000328783412897708000000000000000000000000000000000000000000000000000000000000000000000000000000000000000000000000000000000000000000000         00000000000000000000000PIZZA E GRILL LAPA RESTAURANTE                                        000011
10205539814000112041300648601        CLEAN AMBIENTAL          00304888            109003048880             I04070121000030488800304888            07012100000000875263412897708000000000000000000000000000000000000000000000000000000000000000000000000000000000000000000000000000000000000000000000         00000000000000000000000CONDOMINIO DO EDIFICIO SAO PAU                                        000012
10205539814000112041300648601        CLEAN AMBIENTAL          00304964            109003049649             I04070121000030496400304964            19012100000000210533412897708000000000000000000000000000000000000000000000000000000000000000000000000000000000000000000000000000000000000000000000         00000000000000000000000CONDOMINIO BANGU SHOPPING                                             000013
10205539814000112041300648601        CLEAN AMBIENTAL          00305355            109003053559             I04070121000030535500305355            08012100000000335793412897708000000000000000000000000000000000000000000000000000000000000000000000000000000000000000000000000000000000000000000000         00000000000000000000000DALAPA COMERCIO DE ALIMENTOS L                                        000014
10205539814000112041300648601        CLEAN AMBIENTAL          00305554            109003055547             I04070121000030555400305554            08012100000000326323412897708000000000000000000000000000000000000000000000000000000000000000000000000000000000000000000000000000000000000000000000         00000000000000000000000MIRAFLORES BAR LTDA - ME                                              000015
10205539814000112041300648601        CLEAN AMBIENTAL          00305555            109003055554             I04070121000030555500305555            08012100000000448673412897708000000000000000000000000000000000000000000000000000000000000000000000000000000000000000000000000000000000000000000000         00000000000000000000000CAFE E BAR VIRGEM DE FATIMA LT                                        000016
10205539814000112041300648601        CLEAN AMBIENTAL          00305649            109003056495             I04070121000030564900305649            08012100000000229743412897708000000000000000000000000000000000000000000000000000000000000000000000000000000000000000000000000000000000000000000000         00000000000000000000000CAFE E BAR IMPERADOR DO LEME L                                        000017
10205539814000112041300648601        CLEAN AMBIENTAL          00305715            109003057154             I04070121000030571500305715            07012100000000511493410059608000000000000000000000000000000000000000000000000000000000000000000000000000000000000000000000000000000000000000000000         00000000000000000000000LABORATORIO MORALES LTDA                                              000018
10205539814000112041300648601        CLEAN AMBIENTAL          00305985            109003059853             I04070121000030598500305985            07012100000000516383412897708000000000000000000000000000000000000000000000000000000000000000000000000000000000000000000000000000000000000000000000         00000000000000000000000IGOR HERNANDES ALVES DA COSTA                                         000019
10205539814000112041300648601        CLEAN AMBIENTAL          00306093            109003060935             I04070121000030609300306093            08012100000000079353412897708000000000000000000000000000000000000000000000000000000000000000000000000000000000000000000000000000000000000000000000         00000000000000000000000BICHO CARIOCA - CENTRO DE ESTE                                        000020
10205539814000112041300648601        CLEAN AMBIENTAL          00306108            109003061081             I04070121000030610800306108            11012100000000112633410201408000000000000000000000000000000000000000000000000000000000000000000000000000000000000000000000000000000000000000000000         00000000000000000000000ELAINE CRISTINA DE OLIVEIRA SI                                        000021
10205539814000112041300648601        CLEAN AMBIENTAL          00306117            109003061172             I04070121000030611700306117            07012100000000087633412897708000000000000000000000000000000000000000000000000000000000000000000000000000000000000000000000000000000000000000000000         00000000000000000000000HELLOIZY NASCIMENTO DA SILVA 0                                        000022
10205539814000112041300648601        CLEAN AMBIENTAL          00306150            109003061503             I04070121000030615000306150            08012100000000605743412897708000000000000000000000000000000000000000000000000000000000000000000000000000000000000000000000000000000000000000000000         00000000000000000000000KILOFRUTI TAUA LTDA - ME                                              000023
10205539814000112041300648601        CLEAN AMBIENTAL          00306220            109003062204             I04070121000030622000306220            07012100000000351583412897708000000000000000000000000000000000000000000000000000000000000000000000000000000000000000000000000000000000000000000000         00000000000000000000000PANIFICADORA PLENITUDE DE IRAJ                                        000024
10205539814000112041300648601        CLEAN AMBIENTAL          00306251            109003062519             I04070121000030625100306251            08012100000000441263412897708000000000000000000000000000000000000000000000000000000000000000000000000000000000000000000000000000000000000000000000         00000000000000000000000PESSIOTY - BAR E RESTAURANTE L                                        000025
10205539814000112041300648601        CLEAN AMBIENTAL          00306279            109003062790             I04070121000030627900306279            08012100000002475163412897708000000000000000000000000000000000000000000000000000000000000000000000000000000000000000000000000000000000000000000000         00000000000000000000000FAFATO RESTAURANTE BAR E PIZZA                                        000026
10205539814000112041300648601        CLEAN AMBIENTAL          00306283            109003062832             I04070121000030628300306283            20012100000000109383410201408000000000000000000000000000000000000000000000000000000000000000000000000000000000000000000000000000000000000000000000         00000000000000000000000SPACESMILE ODONTOLOGIA E SERV.                                        000027
10205539814000112041300648601        CLEAN AMBIENTAL          00306324            109003063244             I04070121000030632400306324            11012100000000343953412897708000000000000000000000000000000000000000000000000000000000000000000000000000000000000000000000000000000000000000000000         00000000000000000000000VOKOS GASTRONOMIA LTDA - ME                                           000028
10205539814000112041300648601        CLEAN AMBIENTAL          00306329            109003063293             I04070121000030632900306329            12012100000000780043412897708000000000000000000000000000000000000000000000000000000000000000000000000000000000000000000000000000000000000000000000         00000000000000000000000IPANEMA INTERTUR SERVICOS E LA                                        000029
10205539814000112041300648601        CLEAN AMBIENTAL          00306355            109003063558             I04070121000030635500306355            08012100000000299793412897708000000000000000000000000000000000000000000000000000000000000000000000000000000000000000000000000000000000000000000000         00000000000000000000000BANCO BRADESCO S.A.                                                   000030
10205539814000112041300648601        CLEAN AMBIENTAL          00306359            109003063590             I04070121000030635900306359            08012100000002058953412897708000000000000000000000000000000000000000000000000000000000000000000000000000000000000000000000000000000000000000000000         00000000000000000000000SUPERMERCADOS ALVORADA EIRELI                                         000031
10205539814000112041300648601        CLEAN AMBIENTAL          00306381            109003063814             I04070121000030638100306381            08012100000000147763412897708000000000000000000000000000000000000000000000000000000000000000000000000000000000000000000000000000000000000000000000         00000000000000000000000CAMILA PAMPHIRO                                                       000032
10205539814000112041300648601        CLEAN AMBIENTAL          00306390            109003063905             I04070121000030639000306390            08012100000000170263410229508000000000000000000000000000000000000000000000000000000000000000000000000000000000000000000000000000000000000000000000         00000000000000000000000SORRISO SA CLIINICA ODONTOLOGI                                        000033
10205539814000112041300648601        CLEAN AMBIENTAL          00306391            109003063913             I04070121000030639100306391            08012100000000231253412897708000000000000000000000000000000000000000000000000000000000000000000000000000000000000000000000000000000000000000000000         00000000000000000000000SAUDE VIDA CLINICA E SERVICOS                                         000034
10205539814000112041300648601        CLEAN AMBIENTAL          00306445            109003064457             I04070121000030644500306445            07012100000000071843412897708000000000000000000000000000000000000000000000000000000000000000000000000000000000000000000000000000000000000000000000         00000000000000000000000CENTRO FISIOESTETICA CORPUS LT                                        000035
10205539814000112041300648601        CLEAN AMBIENTAL          00306981            109003069811             I04070121000030698100306981            10012100000000112373412897708000000000000000000000000000000000000000000000000000000000000000000000000000000000000000000000000000000000000000000000         00000000000000000000000MARIA CLAUDIA & RAPHAEL MEDICI                                        000036
10205539814000112041300648601        CLEAN AMBIENTAL          00308606            109003086062             I02080121000030860600308606            18012100000000131533412897708000000000000000000000000000000000000000000000000000000000000000000000000000000000000000000000000000000040000000000000         00000000000000000000000ANDERSON HEREDIA SASSA                                                000037
10205539814000112041300648601        CLEAN AMBIENTAL          00308607            109003086070             I02080121000030860700308607            18012100000000150453412897708000000000000000000000000000000000000000000000000000000000000000000000000000000000000000000000000000000050000000000000         00000000000000000000000GARCIA & FERREIRA DE CARVALHO                                         000038
10205539814000112041300648601        CLEAN AMBIENTAL          00308608            109003086088             I02080121000030860800308608            18012100000000258363412897708000000000000000000000000000000000000000000000000000000000000000000000000000000000000000000000000000000090000000000000         00000000000000000000000LANCHES POLI TELL LTDA - EPP                                          000039
10205539814000112041300648601        CLEAN AMBIENTAL          00308609            109003086096             I02080121000030860900308609            20012100000000577633412897708000000000000000000000000000000000000000000000000000000000000000000000000000000000000000000000000000000190000000000000         00000000000000000000000ASO ALVORADA SERVICOS ODONTOLO                                        000040
10205539814000112041300648601        CLEAN AMBIENTAL          00308610            109003086104             I02080121000030861000308610            18012100000000045003412897708000000000000000000000000000000000000000000000000000000000000000000000000000000000000000000000000000000010000000000000         00000000000000000000000ODONTOCLINICA BARRA DA TIJUCA                                         000041
10205539814000112041300648601        CLEAN AMBIENTAL          00308611            109003086112             I02080121000030861100308611            18012100000000081843412897708000000000000000000000000000000000000000000000000000000000000000000000000000000000000000000000000000000030000000000000         00000000000000000000000DOUGLAS THEODORO LOPES SOARES                                         000042
10205539814000112041300648601        CLEAN AMBIENTAL          00308612            109003086120             I02080121000030861200308612            18012100000000215573412897708000000000000000000000000000000000000000000000000000000000000000000000000000000000000000000000000000000070000000000000         00000000000000000000000MERCADO SAO RAPHAEL LTDA                                              000043
10205539814000112041300648601        CLEAN AMBIENTAL          00308613            109003086138             I02080121000030861300308613            18012100000000020263412897708000000000000000000000000000000000000000000000000000000000000000000000000000000000000000000000000000000010000000000000         00000000000000000000000BEL PIZZARIA LTDA                                                     000044
10205539814000112041300648601        CLEAN AMBIENTAL          00308614            109003086146             I02080121000030861400308614            18012100000000078033412897708000000000000000000000000000000000000000000000000000000000000000000000000000000000000000000000000000000030000000000000         00000000000000000000000BOLOGNANI CENTRO DE SAUDE E ES                                        000045
10205539814000112041300648601        CLEAN AMBIENTAL          00308616            109003086161             I02080121000030861600308616            18012100000000343833412897708000000000000000000000000000000000000000000000000000000000000000000000000000000000000000000000000000000110000000000000         00000000000000000000000ABRIGO PRESBITERIANO                                                  000046
10205539814000112041300648601        CLEAN AMBIENTAL          00308617            109003086179             I02080121000030861700308617            18012100000000139453412897708000000000000000000000000000000000000000000000000000000000000000000000000000000000000000000000000000000050000000000000         00000000000000000000000CLINICA DENTARIA TAQUARA LTDA                                         000047
10205539814000112041300648601        CLEAN AMBIENTAL          00308618            109003086187             I02080121000030861800308618            25012100000000166743412897708000000000000000000000000000000000000000000000000000000000000000000000000000000000000000000000000000000050000000000000         00000000000000000000000CENTRO MEDICO PACIENCIA OESTE                                         000048
10205539814000112041300648601        CLEAN AMBIENTAL          00308619            109003086195             I02080121000030861900308619            18012100000000113073412897708000000000000000000000000000000000000000000000000000000000000000000000000000000000000000000000000000000040000000000000         00000000000000000000000ELISABETE VEIGA CAVALCANTI                                            000049
10205539814000112041300648601        CLEAN AMBIENTAL          00308620            109003086203             I02080121000030862000308620            18012100000000087893411306008000000000000000000000000000000000000000000000000000000000000000000000000000000000000000000000000000000030000000000000         00000000000000000000000SIGMA DIAGNOSTICO POR IMAGEM L                                        000050
10205539814000112041300648601        CLEAN AMBIENTAL          00308621            109003086211             I02080121000030862100308621            18012100000000087893411306008000000000000000000000000000000000000000000000000000000000000000000000000000000000000000000000000000000030000000000000         00000000000000000000000LARISSA B FERRI COMERCIO E SER                                        000051
10205539814000112041300648601        CLEAN AMBIENTAL          00308622            109003086229             I02080121000030862200308622            18012100000002726663412897708000000000000000000000000000000000000000000000000000000000000000000000000000000000000000000000000000009000000000000000         00000000000000000000000COUTINHO & PINHEIRO ANALISES C                                        000052
10205539814000112041300648601        CLEAN AMBIENTAL          00308623            109003086237             I02080121000030862300308623            18012100000000976993412897708000000000000000000000000000000000000000000000000000000000000000000000000000000000000000000000000000000320000000000000         00000000000000000000000CONDOMINIO CENTRO MEDICO RICHE                                        000053
10205539814000112041300648601        CLEAN AMBIENTAL          00308624            109003086245             I02080121000030862400308624            18012100000000212933410059608000000000000000000000000000000000000000000000000000000000000000000000000000000000000000000000000000000070000000000000         00000000000000000000000OTORRINO REUNIDOS LTDA                                                000054
10205539814000112041300648601        CLEAN AMBIENTAL          00308625            109003086252             I02080121000030862500308625            18012100000000190253410059608000000000000000000000000000000000000000000000000000000000000000000000000000000000000000000000000000000060000000000000         00000000000000000000000CONVIVER POUSADA GERIATRICA LT                                        000055
10205539814000112041300648601        CLEAN AMBIENTAL          00308626            109003086260             I02080121000030862600308626            18012100000000096993410059608000000000000000000000000000000000000000000000000000000000000000000000000000000000000000000000000000000030000000000000         00000000000000000000000ANA MARIA MARIANO                                                     000056
10205539814000112041300648601        CLEAN AMBIENTAL          00308627            109003086278             I02080121000030862700308627            18012100000001274743412897708000000000000000000000000000000000000000000000000000000000000000000000000000000000000000000000000000004210000000000000         00000000000000000000000ASSOCIACAO BRASILEIRA DE ODONT                                        000057
10205539814000112041300648601        CLEAN AMBIENTAL          00308628            109003086286             I02080121000030862800308628            18012100000000129273412897708000000000000000000000000000000000000000000000000000000000000000000000000000000000000000000000000000000040000000000000         00000000000000000000000CENTRO CLINICO NO AR LTDA - ME                                        000058
10205539814000112041300648601        CLEAN AMBIENTAL          00308629            109003086294             I02080121000030862900308629            18012100000000625843412897708000000000000000000000000000000000000000000000000000000000000000000000000000000000000000000000000000000210000000000000         00000000000000000000000CONDOMINIO ED CENTRO EMPRESARI                                        000059
10205539814000112041300648601        CLEAN AMBIENTAL          00308630            109003086302             I02080121000030863000308630            22012100000000341053412897708000000000000000000000000000000000000000000000000000000000000000000000000000000000000000000000000000000110000000000000         00000000000000000000000CONDOMINIO DO EDIFICIO PASTEUR                                        000060
10205539814000112041300648601        CLEAN AMBIENTAL          00308631            109003086310             I02080121000030863100308631            18012100000000683133412897708000000000000000000000000000000000000000000000000000000000000000000000000000000000000000000000000000000230000000000000         00000000000000000000000CONDOMINIO DO EDIFICIO CENTRO                                         000061
10205539814000112041300648601        CLEAN AMBIENTAL          00308632            109003086328             I02080121000030863200308632            17012100000000159043412897708000000000000000000000000000000000000000000000000000000000000000000000000000000000000000000000000000000050000000000000         00000000000000000000000CENTRO ORTOPEDICO DO GRAJAU LT                                        000062
10205539814000112041300648601        CLEAN AMBIENTAL          00308633            109003086336             I02080121000030863300308633            15012100000000399293412897708000000000000000000000000000000000000000000000000000000000000000000000000000000000000000000000000000000130000000000000         00000000000000000000000CONDOMINIO CINARTE E ARTES                                            000063
10205539814000112041300648601        CLEAN AMBIENTAL          00308634            109003086344             I02080121000030863400308634            18012100000000157893412897708000000000000000000000000000000000000000000000000000000000000000000000000000000000000000000000000000000050000000000000         00000000000000000000000RENATO DE SOUZA MENDES                                                000064
10205539814000112041300648601        CLEAN AMBIENTAL          00308635            109003086351             I02080121000030863500308635            18012100000000181933412897708000000000000000000000000000000000000000000000000000000000000000000000000000000000000000000000000000000060000000000000         00000000000000000000000CENTRO MEDICO SUBURBANA LTDA                                          000065
10205539814000112041300648601        CLEAN AMBIENTAL          00308636            109003086369             I02080121000030863600308636            18012100000000879213412897708000000000000000000000000000000000000000000000000000000000000000000000000000000000000000000000000000000290000000000000         00000000000000000000000TELES ODONTOLOGIA LTDA                                                000066
10205539814000112041300648601        CLEAN AMBIENTAL          00308637            109003086377             I02080121000030863700308637            18012100000000115983412897708000000000000000000000000000000000000000000000000000000000000000000000000000000000000000000000000000000040000000000000         00000000000000000000000RONY HANSEN                                                           000067
10205539814000112041300648601        CLEAN AMBIENTAL          00308638            109003086385             I02080121000030863800308638            18012100000007745313412897708000000000000000000000000000000000000000000000000000000000000000000000000000000000000000000000000000025560000000000000         00000000000000000000000CASA DE SAUDE LARANJEIRAS LTDA                                        000068
10205539814000112041300648601        CLEAN AMBIENTAL          00308639            109003086393             I02080121000030863900308639            18012100000003933443412897708000000000000000000000000000000000000000000000000000000000000000000000000000000000000000000000000000012980000000000000         00000000000000000000000CASA DE SAUDE LARANJEIRAS LTDA                                        000069
10205539814000112041300648601        CLEAN AMBIENTAL          00308640            109003086401             I02080121000030864000308640            18012100000000097473412897708000000000000000000000000000000000000000000000000000000000000000000000000000000000000000000000000000000030000000000000         00000000000000000000000DAGMAR DA FONSECA DENTISTAS                                           000070
10205539814000112041300648601        CLEAN AMBIENTAL          00308641            109003086419             I02080121000030864100308641            18012100000000127003412897708000000000000000000000000000000000000000000000000000000000000000000000000000000000000000000000000000000040000000000000         00000000000000000000000BEATRIZ MARIA SOARES ALHANATI                                         000071
10205539814000112041300648601        CLEAN AMBIENTAL          00308642            109003086427             I02080121000030864200308642            18012100000000120543410059608000000000000000000000000000000000000000000000000000000000000000000000000000000000000000000000000000000040000000000000         00000000000000000000000ZSOLT BATU GYULA BAKCSY                                               000072
10205539814000112041300648601        CLEAN AMBIENTAL          00308643            109003086435             I02080121000030864300308643            18012100000000115883412897708000000000000000000000000000000000000000000000000000000000000000000000000000000000000000000000000000000040000000000000         00000000000000000000000ARTE LASER SERVICOS DE DEPILAC                                        000073
10205539814000112041300648601        CLEAN AMBIENTAL          00308644            109003086443             I02080121000030864400308644            18012100000000115353412897708000000000000000000000000000000000000000000000000000000000000000000000000000000000000000000000000000000040000000000000         00000000000000000000000AMIGAS & AMIGOS COIFFEUR LTDA                                         000074
10205539814000112041300648601        CLEAN AMBIENTAL          00308645            109003086450             I02080121000030864500308645            18012100000000081793412897708000000000000000000000000000000000000000000000000000000000000000000000000000000000000000000000000000000030000000000000         00000000000000000000000ODONTOLIFE CLINICA DE SERVICOS                                        000075
10205539814000112041300648601        CLEAN AMBIENTAL          00308646            109003086468             I02080121000030864600308646            18012100000000162143412897708000000000000000000000000000000000000000000000000000000000000000000000000000000000000000000000000000000050000000000000         00000000000000000000000ENDONEURO SERVICOS MEDICOS LTD                                        000076
10205539814000112041300648601        CLEAN AMBIENTAL          00308647            109003086476             I02080121000030864700308647            18012100000000085003412897708000000000000000000000000000000000000000000000000000000000000000000000000000000000000000000000000000000030000000000000         00000000000000000000000FARMACIA AMIZADE LTDA                                                 000077
10205539814000112041300648601        CLEAN AMBIENTAL          00308648            109003086484             I02080121000030864800308648            18012100000000115063412897708000000000000000000000000000000000000000000000000000000000000000000000000000000000000000000000000000000040000000000000         00000000000000000000000RAPHAEL BAPTISTA CARVALHO                                             000078
10205539814000112041300648601        CLEAN AMBIENTAL          00308649            109003086492             I02080121000030864900308649            18012100000000099523412897708000000000000000000000000000000000000000000000000000000000000000000000000000000000000000000000000000000030000000000000         00000000000000000000000CENTRO DE ESTETICA WANNA LTDA                                         000079
10205539814000112041300648601        CLEAN AMBIENTAL          00308650            109003086500             I02080121000030865000308650            18012100000000173003412897708000000000000000000000000000000000000000000000000000000000000000000000000000000000000000000000000000000060000000000000         00000000000000000000000MPJ POSTO DE COLETA LTDA                                              000080
10205539814000112041300648601        CLEAN AMBIENTAL          00308651            109003086518             I02080121000030865100308651            28012100000000103973412897708000000000000000000000000000000000000000000000000000000000000000000000000000000000000000000000000000000030000000000000         00000000000000000000000AYLA RODRIGUES DO ESPIRITO SAN                                        000081
10205539814000112041300648601        CLEAN AMBIENTAL          00308652            109003086526             I02080121000030865200308652            18012100000000084493411009008000000000000000000000000000000000000000000000000000000000000000000000000000000000000000000000000000000030000000000000         00000000000000000000000GABRIEL OLIVEIRA DE MOURA                                             000082
10205539814000112041300648601        CLEAN AMBIENTAL          00308653            109003086534             I02080121000030865300308653            18012100000000066993412897708000000000000000000000000000000000000000000000000000000000000000000000000000000000000000000000000000000020000000000000         00000000000000000000000SERGIO SANO                                                           000083
10205539814000112041300648601        CLEAN AMBIENTAL          00308654            109003086542             I02080121000030865400308654            18012100000000073293410201408000000000000000000000000000000000000000000000000000000000000000000000000000000000000000000000000000000020000000000000         00000000000000000000000R A VETERINARIA LTDA                                                  000084
10205539814000112041300648601        CLEAN AMBIENTAL          00308655            109003086559             I02080121000030865500308655            18012100000000038113412897708000000000000000000000000000000000000000000000000000000000000000000000000000000000000000000000000000000010000000000000         00000000000000000000000CLEIDE GONCALVES DE SOUZA 5278                                        000085
10205539814000112041300648601        CLEAN AMBIENTAL          00308656            109003086567             I02080121000030865600308656            18012100000000172893412897708000000000000000000000000000000000000000000000000000000000000000000000000000000000000000000000000000000060000000000000         00000000000000000000000ANA PAULA REIS FREITAS                                                000086
10205539814000112041300648601        CLEAN AMBIENTAL          00308657            109003086575             I02080121000030865700308657            18012100000000074853412897708000000000000000000000000000000000000000000000000000000000000000000000000000000000000000000000000000000020000000000000         00000000000000000000000LUCIANA DE ALMEIDA ESTEVES                                            000087
10205539814000112041300648601        CLEAN AMBIENTAL          00308658            109003086583             I02080121000030865800308658            18012100000000092893412897708000000000000000000000000000000000000000000000000000000000000000000000000000000000000000000000000000000030000000000000         00000000000000000000000OCEANO-GESTAO DE RESIDUOS LTDA                                        000088
10205539814000112041300648601        CLEAN AMBIENTAL          00308659            109003086591             I02080121000030865900308659            20012100000000059013411282308000000000000000000000000000000000000000000000000000000000000000000000000000000000000000000000000000000020000000000000         00000000000000000000000R. P SERVICOS ODONTOLOGICOS EI                                        000089
10205539814000112041300648601        CLEAN AMBIENTAL          00308660            109003086609             I02080121000030866000308660            20012100000000058953411282308000000000000000000000000000000000000000000000000000000000000000000000000000000000000000000000000000000020000000000000         00000000000000000000000R. P SERVICOS ODONTOLOGICOS EI                                        000090
10205539814000112041300648601        CLEAN AMBIENTAL          00308661            109003086617             I02080121000030866100308661            20012100000000058953414562508000000000000000000000000000000000000000000000000000000000000000000000000000000000000000000000000000000020000000000000         00000000000000000000000J. A. 2018 SERVICOS ODONTOLOGI                                        000091
10205539814000112041300648601        CLEAN AMBIENTAL          00308662            109003086625             I02080121000030866200308662            18012100000000125293410059608000000000000000000000000000000000000000000000000000000000000000000000000000000000000000000000000000000040000000000000         00000000000000000000000PATAS & PELOS COMERCIO DE RACA                                        000092
10205539814000112041300648601        CLEAN AMBIENTAL          00308663            109003086633             I02080121000030866300308663            18012100000000056323412897708000000000000000000000000000000000000000000000000000000000000000000000000000000000000000000000000000000020000000000000         00000000000000000000000LAR PEDRO RICHARD                                                     000093
10205539814000112041300648601        CLEAN AMBIENTAL          00308664            109003086641             I02080121000030866400308664            18012100000000238393412897708000000000000000000000000000000000000000000000000000000000000000000000000000000000000000000000000000000080000000000000         00000000000000000000000MARIA DAS GRACAS LEMOS LIMA                                           000094
10205539814000112041300648601        CLEAN AMBIENTAL          00308665            109003086658             I02080121000030866500308665            23012100000000721803412897708000000000000000000000000000000000000000000000000000000000000000000000000000000000000000000000000000000240000000000000         00000000000000000000000BIOANALISES CLINICAS LTDA                                             000095
10205539814000112041300648601        CLEAN AMBIENTAL          00308666            109003086666             I02080121000030866600308666            18012100000000088953412897708000000000000000000000000000000000000000000000000000000000000000000000000000000000000000000000000000000030000000000000         00000000000000000000000ODONTO VITRINE CLINICA LTDA -                                         000096
10205539814000112041300648601        CLEAN AMBIENTAL          00308667            109003086674             I02080121000030866700308667            18012100000000100483412897708000000000000000000000000000000000000000000000000000000000000000000000000000000000000000000000000000000030000000000000         00000000000000000000000ROSANA PESSANHA GODINHO                                               000097
10205539814000112041300648601        CLEAN AMBIENTAL          00308668            109003086682             I02080121000030866800308668            18012100000001217633412897708000000000000000000000000000000000000000000000000000000000000000000000000000000000000000000000000000004020000000000000         00000000000000000000000PANIFICACAO GENERAL LTDA                                              000098
10205539814000112041300648601        CLEAN AMBIENTAL          00308669            109003086690             I02080121000030866900308669            18012100000000827153412897708000000000000000000000000000000000000000000000000000000000000000000000000000000000000000000000000000000270000000000000         00000000000000000000000SOC COMERCIAL DO VOUGA PRODS I                                        000099
10205539814000112041300648601        CLEAN AMBIENTAL          00308670            109003086708             I02080121000030867000308670            18012100000001067623412897708000000000000000000000000000000000000000000000000000000000000000000000000000000000000000000000000000003520000000000000         00000000000000000000000CONDOMINIO DO EDIFICIO BARKI                                          000100
10205539814000112041300648601        CLEAN AMBIENTAL          00308671            109003086716             I02080121000030867100308671            18012100000000995083412897708000000000000000000000000000000000000000000000000000000000000000000000000000000000000000000000000000000330000000000000         00000000000000000000000CENTRO AUTOMOTIVO GOLFE CLUBE                                         000101
10205539814000112041300648601        CLEAN AMBIENTAL          00308672            109003086724             I02080121000030867200308672            18012100000000669893412897708000000000000000000000000000000000000000000000000000000000000000000000000000000000000000000000000000000220000000000000         00000000000000000000000QUITANDA E MERCEARIA RABAL LTD                                        000102
10205539814000112041300648601        CLEAN AMBIENTAL          00308673            109003086732             I02080121000030867300308673            18012100000000642043412897708000000000000000000000000000000000000000000000000000000000000000000000000000000000000000000000000000000210000000000000         00000000000000000000000CENTRO EDUCACIONAL RIO TAQUARA                                        000103
10205539814000112041300648601        CLEAN AMBIENTAL          00308674            109003086740             I02080121000030867400308674            28012100000000341633412897708000000000000000000000000000000000000000000000000000000000000000000000000000000000000000000000000000000110000000000000         00000000000000000000000BANCO BRADESCO S/A                                                    000104
10205539814000112041300648601        CLEAN AMBIENTAL          00308675            109003086757             I02080121000030867500308675            18012100000000892933412897708000000000000000000000000000000000000000000000000000000000000000000000000000000000000000000000000000000290000000000000         00000000000000000000000PRIMEIRA TORTA ALIMENTOS EIREL                                        000105
10205539814000112041300648601        CLEAN AMBIENTAL          00308676            109003086765             I02080121000030867600308676            25012100000001183183412897708000000000000000000000000000000000000000000000000000000000000000000000000000000000000000000000000000003900000000000000         00000000000000000000000PARCO PAPELARIA LTDA                                                  000106
10205539814000112041300648601        CLEAN AMBIENTAL          00308677            109003086773             I02080121000030867700308677            22012100000002046673412897708000000000000000000000000000000000000000000000000000000000000000000000000000000000000000000000000000006750000000000000         00000000000000000000000CHOPPERIA BARRIL 8000 MEIER EI                                        000107
10205539814000112041300648601        CLEAN AMBIENTAL          00308678            109003086781             I02080121000030867800308678            18012100000008298863412897708000000000000000000000000000000000000000000000000000000000000000000000000000000000000000000000000000027390000000000000         00000000000000000000000CASA DE SAUDE LARANJEIRAS LTDA                                        000108
10205539814000112041300648601        CLEAN AMBIENTAL          00308679            109003086799             I02080121000030867900308679            18012100000005834403412897708000000000000000000000000000000000000000000000000000000000000000000000000000000000000000000000000000019250000000000000         00000000000000000000000CASA DE SAUDE LARANJEIRAS LTDA                                        000109
10205539814000112041300648601        CLEAN AMBIENTAL          00308680            109003086807             I02080121000030868000308680            18012100000000260193412897708000000000000000000000000000000000000000000000000000000000000000000000000000000000000000000000000000000090000000000000         00000000000000000000000CASA DE SAUDE LARANJEIRAS LTDA                                        000110
10205539814000112041300648601        CLEAN AMBIENTAL          00308681            109003086815             I02080121000030868100308681            18012100000000410533412897708000000000000000000000000000000000000000000000000000000000000000000000000000000000000000000000000000000140000000000000         00000000000000000000000D\'JULIA RESTAURANTE LTDA                                             000111
10205539814000112041300648601        CLEAN AMBIENTAL          00308682            109003086823             I02080121000030868200308682            18012100000001381793412897708000000000000000000000000000000000000000000000000000000000000000000000000000000000000000000000000000004560000000000000         00000000000000000000000L\'EQUIPE PADARIA E CONFEITARI                                        000112
10205539814000112041300648601        CLEAN AMBIENTAL          00308683            109003086831             I02080121000030868300308683            08032100000002974223412897708000000000000000000000000000000000000000000000000000000000000000000000000000000000000000000000000000009810000000000000         00000000000000000000000VESUVIUS REFRATARIOS LTDA                                             000113
10205539814000112041300648601        CLEAN AMBIENTAL          00308684            109003086849             I02080121000030868400308684            18012100000000662953412897708000000000000000000000000000000000000000000000000000000000000000000000000000000000000000000000000000000220000000000000         00000000000000000000000PEIXARIA AGUAS CLARAS LTDA - M                                        000114
10205539814000112041300648601        CLEAN AMBIENTAL          00308685            109003086856             I02080121000030868500308685            18012100000000933133411282308000000000000000000000000000000000000000000000000000000000000000000000000000000000000000000000000000000310000000000000         00000000000000000000000MERCADO ITATIAIA LTDA                                                 000115
10205539814000112041300648601        CLEAN AMBIENTAL          00308686            109003086864             I02080121000030868600308686            18012100000000302823412897708000000000000000000000000000000000000000000000000000000000000000000000000000000000000000000000000000000100000000000000         00000000000000000000000BAR FONTE DA SAUDADE LTDA - EP                                        000116
10205539814000112041300648601        CLEAN AMBIENTAL          00308687            109003086872             I02080121000030868700308687            28012100000000365723412897708000000000000000000000000000000000000000000000000000000000000000000000000000000000000000000000000000000120000000000000         00000000000000000000000BANCO BRADESCO S/A                                                    000117
10205539814000112041300648601        CLEAN AMBIENTAL          00308688            109003086880             I02080121000030868800308688            18012100000000605813412897708000000000000000000000000000000000000000000000000000000000000000000000000000000000000000000000000000000200000000000000         00000000000000000000000BAR COLINDA LTDA - ME                                                 000118
10205539814000112041300648601        CLEAN AMBIENTAL          00308689            109003086898             I02080121000030868900308689            18012100000000360453412897708000000000000000000000000000000000000000000000000000000000000000000000000000000000000000000000000000000120000000000000         00000000000000000000000CONDOMINIO DO EDIFICIO BARRA B                                        000119
10205539814000112041300648601        CLEAN AMBIENTAL          00308690            109003086906             I02080121000030869000308690            18012100000000269143412897708000000000000000000000000000000000000000000000000000000000000000000000000000000000000000000000000000000090000000000000         00000000000000000000000CONDOMINIO DO EDIFICIO LUCAS C                                        000120
10205539814000112041300648601        CLEAN AMBIENTAL          00308691            109003086914             I02080121000030869100308691            18012100000000488163412897708000000000000000000000000000000000000000000000000000000000000000000000000000000000000000000000000000000160000000000000         00000000000000000000000RABISCO EDUCACAO INFANTIL LTDA                                        000121
10205539814000112041300648601        CLEAN AMBIENTAL          00308692            109003086922             I02080121000030869200308692            18012100000000608383412897708000000000000000000000000000000000000000000000000000000000000000000000000000000000000000000000000000000200000000000000         00000000000000000000000ESQUINA DO GABIRU BAR LTDA                                            000122
10205539814000112041300648601        CLEAN AMBIENTAL          00308693            109003086930             I02080121000030869300308693            18012100000000513213412897708000000000000000000000000000000000000000000000000000000000000000000000000000000000000000000000000000000170000000000000         00000000000000000000000FROSINONE POSTO DE GNV LTDA                                           000123
10205539814000112041300648601        CLEAN AMBIENTAL          00308694            109003086948             I02080121000030869400308694            23012100000000528263412897708000000000000000000000000000000000000000000000000000000000000000000000000000000000000000000000000000000170000000000000         00000000000000000000000CONDOMINIO DO EDIFICIO ITAPOA                                         000124
10205539814000112041300648601        CLEAN AMBIENTAL          00308695            109003086955             I02080121000030869500308695            18012100000000835323412897708000000000000000000000000000000000000000000000000000000000000000000000000000000000000000000000000000000280000000000000         00000000000000000000000CONDOMINIO DO EDIFICIO COMERCI                                        000125
10205539814000112041300648601        CLEAN AMBIENTAL          00308696            109003086963             I02080121000030869600308696            18012100000001001113412897708000000000000000000000000000000000000000000000000000000000000000000000000000000000000000000000000000003300000000000000         00000000000000000000000CANTINA DA PRACA BAR E LANCHON                                        000126
10205539814000112041300648601        CLEAN AMBIENTAL          00308697            109003086971             I02080121000030869700308697            18012100000001070743412897708000000000000000000000000000000000000000000000000000000000000000000000000000000000000000000000000000003530000000000000         00000000000000000000000CLINICA DE ASSISTENCIA MEDICA                                         000127
10205539814000112041300648601        CLEAN AMBIENTAL          00308698            109003086989             I02080121000030869800308698            18012100000000924653412897708000000000000000000000000000000000000000000000000000000000000000000000000000000000000000000000000000000300000000000000         00000000000000000000000CENTRO MEDICO DOIS IRMAOS LTDA                                        000128
10205539814000112041300648601        CLEAN AMBIENTAL          00308699            109003086997             I02080121000030869900308699            18012100000000291493412897708000000000000000000000000000000000000000000000000000000000000000000000000000000000000000000000000000000100000000000000         00000000000000000000000RIO VERDE ARMAZENAGEM EIRELI                                          000129
10205539814000112041300648601        CLEAN AMBIENTAL          00308700            109003087003             I02080121000030870000308700            18012100000000424963412897708000000000000000000000000000000000000000000000000000000000000000000000000000000000000000000000000000000140000000000000         00000000000000000000000LABORATORIOS MEDICOS DR ELIEL                                         000130
10205539814000112041300648601        CLEAN AMBIENTAL          00308701            109003087011             I02080121000030870100308701            18012100000000428533412897708000000000000000000000000000000000000000000000000000000000000000000000000000000000000000000000000000000140000000000000         00000000000000000000000MIT RIO VEICULOS LTDA                                                 000131
10205539814000112041300648601        CLEAN AMBIENTAL          00308702            109003087029             I02080121000030870200308702            18012100000000581563412897708000000000000000000000000000000000000000000000000000000000000000000000000000000000000000000000000000000190000000000000         00000000000000000000000FABRICA DE DOCES E MASSAS ITAL                                        000132
10205539814000112041300648601        CLEAN AMBIENTAL          00308703            109003087037             I02080121000030870300308703            18012100000001269543412897708000000000000000000000000000000000000000000000000000000000000000000000000000000000000000000000000000004190000000000000         00000000000000000000000POLICLINICA TRES IRMAOS EIRELI                                        000133
10205539814000112041300648601        CLEAN AMBIENTAL          00308704            109003087045             I02080121000030870400308704            18012100000000412223412897708000000000000000000000000000000000000000000000000000000000000000000000000000000000000000000000000000000140000000000000         00000000000000000000000TEMPERO CASEIRO RESTAURANTE LT                                        000134
10205539814000112041300648601        CLEAN AMBIENTAL          00308705            109003087052             I02080121000030870500308705            18012100000000318883412897708000000000000000000000000000000000000000000000000000000000000000000000000000000000000000000000000000000100000000000000         00000000000000000000000PAPO 10 LANCHONETE E CAFE LTDA                                        000135
10205539814000112041300648601        CLEAN AMBIENTAL          00308706            109003087060             I02080121000030870600308706            18012100000000480123412897708000000000000000000000000000000000000000000000000000000000000000000000000000000000000000000000000000000160000000000000         00000000000000000000000HORTIFRUTI TIANA LTDA                                                 000136
10205539814000112041300648601        CLEAN AMBIENTAL          00308707            109003087078             I02080121000030870700308707            18012100000001024633412897708000000000000000000000000000000000000000000000000000000000000000000000000000000000000000000000000000003380000000000000         00000000000000000000000MERCEARIA E CEREAIS PX7 DE COR                                        000137
10205539814000112041300648601        CLEAN AMBIENTAL          00308708            109003087086             I02080121000030870800308708            18012100000001024633412897708000000000000000000000000000000000000000000000000000000000000000000000000000000000000000000000000000003380000000000000         00000000000000000000000MERCEARIA E CEREAIS PX7 DE BRA                                        000138
10205539814000112041300648601        CLEAN AMBIENTAL          00308709            109003087094             I02080121000030870900308709            18012100000000186943412897708000000000000000000000000000000000000000000000000000000000000000000000000000000000000000000000000000000060000000000000         00000000000000000000000OLEGARIO RESTAURANTE EIRELI                                           000139
10205539814000112041300648601        CLEAN AMBIENTAL          00308710            109003087102             I02080121000030871000308710            18012100000000274053412897708000000000000000000000000000000000000000000000000000000000000000000000000000000000000000000000000000000090000000000000         00000000000000000000000ACG COMERCIO DE ALIMENTOS LTDA                                        000140
10205539814000112041300648601        CLEAN AMBIENTAL          00308711            109003087110             I02080121000030871100308711            18012100000001306683412897708000000000000000000000000000000000000000000000000000000000000000000000000000000000000000000000000000004310000000000000         00000000000000000000000QUALLY DA TIJUCA HORTIFRUTI LT                                        000141
10205539814000112041300648601        CLEAN AMBIENTAL          00308712            109003087128             I02080121000030871200308712            18012100000000295773412897708000000000000000000000000000000000000000000000000000000000000000000000000000000000000000000000000000000100000000000000         00000000000000000000000GARDENIA RESTAURANTE LTDA                                             000142
10205539814000112041300648601        CLEAN AMBIENTAL          00308713            109003087136             I02080121000030871300308713            18012100000000497683412897708000000000000000000000000000000000000000000000000000000000000000000000000000000000000000000000000000000160000000000000         00000000000000000000000CAFE E BAR TUPIARA LTDA                                               000143
10205539814000112041300648601        CLEAN AMBIENTAL          00308714            109003087144             I02080121000030871400308714            18012100000000451953412897708000000000000000000000000000000000000000000000000000000000000000000000000000000000000000000000000000000150000000000000         00000000000000000000000ACUSTIC 486 BAR E LANCHONETE L                                        000144
10205539814000112041300648601        CLEAN AMBIENTAL          00308715            109003087151             I02080121000030871500308715            18012100000000261583412897708000000000000000000000000000000000000000000000000000000000000000000000000000000000000000000000000000000090000000000000         00000000000000000000000CAFE E BAR AZUL LTDA                                                  000145
10205539814000112041300648601        CLEAN AMBIENTAL          00308716            109003087169             I02080121000030871600308716            18012100000000194533412897708000000000000000000000000000000000000000000000000000000000000000000000000000000000000000000000000000000060000000000000         00000000000000000000000RESTAURANTE PORTAO DA TIJUCA L                                        000146
10205539814000112041300648601        CLEAN AMBIENTAL          00308717            109003087177             I02080121000030871700308717            18012100000000240003412897708000000000000000000000000000000000000000000000000000000000000000000000000000000000000000000000000000000080000000000000         00000000000000000000000CHURRASCARIA BRAZA LTDA ME                                            000147
10205539814000112041300648601        CLEAN AMBIENTAL          00308718            109003087185             I02080121000030871800308718            18012100000000354133412897708000000000000000000000000000000000000000000000000000000000000000000000000000000000000000000000000000000120000000000000         00000000000000000000000PADARIA FORNADA DA ILHA EIRELI                                        000148
10205539814000112041300648601        CLEAN AMBIENTAL          00308719            109003087193             I02080121000030871900308719            18012100000000328383412897708000000000000000000000000000000000000000000000000000000000000000000000000000000000000000000000000000000110000000000000         00000000000000000000000RESTARUANTE LAREIRA ORIGINAL E                                        000149
10205539814000112041300648601        CLEAN AMBIENTAL          00308720            109003087201             I02080121000030872000308720            18012100000000276823412897708000000000000000000000000000000000000000000000000000000000000000000000000000000000000000000000000000000090000000000000         00000000000000000000000ALL FORNO RESTAURANTE LTDA                                            000150
10205539814000112041300648601        CLEAN AMBIENTAL          00308721            109003087219             I02080121000030872100308721            18012100000000379483412897708000000000000000000000000000000000000000000000000000000000000000000000000000000000000000000000000000000130000000000000         00000000000000000000000VARANDINHA BAR E RESTAURANTE L                                        000151
10205539814000112041300648601        CLEAN AMBIENTAL          00308722            109003087227             I02080121000030872200308722            18012100000000539743412897708000000000000000000000000000000000000000000000000000000000000000000000000000000000000000000000000000000180000000000000         00000000000000000000000TORRAO DOCES E SORVETES EIRELI                                        000152
10205539814000112041300648601        CLEAN AMBIENTAL          00308723            109003087235             I02080121000030872300308723            18012100000000226993412897708000000000000000000000000000000000000000000000000000000000000000000000000000000000000000000000000000000070000000000000         00000000000000000000000EUSTAKIU'S VASCONCELOS BAR E L                                        000153
10205539814000112041300648601        CLEAN AMBIENTAL          00308724            109003087243             I02080121000030872400308724            18012100000000174613412897708000000000000000000000000000000000000000000000000000000000000000000000000000000000000000000000000000000060000000000000         00000000000000000000000FLORA DE IRAJA LTDA                                                   000154
10205539814000112041300648601        CLEAN AMBIENTAL          00308725            109003087250             I02080121000030872500308725            18012100000001102533412897708000000000000000000000000000000000000000000000000000000000000000000000000000000000000000000000000000003640000000000000         00000000000000000000000EDIFICIO MARSI                                                        000155
10205539814000112041300648601        CLEAN AMBIENTAL          00308726            109003087268             I02080121000030872600308726            18012100000000370473412897708000000000000000000000000000000000000000000000000000000000000000000000000000000000000000000000000000000120000000000000         00000000000000000000000PANIFICADORA FLOR DO TANQUE EI                                        000156
10205539814000112041300648601        CLEAN AMBIENTAL          00308727            109003087276             I02080121000030872700308727            18012100000000386053412897708000000000000000000000000000000000000000000000000000000000000000000000000000000000000000000000000000000130000000000000         00000000000000000000000MADE IN CEARA ADEGA LTDA                                              000157
10205539814000112041300648601        CLEAN AMBIENTAL          00308728            109003087284             I02080121000030872800308728            18012100000000201583412897708000000000000000000000000000000000000000000000000000000000000000000000000000000000000000000000000000000070000000000000         00000000000000000000000ESTACAO DAS CARNES RIO LTDA                                           000158
10205539814000112041300648601        CLEAN AMBIENTAL          00308729            109003087292             I02080121000030872900308729            18012100000000305213412897708000000000000000000000000000000000000000000000000000000000000000000000000000000000000000000000000000000100000000000000         00000000000000000000000SEPTO SERV ESP DE PREV E TRA O                                        000159
10205539814000112041300648601        CLEAN AMBIENTAL          00308730            109003087300             I02080121000030873000308730            18012100000000837633412897708000000000000000000000000000000000000000000000000000000000000000000000000000000000000000000000000000000280000000000000         00000000000000000000000F&B HOSPEDAGENS LTDA                                                  000160
10205539814000112041300648601        CLEAN AMBIENTAL          00308731            109003087318             I02080121000030873100308731            18012100000000421843412897708000000000000000000000000000000000000000000000000000000000000000000000000000000000000000000000000000000140000000000000         00000000000000000000000MAR AZUL COMERCIO DE PEIXE LTD                                        000161
10205539814000112041300648601        CLEAN AMBIENTAL          00308732            109003087326             I02080121000030873200308732            18012100000001506053412897708000000000000000000000000000000000000000000000000000000000000000000000000000000000000000000000000000004970000000000000         00000000000000000000000BAR BELO JARDIM LTDA                                                  000162
10205539814000112041300648601        CLEAN AMBIENTAL          00308733            109003087334             I02080121000030873300308733            18012100000000390143412897708000000000000000000000000000000000000000000000000000000000000000000000000000000000000000000000000000000130000000000000         00000000000000000000000LCAR PIZZARIA LTDA                                                    000163
10205539814000112041300648601        CLEAN AMBIENTAL          00308734            109003087342             I02080121000030873400308734            18012100000000319743412897708000000000000000000000000000000000000000000000000000000000000000000000000000000000000000000000000000000110000000000000         00000000000000000000000COLINA DA ILHA RESTAURANTE EIR                                        000164
10205539814000112041300648601        CLEAN AMBIENTAL          00308735            109003087359             I02080121000030873500308735            18012100000000275743412897708000000000000000000000000000000000000000000000000000000000000000000000000000000000000000000000000000000090000000000000         00000000000000000000000SAM COMERCIO DE ACAI EIRELI                                           000165
10205539814000112041300648601        CLEAN AMBIENTAL          00308736            109003087367             I02080121000030873600308736            18012100000002428163412897708000000000000000000000000000000000000000000000000000000000000000000000000000000000000000000000000000008010000000000000         00000000000000000000000WBA EXPORTACAO, IMPORTACAO, CO                                        000166
10205539814000112041300648601        CLEAN AMBIENTAL          00308738            109003087383             I02080121000030873800308738            18012100000000173463412897708000000000000000000000000000000000000000000000000000000000000000000000000000000000000000000000000000000060000000000000         00000000000000000000000UNIDADE NEONATAL LAGOA LTDA                                           000167
10205539814000112041300648601        CLEAN AMBIENTAL          00308739            109003087391             I02080121000030873900308739            18012100000003889603412897708000000000000000000000000000000000000000000000000000000000000000000000000000000000000000000000000000012840000000000000         00000000000000000000000UNIDADE NEONATAL LAGOA LTDA                                           000168
10205539814000112041300648601        CLEAN AMBIENTAL          00294294            109002942943             I06080121000029429400294294            08012100000000122613418340208000000000016400000000000000000000000000000000000000000000000000000000000000000000000001209700000000000000000000000000   08012100000000000000000000000LABORATORIOS MEDICOS DR ELIEL                                       CK000169
10205539814000112041300648601        CLEAN AMBIENTAL          00296966            109002969664             I06080121000029696600296966            05112000000000071843414821508000000000016400000000000000000000000000000000000000000000000000000000000000000000000000729200000000002720000000000000   08012100000000000000000000000CLINICA SKIN MAIS ESTETICA E D                                      CK000170
10205539814000112041300648601        CLEAN AMBIENTAL          00298314            109002983145             I06080121000029831400298314            05012100000000129242372796108000000000016400000000000000000000000000000000000000000000000000000000000000000000000001303000000000002700000000000000   08012100000000000000000000000NISIA SUCOS LTDA - ME                                               B3000171
10205539814000112041300648601        CLEAN AMBIENTAL          00298912            109002989126             I06080121000029891200298912            08012100000000180233418340208000000000016400000000000000000000000000000000000000000000000000000000000000000000000001785900000000000000000000000000   08012100000000000000000000000LABORATORIOS MEDICOS DR ELIEL                                       CK000172
10205539814000112041300648601        CLEAN AMBIENTAL          00299463            109002994639             I06080121000029946300299463            19112000000000069292370582708000000000016400000000000000000000000000000000000000000000000000000000000000000000000000700400000000002390000000000000   08012100000000000000000000000LEONORA MARIA PAGANI ROTHIER                                        B3000173
10205539814000112041300648601        CLEAN AMBIENTAL          00299879            109002998796             I06080121000029987900299879            02122000000000074803412927208000000000016400000000000000000000000000000000000000000000000000000000000000000000000000731600000000000000000000000000   08012100000000000000000000000LMT RECREIO ODONTO LTDA                                             CK000174
10205539814000112041300648601        CLEAN AMBIENTAL          00301429            109003014296             I06080121000030142900301429            08012100000000219216330001808000000000016400000000000000000000000000000000000000000000000000000000000000000000000002175700000000000000000000000000   08012100000000000000000000000PRADAS PET SHOP LTDA                                                B3000175
10205539814000112041300648601        CLEAN AMBIENTAL          00301496            109003014965             I06080121000030149600301496            05122000000000071843414821508000000000016400000000000000000000000000000000000000000000000000000000000000000000000000723200000000002120000000000000   08012100000000000000000000000CLINICA SKIN MAIS ESTETICA E D                                      CK000176
10205539814000112041300648601        CLEAN AMBIENTAL          00302007            109003020079             I06080121000030200700302007            20122000000000241992371669108000000000016400000000000000000000000000000000000000000000000000000000000000000000000002403500000000000000000000000000   08012100000000000000000000000ENDOLAB LABORATORIO DE ANALISE                                      B3000177
10205539814000112041300648601        CLEAN AMBIENTAL          00302365            109003023651             I06080121000030236500302365            30122000000001742720013394408000000000016400000000000000000000000000000000000000000000000000000000000000000000000017410800000000000000000000000000   08012100000000000000000000000VIACAO RIO DOCE LTDA                                                B3000178
10205539814000112041300648601        CLEAN AMBIENTAL          00302371            109003023719             I06080121000030237100302371            25122000000001641846340019008000000000016400000000000000000000000000000000000000000000000000000000000000000000000017489200000000108720000000000000   08012100000000000000000000000SUPERMERCADO SACOLA CHEIA DE S                                      B7000179
10205539814000112041300648601        CLEAN AMBIENTAL          00303044            109003030441             I06080121000030304400303044            28122000000000264202370468908000000000016400000000000000000000000000000000000000000000000000000000000000000000000002688300000000006270000000000000   08012100000000000000000000000CONDOMINIO DO EDIFICIO MASSON                                       B3000180
10205539814000112041300648601        CLEAN AMBIENTAL          00303079            109003030797             I06080121000030307900303079            12122000000000063761043238308000000000016400000000000000000000000000000000000000000000000000000000000000000000000000639400000000001820000000000000   08012100000000000000000000000J R SMILE CLINICA ODONTOLOGICA                                      B5000181
10205539814000112041300648601        CLEAN AMBIENTAL          00303377            109003033775             I06080121000030337700303377            14122000000000420420333531108000000000016400000000000000000000000000000000000000000000000000000000000000000000000004306900000000011910000000000000   08012100000000000000000000000VHM ANTUNES CURSOS PROFISSIONA                                      B3000182
10205539814000112041300648601        CLEAN AMBIENTAL          00303595            109003035952             I06080121000030359500303595            08012100000000185233418340208000000000016400000000000000000000000000000000000000000000000000000000000000000000000001835900000000000000000000000000   08012100000000000000000000000LABORATORIOS MEDICOS DR ELIEL                                       CK000183
10205539814000112041300648601        CLEAN AMBIENTAL          00304075            109003040754             I06080121000030407500304075            19122000000000303540013082508000000000016400000000000000000000000000000000000000000000000000000000000000000000000003099700000000008070000000000000   08012100000000000000000000000LANCHONETE E ESFIRRARIA PAULIS                                      B3000184
10205539814000112041300648601        CLEAN AMBIENTAL          00304176            109003041760             I06080121000030417600304176            08012100000000646293416196008000000000016400000000000000000000000000000000000000000000000000000000000000000000000006446500000000000000000000000000   08012100000000000000000000000C & T ADUANEIROS LTDA - EPP                                         CK000185
10205539814000112041300648601        CLEAN AMBIENTAL          00304183            109003041836             I06080121000030418300304183            25122000000000313091041339108000000000016400000000000000000000000000000000000000000000000000000000000000000000000003191100000000007660000000000000   08012100000000000000000000000BAR SATENSE LTDA                                                    B3000186
10205539814000112041300648601        CLEAN AMBIENTAL          00304187            109003041877             I06080121000030418700304187            24122000000001775523410459808000000000016400000000000000000000000000000000000000000000000000000000000000000000000018972900000000123410000000000000   08012100000000000000000000000MF 2008 COMERCIAL MODAS LTDA -                                      CK000187
10205539814000112041300648601        CLEAN AMBIENTAL          00304298            109003042982             I06080121000030429800304298            20122000000000140082371669108000000000016400000000000000000000000000000000000000000000000000000000000000000000000001384400000000000000000000000000   08012100000000000000000000000CENTRO - LABOR ANALISES CLINIC                                      B3000188
10205539814000112041300648601        CLEAN AMBIENTAL          00304429            109003044293             I06080121000030442900304429            21122000000000296420333350608000000000016400000000000000000000000000000000000000000000000000000000000000000000000003025100000000007730000000000000   08012100000000000000000000000OLD HUNTERS BARBEARIA LTDA - M                                      B3000189
10205539814000112041300648601        CLEAN AMBIENTAL          00304543            109003045431             I06080121000030454300304543            22122000000000074793412927208000000000016400000000000000000000000000000000000000000000000000000000000000000000000000731500000000000000000000000000   08012100000000000000000000000LMT RECREIO ODONTO LTDA                                             CK000190
10205539814000112041300648601        CLEAN AMBIENTAL          00304669            109003046694             I06080121000030466900304669            23122000000000042891042904108000000000016400000000000000000000000000000000000000000000000000000000000000000000000000422700000000001020000000000000   08012100000000000000000000000MERCEARIA MERKOFRUIT LTDA. - M                                      B3000191
10205539814000112041300648601        CLEAN AMBIENTAL          00304797            109003047973             I06080121000030479700304797            08012100000000554473419160308000000000016400000000000000000000000000000000000000000000000000000000000000000000000005528300000000000000000000000000   08012100000000000000000000000EMPORIO SANTA FE RESTAURANTE L                                      AA000192
10205539814000112041300648601        CLEAN AMBIENTAL          00304850            109003048500             I06080121000030485000304850            22122000000000167080331528908000000000016400000000000000000000000000000000000000000000000000000000000000000000000001698000000000004360000000000000   08012100000000000000000000000CLINICA ODONTOLOGICA LIVE SMIL                                      B3000193
10205539814000112041300648601        CLEAN AMBIENTAL          00304998            109003049987             I06080121000030499800304998            25122000000000224211040208908000000000016400000000000000000000000000000000000000000000000000000000000000000000000002280300000000005460000000000000   08012100000000000000000000000CLINICA MEDICA E ODONTOLOGICA                                       B3000194
10205539814000112041300648601        CLEAN AMBIENTAL          00305019            109003050191             I06080121000030501900305019            25122000000000296132370135408000000000016400000000000000000000000000000000000000000000000000000000000000000000000003018100000000007320000000000000   08012100000000000000000000000VIDROS COPA LTDA                                                    B3000195
10205539814000112041300648601        CLEAN AMBIENTAL          00305117            109003051173             I06080121000030511700305117            26122000000000135003413031208000000000016400000000000000000000000000000000000000000000000000000000000000000000000001365800000000003220000000000000   08012100000000000000000000000RAFAEL LOPES DE SOUSA SANTOS                                        BL000196
10205539814000112041300648601        CLEAN AMBIENTAL          00305192            109003051926             I06080121000030519200305192            26122000000000390160333957808000000000016400000000000000000000000000000000000000000000000000000000000000000000000003980100000000009490000000000000   08012100000000000000000000000KAZA PRIME RESTAURANTE LTDA                                         B3000197
10205539814000112041300648601        CLEAN AMBIENTAL          00305305            109003053054             I06080121000030530500305305            27122000000000128831044097208000000000016400000000000000000000000000000000000000000000000000000000000000000000000001302500000000003060000000000000   08012100000000000000000000000VIVER CLINICA MEDICA LTDA                                           B5000198
10205539814000112041300648601        CLEAN AMBIENTAL          00305353            109003053534             I06080121000030535300305353            08012100000000494473418476408000000000016400000000000000000000000000000000000000000000000000000000000000000000000004928300000000000000000000000000   08012100000000000000000000000SORVETERIA GALO D ORO LTDA                                          CK000199
10205539814000112041300648601        CLEAN AMBIENTAL          00305412            109003054128             I06080121000030541200305412            15012100000000226261044062608000000000016400000000000000000000000000000000000000000000000000000000000000000000000002246200000000000000000000000000   08012100000000000000000000000DEPILART CENTRO DE DEPILACAO                                        B5000200
10205539814000112041300648601        CLEAN AMBIENTAL          00305535            109003055356             I06080121000030553500305535            10012100000001256760333453808000000000016400000000000000000000000000000000000000000000000000000000000000000000000012551200000000000000000000000000   08012100000000000000000000000PALAZZO LARANJEIRAS CENTER PRO                                      B1000201
10205539814000112041300648601        CLEAN AMBIENTAL          00305545            109003055455             I06080121000030554500305545            30122000000000268282372787008000000000016400000000000000000000000000000000000000000000000000000000000000000000000002728200000000006180000000000000   08012100000000000000000000000BANCO BRADESCO S/A                                                  B1000202
10205539814000112041300648601        CLEAN AMBIENTAL          00305554            109003055547             I06080121000030555400305554            08012100000000326322372743308000000000016400000000000000000000000000000000000000000000000000000000000000000000000003246800000000000000000000000000   08012100000000000000000000000MIRAFLORES BAR LTDA - ME                                            B5000203
10205539814000112041300648601        CLEAN AMBIENTAL          00305555            109003055554             I06080121000030555500305555            08012100000000448672370135408000000000016400000000000000000000000000000000000000000000000000000000000000000000000004470300000000000000000000000000   08012100000000000000000000000CAFE E BAR VIRGEM DE FATIMA LT                                      B2000204
10205539814000112041300648601        CLEAN AMBIENTAL          00305594            109003055943             I06080121000030559400305594            30122000000000226682371453008000000000016400000000000000000000000000000000000000000000000000000000000000000000000002302000000000005160000000000000   08012100000000000000000000000DIMANU INSTITUTO DE DEPILACAO                                       B3000205
10205539814000112041300648601        CLEAN AMBIENTAL          00305632            109003056321             I06080121000030563200305632            08012100000000741841044147508000000000016400000000000000000000000000000000000000000000000000000000000000000000000007402000000000000000000000000000   08012100000000000000000000000BAKERY CONFEITARIA E PIZZARIA                                       B5000206
10205539814000112041300648601        CLEAN AMBIENTAL          00305636            109003056362             I06080121000030563600305636            10012100000000271581040990208000000000016400000000000000000000000000000000000000000000000000000000000000000000000002699400000000000000000000000000   08012100000000000000000000000LANCHONETE E PASTELARIA NOVA B                                      B5000207
10205539814000112041300648601        CLEAN AMBIENTAL          00305649            109003056495             I06080121000030564900305649            08012100000000229743418389908000000000016400000000000000000000000000000000000000000000000000000000000000000000000002281000000000000000000000000000   08012100000000000000000000000CAFE E BAR IMPERADOR DO LEME L                                      CP000208
10205539814000112041300648601        CLEAN AMBIENTAL          00305683            109003056834             I06080121000030568300305683            01012100000000259540331667508000000000016400000000000000000000000000000000000000000000000000000000000000000000000002637200000000005820000000000000   08012100000000000000000000000MAMI LUCIE RESTAURANTE E PIZZA                                      B3000209
10205539814000112041300648601        CLEAN AMBIENTAL          00305710            109003057105             I06080121000030571000305710            08012100000000113442373249008000000000016400000000000000000000000000000000000000000000000000000000000000000000000001118000000000000000000000000000   08012100000000000000000000000BROWN AZEVEDO CLINICA MEDICA L                                      B3000210
10205539814000112041300648601        CLEAN AMBIENTAL          00305748            109003057485             I06080121000030574800305748            08012100000000579740333906508000000000016400000000000000000000000000000000000000000000000000000000000000000000000005781000000000000000000000000000   08012100000000000000000000000CONTEXTO CONSULTORIA E EMPREEN                                      B7000211
10205539814000112041300648601        CLEAN AMBIENTAL          00305751            109003057519             I06080121000030575100305751            07012100000000053166550001808000000000016400000000000000000000000000000000000000000000000000000000000000000000000000526000000000001080000000000000   08012100000000000000000000000ANGELICA GOMES DA GRACA 071921                                      B3000212
10205539814000112041300648601        CLEAN AMBIENTAL          00305811            109003058111             I06080121000030581100305811            30122000000000361842370469708000000000016400000000000000000000000000000000000000000000000000000000000000000000000003685200000000008320000000000000   08012100000000000000000000000ANGELO D ALESSANDRO EMERICK                                         B3000213
10205539814000112041300648601        CLEAN AMBIENTAL          00305864            109003058640             I06080121000030586400305864            08012100000000359053418561308000000000016400000000000000000000000000000000000000000000000000000000000000000000000003574100000000000000000000000000   08012100000000000000000000000NOVA GERACAO COMESTIVEIS S.A                                        CK000214
10205539814000112041300648601        CLEAN AMBIENTAL          00305867            109003058673             I06080121000030586700305867            02012100000000291323419291608000000000016400000000000000000000000000000000000000000000000000000000000000000000000002896800000000000000000000000000   08012100000000000000000000000CAFE PARIS DE JACAREPAGUA LTDA                                      AA000215
10205539814000112041300648601        CLEAN AMBIENTAL          00305871            109003058715             I06080121000030587100305871            02012100000000287172370952208000000000016400000000000000000000000000000000000000000000000000000000000000000000000002918100000000006280000000000000   08012100000000000000000000000CASA DE REPOUSO OUTONO EIRELI                                       B3000216
10205539814000112041300648601        CLEAN AMBIENTAL          00305879            109003058798             I06080121000030587900305879            06012100000000353762370583508000000000016400000000000000000000000000000000000000000000000000000000000000000000000003594400000000007320000000000000   08012100000000000000000000000CAFE E BAR RECREIO DO LEME LIM                                      B2000217
10205539814000112041300648601        CLEAN AMBIENTAL          00305924            109003059242             I06080121000030592400305924            08012100000000423163416158008000000000016400000000000000000000000000000000000000000000000000000000000000000000000004215200000000000000000000000000   08012100000000000000000000000CONDOMINIO DO EDIFICIO MASTER                                       CK000218
10205539814000112041300648601        CLEAN AMBIENTAL          00305925            109003059259             I06080121000030592500305925            02012100000000135673410370708000000000016400000000000000000000000000000000000000000000000000000000000000000000000001369800000000002950000000000000   08012100000000000000000000000ANGELA MARIA DO NASCIMENTO SOU                                      BL000219
10205539814000112041300648601        CLEAN AMBIENTAL          00305935            109003059358             I06080121000030593500305935            02012100000000072356330001808000000000016400000000000000000000000000000000000000000000000000000000000000000000000000722800000000001570000000000000   08012100000000000000000000000MARCELO REIS DANTAS                                                 B3000220
10205539814000112041300648601        CLEAN AMBIENTAL          00305943            109003059432             I06080121000030594300305943            08012100000001235263410272508000000000016400000000000000000000000000000000000000000000000000000000000000000000000012336200000000000000000000000000   08012100000000000000000000000INTERNATIONAL HEALTH CARE OFFS                                      CK000221
10205539814000112041300648601        CLEAN AMBIENTAL          00305989            109003059895             I06080121000030598900305989            08012100000000433373418561308000000000016400000000000000000000000000000000000000000000000000000000000000000000000004317300000000000000000000000000   08012100000000000000000000000NOVA GERACAO COMESTIVEIS S.A                                        CK000222
10205539814000112041300648601        CLEAN AMBIENTAL          00305995            109003059952             I06080121000030599500305995            08012100000000375883418561308000000000016400000000000000000000000000000000000000000000000000000000000000000000000003742400000000000000000000000000   08012100000000000000000000000NOVA GERACAO COMESTIVEIS S.A                                        CK000223
10205539814000112041300648601        CLEAN AMBIENTAL          00305997            109003059978             I06080121000030599700305997            08012100000000108323418561308000000000016400000000000000000000000000000000000000000000000000000000000000000000000001066800000000000000000000000000   08012100000000000000000000000NOVA GERACAO COMESTIVEIS S.A                                        CK000224
10205539814000112041300648601        CLEAN AMBIENTAL          00306018            109003060182             I06080121000030601800306018            03012100000000466590010472108000000000016400000000000000000000000000000000000000000000000000000000000000000000000004750300000000010080000000000000   08012100000000000000000000000N.P. CABRAL PADARIA E RESTAURA                                      B3000225
10205539814000112041300648601        CLEAN AMBIENTAL          00306093            109003060935             I06080121000030609300306093            08012100000000079352372743308000000000016400000000000000000000000000000000000000000000000000000000000000000000000000777100000000000000000000000000   08012100000000000000000000000BICHO CARIOCA - CENTRO DE ESTE                                      B3000226
10205539814000112041300648601        CLEAN AMBIENTAL          00306096            109003060968             I06080121000030609600306096            05012100000000325713418392308000000000016400000000000000000000000000000000000000000000000000000000000000000000000003240700000000000000000000000000   08012100000000000000000000000CAROLINE MACIEL SANTOS SOARES                                       BL000227
10205539814000112041300648601        CLEAN AMBIENTAL          00306100            109003061008             I06080121000030610000306100            04012100000000359493412798708000000000016400000000000000000000000000000000000000000000000000000000000000000000000003655200000000007670000000000000   08012100000000000000000000000BICHO PERFEITO PET SHOP LTDA                                        CK000228
10205539814000112041300648601        CLEAN AMBIENTAL          00306117            109003061172             I06080121000030611700306117            07012100000000087633416008708000000000016400000000000000000000000000000000000000000000000000000000000000000000000000877700000000001780000000000000   08012100000000000000000000000HELLOIZY NASCIMENTO DA SILVA 0                                      BL000229
10205539814000112041300648601        CLEAN AMBIENTAL          00306150            109003061503             I06080121000030615000306150            08012100000000605741040216208000000000016400000000000000000000000000000000000000000000000000000000000000000000000006041000000000000000000000000000   08012100000000000000000000000KILOFRUTI TAUA LTDA - ME                                            B5000230
10205539814000112041300648601        CLEAN AMBIENTAL          00306153            109003061537             I06080121000030615300306153            10012100000000862050330057008000000000016400000000000000000000000000000000000000000000000000000000000000000000000008604100000000000000000000000000   08012100000000000000000000000CONDOMINIO DO EDIFICIO SAN JAM                                      B7000231
10205539814000112041300648601        CLEAN AMBIENTAL          00306188            109003061883             I06080121000030618800306188            04012100000000311323413071808000000000016400000000000000000000000000000000000000000000000000000000000000000000000003163100000000006630000000000000   08012100000000000000000000000JAPA NIGHT EIRELI                                                   CK000232
10205539814000112041300648601        CLEAN AMBIENTAL          00306220            109003062204             I06080121000030622000306220            07012100000000351583418132308000000000016400000000000000000000000000000000000000000000000000000000000000000000000003570800000000007140000000000000   08012100000000000000000000000PANIFICADORA PLENITUDE DE IRAJ                                      CK000233
10205539814000112041300648601        CLEAN AMBIENTAL          00306225            109003062253             I06080121000030622500306225            10012100000000236422376690208000000000016400000000000000000000000000000000000000000000000000000000000000000000000002347800000000000000000000000000   08012100000000000000000000000BANCO BRADESCO S/A                                                  B1000234
10205539814000112041300648601        CLEAN AMBIENTAL          00306231            109003062311             I06080121000030623100306231            05012100000000220120333844808000000000016400000000000000000000000000000000000000000000000000000000000000000000000002230900000000004610000000000000   08012100000000000000000000000MGV COMERCIO DE DERIVADOS DE P                                      B3000235
10205539814000112041300648601        CLEAN AMBIENTAL          00306236            109003062360             I06080121000030623600306236            10012100000001319950333161708000000000016400000000000000000000000000000000000000000000000000000000000000000000000013183100000000000000000000000000   08012100000000000000000000000CONDOMINIO DO EDIFICIO MAXIME                                       B7000236
10205539814000112041300648601        CLEAN AMBIENTAL          00306251            109003062519             I06080121000030625100306251            08012100000000441260333724208000000000016400000000000000000000000000000000000000000000000000000000000000000000000004396200000000000000000000000000   08012100000000000000000000000PESSIOTY - BAR E RESTAURANTE L                                      B3000237
10205539814000112041300648601        CLEAN AMBIENTAL          00306279            109003062790             I06080121000030627900306279            08012100000002475162370887008000000000016400000000000000000000000000000000000000000000000000000000000000000000000024735200000000000000000000000000   08012100000000000000000000000FAFATO RESTAURANTE BAR E PIZZA                                      B3000238
10205539814000112041300648601        CLEAN AMBIENTAL          00306322            109003063228             I06080121000030632200306322            06012100000000505673410310308000000000016400000000000000000000000000000000000000000000000000000000000000000000000005144800000000010450000000000000   08012100000000000000000000000VINTAGE BAR E RESTAURANTE LTDA                                      CK000239
10205539814000112041300648601        CLEAN AMBIENTAL          00306332            109003063327             I06080121000030633200306332            06012100000000156212370666808000000000016400000000000000000000000000000000000000000000000000000000000000000000000001577900000000003220000000000000   08012100000000000000000000000CENTRO DE FORMACAO PROFISSIONA                                      B3000240
10205539814000112041300648601        CLEAN AMBIENTAL          00306355            109003063558             I06080121000030635500306355            08012100000000299792370949808000000000016400000000000000000000000000000000000000000000000000000000000000000000000002981500000000000000000000000000   08012100000000000000000000000BANCO BRADESCO S.A.                                                 B1000241
10205539814000112041300648601        CLEAN AMBIENTAL          00306359            109003063590             I06080121000030635900306359            08012100000002058952460001808000000000016400000000000000000000000000000000000000000000000000000000000000000000000020573100000000000000000000000000   08012100000000000000000000000SUPERMERCADOS ALVORADA EIRELI                                       B3000242
10205539814000112041300648601        CLEAN AMBIENTAL          00306372            109003063723             I06080121000030637200306372            08012100000000276323418340208000000000016400000000000000000000000000000000000000000000000000000000000000000000000002746800000000000000000000000000   08012100000000000000000000000LABORATORIOS MEDICOS DR ELIEL                                       CK000243
10205539814000112041300648601        CLEAN AMBIENTAL          00306373            109003063731             I06080121000030637300306373            05012100000000120393418340208000000000016400000000000000000000000000000000000000000000000000000000000000000000000001212800000000002530000000000000   08012100000000000000000000000LABORATORIOS MEDICOS DR ELIEL                                       CK000244
10205539814000112041300648601        CLEAN AMBIENTAL          00306381            109003063814             I06080121000030638100306381            08012100000000147760013520408000000000016400000000000000000000000000000000000000000000000000000000000000000000000001461200000000000000000000000000   08012100000000000000000000000CAMILA PAMPHIRO                                                     B6000245
10205539814000112041300648601        CLEAN AMBIENTAL          00306410            109003064101             I06080121000030641000306410            06012100000000510193410201408000000000016400000000000000000000000000000000000000000000000000000000000000000000000005085500000000000000000000000000   08012100000000000000000000000CONDOMINIO AGENOR DE FEITAS LI                                      CK000246
10205539814000112041300648601        CLEAN AMBIENTAL          00306429            109003064291             I06080121000030642900306429            06012100000000098216330001808000000000016400000000000000000000000000000000000000000000000000000000000000000000000000985900000000002020000000000000   08012100000000000000000000000LETICIA DE OLIVEIRA DOS SANTOS                                      B3000247
10205539814000112041300648601        CLEAN AMBIENTAL          00306435            109003064358             I06080121000030643500306435            06012100000000194743412971008000000000016400000000000000000000000000000000000000000000000000000000000000000000000001931000000000000000000000000000   08012100000000000000000000000PALEO ASSESSORIA DE ESTETICA E                                      CK000248
