02RETORNO01COBRANCA       041300648601        CLEAN AMB SERV COL TRANSP LTDA341BANCO ITAU S.A.11012101600BPI02581110121                                                                                                                                                                                                                                                                                   000001
10205539814000112041300648601        CLEAN AMBIENTAL          00302504            109003025045             I04110121000030250400302504            16022100000001208733412897708000000000000000000000000000000000000000000000000000000000000161750000000000000000000000000000000000000000000000000000         00000000000000000000000IPANEMA - SERVICOS DE ASSISTEN                                        000002
10205539814000112041300648601        CLEAN AMBIENTAL          00303777            109003037776             I04110121000030377700303777            12012100000000170263412897708000000000000000000000000000000000000000000000000000000000000000000000000000000000000000000000000000000000000000000000         00000000000000000000000DROGARIA VIVA BEM DE ROCHA MIR                                        000003
10205539814000112041300648601        CLEAN AMBIENTAL          00304353            109003043535             I04110121000030435300304353            12012100000000295263412897708000000000000000000000000000000000000000000000000000000000000000000000000000000000000000000000000000000000000000000000         00000000000000000000000CONDOMINIO DO EDIFICIO GENERAL                                        000004
10205539814000112041300648601        CLEAN AMBIENTAL          00305515            109003055158             I04110121000030551500305515            11012100000000232813412897708000000000000000000000000000000000000000000000000000000000000000000000000000000000000000000000000000000000000000000000         00000000000000000000000TEMAKI KEBAB BAR E RESTAURANTE                                        000005
10205539814000112041300648601        CLEAN AMBIENTAL          00305645            109003056453             I04110121000030564500305645            08012100000000357893412897708000000000000000000000000000000000000000000000000000000000000000000000000000000000000000000000000000000000000000000000         00000000000000000000000MERLON - LANCHONETE E PASTELAR                                        000006
10205539814000112041300648601        CLEAN AMBIENTAL          00305724            109003057246             I04110121000030572400305724            12012100000000045783412897708000000000000000000000000000000000000000000000000000000000000000000000000000000000000000000000000000000000000000000000         00000000000000000000000VALESCA PEREIRA GONCALVES                                             000007
10205539814000112041300648601        CLEAN AMBIENTAL          00305946            109003059465             I04110121000030594600305946            08012100000000081223412897708000000000000000000000000000000000000000000000000000000000000000000000000000000000000000000000000000000000000000000000         00000000000000000000000ANGEL LAR GERIATRICO EIRELI                                           000008
10205539814000112041300648601        CLEAN AMBIENTAL          00306057            109003060570             I04110121000030605700306057            12012100000000151553412897708000000000000000000000000000000000000000000000000000000000000000000000000000000000000000000000000000000000000000000000         00000000000000000000000CENTRO DE PSIQUIATRIA E PESQUI                                        000009
10205539814000112041300648601        CLEAN AMBIENTAL          00306312            109003063129             I04110121000030631200306312            11012100000001077843412897708000000000000000000000000000000000000000000000000000000000000000000000000000000000000000000000000000000000000000000000         00000000000000000000000PREVTOTAL LABORATORIO DE IMAGE                                        000010
10205539814000112041300648601        CLEAN AMBIENTAL          00306323            109003063236             I04110121000030632300306323            11012100000000519743412897708000000000000000000000000000000000000000000000000000000000000000000000000000000000000000000000000000000000000000000000         00000000000000000000000PADARIA E CONFEITARIA BARONEZA                                        000011
10205539814000112041300648601        CLEAN AMBIENTAL          00306441            109003064416             I04110121000030644100306441            11012100000000317933411009008000000000000000000000000000000000000000000000000000000000000000000000000000000000000000000000000000000000000000000000         00000000000000000000000FUNERARIA SANTA CASA DE NILOPO                                        000012
10205539814000112041300648601        CLEAN AMBIENTAL          00306476            109003064762             I04110121000030647600306476            11012100000000640113412897708000000000000000000000000000000000000000000000000000000000000000000000000000000000000000000000000000000000000000000000         00000000000000000000000LUIZ ANTONIO SEGATO                                                   000013
10205539814000112041300648601        CLEAN AMBIENTAL          00306477            109003064770             I04110121000030647700306477            11012100000000610363412897708000000000000000000000000000000000000000000000000000000000000000000000000000000000000000000000000000000000000000000000         00000000000000000000000ELIEL FIGUEIREDO DIAGNOSTICOS                                         000014
10205539814000112041300648601        CLEAN AMBIENTAL          00306485            109003064853             I04110121000030648500306485            11012100000000482673412897708000000000000000000000000000000000000000000000000000000000000000000000000000000000000000000000000000000000000000000000         00000000000000000000000THAI FIT COMERCIO DE ALIMENTOS                                        000015
10205539814000112041300648601        CLEAN AMBIENTAL          00306486            109003064861             I04110121000030648600306486            15012100000000810133412897708000000000000000000000000000000000000000000000000000000000000000000000000000000000000000000000000000000000000000000000         00000000000000000000000CASA DE REPOUSO LAR DE LAURA L                                        000016
10205539814000112041300648601        CLEAN AMBIENTAL          00306487            109003064879             I04110121000030648700306487            11012100000000586203412897708000000000000000000000000000000000000000000000000000000000000000000000000000000000000000000000000000000000000000000000         00000000000000000000000HORTIFRUTI FORTEFRUIT LTDA                                            000017
10205539814000112041300648601        CLEAN AMBIENTAL          00306504            109003065041             I04110121000030650400306504            08012100000002289473412897708000000000000000000000000000000000000000000000000000000000000000000000000000000000000000000000000000000000000000000000         00000000000000000000000BEM NUTRITIVA COMERCIO DE ALIM                                        000018
10205539814000112041300648601        CLEAN AMBIENTAL          00306559            109003065595             I04110121000030655900306559            08012100000000190263412897708000000000000000000000000000000000000000000000000000000000000000000000000000000000000000000000000000000000000000000000         00000000000000000000000RJC SERVICOS ODONTOLOGICOS LTD                                        000019
10205539814000112041300648601        CLEAN AMBIENTAL          00307139            109003071395             I04110121000030713900307139            12012100000000970073412897708000000000000000000000000000000000000000000000000000000000000000000000000000000000000000000000000000000000000000000000         00000000000000000000000NORDESTE LINHAS AEREAS S/A                                            000020
10205539814000112041300648601        CLEAN AMBIENTAL          00307209            109003072096             I04110121000030720900307209            22032100000001298633412897708000000000000000000000000000000000000000000000000000000000000173790000000000000000000000000000000000000000000000000000         00000000000000000000000IPANEMA - SERVICOS DE ASSISTEN                                        000021
10205539814000112041300648601        CLEAN AMBIENTAL          00307528            109003075289             I04110121000030752800307528            12012100000000056313412897708000000000000000000000000000000000000000000000000000000000000057640000000000000000000000000000000000000000000000000000         00000000000000000000000CLINICA DE EXCELENCIA EM ODONT                                        000022
10205539814000112041300648601        CLEAN AMBIENTAL          00307644            109003076444             I04110121000030764400307644            17012100000004866363412897708000000000000000000000000000000000000000000000000000000000000854400000000000000000000000000000000000000000000000000000         00000000000000000000000PANIFICACAO UNIAO LTDA                                                000023
10205539814000112041300648601        CLEAN AMBIENTAL          00308038            109003080388             I04110121000030803800308038            14012100000000057473412897708000000000000000000000000000000000000000000000000000000000000053840000000000000000000000000000000000000000000000000000         00000000000000000000000URGENCIAS MEDICAS ITANHANGA SA                                        000024
10205539814000112041300648601        CLEAN AMBIENTAL          00308060            109003080602             I04110121000030806000308060            14012100000000112633412897708000000000000000000000000000000000000000000000000000000000000061320000000000000000000000000000000000000000000000000000         00000000000000000000000AMANDA DE OLIVEIRA DOS SANTOS                                         000025
10205539814000112041300648601        CLEAN AMBIENTAL          00308153            109003081535             I04110121000030815300308153            15012100000000115833412897708000000000000000000000000000000000000000000000000000000000000231660000000000000000000000000000000000000000000000000000         00000000000000000000000HEITOR THURLER CARDOSO 1093557                                        000026
10205539814000112041300648601        CLEAN AMBIENTAL          00308249            109003082491             I04110121000030824900308249            25012100000000246823412897708000000000000000000000000000000000000000000000000000000000000238370000000000000000000000000000000000000000000000000000         00000000000000000000000ARTI PLASTICOS LTDA                                                   000027
10205539814000112041300648601        CLEAN AMBIENTAL          00308350            109003083507             I04110121000030835000308350            16012100000000058613412897708000000000000000000000000000000000000000000000000000000000000474230000000000000000000000000000000000000000000000000000         00000000000000000000000BAR E RESTAURANTE BOTECO DO PE                                        000028
10205539814000112041300648601        CLEAN AMBIENTAL          00308741            109003087417             I02110121000030874100308741            19012100000000265023412897708000000000000000000000000000000000000000000000000000000000000000000000000000000000000000000000000000000090000000000000         00000000000000000000000LANCHONETE E ESFIRRARIA PAULIS                                        000029
10205539814000112041300648601        CLEAN AMBIENTAL          00308742            109003087425             I02110121000030874200308742            24012100000000180583412897708000000000000000000000000000000000000000000000000000000000000000000000000000000000000000000000000000000060000000000000         00000000000000000000000BBB LOPES BAR E LANCHONETE LTD                                        000030
10205539814000112041300648601        CLEAN AMBIENTAL          00308743            109003087433             I02110121000030874300308743            19012100000000148383412897708000000000000000000000000000000000000000000000000000000000000000000000000000000000000000000000000000000050000000000000         00000000000000000000000DR. BEM ESTAR LTDA - ME                                               000031
10205539814000112041300648601        CLEAN AMBIENTAL          00308744            109003087441             I02110121000030874400308744            19012100000000059463412897708000000000000000000000000000000000000000000000000000000000000000000000000000000000000000000000000000000020000000000000         00000000000000000000000021 DENTAL ILHA DO GOVERNADOR                                         000032
10205539814000112041300648601        CLEAN AMBIENTAL          00308745            109003087458             I02110121000030874500308745            19012100000000361843412897708000000000000000000000000000000000000000000000000000000000000000000000000000000000000000000000000000000120000000000000         00000000000000000000000VETERINARIA POPULAR RECREIO -                                         000033
10205539814000112041300648601        CLEAN AMBIENTAL          00308746            109003087466             I02110121000030874600308746            29012100000000232533412897708000000000000000000000000000000000000000000000000000000000000000000000000000000000000000000000000000000080000000000000         00000000000000000000000MANTRIS - GESTAO EM SAUDE CORP                                        000034
10205539814000112041300648601        CLEAN AMBIENTAL          00308747            109003087474             I02110121000030874700308747            19012100000000322893412897708000000000000000000000000000000000000000000000000000000000000000000000000000000000000000000000000000000110000000000000         00000000000000000000000SPLASH COMERCIO DE PROD. ALIME                                        000035
10205539814000112041300648601        CLEAN AMBIENTAL          00308748            109003087482             I02110121000030874800308748            19012100000002437633412897708000000000000000000000000000000000000000000000000000000000000000000000000000000000000000000000000000008040000000000000         00000000000000000000000CONFEITARIA RITA DE CASSIA LTD                                        000036
10205539814000112041300648601        CLEAN AMBIENTAL          00308749            109003087490             I02110121000030874900308749            21012100000001907783412897708000000000000000000000000000000000000000000000000000000000000000000000000000000000000000000000000000006300000000000000         00000000000000000000000PASTA & BASTA ALIMENTOS LTDA                                          000037
10205539814000112041300648601        CLEAN AMBIENTAL          00308750            109003087508             I02110121000030875000308750            19012100000000886053412897708000000000000000000000000000000000000000000000000000000000000000000000000000000000000000000000000000000290000000000000         00000000000000000000000AIPIM NA MANTEIGA BAR E LANCHO                                        000038
10205539814000112041300648601        CLEAN AMBIENTAL          00308751            109003087516             I02110121000030875100308751            19012100000000150013412897708000000000000000000000000000000000000000000000000000000000000000000000000000000000000000000000000000000050000000000000         00000000000000000000000RESTAURANTE GARFO E SABOR LTDA                                        000039
10205539814000112041300648601        CLEAN AMBIENTAL          00308752            109003087524             I02110121000030875200308752            24012100000000272373412897708000000000000000000000000000000000000000000000000000000000000000000000000000000000000000000000000000000090000000000000         00000000000000000000000MARIA FACANHA RESTAURANTE E CO                                        000040
10205539814000112041300648601        CLEAN AMBIENTAL          00308753            109003087532             I02110121000030875300308753            19012100000001750213412897708000000000000000000000000000000000000000000000000000000000000000000000000000000000000000000000000000005780000000000000         00000000000000000000000LA MOLE SERVICOS DE ALIMENTACA                                        000041
10205539814000112041300648601        CLEAN AMBIENTAL          00308754            109003087540             I02110121000030875400308754            25012100000000658863412897708000000000000000000000000000000000000000000000000000000000000000000000000000000000000000000000000000000220000000000000         00000000000000000000000CAFE DE LA FLOR BAR LTDA - ME                                         000042
10205539814000112041300648601        CLEAN AMBIENTAL          00308755            109003087557             I02110121000030875500308755            19012100000000133583412897708000000000000000000000000000000000000000000000000000000000000000000000000000000000000000000000000000000040000000000000         00000000000000000000000BAR E LANCHONETE TIC TAC DA CE                                        000043
10205539814000112041300648601        CLEAN AMBIENTAL          00308756            109003087565             I02110121000030875600308756            19012100000000601233412897708000000000000000000000000000000000000000000000000000000000000000000000000000000000000000000000000000000200000000000000         00000000000000000000000RESTAURANTE ATRIUM LTDA - EPP                                         000044
10205539814000112041300648601        CLEAN AMBIENTAL          00308757            109003087573             I02110121000030875700308757            19012100000000757213412897708000000000000000000000000000000000000000000000000000000000000000000000000000000000000000000000000000000250000000000000         00000000000000000000000MEC PREC INDUSTRIA E COMERCIO                                         000045
10205539814000112041300648601        CLEAN AMBIENTAL          00308758            109003087581             I02110121000030875800308758            19012100000001363773412897708000000000000000000000000000000000000000000000000000000000000000000000000000000000000000000000000000004500000000000000         00000000000000000000000MERCADO RENASCENTE DO RIO LTDA                                        000046
10205539814000112041300648601        CLEAN AMBIENTAL          00308759            109003087599             I02110121000030875900308759            19012100000000559623412897708000000000000000000000000000000000000000000000000000000000000000000000000000000000000000000000000000000180000000000000         00000000000000000000000CAFE E BAR COLUMBIA LTDA - ME                                         000047
10205539814000112041300648601        CLEAN AMBIENTAL          00308760            109003087607             I02110121000030876000308760            30012100000000264233412897708000000000000000000000000000000000000000000000000000000000000000000000000000000000000000000000000000000090000000000000         00000000000000000000000PASTELARIA PALACIO DE BONSUCES                                        000048
10205539814000112041300648601        CLEAN AMBIENTAL          00308761            109003087615             I02110121000030876100308761            19012100000000399953412897708000000000000000000000000000000000000000000000000000000000000000000000000000000000000000000000000000000130000000000000         00000000000000000000000G M SERVICOS DE ALIMENTACAO LT                                        000049
10205539814000112041300648601        CLEAN AMBIENTAL          00308762            109003087623             I02110121000030876200308762            19012100000003429363412897708000000000000000000000000000000000000000000000000000000000000000000000000000000000000000000000000000011320000000000000         00000000000000000000000CONDOMINIO DO EDIFICIO CONDADO                                        000050
10205539814000112041300648601        CLEAN AMBIENTAL          00308763            109003087631             I02110121000030876300308763            30012100000000574923412897708000000000000000000000000000000000000000000000000000000000000000000000000000000000000000000000000000000190000000000000         00000000000000000000000BANCO BRADESCO S/A                                                    000051
10205539814000112041300648601        CLEAN AMBIENTAL          00308764            109003087649             I02110121000030876400308764            19012100000001094673412897708000000000000000000000000000000000000000000000000000000000000000000000000000000000000000000000000000003610000000000000         00000000000000000000000CONDOMINIO DO EDIFICIO MAR DE                                         000052
10205539814000112041300648601        CLEAN AMBIENTAL          00308765            109003087656             I02110121000030876500308765            22012100000000376123412897708000000000000000000000000000000000000000000000000000000000000000000000000000000000000000000000000000000120000000000000         00000000000000000000000CONDOMINIO DO EDIFICIO COELHO                                         000053
10205539814000112041300648601        CLEAN AMBIENTAL          00308766            109003087664             I02110121000030876600308766            19012100000000694523412897708000000000000000000000000000000000000000000000000000000000000000000000000000000000000000000000000000000230000000000000         00000000000000000000000LUMINAR PERSIANAS E CORTINAS L                                        000054
10205539814000112041300648601        CLEAN AMBIENTAL          00308767            109003087672             I02110121000030876700308767            19012100000000593683412897708000000000000000000000000000000000000000000000000000000000000000000000000000000000000000000000000000000200000000000000         00000000000000000000000SUB PRACA SECA ALIMENTOS LTDA                                         000055
10205539814000112041300648601        CLEAN AMBIENTAL          00308768            109003087680             I02110121000030876800308768            19012100000000808543412897708000000000000000000000000000000000000000000000000000000000000000000000000000000000000000000000000000000270000000000000         00000000000000000000000VILLA 25 HOTEL E RESTAURANTE L                                        000056
10205539814000112041300648601        CLEAN AMBIENTAL          00308769            109003087698             I02110121000030876900308769            19012100000000539083412897708000000000000000000000000000000000000000000000000000000000000000000000000000000000000000000000000000000180000000000000         00000000000000000000000SABENAUTO COMERCIO DE VEICULOS                                        000057
10205539814000112041300648601        CLEAN AMBIENTAL          00308770            109003087706             I02110121000030877000308770            19012100000000397893412897708000000000000000000000000000000000000000000000000000000000000000000000000000000000000000000000000000000130000000000000         00000000000000000000000SUB DA TAQUARA COMERCIO DE ALI                                        000058
10205539814000112041300648601        CLEAN AMBIENTAL          00308771            109003087714             I02110121000030877100308771            19012100000000936843412897708000000000000000000000000000000000000000000000000000000000000000000000000000000000000000000000000000000310000000000000         00000000000000000000000CONDOMINIO DO EDIFICIO ANTONIO                                        000059
10205539814000112041300648601        CLEAN AMBIENTAL          00308772            109003087722             I02110121000030877200308772            19012100000000564213412897708000000000000000000000000000000000000000000000000000000000000000000000000000000000000000000000000000000190000000000000         00000000000000000000000ASSOCIACAO COMERCIAL DO RIO DE                                        000060
10205539814000112041300648601        CLEAN AMBIENTAL          00308773            109003087730             I02110121000030877300308773            19012100000000476423412897708000000000000000000000000000000000000000000000000000000000000000000000000000000000000000000000000000000160000000000000         00000000000000000000000BAR E RESTAURANTE FAMILIA MARQ                                        000061
10205539814000112041300648601        CLEAN AMBIENTAL          00308774            109003087748             I02110121000030877400308774            19012100000000464213412897708000000000000000000000000000000000000000000000000000000000000000000000000000000000000000000000000000000150000000000000         00000000000000000000000ESCOLA DE EDUCACAO INFANTIL EN                                        000062
10205539814000112041300648601        CLEAN AMBIENTAL          00308775            109003087755             I02110121000030877500308775            19012100000001574993412897708000000000000000000000000000000000000000000000000000000000000000000000000000000000000000000000000000005200000000000000         00000000000000000000000CONDOMINIO EDIFICIO COMERCIAL                                         000063
10205539814000112041300648601        CLEAN AMBIENTAL          00308776            109003087763             I02110121000030877600308776            19012100000000422223412897708000000000000000000000000000000000000000000000000000000000000000000000000000000000000000000000000000000140000000000000         00000000000000000000000CATETE 2005 COMERCIO DE BISCOI                                        000064
10205539814000112041300648601        CLEAN AMBIENTAL          00308777            109003087771             I02110121000030877700308777            19012100000000510473412897708000000000000000000000000000000000000000000000000000000000000000000000000000000000000000000000000000000170000000000000         00000000000000000000000SUPER REDE BATAN MINI MERCADO                                         000065
10205539814000112041300648601        CLEAN AMBIENTAL          00308778            109003087789             I02110121000030877800308778            19012100000001186953412897708000000000000000000000000000000000000000000000000000000000000000000000000000000000000000000000000000003920000000000000         00000000000000000000000GRAJAU COUNTRY CLUB                                                   000066
10205539814000112041300648601        CLEAN AMBIENTAL          00308779            109003087797             I02110121000030877900308779            19012100000000293053412897708000000000000000000000000000000000000000000000000000000000000000000000000000000000000000000000000000000100000000000000         00000000000000000000000KI-BOLINHO ALIMENTOS LTDA                                             000067
10205539814000112041300648601        CLEAN AMBIENTAL          00308780            109003087805             I02110121000030878000308780            19012100000000340753412897708000000000000000000000000000000000000000000000000000000000000000000000000000000000000000000000000000000110000000000000         00000000000000000000000PEIXARIA E MERCADINHO NOVA CAN                                        000068
10205539814000112041300648601        CLEAN AMBIENTAL          00308781            109003087813             I02110121000030878100308781            19012100000000354613412897708000000000000000000000000000000000000000000000000000000000000000000000000000000000000000000000000000000120000000000000         00000000000000000000000WM WORLD MEDICAL IMPORTACAO E                                         000069
10205539814000112041300648601        CLEAN AMBIENTAL          00308782            109003087821             I02110121000030878200308782            19012100000000348943412897708000000000000000000000000000000000000000000000000000000000000000000000000000000000000000000000000000000110000000000000         00000000000000000000000DI NAPOLI D'ORO PIZZARIA LTDA                                         000070
10205539814000112041300648601        CLEAN AMBIENTAL          00308783            109003087839             I02110121000030878300308783            19012100000000461443412897708000000000000000000000000000000000000000000000000000000000000000000000000000000000000000000000000000000150000000000000         00000000000000000000000VIPRIAMA HORTIFRUTIGRANJEIROS                                         000071
10205539814000112041300648601        CLEAN AMBIENTAL          00308784            109003087847             I02110121000030878400308784            19012100000000705363412897708000000000000000000000000000000000000000000000000000000000000000000000000000000000000000000000000000000230000000000000         00000000000000000000000DROGARIA BERNARDINO LTDA                                              000072
10205539814000112041300648601        CLEAN AMBIENTAL          00308785            109003087854             I02110121000030878500308785            19012100000000305533412897708000000000000000000000000000000000000000000000000000000000000000000000000000000000000000000000000000000100000000000000         00000000000000000000000RENATO ESTRELLA BICICLETAS S.A                                        000073
10205539814000112041300648601        CLEAN AMBIENTAL          00308786            109003087862             I02110121000030878600308786            19012100000000237843412897708000000000000000000000000000000000000000000000000000000000000000000000000000000000000000000000000000000080000000000000         00000000000000000000000JACARE DO MARVI HORTIFRUTIGRAN                                        000074
10205539814000112041300648601        CLEAN AMBIENTAL          00308787            109003087870             I02110121000030878700308787            19012100000001858583412897708000000000000000000000000000000000000000000000000000000000000000000000000000000000000000000000000000006130000000000000         00000000000000000000000JAPA RECREIO COMERCIO DE ALIME                                        000075
10205539814000112041300648601        CLEAN AMBIENTAL          00308788            109003087888             I02110121000030878800308788            19012100000000323033412897708000000000000000000000000000000000000000000000000000000000000000000000000000000000000000000000000000000110000000000000         00000000000000000000000TJL SERVICOS EIRELI                                                   000076
10205539814000112041300648601        CLEAN AMBIENTAL          00308789            109003087896             I02110121000030878900308789            19012100000000685343412897708000000000000000000000000000000000000000000000000000000000000000000000000000000000000000000000000000000230000000000000         00000000000000000000000BAR E RESTAURANTE 266 DA FREGU                                        000077
10205539814000112041300648601        CLEAN AMBIENTAL          00308790            109003087904             I02110121000030879000308790            19012100000001791113412897708000000000000000000000000000000000000000000000000000000000000000000000000000000000000000000000000000005910000000000000         00000000000000000000000ESPACO ZERO 1 EIRELI                                                  000078
10205539814000112041300648601        CLEAN AMBIENTAL          00308791            109003087912             I02110121000030879100308791            19012100000000406323412897708000000000000000000000000000000000000000000000000000000000000000000000000000000000000000000000000000000130000000000000         00000000000000000000000FERRO LEBLON PIZZARIA LTDA                                            000079
10205539814000112041300648601        CLEAN AMBIENTAL          00308792            109003087920             I02110121000030879200308792            19012100000001128963412897708000000000000000000000000000000000000000000000000000000000000000000000000000000000000000000000000000003730000000000000         00000000000000000000000FE NOS LANCHES LEBLON LTDA                                            000080
10205539814000112041300648601        CLEAN AMBIENTAL          00308793            109003087938             I02110121000030879300308793            19012100000000741803412897708000000000000000000000000000000000000000000000000000000000000000000000000000000000000000000000000000000240000000000000         00000000000000000000000HOF BOTAFOGO RESTAURANTE LTDA                                         000081
10205539814000112041300648601        CLEAN AMBIENTAL          00308794            109003087946             I02110121000030879400308794            19012100000001652113410059608000000000000000000000000000000000000000000000000000000000000000000000000000000000000000000000000000005450000000000000         00000000000000000000000PADARIA E CONFEITARIA SAO BENT                                        000082
10205539814000112041300648601        CLEAN AMBIENTAL          00308795            109003087953             I02110121000030879500308795            19012100000003836053412897708000000000000000000000000000000000000000000000000000000000000000000000000000000000000000000000000000012660000000000000         00000000000000000000000HOSPITAL DI CAMP LTDA                                                 000083
10205539814000112041300648601        CLEAN AMBIENTAL          00308796            109003087961             I02110121000030879600308796            19012100000000331323412897708000000000000000000000000000000000000000000000000000000000000000000000000000000000000000000000000000000110000000000000         00000000000000000000000IZAKAYA IPANEMA ALIMENTOS LTDA                                        000084
10205539814000112041300648601        CLEAN AMBIENTAL          00308797            109003087979             I02110121000030879700308797            19012100000000277633412897708000000000000000000000000000000000000000000000000000000000000000000000000000000000000000000000000000000090000000000000         00000000000000000000000HORTIFRUTI PRIMOS RIO DA PRATA                                        000085
10205539814000112041300648601        CLEAN AMBIENTAL          00308798            109003087987             I02110121000030879800308798            19012100000000320713412897708000000000000000000000000000000000000000000000000000000000000000000000000000000000000000000000000000000110000000000000         00000000000000000000000MARCOS JOSE RIBEIRO ALVES JUNI                                        000086
10205539814000112041300648601        CLEAN AMBIENTAL          00308799            109003087995             I02110121000030879900308799            19012100000007531583410261808000000000000000000000000000000000000000000000000000000000000000000000000000000000000000000000000000024850000000000000         00000000000000000000000HOSPITAL PSIQUIATRICO ESPIRITA                                        000087
10205539814000112041300648601        CLEAN AMBIENTAL          00308800            109003088001             I02110121000030880000308800            19012100000000592283412897708000000000000000000000000000000000000000000000000000000000000000000000000000000000000000000000000000000200000000000000         00000000000000000000000GALLO GRILL BAR E RESTAURANTE                                         000088
10205539814000112041300648601        CLEAN AMBIENTAL          00308801            109003088019             I02110121000030880100308801            19012100000000595633412897708000000000000000000000000000000000000000000000000000000000000000000000000000000000000000000000000000000200000000000000         00000000000000000000000MANSAO WAYNE BAR E RESTAURANTE                                        000089
10205539814000112041300648601        CLEAN AMBIENTAL          00308802            109003088027             I02110121000030880200308802            19012100000001000793412897708000000000000000000000000000000000000000000000000000000000000000000000000000000000000000000000000000003300000000000000         00000000000000000000000SUSHI DA TAQUARA RESTAURANTE E                                        000090
10205539814000112041300648601        CLEAN AMBIENTAL          00308803            109003088035             I02110121000030880300308803            19012100000000309983412897708000000000000000000000000000000000000000000000000000000000000000000000000000000000000000000000000000000100000000000000         00000000000000000000000AUTO POSTO RALLY LTDA                                                 000091
10205539814000112041300648601        CLEAN AMBIENTAL          00308804            109003088043             I02110121000030880400308804            19012100000000557633412897708000000000000000000000000000000000000000000000000000000000000000000000000000000000000000000000000000000180000000000000         0000000000000000000000088 COMERCIO DE ALIMENTOS E BEB                                        000092
10205539814000112041300648601        CLEAN AMBIENTAL          00308805            109003088050             I02110121000030880500308805            19012100000000242113412897708000000000000000000000000000000000000000000000000000000000000000000000000000000000000000000000000000000080000000000000         00000000000000000000000MARIA CID SILVA 02520015756                                           000093
10205539814000112041300648601        CLEAN AMBIENTAL          00308806            109003088068             I02110121000030880600308806            19012100000000175843412897708000000000000000000000000000000000000000000000000000000000000000000000000000000000000000000000000000000060000000000000         00000000000000000000000GARDIEN PARQUEAMENTOS E SERVIC                                        000094
10205539814000112041300648601        CLEAN AMBIENTAL          00308807            109003088076             I02110121000030880700308807            19012100000000850793412897708000000000000000000000000000000000000000000000000000000000000000000000000000000000000000000000000000000280000000000000         00000000000000000000000PIZCAI DE BANGU COMERCIO, DIST                                        000095
10205539814000112041300648601        CLEAN AMBIENTAL          00308885            109003088852             I02110121000030888500308885            19012100000000089713412897708000000000000000000000000000000000000000000000000000000000000000000000000000000000000000000000000000000030000000000000         00000000000000000000000TAQUARA ASSISTENCIA DENTARIA -                                        000096
10205539814000112041300648601        CLEAN AMBIENTAL          00308964            109003089645             I02110121000030896400308964            25012100000000957093412897708000000000000000000000000000000000000000000000000000000000000000000000000000000000000000000000000000000320000000000000         00000000000000000000000COPACABANA MEDICAL TOWER                                              000097
10205539814000112041300648601        CLEAN AMBIENTAL          00308966            109003089660             I02110121000030896600308966            19012100000000258013412897708000000000000000000000000000000000000000000000000000000000000000000000000000000000000000000000000000000090000000000000         00000000000000000000000CONDOMINIO DO EDIFICIO MATILDE                                        000098
10205539814000112041300648601        CLEAN AMBIENTAL          00308967            109003089678             I02110121000030896700308967            19012100000000187163412897708000000000000000000000000000000000000000000000000000000000000000000000000000000000000000000000000000000060000000000000         00000000000000000000000AMEP BANGU ASSIST. MEDICA POPU                                        000099
10205539814000112041300648601        CLEAN AMBIENTAL          00308968            109003089686             I02110121000030896800308968            19012100000000131733412897708000000000000000000000000000000000000000000000000000000000000000000000000000000000000000000000000000000040000000000000         00000000000000000000000JACQUELINE SOARES SILVA DAMIAN                                        000100
10205539814000112041300648601        CLEAN AMBIENTAL          00308969            109003089694             I02110121000030896900308969            19012100000000134143412897708000000000000000000000000000000000000000000000000000000000000000000000000000000000000000000000000000000040000000000000         00000000000000000000000CLINICA VETERINARIA JUDITH A B                                        000101
10205539814000112041300648601        CLEAN AMBIENTAL          00308970            109003089702             I02110121000030897000308970            19012100000000154823412897708000000000000000000000000000000000000000000000000000000000000000000000000000000000000000000000000000000050000000000000         00000000000000000000000ROSSANA RIBEIRO DE MELO RAMOS                                         000102
10205539814000112041300648601        CLEAN AMBIENTAL          00308971            109003089710             I02110121000030897100308971            19012100000000133683412897708000000000000000000000000000000000000000000000000000000000000000000000000000000000000000000000000000000040000000000000         00000000000000000000000SERPA SERVICOS DE PODOLOGIA LT                                        000103
10205539814000112041300648601        CLEAN AMBIENTAL          00308972            109003089728             I02110121000030897200308972            20012100000000193073412897708000000000000000000000000000000000000000000000000000000000000000000000000000000000000000000000000000000060000000000000         00000000000000000000000RP ODONTOLOGIA LTDA                                                   000104
10205539814000112041300648601        CLEAN AMBIENTAL          00308973            109003089736             I02110121000030897300308973            19012100000000168393412897708000000000000000000000000000000000000000000000000000000000000000000000000000000000000000000000000000000060000000000000         00000000000000000000000UNIDADE COSMICA EVOLUTIVA                                             000105
10205539814000112041300648601        CLEAN AMBIENTAL          00308974            109003089744             I02110121000030897400308974            23012100000000297853412897708000000000000000000000000000000000000000000000000000000000000000000000000000000000000000000000000000000100000000000000         00000000000000000000000FABIO NOGUEIRA MARQUES                                                000106
10205539814000112041300648601        CLEAN AMBIENTAL          00308977            109003089777             I02110121000030897700308977            19012100000000048163412897708000000000000000000000000000000000000000000000000000000000000000000000000000000000000000000000000000000020000000000000         00000000000000000000000STUDIO 452 CABELEIREIROS UNISS                                        000107
10205539814000112041300648601        CLEAN AMBIENTAL          00308978            109003089785             I02110121000030897800308978            19012100000000123183410059608000000000000000000000000000000000000000000000000000000000000000000000000000000000000000000000000000000040000000000000         00000000000000000000000JAQUELINE DA SILVA CHAVES NIGR                                        000108
10205539814000112041300648601        CLEAN AMBIENTAL          00308979            109003089793             I02110121000030897900308979            20012100000000096493412897708000000000000000000000000000000000000000000000000000000000000000000000000000000000000000000000000000000030000000000000         00000000000000000000000VET BACANA LTDA                                                       000109
10205539814000112041300648601        CLEAN AMBIENTAL          00308980            109003089801             I02110121000030898000308980            19012100000000047663410059608000000000000000000000000000000000000000000000000000000000000000000000000000000000000000000000000000000020000000000000         00000000000000000000000PEDRO HENRIQUE DE ABREU DE OLI                                        000110
10205539814000112041300648601        CLEAN AMBIENTAL          00308981            109003089819             I02110121000030898100308981            19012100000000873553412897708000000000000000000000000000000000000000000000000000000000000000000000000000000000000000000000000000000290000000000000         00000000000000000000000POLICLINICA TRES IRMAOS EIRELI                                        000111
10205539814000112041300648601        CLEAN AMBIENTAL          00308982            109003089827             I02110121000030898200308982            19012100000000069943412897708000000000000000000000000000000000000000000000000000000000000000000000000000000000000000000000000000000020000000000000         00000000000000000000000CIOIC - CLINICA INTEGRADA ODON                                        000112
10205539814000112041300648601        CLEAN AMBIENTAL          00308983            109003089835             I02110121000030898300308983            19012100000000085543412897708000000000000000000000000000000000000000000000000000000000000000000000000000000000000000000000000000000030000000000000         00000000000000000000000IR ILHA PLAZA CLINICA ODONTOLO                                        000113
10205539814000112041300648601        CLEAN AMBIENTAL          00308984            109003089843             I02110121000030898400308984            19012100000000062053412897708000000000000000000000000000000000000000000000000000000000000000000000000000000000000000000000000000000020000000000000         00000000000000000000000BARBEARIA BR 021 LTDA                                                 000114
10205539814000112041300648601        CLEAN AMBIENTAL          00308985            109003089850             I02110121000030898500308985            19012100000000047693412897708000000000000000000000000000000000000000000000000000000000000000000000000000000000000000000000000000000020000000000000         00000000000000000000000SIMONE NICACIO ATHADEMO                                               000115
10205539814000112041300648601        CLEAN AMBIENTAL          00308986            109003089868             I02110121000030898600308986            19012100000000114053412897708000000000000000000000000000000000000000000000000000000000000000000000000000000000000000000000000000000040000000000000         00000000000000000000000ANDREIA RENATA CUNHA MEDEIROS                                         000116
10205539814000112041300648601        CLEAN AMBIENTAL          00308987            109003089876             I02110121000030898700308987            19012100000000304213412897708000000000000000000000000000000000000000000000000000000000000000000000000000000000000000000000000000000100000000000000         00000000000000000000000IBRAP EDUCACAO PROFISSIONAL EI                                        000117
10205539814000112041300648601        CLEAN AMBIENTAL          00308988            109003089884             I02110121000030898800308988            19012100000000089093412897708000000000000000000000000000000000000000000000000000000000000000000000000000000000000000000000000000000030000000000000         00000000000000000000000BARBER SHOP SUL LTDA                                                  000118
10205539814000112041300648601        CLEAN AMBIENTAL          00308990            109003089900             I02110121000030899000308990            19012100000000067453412897708000000000000000000000000000000000000000000000000000000000000000000000000000000000000000000000000000000020000000000000         00000000000000000000000KATIA DA SILVA SANTOS BESSA                                           000119
10205539814000112041300648601        CLEAN AMBIENTAL          00308991            109003089918             I02110121000030899100308991            19012100000000048573412897708000000000000000000000000000000000000000000000000000000000000000000000000000000000000000000000000000000020000000000000         00000000000000000000000RODIE BARBEARIA LTDA                                                  000120
10205539814000112041300648601        CLEAN AMBIENTAL          00308993            109003089934             I02110121000030899300308993            19012100000000043573412897708000000000000000000000000000000000000000000000000000000000000000000000000000000000000000000000000000000010000000000000         00000000000000000000000GARRITANO\\\'S CABELEIREIROS L                                        000121
10205539814000112041300648601        CLEAN AMBIENTAL          00308994            109003089942             I02110121000030899400308994            19012100000000085003412897708000000000000000000000000000000000000000000000000000000000000000000000000000000000000000000000000000000030000000000000         00000000000000000000000A.C. TRUGILHO MAIS SAUDE                                              000122
10205539814000112041300648601        CLEAN AMBIENTAL          00308995            109003089959             I02110121000030899500308995            19012100000000142373412897708000000000000000000000000000000000000000000000000000000000000000000000000000000000000000000000000000000050000000000000         00000000000000000000000ANNA CAROLINA BESSA ALVES DE C                                        000123
10205539814000112041300648601        CLEAN AMBIENTAL          00308996            109003089967             I02110121000030899600308996            19012100000000085473412897708000000000000000000000000000000000000000000000000000000000000000000000000000000000000000000000000000000030000000000000         00000000000000000000000MARCO ANTONIO ALVES ROCHA                                             000124
10205539814000112041300648601        CLEAN AMBIENTAL          00308997            109003089975             I02110121000030899700308997            21012100000000153593412897708000000000000000000000000000000000000000000000000000000000000000000000000000000000000000000000000000000050000000000000         00000000000000000000000MARCUS FELICIO DAFLON ANTONIO                                         000125
10205539814000112041300648601        CLEAN AMBIENTAL          00308998            109003089983             I02110121000030899800308998            19012100000000101023412897708000000000000000000000000000000000000000000000000000000000000000000000000000000000000000000000000000000030000000000000         00000000000000000000000ROSANA DIAS LESSA                                                     000126
10205539814000112041300648601        CLEAN AMBIENTAL          00308999            109003089991             I02110121000030899900308999            20012100000000117903414562508000000000000000000000000000000000000000000000000000000000000000000000000000000000000000000000000000000040000000000000         00000000000000000000000J.A.2018 SERVICOS ODONTOLOGICO                                        000127
10205539814000112041300648601        CLEAN AMBIENTAL          00309000            109003090007             I02110121000030900000309000            19012100000000057633412897708000000000000000000000000000000000000000000000000000000000000000000000000000000000000000000000000000000020000000000000         00000000000000000000000JULIANE DALTIO ALBUQUERQUE                                            000128
10205539814000112041300648601        CLEAN AMBIENTAL          00309001            109003090015             I02110121000030900100309001            19012100000000107113412897708000000000000000000000000000000000000000000000000000000000000000000000000000000000000000000000000000000040000000000000         00000000000000000000000KAROLINA MARQUES DE AZEVEDO                                           000129
10205539814000112041300648601        CLEAN AMBIENTAL          00309002            109003090023             I02110121000030900200309002            19012100000000087273412897708000000000000000000000000000000000000000000000000000000000000000000000000000000000000000000000000000000030000000000000         00000000000000000000000CLINICA VETERINARIA NOSSA SENH                                        000130
10205539814000112041300648601        CLEAN AMBIENTAL          00309003            109003090031             I02110121000030900300309003            19012100000000351173412897708000000000000000000000000000000000000000000000000000000000000000000000000000000000000000000000000000000120000000000000         00000000000000000000000TY SERVICOS ODONTOLOGICOS LTDA                                        000131
10205539814000112041300648601        CLEAN AMBIENTAL          00309004            109003090049             I02110121000030900400309004            19012100000012236843410261808000000000000000000000000000000000000000000000000000000000000000000000000000000000000000000000000000040380000000000000         00000000000000000000000HOSPITAL PSIQUIATRICO ESPIRITA                                        000132
10205539814000112041300648601        CLEAN AMBIENTAL          00309005            109003090056             I02110121000030900500309005            19012100000000173953412897708000000000000000000000000000000000000000000000000000000000000000000000000000000000000000000000000000000060000000000000         00000000000000000000000RISK ASSESS BRASIL APOIO OPERA                                        000133
10205539814000112041300648601        CLEAN AMBIENTAL          00309006            109003090064             I02110121000030900600309006            19012100000000136513410229508000000000000000000000000000000000000000000000000000000000000000000000000000000000000000000000000000000040000000000000         00000000000000000000000DEBORA MARIA JUSTINO OLIVEIRA                                         000134
10205539814000112041300648601        CLEAN AMBIENTAL          00309007            109003090072             I02110121000030900700309007            19012100000000047253412897708000000000000000000000000000000000000000000000000000000000000000000000000000000000000000000000000000000020000000000000         00000000000000000000000CHAVES E NADAES BARBEARIA E SE                                        000135
10205539814000112041300648601        CLEAN AMBIENTAL          00309008            109003090080             I02110121000030900800309008            19012100000000122633412897708000000000000000000000000000000000000000000000000000000000000000000000000000000000000000000000000000000040000000000000         00000000000000000000000RICARDO JOSE FERNANDES DA COST                                        000136
10205539814000112041300648601        CLEAN AMBIENTAL          00245334            109002453347             I06110121000024533400245334            30121900000000367493411595808000000000016400000000000000000000000000000000000000000000000000000000000000000000000003658500000000000000000000000000   11012100000000000000000000000VILLAGE GRIFFE DO PAO LTDA                                          CK000137
10205539814000112041300648601        CLEAN AMBIENTAL          00294167            109002941671             I06110121000029416700294167            08012100000000111051041620408000000000016400000000000000000000000000000000000000000000000000000000000000000000000001094100000000000000000000000000   11012100000000000000000000000WELLINGTON DOS REIS SOUSA CONS                                      B3000138
10205539814000112041300648601        CLEAN AMBIENTAL          00296987            109002969870             I06110121000029698700296987            06112000000000054462371698008000000000016400000000000000000000000000000000000000000000000000000000000000000000000000528200000000000000000000000000   11012100000000000000000000000SERGIO PINTO CHAVES JUNIOR                                          B3000139
10205539814000112041300648601        CLEAN AMBIENTAL          00300253            109003002531             I06110121000030025300300253            24112000000000080656550001808000000000016400000000000000000000000000000000000000000000000000000000000000000000000000820600000000003050000000000000   11012100000000000000000000000M MERHY DE SOUZA - EIRELI                                           B3000140
10205539814000112041300648601        CLEAN AMBIENTAL          00300443            109003004438             I06110121000030044300300443            10122000000000531022371745908000000000016400000000000000000000000000000000000000000000000000000000000000000000000005457600000000016380000000000000   11012100000000000000000000000SCANDINAVIA BAR LTDA - ME                                           B3000141
10205539814000112041300648601        CLEAN AMBIENTAL          00301680            109003016804             I06110121000030168000301680            06122000000000054462371698008000000000016400000000000000000000000000000000000000000000000000000000000000000000000000528200000000000000000000000000   11012100000000000000000000000SERGIO PINTO CHAVES JUNIOR                                          B3000142
10205539814000112041300648601        CLEAN AMBIENTAL          00302176            109003021762             I06110121000030217600302176            10122000000000057633410488708000000000016400000000000000000000000000000000000000000000000000000000000000000000000000559900000000000000000000000000   11012100000000000000000000000PAULA SOARES DE OLIVEIRA                                            AA000143
10205539814000112041300648601        CLEAN AMBIENTAL          00303231            109003032314             I06110121000030323100303231            13122000000000092891970001808000000000016400000000000000000000000000000000000000000000000000000000000000000000000000939800000000002730000000000000   11012100000000000000000000000DARCI BARBOSA PAIXAO                                                B3000144
10205539814000112041300648601        CLEAN AMBIENTAL          00303343            109003033437             I06110121000030334300303343            14122000000000463832370471308000000000016400000000000000000000000000000000000000000000000000000000000000000000000004756700000000013480000000000000   11012100000000000000000000000PRONTOCLINICA LTDA                                                  B3000145
10205539814000112041300648601        CLEAN AMBIENTAL          00303811            109003038113             I06110121000030381100303811            17122000000000038733413212808000000000016400000000000000000000000000000000000000000000000000000000000000000000000000381100000000001020000000000000   11012100000000000000000000000THATIANA PRUDENTE JARDIM                                            BL000146
10205539814000112041300648601        CLEAN AMBIENTAL          00304088            109003040887             I06110121000030408800304088            24122000000000216004220138808000000000016400000000000000000000000000000000000000000000000000000000000000000000000002143600000000000000000000000000   11012100000000000000000000000BBB LOPES BAR E LANCHONETE LTD                                      B7000147
10205539814000112041300648601        CLEAN AMBIENTAL          00304256            109003042560             I06110121000030425600304256            10012100000000733013410092708000000000016400000000000000000000000000000000000000000000000000000000000000000000000007313700000000000000000000000000   11012100000000000000000000000ASSISTENCIA MEDICA DOMICILIAR                                       CK000148
10205539814000112041300648601        CLEAN AMBIENTAL          00304368            109003043683             I06110121000030436800304368            30122000000000438433415649908000000000016400000000000000000000000000000000000000000000000000000000000000000000000004472400000000010450000000000000   11012100000000000000000000000DOCELAR  REPOUSO PARA IDOSOS L                                      CK000149
10205539814000112041300648601        CLEAN AMBIENTAL          00304446            109003044467             I06110121000030444600304446            21122000000000322113410934008000000000016400000000000000000000000000000000000000000000000000000000000000000000000003204700000000000000000000000000   11012100000000000000000000000BAR E LANCHONETE VEJA BEM LTDA                                      AA000150
10205539814000112041300648601        CLEAN AMBIENTAL          00304463            109003044632             I06110121000030446300304463            21122000000000299633418072108000000000016400000000000000000000000000000000000000000000000000000000000000000000000003060800000000008090000000000000   11012100000000000000000000000O COZINHEIRO CENTRAL LANCHONET                                      BL000151
10205539814000112041300648601        CLEAN AMBIENTAL          00304731            109003047312             I06110121000030473100304731            24122000000000084356550001808000000000016400000000000000000000000000000000000000000000000000000000000000000000000000849400000000002230000000000000   11012100000000000000000000000M MERHY DE SOUZA - EIRELI                                           B3000152
10205539814000112041300648601        CLEAN AMBIENTAL          00304778            109003047783             I06110121000030477800304778            07012100000000328780333906508000000000016400000000000000000000000000000000000000000000000000000000000000000000000003341100000000006970000000000000   11012100000000000000000000000PIZZA E GRILL LAPA RESTAURANTE                                      B3000153
10205539814000112041300648601        CLEAN AMBIENTAL          00304894            109003048948             I06110121000030489400304894            23122000000000173032371791308000000000016400000000000000000000000000000000000000000000000000000000000000000000000001713900000000000000000000000000   11012100000000000000000000000E TAMUSSINO E CIA LTDA                                              B7000154
10205539814000112041300648601        CLEAN AMBIENTAL          00304967            109003049672             I06110121000030496700304967            10012100000000397630333387808000000000016400000000000000000000000000000000000000000000000000000000000000000000000003959900000000000000000000000000   11012100000000000000000000000RP INDUSTRIA COMERCIO E DISTRI                                      B3000155
10205539814000112041300648601        CLEAN AMBIENTAL          00305121            109003051215             I06110121000030512100305121            01012100000000259532371745908000000000016400000000000000000000000000000000000000000000000000000000000000000000000002639800000000006090000000000000   11012100000000000000000000000SCANDINAVIA BAR LTDA - ME                                           B3000156
10205539814000112041300648601        CLEAN AMBIENTAL          00305144            109003051447             I06110121000030514400305144            10012100000000383570333900808000000000016400000000000000000000000000000000000000000000000000000000000000000000000003819300000000000000000000000000   11012100000000000000000000000POSTO STELLA DE ABASTECIMENTO                                       B3000157
10205539814000112041300648601        CLEAN AMBIENTAL          00305169            109003051694             I06110121000030516900305169            26122000000000493033418395608000000000016400000000000000000000000000000000000000000000000000000000000000000000000005038100000000012420000000000000   11012100000000000000000000000PELO SIM PELO NAO CENTRO DE DE                                      CK000158
10205539814000112041300648601        CLEAN AMBIENTAL          00305335            109003053351             I06110121000030533500305335            10012100000000098002371444908000000000016400000000000000000000000000000000000000000000000000000000000000000000000000963600000000000000000000000000   11012100000000000000000000000O QUINTAL ZEN REST . EIRELI EP                                      B3000159
10205539814000112041300648601        CLEAN AMBIENTAL          00305355            109003053559             I06110121000030535500305355            08012100000000335791042123808000000000016400000000000000000000000000000000000000000000000000000000000000000000000003412000000000007050000000000000   11012100000000000000000000000DALAPA COMERCIO DE ALIMENTOS L                                      B5000160
10205539814000112041300648601        CLEAN AMBIENTAL          00305409            109003054094             I06110121000030540900305409            28122000000000143310331667508000000000016400000000000000000000000000000000000000000000000000000000000000000000000001452400000000003570000000000000   11012100000000000000000000000ARGONAUTA ATIVIDADES SUBAQUATI                                      B3000161
10205539814000112041300648601        CLEAN AMBIENTAL          00305434            109003054342             I06110121000030543400305434            28122000000000073423416009508000000000016400000000000000000000000000000000000000000000000000000000000000000000000000735300000000001750000000000000   11012100000000000000000000000ASSOCIACAO DE CULTURA E EDUCAC                                      CK000162
10205539814000112041300648601        CLEAN AMBIENTAL          00305457            109003054573             I06110121000030545700305457            25122000000000168042371075108000000000016400000000000000000000000000000000000000000000000000000000000000000000000001707800000000004380000000000000   11012100000000000000000000000CONSULTORIO VETERINARIO DA BAR                                      B1000163
10205539814000112041300648601        CLEAN AMBIENTAL          00305482            109003054821             I06110121000030548200305482            09012100000000671423410269108000000000016400000000000000000000000000000000000000000000000000000000000000000000000006697800000000000000000000000000   11012100000000000000000000000CONDOMINIO DO EDIFICIO BROADWA                                      CK000164
10205539814000112041300648601        CLEAN AMBIENTAL          00305508            109003055083             I06110121000030550800305508            29122000000000258123416021008000000000016400000000000000000000000000000000000000000000000000000000000000000000000002628100000000006330000000000000   11012100000000000000000000000JVS 2018 HORTIFRUTI EIRELI                                          BL000165
10205539814000112041300648601        CLEAN AMBIENTAL          00305534            109003055349             I06110121000030553400305534            10012100000003544843410571008000000000016400000000000000000000000000000000000000000000000000000000000000000000000035432000000000000000000000000000   11012100000000000000000000000CLUBE DOS MARIMBAS                                                  CK000166
10205539814000112041300648601        CLEAN AMBIENTAL          00305537            109003055372             I06110121000030553700305537            10012100000000397893416240608000000000016400000000000000000000000000000000000000000000000000000000000000000000000003962500000000000000000000000000   11012100000000000000000000000PANIFICACAO RIO 2004 LTDA                                           CP000167
10205539814000112041300648601        CLEAN AMBIENTAL          00305540            109003055406             I06110121000030554000305540            10012100000003347473417190208000000000016400000000000000000000000000000000000000000000000000000000000000000000000033458300000000000000000000000000   11012100000000000000000000000FITAS FLAX DA AMAZONIA LTDA                                         CK000168
10205539814000112041300648601        CLEAN AMBIENTAL          00305557            109003055570             I06110121000030555700305557            08012100000000866520333254008000000000016400000000000000000000000000000000000000000000000000000000000000500000000008598800000000000000000000000000   11012100000000000000000000000BAR RESTAURANTE E GALETERIA CO                                      B2000169
10205539814000112041300648601        CLEAN AMBIENTAL          00305569            109003055695             I06110121000030556900305569            30122000000000468070013010608000000000016400000000000000000000000000000000000000000000000000000000000000000000000004775900000000011160000000000000   11012100000000000000000000000BAR DA FRENTE - RESTAURANTE E                                       B3000170
10205539814000112041300648601        CLEAN AMBIENTAL          00305570            109003055703             I06110121000030557000305570            10012100000000412933416561508000000000016400000000000000000000000000000000000000000000000000000000000000000000000004112900000000000000000000000000   11012100000000000000000000000CRECHE ALEGRIA & CIA LTDA - ME                                      CK000171
10205539814000112041300648601        CLEAN AMBIENTAL          00305603            109003056032             I06110121000030560300305603            10012100000000632160330690808000000000016400000000000000000000000000000000000000000000000000000000000000000000000006305200000000000000000000000000   11012100000000000000000000000GASTROSERVICE REF LTDA                                              B7000172
10205539814000112041300648601        CLEAN AMBIENTAL          00305604            109003056040             I06110121000030560400305604            10012100000000655533410395408000000000016400000000000000000000000000000000000000000000000000000000000000000000000006538900000000000000000000000000   11012100000000000000000000000RS2 CONFEITARIA E PADARIA                                           CK000173
10205539814000112041300648601        CLEAN AMBIENTAL          00305618            109003056180             I06110121000030561800305618            11012100000001402943410413508000000000016400000000000000000000000000000000000000000000000000000000000000000000000014013000000000000000000000000000   11012100000000000000000000000JV2D INSTITUTO DE BELEZA LTDA                                       CK000174
10205539814000112041300648601        CLEAN AMBIENTAL          00305640            109003056404             I06110121000030564000305640            10012100000000374183410308708000000000016400000000000000000000000000000000000000000000000000000000000000000000000003725400000000000000000000000000   11012100000000000000000000000IZAKAYA LANCHONETE LTDA                                             CK000175
10205539814000112041300648601        CLEAN AMBIENTAL          00305643            109003056438             I06110121000030564300305643            01012100000000029551040232908000000000016400000000000000000000000000000000000000000000000000000000000000000000000000286000000000000690000000000000   11012100000000000000000000000RESTAURANTE NOVO ENCONTRO LTDA                                      B5000176
10205539814000112041300648601        CLEAN AMBIENTAL          00305645            109003056453             I06110121000030564500305645            08012100000000357896330001808000000000016400000000000000000000000000000000000000000000000000000000000000000000000003637700000000007520000000000000   11012100000000000000000000000MERLON - LANCHONETE E PASTELAR                                      B3000177
10205539814000112041300648601        CLEAN AMBIENTAL          00305701            109003057014             I06110121000030570100305701            10012100000000405261043223508000000000016400000000000000000000000000000000000000000000000000000000000000000000000004036200000000000000000000000000   11012100000000000000000000000BELO ROSARIO RESTAURANTE LTDA                                       B5000178
10205539814000112041300648601        CLEAN AMBIENTAL          00305715            109003057154             I06110121000030571500305715            07012100000000511492370541308000000000016400000000000000000000000000000000000000000000000000000000000000000000000005098500000000000000000000000000   11012100000000000000000000000LABORATORIO MORALES LTDA                                            B3000179
10205539814000112041300648601        CLEAN AMBIENTAL          00305752            109003057527             I06110121000030575200305752            02012100000000056320333391008000000000016400000000000000000000000000000000000000000000000000000000000000000000000000559900000000001310000000000000   11012100000000000000000000000DOUTOR ODONTO CLINICA ODONTOLO                                      B3000180
10205539814000112041300648601        CLEAN AMBIENTAL          00305841            109003058418             I06110121000030584100305841            30122000000000158163413870308000000000016400000000000000000000000000000000000000000000000000000000000000000000000001602800000000003760000000000000   11012100000000000000000000000PL SAUDE E BELEZA S/S LTDA                                          BL000181
10205539814000112041300648601        CLEAN AMBIENTAL          00305848            109003058483             I06110121000030584800305848            30122000000000117360015757008000000000016400000000000000000000000000000000000000000000000000000000000000000000000001185500000000002830000000000000   11012100000000000000000000000JANILSON DOS REIS CAVALCANTE                                        B3000182
10205539814000112041300648601        CLEAN AMBIENTAL          00305877            109003058772             I06110121000030587700305877            10012100000000165170333454608000000000016400000000000000000000000000000000000000000000000000000000000000000000000001635300000000000000000000000000   11012100000000000000000000000SOBRADINHO CARIOCA REFEICOES L                                      B3000183
10205539814000112041300648601        CLEAN AMBIENTAL          00305883            109003058830             I06110121000030588300305883            10012100000000544673410269108000000000016400000000000000000000000000000000000000000000000000000000000000000000000005430300000000000000000000000000   11012100000000000000000000000CONDOMINIO DO EDIFICIO RIO PAL                                      CK000184
10205539814000112041300648601        CLEAN AMBIENTAL          00305887            109003058871             I06110121000030588700305887            10012100000000475770014820708000000000016400000000000000000000000000000000000000000000000000000000000000000000000004741300000000000000000000000000   11012100000000000000000000000ENCANTO DO BAIRRO LANCHONETE L                                      B1000185
10205539814000112041300648601        CLEAN AMBIENTAL          00305908            109003059085             I06110121000030590800305908            02012100000000401840334384408000000000016400000000000000000000000000000000000000000000000000000000000000000000000004094100000000009210000000000000   11012100000000000000000000000CHURRASCALDO GOURMET EIRELLI                                        B3000186
10205539814000112041300648601        CLEAN AMBIENTAL          00305946            109003059465             I06110121000030594600305946            08012100000000081223416312308000000000016400000000000000000000000000000000000000000000000000000000000000000000000000812900000000001710000000000000   11012100000000000000000000000ANGEL LAR GERIATRICO EIRELI                                         BL000187
10205539814000112041300648601        CLEAN AMBIENTAL          00305982            109003059820             I06110121000030598200305982            09012100000000366271040225308000000000016400000000000000000000000000000000000000000000000000000000000000000000000003646300000000000000000000000000   11012100000000000000000000000HORTIFRUTI BM COMERCIO ALIMENT                                      B5000188
10205539814000112041300648601        CLEAN AMBIENTAL          00306003            109003060034             I06110121000030600300306003            08012100000000361043410408508000000000016400000000000000000000000000000000000000000000000000000000000000000000000003669800000000007580000000000000   11012100000000000000000000000BAR E LANCHONETE REX LTDA - ME                                      CK000189
10205539814000112041300648601        CLEAN AMBIENTAL          00306006            109003060067             I06110121000030600600306006            15012100000000241190333454608000000000016400000000000000000000000000000000000000000000000000000000000000000000000002395500000000000000000000000000   11012100000000000000000000000COPA 706 LANCHONETE LTDA - EPP                                      B3000190
10205539814000112041300648601        CLEAN AMBIENTAL          00306013            109003060133             I06110121000030601300306013            15012100000000491423410416808000000000016400000000000000000000000000000000000000000000000000000000000000000000000004897800000000000000000000000000   11012100000000000000000000000LANCHONETE MEU CANTAO LTDA - E                                      CK000191
10205539814000112041300648601        CLEAN AMBIENTAL          00306041            109003060414             I06110121000030604100306041            10012100000000731320330226108000000000016400000000000000000000000000000000000000000000000000000000000000000000000007296800000000000000000000000000   11012100000000000000000000000LR2 PRODUTOS ALIMENTICIOS LTDA                                      B3000192
10205539814000112041300648601        CLEAN AMBIENTAL          00306072            109003060729             I06110121000030607200306072            03012100000000085532373262308000000000016400000000000000000000000000000000000000000000000000000000000000000000000000838900000000000000000000000000   11012100000000000000000000000NARA ISAULINA MANGARAVITE ENCI                                      B3000193
10205539814000112041300648601        CLEAN AMBIENTAL          00306074            109003060745             I06110121000030607400306074            03012100000000135001040190908000000000016400000000000000000000000000000000000000000000000000000000000000000000000001363800000000003020000000000000   11012100000000000000000000000J SOUSA ANDRADE                                                     B5000194
10205539814000112041300648601        CLEAN AMBIENTAL          00306092            109003060927             I06110121000030609200306092            10012100000000610263416015208000000000016400000000000000000000000000000000000000000000000000000000000000000000000006086200000000000000000000000000   11012100000000000000000000000CAIXA DE ASSISTENCIA A SAUDE -                                      CK000195
10205539814000112041300648601        CLEAN AMBIENTAL          00306108            109003061081             I06110121000030610800306108            11012100000000112633417185208000000000016400000000000000000000000000000000000000000000000000000000000000000000000001109900000000000000000000000000   11012100000000000000000000000ELAINE CRISTINA DE OLIVEIRA SI                                      BL000196
10205539814000112041300648601        CLEAN AMBIENTAL          00306134            109003061347             I06110121000030613400306134            09012100000001255283416015208000000000016400000000000000000000000000000000000000000000000000000000000000000000000012536400000000000000000000000000   11012100000000000000000000000CONDOMINIO DO EDIFICIO LEBLON                                       CK000197
10205539814000112041300648601        CLEAN AMBIENTAL          00306139            109003061396             I06110121000030613900306139            04012100000000529210010472108000000000016400000000000000000000000000000000000000000000000000000000000000000000000005275700000000000000000000000000   11012100000000000000000000000PADARIA E CONFEITARIA 3 MARIAS                                      B6000198
10205539814000112041300648601        CLEAN AMBIENTAL          00306144            109003061446             I06110121000030614400306144            09012100000000464022371669108000000000016400000000000000000000000000000000000000000000000000000000000000000000000004623800000000000000000000000000   11012100000000000000000000000CONFEITARIA TRIO PAO QUENTE LT                                      B3000199
10205539814000112041300648601        CLEAN AMBIENTAL          00306156            109003061560             I06110121000030615600306156            10012100000000283793418561308000000000016400000000000000000000000000000000000000000000000000000000000000000000000002821500000000000000000000000000   11012100000000000000000000000NOVA GERACAO COMESTIVEIS S.A                                        CK000200
10205539814000112041300648601        CLEAN AMBIENTAL          00306194            109003061941             I06110121000030619400306194            09012100000001852120334390108000000000016400000000000000000000000000000000000000000000000000000000000000000000000018504800000000000000000000000000   11012100000000000000000000000CENTRO DE MICROCIRURGIA E DIAG                                      B7000201
10205539814000112041300648601        CLEAN AMBIENTAL          00306204            109003062048             I06110121000030620400306204            10012100000000127113410934008000000000016400000000000000000000000000000000000000000000000000000000000000000000000001254700000000000000000000000000   11012100000000000000000000000INST DE EDUCACAO E CULTURA NOS                                      CK000202
10205539814000112041300648601        CLEAN AMBIENTAL          00306248            109003062485             I06110121000030624800306248            10012100000000391830330057008000000000016400000000000000000000000000000000000000000000000000000000000000000000000003901900000000000000000000000000   11012100000000000000000000000CAFE VISCONDE                                                       B1000203
10205539814000112041300648601        CLEAN AMBIENTAL          00306259            109003062592             I06110121000030625900306259            10012100000000222740330057008000000000016400000000000000000000000000000000000000000000000000000000000000000000000002211000000000000000000000000000   11012100000000000000000000000CONDOMINIO EDIFICIO CENTRO COM                                      B7000204
10205539814000112041300648601        CLEAN AMBIENTAL          00306289            109003062899             I06110121000030628900306289            11012100000001159970333153408000000000016400000000000000000000000000000000000000000000000000000000000000000000000011583300000000000000000000000000   11012100000000000000000000000RESTAURANTE DUKE LTDA                                               B3000205
10205539814000112041300648601        CLEAN AMBIENTAL          00306312            109003063129             I06110121000030631200306312            11012100000001077844220047108000000000016400000000000000000000000000000000000000000000000000000000000000000000000010762000000000000000000000000000   11012100000000000000000000000PREVTOTAL LABORATORIO DE IMAGE                                      B7000206
10205539814000112041300648601        CLEAN AMBIENTAL          00306343            109003063434             I06110121000030634300306343            06012100000000392260333271408000000000016400000000000000000000000000000000000000000000000000000000000000500000000003856200000000000000000000000000   11012100000000000000000000000PEIXARIA ROMADODA LTDA                                              B3000207
10205539814000112041300648601        CLEAN AMBIENTAL          00306348            109003063483             I06110121000030634800306348            06012100000000353662370872208000000000016400000000000000000000000000000000000000000000000000000000000000000000000003520200000000000000000000000000   11012100000000000000000000000BANCO BRADESCO S/A                                                  B1000208
10205539814000112041300648601        CLEAN AMBIENTAL          00306371            109003063715             I06110121000030637100306371            10012100000000378692370227908000000000016400000000000000000000000000000000000000000000000000000000000000000000000003770500000000000000000000000000   11012100000000000000000000000PRO CRIANCA CARDIACA                                                B3000209
10205539814000112041300648601        CLEAN AMBIENTAL          00306406            109003064069             I06110121000030640600306406            10012100000000932091040219608000000000016400000000000000000000000000000000000000000000000000000000000000000000000009304500000000000000000000000000   11012100000000000000000000000CONDOMINIO DO EDIFICIO CAROLIN                                      B5000210
10205539814000112041300648601        CLEAN AMBIENTAL          00306414            109003064143             I06110121000030641400306414            07012100000000142312370872208000000000016400000000000000000000000000000000000000000000000000000000000000000000000001437200000000003050000000000000   11012100000000000000000000000BICHO FELIZ LTDA                                                    B3000211
10205539814000112041300648601        CLEAN AMBIENTAL          00306444            109003064440             I06110121000030644400306444            07012100000000060913419166008000000000016400000000000000000000000000000000000000000000000000000000000000000000000000605700000000001300000000000000   11012100000000000000000000000REGINA SOUSA FERNANDES                                              BL000212
10205539814000112041300648601        CLEAN AMBIENTAL          00306446            109003064465             I06110121000030644600306446            07012100000000199212370448108000000000016400000000000000000000000000000000000000000000000000000000000000000000000001975700000000000000000000000000   11012100000000000000000000000ANERIC COMERCIO DE ALIMENTOS E                                      B3000213
10205539814000112041300648601        CLEAN AMBIENTAL          00306467            109003064671             I06110121000030646700306467            10012100000000592482373019708000000000016400000000000000000000000000000000000000000000000000000000000000000000000005908400000000000000000000000000   11012100000000000000000000000CAJU WAY LANCHONETE EIRELI - E                                      B3000214
10205539814000112041300648601        CLEAN AMBIENTAL          00306470            109003064705             I06110121000030647000306470            12012100000000472323418188508000000000016400000000000000000000000000000000000000000000000000000000000000000000000004706800000000000000000000000000   11012100000000000000000000000ROSEDOL COMERCIO LTDA - ME                                          CK000215
10205539814000112041300648601        CLEAN AMBIENTAL          00306477            109003064770             I06110121000030647700306477            11012100000000610362373262308000000000016400000000000000000000000000000000000000000000000000000000000000000000000006087200000000000000000000000000   11012100000000000000000000000ELIEL FIGUEIREDO DIAGNOSTICOS                                       B3000216
10205539814000112041300648601        CLEAN AMBIENTAL          00306483            109003064838             I06110121000030648300306483            07012100000000349490011251808000000000016400000000000000000000000000000000000000000000000000000000000000000000000003553200000000007470000000000000   11012100000000000000000000000BAR E LANCHONETE CANTINHO DA D                                      B2000217
10205539814000112041300648601        CLEAN AMBIENTAL          00306485            109003064853             I06110121000030648500306485            11012100000000482673410584308000000000016400000000000000000000000000000000000000000000000000000000000000000000000004810300000000000000000000000000   11012100000000000000000000000THAI FIT COMERCIO DE ALIMENTOS                                      BL000218
10205539814000112041300648601        CLEAN AMBIENTAL          00306519            109003065199             I06110121000030651900306519            10012100000002509963410304608000000000016400000000000000000000000000000000000000000000000000000000000000000000000025083200000000000000000000000000   11012100000000000000000000000CONDOMINIO DO EDIFICIO UNICENT                                      CK000219
10205539814000112041300648601        CLEAN AMBIENTAL          00306522            109003065223             I06110121000030652200306522            12012100000000234872371629508000000000016400000000000000000000000000000000000000000000000000000000000000000000000002332300000000000000000000000000   11012100000000000000000000000CONDOMINIO DO EDIFICIO CORAL                                        B3000220
10205539814000112041300648601        CLEAN AMBIENTAL          00306533            109003065330             I06110121000030653300306533            07012100000000072132120001808000000000016400000000000000000000000000000000000000000000000000000000000000000000000000720100000000001520000000000000   11012100000000000000000000000ATHENA SERVICOS MEDICOS                                             B3000221
10205539814000112041300648601        CLEAN AMBIENTAL          00306559            109003065595             I06110121000030655900306559            08012100000000190261042954608000000000016400000000000000000000000000000000000000000000000000000000000000000000000001926100000000003990000000000000   11012100000000000000000000000RJC SERVICOS ODONTOLOGICOS LTD                                      B5000222
10205539814000112041300648601        CLEAN AMBIENTAL          00306561            109003065611             I06110121000030656100306561            07012100000000058161042123808000000000016400000000000000000000000000000000000000000000000000000000000000000000000000577600000000001240000000000000   11012100000000000000000000000MARCIO LUIZ GONCALVES DOS SANT                                      B5000223
10205539814000112041300648601        CLEAN AMBIENTAL          00306569            109003065694             I06110121000030656900306569            07012100000000062910331641008000000000016400000000000000000000000000000000000000000000000000000000000000000000000000626100000000001340000000000000   11012100000000000000000000000EDMILSON CHAGAS DE OLIVEIRA                                         B2000224
10205539814000112041300648601        CLEAN AMBIENTAL          00306603            109003066031             I06110121000030660300306603            08012100000000506052373060108000000000016400000000000000000000000000000000000000000000000000000000000000000000000005150400000000010630000000000000   11012100000000000000000000000KILO EXPRESS COMERCIO DE ALIME                                      B1000225
10205539814000112041300648601        CLEAN AMBIENTAL          00306612            109003066122             I06110121000030661200306612            08012100000000368463410271708000000000016400000000000000000000000000000000000000000000000000000000000000000000000003745500000000007730000000000000   11012100000000000000000000000FLAMENGO BOLO LANCHONETE LTDA                                       CK000226
10205539814000112041300648601        CLEAN AMBIENTAL          00306624            109003066247             I06110121000030662400306624            13012100000000358583418123208000000000016400000000000000000000000000000000000000000000000000000000000000000000000003569400000000000000000000000000   11012100000000000000000000000RESTAURANTE E BAR RIO GEREZ LT                                      CK000227
10205539814000112041300648601        CLEAN AMBIENTAL          00306631            109003066312             I06110121000030663100306631            08012100000000229231040990208000000000016400000000000000000000000000000000000000000000000000000000000000000000000002324100000000004820000000000000   11012100000000000000000000000LEANDRO COUTINHO GODINHO                                            B5000228
10205539814000112041300648601        CLEAN AMBIENTAL          00306644            109003066445             I06110121000030664400306644            08012100000000179821044553408000000000016400000000000000000000000000000000000000000000000000000000000000000000000001819600000000003780000000000000   11012100000000000000000000000PRACA SECA DOCES E BISCOITOS -                                      B3000229
10205539814000112041300648601        CLEAN AMBIENTAL          00306679            109003066791             I06110121000030667900306679            08012100000000076953416526808000000000016400000000000000000000000000000000000000000000000000000000000000000000000000753100000000000000000000000000   11012100000000000000000000000CLINORR CLINICA ODONTOLOGICA L                                      BL000230
10205539814000112041300648601        CLEAN AMBIENTAL          00306682            109003066825             I06110121000030668200306682            08012100000000144123411831708000000000016400000000000000000000000000000000000000000000000000000000000000000000000001455100000000003030000000000000   11012100000000000000000000000ISBIO SOLUCOES E SERVICOS AMBI                                      BL000231
10205539814000112041300648601        CLEAN AMBIENTAL          00306696            109003066965             I06110121000030669600306696            09012100000000061323410413508000000000016400000000000000000000000000000000000000000000000000000000000000000000000000596800000000000000000000000000   11012100000000000000000000000BRAVOMED CLINICA DE DERMATOLOG                                      CK000232
10205539814000112041300648601        CLEAN AMBIENTAL          00306699            109003066999             I06110121000030669900306699            09012100000002044802376592008000000000016400000000000000000000000000000000000000000000000000000000000000000000000020431600000000000000000000000000   11012100000000000000000000000LA RESIDENCE CENTRO RESIDENCIA                                      B3000233
10205539814000112041300648601        CLEAN AMBIENTAL          00306701            109003067013             I06110121000030670100306701            09012100000001273973413239108000000000016400000000000000000000000000000000000000000000000000000000000000000000000012723300000000000000000000000000   11012100000000000000000000000QUINDIN COMESTIVEIS LTDA                                            CK000234
10205539814000112041300648601        CLEAN AMBIENTAL          00306703            109003067039             I06110121000030670300306703            09012100000000351110334390108000000000016400000000000000000000000000000000000000000000000000000000000000000000000003494700000000000000000000000000   11012100000000000000000000000CENTRO DE MICROCIRURGIA E DIAG                                      B7000235
10205539814000112041300648601        CLEAN AMBIENTAL          00306704            109003067047             I06110121000030670400306704            09012100000000363430333906508000000000016400000000000000000000000000000000000000000000000000000000000000000000000003617900000000000000000000000000   11012100000000000000000000000R&L CENTRO DE ESTETICA LTDA -                                       B3000236
10205539814000112041300648601        CLEAN AMBIENTAL          00306706            109003067062             I06110121000030670600306706            09012100000000774683415658008000000000016400000000000000000000000000000000000000000000000000000000000000000000000007730400000000000000000000000000   11012100000000000000000000000TERE HORTIFRUTI COMERCIO DE AL                                      CK000237
10205539814000112041300648601        CLEAN AMBIENTAL          00306710            109003067104             I06110121000030671000306710            09012100000000838713410302008000000000016400000000000000000000000000000000000000000000000000000000000000000000000008370700000000000000000000000000   11012100000000000000000000000GASINDUR DO BRASIL LTDA                                             CK000238
10205539814000112041300648601        CLEAN AMBIENTAL          00306714            109003067146             I06110121000030671400306714            09012100000000689213415623408000000000016400000000000000000000000000000000000000000000000000000000000000000000000006875700000000000000000000000000   11012100000000000000000000000BAR E RESTAURANTE VOLGA LTDA -                                      CK000239
10205539814000112041300648601        CLEAN AMBIENTAL          00306716            109003067161             I06110121000030671600306716            09012100000000575791040216208000000000016400000000000000000000000000000000000000000000000000000000000000000000000005741500000000000000000000000000   11012100000000000000000000000PANIFICACAO E CONFEITARIA TAUA                                      B3000240
10205539814000112041300648601        CLEAN AMBIENTAL          00306723            109003067237             I06110121000030672300306723            09012100000000295530331669108000000000016400000000000000000000000000000000000000000000000000000000000000000000000002938900000000000000000000000000   11012100000000000000000000000COLEGIO CURSO NETTO LTDA - ME                                       B7000241
10205539814000112041300648601        CLEAN AMBIENTAL          00306726            109003067260             I06110121000030672600306726            09012100000000403953410706208000000000016400000000000000000000000000000000000000000000000000000000000000000000000004023100000000000000000000000000   11012100000000000000000000000ESCOLA CONTEMPORANEA DA TRAVES                                      CK000242
10205539814000112041300648601        CLEAN AMBIENTAL          00306728            109003067286             I06110121000030672800306728            09012100000001751323415827108000000000016400000000000000000000000000000000000000000000000000000000000000000000000017496800000000000000000000000000   11012100000000000000000000000MINI MARKET BARRA SUL MERCADO                                       CP000243
10205539814000112041300648601        CLEAN AMBIENTAL          00306729            109003067294             I06110121000030672900306729            09012100000000346610333448808000000000016400000000000000000000000000000000000000000000000000000000000000000000000003449700000000000000000000000000   11012100000000000000000000000ACOUGUE VISCONDE DE OURO PRETO                                      B3000244
10205539814000112041300648601        CLEAN AMBIENTAL          00306730            109003067302             I06110121000030673000306730            09012100000000412620011251808000000000016400000000000000000000000000000000000000000000000000000000000000000000000004109800000000000000000000000000   11012100000000000000000000000EDIFICIO SANTA ISABEL                                               B3000245
10205539814000112041300648601        CLEAN AMBIENTAL          00306731            109003067310             I06110121000030673100306731            09012100000000784743418159608000000000016400000000000000000000000000000000000000000000000000000000000000000000000007831000000000000000000000000000   11012100000000000000000000000CONDOMINIO DO EDIFICIO SAO JOS                                      CK000246
10205539814000112041300648601        CLEAN AMBIENTAL          00306736            109003067369             I06110121000030673600306736            09012100000000510263410272508000000000016400000000000000000000000000000000000000000000000000000000000000000000000005086200000000000000000000000000   11012100000000000000000000000CAFE E BAR CAMPEAO DA SIMPATIA                                      CK000247
10205539814000112041300648601        CLEAN AMBIENTAL          00306737            109003067377             I06110121000030673700306737            09012100000000364250333454608000000000016400000000000000000000000000000000000000000000000000000000000000000000000003626100000000000000000000000000   11012100000000000000000000000KIB LANCHONETE ARABE LTDA - EP                                      B3000248
