02RETORNO01COBRANCA       041300648601        CLEAN AMB SERV COL TRANSP LTDA341BANCO ITAU S.A.12012101600BPI02582120121                                                                                                                                                                                                                                                                                   000001
10205539814000112041300648601        CLEAN AMBIENTAL          00275723            109002757234             I04110121000027572300275723            11012100000000082273412897708000000000000000000000000000000000000000000000000000000000000000000000000000000000000000000000000000000000000000000000         00000000000000000000000STTEFAN COSTA SILVA                                                   000002
10205539814000112041300648601        CLEAN AMBIENTAL          00299921            109002999216             I04110121000029992100299921            12012100000000836883412897708000000000000000000000000000000000000000000000000000000000000000000000000000000000000000000000000000000000000000000000         00000000000000000000000LK FOODS LANCHONETE LTDA EPP                                          000003
10205539814000112041300648601        CLEAN AMBIENTAL          00303619            109003036190             I04110121000030361900303619            12012100000000267343412897708000000000000000000000000000000000000000000000000000000000000000000000000000000000000000000000000000000000000000000000         00000000000000000000000LUIZ FERNANDO BAPTISTA                                                000004
10205539814000112041300648601        CLEAN AMBIENTAL          00304539            109003045399             I04110121000030453900304539            12012100000000515783412897708000000000000000000000000000000000000000000000000000000000000000000000000000000000000000000000000000000000000000000000         00000000000000000000000LK FOODS LANCHONETE LTDA EPP                                          000005
10205539814000112041300648601        CLEAN AMBIENTAL          00304676            109003046769             I04110121000030467600304676            11012100000000414743412897708000000000000000000000000000000000000000000000000000000000000000000000000000000000000000000000000000000000000000000000         00000000000000000000000RESTAURANTE SR 48 LTDA - ME                                           000006
10205539814000112041300648601        CLEAN AMBIENTAL          00304937            109003049375             I04110121000030493700304937            12012100000000224263412897708000000000000000000000000000000000000000000000000000000000000000000000000000000000000000000000000000000000000000000000         00000000000000000000000ANE HELENA CATARINA OLIVEIRA D                                        000007
10205539814000112041300648601        CLEAN AMBIENTAL          00305546            109003055463             I04110121000030554600305546            13012100000000599423412897708000000000000000000000000000000000000000000000000000000000000000000000000000000000000000000000000000000000000000000000         00000000000000000000000CONDOMINIO CENTRO COMERCIAL AS                                        000008
10205539814000112041300648601        CLEAN AMBIENTAL          00305842            109003058426             I04110121000030584200305842            12012100000000061323410229508000000000000000000000000000000000000000000000000000000000000000000000000000000000000000000000000000000000000000000000         00000000000000000000000CAMILA S VICENTE CENTRO DE EST                                        000009
10205539814000112041300648601        CLEAN AMBIENTAL          00306043            109003060430             I04110121000030604300306043            11012100000001260003412897708000000000000000000000000000000000000000000000000000000000000000000000000000000000000000000000000000000000000000000000         00000000000000000000000RESTAURANTE LAGOA LTDA                                                000010
10205539814000112041300648601        CLEAN AMBIENTAL          00306187            109003061875             I04110121000030618700306187            11012100000000335333412897708000000000000000000000000000000000000000000000000000000000000000000000000000000000000000000000000000000000000000000000         00000000000000000000000RCP COMERCIO DE FRUTAS E LEGUM                                        000011
10205539814000112041300648601        CLEAN AMBIENTAL          00306190            109003061909             I02120121000030619000306190            20012100000000642663412897708000000000000000000000000000000000000000000000000000000000000000000000000000000000000000000000000000000210000000000000         00000000000000000000000SFC - SOCIEDADE LUSO BRASILEIR                                        000012
10205539814000112041300648601        CLEAN AMBIENTAL          00306260            109003062600             I04110121000030626000306260            12012100000003284213412897708000000000000000000000000000000000000000000000000000000000000000000000000000000000000000000000000000000000000000000000         00000000000000000000000MERCADO ADONAI DE INHOAIBA LTD                                        000013
10205539814000112041300648601        CLEAN AMBIENTAL          00306315            109003063152             I04110121000030631500306315            14012100000000333303412897708000000000000000000000000000000000000000000000000000000000000000000000000000000000000000000000000000000000000000000000         00000000000000000000000CONDOMINIO DO EDIFICIO INSIDE                                         000014
10205539814000112041300648601        CLEAN AMBIENTAL          00306459            109003064598             I04110121000030645900306459            11012100000000431053412897708000000000000000000000000000000000000000000000000000000000000000000000000000000000000000000000000000000000000000000000         00000000000000000000000M W PONTO CHIC HORTIFRUTI LTDA                                        000015
10205539814000112041300648601        CLEAN AMBIENTAL          00306503            109003065033             I04110121000030650300306503            11012100000000478153412897708000000000000000000000000000000000000000000000000000000000000000000000000000000000000000000000000000000000000000000000         00000000000000000000000BAR E LANCHONETE DO BARBUDO LT                                        000016
10205539814000112041300648601        CLEAN AMBIENTAL          00306746            109003067468             I04110121000030674600306746            12012100000000210533412897708000000000000000000000000000000000000000000000000000000000000000000000000000000000000000000000000000000000000000000000         00000000000000000000000SABOR X RESTAURANTE LTDA                                              000017
10205539814000112041300648601        CLEAN AMBIENTAL          00306876            109003068763             I04110121000030687600306876            12012100000000213753412897708000000000000000000000000000000000000000000000000000000000000000000000000000000000000000000000000000000000000000000000         00000000000000000000000PADARIA E CONFEITARIA GIGANTE                                         000018
10205539814000112041300648601        CLEAN AMBIENTAL          00307640            109003076402             I04110121000030764000307640            17012100000001660883412897708000000000000000000000000000000000000000000000000000000000001043290000000000000000000000000000000000000000000000000000         00000000000000000000000BALADA SUMOS LTDA                                                     000019
10205539814000112041300648601        CLEAN AMBIENTAL          00307644            109003076444             I04110121000030764400307644            17012100000004828793412897708000000000000000000000000000000000000000000000000000000000000037570000000000000000000000000000000000000000000000000000         00000000000000000000000PANIFICACAO UNIAO LTDA                                                000020
10205539814000112041300648601        CLEAN AMBIENTAL          00308020            109003080206             I04110121000030802000308020            13012100000000273893412897708000000000000000000000000000000000000000000000000000000000000221000000000000000000000000000000000000000000000000000000         00000000000000000000000MUNDO TROPICAL SUCOS E LANCHES                                        000021
10205539814000112041300648601        CLEAN AMBIENTAL          00308338            109003083382             I02120121000030833800308338            22012100000000447413412897708000000000000000000000000000000000000000000000000000000000000000000000000000000000000000000000000000000150000000000000         00000000000000000000000ARCOVERDE BISCOITOS LTDA - ME                                         000022
10205539814000112041300648601        CLEAN AMBIENTAL          00308420            109003084208             I04110121000030842000308420            18012100000000589473412897708000000000000000000000000000000000000000000000000000000000000000000000000000000000000000000000000000000000000000000000         00000000000000000000000CONDOMINIO PLAZA CORPORATE                                            000023
10205539814000112041300648601        CLEAN AMBIENTAL          00308808            109003088084             I02120121000030880800308808            20012100000000293713412897708000000000000000000000000000000000000000000000000000000000000000000000000000000000000000000000000000000100000000000000         00000000000000000000000INSTITUTO NACIONAL DE CIENCIAS                                        000024
10205539814000112041300648601        CLEAN AMBIENTAL          00308809            109003088092             I02120121000030880900308809            25012100000000217393412897708000000000000000000000000000000000000000000000000000000000000000000000000000000000000000000000000000000070000000000000         00000000000000000000000BAR SATENSE LTDA                                                      000025
10205539814000112041300648601        CLEAN AMBIENTAL          00308810            109003088100             I02120121000030881000308810            24012100000001773413412897708000000000000000000000000000000000000000000000000000000000000000000000000000000000000000000000000000005850000000000000         00000000000000000000000MF 2008 COMERCIAL MODAS LTDA -                                        000026
10205539814000112041300648601        CLEAN AMBIENTAL          00308811            109003088118             I02120121000030881100308811            22012100000000136663410201408000000000000000000000000000000000000000000000000000000000000000000000000000000000000000000000000000000040000000000000         00000000000000000000000CLINICA MEDICA GAIO LTDA                                              000027
10205539814000112041300648601        CLEAN AMBIENTAL          00308812            109003088126             I02120121000030881200308812            22012100000000289263412897708000000000000000000000000000000000000000000000000000000000000000000000000000000000000000000000000000000100000000000000         00000000000000000000000CONDOMINIO DO EDIFICIO GENERAL                                        000028
10205539814000112041300648601        CLEAN AMBIENTAL          00308813            109003088134             I02120121000030881300308813            20012100000000291453411282308000000000000000000000000000000000000000000000000000000000000000000000000000000000000000000000000000000100000000000000         00000000000000000000000SITI COMMM - SIND DOS TRABALHA                                        000029
10205539814000112041300648601        CLEAN AMBIENTAL          00308814            109003088142             I02120121000030881400308814            22012100000001858673410059608000000000000000000000000000000000000000000000000000000000000000000000000000000000000000000000000000006130000000000000         00000000000000000000000DOCELAR  REPOUSO PARA IDOSOS L                                        000030
10205539814000112041300648601        CLEAN AMBIENTAL          00308815            109003088159             I02120121000030881500308815            22012100000000052293410059608000000000000000000000000000000000000000000000000000000000000000000000000000000000000000000000000000000020000000000000         00000000000000000000000VIVIANE SOUZA DA FONSECA                                              000031
10205539814000112041300648601        CLEAN AMBIENTAL          00308816            109003088167             I02120121000030881600308816            22012100000000132523412897708000000000000000000000000000000000000000000000000000000000000000000000000000000000000000000000000000000040000000000000         00000000000000000000000CERTA CLINICA DE ODONTOLOGIA L                                        000032
10205539814000112041300648601        CLEAN AMBIENTAL          00308817            109003088175             I02120121000030881700308817            22012100000000109313412897708000000000000000000000000000000000000000000000000000000000000000000000000000000000000000000000000000000040000000000000         00000000000000000000000SHEILA MARGARETH GOMES DE SOUZ                                        000033
10205539814000112041300648601        CLEAN AMBIENTAL          00308818            109003088183             I02120121000030881800308818            20012100000000087633412897708000000000000000000000000000000000000000000000000000000000000000000000000000000000000000000000000000000030000000000000         00000000000000000000000DIEGO DE SOUZA ROCCO                                                  000034
10205539814000112041300648601        CLEAN AMBIENTAL          00308819            109003088191             I02120121000030881900308819            27012100000001465843412897708000000000000000000000000000000000000000000000000000000000000000000000000000000000000000000000000000004840000000000000         00000000000000000000000COLORTEL S A SISTEMAS ELETRONI                                        000035
10205539814000112041300648601        CLEAN AMBIENTAL          00308820            109003088209             I02120121000030882000308820            27012100000002008613412897708000000000000000000000000000000000000000000000000000000000000000000000000000000000000000000000000000006630000000000000         00000000000000000000000TRANSLUTE TRANSPORTES RODOVIAR                                        000036
10205539814000112041300648601        CLEAN AMBIENTAL          00308821            109003088217             I02120121000030882100308821            27012100000001433523412897708000000000000000000000000000000000000000000000000000000000000000000000000000000000000000000000000000004730000000000000         00000000000000000000000BIG FIELD POINT SUPER LANCHES                                         000037
10205539814000112041300648601        CLEAN AMBIENTAL          00308822            109003088225             I02120121000030882200308822            20012100000001305203412897708000000000000000000000000000000000000000000000000000000000000000000000000000000000000000000000000000004310000000000000         00000000000000000000000EMPRESA SAO PEDRO DE COM. DE A                                        000038
10205539814000112041300648601        CLEAN AMBIENTAL          00308823            109003088233             I02120121000030882300308823            25012100000001649483412897708000000000000000000000000000000000000000000000000000000000000000000000000000000000000000000000000000005440000000000000         00000000000000000000000VERTENTE EDUCACAO LTDA EPP                                            000039
10205539814000112041300648601        CLEAN AMBIENTAL          00308824            109003088241             I02120121000030882400308824            20012100000001285663412897708000000000000000000000000000000000000000000000000000000000000000000000000000000000000000000000000000004240000000000000         00000000000000000000000SERVIMASTER PLUS BUFFET LTDA                                          000040
10205539814000112041300648601        CLEAN AMBIENTAL          00308825            109003088258             I02120121000030882500308825            20012100000001496843412897708000000000000000000000000000000000000000000000000000000000000000000000000000000000000000000000000000004940000000000000         00000000000000000000000MERCADOS BRAGA LTDA                                                   000041
10205539814000112041300648601        CLEAN AMBIENTAL          00308826            109003088266             I02120121000030882600308826            20012100000000914473412897708000000000000000000000000000000000000000000000000000000000000000000000000000000000000000000000000000000300000000000000         00000000000000000000000FONTES DE PRODUTOS NATURAIS LT                                        000042
10205539814000112041300648601        CLEAN AMBIENTAL          00308827            109003088274             I02120121000030882700308827            20012100000000932583412897708000000000000000000000000000000000000000000000000000000000000000000000000000000000000000000000000000000310000000000000         00000000000000000000000CRECHE 1 2 3 E JA                                                     000043
10205539814000112041300648601        CLEAN AMBIENTAL          00308828            109003088282             I02120121000030882800308828            20012100000000669283412897708000000000000000000000000000000000000000000000000000000000000000000000000000000000000000000000000000000220000000000000         00000000000000000000000CASA DE REPOUSO DR. NELSON RIS                                        000044
10205539814000112041300648601        CLEAN AMBIENTAL          00308829            109003088290             I02120121000030882900308829            20012100000000221493412897708000000000000000000000000000000000000000000000000000000000000000000000000000000000000000000000000000000070000000000000         00000000000000000000000REFEICOES COMERCIAIS RP DE JAC                                        000045
10205539814000112041300648601        CLEAN AMBIENTAL          00308830            109003088308             I02120121000030883000308830            20012100000000576113412897708000000000000000000000000000000000000000000000000000000000000000000000000000000000000000000000000000000190000000000000         00000000000000000000000BAR E RESTAURANTE BRAMAR EIREL                                        000046
10205539814000112041300648601        CLEAN AMBIENTAL          00308831            109003088316             I02120121000030883100308831            20012100000000179473412897708000000000000000000000000000000000000000000000000000000000000000000000000000000000000000000000000000000060000000000000         00000000000000000000000ASSOCIACAO DE CULTURA FRANCO B                                        000047
10205539814000112041300648601        CLEAN AMBIENTAL          00308832            109003088324             I02120121000030883200308832            20012100000000500683412897708000000000000000000000000000000000000000000000000000000000000000000000000000000000000000000000000000000170000000000000         00000000000000000000000TCF ALIMENTOS LTDA                                                    000048
10205539814000112041300648601        CLEAN AMBIENTAL          00308833            109003088332             I02120121000030883300308833            20012100000002267973410229508000000000000000000000000000000000000000000000000000000000000000000000000000000000000000000000000000007480000000000000         00000000000000000000000CRUZEIRO DO SUL MERCADO LTDA                                          000049
10205539814000112041300648601        CLEAN AMBIENTAL          00308834            109003088340             I02120121000030883400308834            20012100000001121713412897708000000000000000000000000000000000000000000000000000000000000000000000000000000000000000000000000000003700000000000000         00000000000000000000000GRAVIOLA COMERCIO DE ALIMENTOS                                        000050
10205539814000112041300648601        CLEAN AMBIENTAL          00308835            109003088357             I02120121000030883500308835            20012100000000515263412897708000000000000000000000000000000000000000000000000000000000000000000000000000000000000000000000000000000170000000000000         00000000000000000000000CONDOMINIO DO EDIFICIO IPANEMA                                        000051
10205539814000112041300648601        CLEAN AMBIENTAL          00308836            109003088365             I02120121000030883600308836            20012100000000464663412897708000000000000000000000000000000000000000000000000000000000000000000000000000000000000000000000000000000150000000000000         00000000000000000000000VILLE HOTEL LTDA - EPP                                                000052
10205539814000112041300648601        CLEAN AMBIENTAL          00308837            109003088373             I02120121000030883700308837            20012100000000793293412897708000000000000000000000000000000000000000000000000000000000000000000000000000000000000000000000000000000260000000000000         00000000000000000000000CONGREGACAO DE SAO JOAO BATIST                                        000053
10205539814000112041300648601        CLEAN AMBIENTAL          00308838            109003088381             I02120121000030883800308838            25012100000000607323412897708000000000000000000000000000000000000000000000000000000000000000000000000000000000000000000000000000000200000000000000         00000000000000000000000PREMIER SERVICOS DE SAUDE LTDA                                        000054
10205539814000112041300648601        CLEAN AMBIENTAL          00308839            109003088399             I02120121000030883900308839            20012100000000658813412897708000000000000000000000000000000000000000000000000000000000000000000000000000000000000000000000000000000220000000000000         00000000000000000000000ARABE DA TIJUCA LTDA. - ME                                            000055
10205539814000112041300648601        CLEAN AMBIENTAL          00308840            109003088407             I02120121000030884000308840            25012100000000649113412897708000000000000000000000000000000000000000000000000000000000000000000000000000000000000000000000000000000210000000000000         00000000000000000000000BANCO BRADESCO S/A                                                    000056
10205539814000112041300648601        CLEAN AMBIENTAL          00308841            109003088415             I02120121000030884100308841            20012100000000303803412897708000000000000000000000000000000000000000000000000000000000000000000000000000000000000000000000000000000100000000000000         00000000000000000000000PADARIA E CONFEITARIA FLOR DE                                         000057
10205539814000112041300648601        CLEAN AMBIENTAL          00308842            109003088423             I02120121000030884200308842            20012100000000417923412897708000000000000000000000000000000000000000000000000000000000000000000000000000000000000000000000000000000140000000000000         00000000000000000000000PANIFICACAO BRASIL LTDA - ME                                          000058
10205539814000112041300648601        CLEAN AMBIENTAL          00308843            109003088431             I02120121000030884300308843            25012100000000910263412897708000000000000000000000000000000000000000000000000000000000000000000000000000000000000000000000000000000300000000000000         00000000000000000000000PROJETO DE PAPEL PAPELARIA EIR                                        000059
10205539814000112041300648601        CLEAN AMBIENTAL          00308844            109003088449             I02120121000030884400308844            20012100000000441283412897708000000000000000000000000000000000000000000000000000000000000000000000000000000000000000000000000000000150000000000000         00000000000000000000000HOSPEDAGEM GERIATRICA SAO JOSE                                        000060
10205539814000112041300648601        CLEAN AMBIENTAL          00308845            109003088456             I02120121000030884500308845            20012100000001112723412897708000000000000000000000000000000000000000000000000000000000000000000000000000000000000000000000000000003670000000000000         00000000000000000000000BAR E RESTAURANTE ROSA DE OURO                                        000061
10205539814000112041300648601        CLEAN AMBIENTAL          00308846            109003088464             I02120121000030884600308846            20012100000001131013412897708000000000000000000000000000000000000000000000000000000000000000000000000000000000000000000000000000003730000000000000         00000000000000000000000BAR E RESTAURANTE CAPARAO LTDA                                        000062
10205539814000112041300648601        CLEAN AMBIENTAL          00308847            109003088472             I02120121000030884700308847            25012100000000195733412897708000000000000000000000000000000000000000000000000000000000000000000000000000000000000000000000000000000060000000000000         00000000000000000000000VERTENTE EDUCACAO LTDA - EPP                                          000063
10205539814000112041300648601        CLEAN AMBIENTAL          00308848            109003088480             I02120121000030884800308848            25012100000000253833412897708000000000000000000000000000000000000000000000000000000000000000000000000000000000000000000000000000000080000000000000         00000000000000000000000VERTENTE EDUCACAO LTDA - EPP                                          000064
10205539814000112041300648601        CLEAN AMBIENTAL          00308849            109003088498             I02120121000030884900308849            25012100000000228283412897708000000000000000000000000000000000000000000000000000000000000000000000000000000000000000000000000000000080000000000000         00000000000000000000000RESTAURANTE CANTAO DO CATETE L                                        000065
10205539814000112041300648601        CLEAN AMBIENTAL          00308850            109003088506             I02120121000030885000308850            20012100000000637843412897708000000000000000000000000000000000000000000000000000000000000000000000000000000000000000000000000000000210000000000000         00000000000000000000000CAFE E BAR LUPPI 766 LTDA                                             000066
10205539814000112041300648601        CLEAN AMBIENTAL          00308851            109003088514             I02120121000030885100308851            25012100000001924913414562508000000000000000000000000000000000000000000000000000000000000000000000000000000000000000000000000000006350000000000000         00000000000000000000000PREMIUM BELFORD ROXO SUPERMERC                                        000067
10205539814000112041300648601        CLEAN AMBIENTAL          00308852            109003088522             I02120121000030885200308852            08022100000000366153412897708000000000000000000000000000000000000000000000000000000000000000000000000000000000000000000000000000000120000000000000         00000000000000000000000RBX RIO COMERCIO DE ROUPAS S.A                                        000068
10205539814000112041300648601        CLEAN AMBIENTAL          00308853            109003088530             I02120121000030885300308853            20012100000000445423412897708000000000000000000000000000000000000000000000000000000000000000000000000000000000000000000000000000000150000000000000         00000000000000000000000COLEGIO FRANCISCO DE ASSIS LTD                                        000069
10205539814000112041300648601        CLEAN AMBIENTAL          00308854            109003088548             I02120121000030885400308854            25012100000000743193412897708000000000000000000000000000000000000000000000000000000000000000000000000000000000000000000000000000000250000000000000         00000000000000000000000COLEGIO FRANCISCO DE ASSIS LTD                                        000070
10205539814000112041300648601        CLEAN AMBIENTAL          00308855            109003088555             I02120121000030885500308855            20012100000001766173412897708000000000000000000000000000000000000000000000000000000000000000000000000000000000000000000000000000005830000000000000         00000000000000000000000LONG AGE REPOUSO GERIATRICO LT                                        000071
10205539814000112041300648601        CLEAN AMBIENTAL          00308856            109003088563             I02120121000030885600308856            25012100000000345003412897708000000000000000000000000000000000000000000000000000000000000000000000000000000000000000000000000000000110000000000000         00000000000000000000000LANCHONETE SEVES LTDA                                                 000072
10205539814000112041300648601        CLEAN AMBIENTAL          00308857            109003088571             I02120121000030885700308857            20012100000000376343412897708000000000000000000000000000000000000000000000000000000000000000000000000000000000000000000000000000000120000000000000         00000000000000000000000ESTACAO VERDE ROSARIO SALADERI                                        000073
10205539814000112041300648601        CLEAN AMBIENTAL          00308858            109003088589             I02120121000030885800308858            20012100000000728183412897708000000000000000000000000000000000000000000000000000000000000000000000000000000000000000000000000000000240000000000000         00000000000000000000000LUCIO COSTA RESTAURANTE EIRELI                                        000074
10205539814000112041300648601        CLEAN AMBIENTAL          00308859            109003088597             I02120121000030885900308859            20012100000003029453412897708000000000000000000000000000000000000000000000000000000000000000000000000000000000000000000000000000010000000000000000         00000000000000000000000RESTAURANTE RAINHA DO SABOR GR                                        000075
10205539814000112041300648601        CLEAN AMBIENTAL          00308860            109003088605             I02120121000030886000308860            20012100000003854683412897708000000000000000000000000000000000000000000000000000000000000000000000000000000000000000000000000000012720000000000000         00000000000000000000000LOUCO SABOR DA BARRA BAR E LAN                                        000076
10205539814000112041300648601        CLEAN AMBIENTAL          00308861            109003088613             I02120121000030886100308861            20012100000000248573412897708000000000000000000000000000000000000000000000000000000000000000000000000000000000000000000000000000000080000000000000         00000000000000000000000CENTRO MEDICO E ODONTOLOGICO P                                        000077
10205539814000112041300648601        CLEAN AMBIENTAL          00308862            109003088621             I02120121000030886200308862            25012100000000440413412897708000000000000000000000000000000000000000000000000000000000000000000000000000000000000000000000000000000150000000000000         00000000000000000000000REGENTE 74 RESTAURANTE LTDA -                                         000078
10205539814000112041300648601        CLEAN AMBIENTAL          00308863            109003088639             I02120121000030886300308863            20012100000000463963412897708000000000000000000000000000000000000000000000000000000000000000000000000000000000000000000000000000000150000000000000         00000000000000000000000PADARIA E CONFEITARIA RIO 2001                                        000079
10205539814000112041300648601        CLEAN AMBIENTAL          00308864            109003088647             I02120121000030886400308864            20012100000001413423412897708000000000000000000000000000000000000000000000000000000000000000000000000000000000000000000000000000004660000000000000         00000000000000000000000AGENCIA FUNERARIA SANTA CASA D                                        000080
10205539814000112041300648601        CLEAN AMBIENTAL          00308865            109003088654             I02120121000030886500308865            20012100000000325893412897708000000000000000000000000000000000000000000000000000000000000000000000000000000000000000000000000000000110000000000000         00000000000000000000000VITUCA COMERCIO DE ALIMENTOS L                                        000081
10205539814000112041300648601        CLEAN AMBIENTAL          00308866            109003088662             I02120121000030886600308866            20012100000001617323412897708000000000000000000000000000000000000000000000000000000000000000000000000000000000000000000000000000005340000000000000         00000000000000000000000N&V FAST DELIVERY COMERCIO DE                                         000082
10205539814000112041300648601        CLEAN AMBIENTAL          00308867            109003088670             I02120121000030886700308867            20012100000000691743411306008000000000000000000000000000000000000000000000000000000000000000000000000000000000000000000000000000000230000000000000         00000000000000000000000GLOVER CONFECCOES LTDA                                                000083
10205539814000112041300648601        CLEAN AMBIENTAL          00308868            109003088688             I02120121000030886800308868            20012100000000072113412897708000000000000000000000000000000000000000000000000000000000000000000000000000000000000000000000000000000020000000000000         00000000000000000000000RESTAURANTE MONTGALLET LTDA                                           000084
10205539814000112041300648601        CLEAN AMBIENTAL          00308869            109003088696             I02120121000030886900308869            20012100000000668683410229508000000000000000000000000000000000000000000000000000000000000000000000000000000000000000000000000000000220000000000000         00000000000000000000000MERCADO BOM PRECO DE OLAVO BIL                                        000085
10205539814000112041300648601        CLEAN AMBIENTAL          00308870            109003088704             I02120121000030887000308870            20012100000000155063412897708000000000000000000000000000000000000000000000000000000000000000000000000000000000000000000000000000000050000000000000         00000000000000000000000PIZZARIA LIDER DE COPACABANA L                                        000086
10205539814000112041300648601        CLEAN AMBIENTAL          00308871            109003088712             I02120121000030887100308871            20012100000000865343412897708000000000000000000000000000000000000000000000000000000000000000000000000000000000000000000000000000000290000000000000         00000000000000000000000CONDOMINIO DO EDIFICIO LEBLON                                         000087
10205539814000112041300648601        CLEAN AMBIENTAL          00308872            109003088720             I02120121000030887200308872            20012100000000484683412897708000000000000000000000000000000000000000000000000000000000000000000000000000000000000000000000000000000160000000000000         00000000000000000000000MISTURA CASUAL RESTAURANTE LTD                                        000088
10205539814000112041300648601        CLEAN AMBIENTAL          00308873            109003088738             I02120121000030887300308873            20012100000000505793412897708000000000000000000000000000000000000000000000000000000000000000000000000000000000000000000000000000000170000000000000         00000000000000000000000HOTEL VILLA TIJUCA LTDA                                               000089
10205539814000112041300648601        CLEAN AMBIENTAL          00308874            109003088746             I02120121000030887400308874            20012100000000609863412897708000000000000000000000000000000000000000000000000000000000000000000000000000000000000000000000000000000200000000000000         00000000000000000000000PANIFICACAO E CONFEITARIA DA R                                        000090
10205539814000112041300648601        CLEAN AMBIENTAL          00308875            109003088753             I02120121000030887500308875            20012100000000105053412897708000000000000000000000000000000000000000000000000000000000000000000000000000000000000000000000000000000030000000000000         00000000000000000000000ORDEM DOS ADVOGADOS DO BRASIL                                         000091
10205539814000112041300648601        CLEAN AMBIENTAL          00308876            109003088761             I02120121000030887600308876            20012100000000747893412897708000000000000000000000000000000000000000000000000000000000000000000000000000000000000000000000000000000250000000000000         00000000000000000000000GAROA RESTAURANTE LOUNGE EIREL                                        000092
10205539814000112041300648601        CLEAN AMBIENTAL          00308877            109003088779             I02120121000030887700308877            20012100000000993173412897708000000000000000000000000000000000000000000000000000000000000000000000000000000000000000000000000000000330000000000000         00000000000000000000000CONDOMINIO DO EDIFICIO MASSON                                         000093
10205539814000112041300648601        CLEAN AMBIENTAL          00308878            109003088787             I02120121000030887800308878            20012100000000290123412897708000000000000000000000000000000000000000000000000000000000000000000000000000000000000000000000000000000100000000000000         00000000000000000000000PAMM CLINICA ODONTOLOGICA LTDA                                        000094
10205539814000112041300648601        CLEAN AMBIENTAL          00308879            109003088795             I02120121000030887900308879            20012100000000438583412897708000000000000000000000000000000000000000000000000000000000000000000000000000000000000000000000000000000140000000000000         00000000000000000000000PASTELARIA MARQUES LTDA ME                                            000095
10205539814000112041300648601        CLEAN AMBIENTAL          00308880            109003088803             I02120121000030888000308880            20012100000002284963412897708000000000000000000000000000000000000000000000000000000000000000000000000000000000000000000000000000007540000000000000         00000000000000000000000RSSM GENERAL STORE EIRELI                                             000096
10205539814000112041300648601        CLEAN AMBIENTAL          00308881            109003088811             I02120121000030888100308881            20012100000001918583412897708000000000000000000000000000000000000000000000000000000000000000000000000000000000000000000000000000006330000000000000         00000000000000000000000SERTANEJO DE VISTA ALEGRE REST                                        000097
10205539814000112041300648601        CLEAN AMBIENTAL          00308882            109003088829             I02120121000030888200308882            20012100000000742893412897708000000000000000000000000000000000000000000000000000000000000000000000000000000000000000000000000000000240000000000000         00000000000000000000000INTENDENTE MAGALHAES POINT COM                                        000098
10205539814000112041300648601        CLEAN AMBIENTAL          00308883            109003088837             I02120121000030888300308883            20012100000000310893412897708000000000000000000000000000000000000000000000000000000000000000000000000000000000000000000000000000000100000000000000         00000000000000000000000MERCEARIA 1928 ALIMENTOS E LAN                                        000099
10205539814000112041300648601        CLEAN AMBIENTAL          00308884            109003088845             I02120121000030888400308884            20012100000000303163412897708000000000000000000000000000000000000000000000000000000000000000000000000000000000000000000000000000000100000000000000         00000000000000000000000AMS COMERCIO DE ACAI EIRELI                                           000100
10205539814000112041300648601        CLEAN AMBIENTAL          00308886            109003088860             I02120121000030888600308886            21012100000000056513412897708000000000000000000000000000000000000000000000000000000000000000000000000000000000000000000000000000000020000000000000         00000000000000000000000CLINICA VETERINARIA CETRA-VET                                         000101
10205539814000112041300648601        CLEAN AMBIENTAL          00308887            109003088878             I02120121000030888700308887            21012100000000053733412897708000000000000000000000000000000000000000000000000000000000000000000000000000000000000000000000000000000020000000000000         00000000000000000000000CLINICA VETERINARIA CETRA-VET                                         000102
10205539814000112041300648601        CLEAN AMBIENTAL          00308888            109003088886             I02120121000030888800308888            21012100000000220263412897708000000000000000000000000000000000000000000000000000000000000000000000000000000000000000000000000000000070000000000000         00000000000000000000000BAR E LANCHONETE VEJA BEM LTDA                                        000103
10205539814000112041300648601        CLEAN AMBIENTAL          00308889            109003088894             I02120121000030888900308889            21012100000000201843412897708000000000000000000000000000000000000000000000000000000000000000000000000000000000000000000000000000000070000000000000         00000000000000000000000RESTAURANTE O PLEBEU COMERCIO                                         000104
10205539814000112041300648601        CLEAN AMBIENTAL          00308890            109003088902             I02120121000030889000308890            21012100000000073293412897708000000000000000000000000000000000000000000000000000000000000000000000000000000000000000000000000000000020000000000000         00000000000000000000000JOSE CARLOS RIBEIRO                                                   000105
10205539814000112041300648601        CLEAN AMBIENTAL          00308891            109003088910             I02120121000030889100308891            21012100000000311743412897708000000000000000000000000000000000000000000000000000000000000000000000000000000000000000000000000000000100000000000000         00000000000000000000000O COZINHEIRO CENTRAL LANCHONET                                        000106
10205539814000112041300648601        CLEAN AMBIENTAL          00308892            109003088928             I02120121000030889200308892            21012100000001001523412897708000000000000000000000000000000000000000000000000000000000000000000000000000000000000000000000000000003310000000000000         00000000000000000000000SOCIEDADE COMERCIAL CHAMPFER L                                        000107
10205539814000112041300648601        CLEAN AMBIENTAL          00308893            109003088936             I02120121000030889300308893            21012100000002669473412897708000000000000000000000000000000000000000000000000000000000000000000000000000000000000000000000000000008810000000000000         00000000000000000000000MINI MERCADO FLAVIENSE DO VALQ                                        000108
10205539814000112041300648601        CLEAN AMBIENTAL          00308894            109003088944             I02120121000030889400308894            21012100000001946843412897708000000000000000000000000000000000000000000000000000000000000000000000000000000000000000000000000000006420000000000000         00000000000000000000000MINI MERCADO BARAO FLAVIENSE L                                        000109
10205539814000112041300648601        CLEAN AMBIENTAL          00308895            109003088951             I02120121000030889500308895            21012100000000792633412897708000000000000000000000000000000000000000000000000000000000000000000000000000000000000000000000000000000260000000000000         00000000000000000000000P.K.K CALCADOS LTDA                                                   000110
10205539814000112041300648601        CLEAN AMBIENTAL          00308896            109003088969             I02120121000030889600308896            26012100000000289813412897708000000000000000000000000000000000000000000000000000000000000000000000000000000000000000000000000000000100000000000000         00000000000000000000000HAUS LECKER\\\\\\\'S GENEROS A                                        000111
10205539814000112041300648601        CLEAN AMBIENTAL          00308897            109003088977             I02120121000030889700308897            21012100000000341683412897708000000000000000000000000000000000000000000000000000000000000000000000000000000000000000000000000000000110000000000000         00000000000000000000000T. M. FOOD DEPOT COMERCIO DE A                                        000112
10205539814000112041300648601        CLEAN AMBIENTAL          00308898            109003088985             I02120121000030889800308898            21012100000000445243412897708000000000000000000000000000000000000000000000000000000000000000000000000000000000000000000000000000000150000000000000         00000000000000000000000HORTIFRUT SAO CLEMENTE LTDA                                           000113
10205539814000112041300648601        CLEAN AMBIENTAL          00308899            109003088993             I02120121000030889900308899            21012100000002525663412897708000000000000000000000000000000000000000000000000000000000000000000000000000000000000000000000000000008330000000000000         00000000000000000000000ESPACO 172 DO BACALHAU ALIMENT                                        000114
10205539814000112041300648601        CLEAN AMBIENTAL          00308900            109003089009             I02120121000030890000308900            21012100000000264213412897708000000000000000000000000000000000000000000000000000000000000000000000000000000000000000000000000000000090000000000000         00000000000000000000000MAZAO DOCES E SALGADOS LTDA                                           000115
10205539814000112041300648601        CLEAN AMBIENTAL          00308901            109003089017             I02120121000030890100308901            21012100000000566663412897708000000000000000000000000000000000000000000000000000000000000000000000000000000000000000000000000000000190000000000000         00000000000000000000000CHIK - TAL RESTAURANTE E BAR L                                        000116
10205539814000112041300648601        CLEAN AMBIENTAL          00308902            109003089025             I02120121000030890200308902            21012100000000540003412897708000000000000000000000000000000000000000000000000000000000000000000000000000000000000000000000000000000180000000000000         00000000000000000000000ZOPONE-ENGENHARIA E COMERCIO L                                        000117
10205539814000112041300648601        CLEAN AMBIENTAL          00308903            109003089033             I02120121000030890300308903            21012100000000319053412897708000000000000000000000000000000000000000000000000000000000000000000000000000000000000000000000000000000110000000000000         00000000000000000000000ZEROFRUTI BANGU HORTIFRUTI LTD                                        000118
10205539814000112041300648601        CLEAN AMBIENTAL          00308904            109003089041             I02120121000030890400308904            21012100000001740893412897708000000000000000000000000000000000000000000000000000000000000000000000000000000000000000000000000000005740000000000000         00000000000000000000000MERCEARIA DA PRACA COMERCIO DE                                        000119
10205539814000112041300648601        CLEAN AMBIENTAL          00308905            109003089058             I02120121000030890500308905            21012100000001237373412897708000000000000000000000000000000000000000000000000000000000000000000000000000000000000000000000000000004080000000000000         00000000000000000000000CONDOMINIO DO EDIFICIO SENADOR                                        000120
10205539814000112041300648601        CLEAN AMBIENTAL          00308906            109003089066             I02120121000030890600308906            21012100000000676133412897708000000000000000000000000000000000000000000000000000000000000000000000000000000000000000000000000000000220000000000000         00000000000000000000000P. K. K. CALCADOS LTDA                                                000121
10205539814000112041300648601        CLEAN AMBIENTAL          00308907            109003089074             I02120121000030890700308907            21012100000000629323412897708000000000000000000000000000000000000000000000000000000000000000000000000000000000000000000000000000000210000000000000         00000000000000000000000BAR PONTO UNICO LTDA                                                  000122
10205539814000112041300648601        CLEAN AMBIENTAL          00308908            109003089082             I02120121000030890800308908            21012100000000454563412897708000000000000000000000000000000000000000000000000000000000000000000000000000000000000000000000000000000150000000000000         00000000000000000000000HORTIFRUTI LIDER DO MEIER LTDA                                        000123
10205539814000112041300648601        CLEAN AMBIENTAL          00308909            109003089090             I02120121000030890900308909            21012100000001027893412897708000000000000000000000000000000000000000000000000000000000000000000000000000000000000000000000000000003390000000000000         00000000000000000000000MERCEARIA E CEREAIS PEXINCHETE                                        000124
10205539814000112041300648601        CLEAN AMBIENTAL          00308910            109003089108             I02120121000030891000308910            21012100000000503273412897708000000000000000000000000000000000000000000000000000000000000000000000000000000000000000000000000000000170000000000000         00000000000000000000000PORTELA VINTE E UM FERRAGENS L                                        000125
10205539814000112041300648601        CLEAN AMBIENTAL          00308911            109003089116             I02120121000030891100308911            21012100000000556053412897708000000000000000000000000000000000000000000000000000000000000000000000000000000000000000000000000000000180000000000000         00000000000000000000000FABRICA DE PAO S.M. 856 LTDA                                          000126
10205539814000112041300648601        CLEAN AMBIENTAL          00308912            109003089124             I02120121000030891200308912            21012100000000314473412897708000000000000000000000000000000000000000000000000000000000000000000000000000000000000000000000000000000100000000000000         00000000000000000000000PASTELARIA E LANCHONETE MINIST                                        000127
10205539814000112041300648601        CLEAN AMBIENTAL          00308913            109003089132             I02120121000030891300308913            21012100000000334263412897708000000000000000000000000000000000000000000000000000000000000000000000000000000000000000000000000000000110000000000000         00000000000000000000000DISTRIBUIDORA DE FRUTAS GONZAL                                        000128
10205539814000112041300648601        CLEAN AMBIENTAL          00308914            109003089140             I02120121000030891400308914            21012100000000534223412897708000000000000000000000000000000000000000000000000000000000000000000000000000000000000000000000000000000180000000000000         00000000000000000000000CONDOMINIO DO EDIFICIO WEST ME                                        000129
10205539814000112041300648601        CLEAN AMBIENTAL          00308915            109003089157             I02120121000030891500308915            21012100000000526613412897708000000000000000000000000000000000000000000000000000000000000000000000000000000000000000000000000000000170000000000000         00000000000000000000000DELTA 3 - EDUCACAO INFANTIL AS                                        000130
10205539814000112041300648601        CLEAN AMBIENTAL          00308916            109003089165             I02120121000030891600308916            21012100000000355793412897708000000000000000000000000000000000000000000000000000000000000000000000000000000000000000000000000000000120000000000000         00000000000000000000000MALZ CRAFT BURGUERS EIRELI - M                                        000131
10205539814000112041300648601        CLEAN AMBIENTAL          00308917            109003089173             I02120121000030891700308917            26012100000000403203412897708000000000000000000000000000000000000000000000000000000000000000000000000000000000000000000000000000000130000000000000         00000000000000000000000SAPORI BAR E RESTAURANTE LTDA                                         000132
10205539814000112041300648601        CLEAN AMBIENTAL          00308918            109003089181             I02120121000030891800308918            21012100000000405173412897708000000000000000000000000000000000000000000000000000000000000000000000000000000000000000000000000000000130000000000000         00000000000000000000000MERCEARIA NOVA CINTRA - EIRELI                                        000133
10205539814000112041300648601        CLEAN AMBIENTAL          00308919            109003089199             I02120121000030891900308919            21012100000000324213412897708000000000000000000000000000000000000000000000000000000000000000000000000000000000000000000000000000000110000000000000         00000000000000000000000VOSSA MERCEARIA LTDA                                                  000134
10205539814000112041300648601        CLEAN AMBIENTAL          00308920            109003089207             I02120121000030892000308920            25012100000000470533412897708000000000000000000000000000000000000000000000000000000000000000000000000000000000000000000000000000000160000000000000         00000000000000000000000PASTELARIA RECANTO DA PRAIA DE                                        000135
10205539814000112041300648601        CLEAN AMBIENTAL          00308921            109003089215             I02120121000030892100308921            21012100000000549533412897708000000000000000000000000000000000000000000000000000000000000000000000000000000000000000000000000000000180000000000000         00000000000000000000000B. SCHVARTZ MERCEARIA                                                 000136
10205539814000112041300648601        CLEAN AMBIENTAL          00308922            109003089223             I02120121000030892200308922            21012100000000299683412897708000000000000000000000000000000000000000000000000000000000000000000000000000000000000000000000000000000100000000000000         00000000000000000000000OLD HUNTERS BARBEARIA LTDA - M                                        000137
10205539814000112041300648601        CLEAN AMBIENTAL          00308923            109003089231             I02120121000030892300308923            21012100000000729433412897708000000000000000000000000000000000000000000000000000000000000000000000000000000000000000000000000000000240000000000000         00000000000000000000000CONDOMINIO DO EDIFICIO GONCALV                                        000138
10205539814000112041300648601        CLEAN AMBIENTAL          00308924            109003089249             I02120121000030892400308924            21012100000000321553412897708000000000000000000000000000000000000000000000000000000000000000000000000000000000000000000000000000000110000000000000         00000000000000000000000CONDOMINIO DO EDIFICIO CARIRI                                         000139
10205539814000112041300648601        CLEAN AMBIENTAL          00308925            109003089256             I02120121000030892500308925            20012100000000341493412897708000000000000000000000000000000000000000000000000000000000000000000000000000000000000000000000000000000110000000000000         00000000000000000000000MAJU BOLOS CASEIROS EIRELI - M                                        000140
10205539814000112041300648601        CLEAN AMBIENTAL          00308926            109003089264             I02120121000030892600308926            21012100000000372423412897708000000000000000000000000000000000000000000000000000000000000000000000000000000000000000000000000000000120000000000000         00000000000000000000000CONDOMINIO EDIFICIO ACRE                                              000141
10205539814000112041300648601        CLEAN AMBIENTAL          00308927            109003089272             I02120121000030892700308927            21012100000000628293412897708000000000000000000000000000000000000000000000000000000000000000000000000000000000000000000000000000000210000000000000         00000000000000000000000CONDOMINIO DO EDIFICIO PAULINO                                        000142
10205539814000112041300648601        CLEAN AMBIENTAL          00308928            109003089280             I02120121000030892800308928            21012100000000329043412897708000000000000000000000000000000000000000000000000000000000000000000000000000000000000000000000000000000110000000000000         00000000000000000000000SHOPPING POPULAR TINDIBA LTDA                                         000143
10205539814000112041300648601        CLEAN AMBIENTAL          00308929            109003089298             I02120121000030892900308929            21012100000000313583412897708000000000000000000000000000000000000000000000000000000000000000000000000000000000000000000000000000000100000000000000         00000000000000000000000CONDOMINIO DO EDIFICIO PACO DA                                        000144
10205539814000112041300648601        CLEAN AMBIENTAL          00308930            109003089306             I02120121000030893000308930            21012100000000583693412897708000000000000000000000000000000000000000000000000000000000000000000000000000000000000000000000000000000190000000000000         00000000000000000000000CONDOMINIO DO EDIFICIO COMERCI                                        000145
10205539814000112041300648601        CLEAN AMBIENTAL          00308931            109003089314             I02120121000030893100308931            21012100000000497593412897708000000000000000000000000000000000000000000000000000000000000000000000000000000000000000000000000000000160000000000000         00000000000000000000000CONDOMINIO DO EDIFICIO BARAO D                                        000146
10205539814000112041300648601        CLEAN AMBIENTAL          00308932            109003089322             I02120121000030893200308932            21012100000000237403412897708000000000000000000000000000000000000000000000000000000000000000000000000000000000000000000000000000000080000000000000         00000000000000000000000MADEIRAS PAU MANDADO COMERCIO                                         000147
10205539814000112041300648601        CLEAN AMBIENTAL          00308933            109003089330             I02120121000030893300308933            21012100000000475073412897708000000000000000000000000000000000000000000000000000000000000000000000000000000000000000000000000000000160000000000000         00000000000000000000000DBV COMERCIO DE ALIMENTOS EIRE                                        000148
10205539814000112041300648601        CLEAN AMBIENTAL          00308934            109003089348             I02120121000030893400308934            21012100000000564683412897708000000000000000000000000000000000000000000000000000000000000000000000000000000000000000000000000000000190000000000000         00000000000000000000000MINI MERCADO PETER PAN EIRELI                                         000149
10205539814000112041300648601        CLEAN AMBIENTAL          00308935            109003089355             I02120121000030893500308935            21012100000000238163412897708000000000000000000000000000000000000000000000000000000000000000000000000000000000000000000000000000000080000000000000         00000000000000000000000LANCHONETE HUMAITA LTDA - ME                                          000150
10205539814000112041300648601        CLEAN AMBIENTAL          00308936            109003089363             I02120121000030893600308936            21012100000000496163412897708000000000000000000000000000000000000000000000000000000000000000000000000000000000000000000000000000000160000000000000         00000000000000000000000KOMEAK BAR E RESTAURANTE LTDA                                         000151
10205539814000112041300648601        CLEAN AMBIENTAL          00308937            109003089371             I02120121000030893700308937            21012100000000265533412897708000000000000000000000000000000000000000000000000000000000000000000000000000000000000000000000000000000090000000000000         00000000000000000000000MANUS PHARMA FARMACIA MANIPULA                                        000152
10205539814000112041300648601        CLEAN AMBIENTAL          00308938            109003089389             I02120121000030893800308938            21012100000000298223412897708000000000000000000000000000000000000000000000000000000000000000000000000000000000000000000000000000000100000000000000         00000000000000000000000MENTA SUCOS E INTEGRAIS EIRELI                                        000153
10205539814000112041300648601        CLEAN AMBIENTAL          00308939            109003089397             I02120121000030893900308939            21012100000000308593412897708000000000000000000000000000000000000000000000000000000000000000000000000000000000000000000000000000000100000000000000         00000000000000000000000BAR PEIXE NA MESA LTDA                                                000154
10205539814000112041300648601        CLEAN AMBIENTAL          00308940            109003089405             I02120121000030894000308940            21012100000000455823412897708000000000000000000000000000000000000000000000000000000000000000000000000000000000000000000000000000000150000000000000         00000000000000000000000VILLA REGGIA EMPRESA HOTELEIRA                                        000155
10205539814000112041300648601        CLEAN AMBIENTAL          00308941            109003089413             I02120121000030894100308941            21012100000000373163412897708000000000000000000000000000000000000000000000000000000000000000000000000000000000000000000000000000000120000000000000         00000000000000000000000QUITANDA E MERCEARIA SAO MIGUE                                        000156
10205539814000112041300648601        CLEAN AMBIENTAL          00308942            109003089421             I02120121000030894200308942            21012100000000409973412897708000000000000000000000000000000000000000000000000000000000000000000000000000000000000000000000000000000130000000000000         00000000000000000000000CIRURGICA COPACABANA 2000 EIRE                                        000157
10205539814000112041300648601        CLEAN AMBIENTAL          00308943            109003089439             I02120121000030894300308943            21012100000000493263412897708000000000000000000000000000000000000000000000000000000000000000000000000000000000000000000000000000000160000000000000         00000000000000000000000SUPERMERCADOS MULTI ECONOMIA E                                        000158
10205539814000112041300648601        CLEAN AMBIENTAL          00308944            109003089447             I02120121000030894400308944            21012100000000651373412897708000000000000000000000000000000000000000000000000000000000000000000000000000000000000000000000000000000210000000000000         00000000000000000000000GAP RESTAURANTE E PRODUTOS ALI                                        000159
10205539814000112041300648601        CLEAN AMBIENTAL          00308945            109003089454             I02120121000030894500308945            21012100000000571693412897708000000000000000000000000000000000000000000000000000000000000000000000000000000000000000000000000000000190000000000000         00000000000000000000000MULTGAS POSTO DE GASOLINA LTDA                                        000160
10205539814000112041300648601        CLEAN AMBIENTAL          00308946            109003089462             I02120121000030894600308946            21012100000000535133412897708000000000000000000000000000000000000000000000000000000000000000000000000000000000000000000000000000000180000000000000         00000000000000000000000POSTO DE SERVICOS KIM LTDA ME                                         000161
10205539814000112041300648601        CLEAN AMBIENTAL          00308947            109003089470             I02120121000030894700308947            21012100000001108683412897708000000000000000000000000000000000000000000000000000000000000000000000000000000000000000000000000000003660000000000000         00000000000000000000000LONIGO PRODUCOES LTDA                                                 000162
10205539814000112041300648601        CLEAN AMBIENTAL          00308948            109003089488             I02120121000030894800308948            22012100000001981843412897708000000000000000000000000000000000000000000000000000000000000000000000000000000000000000000000000000006540000000000000         00000000000000000000000BOTEQUIM CENA CARIOCA LTDA                                            000163
10205539814000112041300648601        CLEAN AMBIENTAL          00308949            109003089496             I02120121000030894900308949            21012100000000244003412897708000000000000000000000000000000000000000000000000000000000000000000000000000000000000000000000000000000080000000000000         00000000000000000000000LAR PIZZARIA COMERCIO DE ALIME                                        000164
10205539814000112041300648601        CLEAN AMBIENTAL          00308950            109003089504             I02120121000030895000308950            21012100000000646323412897708000000000000000000000000000000000000000000000000000000000000000000000000000000000000000000000000000000210000000000000         00000000000000000000000ASSOCIACAO DE FORMACAO EDUCACI                                        000165
10205539814000112041300648601        CLEAN AMBIENTAL          00308951            109003089512             I02120121000030895100308951            21012100000000402783412897708000000000000000000000000000000000000000000000000000000000000000000000000000000000000000000000000000000130000000000000         00000000000000000000000ASSOCIACAO DE FORMACAO EDUCACI                                        000166
10205539814000112041300648601        CLEAN AMBIENTAL          00308952            109003089520             I02120121000030895200308952            20012100000000201583412897708000000000000000000000000000000000000000000000000000000000000000000000000000000000000000000000000000000070000000000000         00000000000000000000000NILVAN J DOS SANTOS AUTO MECAN                                        000167
10205539814000112041300648601        CLEAN AMBIENTAL          00308953            109003089538             I02120121000030895300308953            21012100000002361003412897708000000000000000000000000000000000000000000000000000000000000000000000000000000000000000000000000000007790000000000000         00000000000000000000000ILHA SUL RESTAURANTE EIRELI                                           000168
10205539814000112041300648601        CLEAN AMBIENTAL          00308954            109003089546             I02120121000030895400308954            21012100000000361843412897708000000000000000000000000000000000000000000000000000000000000000000000000000000000000000000000000000000120000000000000         00000000000000000000000MERCADO FAMILIA NOVA GERACAO                                          000169
10205539814000112041300648601        CLEAN AMBIENTAL          00308955            109003089553             I02120121000030895500308955            21012100000000593443412897708000000000000000000000000000000000000000000000000000000000000000000000000000000000000000000000000000000200000000000000         00000000000000000000000CORREA DUTRA RESTAURANTE LTDA                                         000170
10205539814000112041300648601        CLEAN AMBIENTAL          00308956            109003089561             I02120121000030895600308956            21012100000000317043412897708000000000000000000000000000000000000000000000000000000000000000000000000000000000000000000000000000000100000000000000         00000000000000000000000BOTAFOGO MIX RESTAURANTE LTDA                                         000171
10205539814000112041300648601        CLEAN AMBIENTAL          00308957            109003089579             I02120121000030895700308957            21012100000000349163412897708000000000000000000000000000000000000000000000000000000000000000000000000000000000000000000000000000000120000000000000         00000000000000000000000PREIS COMERCIO DE PRODUTOS ALI                                        000172
10205539814000112041300648601        CLEAN AMBIENTAL          00308958            109003089587             I02120121000030895800308958            21012100000001157893412897708000000000000000000000000000000000000000000000000000000000000000000000000000000000000000000000000000003820000000000000         00000000000000000000000RAPH'S PATISSERIE FABRICACAO E                                        000173
10205539814000112041300648601        CLEAN AMBIENTAL          00308959            109003089595             I02120121000030895900308959            21012100000000558003412897708000000000000000000000000000000000000000000000000000000000000000000000000000000000000000000000000000000180000000000000         00000000000000000000000MOLHO A CAMPANHA RESTAURANTE E                                        000174
10205539814000112041300648601        CLEAN AMBIENTAL          00308960            109003089603             I02120121000030896000308960            21012100000000674763412897708000000000000000000000000000000000000000000000000000000000000000000000000000000000000000000000000000000220000000000000         00000000000000000000000TORRES & AMORES RESTAURANTE E                                         000175
10205539814000112041300648601        CLEAN AMBIENTAL          00308961            109003089611             I02120121000030896100308961            21012100000000205113412897708000000000000000000000000000000000000000000000000000000000000000000000000000000000000000000000000000000070000000000000         00000000000000000000000RESTAURANTE TARANTINO FLAMENGO                                        000176
10205539814000112041300648601        CLEAN AMBIENTAL          00308962            109003089629             I02120121000030896200308962            21012100000000198683412897708000000000000000000000000000000000000000000000000000000000000000000000000000000000000000000000000000000070000000000000         00000000000000000000000HAMBURGUERIA DA SENADOR LTDA                                          000177
10205539814000112041300648601        CLEAN AMBIENTAL          00309009            109003090098             I02120121000030900900309009            25012100000000387753412897708000000000000000000000000000000000000000000000000000000000000000000000000000000000000000000000000000000130000000000000         00000000000000000000000CONDOMINIO DO EDIFICIO SANTO A                                        000178
10205539814000112041300648601        CLEAN AMBIENTAL          00309010            109003090106             I02120121000030901000309010            20012100000000631053412897708000000000000000000000000000000000000000000000000000000000000000000000000000000000000000000000000000000210000000000000         00000000000000000000000EDIFICIO MARSI                                                        000179
10205539814000112041300648601        CLEAN AMBIENTAL          00309011            109003090114             I02120121000030901100309011            20012100000002610023412897708000000000000000000000000000000000000000000000000000000000000000000000000000000000000000000000000000008610000000000000         00000000000000000000000CONDOMINIO BARAO DO RIO BONITO                                        000180
10205539814000112041300648601        CLEAN AMBIENTAL          00309012            109003090122             I02120121000030901200309012            25012100000001993003412897708000000000000000000000000000000000000000000000000000000000000000000000000000000000000000000000000000006580000000000000         00000000000000000000000CONDOMINIO DO EDIFICIO COPACAB                                        000181
10205539814000112041300648601        CLEAN AMBIENTAL          00309013            109003090130             I02120121000030901300309013            25012100000000172553412897708000000000000000000000000000000000000000000000000000000000000000000000000000000000000000000000000000000060000000000000         00000000000000000000000ASSIM MEDICAL LTDA                                                    000182
10205539814000112041300648601        CLEAN AMBIENTAL          00309014            109003090148             I02120121000030901400309014            20012100000000290543412897708000000000000000000000000000000000000000000000000000000000000000000000000000000000000000000000000000000100000000000000         00000000000000000000000CASA DE REPOUSO PARA IDOSOS AM                                        000183
10205539814000112041300648601        CLEAN AMBIENTAL          00309015            109003090155             I02120121000030901500309015            20012100000000300613410059608000000000000000000000000000000000000000000000000000000000000000000000000000000000000000000000000000000100000000000000         00000000000000000000000HUMBERTO DE MELLO                                                     000184
10205539814000112041300648601        CLEAN AMBIENTAL          00309016            109003090163             I02120121000030901600309016            20012100000000293713412897708000000000000000000000000000000000000000000000000000000000000000000000000000000000000000000000000000000100000000000000         00000000000000000000000VIVIANE DE SOUZA CARDOSO                                              000185
10205539814000112041300648601        CLEAN AMBIENTAL          00309017            109003090171             I02120121000030901700309017            20012100000000153073412897708000000000000000000000000000000000000000000000000000000000000000000000000000000000000000000000000000000050000000000000         00000000000000000000000JOSE RONALDO MAIA BARBOSA                                             000186
10205539814000112041300648601        CLEAN AMBIENTAL          00309018            109003090189             I02120121000030901800309018            10012100000000503553412897708000000000000000000000000000000000000000000000000000000000000000000000000000000000000000000000000000000170000000000000         00000000000000000000000ASSISTENCIA MEDICA DOMICILIAR                                         000187
10205539814000112041300648601        CLEAN AMBIENTAL          00309019            109003090197             I02120121000030901900309019            30012100000000137553412897708000000000000000000000000000000000000000000000000000000000000000000000000000000000000000000000000000000050000000000000         00000000000000000000000CLISMED CLINICA DE SOCORRO MED                                        000188
10205539814000112041300648601        CLEAN AMBIENTAL          00309020            109003090205             I02120121000030902000309020            20012100000000200863412897708000000000000000000000000000000000000000000000000000000000000000000000000000000000000000000000000000000070000000000000         00000000000000000000000CENTRO GERIATRICO E GERONTOLOG                                        000189
10205539814000112041300648601        CLEAN AMBIENTAL          00309021            109003090213             I02120121000030902100309021            26012100000002801473412897708000000000000000000000000000000000000000000000000000000000000000000000000000000000000000000000000000009240000000000000         00000000000000000000000CONDOMINIO DO CENTRO EMPRESARI                                        000190
10205539814000112041300648601        CLEAN AMBIENTAL          00309022            109003090221             I02120121000030902200309022            20012100000000350323412897708000000000000000000000000000000000000000000000000000000000000000000000000000000000000000000000000000000120000000000000         00000000000000000000000CONDOMINIO DO EDIFICIO ODEON                                          000191
10205539814000112041300648601        CLEAN AMBIENTAL          00309023            109003090239             I02120121000030902300309023            20012100000000096493412897708000000000000000000000000000000000000000000000000000000000000000000000000000000000000000000000000000000030000000000000         00000000000000000000000VET BACANA LTDA                                                       000192
10205539814000112041300648601        CLEAN AMBIENTAL          00309024            109003090247             I02120121000030902400309024            20012100000000779983412897708000000000000000000000000000000000000000000000000000000000000000000000000000000000000000000000000000000260000000000000         00000000000000000000000ODONTOCLINICA DE PACIENCIA LTD                                        000193
10205539814000112041300648601        CLEAN AMBIENTAL          00309025            109003090254             I02120121000030902500309025            20012100000000269753412897708000000000000000000000000000000000000000000000000000000000000000000000000000000000000000000000000000000090000000000000         00000000000000000000000CLINICA VETERINARIA SF DO RECR                                        000194
10205539814000112041300648601        CLEAN AMBIENTAL          00309026            109003090262             I02120121000030902600309026            22012100000000211443412897708000000000000000000000000000000000000000000000000000000000000000000000000000000000000000000000000000000070000000000000         00000000000000000000000SERVICOS MEDICOS RJ DE CAMBOAT                                        000195
10205539814000112041300648601        CLEAN AMBIENTAL          00309027            109003090270             I02120121000030902700309027            20012100000000095783412897708000000000000000000000000000000000000000000000000000000000000000000000000000000000000000000000000000000030000000000000         00000000000000000000000VET BACANA LTDA                                                       000196
10205539814000112041300648601        CLEAN AMBIENTAL          00309028            109003090288             I02120121000030902800309028            20012100000000284533412897708000000000000000000000000000000000000000000000000000000000000000000000000000000000000000000000000000000090000000000000         00000000000000000000000VET BACANA LTDA                                                       000197
10205539814000112041300648601        CLEAN AMBIENTAL          00309029            109003090296             I02120121000030902900309029            20012100000000082033412897708000000000000000000000000000000000000000000000000000000000000000000000000000000000000000000000000000000030000000000000         00000000000000000000000BRUNA LEITE MONTEIRO                                                  000198
10205539814000112041300648601        CLEAN AMBIENTAL          00309030            109003090304             I02120121000030903000309030            20012100000000137023410059608000000000000000000000000000000000000000000000000000000000000000000000000000000000000000000000000000000050000000000000         00000000000000000000000CONDOMINIO DO EDIFICIO LOUVRE                                         000199
10205539814000112041300648601        CLEAN AMBIENTAL          00309031            109003090312             I02120121000030903100309031            20012100000000036043412897708000000000000000000000000000000000000000000000000000000000000000000000000000000000000000000000000000000010000000000000         00000000000000000000000JANES CABELEIREIROS LTDA                                              000200
10205539814000112041300648601        CLEAN AMBIENTAL          00309032            109003090320             I02120121000030903200309032            20012100000000110983412897708000000000000000000000000000000000000000000000000000000000000000000000000000000000000000000000000000000040000000000000         00000000000000000000000BICHO & CIA COMERCIO E BAZAR E                                        000201
10205539814000112041300648601        CLEAN AMBIENTAL          00309033            109003090338             I02120121000030903300309033            20012100000000071153412897708000000000000000000000000000000000000000000000000000000000000000000000000000000000000000000000000000000020000000000000         00000000000000000000000EDSON SARTORIO SOARES 01177888                                        000202
10205539814000112041300648601        CLEAN AMBIENTAL          00309034            109003090346             I02120121000030903400309034            20012100000000047693412897708000000000000000000000000000000000000000000000000000000000000000000000000000000000000000000000000000000020000000000000         00000000000000000000000UILIAN GABRY VIGNE 07741630709                                        000203
10205539814000112041300648601        CLEAN AMBIENTAL          00309035            109003090353             I02120121000030903500309035            20012100000000075743412897708000000000000000000000000000000000000000000000000000000000000000000000000000000000000000000000000000000020000000000000         00000000000000000000000VALERIA PINTO DE SOUZA LEAO                                           000204
10205539814000112041300648601        CLEAN AMBIENTAL          00309036            109003090361             I02120121000030903600309036            20012100000000091443411282308000000000000000000000000000000000000000000000000000000000000000000000000000000000000000000000000000000030000000000000         00000000000000000000000DAIANE DA SILVA SANTOS                                                000205
10205539814000112041300648601        CLEAN AMBIENTAL          00309037            109003090379             I02120121000030903700309037            20012100000000042453412897708000000000000000000000000000000000000000000000000000000000000000000000000000000000000000000000000000000010000000000000         00000000000000000000000M J CABELEIREIRO LTDA                                                 000206
10205539814000112041300648601        CLEAN AMBIENTAL          00309038            109003090387             I02120121000030903800309038            20012100000000168583412897708000000000000000000000000000000000000000000000000000000000000000000000000000000000000000000000000000000060000000000000         00000000000000000000000CLINICA ODONTOMAR LTDA                                                000207
10205539814000112041300648601        CLEAN AMBIENTAL          00309039            109003090395             I02120121000030903900309039            20012100000000206733412897708000000000000000000000000000000000000000000000000000000000000000000000000000000000000000000000000000000070000000000000         00000000000000000000000INSTITUICAO MARIA DE NAZARETH                                         000208
10205539814000112041300648601        CLEAN AMBIENTAL          00309040            109003090403             I02120121000030904000309040            20012100000000085723412897708000000000000000000000000000000000000000000000000000000000000000000000000000000000000000000000000000000030000000000000         00000000000000000000000CLINICA ODONTOLOGICA MAJEROWIC                                        000209
10205539814000112041300648601        CLEAN AMBIENTAL          00309041            109003090411             I02120121000030904100309041            20012100000000096493412897708000000000000000000000000000000000000000000000000000000000000000000000000000000000000000000000000000000030000000000000         00000000000000000000000VET BACANA LTDA                                                       000210
10205539814000112041300648601        CLEAN AMBIENTAL          00309042            109003090429             I02120121000030904200309042            20012100000000099163412897708000000000000000000000000000000000000000000000000000000000000000000000000000000000000000000000000000000030000000000000         000000000000000000000003LK SERVICOS INTEGRADOS DE SAU                                        000211
10205539814000112041300648601        CLEAN AMBIENTAL          00309043            109003090437             I02120121000030904300309043            20012100000000340123412897708000000000000000000000000000000000000000000000000000000000000000000000000000000000000000000000000000000110000000000000         00000000000000000000000REPUBLICA ANIMAL SERVICOS VETE                                        000212
10205539814000112041300648601        CLEAN AMBIENTAL          00309044            109003090445             I02120121000030904400309044            20012100000000105393410201408000000000000000000000000000000000000000000000000000000000000000000000000000000000000000000000000000000030000000000000         00000000000000000000000ODONTO CLINIC COMPANY LTDA                                            000213
10205539814000112041300648601        CLEAN AMBIENTAL          00309045            109003090452             I02120121000030904500309045            20012100000000069253410059608000000000000000000000000000000000000000000000000000000000000000000000000000000000000000000000000000000020000000000000         00000000000000000000000CLAUDIR RIBEIRO SILVA JUNIOR                                          000214
10205539814000112041300648601        CLEAN AMBIENTAL          00309046            109003090460             I02120121000030904600309046            20012100000000094203412897708000000000000000000000000000000000000000000000000000000000000000000000000000000000000000000000000000000030000000000000         00000000000000000000000AXISTE COMERCIO DE PRODUTOS ME                                        000215
10205539814000112041300648601        CLEAN AMBIENTAL          00309047            109003090478             I02120121000030904700309047            20012100000000067583412897708000000000000000000000000000000000000000000000000000000000000000000000000000000000000000000000000000000020000000000000         00000000000000000000000JACQUELINE ESQUINCALHA FELIPPE                                        000216
10205539814000112041300648601        CLEAN AMBIENTAL          00309048            109003090486             I02120121000030904800309048            20012100000000083983412897708000000000000000000000000000000000000000000000000000000000000000000000000000000000000000000000000000000030000000000000         00000000000000000000000NEOLAB ANALISES CLINICAS E CON                                        000217
10205539814000112041300648601        CLEAN AMBIENTAL          00309049            109003090494             I02120121000030904900309049            20012100000000230263412897708000000000000000000000000000000000000000000000000000000000000000000000000000000000000000000000000000000080000000000000         00000000000000000000000LABORATORIO DE ANALISES MEDICA                                        000218
10205539814000112041300648601        CLEAN AMBIENTAL          00309050            109003090502             I02120121000030905000309050            20012100000000117633411009008000000000000000000000000000000000000000000000000000000000000000000000000000000000000000000000000000000040000000000000         00000000000000000000000CENTRO MEDICO DE ANALISE CLINI                                        000219
10205539814000112041300648601        CLEAN AMBIENTAL          00309051            109003090510             I02120121000030905100309051            20012100000000063063414561708000000000000000000000000000000000000000000000000000000000000000000000000000000000000000000000000000000020000000000000         00000000000000000000000R. P SERVICOS ODONTOLOGICOS EI                                        000220
10205539814000112041300648601        CLEAN AMBIENTAL          00309052            109003090528             I02120121000030905200309052            20012100000000056843412897708000000000000000000000000000000000000000000000000000000000000000000000000000000000000000000000000000000020000000000000         00000000000000000000000BEM BONITA ESTETICA E DEPILACA                                        000221
10205539814000112041300648601        CLEAN AMBIENTAL          00309053            109003090536             I02120121000030905300309053            20012100000000066263412897708000000000000000000000000000000000000000000000000000000000000000000000000000000000000000000000000000000020000000000000         00000000000000000000000DASILVA BARBEARIA EIRELI                                              000222
10205539814000112041300648601        CLEAN AMBIENTAL          00309054            109003090544             I02120121000030905400309054            20012100000000138683410201408000000000000000000000000000000000000000000000000000000000000000000000000000000000000000000000000000000050000000000000         00000000000000000000000RAFAELLA GONZO DE C BARBOSA SE                                        000223
10205539814000112041300648601        CLEAN AMBIENTAL          00309055            109003090551             I02120121000030905500309055            20012100000000071843412897708000000000000000000000000000000000000000000000000000000000000000000000000000000000000000000000000000000020000000000000         00000000000000000000000MR JHON BARBEARIA LTDA                                                000224
10205539814000112041300648601        CLEAN AMBIENTAL          00309056            109003090569             I02120121000030905600309056            20012100000005885533412897708000000000000000000000000000000000000000000000000000000000000000000000000000000000000000000000000000019420000000000000         00000000000000000000000HOSPITAL DI CAMP LTDA                                                 000225
10205539814000112041300648601        CLEAN AMBIENTAL          00309057            109003090577             I02120121000030905700309057            20012100000000056323412897708000000000000000000000000000000000000000000000000000000000000000000000000000000000000000000000000000000020000000000000         00000000000000000000000MUNHOZ DA FONTOURA SERVICOS ME                                        000226
10205539814000112041300648601        CLEAN AMBIENTAL          00309058            109003090585             I02120121000030905800309058            20012100000000113953412897708000000000000000000000000000000000000000000000000000000000000000000000000000000000000000000000000000000040000000000000         00000000000000000000000LUIZA VASCONCELLOS ATIVIDADES                                         000227
10205539814000112041300648601        CLEAN AMBIENTAL          00309059            109003090593             I02120121000030905900309059            20012100000000112373410201408000000000000000000000000000000000000000000000000000000000000000000000000000000000000000000000000000000040000000000000         00000000000000000000000CLEAN DENTAL CLINICA ODONTOLOG                                        000228
10205539814000112041300648601        CLEAN AMBIENTAL          00309060            109003090601             I02120121000030906000309060            20012100000000075533412897708000000000000000000000000000000000000000000000000000000000000000000000000000000000000000000000000000000020000000000000         00000000000000000000000JULIANA RODRIGUES DIAS 1666081                                        000229
10205539814000112041300648601        CLEAN AMBIENTAL          00309061            109003090619             I02120121000030906100309061            20012100000000502713412897708000000000000000000000000000000000000000000000000000000000000000000000000000000000000000000000000000000170000000000000         00000000000000000000000HOSPITAL DE CLINICAS SANTA CRU                                        000230
10205539814000112041300648601        CLEAN AMBIENTAL          00309062            109003090627             I02120121000030906200309062            20012100000000323383412897708000000000000000000000000000000000000000000000000000000000000000000000000000000000000000000000000000000110000000000000         00000000000000000000000COND. DOS ED. MUNDO NOVO CLUB                                         000231
10205539814000112041300648601        CLEAN AMBIENTAL          00309063            109003090635             I02120121000030906300309063            20012100000000136513412897708000000000000000000000000000000000000000000000000000000000000000000000000000000000000000000000000000000040000000000000         00000000000000000000000FRANCISCO DUARTE MOITA                                                000232
10205539814000112041300648601        CLEAN AMBIENTAL          00309064            109003090643             I02120121000030906400309064            20012100000000357443412897708000000000000000000000000000000000000000000000000000000000000000000000000000000000000000000000000000000120000000000000         00000000000000000000000RUTH PINTO RIBEIRO DE ARAUJO                                          000233
10205539814000112041300648601        CLEAN AMBIENTAL          00309065            109003090650             I02120121000030906500309065            25012100000000644263412897708000000000000000000000000000000000000000000000000000000000000000000000000000000000000000000000000000000210000000000000         00000000000000000000000CONDOMINIO DO EDIFICIO BROADWA                                        000234
10205539814000112041300648601        CLEAN AMBIENTAL          00309066            109003090668             I02120121000030906600309066            22012100000001112843412897708000000000000000000000000000000000000000000000000000000000000000000000000000000000000000000000000000003670000000000000         00000000000000000000000CONDOMINIO DO EDIFICIO JULIO D                                        000235
10205539814000112041300648601        CLEAN AMBIENTAL          00309067            109003090676             I02120121000030906700309067            22012100000010100373412897708000000000000000000000000000000000000000000000000000000000000000000000000000000000000000000000000000033330000000000000         00000000000000000000000HUMANA CENTRO DE REPRODUCAO LT                                        000236
10205539814000112041300648601        CLEAN AMBIENTAL          00309068            109003090684             I02120121000030906800309068            22012100000000702633412897708000000000000000000000000000000000000000000000000000000000000000000000000000000000000000000000000000000230000000000000         00000000000000000000000CONDOMINIO DO EDIFICIO JOAO ER                                        000237
10205539814000112041300648601        CLEAN AMBIENTAL          00309069            109003090692             I02120121000030906900309069            22012100000000308133412897708000000000000000000000000000000000000000000000000000000000000000000000000000000000000000000000000000000100000000000000         00000000000000000000000CENTRO MEDICO DARKE LTDA                                              000238
10205539814000112041300648601        CLEAN AMBIENTAL          00309070            109003090700             I02120121000030907000309070            22012100000001706923412897708000000000000000000000000000000000000000000000000000000000000000000000000000000000000000000000000000005630000000000000         00000000000000000000000CLINICA DE OLHOS OCTAVIO MOURA                                        000239
10205539814000112041300648601        CLEAN AMBIENTAL          00309071            109003090718             I02120121000030907100309071            22012100000000590603412897708000000000000000000000000000000000000000000000000000000000000000000000000000000000000000000000000000000190000000000000         00000000000000000000000CENTRO MEDICO DE ANALISES CLIN                                        000240
10205539814000112041300648601        CLEAN AMBIENTAL          00309072            109003090726             I02120121000030907200309072            22012100000000663803412897708000000000000000000000000000000000000000000000000000000000000000000000000000000000000000000000000000000220000000000000         00000000000000000000000CENTRO MEDICO DE ANALISES CLIN                                        000241
10205539814000112041300648601        CLEAN AMBIENTAL          00309073            109003090734             I02120121000030907300309073            22012100000000253463412897708000000000000000000000000000000000000000000000000000000000000000000000000000000000000000000000000000000080000000000000         00000000000000000000000CONDOMINIO DO EDIFICIO TIJUCA                                         000242
10205539814000112041300648601        CLEAN AMBIENTAL          00309074            109003090742             I02120121000030907400309074            22012100000001164673412897708000000000000000000000000000000000000000000000000000000000000000000000000000000000000000000000000000003840000000000000         00000000000000000000000CONDOMINIO DO EDIFICIO CAPITAL                                        000243
10205539814000112041300648601        CLEAN AMBIENTAL          00309075            109003090759             I02120121000030907500309075            26012100000000079203412897708000000000000000000000000000000000000000000000000000000000000000000000000000000000000000000000000000000030000000000000         00000000000000000000000JG CARE DIAGNOSTICOS POR IMAGE                                        000244
10205539814000112041300648601        CLEAN AMBIENTAL          00309076            109003090767             I02120121000030907600309076            22012100000001275213410229508000000000000000000000000000000000000000000000000000000000000000000000000000000000000000000000000000004210000000000000         00000000000000000000000PLASMA LAB ANALISES CLINICAS L                                        000245
10205539814000112041300648601        CLEAN AMBIENTAL          00309077            109003090775             I02120121000030907700309077            18012100000000269523412897708000000000000000000000000000000000000000000000000000000000000000000000000000000000000000000000000000000090000000000000         00000000000000000000000CONDOMINIO DO EDIFICIO CELESTE                                        000246
10205539814000112041300648601        CLEAN AMBIENTAL          00309078            109003090783             I02120121000030907800309078            22012100000001354533412897708000000000000000000000000000000000000000000000000000000000000000000000000000000000000000000000000000004470000000000000         00000000000000000000000CENTRO DE MICROCIRURGIA E DIAG                                        000247
10205539814000112041300648601        CLEAN AMBIENTAL          00309079            109003090791             I02120121000030907900309079            22012100000000372973410229508000000000000000000000000000000000000000000000000000000000000000000000000000000000000000000000000000000120000000000000         00000000000000000000000LABOSERV EXAMES DE LABORATORIO                                        000248
