02RETORNO01COBRANCA       041300648601        CLEAN AMB SERV COL TRANSP LTDA341BANCO ITAU S.A.13012101600BPI02583130121                                                                                                                                                                                                                                                                                   000001
10205539814000112041300648601        CLEAN AMBIENTAL          00291759            109002917598             I04120121000029175900291759            13012100000000059553412897708000000000000000000000000000000000000000000000000000000000000000000000000000000000000000000000000000000000000000000000         00000000000000000000000DILSON COIMBRA DE ALMEIDA PIRE                                        000002
10205539814000112041300648601        CLEAN AMBIENTAL          00301347            109003013470             I04120121000030134700301347            15012100000000344253412897708000000000000000000000000000000000000000000000000000000000000000000000000000000000000000000000000000000000000000000000         00000000000000000000000IGOR HERNANDES ALVES DA COSTA                                         000003
10205539814000112041300648601        CLEAN AMBIENTAL          00301612            109003016127             I04120121000030161200301612            12012100000000144863412897708000000000000000000000000000000000000000000000000000000000000000000000000000000000000000000000000000000000000000000000         00000000000000000000000RODRIGO NICKHORN MACIEL                                               000004
10205539814000112041300648601        CLEAN AMBIENTAL          00301617            109003016176             I04120121000030161700301617            13012100000000157013412897708000000000000000000000000000000000000000000000000000000000000000000000000000000000000000000000000000000000000000000000         00000000000000000000000PROSIL CLINICA MEDICA  INFANTI                                        000005
10205539814000112041300648601        CLEAN AMBIENTAL          00303814            109003038147             I04120121000030381400303814            21012100000000655493412897708000000000000000000000000000000000000000000000000000000000000000000000000000000000000000000000000000000000000000000000         00000000000000000000000SOLARIS EQUIPAMENTOS E SERVICO                                        000006
10205539814000112041300648601        CLEAN AMBIENTAL          00304353            109003043535             I04120121000030435300304353            12012100000000295263412897708000000000000000000000000000000000000000000000000000000000000000000000000000000000000000000000000000000000000000000000         00000000000000000000000CONDOMINIO DO EDIFICIO GENERA                                         000007
10205539814000112041300648601        CLEAN AMBIENTAL          00304708            109003047080             I04120121000030470800304708            18012100000000268213412897708000000000000000000000000000000000000000000000000000000000000000000000000000000000000000000000000000000000000000000000         00000000000000000000000TECNOPHARMA FARMACIA DE MANIPU                                        000008
10205539814000112041300648601        CLEAN AMBIENTAL          00305350            109003053500             I04120121000030535000305350            19012100000000362493412897708000000000000000000000000000000000000000000000000000000000000000000000000000000000000000000000000000000000000000000000         00000000000000000000000LUNDBECK BRASIL LTDA                                                  000009
10205539814000112041300648601        CLEAN AMBIENTAL          00305447            109003054474             I04120121000030544700305447            13012100000000071843412897708000000000000000000000000000000000000000000000000000000000000000000000000000000000000000000000000000000000000000000000         00000000000000000000000BRUNO DA COSTA                                                        000010
10205539814000112041300648601        CLEAN AMBIENTAL          00305730            109003057303             I04120121000030573000305730            12012100000000085473412897708000000000000000000000000000000000000000000000000000000000000000000000000000000000000000000000000000000000000000000000         00000000000000000000000SANCOR ASSISTENCIA MEDICA E OD                                        000011
10205539814000112041300648601        CLEAN AMBIENTAL          00305906            109003059069             I04120121000030590600305906            15012100000000846323412897708000000000000000000000000000000000000000000000000000000000000000000000000000000000000000000000000000000000000000000000         00000000000000000000000BRASIL POINT SUPER LANCHES LTD                                        000012
10205539814000112041300648601        CLEAN AMBIENTAL          00305985            109003059853             I04120121000030598500305985            15012100000000731543412897708000000000000000000000000000000000000000000000000000000000000000000000000000000000000000000000000000000000000000000000         00000000000000000000000IGOR HERNANDES ALVES DA COSTA                                         000013
10205539814000112041300648601        CLEAN AMBIENTAL          00306044            109003060448             I04120121000030604400306044            13012100000000132603412897708000000000000000000000000000000000000000000000000000000000000000000000000000000000000000000000000000000000000000000000         00000000000000000000000PROSIL CLINICA MEDICA  INFANTI                                        000014
10205539814000112041300648601        CLEAN AMBIENTAL          00306189            109003061891             I04120121000030618900306189            12012100000000428953412897708000000000000000000000000000000000000000000000000000000000000000000000000000000000000000000000000000000000000000000000         00000000000000000000000LA BOTELLA COMERCIO DE ALIMENT                                        000015
10205539814000112041300648601        CLEAN AMBIENTAL          00306308            109003063087             I04120121000030630800306308            14012100000000485873412897708000000000000000000000000000000000000000000000000000000000000000000000000000000000000000000000000000000000000000000000         00000000000000000000000REI DOS SUCOS LTDA - ME                                               000016
10205539814000112041300648601        CLEAN AMBIENTAL          00306375            109003063756             I04120121000030637500306375            14012100000000314063412897708000000000000000000000000000000000000000000000000000000000000000000000000000000000000000000000000000000000000000000000         00000000000000000000000PRO RENAL ASSISTENCIA MEDICA L                                        000017
10205539814000112041300648601        CLEAN AMBIENTAL          00306394            109003063947             I04120121000030639400306394            13012100000000142273412897708000000000000000000000000000000000000000000000000000000000000000000000000000000000000000000000000000000000000000000000         00000000000000000000000PROSIL CLINICA MEDICA  INFANTI                                        000018
10205539814000112041300648601        CLEAN AMBIENTAL          00306532            109003065322             I04120121000030653200306532            12012100000000096443412897708000000000000000000000000000000000000000000000000000000000000000000000000000000000000000000000000000000000000000000000         00000000000000000000000PLANETA PET COMERCIO E SERVICO                                        000019
10205539814000112041300648601        CLEAN AMBIENTAL          00306572            109003065728             I04120121000030657200306572            12012100000000139343412897708000000000000000000000000000000000000000000000000000000000000000000000000000000000000000000000000000000000000000000000         00000000000000000000000AMILCA  MARTINS BETTINI                                               000020
10205539814000112041300648601        CLEAN AMBIENTAL          00306576            109003065769             I04120121000030657600306576            13012100000000114203412897708000000000000000000000000000000000000000000000000000000000000000000000000000000000000000000000000000000000000000000000         00000000000000000000000021 DENTAL VILA DA PENHA ODONT                                        000021
10205539814000112041300648601        CLEAN AMBIENTAL          00306610            109003066106             I04120121000030661000306610            12012100000000707373412897708000000000000000000000000000000000000000000000000000000000000000000000000000000000000000000000000000000000000000000000         00000000000000000000000BANCO BRADESCO S/A                                                    000022
10205539814000112041300648601        CLEAN AMBIENTAL          00306611            109003066114             I04120121000030661100306611            13012100000000481313412897708000000000000000000000000000000000000000000000000000000000000000000000000000000000000000000000000000000000000000000000         00000000000000000000000BANCO BRADESCO S/A                                                    000023
10205539814000112041300648601        CLEAN AMBIENTAL          00306628            109003066288             I04120121000030662800306628            18012100000003517833412897708000000000000000000000000000000000000000000000000000000000000000000000000000000000000000000000000000000000000000000000         00000000000000000000000INSTITUTO CIRURGICO GABRIEL D                                         000024
10205539814000112041300648601        CLEAN AMBIENTAL          00306648            109003066486             I04120121000030664800306648            13012100000003898893412897708000000000000000000000000000000000000000000000000000000000000000000000000000000000000000000000000000000000000000000000         00000000000000000000000IT CEM POR CENTO INDUSTRIA E C                                        000025
10205539814000112041300648601        CLEAN AMBIENTAL          00306649            109003066494             I04120121000030664900306649            22012100000001633683412897708000000000000000000000000000000000000000000000000000000000000000000000000000000000000000000000000000000000000000000000         00000000000000000000000MF 2008 COMERCIAL MODAS LTDA                                          000026
10205539814000112041300648601        CLEAN AMBIENTAL          00306652            109003066528             I04120121000030665200306652            15012100000000431313412897708000000000000000000000000000000000000000000000000000000000000000000000000000000000000000000000000000000000000000000000         00000000000000000000000VALCK BAR RESTAURANTE E EVENTO                                        000027
10205539814000112041300648601        CLEAN AMBIENTAL          00306664            109003066643             I04120121000030666400306664            13012100000000605283412897708000000000000000000000000000000000000000000000000000000000000000000000000000000000000000000000000000000000000000000000         00000000000000000000000CONDOMINIO DO EDIFICIO WEST ME                                        000028
10205539814000112041300648601        CLEAN AMBIENTAL          00306793            109003067930             I04120121000030679300306793            15012100000000174633412897708000000000000000000000000000000000000000000000000000000000000000000000000000000000000000000000000000000000000000000000         00000000000000000000000CLINICA ODONTOLOGICA ODONTO SP                                        000029
10205539814000112041300648601        CLEAN AMBIENTAL          00307328            109003073284             I04120121000030732800307328            13012100000001149473412897708000000000000000000000000000000000000000000000000000000000000000000000000000000000000000000000000000000000000000000000         00000000000000000000000THE BUFFET RESTAURANTE EIRELI                                         000030
10205539814000112041300648601        CLEAN AMBIENTAL          00307385            109003073854             I04120121000030738500307385            15012100000002593623412897708000000000000000000000000000000000000000000000000000000000000000000000000000000000000000000000000000000000000000000000         00000000000000000000000HOSPITAL RIO BOTAFOGO EIRELI (                                        000031
10205539814000112041300648601        CLEAN AMBIENTAL          00307386            109003073862             I04120121000030738600307386            15012100000001447433412897708000000000000000000000000000000000000000000000000000000000000000000000000000000000000000000000000000000000000000000000         00000000000000000000000HOSPITAL RIO LARANJEIRAS LTDA                                         000032
10205539814000112041300648601        CLEAN AMBIENTAL          00307387            109003073870             I04120121000030738700307387            15012100000004819873412897708000000000000000000000000000000000000000000000000000000000000000000000000000000000000000000000000000000000000000000000         00000000000000000000000HOSPITAL RIO LARANJEIRAS LTDA                                         000033
10205539814000112041300648601        CLEAN AMBIENTAL          00307427            109003074274             I04120121000030742700307427            15012100000001338953412897708000000000000000000000000000000000000000000000000000000000000000000000000000000000000000000000000000000000000000000000         00000000000000000000000HOSPITAL RIO LARANJEIRAS LTDA                                         000034
10205539814000112041300648601        CLEAN AMBIENTAL          00307997            109003079976             I04120121000030799700307997            15012100000000404113412897708000000000000000000000000000000000000000000000000000000000000000000000000000000000000000000000000000000000000000000000         00000000000000000000000HOSPITAL RIO BOTAFOGO EIRELI (                                        000035
10205539814000112041300648601        CLEAN AMBIENTAL          00308484            109003084844             I04120121000030848400308484            25012100000000724213412897708000000000000000000000000000000000000000000000000000000000000005000000000000000000000000000000000000000000000000000000         00000000000000000000000SOLARIS EQUIPAMENTOS E SERVICO                                        000036
10205539814000112041300648601        CLEAN AMBIENTAL          00309375            109003093753             I02130121000030937500309375            23012100000000093983412897708000000000000000000000000000000000000000000000000000000000000000000000000000000000000000000000000000000030000000000000         00000000000000000000000PLANETA GRILL MM RESTAURANTE L                                        000037
10205539814000112041300648601        CLEAN AMBIENTAL          00309376            109003093761             I02130121000030937600309376            23012100000000114233412897708000000000000000000000000000000000000000000000000000000000000000000000000000000000000000000000000000000040000000000000         00000000000000000000000PET CHELE COM ARTIGOS E ACESSO                                        000038
10205539814000112041300648601        CLEAN AMBIENTAL          00309377            109003093779             I02130121000030937700309377            23012100000000128273412897708000000000000000000000000000000000000000000000000000000000000000000000000000000000000000000000000000000040000000000000         00000000000000000000000LUCIA MARIA SANTOS                                                    000039
10205539814000112041300648601        CLEAN AMBIENTAL          00309378            109003093787             I02130121000030937800309378            23012100000000130793412897708000000000000000000000000000000000000000000000000000000000000000000000000000000000000000000000000000000040000000000000         00000000000000000000000ALL LAB WORLD ANALISES CLINICA                                        000040
10205539814000112041300648601        CLEAN AMBIENTAL          00309379            109003093795             I02130121000030937900309379            23012100000000091323412897708000000000000000000000000000000000000000000000000000000000000000000000000000000000000000000000000000000030000000000000         00000000000000000000000ALL LAB WORLD ANALISES CLINICA                                        000041
10205539814000112041300648601        CLEAN AMBIENTAL          00309380            109003093803             I02130121000030938000309380            23012100000000463423412897708000000000000000000000000000000000000000000000000000000000000000000000000000000000000000000000000000000150000000000000         00000000000000000000000GUIZADO DO ZEBU RESTAURANTE LT                                        000042
10205539814000112041300648601        CLEAN AMBIENTAL          00309381            109003093811             I02130121000030938100309381            28012100000000373893412897708000000000000000000000000000000000000000000000000000000000000000000000000000000000000000000000000000000120000000000000         00000000000000000000000RESTAURANTE SR 48 LTDA - ME                                           000043
10205539814000112041300648601        CLEAN AMBIENTAL          00309382            109003093829             I02130121000030938200309382            23012100000000072423412897708000000000000000000000000000000000000000000000000000000000000000000000000000000000000000000000000000000020000000000000         00000000000000000000000RICHARD LUIZ SERSOSIMO                                                000044
10205539814000112041300648601        CLEAN AMBIENTAL          00309383            109003093837             I02130121000030938300309383            23012100000000079693412897708000000000000000000000000000000000000000000000000000000000000000000000000000000000000000000000000000000030000000000000         00000000000000000000000RC PONTES SANTOS STUDIO DE TAT                                        000045
10205539814000112041300648601        CLEAN AMBIENTAL          00309384            109003093845             I02130121000030938400309384            23012100000000268213412897708000000000000000000000000000000000000000000000000000000000000000000000000000000000000000000000000000000090000000000000         00000000000000000000000TECNOPHARMA FARMACIA DE MANIPU                                        000046
10205539814000112041300648601        CLEAN AMBIENTAL          00309385            109003093852             I02130121000030938500309385            23012100000000071593412897708000000000000000000000000000000000000000000000000000000000000000000000000000000000000000000000000000000020000000000000         00000000000000000000000ACORPO+ SAUDE E ESTETICA LTDA                                         000047
10205539814000112041300648601        CLEAN AMBIENTAL          00309386            109003093860             I02130121000030938600309386            23012100000000552113412897708000000000000000000000000000000000000000000000000000000000000000000000000000000000000000000000000000000180000000000000         00000000000000000000000CONDOMINIO DO EDIFICIO SAO PAU                                        000048
10205539814000112041300648601        CLEAN AMBIENTAL          00309387            109003093878             I02130121000030938700309387            28012100000000203143412897708000000000000000000000000000000000000000000000000000000000000000000000000000000000000000000000000000000070000000000000         00000000000000000000000RODRIGO OLIVEIRA BURLAMAQUI DE                                        000049
10205539814000112041300648601        CLEAN AMBIENTAL          00309388            109003093886             I02130121000030938800309388            23012100000000304033412897708000000000000000000000000000000000000000000000000000000000000000000000000000000000000000000000000000000100000000000000         00000000000000000000000CONDOMINIO DO EDIFICIO CARLOS                                         000050
10205539814000112041300648601        CLEAN AMBIENTAL          00309389            109003093894             I02130121000030938900309389            23012100000000220043412897708000000000000000000000000000000000000000000000000000000000000000000000000000000000000000000000000000000070000000000000         00000000000000000000000CLINICA ODONTOLOGICA  WILLIAM                                         000051
10205539814000112041300648601        CLEAN AMBIENTAL          00309390            109003093902             I02130121000030939000309390            23012100000000041213412897708000000000000000000000000000000000000000000000000000000000000000000000000000000000000000000000000000000010000000000000         00000000000000000000000E TAMUSSINO E CIA LTDA                                                000052
10205539814000112041300648601        CLEAN AMBIENTAL          00309391            109003093910             I02130121000030939100309391            28012100000000445673412897708000000000000000000000000000000000000000000000000000000000000000000000000000000000000000000000000000000150000000000000         00000000000000000000000BIBAS CLINICA DE ESTETICA LTDA                                        000053
10205539814000112041300648601        CLEAN AMBIENTAL          00309392            109003093928             I02130121000030939200309392            23012100000000166563412897708000000000000000000000000000000000000000000000000000000000000000000000000000000000000000000000000000000050000000000000         00000000000000000000000CENTRO DE GIN. E OBST. DRA. EL                                        000054
10205539814000112041300648601        CLEAN AMBIENTAL          00309393            109003093936             I02130121000030939300309393            23012100000000211543412897708000000000000000000000000000000000000000000000000000000000000000000000000000000000000000000000000000000070000000000000         00000000000000000000000CENTRO INTEGRADO DE CONDICIONA                                        000055
10205539814000112041300648601        CLEAN AMBIENTAL          00309394            109003093944             I02130121000030939400309394            23012100000000269003414562508000000000000000000000000000000000000000000000000000000000000000000000000000000000000000000000000000000090000000000000         00000000000000000000000LABORATORIOS MEDICOS DR ELIEL                                         000056
10205539814000112041300648601        CLEAN AMBIENTAL          00309395            109003093951             I02130121000030939500309395            23012100000000384323412897708000000000000000000000000000000000000000000000000000000000000000000000000000000000000000000000000000000130000000000000         00000000000000000000000CONDOMINIO DO EDIFICIO GALAXIA                                        000057
10205539814000112041300648601        CLEAN AMBIENTAL          00309396            109003093969             I02130121000030939600309396            23012100000000095023412897708000000000000000000000000000000000000000000000000000000000000000000000000000000000000000000000000000000030000000000000         00000000000000000000000ODONTO PRIME SERVICOS ODONTOLO                                        000058
10205539814000112041300648601        CLEAN AMBIENTAL          00309397            109003093977             I02130121000030939700309397            23012100000000096833412897708000000000000000000000000000000000000000000000000000000000000000000000000000000000000000000000000000000030000000000000         00000000000000000000000VITOR VASCONCELOS DA CUNHA VIA                                        000059
10205539814000112041300648601        CLEAN AMBIENTAL          00309398            109003093985             I02130121000030939800309398            23012100000000093953412897708000000000000000000000000000000000000000000000000000000000000000000000000000000000000000000000000000000030000000000000         00000000000000000000000KATIA SORAIA NACHARD                                                  000060
10205539814000112041300648601        CLEAN AMBIENTAL          00309399            109003093993             I02130121000030939900309399            20012100000000118243411306008000000000000000000000000000000000000000000000000000000000000000000000000000000000000000000000000000000040000000000000         00000000000000000000000SGSO SAO GONCALO SERVICOS ODON                                        000061
10205539814000112041300648601        CLEAN AMBIENTAL          00309400            109003094009             I02130121000030940000309400            23012100000000055473410229508000000000000000000000000000000000000000000000000000000000000000000000000000000000000000000000000000000020000000000000         00000000000000000000000JOSE RIBAMAR BALBY FILHO                                              000062
10205539814000112041300648601        CLEAN AMBIENTAL          00309401            109003094017             I02130121000030940100309401            23012100000000071003412897708000000000000000000000000000000000000000000000000000000000000000000000000000000000000000000000000000000020000000000000         00000000000000000000000LIZANDRA RIBEIRO DUTRA DE OLIV                                        000063
10205539814000112041300648601        CLEAN AMBIENTAL          00309402            109003094025             I02130121000030940200309402            23012100000000103913412897708000000000000000000000000000000000000000000000000000000000000000000000000000000000000000000000000000000030000000000000         00000000000000000000000ROGERIO ALVES BARBOZA                                                 000064
10205539814000112041300648601        CLEAN AMBIENTAL          00309403            109003094033             I02130121000030940300309403            23012100000000088583412897708000000000000000000000000000000000000000000000000000000000000000000000000000000000000000000000000000000030000000000000         00000000000000000000000WILSON DA SILVA RAMOS FILHO                                           000065
10205539814000112041300648601        CLEAN AMBIENTAL          00309404            109003094041             I02130121000030940400309404            23012100000000102173412897708000000000000000000000000000000000000000000000000000000000000000000000000000000000000000000000000000000030000000000000         00000000000000000000000PRO-MED MEDICINA DIAGNOSTICA L                                        000066
10205539814000112041300648601        CLEAN AMBIENTAL          00309405            109003094058             I02130121000030940500309405            23012100000000035703410059608000000000000000000000000000000000000000000000000000000000000000000000000000000000000000000000000000000010000000000000         00000000000000000000000PODOLOGY COMERCIO E SERVICO DE                                        000067
10205539814000112041300648601        CLEAN AMBIENTAL          00309406            109003094066             I02130121000030940600309406            23012100000000073293412897708000000000000000000000000000000000000000000000000000000000000000000000000000000000000000000000000000000020000000000000         00000000000000000000000PET SHOP AKIRA COMERCIO E SERV                                        000068
10205539814000112041300648601        CLEAN AMBIENTAL          00309407            109003094074             I02130121000030940700309407            23012100000000040743412897708000000000000000000000000000000000000000000000000000000000000000000000000000000000000000000000000000000010000000000000         00000000000000000000000STUDIO FISIOBELA EIRELI                                               000069
10205539814000112041300648601        CLEAN AMBIENTAL          00309408            109003094082             I02130121000030940800309408            23012100000000234453412897708000000000000000000000000000000000000000000000000000000000000000000000000000000000000000000000000000000080000000000000         00000000000000000000000CENTRO MEDICO CALIFORNIA LTDA                                         000070
10205539814000112041300648601        CLEAN AMBIENTAL          00309409            109003094090             I02130121000030940900309409            23012100000000084463412897708000000000000000000000000000000000000000000000000000000000000000000000000000000000000000000000000000000030000000000000         00000000000000000000000PRO-MED MEDICINA DIAGNOSTICA L                                        000071
10205539814000112041300648601        CLEAN AMBIENTAL          00309410            109003094108             I02130121000030941000309410            23012100000000632883412897708000000000000000000000000000000000000000000000000000000000000000000000000000000000000000000000000000000210000000000000         00000000000000000000000PAMM CLINICA ODONTOLOGICA LTDA                                        000072
10205539814000112041300648601        CLEAN AMBIENTAL          00309411            109003094116             I02130121000030941100309411            23012100000000134493412897708000000000000000000000000000000000000000000000000000000000000000000000000000000000000000000000000000000040000000000000         00000000000000000000000DR. TOSA CENTRO ESPECIALIZADO                                         000073
10205539814000112041300648601        CLEAN AMBIENTAL          00309412            109003094124             I02130121000030941200309412            23012100000000230263412897708000000000000000000000000000000000000000000000000000000000000000000000000000000000000000000000000000000080000000000000         00000000000000000000000LABORATORIO CLINICO LACHTERMAC                                        000074
10205539814000112041300648601        CLEAN AMBIENTAL          00309413            109003094132             I02130121000030941300309413            23012100000000087633412897708000000000000000000000000000000000000000000000000000000000000000000000000000000000000000000000000000000030000000000000         00000000000000000000000CLINICA INTEGRADA ODONTO SOUZA                                        000075
10205539814000112041300648601        CLEAN AMBIENTAL          00309414            109003094140             I02130121000030941400309414            23012100000000219213410059608000000000000000000000000000000000000000000000000000000000000000000000000000000000000000000000000000000070000000000000         00000000000000000000000DIVA'S CENTRO DE BELEZA E ESTE                                        000076
10205539814000112041300648601        CLEAN AMBIENTAL          00309415            109003094157             I02130121000030941500309415            23012100000001065533412897708000000000000000000000000000000000000000000000000000000000000000000000000000000000000000000000000000003520000000000000         00000000000000000000000LACH - LABORATORIO DE ANALISES                                        000077
10205539814000112041300648601        CLEAN AMBIENTAL          00309416            109003094165             I02130121000030941600309416            23012100000000128653412897708000000000000000000000000000000000000000000000000000000000000000000000000000000000000000000000000000000040000000000000         00000000000000000000000CRISTIANE SANTOS SENRA COUTINH                                        000078
10205539814000112041300648601        CLEAN AMBIENTAL          00309417            109003094173             I02130121000030941700309417            23012100000000220313412897708000000000000000000000000000000000000000000000000000000000000000000000000000000000000000000000000000000070000000000000         00000000000000000000000RITA DE CASSIA CASTRO LOPES                                           000079
10205539814000112041300648601        CLEAN AMBIENTAL          00309418            109003094181             I02130121000030941800309418            23012100000000139433412897708000000000000000000000000000000000000000000000000000000000000000000000000000000000000000000000000000000050000000000000         00000000000000000000000CENTRO DE AVALIACAO E ALERGIA                                         000080
10205539814000112041300648601        CLEAN AMBIENTAL          00309419            109003094199             I02130121000030941900309419            23012100000000905173412897708000000000000000000000000000000000000000000000000000000000000000000000000000000000000000000000000000000300000000000000         00000000000000000000000BEL TOUR TURISMO E TRANSPORTE                                         000081
10205539814000112041300648601        CLEAN AMBIENTAL          00309420            109003094207             I02130121000030942000309420            23012100000000293423412897708000000000000000000000000000000000000000000000000000000000000000000000000000000000000000000000000000000100000000000000         00000000000000000000000O QUE SUCOS LANCHES LTDA                                              000082
10205539814000112041300648601        CLEAN AMBIENTAL          00309421            109003094215             I02130121000030942100309421            23012100000000679183412897708000000000000000000000000000000000000000000000000000000000000000000000000000000000000000000000000000000220000000000000         00000000000000000000000MINIMERCADO PEIXOTO LTDA - EPP                                        000083
10205539814000112041300648601        CLEAN AMBIENTAL          00309422            109003094223             I02130121000030942200309422            23012100000004001413412897708000000000000000000000000000000000000000000000000000000000000000000000000000000000000000000000000000013200000000000000         00000000000000000000000CONDOMINIO DO ED. EMPRE. COMER                                        000084
10205539814000112041300648601        CLEAN AMBIENTAL          00309423            109003094231             I02130121000030942300309423            23012100000000593773412897708000000000000000000000000000000000000000000000000000000000000000000000000000000000000000000000000000000200000000000000         00000000000000000000000LAME PADARIA E RESTAURANTE LTD                                        000085
10205539814000112041300648601        CLEAN AMBIENTAL          00309424            109003094249             I02130121000030942400309424            23012100000000935993412897708000000000000000000000000000000000000000000000000000000000000000000000000000000000000000000000000000000310000000000000         00000000000000000000000PASSIONE PER GELATO COMERCIO D                                        000086
10205539814000112041300648601        CLEAN AMBIENTAL          00309425            109003094256             I02130121000030942500309425            23012100000000812573412897708000000000000000000000000000000000000000000000000000000000000000000000000000000000000000000000000000000270000000000000         00000000000000000000000PADARIA PUROTRIGO DE BOTAFOGO                                         000087
10205539814000112041300648601        CLEAN AMBIENTAL          00309426            109003094264             I02130121000030942600309426            23012100000000540163412897708000000000000000000000000000000000000000000000000000000000000000000000000000000000000000000000000000000180000000000000         00000000000000000000000VONGOLES RIO BAR E RESTAURANTE                                        000088
10205539814000112041300648601        CLEAN AMBIENTAL          00309427            109003094272             I02130121000030942700309427            23012100000000839613412897708000000000000000000000000000000000000000000000000000000000000000000000000000000000000000000000000000000280000000000000         00000000000000000000000PANIFICACAO MANDARINO LTDA                                            000089
10205539814000112041300648601        CLEAN AMBIENTAL          00309428            109003094280             I02130121000030942800309428            23012100000000808643412897708000000000000000000000000000000000000000000000000000000000000000000000000000000000000000000000000000000270000000000000         00000000000000000000000NIPA 53 ALIMENTOS LTDA                                                000090
10205539814000112041300648601        CLEAN AMBIENTAL          00309429            109003094298             I02130121000030942900309429            23012100000000833773412897708000000000000000000000000000000000000000000000000000000000000000000000000000000000000000000000000000000270000000000000         00000000000000000000000MINI MERCADO TIROL DE JACAREPA                                        000091
10205539814000112041300648601        CLEAN AMBIENTAL          00309430            109003094306             I02130121000030943000309430            23012100000000341843412897708000000000000000000000000000000000000000000000000000000000000000000000000000000000000000000000000000000110000000000000         00000000000000000000000SAGRES DO CASTELO BAR LTDA - M                                        000092
10205539814000112041300648601        CLEAN AMBIENTAL          00309431            109003094314             I02130121000030943100309431            12022100000000646933412897708000000000000000000000000000000000000000000000000000000000000000000000000000000000000000000000000000000210000000000000         00000000000000000000000BRASIF S/A EXPORTACAO IMPORTAC                                        000093
10205539814000112041300648601        CLEAN AMBIENTAL          00309432            109003094322             I02130121000030943200309432            23012100000000398353412897708000000000000000000000000000000000000000000000000000000000000000000000000000000000000000000000000000000130000000000000         00000000000000000000000CENTRO EDUCACIONAL LAURA MATOS                                        000094
10205539814000112041300648601        CLEAN AMBIENTAL          00309433            109003094330             I02130121000030943300309433            23012100000000364393412897708000000000000000000000000000000000000000000000000000000000000000000000000000000000000000000000000000000120000000000000         00000000000000000000000JANNUZZI LAGOEIRO LTDA - ME                                           000095
10205539814000112041300648601        CLEAN AMBIENTAL          00309434            109003094348             I02130121000030943400309434            23012100000000971323412897708000000000000000000000000000000000000000000000000000000000000000000000000000000000000000000000000000000320000000000000         00000000000000000000000MERCEARIA MERKOFRUIT LTDA. - M                                        000096
10205539814000112041300648601        CLEAN AMBIENTAL          00309435            109003094355             I02130121000030943500309435            23012100000001444333412897708000000000000000000000000000000000000000000000000000000000000000000000000000000000000000000000000000004770000000000000         00000000000000000000000ALICANTE HOTEL LTDA - ME                                              000097
10205539814000112041300648601        CLEAN AMBIENTAL          00309436            109003094363             I02130121000030943600309436            23012100000001092653412897708000000000000000000000000000000000000000000000000000000000000000000000000000000000000000000000000000003610000000000000         00000000000000000000000SANTIAGO BAR DE TAPAS EIRELI -                                        000098
10205539814000112041300648601        CLEAN AMBIENTAL          00309437            109003094371             I02130121000030943700309437            28012100000000611413412897708000000000000000000000000000000000000000000000000000000000000000000000000000000000000000000000000000000200000000000000         00000000000000000000000QUENTE TODA HORA MASSAS E SALG                                        000099
10205539814000112041300648601        CLEAN AMBIENTAL          00309438            109003094389             I02130121000030943800309438            23012100000000775983412897708000000000000000000000000000000000000000000000000000000000000000000000000000000000000000000000000000000260000000000000         00000000000000000000000MERCADO UNIDOS SUPER REDE LTDA                                        000100
10205539814000112041300648601        CLEAN AMBIENTAL          00309439            109003094397             I02130121000030943900309439            23012100000000925293412897708000000000000000000000000000000000000000000000000000000000000000000000000000000000000000000000000000000310000000000000         00000000000000000000000CONDOMINIO CONNECTION OFFICES                                         000101
10205539814000112041300648601        CLEAN AMBIENTAL          00309440            109003094405             I02130121000030944000309440            28012100000000470483412897708000000000000000000000000000000000000000000000000000000000000000000000000000000000000000000000000000000160000000000000         00000000000000000000000BANCO BRADESCO S/A                                                    000102
10205539814000112041300648601        CLEAN AMBIENTAL          00309441            109003094413             I02130121000030944100309441            23012100000000648673412897708000000000000000000000000000000000000000000000000000000000000000000000000000000000000000000000000000000210000000000000         00000000000000000000000DOCURA DO MEIER COMERCIO DE DO                                        000103
10205539814000112041300648601        CLEAN AMBIENTAL          00309442            109003094421             I02130121000030944200309442            23012100000000178933412897708000000000000000000000000000000000000000000000000000000000000000000000000000000000000000000000000000000060000000000000         00000000000000000000000POSTO COELHINHO LTDA                                                  000104
10205539814000112041300648601        CLEAN AMBIENTAL          00309443            109003094439             I02130121000030944300309443            23012100000000389213412897708000000000000000000000000000000000000000000000000000000000000000000000000000000000000000000000000000000130000000000000         00000000000000000000000FLEX LAB COMERCIO DE MATERIAIS                                        000105
10205539814000112041300648601        CLEAN AMBIENTAL          00309444            109003094447             I02130121000030944400309444            23012100000000924213412897708000000000000000000000000000000000000000000000000000000000000000000000000000000000000000000000000000000300000000000000         00000000000000000000000MASM COPA BAR E DISCOTECA EIRE                                        000106
10205539814000112041300648601        CLEAN AMBIENTAL          00309445            109003094454             I02130121000030944500309445            28012100000000826053412897708000000000000000000000000000000000000000000000000000000000000000000000000000000000000000000000000000000270000000000000         00000000000000000000000C & F FOOD LTDA - EPP                                                 000107
10205539814000112041300648601        CLEAN AMBIENTAL          00309446            109003094462             I02130121000030944600309446            23012100000000325143412897708000000000000000000000000000000000000000000000000000000000000000000000000000000000000000000000000000000110000000000000         00000000000000000000000UNIAO DA CAIRO DISTRIBUIDORA D                                        000108
10205539814000112041300648601        CLEAN AMBIENTAL          00309447            109003094470             I02130121000030944700309447            23012100000000307373412897708000000000000000000000000000000000000000000000000000000000000000000000000000000000000000000000000000000100000000000000         00000000000000000000000IMPERIAL SALAO DE BELEZA LTDA                                         000109
10205539814000112041300648601        CLEAN AMBIENTAL          00309448            109003094488             I02130121000030944800309448            23012100000000307373412897708000000000000000000000000000000000000000000000000000000000000000000000000000000000000000000000000000000100000000000000         00000000000000000000000AGAPE IMPERIAL SALAO DE BELEZA                                        000110
10205539814000112041300648601        CLEAN AMBIENTAL          00309449            109003094496             I02130121000030944900309449            23012100000001622343412897708000000000000000000000000000000000000000000000000000000000000000000000000000000000000000000000000000005350000000000000         00000000000000000000000PAP ACORDA BAR RESTAURANTE E C                                        000111
10205539814000112041300648601        CLEAN AMBIENTAL          00309450            109003094504             I02130121000030945000309450            23012100000000466813412897708000000000000000000000000000000000000000000000000000000000000000000000000000000000000000000000000000000150000000000000         00000000000000000000000ESPACO MIX TAQUARA LTDA                                               000112
10205539814000112041300648601        CLEAN AMBIENTAL          00309451            109003094512             I02130121000030945100309451            23012100000000651963412897708000000000000000000000000000000000000000000000000000000000000000000000000000000000000000000000000000000210000000000000         00000000000000000000000CONFEITARIA COLOMBO LTDA                                              000113
10205539814000112041300648601        CLEAN AMBIENTAL          00309452            109003094520             I02130121000030945200309452            23012100000000333763412897708000000000000000000000000000000000000000000000000000000000000000000000000000000000000000000000000000000110000000000000         00000000000000000000000CONDOMINIO DO EDIFICIO CAPITOL                                        000114
10205539814000112041300648601        CLEAN AMBIENTAL          00309453            109003094538             I02130121000030945300309453            23012100000000279653412897708000000000000000000000000000000000000000000000000000000000000000000000000000000000000000000000000000000090000000000000         00000000000000000000000MARACA HOSTEL LTDA - ME                                               000115
10205539814000112041300648601        CLEAN AMBIENTAL          00309454            109003094546             I02130121000030945400309454            23012100000000591763411282308000000000000000000000000000000000000000000000000000000000000000000000000000000000000000000000000000000200000000000000         00000000000000000000000ECO BRAZIL INDUSTRIA TEXTIL LT                                        000116
10205539814000112041300648601        CLEAN AMBIENTAL          00309455            109003094553             I02130121000030945500309455            23012100000000122373412897708000000000000000000000000000000000000000000000000000000000000000000000000000000000000000000000000000000040000000000000         00000000000000000000000DIONISIO COMERCIO DE BEBIDAS E                                        000117
10205539814000112041300648601        CLEAN AMBIENTAL          00309456            109003094561             I02130121000030945600309456            23012100000000238003412897708000000000000000000000000000000000000000000000000000000000000000000000000000000000000000000000000000000080000000000000         00000000000000000000000NOVA GERACAO COMESTIVEIS S.A                                          000118
10205539814000112041300648601        CLEAN AMBIENTAL          00309457            109003094579             I02130121000030945700309457            23012100000000367113412897708000000000000000000000000000000000000000000000000000000000000000000000000000000000000000000000000000000120000000000000         00000000000000000000000ARABS COPA LANCHONETE - EIRELI                                        000119
10205539814000112041300648601        CLEAN AMBIENTAL          00309458            109003094587             I02130121000030945800309458            23012100000000266933412897708000000000000000000000000000000000000000000000000000000000000000000000000000000000000000000000000000000090000000000000         00000000000000000000000DIKA DO MEIER - MINIMERCADO EI                                        000120
10205539814000112041300648601        CLEAN AMBIENTAL          00309459            109003094595             I02130121000030945900309459            23012100000000492153412897708000000000000000000000000000000000000000000000000000000000000000000000000000000000000000000000000000000160000000000000         00000000000000000000000CLUBE SIRIO E LIBANES DO RIO D                                        000121
10205539814000112041300648601        CLEAN AMBIENTAL          00309460            109003094603             I02130121000030946000309460            23012100000000317893412897708000000000000000000000000000000000000000000000000000000000000000000000000000000000000000000000000000000100000000000000         00000000000000000000000BAR E LANCHONETE PH LTDA - ME                                         000122
10205539814000112041300648601        CLEAN AMBIENTAL          00309461            109003094611             I02130121000030946100309461            23012100000000496003412897708000000000000000000000000000000000000000000000000000000000000000000000000000000000000000000000000000000160000000000000         00000000000000000000000CAFE E BAR NOVA TIRADENTES LIM                                        000123
10205539814000112041300648601        CLEAN AMBIENTAL          00309462            109003094629             I02130121000030946200309462            23012100000001066133412897708000000000000000000000000000000000000000000000000000000000000000000000000000000000000000000000000000003520000000000000         00000000000000000000000FLORIDA BAR LTDA - ME                                                 000124
10205539814000112041300648601        CLEAN AMBIENTAL          00309463            109003094637             I02130121000030946300309463            01022100000000567113412897708000000000000000000000000000000000000000000000000000000000000000000000000000000000000000000000000000000190000000000000         00000000000000000000000RESTAURANTE J PORTO EIRELI                                            000125
10205539814000112041300648601        CLEAN AMBIENTAL          00309464            109003094645             I02130121000030946400309464            23012100000000436563412897708000000000000000000000000000000000000000000000000000000000000000000000000000000000000000000000000000000140000000000000         00000000000000000000000LANCHONETE AMARELINHO DO CANAL                                        000126
10205539814000112041300648601        CLEAN AMBIENTAL          00309465            109003094652             I02130121000030946500309465            23012100000000418513412897708000000000000000000000000000000000000000000000000000000000000000000000000000000000000000000000000000000140000000000000         00000000000000000000000POSTO DE GASOLINA CAPOEIRAS LT                                        000127
10205539814000112041300648601        CLEAN AMBIENTAL          00309466            109003094660             I02130121000030946600309466            23012100000000274813412897708000000000000000000000000000000000000000000000000000000000000000000000000000000000000000000000000000000090000000000000         00000000000000000000000RESTAURANTE RIOJAPA LTDA.                                             000128
10205539814000112041300648601        CLEAN AMBIENTAL          00309467            109003094678             I02130121000030946700309467            23012100000002246823412897708000000000000000000000000000000000000000000000000000000000000000000000000000000000000000000000000000007410000000000000         00000000000000000000000AUTO POSTO MASP JARDIM LTDA.                                          000129
10205539814000112041300648601        CLEAN AMBIENTAL          00309468            109003094686             I02130121000030946800309468            23012100000001564143412897708000000000000000000000000000000000000000000000000000000000000000000000000000000000000000000000000000005160000000000000         00000000000000000000000AUTO POSTO TREVO DA BARRA LTDA                                        000130
10205539814000112041300648601        CLEAN AMBIENTAL          00309469            109003094694             I02130121000030946900309469            23012100000000332083412897708000000000000000000000000000000000000000000000000000000000000000000000000000000000000000000000000000000110000000000000         00000000000000000000000SACOLAO GORDINHO LTDA                                                 000131
10205539814000112041300648601        CLEAN AMBIENTAL          00309470            109003094702             I02130121000030947000309470            23012100000000769553412897708000000000000000000000000000000000000000000000000000000000000000000000000000000000000000000000000000000250000000000000         00000000000000000000000REI DAS CARNES DE CAMPO GRANDE                                        000132
10205539814000112041300648601        CLEAN AMBIENTAL          00309471            109003094710             I02130121000030947100309471            23012100000000288353412897708000000000000000000000000000000000000000000000000000000000000000000000000000000000000000000000000000000100000000000000         00000000000000000000000RESTAURANTE ESTRELLA LTDA                                             000133
10205539814000112041300648601        CLEAN AMBIENTAL          00309472            109003094728             I02130121000030947200309472            23012100000000388163412897708000000000000000000000000000000000000000000000000000000000000000000000000000000000000000000000000000000130000000000000         00000000000000000000000REPUBLICA DAS DELICIAS DOCES E                                        000134
10205539814000112041300648601        CLEAN AMBIENTAL          00309473            109003094736             I02130121000030947300309473            23012100000000334373412897708000000000000000000000000000000000000000000000000000000000000000000000000000000000000000000000000000000110000000000000         00000000000000000000000GAVEA FAST FOOD LANCHONETE LTD                                        000135
10205539814000112041300648601        CLEAN AMBIENTAL          00309474            109003094744             I02130121000030947400309474            23012100000000408473412897708000000000000000000000000000000000000000000000000000000000000000000000000000000000000000000000000000000130000000000000         00000000000000000000000CASA NA ARVORE ESPACO DE EDUCA                                        000136
10205539814000112041300648601        CLEAN AMBIENTAL          00309475            109003094751             I02130121000030947500309475            23012100000000507213412897708000000000000000000000000000000000000000000000000000000000000000000000000000000000000000000000000000000170000000000000         00000000000000000000000PASTELARIA CANA DOCE LTDA                                             000137
10205539814000112041300648601        CLEAN AMBIENTAL          00309476            109003094769             I02130121000030947600309476            23012100000000266053412897708000000000000000000000000000000000000000000000000000000000000000000000000000000000000000000000000000000090000000000000         00000000000000000000000ELAINE LANCHES LTDA                                                   000138
10205539814000112041300648601        CLEAN AMBIENTAL          00309477            109003094777             I02130121000030947700309477            23012100000002174743412897708000000000000000000000000000000000000000000000000000000000000000000000000000000000000000000000000000007180000000000000         00000000000000000000000TALISMAN BAR E RESTAURANTE LTD                                        000139
10205539814000112041300648601        CLEAN AMBIENTAL          00309478            109003094785             I02130121000030947800309478            23012100000000376053412897708000000000000000000000000000000000000000000000000000000000000000000000000000000000000000000000000000000120000000000000         00000000000000000000000FABULOSO BURGER ALIMENTOS LTDA                                        000140
10205539814000112041300648601        CLEAN AMBIENTAL          00309479            109003094793             I02130121000030947900309479            23012100000000194473412897708000000000000000000000000000000000000000000000000000000000000000000000000000000000000000000000000000000060000000000000         00000000000000000000000CENTRO AUTOMOTIVO NOVA RIBEIRA                                        000141
10205539814000112041300648601        CLEAN AMBIENTAL          00309480            109003094801             I02130121000030948000309480            23012100000000507373412897708000000000000000000000000000000000000000000000000000000000000000000000000000000000000000000000000000000170000000000000         00000000000000000000000CASA VIEIRA SOUTO REFEICOES LT                                        000142
10205539814000112041300648601        CLEAN AMBIENTAL          00309481            109003094819             I02130121000030948100309481            23012100000000306053412897708000000000000000000000000000000000000000000000000000000000000000000000000000000000000000000000000000000100000000000000         00000000000000000000000HORTIFRUTI DA PASSAGEM LTDA                                           000143
10205539814000112041300648601        CLEAN AMBIENTAL          00309482            109003094827             I02130121000030948200309482            23012100000000196673411282308000000000000000000000000000000000000000000000000000000000000000000000000000000000000000000000000000000060000000000000         00000000000000000000000CARGOSOFT SERVICOS LOGISTICOS                                         000144
10205539814000112041300648601        CLEAN AMBIENTAL          00309483            109003094835             I02130121000030948300309483            23012100000000582603412897708000000000000000000000000000000000000000000000000000000000000000000000000000000000000000000000000000000190000000000000         00000000000000000000000CACTOS DO CATETE BAR LTDA                                             000145
10205539814000112041300648601        CLEAN AMBIENTAL          00309484            109003094843             I02130121000030948400309484            23012100000000251323412897708000000000000000000000000000000000000000000000000000000000000000000000000000000000000000000000000000000080000000000000         00000000000000000000000CGR2 INST DE DEPILACAO EIRELI                                         000146
10205539814000112041300648601        CLEAN AMBIENTAL          00309485            109003094850             I02130121000030948500309485            23012100000001448683412897708000000000000000000000000000000000000000000000000000000000000000000000000000000000000000000000000000004780000000000000         00000000000000000000000MEU RECANTO EM IPANEMA BAR E R                                        000147
10205539814000112041300648601        CLEAN AMBIENTAL          00309486            109003094868             I02130121000030948600309486            23012100000000283613412897708000000000000000000000000000000000000000000000000000000000000000000000000000000000000000000000000000000090000000000000         00000000000000000000000JN SUSHI COMERCIO DE ALIMENTOS                                        000148
10205539814000112041300648601        CLEAN AMBIENTAL          00309487            109003094876             I02130121000030948700309487            23012100000000615533412897708000000000000000000000000000000000000000000000000000000000000000000000000000000000000000000000000000000200000000000000         00000000000000000000000ACOUGUE E EMPORIO REZENDE & PO                                        000149
10205539814000112041300648601        CLEAN AMBIENTAL          00309488            109003094884             I02130121000030948800309488            23012100000000246023412897708000000000000000000000000000000000000000000000000000000000000000000000000000000000000000000000000000000080000000000000         00000000000000000000000CLINICA NEUROLOGICA LUIZ ALVES                                        000150
10205539814000112041300648601        CLEAN AMBIENTAL          00309489            109003094892             I02130121000030948900309489            23012100000000478283412897708000000000000000000000000000000000000000000000000000000000000000000000000000000000000000000000000000000160000000000000         00000000000000000000000LABORATORIOS MEDICOS DR ELIEL                                         000151
10205539814000112041300648601        CLEAN AMBIENTAL          00309490            109003094900             I02130121000030949000309490            28012100000000513083412897708000000000000000000000000000000000000000000000000000000000000000000000000000000000000000000000000000000170000000000000         00000000000000000000000BS BURGUER COMERCIO DE ALIMENT                                        000152
10205539814000112041300648601        CLEAN AMBIENTAL          00309491            109003094918             I02130121000030949100309491            23012100000000598143412897708000000000000000000000000000000000000000000000000000000000000000000000000000000000000000000000000000000200000000000000         00000000000000000000000SUPER FRUIT DA VILA HORTIFRUTI                                        000153
10205539814000112041300648601        CLEAN AMBIENTAL          00251669            109002516697             I06130121000025166900251669            26012000000000283743411595808000000000016400000000000000000000000000000000000000000000000000000000000000000000000002902600000000008160000000000000   13012100000000000000000000000VILLAGE GRIFFE DO PAO LTDA                                          CK000154
10205539814000112041300648601        CLEAN AMBIENTAL          00264113            109002641131             I06130121000026411300264113            27032000000000037216330001808000000000016400000000000000000000000000000000000000000000000000000000000000000000000000390300000000003460000000000000   13012100000000000000000000000BARBEARIA DO RATINHO EIRELI                                         B3000155
10205539814000112041300648601        CLEAN AMBIENTAL          00270963            109002709631             I06130121000027096300270963            27042000000000035896330001808000000000016400000000000000000000000000000000000000000000000000000000000000000000000000374800000000003230000000000000   13012100000000000000000000000BARBEARIA DO RATINHO EIRELI                                         B3000156
10205539814000112041300648601        CLEAN AMBIENTAL          00297588            109002975885             I06130121000029758800297588            20112000000000043162373463708000000000016400000000000000000000000000000000000000000000000000000000000000000000000000429200000000001400000000000000   13012100000000000000000000000CLASSE A BELEZA E ESTETICA LTD                                      B3000157
10205539814000112041300648601        CLEAN AMBIENTAL          00300310            109003003109             I06130121000030031000300310            07012100000000066590333350608000000000016400000000000000000000000000000000000000000000000000000000000000000000000000664000000000001450000000000000   13012100000000000000000000000MARIA IVONE DA CONCEICAO SILVA                                      B3000158
10205539814000112041300648601        CLEAN AMBIENTAL          00302140            109003021408             I06130121000030214000302140            20122000000000039472373463708000000000016400000000000000000000000000000000000000000000000000000000000000000000000000388600000000001030000000000000   13012100000000000000000000000CLASSE A BELEZA E ESTETICA LTD                                      B3000159
10205539814000112041300648601        CLEAN AMBIENTAL          00303135            109003031357             I06130121000030313500303135            17122000000000250693418117408000000000016400000000000000000000000000000000000000000000000000000000000000000000000002562200000000007170000000000000   13012100000000000000000000000CONDOMINIO DO EDIFICIO GALERIA                                      CK000160
10205539814000112041300648601        CLEAN AMBIENTAL          00303592            109003035929             I06130121000030359200303592            08012100000000433424220015808000000000016400000000000000000000000000000000000000000000000000000000000000000000000004411500000000009370000000000000   13012100000000000000000000000CONDOMINIO DO EDIFICIO BIGRYDL                                      B7000161
10205539814000112041300648601        CLEAN AMBIENTAL          00303777            109003037776             I06130121000030377700303777            12012100000000170260333063508000000000016400000000000000000000000000000000000000000000000000000000000000000000000001720900000000003470000000000000   13012100000000000000000000000DROGARIA VIVA BEM DE ROCHA MIR                                      B3000162
10205539814000112041300648601        CLEAN AMBIENTAL          00303868            109003038683             I06130121000030386800303868            27122000000000684890331641008000000000016400000000000000000000000000000000000000000000000000000000000000000000000006832500000000000000000000000000   13012100000000000000000000000BAR E RESTAURANTE GEGE LTDA                                         B3000163
10205539814000112041300648601        CLEAN AMBIENTAL          00303965            109003039657             I06130121000030396500303965            18122000000000085003413820808000000000016400000000000000000000000000000000000000000000000000000000000000000000000000858400000000002480000000000000   13012100000000000000000000000ODONTOCLINICA BARRA DA TIJUCA                                       BL000164
10205539814000112041300648601        CLEAN AMBIENTAL          00304510            109003045100             I06130121000030451000304510            21122000000000073290770001808000000000016400000000000000000000000000000000000000000000000000000000000000000000000000735800000000001930000000000000   13012100000000000000000000000JOSE CARLOS RIBEIRO                                                 B3000165
10205539814000112041300648601        CLEAN AMBIENTAL          00304708            109003047080             I06130121000030470800304708            18012100000000268213410023208000000000016400000000000000000000000000000000000000000000000000000000000000000000000002665700000000000000000000000000   13012100000000000000000000000TECNOPHARMA FARMACIA DE MANIPU                                      CK000166
10205539814000112041300648601        CLEAN AMBIENTAL          00304762            109003047627             I06130121000030476200304762            06012100000000824630330125508000000000016400000000000000000000000000000000000000000000000000000000000000000000000008413700000000018380000000000000   13012100000000000000000000000DUFRY LOJAS FRANCAS LTDA.                                           B7000167
10205539814000112041300648601        CLEAN AMBIENTAL          00304826            109003048260             I06130121000030482600304826            22122000000000046140332248308000000000016400000000000000000000000000000000000000000000000000000000000000000000000000445000000000000000000000000000   13012100000000000000000000000KAPPLER E EPIFANIO SALAO DE BE                                      B3000168
10205539814000112041300648601        CLEAN AMBIENTAL          00305028            109003050282             I06130121000030502800305028            15012100000000678952370887008000000000016400000000000000000000000000000000000000000000000000000000000000000000000006773100000000000000000000000000   13012100000000000000000000000CEBEL PARTICIPACOES E EMPREEND                                      B3000169
10205539814000112041300648601        CLEAN AMBIENTAL          00305064            109003050647             I06130121000030506400305064            25122000000000084466330001808000000000016400000000000000000000000000000000000000000000000000000000000000000000000000850800000000002260000000000000   13012100000000000000000000000RAPHAEL AGUIAR DO NASCIMENTO 1                                      B3000170
10205539814000112041300648601        CLEAN AMBIENTAL          00305213            109003052130             I06130121000030521300305213            29122000000000520533410619708000000000016400000000000000000000000000000000000000000000000000000000000000000000000005188900000000000000000000000000   13012100000000000000000000000ASSOCIACAO INCUBADORA SOCIAL G                                      CK000171
10205539814000112041300648601        CLEAN AMBIENTAL          00305427            109003054276             I06130121000030542700305427            28122000000000170492372757308000000000016400000000000000000000000000000000000000000000000000000000000000000000000001732200000000004370000000000000   13012100000000000000000000000OLIMPICO PET SHOP E SERVICOS D                                      B3000172
10205539814000112041300648601        CLEAN AMBIENTAL          00305436            109003054367             I06130121000030543600305436            28122000000000073292371107208000000000016400000000000000000000000000000000000000000000000000000000000000000000000000734400000000001790000000000000   13012100000000000000000000000MARTINS ODONTOLOGIA LTDA                                            B3000173
10205539814000112041300648601        CLEAN AMBIENTAL          00305439            109003054391             I06130121000030543900305439            28122000000000049010331682408000000000016400000000000000000000000000000000000000000000000000000000000000000000000000486700000000001300000000000000   13012100000000000000000000000ARAO MACHADO DE PAULA 07949105                                      B3000174
10205539814000112041300648601        CLEAN AMBIENTAL          00305447            109003054474             I06130121000030544700305447            13012100000000071846330001808000000000016400000000000000000000000000000000000000000000000000000000000000000000000000702000000000000000000000000000   13012100000000000000000000000BRUNO DA COSTA                                                      B3000175
10205539814000112041300648601        CLEAN AMBIENTAL          00305496            109003054961             I06130121000030549600305496            29122000000000616453419229608000000000016400000000000000000000000000000000000000000000000000000000000000000000000006301400000000015330000000000000   13012100000000000000000000000MMFSA PRODUTOS ALIMENTICIOS -                                       BL000176
10205539814000112041300648601        CLEAN AMBIENTAL          00305525            109003055257             I06130121000030552500305525            13012100000001350822372373908000000000016400000000000000000000000000000000000000000000000000000000000000000000000013491800000000000000000000000000   13012100000000000000000000000TALHOS E RETALHOS ATELIER CONF                                      B3000177
10205539814000112041300648601        CLEAN AMBIENTAL          00305546            109003055463             I06130121000030554600305546            13012100000000599423418586008000000000016400000000000000000000000000000000000000000000000000000000000000000000000005977800000000000000000000000000   13012100000000000000000000000CONDOMINIO CENTRO COMERCIAL AS                                      CK000178
10205539814000112041300648601        CLEAN AMBIENTAL          00305559            109003055596             I06130121000030555900305559            08012100000000397042371629508000000000016400000000000000000000000000000000000000000000000000000000000000000000000003954000000000000000000000000000   13012100000000000000000000000BOTECO DA PRAIA BAR LTDA - ME                                       B3000179
10205539814000112041300648601        CLEAN AMBIENTAL          00305617            109003056172             I06130121000030561700305617            10012100000001635742372359808000000000016400000000000000000000000000000000000000000000000000000000000000000000000016341000000000000000000000000000   13012100000000000000000000000CONDOMINIO DO EDIFICIO BLUE SQ                                      B7000180
10205539814000112041300648601        CLEAN AMBIENTAL          00305659            109003056594             I06130121000030565900305659            15012100000000409583418741108000000000016400000000000000000000000000000000000000000000000000000000000000000000000004079400000000000000000000000000   13012100000000000000000000000RESTAURANTE DO MOMO LTDA                                            CK000181
10205539814000112041300648601        CLEAN AMBIENTAL          00305676            109003056768             I06130121000030567600305676            15012100000000345683414515308000000000016400000000000000000000000000000000000000000000000000000000000000000000000003440400000000000000000000000000   13012100000000000000000000000CULINARIA JAPONESA DU BRONCA E                                      BL000182
10205539814000112041300648601        CLEAN AMBIENTAL          00305677            109003056776             I06130121000030567700305677            01012100000000516263419229608000000000016400000000000000000000000000000000000000000000000000000000000000000000000005269900000000012370000000000000   13012100000000000000000000000THIAGO HENRIQUE BERTON FAGUNDE                                      BL000183
10205539814000112041300648601        CLEAN AMBIENTAL          00305724            109003057246             I06130121000030572400305724            12012100000000045786550001808000000000016400000000000000000000000000000000000000000000000000000000000000000000000000450600000000000920000000000000   13012100000000000000000000000VALESCA PEREIRA GONCALVES                                           B3000184
10205539814000112041300648601        CLEAN AMBIENTAL          00305730            109003057303             I06130121000030573000305730            12012100000000085473411216108000000000016400000000000000000000000000000000000000000000000000000000000000000000000000855700000000001740000000000000   13012100000000000000000000000SANCOR ASSISTENCIA MEDICA E OD                                      CP000185
10205539814000112041300648601        CLEAN AMBIENTAL          00305829            109003058293             I06130121000030582900305829            30122000000000080060331667508000000000016400000000000000000000000000000000000000000000000000000000000000000000000000804400000000002020000000000000   13012100000000000000000000000RIO DROGAS COMERCIO DE MEDICAM                                      B3000186
10205539814000112041300648601        CLEAN AMBIENTAL          00305906            109003059069             I06130121000030590600305906            15012100000000846322373262308000000000016400000000000000000000000000000000000000000000000000000000000000000000000008446800000000000000000000000000   13012100000000000000000000000BRASIL POINT SUPER LANCHES LTD                                      B3000187
10205539814000112041300648601        CLEAN AMBIENTAL          00305996            109003059960             I06130121000030599600305996            15012100000000831897484501308000000000016400000000000000000000000000000000000000000000000000000000000000000000000008302500000000000000000000000000   13012100000000000000000000000CASA DE REPOUSO JACINTO ALCIDE                                      B3000188
10205539814000112041300648601        CLEAN AMBIENTAL          00306089            109003060893             I06130121000030608900306089            13012100000000920290010472108000000000016400000000000000000000000000000000000000000000000000000000000000000000000009186500000000000000000000000000   13012100000000000000000000000CLINICA WAJNBERG                                                    B3000189
10205539814000112041300648601        CLEAN AMBIENTAL          00306187            109003061875             I06130121000030618700306187            11012100000000335332373750708000000000016400000000000000000000000000000000000000000000000000000000000000000000000003405900000000006900000000000000   13012100000000000000000000000RCP COMERCIO DE FRUTAS E LEGUM                                      B3000190
10205539814000112041300648601        CLEAN AMBIENTAL          00306189            109003061891             I06130121000030618900306189            12012100000000428952370887008000000000016400000000000000000000000000000000000000000000000000000000000000000000000004360300000000008720000000000000   13012100000000000000000000000LA BOTELLA COMERCIO DE ALIMENT                                      B3000191
10205539814000112041300648601        CLEAN AMBIENTAL          00306329            109003063293             I06130121000030632900306329            12012100000000780042370213908000000000016400000000000000000000000000000000000000000000000000000000000000000000000007942600000000015860000000000000   13012100000000000000000000000IPANEMA INTERTUR SERVICOS E LA                                      B3000192
10205539814000112041300648601        CLEAN AMBIENTAL          00306352            109003063525             I06130121000030635200306352            30122100000000214730333385208000000000016400000000000000000000000000000000000000000000000000000000000000000000000002130900000000000000000000000000   13012100000000000000000000000J. L. HUGUININ LANCHONETE                                           B3000193
10205539814000112041300648601        CLEAN AMBIENTAL          00306443            109003064432             I06130121000030644300306443            07012100000000081840013101308000000000016400000000000000000000000000000000000000000000000000000000000000000000000000820200000000001820000000000000   13012100000000000000000000000QUALIDENTE CLINICA ODONTOLOGIC                                      B6000194
10205539814000112041300648601        CLEAN AMBIENTAL          00306462            109003064622             I06130121000030646200306462            07012100000000512473415646508000000000016400000000000000000000000000000000000000000000000000000000000000000000000005108300000000000000000000000000   13012100000000000000000000000BANDEIRA E FERNANDES BAR E RES                                      CK000195
10205539814000112041300648601        CLEAN AMBIENTAL          00306532            109003065322             I06130121000030653200306532            12012100000000096443410847408000000000016400000000000000000000000000000000000000000000000000000000000000000000000000967600000000001960000000000000   13012100000000000000000000000PLANETA PET COMERCIO E SERVICO                                      CK000196
10205539814000112041300648601        CLEAN AMBIENTAL          00306542            109003065421             I06130121000030654200306542            10012100000000088650770001808000000000016400000000000000000000000000000000000000000000000000000000000000000000000000888700000000001860000000000000   13012100000000000000000000000CLINICA ODONTOLOGICA MARCEL DO                                      B3000197
10205539814000112041300648601        CLEAN AMBIENTAL          00306576            109003065769             I06130121000030657600306576            13012100000000114207567523408000000000016400000000000000000000000000000000000000000000000000000000000000000000000001125600000000000000000000000000   13012100000000000000000000000021 DENTAL VILA DA PENHA ODONT                                      B3000198
10205539814000112041300648601        CLEAN AMBIENTAL          00306611            109003066114             I06130121000030661100306611            13012100000000481312370583508000000000016400000000000000000000000000000000000000000000000000000000000000000000000004796700000000000000000000000000   13012100000000000000000000000BANCO BRADESCO S/A                                                  B1000199
10205539814000112041300648601        CLEAN AMBIENTAL          00306613            109003066130             I06130121000030661300306613            13012100000000271580333977608000000000016400000000000000000000000000000000000000000000000000000000000000000000000002699400000000000000000000000000   13012100000000000000000000000KINOS RECREIO LANCHONETE E BAR                                      B3000200
10205539814000112041300648601        CLEAN AMBIENTAL          00306621            109003066213             I06130121000030662100306621            08012100000000558523410532208000000000016400000000000000000000000000000000000000000000000000000000000000000000000005689500000000012070000000000000   13012100000000000000000000000ASSOCIACAO ARQUIDIOCESANA TARD                                      CK000201
10205539814000112041300648601        CLEAN AMBIENTAL          00306632            109003066320             I06130121000030663200306632            08012100000000457953418933408000000000016400000000000000000000000000000000000000000000000000000000000000000000000004661600000000009850000000000000   13012100000000000000000000000JULIVAN INDUSTRIA E COMERCIO D                                      CK000202
10205539814000112041300648601        CLEAN AMBIENTAL          00306648            109003066486             I06130121000030664800306648            13012100000003898893417965708000000000016400000000000000000000000000000000000000000000000000000000000000000000000038972500000000000000000000000000   13012100000000000000000000000IT CEM POR CENTO INDUSTRIA E C                                      CK000203
10205539814000112041300648601        CLEAN AMBIENTAL          00306650            109003066502             I06130121000030665000306650            08012100000000445682370583508000000000016400000000000000000000000000000000000000000000000000000000000000000000000004440400000000000000000000000000   13012100000000000000000000000BELA TIJUCA LANCHES LTDA                                            B2000204
10205539814000112041300648601        CLEAN AMBIENTAL          00306664            109003066643             I06130121000030666400306664            13012100000000605283410706208000000000016400000000000000000000000000000000000000000000000000000000000000000000000006036400000000000000000000000000   13012100000000000000000000000CONDOMINIO DO EDIFICIO WEST ME                                      CK000205
10205539814000112041300648601        CLEAN AMBIENTAL          00306685            109003066858             I06130121000030668500306685            08012100000000107110333823208000000000016400000000000000000000000000000000000000000000000000000000000000000000000001078100000000002340000000000000   13012100000000000000000000000RENEW DENTAL 2020 SERVICOS ODO                                      B3000206
10205539814000112041300648601        CLEAN AMBIENTAL          00306712            109003067120             I06130121000030671200306712            09012100000000681771042954608000000000016400000000000000000000000000000000000000000000000000000000000000000000000006946500000000014520000000000000   13012100000000000000000000000PADARIA E CONFEITARIA MOUZINHO                                      B3000207
10205539814000112041300648601        CLEAN AMBIENTAL          00306713            109003067138             I06130121000030671300306713            09012100000001413722371075108000000000016400000000000000000000000000000000000000000000000000000000000000500000000014070800000000000000000000000000   13012100000000000000000000000DUARTE MAISON RECOLHIMENTO PAR                                      B3000208
10205539814000112041300648601        CLEAN AMBIENTAL          00306715            109003067153             I06130121000030671500306715            09012100000000543043410308708000000000016400000000000000000000000000000000000000000000000000000000000000000000000005414000000000000000000000000000   13012100000000000000000000000SUCOS E SORVETERIA SUISSA LTDA                                      CK000209
10205539814000112041300648601        CLEAN AMBIENTAL          00306725            109003067252             I06130121000030672500306725            09012100000000764162371075108000000000016400000000000000000000000000000000000000000000000000000000000000500000000007575200000000000000000000000000   13012100000000000000000000000VILLA SOFIA RESIDENCIAL LTDA                                        B3000210
10205539814000112041300648601        CLEAN AMBIENTAL          00306727            109003067278             I06130121000030672700306727            14012100000000336000010472108000000000016400000000000000000000000000000000000000000000000000000000000000000000000003343600000000000000000000000000   13012100000000000000000000000COMERCIAL DISTRIBUIDORA MARNO                                       B3000211
10205539814000112041300648601        CLEAN AMBIENTAL          00306766            109003067666             I06130121000030676600306766            09012100000000418680333016308000000000016400000000000000000000000000000000000000000000000000000000000000000000000004259700000000008930000000000000   13012100000000000000000000000DOWN JONES FOODS RESTAURANTE L                                      B3000212
10205539814000112041300648601        CLEAN AMBIENTAL          00306775            109003067757             I06130121000030677500306775            09012100000000082801041343308000000000016400000000000000000000000000000000000000000000000000000000000000000000000000811600000000000000000000000000   13012100000000000000000000000FARMACIA NOVA ASSUNCAO LTDA                                         B5000213
10205539814000112041300648601        CLEAN AMBIENTAL          00306781            109003067815             I06130121000030678100306781            09012100000000109213410387108000000000016400000000000000000000000000000000000000000000000000000000000000000000000001099100000000002340000000000000   13012100000000000000000000000SAID GABRIEL MARTINS STOLERMAN                                      BL000214
10205539814000112041300648601        CLEAN AMBIENTAL          00306797            109003067971             I06130121000030679700306797            09012100000000209216330001808000000000016400000000000000000000000000000000000000000000000000000000000000000000000002120300000000004460000000000000   13012100000000000000000000000ANDRE CANELLA LOMBARDI NETTO                                        B3000215
10205539814000112041300648601        CLEAN AMBIENTAL          00306866            109003068664             I06130121000030686600306866            10012100000000387373418372508000000000016400000000000000000000000000000000000000000000000000000000000000000000000003857300000000000000000000000000   13012100000000000000000000000CONDOMINIO DO EDIFICIO SANTA M                                      CK000216
10205539814000112041300648601        CLEAN AMBIENTAL          00306876            109003068763             I06130121000030687600306876            12012100000000213750333449608000000000016400000000000000000000000000000000000000000000000000000000000000000000000002164600000000004350000000000000   13012100000000000000000000000PADARIA E CONFEITARIA GIGANTE                                       B2000217
10205539814000112041300648601        CLEAN AMBIENTAL          00306903            109003069035             I06130121000030690300306903            10012100000000472633413031208000000000016400000000000000000000000000000000000000000000000000000000000000000000000004809200000000009930000000000000   13012100000000000000000000000RESIDENCIAL FLORENCE LTDA                                           CK000218
10205539814000112041300648601        CLEAN AMBIENTAL          00306979            109003069795             I06130121000030697900306979            10012100000000082610333396908000000000016400000000000000000000000000000000000000000000000000000000000000329000000000826800000000005000000000000000   13012100000000000000000000000SARAIVA E PEIXOTO ESTETICA FAC                                      B3000219
10205539814000112041300648601        CLEAN AMBIENTAL          00306980            109003069803             I06130121000030698000306980            10012100000000261323418159608000000000016400000000000000000000000000000000000000000000000000000000000000000000000002651800000000005500000000000000   13012100000000000000000000000CLINICA DE MEDICINA NUCLEAR VI                                      CK000220
10205539814000112041300648601        CLEAN AMBIENTAL          00307175            109003071759             I06130121000030717500307175            15012100000000483161041327608000000000016400000000000000000000000000000000000000000000000000000000000000000000000004815200000000000000000000000000   13012100000000000000000000000CAFE E BAR PONTO ACADEMICO LTD                                      B5000221
10205539814000112041300648601        CLEAN AMBIENTAL          00307179            109003071791             I06130121000030717900307179            15012100000002620292371790508000000000016400000000000000000000000000000000000000000000000000000000000000000000000026186500000000000000000000000000   13012100000000000000000000000CORINTO HOTEL LTDA                                                  B3000222
10205539814000112041300648601        CLEAN AMBIENTAL          00307277            109003072773             I06130121000030727700307277            11012100000001360652373060108000000000016400000000000000000000000000000000000000000000000000000000000000000000000013590100000000000000000000000000   13012100000000000000000000000MLS 98 RESTAURANTE LTDA                                             B3000223
10205539814000112041300648601        CLEAN AMBIENTAL          00307285            109003072856             I06130121000030728500307285            11012100000001053842372490108000000000016400000000000000000000000000000000000000000000000000000000000000000000000010802400000000028040000000000000   13012100000000000000000000000PIZZARIA BOSQUE DE VARGEM PEQU                                      B3000224
10205539814000112041300648601        CLEAN AMBIENTAL          00307287            109003072872             I06130121000030728700307287            16012100000000246863410357408000000000016400000000000000000000000000000000000000000000000000000000000000000000000002452200000000000000000000000000   13012100000000000000000000000PANIFICADORA RAINHA DE FATIMA                                       AA000225
10205539814000112041300648601        CLEAN AMBIENTAL          00307296            109003072963             I06130121000030729600307296            11012100000000247431043105408000000000016400000000000000000000000000000000000000000000000000000000000000000000000002509000000000005110000000000000   13012100000000000000000000000CAFE E BAR LIDERANCA LTDA                                           B5000226
10205539814000112041300648601        CLEAN AMBIENTAL          00307388            109003073888             I06130121000030738800307388            11012100000000185426330001808000000000016400000000000000000000000000000000000000000000000000000000000000000000000001876100000000003830000000000000   13012100000000000000000000000LUCINDA DO CARMO VITORINO MIRA                                      B3000227
10205539814000112041300648601        CLEAN AMBIENTAL          00307396            109003073961             I06130121000030739600307396            10012100000000292373417641408000000000016400000000000000000000000000000000000000000000000000000000000000000000000002968800000000006150000000000000   13012100000000000000000000000CLAUDIO GOMES RIBEIRO                                               BL000228
10205539814000112041300648601        CLEAN AMBIENTAL          00307431            109003074316             I06130121000030743100307431            10012100000000339740330942308000000000016400000000000000000000000000000000000000000000000000000000000000000000000003452200000000007120000000000000   13012100000000000000000000000CONDOMINIO DO EDIFICIO IGOR ST                                      B5000229
10205539814000112041300648601        CLEAN AMBIENTAL          00307462            109003074621             I06130121000030746200307462            15012100000000292030332134508000000000016400000000000000000000000000000000000000000000000000000000000000001000000002903800000000000000000000000000   13012100000000000000000000000LUCINEIDE LIMA CARDOSO DE OLIV                                      B3000230
10205539814000112041300648601        CLEAN AMBIENTAL          00307472            109003074720             I06130121000030747200307472            11012100000000096582372507208000000000016400000000000000000000000000000000000000000000000000000000000000000000000000949400000000000000000000000000   13012100000000000000000000000AHHHH ODONTOLOGIA EIRELI                                            B3000231
10205539814000112041300648601        CLEAN AMBIENTAL          00307533            109003075339             I06130121000030753300307533            15012100000001083903410023208000000000016400000000000000000000000000000000000000000000000000000000000000000000000010822600000000000000000000000000   13012100000000000000000000000VIVA BEM CONSULTORIA EMPRESARI                                      CK000232
10205539814000112041300648601        CLEAN AMBIENTAL          00307541            109003075412             I06130121000030754100307541            13012100000000893253410269108000000000016400000000000000000000000000000000000000000000000000000000000000000000000008916100000000000000000000000000   13012100000000000000000000000CONDOMINIO DO EDIFICIO CENTRO                                       CK000233
10205539814000112041300648601        CLEAN AMBIENTAL          00307542            109003075420             I06130121000030754200307542            13012100000002337583418372508000000000016400000000000000000000000000000000000000000000000000000000000000000000000023359400000000000000000000000000   13012100000000000000000000000CONDOMINIO DO EDIFICIO REAL ME                                      CK000234
10205539814000112041300648601        CLEAN AMBIENTAL          00307544            109003075446             I06130121000030754400307544            13012100000000232110333380308000000000016400000000000000000000000000000000000000000000000000000000000000000000000002354700000000005000000000000000   13012100000000000000000000000CARLOS  KIYOSHI MOREIRA MASSUD                                      B3000235
10205539814000112041300648601        CLEAN AMBIENTAL          00307545            109003075453             I06130121000030754500307545            13012100000000895373410308708000000000016400000000000000000000000000000000000000000000000000000000000000000000000008937300000000000000000000000000   13012100000000000000000000000CENTRO DE COMERCIO JARDIM DE C                                      CK000236
10205539814000112041300648601        CLEAN AMBIENTAL          00307546            109003075461             I06130121000030754600307546            13012100000000640942372761508000000000016400000000000000000000000000000000000000000000000000000000000000000000000006393000000000000000000000000000   13012100000000000000000000000CONDOMINIO DO EDIFICIO COPACAB                                      B7000237
10205539814000112041300648601        CLEAN AMBIENTAL          00307565            109003075651             I06130121000030756500307565            17012100000000531061041326808000000000016400000000000000000000000000000000000000000000000000000000000000000000000005294200000000000000000000000000   13012100000000000000000000000CAFE E BAR BARAO DA TORRE LTDA                                      B1000238
10205539814000112041300648601        CLEAN AMBIENTAL          00307594            109003075941             I06130121000030759400307594            17012100000000248161042270708000000000016400000000000000000000000000000000000000000000000000000000000000000000000002465200000000000000000000000000   13012100000000000000000000000GIRAO MASTER BAR E RESTAURANTE                                      B5000239
10205539814000112041300648601        CLEAN AMBIENTAL          00307718            109003077186             I06130121000030771800307718            13012100000000291883411185808000000000016400000000000000000000000000000000000000000000000000000000000000000000000002902400000000000000000000000000   13012100000000000000000000000CONDOMINIO NOVA IPANEMA                                             CK000240
10205539814000112041300648601        CLEAN AMBIENTAL          00307719            109003077194             I06130121000030771900307719            13012100000000248522370446508000000000016400000000000000000000000000000000000000000000000000000000000000000000000002468800000000000000000000000000   13012100000000000000000000000ATEMA - ATENDIMENTO MED.ESTETI                                      B3000241
10205539814000112041300648601        CLEAN AMBIENTAL          00307723            109003077236             I06130121000030772300307723            13012100000000290522372538708000000000016400000000000000000000000000000000000000000000000000000000000000000000000002888800000000000000000000000000   13012100000000000000000000000PRO-MED MEDICINA DIAGNOSTICA L                                      B3000242
10205539814000112041300648601        CLEAN AMBIENTAL          00307725            109003077251             I06130121000030772500307725            13012100000001033050012299608000000000016400000000000000000000000000000000000000000000000000000000000000000000000010314100000000000000000000000000   13012100000000000000000000000PRESERV BENEFICIOS E ASSISTENC                                      B3000243
10205539814000112041300648601        CLEAN AMBIENTAL          00307727            109003077277             I06130121000030772700307727            13012100000000081173419285808000000000016400000000000000000000000000000000000000000000000000000000000000000000000000795300000000000000000000000000   13012100000000000000000000000JUANA PAULA MOURA DE OLIVEIRA                                       BL000244
10205539814000112041300648601        CLEAN AMBIENTAL          00307731            109003077319             I06130121000030773100307731            13012100000000082922370666808000000000016400000000000000000000000000000000000000000000000000000000000000000000000000812800000000000000000000000000   13012100000000000000000000000LION-A SOLUCOES COMERCIO DE MA                                      B3000245
10205539814000112041300648601        CLEAN AMBIENTAL          00307732            109003077327             I06130121000030773200307732            13012100000000047692372722708000000000016400000000000000000000000000000000000000000000000000000000000000000000000000460500000000000000000000000000   13012100000000000000000000000VIDA & CIA GERIATRIA LTDA                                           B3000246
10205539814000112041300648601        CLEAN AMBIENTAL          00307733            109003077335             I06130121000030773300307733            13012100000000099776330001808000000000016400000000000000000000000000000000000000000000000000000000000000000000000000981300000000000000000000000000   13012100000000000000000000000SIMONE GRANTHON NUNES                                               B3000247
10205539814000112041300648601        CLEAN AMBIENTAL          00307736            109003077368             I06130121000030773600307736            13012100000000163942371453008000000000016400000000000000000000000000000000000000000000000000000000000000000000000001623000000000000000000000000000   13012100000000000000000000000PRIMODONTO CLINICA ODONTOLOGIC                                      B3000248
