02RETORNO01COBRANCA       041300648601        CLEAN AMB SERV COL TRANSP LTDA341BANCO ITAU S.A.14012101600BPI02584140121                                                                                                                                                                                                                                                                                   000001
10205539814000112041300648601        CLEAN AMBIENTAL          00263179            109002631793             I04130121000026317900263179            14012100000000452633412897708000000000000000000000000000000000000000000000000000000000000000000000000000000000000000000000000000000000000000000000         00000000000000000000000LANCHONETE PAPILLON LTDA - ME                                         000002
10205539814000112041300648601        CLEAN AMBIENTAL          00269294            109002692944             I04130121000026929400269294            14012100000000333473412897708000000000000000000000000000000000000000000000000000000000000000000000000000000000000000000000000000000000000000000000         00000000000000000000000LANCHONETE PAPILLON LTDA - ME                                         000003
10205539814000112041300648601        CLEAN AMBIENTAL          00287076            109002870763             I04130121000028707600287076            14012100000000240363412897708000000000000000000000000000000000000000000000000000000000000000000000000000000000000000000000000000000000000000000000         00000000000000000000000SSG COMERCIO DE ALIMENTOS LTDA                                        000004
10205539814000112041300648601        CLEAN AMBIENTAL          00290841            109002908415             I04130121000029084100290841            06112000000000064603412897708000000000000000000000000000000000000000000000000000000000000000000000000000000000000000000000000000000000000000000000         00000000000000000000000CRISTIANE DINIZ DOS SANTOS PIN                                        000005
10205539814000112041300648601        CLEAN AMBIENTAL          00302680            109003026803             I04130121000030268000302680            20012100000002446673412897708000000000000000000000000000000000000000000000000000000000000000000000000000000000000000000000000000000000000000000000         00000000000000000000000HOSPITAL RIO BOTAFOGO EIRELI (                                        000006
10205539814000112041300648601        CLEAN AMBIENTAL          00302714            109003027140             I04130121000030271400302714            28012100000000575093412897708000000000000000000000000000000000000000000000000000000000000000000000000000000000000000000000000000000000000000000000         00000000000000000000000LOCALIZA RENT A CAR SA                                                000007
10205539814000112041300648601        CLEAN AMBIENTAL          00303484            109003034849             I04130121000030348400303484            13012100000000361543412897708000000000000000000000000000000000000000000000000000000000000000000000000000000000000000000000000000000000000000000000         00000000000000000000000SPE JARDIM BOTANICO 211 - EMPR                                        000008
10205539814000112041300648601        CLEAN AMBIENTAL          00303821            109003038212             I04130121000030382100303821            21012100000001248133412897708000000000000000000000000000000000000000000000000000000000000000000000000000000000000000000000000000000000000000000000         00000000000000000000000CIDADE MARAVILHOSA INDUSTRIA E                                        000009
10205539814000112041300648601        CLEAN AMBIENTAL          00303822            109003038220             I04130121000030382200303822            21012100000000788423412897708000000000000000000000000000000000000000000000000000000000000000000000000000000000000000000000000000000000000000000000         00000000000000000000000CIDADE MARAVILHOS INDUSTRIA E                                         000010
10205539814000112041300648601        CLEAN AMBIENTAL          00303829            109003038295             I04130121000030382900303829            21012100000003969553412897708000000000000000000000000000000000000000000000000000000000000000000000000000000000000000000000000000000000000000000000         00000000000000000000000RBX RIO COMERCIO DE ROUPAS S.A                                        000011
10205539814000112041300648601        CLEAN AMBIENTAL          00303978            109003039780             I04130121000030397800303978            14012100000000078053412897708000000000000000000000000000000000000000000000000000000000000000000000000000000000000000000000000000000000000000000000         00000000000000000000000BOLOGNANI CENTRO DE SAUDE E ES                                        000012
10205539814000112041300648601        CLEAN AMBIENTAL          00304213            109003042131             I04130121000030421300304213            14012100000000356883412897708000000000000000000000000000000000000000000000000000000000000000000000000000000000000000000000000000000000000000000000         00000000000000000000000RBX RIO COMERCIO DE ROUPAS S.A                                        000013
10205539814000112041300648601        CLEAN AMBIENTAL          00304937            109003049375             I04130121000030493700304937            14012100000000224263412897708000000000000000000000000000000000000000000000000000000000000000000000000000000000000000000000000000000000000000000000         00000000000000000000000ANE HELENA CATARINA OLIVEIRA D                                        000014
10205539814000112041300648601        CLEAN AMBIENTAL          00305128            109003051280             I04130121000030512800305128            23012100000001300223412897708000000000000000000000000000000000000000000000000000000000000000000000000000000000000000000000000000000000000000000000         00000000000000000000000CONDOMINIO DO ED. CENTRO EMP.                                         000015
10205539814000112041300648601        CLEAN AMBIENTAL          00305354            109003053542             I04130121000030535400305354            15012100000001042823412897708000000000000000000000000000000000000000000000000000000000000000000000000000000000000000000000000000000000000000000000         00000000000000000000000JMNE RESTAURANTE LTDA EPP                                             000016
10205539814000112041300648601        CLEAN AMBIENTAL          00305518            109003055182             I04130121000030551800305518            13012100000000372183412897708000000000000000000000000000000000000000000000000000000000000000000000000000000000000000000000000000000000000000000000         00000000000000000000000HLS BAR E LANCHONETE LTDA                                             000017
10205539814000112041300648601        CLEAN AMBIENTAL          00305563            109003055638             I04130121000030556300305563            14012100000000405483412897708000000000000000000000000000000000000000000000000000000000000000000000000000000000000000000000000000000000000000000000         00000000000000000000000PARAISO DO FLAMENGO BAR LTDA -                                        000018
10205539814000112041300648601        CLEAN AMBIENTAL          00305566            109003055661             I04130121000030556600305566            13012100000000378673412897708000000000000000000000000000000000000000000000000000000000000000000000000000000000000000000000000000000000000000000000         00000000000000000000000CAFE E BAR VITORIA JC 2009 LTD                                        000019
10205539814000112041300648601        CLEAN AMBIENTAL          00305605            109003056057             I04130121000030560500305605            14012100000000451083412897708000000000000000000000000000000000000000000000000000000000000000000000000000000000000000000000000000000000000000000000         00000000000000000000000BANCO BRADESCO S.A.                                                   000020
10205539814000112041300648601        CLEAN AMBIENTAL          00306126            109003061263             I04130121000030612600306126            13012100000000107373412897708000000000000000000000000000000000000000000000000000000000000000000000000000000000000000000000000000000000000000000000         00000000000000000000000OLD HUNTERS BARBEARIA LTDA - M                                        000021
10205539814000112041300648601        CLEAN AMBIENTAL          00306137            109003061370             I04130121000030613700306137            14012100000000391013412897708000000000000000000000000000000000000000000000000000000000000000000000000000000000000000000000000000000000000000000000         00000000000000000000000LANCHONETE RIO MALANGE LTDA                                           000022
10205539814000112041300648601        CLEAN AMBIENTAL          00306227            109003062279             I04130121000030622700306227            15012100000000992083412897708000000000000000000000000000000000000000000000000000000000000000000000000000000000000000000000000000000000000000000000         00000000000000000000000CONDOMINIO DO EDIFICIO DOM LEO                                        000023
10205539814000112041300648601        CLEAN AMBIENTAL          00306240            109003062402             I04130121000030624000306240            14012100000000384213412897708000000000000000000000000000000000000000000000000000000000000000000000000000000000000000000000000000000000000000000000         00000000000000000000000RESTAURANTE E LANCHONETE COMER                                        000024
10205539814000112041300648601        CLEAN AMBIENTAL          00306303            109003063038             I04130121000030630300306303            14012100000000565153412897708000000000000000000000000000000000000000000000000000000000000000000000000000000000000000000000000000000000000000000000         00000000000000000000000PASTELARIA BOTAFOGO - ME                                              000025
10205539814000112041300648601        CLEAN AMBIENTAL          00306390            109003063905             I04130121000030639000306390            13012100000000170263410229508000000000000000000000000000000000000000000000000000000000000000000000000000000000000000000000000000000000000000000000         00000000000000000000000SORRISO SA CLIINICA ODONTOLOGI                                        000026
10205539814000112041300648601        CLEAN AMBIENTAL          00306451            109003064515             I04130121000030645100306451            14012100000001395353412897708000000000000000000000000000000000000000000000000000000000000000000000000000000000000000000000000000000000000000000000         00000000000000000000000CONDOMINIO DO EDIFICIO NATAN                                          000027
10205539814000112041300648601        CLEAN AMBIENTAL          00306637            109003066379             I04130121000030663700306637            18012100000000463803412897708000000000000000000000000000000000000000000000000000000000000000000000000000000000000000000000000000000000000000000000         00000000000000000000000SANTA HELENA HORTIFRUTI EIRELI                                        000028
10205539814000112041300648601        CLEAN AMBIENTAL          00306719            109003067195             I04130121000030671900306719            14012100000000353693412897708000000000000000000000000000000000000000000000000000000000000000000000000000000000000000000000000000000000000000000000         00000000000000000000000MERCADO DE CARNES IRMAOS DA VI                                        000029
10205539814000112041300648601        CLEAN AMBIENTAL          00306741            109003067419             I04130121000030674100306741            15012100000000567443412897708000000000000000000000000000000000000000000000000000000000000000000000000000000000000000000000000000000000000000000000         00000000000000000000000ASSOCIACAO DE OFICIAIS MILITAR                                        000030
10205539814000112041300648601        CLEAN AMBIENTAL          00306744            109003067443             I04130121000030674400306744            14012100000000562053412897708000000000000000000000000000000000000000000000000000000000000000000000000000000000000000000000000000000000000000000000         00000000000000000000000ALIMENTO HORTIFRUTI COMERCIO L                                        000031
10205539814000112041300648601        CLEAN AMBIENTAL          00306819            109003068193             I04130121000030681900306819            14012100000002227313412897708000000000000000000000000000000000000000000000000000000000000000000000000000000000000000000000000000000000000000000000         00000000000000000000000CENTRO DE REUMATOLOGIA E ORTOP                                        000032
10205539814000112041300648601        CLEAN AMBIENTAL          00306822            109003068227             I04130121000030682200306822            14012100000000428773412897708000000000000000000000000000000000000000000000000000000000000000000000000000000000000000000000000000000000000000000000         00000000000000000000000BANCO BRADESCO S/A                                                    000033
10205539814000112041300648601        CLEAN AMBIENTAL          00306823            109003068235             I04130121000030682300306823            14012100000001501133412897708000000000000000000000000000000000000000000000000000000000000000000000000000000000000000000000000000000000000000000000         00000000000000000000000POSTO DE GASOLINA PEQUENA CRUZ                                        000034
10205539814000112041300648601        CLEAN AMBIENTAL          00306889            109003068896             I04130121000030688900306889            14012100000000515793412897708000000000000000000000000000000000000000000000000000000000000000000000000000000000000000000000000000000000000000000000         00000000000000000000000MULTILIXO REMOCOES DE LIXO SOC                                        000035
10205539814000112041300648601        CLEAN AMBIENTAL          00306905            109003069050             I04130121000030690500306905            14012100000001309473411282308000000000000000000000000000000000000000000000000000000000000000000000000000000000000000000000000000000000000000000000         00000000000000000000000SUPERMERCADO RIO SUL DO CENTEN                                        000036
10205539814000112041300648601        CLEAN AMBIENTAL          00306933            109003069332             I04130121000030693300306933            13012100000000080723412897708000000000000000000000000000000000000000000000000000000000000000000000000000000000000000000000000000000000000000000000         00000000000000000000000EVOLUCAO - CLINICA & CONSULTOR                                        000037
10205539814000112041300648601        CLEAN AMBIENTAL          00306934            109003069340             I04130121000030693400306934            14012100000001221443412897708000000000000000000000000000000000000000000000000000000000000000000000000000000000000000000000000000000000000000000000         00000000000000000000000SOCIEDADE UNIAO INTERNACIONAL                                         000038
10205539814000112041300648601        CLEAN AMBIENTAL          00306948            109003069480             I04130121000030694800306948            13012100000000084353412897708000000000000000000000000000000000000000000000000000000000000000000000000000000000000000000000000000000000000000000000         00000000000000000000000ROBERTA CARNEIRO PIRES RODRIGU                                        000039
10205539814000112041300648601        CLEAN AMBIENTAL          00306958            109003069589             I04130121000030695800306958            14012100000000084283412897708000000000000000000000000000000000000000000000000000000000000000000000000000000000000000000000000000000000000000000000         00000000000000000000000FABIO DA SILVA ALBINO 08413623                                        000040
10205539814000112041300648601        CLEAN AMBIENTAL          00306983            109003069837             I04130121000030698300306983            14012100000000393683412897708000000000000000000000000000000000000000000000000000000000000000000000000000000000000000000000000000000000000000000000         00000000000000000000000AVELINO VEIT                                                          000041
10205539814000112041300648601        CLEAN AMBIENTAL          00307019            109003070199             I02140121000030701900307019            30012100000000341203412897708000000000000000000000000000000000000000000000000000000000000000000000000000000000000000000000000000000110000000000000         00000000000000000000000CONFEITARIA E LANCHONETE BELLA                                        000042
10205539814000112041300648601        CLEAN AMBIENTAL          00307115            109003071155             I04130121000030711500307115            18012100000001426633412897708000000000000000000000000000000000000000000000000000000000000000000000000000000000000000000000000000000000000000000000         00000000000000000000000MULTI-FRUTI SANTA CLARA LTDA-M                                        000043
10205539814000112041300648601        CLEAN AMBIENTAL          00307207            109003072070             I04130121000030720700307207            22012100000009563323412897708000000000000000000000000000000000000000000000000000000000000000000000000000000000000000000000000000000000000000000000         00000000000000000000000HOSPITAL DR. BALBINO LTDA.                                            000044
10205539814000112041300648601        CLEAN AMBIENTAL          00307227            109003072278             I04130121000030722700307227            14012100000001146583412897708000000000000000000000000000000000000000000000000000000000000000000000000000000000000000000000000000000000000000000000         00000000000000000000000BAR E RESTAURANTE OPERA DA LAP                                        000045
10205539814000112041300648601        CLEAN AMBIENTAL          00307228            109003072286             I04130121000030722800307228            14012100000001125383412897708000000000000000000000000000000000000000000000000000000000000000000000000000000000000000000000000000000000000000000000         00000000000000000000000BAR E RESTAURANTE LAPA GALANTE                                        000046
10205539814000112041300648601        CLEAN AMBIENTAL          00307230            109003072302             I04130121000030723000307230            14012100000000800263412897708000000000000000000000000000000000000000000000000000000000000000000000000000000000000000000000000000000000000000000000         00000000000000000000000SINFONIA DA LAPA BAR E RESTAUR                                        000047
10205539814000112041300648601        CLEAN AMBIENTAL          00307268            109003072682             I04130121000030726800307268            14012100000000371673412897708000000000000000000000000000000000000000000000000000000000000000000000000000000000000000000000000000000000000000000000         00000000000000000000000CAFE E BAR NOVO CONTINENTAL LT                                        000048
10205539814000112041300648601        CLEAN AMBIENTAL          00307337            109003073375             I04130121000030733700307337            13012100000001543393412897708000000000000000000000000000000000000000000000000000000000000000000000000000000000000000000000000000000000000000000000         00000000000000000000000CALCADA DE BOTAFOGO BAR E REST                                        000049
10205539814000112041300648601        CLEAN AMBIENTAL          00307338            109003073383             I04130121000030733800307338            13012100000001145353412897708000000000000000000000000000000000000000000000000000000000000000000000000000000000000000000000000000000000000000000000         00000000000000000000000MONTES DE BOTAFOGO RESTAURANTE                                        000050
10205539814000112041300648601        CLEAN AMBIENTAL          00307385            109003073854             I04130121000030738500307385            20012100000002593623412897708000000000000000000000000000000000000000000000000000000000000000000000000000000000000000000000000000000000000000000000         00000000000000000000000HOSPITAL RIO BOTAFOGO EIRELI (                                        000051
10205539814000112041300648601        CLEAN AMBIENTAL          00307386            109003073862             I04130121000030738600307386            20012100000001447433412897708000000000000000000000000000000000000000000000000000000000000000000000000000000000000000000000000000000000000000000000         00000000000000000000000HOSPITAL RIO LARANJEIRAS LTDA                                         000052
10205539814000112041300648601        CLEAN AMBIENTAL          00307387            109003073870             I04130121000030738700307387            20012100000004819873412897708000000000000000000000000000000000000000000000000000000000000000000000000000000000000000000000000000000000000000000000         00000000000000000000000HOSPITAL RIO LARANJEIRAS LTDA                                         000053
10205539814000112041300648601        CLEAN AMBIENTAL          00307415            109003074159             I04130121000030741500307415            22012100000014291203412897708000000000000000000000000000000000000000000000000000000000000000000000000000000000000000000000000000000000000000000000         00000000000000000000000HOSPITAL DR. BALBINO LTDA                                             000054
10205539814000112041300648601        CLEAN AMBIENTAL          00307427            109003074274             I04130121000030742700307427            20012100000001338953412897708000000000000000000000000000000000000000000000000000000000000000000000000000000000000000000000000000000000000000000000         00000000000000000000000HOSPITAL RIO LARANJEIRAS LTDA                                         000055
10205539814000112041300648601        CLEAN AMBIENTAL          00307997            109003079976             I04130121000030799700307997            20012100000000404113412897708000000000000000000000000000000000000000000000000000000000000000000000000000000000000000000000000000000000000000000000         00000000000000000000000HOSPITAL RIO BOTAFOGO EIRELI (                                        000056
10205539814000112041300648601        CLEAN AMBIENTAL          00308038            109003080388             I04130121000030803800308038            15012100000000057473412897708000000000000000000000000000000000000000000000000000000000000000000000000000000000000000000000000000000000000000000000         00000000000000000000000URGENCIAS MEDICAS ITANHANGA SA                                        000057
10205539814000112041300648601        CLEAN AMBIENTAL          00308782            109003087821             I04130121000030878200308782            21012100000000348943412897708000000000000000000000000000000000000000000000000000000000000000000000000000000000000000000000000000000000000000000000         00000000000000000000000DI NAPOLI D ORO PIZZARIA LTDA                                         000058
10205539814000112041300648601        CLEAN AMBIENTAL          00308871            109003088712             I04130121000030887100308871            20012100000000860343412897708000000000000000000000000000000000000000000000000000000000000005000000000000000000000000000000000000000000000000000000         00000000000000000000000CONDOMINIO DO EDIFICIO LEBLON                                         000059
10205539814000112041300648601        CLEAN AMBIENTAL          00309492            109003094926             I02140121000030949200309492            24012100000000565313412897708000000000000000000000000000000000000000000000000000000000000000000000000000000000000000000000000000000190000000000000         00000000000000000000000YASHAR FOODS COMERCIO DE ALIME                                        000060
10205539814000112041300648601        CLEAN AMBIENTAL          00309497            109003094975             I02140121000030949700309497            24012100000000074913412897708000000000000000000000000000000000000000000000000000000000000000000000000000000000000000000000000000000020000000000000         00000000000000000000000CONCEICAO DE SANTANA MONTEIRO                                         000061
10205539814000112041300648601        CLEAN AMBIENTAL          00309498            109003094983             I02140121000030949800309498            24012100000000114633412897708000000000000000000000000000000000000000000000000000000000000000000000000000000000000000000000000000000040000000000000         00000000000000000000000ANE HELENA CATARINA OLIVEIRA D                                        000062
10205539814000112041300648601        CLEAN AMBIENTAL          00309499            109003094991             I02140121000030949900309499            24012100000000117633416849408000000000000000000000000000000000000000000000000000000000000000000000000000000000000000000000000000000040000000000000         00000000000000000000000ESTETICA NOVA CRIO EIRELI                                             000063
10205539814000112041300648601        CLEAN AMBIENTAL          00309500            109003095006             I02140121000030950000309500            24012100000000482893412897708000000000000000000000000000000000000000000000000000000000000000000000000000000000000000000000000000000160000000000000         00000000000000000000000EMPORIO SANTA FE RESTAURANTE L                                        000064
10205539814000112041300648601        CLEAN AMBIENTAL          00309501            109003095014             I02140121000030950100309501            24012100000000885183412897708000000000000000000000000000000000000000000000000000000000000000000000000000000000000000000000000000000290000000000000         00000000000000000000000CASUARINA ALIMENTACAO LTDA                                            000065
10205539814000112041300648601        CLEAN AMBIENTAL          00309502            109003095022             I02140121000030950200309502            24012100000000503823412897708000000000000000000000000000000000000000000000000000000000000000000000000000000000000000000000000000000170000000000000         00000000000000000000000CLINICA RIO S/C LTDA                                                  000066
10205539814000112041300648601        CLEAN AMBIENTAL          00309503            109003095030             I02140121000030950300309503            24012100000000554743412897708000000000000000000000000000000000000000000000000000000000000000000000000000000000000000000000000000000180000000000000         00000000000000000000000MERCADO MINEIRAO DE OLARIA LTD                                        000067
10205539814000112041300648601        CLEAN AMBIENTAL          00309504            109003095048             I02140121000030950400309504            24012100000000851453412897708000000000000000000000000000000000000000000000000000000000000000000000000000000000000000000000000000000280000000000000         00000000000000000000000CENTRO GERIATRICO FERNANDES E                                         000068
10205539814000112041300648601        CLEAN AMBIENTAL          00309505            109003095055             I02140121000030950500309505            24012100000001260353412897708000000000000000000000000000000000000000000000000000000000000000000000000000000000000000000000000000004160000000000000         00000000000000000000000LUQUEL COMERCIO DE ALIMENTOS E                                        000069
10205539814000112041300648601        CLEAN AMBIENTAL          00309506            109003095063             I02140121000030950600309506            24012100000001436843412897708000000000000000000000000000000000000000000000000000000000000000000000000000000000000000000000000000004740000000000000         00000000000000000000000CONSORCIO LAGOON                                                      000070
10205539814000112041300648601        CLEAN AMBIENTAL          00309507            109003095071             I02140121000030950700309507            29012100000000678913412897708000000000000000000000000000000000000000000000000000000000000000000000000000000000000000000000000000000220000000000000         00000000000000000000000LANCHONETE NIMUSA LTDA - ME                                           000071
10205539814000112041300648601        CLEAN AMBIENTAL          00309508            109003095089             I02140121000030950800309508            29012100000000335583412897708000000000000000000000000000000000000000000000000000000000000000000000000000000000000000000000000000000110000000000000         00000000000000000000000NOVA GERACAO COMESTIVEIS S.A                                          000072
10205539814000112041300648601        CLEAN AMBIENTAL          00309509            109003095097             I02140121000030950900309509            24012100000000529203412897708000000000000000000000000000000000000000000000000000000000000000000000000000000000000000000000000000000170000000000000         00000000000000000000000HORTIFRUTI COPAFRUTI LTDA - EP                                        000073
10205539814000112041300648601        CLEAN AMBIENTAL          00309510            109003095105             I02140121000030951000309510            29012100000001160913411282308000000000000000000000000000000000000000000000000000000000000000000000000000000000000000000000000000003830000000000000         00000000000000000000000CONDOMINIO ROSSI MULTI BUSINES                                        000074
10205539814000112041300648601        CLEAN AMBIENTAL          00309511            109003095113             I02140121000030951100309511            05022100000002253153412897708000000000000000000000000000000000000000000000000000000000000000000000000000000000000000000000000000007440000000000000         00000000000000000000000CONFEITARIA COLOMBO LTDA                                              000075
10205539814000112041300648601        CLEAN AMBIENTAL          00309512            109003095121             I02140121000030951200309512            24012100000000218843412897708000000000000000000000000000000000000000000000000000000000000000000000000000000000000000000000000000000070000000000000         00000000000000000000000FERNATO LANCHONETE LTDA - ME                                          000076
10205539814000112041300648601        CLEAN AMBIENTAL          00309513            109003095139             I02140121000030951300309513            24012100000000132023412897708000000000000000000000000000000000000000000000000000000000000000000000000000000000000000000000000000000040000000000000         00000000000000000000000MEGA GRILL RESTAURANTE LTDA -                                         000077
10205539814000112041300648601        CLEAN AMBIENTAL          00309514            109003095147             I02140121000030951400309514            29012100000000676873412897708000000000000000000000000000000000000000000000000000000000000000000000000000000000000000000000000000000220000000000000         00000000000000000000000CONDOMINIO DO EDIFICIO OTAVIAN                                        000078
10205539814000112041300648601        CLEAN AMBIENTAL          00309515            109003095154             I02140121000030951500309515            24012100000000805033412897708000000000000000000000000000000000000000000000000000000000000000000000000000000000000000000000000000000270000000000000         00000000000000000000000CONDOMINIO DO EDIFICIO MERCURI                                        000079
10205539814000112041300648601        CLEAN AMBIENTAL          00309516            109003095162             I02140121000030951600309516            24012100000000233833412897708000000000000000000000000000000000000000000000000000000000000000000000000000000000000000000000000000000080000000000000         00000000000000000000000GE BISTRO LTDA - ME                                                   000080
10205539814000112041300648601        CLEAN AMBIENTAL          00309517            109003095170             I02140121000030951700309517            29012100000000386753412897708000000000000000000000000000000000000000000000000000000000000000000000000000000000000000000000000000000130000000000000         00000000000000000000000MERCADO CARIOCA DO CAJU LTDA                                          000081
10205539814000112041300648601        CLEAN AMBIENTAL          00309518            109003095188             I02140121000030951800309518            24012100000000564053412897708000000000000000000000000000000000000000000000000000000000000000000000000000000000000000000000000000000190000000000000         00000000000000000000000BARONESA PESCADOS LTDA - ME                                           000082
10205539814000112041300648601        CLEAN AMBIENTAL          00309519            109003095196             I02140121000030951900309519            29012100000005164163412897708000000000000000000000000000000000000000000000000000000000000000000000000000000000000000000000000000017040000000000000         00000000000000000000000CONDOMINIO DO EDIFICIO CONDADO                                        000083
10205539814000112041300648601        CLEAN AMBIENTAL          00309520            109003095204             I02140121000030952000309520            28012100000001475003412897708000000000000000000000000000000000000000000000000000000000000000000000000000000000000000000000000000004870000000000000         00000000000000000000000BARILOCHE MOTEL LTDA                                                  000084
10205539814000112041300648601        CLEAN AMBIENTAL          00309521            109003095212             I02140121000030952100309521            24012100000000393263412897708000000000000000000000000000000000000000000000000000000000000000000000000000000000000000000000000000000130000000000000         00000000000000000000000RIST COMERCIO DE ALIMENTOS LTD                                        000085
10205539814000112041300648601        CLEAN AMBIENTAL          00309522            109003095220             I02140121000030952200309522            30012100000000333083412897708000000000000000000000000000000000000000000000000000000000000000000000000000000000000000000000000000000110000000000000         00000000000000000000000CAFE E LEITERIA ESMERALDA LTDA                                        000086
10205539814000112041300648601        CLEAN AMBIENTAL          00309523            109003095238             I02140121000030952300309523            24012100000000288923412897708000000000000000000000000000000000000000000000000000000000000000000000000000000000000000000000000000000100000000000000         00000000000000000000000GUILHERME SOEHNCHEN FERRAMENTA                                        000087
10205539814000112041300648601        CLEAN AMBIENTAL          00309524            109003095246             I02140121000030952400309524            24012100000000311583412897708000000000000000000000000000000000000000000000000000000000000000000000000000000000000000000000000000000100000000000000         00000000000000000000000CONDOMINIO DO EDIFICIO CENTRO                                         000088
10205539814000112041300648601        CLEAN AMBIENTAL          00309525            109003095253             I02140121000030952500309525            24012100000000567533412897708000000000000000000000000000000000000000000000000000000000000000000000000000000000000000000000000000000190000000000000         00000000000000000000000CONDOMINIO DO EDIFICIO CELESTE                                        000089
10205539814000112041300648601        CLEAN AMBIENTAL          00309526            109003095261             I02140121000030952600309526            01022100000000330023412897708000000000000000000000000000000000000000000000000000000000000000000000000000000000000000000000000000000110000000000000         00000000000000000000000CONDOMINIO DO EDIFICIO SANTOS                                         000090
10205539814000112041300648601        CLEAN AMBIENTAL          00309527            109003095279             I02140121000030952700309527            29012100000000691313412897708000000000000000000000000000000000000000000000000000000000000000000000000000000000000000000000000000000230000000000000         00000000000000000000000CONDOMINIO EDIFICIO 19 DE ABRI                                        000091
10205539814000112041300648601        CLEAN AMBIENTAL          00309528            109003095287             I02140121000030952800309528            24012100000002478743412897708000000000000000000000000000000000000000000000000000000000000000000000000000000000000000000000000000008180000000000000         00000000000000000000000CONDOMINIO DO EDIFICIO BOKEL                                          000092
10205539814000112041300648601        CLEAN AMBIENTAL          00309529            109003095295             I02140121000030952900309529            24012100000001885213412897708000000000000000000000000000000000000000000000000000000000000000000000000000000000000000000000000000006220000000000000         00000000000000000000000RESTAURANTE PRINCESA 2010 LTDA                                        000093
10205539814000112041300648601        CLEAN AMBIENTAL          00309530            109003095303             I02140121000030953000309530            24012100000000450323412897708000000000000000000000000000000000000000000000000000000000000000000000000000000000000000000000000000000150000000000000         00000000000000000000000CONDOMINIO DO EDIFICIO VITAL B                                        000094
10205539814000112041300648601        CLEAN AMBIENTAL          00309531            109003095311             I02140121000030953100309531            24012100000000948333412897708000000000000000000000000000000000000000000000000000000000000000000000000000000000000000000000000000000310000000000000         00000000000000000000000DUFRY LOJAS FRANCAS LTDA.                                             000095
10205539814000112041300648601        CLEAN AMBIENTAL          00309532            109003095329             I02140121000030953200309532            29012100000000661263412897708000000000000000000000000000000000000000000000000000000000000000000000000000000000000000000000000000000220000000000000         00000000000000000000000CONDOMINIO DO EDIFICIO GOLDEN                                         000096
10205539814000112041300648601        CLEAN AMBIENTAL          00309533            109003095337             I02140121000030953300309533            24012100000000374743412897708000000000000000000000000000000000000000000000000000000000000000000000000000000000000000000000000000000120000000000000         00000000000000000000000ULIMARC COMERCIO DE ALIMENTOS                                         000097
10205539814000112041300648601        CLEAN AMBIENTAL          00309534            109003095345             I02140121000030953400309534            24012100000000434743412897708000000000000000000000000000000000000000000000000000000000000000000000000000000000000000000000000000000140000000000000         00000000000000000000000R&M2 COMERCIO DE ALIMENTOS EIR                                        000098
10205539814000112041300648601        CLEAN AMBIENTAL          00309535            109003095352             I02140121000030953500309535            24012100000000380423412897708000000000000000000000000000000000000000000000000000000000000000000000000000000000000000000000000000000130000000000000         00000000000000000000000SUBFOUR LANCHONETE EIRELI - EP                                        000099
10205539814000112041300648601        CLEAN AMBIENTAL          00309536            109003095360             I02140121000030953600309536            24012100000000659123412897708000000000000000000000000000000000000000000000000000000000000000000000000000000000000000000000000000000220000000000000         00000000000000000000000MINI MERCADO MOTTA ZUIN                                               000100
10205539814000112041300648601        CLEAN AMBIENTAL          00309537            109003095378             I02140121000030953700309537            30012100000002728253412897708000000000000000000000000000000000000000000000000000000000000000000000000000000000000000000000000000009000000000000000         00000000000000000000000COLEGIO ELEVA EDUCACAO LTDA                                           000101
10205539814000112041300648601        CLEAN AMBIENTAL          00309538            109003095386             I02140121000030953800309538            24012100000000638913412897708000000000000000000000000000000000000000000000000000000000000000000000000000000000000000000000000000000210000000000000         00000000000000000000000MINIMERCADO SALMAO EIRELI - ME                                        000102
10205539814000112041300648601        CLEAN AMBIENTAL          00309539            109003095394             I02140121000030953900309539            24012100000000273463412897708000000000000000000000000000000000000000000000000000000000000000000000000000000000000000000000000000000090000000000000         00000000000000000000000LENE E GONDIM RESTAURANTE LTDA                                        000103
10205539814000112041300648601        CLEAN AMBIENTAL          00309540            109003095402             I02140121000030954000309540            24012100000000328773412897708000000000000000000000000000000000000000000000000000000000000000000000000000000000000000000000000000000110000000000000         00000000000000000000000G2G COMERCIO VAREJISTA DE BEBI                                        000104
10205539814000112041300648601        CLEAN AMBIENTAL          00309541            109003095410             I02140121000030954100309541            24012100000000906023412897708000000000000000000000000000000000000000000000000000000000000000000000000000000000000000000000000000000300000000000000         00000000000000000000000IEMV INSTITUTO DE ESPECIALIDAD                                        000105
10205539814000112041300648601        CLEAN AMBIENTAL          00309542            109003095428             I02140121000030954200309542            24012100000000458243412897708000000000000000000000000000000000000000000000000000000000000000000000000000000000000000000000000000000150000000000000         00000000000000000000000HOTEL CRUZ DE OURO LTDA                                               000106
10205539814000112041300648601        CLEAN AMBIENTAL          00309543            109003095436             I02140121000030954300309543            24012100000000421213412897708000000000000000000000000000000000000000000000000000000000000000000000000000000000000000000000000000000140000000000000         00000000000000000000000HOSPEDARIA SANTANA LTDA                                               000107
10205539814000112041300648601        CLEAN AMBIENTAL          00309544            109003095444             I02140121000030954400309544            24012100000000454773412897708000000000000000000000000000000000000000000000000000000000000000000000000000000000000000000000000000000150000000000000         00000000000000000000000BANCO BRADESCO S/A                                                    000108
10205539814000112041300648601        CLEAN AMBIENTAL          00309545            109003095451             I02140121000030954500309545            24012100000000463953412897708000000000000000000000000000000000000000000000000000000000000000000000000000000000000000000000000000000150000000000000         00000000000000000000000RESTAURANTE B&C LTDA                                                  000109
10205539814000112041300648601        CLEAN AMBIENTAL          00309546            109003095469             I02140121000030954600309546            24012100000000572453412897708000000000000000000000000000000000000000000000000000000000000000000000000000000000000000000000000000000190000000000000         00000000000000000000000CONSTRUTORA INTERNACIONAL LIMI                                        000110
10205539814000112041300648601        CLEAN AMBIENTAL          00309547            109003095477             I02140121000030954700309547            24012100000000263273412897708000000000000000000000000000000000000000000000000000000000000000000000000000000000000000000000000000000090000000000000         00000000000000000000000PIZZA E GRILL LAPA RESTAURANTE                                        000111
10205539814000112041300648601        CLEAN AMBIENTAL          00309548            109003095485             I02140121000030954800309548            24012100000001919193412897708000000000000000000000000000000000000000000000000000000000000000000000000000000000000000000000000000006330000000000000         00000000000000000000000MERCEARIA GAROTA PRINCIPAL DE                                         000112
10205539814000112041300648601        CLEAN AMBIENTAL          00309549            109003095493             I02140121000030954900309549            24012100000000882733412897708000000000000000000000000000000000000000000000000000000000000000000000000000000000000000000000000000000290000000000000         00000000000000000000000TUCSON CAMISARIA LTDA                                                 000113
10205539814000112041300648601        CLEAN AMBIENTAL          00309550            109003095501             I02140121000030955000309550            24012100000000331323412897708000000000000000000000000000000000000000000000000000000000000000000000000000000000000000000000000000000110000000000000         00000000000000000000000CASA CARIOCA VIDRO E ESPELHOS                                         000114
10205539814000112041300648601        CLEAN AMBIENTAL          00309551            109003095519             I02140121000030955100309551            24012100000000397183412897708000000000000000000000000000000000000000000000000000000000000000000000000000000000000000000000000000000130000000000000         00000000000000000000000CENTRO DE EDUCACAO UERIRI LTDA                                        000115
10205539814000112041300648601        CLEAN AMBIENTAL          00309552            109003095527             I02140121000030955200309552            05022100000002856843412897708000000000000000000000000000000000000000000000000000000000000000000000000000000000000000000000000000009430000000000000         00000000000000000000000CORDON BLEU PARIS BRASIL LTDA.                                        000116
10205539814000112041300648601        CLEAN AMBIENTAL          00309553            109003095535             I02140121000030955300309553            30012100000002214363412897708000000000000000000000000000000000000000000000000000000000000000000000000000000000000000000000000000007310000000000000         00000000000000000000000COLEGIO ELEVA EDUCACAO LTDA                                           000117
10205539814000112041300648601        CLEAN AMBIENTAL          00309554            109003095543             I02140121000030955400309554            24012100000000778393412897708000000000000000000000000000000000000000000000000000000000000000000000000000000000000000000000000000000260000000000000         00000000000000000000000MULTI ALIMENTOS MENDANHA LTDA                                         000118
10205539814000112041300648601        CLEAN AMBIENTAL          00309555            109003095550             I02140121000030955500309555            24012100000000726533412897708000000000000000000000000000000000000000000000000000000000000000000000000000000000000000000000000000000240000000000000         00000000000000000000000DU DUDU KILO GRILL RESTAURANTE                                        000119
10205539814000112041300648601        CLEAN AMBIENTAL          00309556            109003095568             I02140121000030955600309556            24012100000000299663412897708000000000000000000000000000000000000000000000000000000000000000000000000000000000000000000000000000000100000000000000         00000000000000000000000BPG COMERCIO ALIMENTICIO LTDA                                         000120
10205539814000112041300648601        CLEAN AMBIENTAL          00309557            109003095576             I02140121000030955700309557            24012100000001441793412897708000000000000000000000000000000000000000000000000000000000000000000000000000000000000000000000000000004760000000000000         00000000000000000000000KPRO COMERCIO DE ALIMENTOS EIR                                        000121
10205539814000112041300648601        CLEAN AMBIENTAL          00309558            109003095584             I02140121000030955800309558            21012100000002120013416849408000000000000000000000000000000000000000000000000000000000000000000000000000000000000000000000000000007000000000000000         00000000000000000000000SUPERMERCADO PADRAO DO FONSECA                                        000122
10205539814000112041300648601        CLEAN AMBIENTAL          00309559            109003095592             I02140121000030955900309559            24012100000000469473412897708000000000000000000000000000000000000000000000000000000000000000000000000000000000000000000000000000000150000000000000         00000000000000000000000BELCHIOR BURGUER LTDA                                                 000123
10205539814000112041300648601        CLEAN AMBIENTAL          00309560            109003095600             I02140121000030956000309560            24012100000001658743412897708000000000000000000000000000000000000000000000000000000000000000000000000000000000000000000000000000005470000000000000         00000000000000000000000PLAST LABOR IND E COM EQPTO HO                                        000124
10205539814000112041300648601        CLEAN AMBIENTAL          00309561            109003095618             I02140121000030956100309561            24012100000000306263412897708000000000000000000000000000000000000000000000000000000000000000000000000000000000000000000000000000000100000000000000         00000000000000000000000ROSINHA MOTTA RESTAURANTE LTDA                                        000125
10205539814000112041300648601        CLEAN AMBIENTAL          00309562            109003095626             I02140121000030956200309562            21012100000002558323410059608000000000000000000000000000000000000000000000000000000000000000000000000000000000000000000000000000008440000000000000         00000000000000000000000SUPERMERCADO PADRAO DO FONSECA                                        000126
10205539814000112041300648601        CLEAN AMBIENTAL          00309563            109003095634             I02140121000030956300309563            21012100000001642113410201408000000000000000000000000000000000000000000000000000000000000000000000000000000000000000000000000000005420000000000000         00000000000000000000000SUPERMERCADO PADRAO DO FONSECA                                        000127
10205539814000112041300648601        CLEAN AMBIENTAL          00309564            109003095642             I02140121000030956400309564            24012100000001431583412897708000000000000000000000000000000000000000000000000000000000000000000000000000000000000000000000000000004720000000000000         00000000000000000000000SUPERMERCADO PADRAO DO FONSECA                                        000128
10205539814000112041300648601        CLEAN AMBIENTAL          00309565            109003095659             I02140121000030956500309565            21012100000001120013411306008000000000000000000000000000000000000000000000000000000000000000000000000000000000000000000000000000003700000000000000         00000000000000000000000SUPERMERCADOS PADRAO DO FONSEC                                        000129
10205539814000112041300648601        CLEAN AMBIENTAL          00309566            109003095667             I02140121000030956600309566            24012100000000361323412897708000000000000000000000000000000000000000000000000000000000000000000000000000000000000000000000000000000120000000000000         00000000000000000000000ARAM MARA COMERCIO DE ALIMENTO                                        000130
10205539814000112041300648601        CLEAN AMBIENTAL          00309567            109003095675             I02140121000030956700309567            24012100000000299743412897708000000000000000000000000000000000000000000000000000000000000000000000000000000000000000000000000000000100000000000000         00000000000000000000000NOVO SABOR DISTRIBUIDORA DE BE                                        000131
10205539814000112041300648601        CLEAN AMBIENTAL          00309568            109003095683             I02140121000030956800309568            24012100000000331843412897708000000000000000000000000000000000000000000000000000000000000000000000000000000000000000000000000000000110000000000000         00000000000000000000000REI DO SABOR LANCHES LTDA                                             000132
10205539814000112041300648601        CLEAN AMBIENTAL          00309569            109003095691             I02140121000030956900309569            21012100000002094113410059608000000000000000000000000000000000000000000000000000000000000000000000000000000000000000000000000000006910000000000000         00000000000000000000000SUPERMERCADO PADRAO DO FONSECA                                        000133
10205539814000112041300648601        CLEAN AMBIENTAL          00309570            109003095709             I02140121000030957000309570            21012100000001400003411306008000000000000000000000000000000000000000000000000000000000000000000000000000000000000000000000000000004620000000000000         00000000000000000000000SUPERMERCADO PADRAO DO FONSECA                                        000134
10205539814000112041300648601        CLEAN AMBIENTAL          00309571            109003095717             I02140121000030957100309571            21012100000001279163410059608000000000000000000000000000000000000000000000000000000000000000000000000000000000000000000000000000004220000000000000         00000000000000000000000SUPERMERCADO PADRAO DO FONSECA                                        000135
10205539814000112041300648601        CLEAN AMBIENTAL          00309572            109003095725             I02140121000030957200309572            21012100000001856853410059608000000000000000000000000000000000000000000000000000000000000000000000000000000000000000000000000000006130000000000000         00000000000000000000000SUPERMERCADO PADRAO DO FONSECA                                        000136
10205539814000112041300648601        CLEAN AMBIENTAL          00309573            109003095733             I02140121000030957300309573            15012100000000257633412897708000000000000000000000000000000000000000000000000000000000000000000000000000000000000000000000000000000080000000000000         00000000000000000000000RITA DE CASSIA COSTA DE OLIVEI                                        000137
10205539814000112041300648601        CLEAN AMBIENTAL          00309574            109003095741             I02140121000030957400309574            25012100000000170853412897708000000000000000000000000000000000000000000000000000000000000000000000000000000000000000000000000000000060000000000000         00000000000000000000000BRASIL CRAFT COMERCIO DE ARTEF                                        000138
10205539814000112041300648601        CLEAN AMBIENTAL          00309575            109003095758             I02140121000030957500309575            24012100000000121753412897708000000000000000000000000000000000000000000000000000000000000000000000000000000000000000000000000000000040000000000000         00000000000000000000000GRACINDA DO NASCIMENTO LOPES                                          000139
10205539814000112041300648601        CLEAN AMBIENTAL          00309576            109003095766             I02140121000030957600309576            24012100000000126533410201408000000000000000000000000000000000000000000000000000000000000000000000000000000000000000000000000000000040000000000000         00000000000000000000000MAIKE VITAL DAIMA                                                     000140
10205539814000112041300648601        CLEAN AMBIENTAL          00309577            109003095774             I02140121000030957700309577            24012100000000147383411282308000000000000000000000000000000000000000000000000000000000000000000000000000000000000000000000000000000050000000000000         00000000000000000000000MARIA LUISA SILVA DA ROCHA                                            000141
10205539814000112041300648601        CLEAN AMBIENTAL          00309578            109003095782             I02140121000030957800309578            24012100000000517783412897708000000000000000000000000000000000000000000000000000000000000000000000000000000000000000000000000000000170000000000000         00000000000000000000000NEOPATH PATOLOGIA MOLECULAR LT                                        000142
10205539814000112041300648601        CLEAN AMBIENTAL          00309579            109003095790             I02140121000030957900309579            24012100000000175913412897708000000000000000000000000000000000000000000000000000000000000000000000000000000000000000000000000000000060000000000000         00000000000000000000000DORT PREV MEDICINA OCUPACIONAL                                        000143
10205539814000112041300648601        CLEAN AMBIENTAL          00309580            109003095808             I02140121000030958000309580            26012100000001329283412897708000000000000000000000000000000000000000000000000000000000000000000000000000000000000000000000000000004390000000000000         00000000000000000000000CONDOMINIO DO EDIFICIO ENRICO                                         000144
10205539814000112041300648601        CLEAN AMBIENTAL          00309581            109003095816             I02140121000030958100309581            26012100000000720113412897708000000000000000000000000000000000000000000000000000000000000000000000000000000000000000000000000000000240000000000000         00000000000000000000000CONDOMINIO DO EDIFICIO ANCORA                                         000145
10205539814000112041300648601        CLEAN AMBIENTAL          00309582            109003095824             I02140121000030958200309582            24012100000000549743412897708000000000000000000000000000000000000000000000000000000000000000000000000000000000000000000000000000000180000000000000         00000000000000000000000CONDOMINIO DO EDIFICIO SENADOR                                        000146
10205539814000112041300648601        CLEAN AMBIENTAL          00309583            109003095832             I02140121000030958300309583            24012100000000292343412897708000000000000000000000000000000000000000000000000000000000000000000000000000000000000000000000000000000100000000000000         00000000000000000000000MARTELL COMERCIO DE PRODUTOS H                                        000147
10205539814000112041300648601        CLEAN AMBIENTAL          00309584            109003095840             I02140121000030958400309584            24012100000000359493412897708000000000000000000000000000000000000000000000000000000000000000000000000000000000000000000000000000000120000000000000         00000000000000000000000EDUARDO COSTA TEIXEIRA                                                000148
10205539814000112041300648601        CLEAN AMBIENTAL          00309585            109003095857             I02140121000030958500309585            24012100000000310413412897708000000000000000000000000000000000000000000000000000000000000000000000000000000000000000000000000000000100000000000000         00000000000000000000000KERALA CLINICA DE TERAPIA ALT.                                        000149
10205539814000112041300648601        CLEAN AMBIENTAL          00309586            109003095865             I02140121000030958600309586            24012100000000117633412897708000000000000000000000000000000000000000000000000000000000000000000000000000000000000000000000000000000040000000000000         00000000000000000000000SPORT PHYSIO CLINICA DE TERAPI                                        000150
10205539814000112041300648601        CLEAN AMBIENTAL          00309587            109003095873             I02140121000030958700309587            24012100000000536433412897708000000000000000000000000000000000000000000000000000000000000000000000000000000000000000000000000000000180000000000000         00000000000000000000000TELES DIAGNOSTICO LTDA                                                000151
10205539814000112041300648601        CLEAN AMBIENTAL          00309588            109003095881             I02140121000030958800309588            24012100000000163673412897708000000000000000000000000000000000000000000000000000000000000000000000000000000000000000000000000000000050000000000000         00000000000000000000000MARCELO CAETANO GONCALVES GOME                                        000152
10205539814000112041300648601        CLEAN AMBIENTAL          00309589            109003095899             I02140121000030958900309589            24012100000000129623412897708000000000000000000000000000000000000000000000000000000000000000000000000000000000000000000000000000000040000000000000         00000000000000000000000LABORATORIO MEDICO ELIEL FIGUE                                        000153
10205539814000112041300648601        CLEAN AMBIENTAL          00309590            109003095907             I02140121000030959000309590            02022100000000102693412897708000000000000000000000000000000000000000000000000000000000000000000000000000000000000000000000000000000030000000000000         00000000000000000000000NSP RADIOLOGIA LTDA                                                   000154
10205539814000112041300648601        CLEAN AMBIENTAL          00309591            109003095915             I02140121000030959100309591            24012100000000381133412897708000000000000000000000000000000000000000000000000000000000000000000000000000000000000000000000000000000130000000000000         00000000000000000000000ENDOCOPA CENTRO DE ENDOSCOPIA                                         000155
10205539814000112041300648601        CLEAN AMBIENTAL          00309592            109003095923             I02140121000030959200309592            24012100000000115543412897708000000000000000000000000000000000000000000000000000000000000000000000000000000000000000000000000000000040000000000000         00000000000000000000000MARIA DE FATIMA ALVES RUAS ARA                                        000156
10205539814000112041300648601        CLEAN AMBIENTAL          00309594            109003095949             I02140121000030959400309594            24012100000000415543412897708000000000000000000000000000000000000000000000000000000000000000000000000000000000000000000000000000000140000000000000         00000000000000000000000HAMADULU SERVICOS VETERINARIOS                                        000157
10205539814000112041300648601        CLEAN AMBIENTAL          00309595            109003095956             I02140121000030959500309595            24012100000000106023412897708000000000000000000000000000000000000000000000000000000000000000000000000000000000000000000000000000000030000000000000         00000000000000000000000FABIANA GARCIA RIBEIRO FROSSAR                                        000158
10205539814000112041300648601        CLEAN AMBIENTAL          00309596            109003095964             I02140121000030959600309596            30012100000000151763412897708000000000000000000000000000000000000000000000000000000000000000000000000000000000000000000000000000000050000000000000         00000000000000000000000COLEGIO ELEVA EDUCACAO LTDA                                           000159
10205539814000112041300648601        CLEAN AMBIENTAL          00309597            109003095972             I02140121000030959700309597            24012100000001007713411306008000000000000000000000000000000000000000000000000000000000000000000000000000000000000000000000000000003330000000000000         00000000000000000000000LABORATORIO MORALES LTDA                                              000160
10205539814000112041300648601        CLEAN AMBIENTAL          00309598            109003095980             I02140121000030959800309598            24012100000000149333411306008000000000000000000000000000000000000000000000000000000000000000000000000000000000000000000000000000000050000000000000         00000000000000000000000LABORATORIO MORALES LTDA                                              000161
10205539814000112041300648601        CLEAN AMBIENTAL          00309599            109003095998             I02140121000030959900309599            24012100000000113123414567408000000000000000000000000000000000000000000000000000000000000000000000000000000000000000000000000000000040000000000000         00000000000000000000000ANGIOVASC DIAGNOSTICO E TRATAM                                        000162
10205539814000112041300648601        CLEAN AMBIENTAL          00309600            109003096004             I02140121000030960000309600            24012100000000119323412897708000000000000000000000000000000000000000000000000000000000000000000000000000000000000000000000000000000040000000000000         00000000000000000000000PATAS BANHO E TOSA COMERCIO DE                                        000163
10205539814000112041300648601        CLEAN AMBIENTAL          00309601            109003096012             I02140121000030960100309601            24012100000000042453412897708000000000000000000000000000000000000000000000000000000000000000000000000000000000000000000000000000000010000000000000         00000000000000000000000MARIA DE FATIMA SILVA NASCIMEN                                        000164
10205539814000112041300648601        CLEAN AMBIENTAL          00309602            109003096020             I02140121000030960200309602            24012100000000065483412897708000000000000000000000000000000000000000000000000000000000000000000000000000000000000000000000000000000020000000000000         00000000000000000000000HAPPY DENTE CLINICA ODONTOLOGI                                        000165
10205539814000112041300648601        CLEAN AMBIENTAL          00309603            109003096038             I02140121000030960300309603            24012100000000039673412897708000000000000000000000000000000000000000000000000000000000000000000000000000000000000000000000000000000010000000000000         00000000000000000000000FELIPE AUGUSTO ARCANJO BARCELL                                        000166
10205539814000112041300648601        CLEAN AMBIENTAL          00309604            109003096046             I02140121000030960400309604            24012100000000085003412897708000000000000000000000000000000000000000000000000000000000000000000000000000000000000000000000000000000030000000000000         00000000000000000000000ADRIANA THOMAZ DE AQUINO COSTA                                        000167
10205539814000112041300648601        CLEAN AMBIENTAL          00309605            109003096053             I02140121000030960500309605            24012100000000042253412897708000000000000000000000000000000000000000000000000000000000000000000000000000000000000000000000000000000010000000000000         00000000000000000000000BARBEARIA HAIR E ESTETICA LTDA                                        000168
10205539814000112041300648601        CLEAN AMBIENTAL          00309606            109003096061             I02140121000030960600309606            30012100000000144863412897708000000000000000000000000000000000000000000000000000000000000000000000000000000000000000000000000000000050000000000000         00000000000000000000000COLEGIO ELEVA EDUCACAO LTDA                                           000169
10205539814000112041300648601        CLEAN AMBIENTAL          00309607            109003096079             I02140121000030960700309607            24012100000000084873412897708000000000000000000000000000000000000000000000000000000000000000000000000000000000000000000000000000000030000000000000         00000000000000000000000ODONTOCAROL ODONTOLOGIA LTDA                                          000170
10205539814000112041300648601        CLEAN AMBIENTAL          00309608            109003096087             I02140121000030960800309608            24012100000000084463412897708000000000000000000000000000000000000000000000000000000000000000000000000000000000000000000000000000000030000000000000         00000000000000000000000COPAPES SERVICOS ESTETICOS LTD                                        000171
10205539814000112041300648601        CLEAN AMBIENTAL          00309609            109003096095             I02140121000030960900309609            24012100000000125283412897708000000000000000000000000000000000000000000000000000000000000000000000000000000000000000000000000000000040000000000000         00000000000000000000000ALIADAS SERVICOS ODONTOLOGICOS                                        000172
10205539814000112041300648601        CLEAN AMBIENTAL          00309610            109003096103             I02140121000030961000309610            24012100000000137533412897708000000000000000000000000000000000000000000000000000000000000000000000000000000000000000000000000000000050000000000000         00000000000000000000000RAPHAEL HENRIQUE GONCALVES COR                                        000173
10205539814000112041300648601        CLEAN AMBIENTAL          00309611            109003096111             I02140121000030961100309611            24012100000000066063412897708000000000000000000000000000000000000000000000000000000000000000000000000000000000000000000000000000000020000000000000         00000000000000000000000LOLAZ TRATAMENTO DE BELEZA LTD                                        000174
10205539814000112041300648601        CLEAN AMBIENTAL          00309612            109003096129             I02140121000030961200309612            24012100000000071223412897708000000000000000000000000000000000000000000000000000000000000000000000000000000000000000000000000000000020000000000000         00000000000000000000000LBIR SERVICOS MEDICOS LTDA                                            000175
10205539814000112041300648601        CLEAN AMBIENTAL          00309613            109003096137             I02140121000030961300309613            24012100000000082373411009008000000000000000000000000000000000000000000000000000000000000000000000000000000000000000000000000000000030000000000000         00000000000000000000000JULIANE ROCHA DE SOUZA                                                000176
10205539814000112041300648601        CLEAN AMBIENTAL          00309614            109003096145             I02140121000030961400309614            24012100000000138683410201408000000000000000000000000000000000000000000000000000000000000000000000000000000000000000000000000000000050000000000000         00000000000000000000000RAFAELLA GONZO DE C BARBOSA SE                                        000177
10205539814000112041300648601        CLEAN AMBIENTAL          00309615            109003096152             I02140121000030961500309615            24012100000000236583412897708000000000000000000000000000000000000000000000000000000000000000000000000000000000000000000000000000000080000000000000         00000000000000000000000CLIN SKIN BARRA CONSULTORIO ME                                        000178
10205539814000112041300648601        CLEAN AMBIENTAL          00309616            109003096160             I02140121000030961600309616            24012100000000061323412897708000000000000000000000000000000000000000000000000000000000000000000000000000000000000000000000000000000020000000000000         00000000000000000000000SANOSLIFE MEDICINA E TERAPIA I                                        000179
10205539814000112041300648601        CLEAN AMBIENTAL          00309617            109003096178             I02140121000030961700309617            24012100000000061323412897708000000000000000000000000000000000000000000000000000000000000000000000000000000000000000000000000000000020000000000000         00000000000000000000000CZF SERVICOS MEDICOS EIRELI                                           000180
10205539814000112041300648601        CLEAN AMBIENTAL          00309618            109003096186             I02140121000030961800309618            24012100000000056323412897708000000000000000000000000000000000000000000000000000000000000000000000000000000000000000000000000000000020000000000000         00000000000000000000000MASTER QUALITY SERVICOS DE BEL                                        000181
10205539814000112041300648601        CLEAN AMBIENTAL          00309619            109003096194             I02140121000030961900309619            24012100000000563423412897708000000000000000000000000000000000000000000000000000000000000000000000000000000000000000000000000000000190000000000000         00000000000000000000000IEMEV - INSTITUTO ESPECIALIZAD                                        000182
10205539814000112041300648601        CLEAN AMBIENTAL          00309620            109003096202             I02140121000030962000309620            24012100000000133683412897708000000000000000000000000000000000000000000000000000000000000000000000000000000000000000000000000000000040000000000000         00000000000000000000000DENISE GOMES DE MEDEIROS                                              000183
10205539814000112041300648601        CLEAN AMBIENTAL          00309621            109003096210             I02140121000030962100309621            24012100000000071843412897708000000000000000000000000000000000000000000000000000000000000000000000000000000000000000000000000000000020000000000000         00000000000000000000000JOAO VICTOR ALVES DE LIMA 1841                                        000184
10205539814000112041300648601        CLEAN AMBIENTAL          00309622            109003096228             I02140121000030962200309622            24012100000000275133412897708000000000000000000000000000000000000000000000000000000000000000000000000000000000000000000000000000000090000000000000         00000000000000000000000MATERNO INFANTIL CLINICA MEDIC                                        000185
10205539814000112041300648601        CLEAN AMBIENTAL          00309623            109003096236             I02140121000030962300309623            24012100000001067373412897708000000000000000000000000000000000000000000000000000000000000000000000000000000000000000000000000000003520000000000000         00000000000000000000000PLAST LABOR IND.E COM.DE EQUIP                                        000186
10205539814000112041300648601        CLEAN AMBIENTAL          00309624            109003096244             I02140121000030962400309624            24012100000000205533411306008000000000000000000000000000000000000000000000000000000000000000000000000000000000000000000000000000000070000000000000         00000000000000000000000ESPLENDA CENTRO DE MEDICINA DO                                        000187
10205539814000112041300648601        CLEAN AMBIENTAL          00309625            109003096251             I02140121000030962500309625            24012100000000308003412897708000000000000000000000000000000000000000000000000000000000000000000000000000000000000000000000000000000100000000000000         00000000000000000000000CLAUDIO LUIS CARDOSO                                                  000188
10205539814000112041300648601        CLEAN AMBIENTAL          00309626            109003096269             I02140121000030962600309626            24012100000000318833412897708000000000000000000000000000000000000000000000000000000000000000000000000000000000000000000000000000000100000000000000         00000000000000000000000CLINICA ODONTOLOGICA ORAL SERV                                        000189
10205539814000112041300648601        CLEAN AMBIENTAL          00309627            109003096277             I02140121000030962700309627            30012100000000317573412897708000000000000000000000000000000000000000000000000000000000000000000000000000000000000000000000000000000100000000000000         00000000000000000000000CONDOMINIO DO EDIFICIO VITORIA                                        000190
10205539814000112041300648601        CLEAN AMBIENTAL          00309628            109003096285             I02140121000030962800309628            24012100000000093113412897708000000000000000000000000000000000000000000000000000000000000000000000000000000000000000000000000000000030000000000000         00000000000000000000000VALCIR DA CONCEICAO                                                   000191
10205539814000112041300648601        CLEAN AMBIENTAL          00309629            109003096293             I02140121000030962900309629            24012100000000199653412897708000000000000000000000000000000000000000000000000000000000000000000000000000000000000000000000000000000070000000000000         00000000000000000000000AMARE - CUIDADO DOMICILIAR E S                                        000192
10205539814000112041300648601        CLEAN AMBIENTAL          00309630            109003096301             I02140121000030963000309630            05022100000000210533412897708000000000000000000000000000000000000000000000000000000000000000000000000000000000000000000000000000000070000000000000         00000000000000000000000CENTURYLINK COMUNICACOES DO BR                                        000193
10205539814000112041300648601        CLEAN AMBIENTAL          00265728            109002657285             I06140121000026572800265728            07042000000000252380333449608000000000016400000000000000000000000000000000000000000000000000000000000000000000000002535700000000002830000000000000   14012100000000000000000000000J.S. SOUZA BAR                                                      B3000194
10205539814000112041300648601        CLEAN AMBIENTAL          00296521            109002965217             I06140121000029652100296521            08112000000000087634220047108000000000016400000000000000000000000000000000000000000000000000000000000000000000000000897500000000003760000000000000   14012100000000000000000000000LA VIVIAN NOIVAS E FESTAS EIRE                                      B7000195
10205539814000112041300648601        CLEAN AMBIENTAL          00299706            109002997061             I06140121000029970600299706            21112000000000057831041095908000000000016400000000000000000000000000000000000000000000000000000000000000000000000000583600000000002170000000000000   14012100000000000000000000000CENTRO DE DIAGNOSTICO DE ANALI                                      B5000196
10205539814000112041300648601        CLEAN AMBIENTAL          00300952            109003009528             I06140121000030095200300952            06012100000000310370333453808000000000016400000000000000000000000000000000000000000000000000000000000000500000000003037300000000000000000000000000   14012100000000000000000000000PEREIRA DOS SANTOS ALIMENTOS L                                      B3000197
10205539814000112041300648601        CLEAN AMBIENTAL          00300969            109003009692             I06140121000030096900300969            08122000000000170264220047108000000000016400000000000000000000000000000000000000000000000000000000000000000000000001697700000000001150000000000000   14012100000000000000000000000LA VIVIAN NOIVAS E FESTAS EIRE                                      B7000198
10205539814000112041300648601        CLEAN AMBIENTAL          00303561            109003035614             I06140121000030356100303561            30122000000000357863414550008000000000016400000000000000000000000000000000000000000000000000000000000000000000000003651800000000008960000000000000   14012100000000000000000000000M. BRAGA PEIXARIA LTDA                                              BL000199
10205539814000112041300648601        CLEAN AMBIENTAL          00303814            109003038147             I06140121000030381400303814            21012100000000655493410912608000000000016400000000000000000000000000000000000000000000000000000000000000000000000006538500000000000000000000000000   14012100000000000000000000000SOLARIS EQUIPAMENTOS E SERVICO                                      CK000200
10205539814000112041300648601        CLEAN AMBIENTAL          00304138            109003041380             I06140121000030413800304138            19122000000000103043418467308000000000016400000000000000000000000000000000000000000000000000000000000000000000000001042400000000002840000000000000   14012100000000000000000000000DR. BEM ESTAR LTDA - ME                                             CK000201
10205539814000112041300648601        CLEAN AMBIENTAL          00304304            109003043048             I06140121000030430400304304            03012100000000112630332284808000000000016400000000000000000000000000000000000000000000000000000000000000000000000001136800000000002690000000000000   14012100000000000000000000000NATALIA DE OLIVEIRA FERREIRA                                        B3000202
10205539814000112041300648601        CLEAN AMBIENTAL          00304395            109003043956             I06140121000030439500304395            21122000000000057831041095908000000000016400000000000000000000000000000000000000000000000000000000000000000000000000578300000000001640000000000000   14012100000000000000000000000CENTRO DE DIAGNOSTICO DE ANALI                                      B5000203
10205539814000112041300648601        CLEAN AMBIENTAL          00304676            109003046769             I06140121000030467600304676            11012100000000414740332287108000000000016400000000000000000000000000000000000000000000000000000000000000000000000004218100000000008710000000000000   14012100000000000000000000000RESTAURANTE SR 48 LTDA - ME                                         B2000204
10205539814000112041300648601        CLEAN AMBIENTAL          00304728            109003047288             I06140121000030472800304728            14012100000001271050334418008000000000016400000000000000000000000000000000000000000000000000000000000000000000000012694100000000000000000000000000   14012100000000000000000000000CONSORCIO LAGOON                                                    B3000205
10205539814000112041300648601        CLEAN AMBIENTAL          00304729            109003047296             I06140121000030472900304729            24122000000000179740330125508000000000016400000000000000000000000000000000000000000000000000000000000000000000000001829500000000004850000000000000   14012100000000000000000000000REAL NILOPOLIS VIDRACARIA LTDA                                      B3000206
10205539814000112041300648601        CLEAN AMBIENTAL          00304929            109003049292             I06140121000030492900304929            24122000000000086573418492108000000000016400000000000000000000000000000000000000000000000000000000000000000000000000872900000000002360000000000000   14012100000000000000000000000ANA PAULA LEMOS SILVA                                               BL000207
10205539814000112041300648601        CLEAN AMBIENTAL          00304939            109003049391             I06140121000030493900304939            24122000000000173953419355908000000000016400000000000000000000000000000000000000000000000000000000000000000000000001770500000000004740000000000000   14012100000000000000000000000ESTETICA NOVA CRIO EIRELI                                           BL000208
10205539814000112041300648601        CLEAN AMBIENTAL          00305002            109003050027             I06140121000030500200305002            25122000000000368933416009508000000000016400000000000000000000000000000000000000000000000000000000000000000000000003770700000000009780000000000000   14012100000000000000000000000GINASIO GAMA E SOUZA LTDA                                           CK000209
10205539814000112041300648601        CLEAN AMBIENTAL          00305068            109003050688             I06140121000030506800305068            25122000000000117630332258208000000000016400000000000000000000000000000000000000000000000000000000000000000000000001191400000000003150000000000000   14012100000000000000000000000JULIANA MENDONCA CARDOSO                                            B3000210
10205539814000112041300648601        CLEAN AMBIENTAL          00305118            109003051181             I06140121000030511800305118            08012100000000257633418340208000000000016400000000000000000000000000000000000000000000000000000000000000000000000002616200000000005630000000000000   14012100000000000000000000000LABORATORIOS MEDICOS DR ELIEL                                       CK000211
10205539814000112041300648601        CLEAN AMBIENTAL          00305127            109003051272             I06140121000030512700305127            26122000000000089211364509608000000000016400000000000000000000000000000000000000000000000000000000000000000000000000875700000000000000000000000000   14012100000000000000000000000LUIS INACIO FRAZAO AZEVEDO                                          B3000212
10205539814000112041300648601        CLEAN AMBIENTAL          00305142            109003051421             I06140121000030514200305142            30122000000000531162371852308000000000016400000000000000000000000000000000000000000000000000000000000000000000000005428400000000013320000000000000   14012100000000000000000000000PASTELARIA RECANTO DA PRAIA DO                                      B3000213
10205539814000112041300648601        CLEAN AMBIENTAL          00305195            109003051959             I06140121000030519500305195            26122000000000969472371075108000000000016400000000000000000000000000000000000000000000000000000000000000000000000009933000000000025470000000000000   14012100000000000000000000000BOATE ALL IN ENTRETENIMENTO LT                                      B3000214
10205539814000112041300648601        CLEAN AMBIENTAL          00305389            109003053898             I06140121000030538900305389            28122000000000459590333262308000000000016400000000000000000000000000000000000000000000000000000000000000000000000004696900000000011740000000000000   14012100000000000000000000000HORTIFRUTI DUDA GERALDO LTDA                                        B3000215
10205539814000112041300648601        CLEAN AMBIENTAL          00305428            109003054284             I06140121000030542800305428            28122000000000044736330001808000000000016400000000000000000000000000000000000000000000000000000000000000000000000000441500000000001060000000000000   14012100000000000000000000000JOSE RICARDO COSTA JORDAO                                           B3000216
10205539814000112041300648601        CLEAN AMBIENTAL          00305507            109003055075             I06140121000030550700305507            29122000000000272370331053808000000000016400000000000000000000000000000000000000000000000000000000000000000000000002776200000000006890000000000000   14012100000000000000000000000RESTAURANTE SEVERIANO GOURMET                                       B3000217
10205539814000112041300648601        CLEAN AMBIENTAL          00305522            109003055224             I06140121000030552200305522            30122000000000225420333453808000000000016400000000000000000000000000000000000000000000000000000000000000000000000002237800000000000000000000000000   14012100000000000000000000000PEREIRA DOS SANTOS ALIMENTOS L                                      B3000218
10205539814000112041300648601        CLEAN AMBIENTAL          00305605            109003056057             I06140121000030560500305605            14012100000000451082370663508000000000016400000000000000000000000000000000000000000000000000000000000000000000000004494400000000000000000000000000   14012100000000000000000000000BANCO BRADESCO S.A.                                                 B1000219
10205539814000112041300648601        CLEAN AMBIENTAL          00305896            109003058962             I06140121000030589600305896            10012100000000541742373370408000000000016400000000000000000000000000000000000000000000000000000000000000000000000005516500000000011550000000000000   14012100000000000000000000000CLFL COMERCIO DE ALIMENTOS LTD                                      B7000220
10205539814000112041300648601        CLEAN AMBIENTAL          00305900            109003059002             I06140121000030590000305900            02012100000000699743416124208000000000016400000000000000000000000000000000000000000000000000000000000000000000000007148500000000016750000000000000   14012100000000000000000000000RIO FRUTI II EIRELI                                                 BL000221
10205539814000112041300648601        CLEAN AMBIENTAL          00306109            109003061099             I06140121000030610900306109            14012100000000752722373369608000000000016400000000000000000000000000000000000000000000000000000000000000000000000007510800000000000000000000000000   14012100000000000000000000000CONDOMINIO DO EMPREENDIMENTO B                                      B3000222
10205539814000112041300648601        CLEAN AMBIENTAL          00306137            109003061370             I06140121000030613700306137            14012100000000391013419242908000000000016400000000000000000000000000000000000000000000000000000000000000000000000003893700000000000000000000000000   14012100000000000000000000000LANCHONETE RIO MALANGE LTDA                                         BL000223
10205539814000112041300648601        CLEAN AMBIENTAL          00306207            109003062071             I06140121000030620700306207            17012100000000351070013307608000000000016400000000000000000000000000000000000000000000000000000000000000000000000003494300000000000000000000000000   14012100000000000000000000000CAIXA DE ASSISTENCIA DOS FUNC.                                      B7000224
10205539814000112041300648601        CLEAN AMBIENTAL          00306210            109003062105             I06140121000030621000306210            10012100000000613050013254008000000000016400000000000000000000000000000000000000000000000000000000000000000000000006114100000000000000000000000000   14012100000000000000000000000CAFE E BAR VERA CRUZ LTDA                                           B6000225
10205539814000112041300648601        CLEAN AMBIENTAL          00306240            109003062402             I06140121000030624000306240            14012100000000384210334466908000000000016400000000000000000000000000000000000000000000000000000000000000000000000003825700000000000000000000000000   14012100000000000000000000000RESTAURANTE E LANCHONETE COMER                                      B3000226
10205539814000112041300648601        CLEAN AMBIENTAL          00306283            109003062832             I06140121000030628300306283            20012100000000109383418492108000000000016400000000000000000000000000000000000000000000000000000000000000000000000001077400000000000000000000000000   14012100000000000000000000000SPACESMILE ODONTOLOGIA E SERV.                                      CP000227
10205539814000112041300648601        CLEAN AMBIENTAL          00306286            109003062865             I06140121000030628600306286            06012100000000040233414878508000000000016400000000000000000000000000000000000000000000000000000000000000000000000000394700000000000880000000000000   14012100000000000000000000000AUGUSTO GANGA COSTA                                                 BL000228
10205539814000112041300648601        CLEAN AMBIENTAL          00306303            109003063038             I06140121000030630300306303            14012100000000565153418395608000000000016400000000000000000000000000000000000000000000000000000000000000000000000005635100000000000000000000000000   14012100000000000000000000000PASTELARIA BOTAFOGO - ME                                            AA000229
10205539814000112041300648601        CLEAN AMBIENTAL          00306308            109003063087             I06140121000030630800306308            14012100000000485872370473908000000000016400000000000000000000000000000000000000000000000000000000000000000000000004842300000000000000000000000000   14012100000000000000000000000REI DOS SUCOS LTDA - ME                                             B3000230
10205539814000112041300648601        CLEAN AMBIENTAL          00306391            109003063913             I06140121000030639100306391            08012100000000231250010803708000000000016400000000000000000000000000000000000000000000000000000000000000000000000002347200000000005110000000000000   14012100000000000000000000000SAUDE VIDA CLINICA E SERVICOS                                       B6000231
10205539814000112041300648601        CLEAN AMBIENTAL          00306451            109003064515             I06140121000030645100306451            14012100000001395353410304608000000000016400000000000000000000000000000000000000000000000000000000000000000000000013937100000000000000000000000000   14012100000000000000000000000CONDOMINIO DO EDIFICIO NATAN                                        CK000232
10205539814000112041300648601        CLEAN AMBIENTAL          00306466            109003064663             I06140121000030646600306466            12012100000000432072370446508000000000016400000000000000000000000000000000000000000000000000000000000000000000000004304300000000000000000000000000   14012100000000000000000000000CAFE E BAR JARDIM DA QUINTA LT                                      B2000233
10205539814000112041300648601        CLEAN AMBIENTAL          00306496            109003064960             I06140121000030649600306496            07012100000000506480334395008000000000016400000000000000000000000000000000000000000000000000000000000000000000000005161600000000011320000000000000   14012100000000000000000000000CLINICA LOJA BANHO PARAISO LTD                                      B3000234
10205539814000112041300648601        CLEAN AMBIENTAL          00306503            109003065033             I06140121000030650300306503            11012100000000478150333449608000000000016400000000000000000000000000000000000000000000000000000000000000000000000004865200000000010010000000000000   14012100000000000000000000000BAR E LANCHONETE DO BARBUDO LT                                      B3000235
10205539814000112041300648601        CLEAN AMBIENTAL          00306518            109003065181             I06140121000030651800306518            15012100000000489133419926708000000000016400000000000000000000000000000000000000000000000000000000000000000000000004874900000000000000000000000000   14012100000000000000000000000CONDOMINIO DO EDIFICIO BANDEIR                                      CI000236
10205539814000112041300648601        CLEAN AMBIENTAL          00306636            109003066361             I06140121000030663600306636            08012100000000312200333969308000000000016400000000000000000000000000000000000000000000000000000000000000000000000003174000000000006840000000000000   14012100000000000000000000000POUSADA DA TERCEIRA IDADE ANAL                                      B3000237
10205539814000112041300648601        CLEAN AMBIENTAL          00306642            109003066429             I06140121000030664200306642            13012100000000584602373370408000000000016400000000000000000000000000000000000000000000000000000000000000000000000005948400000000011880000000000000   14012100000000000000000000000DGS COMERCIO DE ALIMENTOS LTDA                                      B7000238
10205539814000112041300648601        CLEAN AMBIENTAL          00306678            109003066783             I06140121000030667800306678            08012100000000097670331521408000000000016400000000000000000000000000000000000000000000000000000000000000000000000000981600000000002130000000000000   14012100000000000000000000000CLINICA SAUDE SA E VIVER BEM L                                      B2000239
10205539814000112041300648601        CLEAN AMBIENTAL          00306680            109003066809             I06140121000030668000306680            08012100000000039446330001808000000000016400000000000000000000000000000000000000000000000000000000000000000000000000386500000000000850000000000000   14012100000000000000000000000SR FIGARO SALAO DE CABELEIREIR                                      B3000240
10205539814000112041300648601        CLEAN AMBIENTAL          00306702            109003067021             I06140121000030670200306702            09012100000000602533419285808000000000016400000000000000000000000000000000000000000000000000000000000000000000000006008900000000000000000000000000   14012100000000000000000000000FABRICA DE CONSERVAS ADCRIS LT                                      CK000241
10205539814000112041300648601        CLEAN AMBIENTAL          00306719            109003067195             I06140121000030671900306719            14012100000000353692376567208000000000016400000000000000000000000000000000000000000000000000000000000000000000000003520500000000000000000000000000   14012100000000000000000000000MERCADO DE CARNES IRMAOS DA VI                                      B3000242
10205539814000112041300648601        CLEAN AMBIENTAL          00306721            109003067211             I06140121000030672100306721            09012100000000336291044781108000000000016400000000000000000000000000000000000000000000000000000000000000000000000003419300000000007280000000000000   14012100000000000000000000000CAFE E BAR ALVITE LTDA - ME                                         B5000243
10205539814000112041300648601        CLEAN AMBIENTAL          00306722            109003067229             I06140121000030672200306722            14012100000000226550333454608000000000016400000000000000000000000000000000000000000000000000000000000000000000000002249100000000000000000000000000   14012100000000000000000000000T. C. A. DOS SANTOS F. VIANNA                                       B3000244
10205539814000112041300648601        CLEAN AMBIENTAL          00306738            109003067385             I06140121000030673800306738            09012100000000329511044706808000000000016400000000000000000000000000000000000000000000000000000000000000000000000003350100000000007140000000000000   14012100000000000000000000000FARMACIA GLORIA DEUS LTDA - ME                                      B5000245
10205539814000112041300648601        CLEAN AMBIENTAL          00306741            109003067419             I06140121000030674100306741            15012100000000567443418309708000000000016400000000000000000000000000000000000000000000000000000000000000000000000005658000000000000000000000000000   14012100000000000000000000000ASSOCIACAO DE OFICIAIS MILITAR                                      CP000246
10205539814000112041300648601        CLEAN AMBIENTAL          00306771            109003067716             I06140121000030677100306771            09012100000000987216330001808000000000016400000000000000000000000000000000000000000000000000000000000000000000000010069600000000021390000000000000   14012100000000000000000000000IGREJA LAGOINHA NITEROI                                             B3000247
10205539814000112041300648601        CLEAN AMBIENTAL          00306793            109003067930             I06140121000030679300306793            15012100000000174633418486308000000000016400000000000000000000000000000000000000000000000000000000000000000000000001729900000000000000000000000000   14012100000000000000000000000CLINICA ODONTOLOGICA ODONTO SP                                      CK000248
