02RETORNO01COBRANCA       041300648601        CLEAN AMB SERV COL TRANSP LTDA341BANCO ITAU S.A.21012101600BPI02589210121                                                                                                                                                                                                                                                                                   000001
10205539814000112041300648601        CLEAN AMBIENTAL          00307017            109003070173             I02210121000030701700307017            30012100000000177633412897708000000000000000000000000000000000000000000000000000000000000000000000000000000000000000000000000000000060000000000000         00000000000000000000000DWLE RESTAURANTE LTDA                                                 000002
10205539814000112041300648601        CLEAN AMBIENTAL          00307018            109003070181             I02210121000030701800307018            30012100000000297893412897708000000000000000000000000000000000000000000000000000000000000000000000000000000000000000000000000000000100000000000000         00000000000000000000000CAFE E BAR BRASILEIRO DE COPAC                                        000003
10205539814000112041300648601        CLEAN AMBIENTAL          00308337            109003083374             I02210121000030833700308337            06022100000000336843412897708000000000000000000000000000000000000000000000000000000000000000000000000000000000000000000000000000000110000000000000         00000000000000000000000MERLON - LANCHONETE E PASTELAR                                        000004
10205539814000112041300648601        CLEAN AMBIENTAL          00310043            109003100434             I02210121000031004300310043            01022100000000798063412897708000000000000000000000000000000000000000000000000000000000000000000000000000000000000000000000000000000260000000000000         00000000000000000000000QUINA DE OURO BAR E PASTELARIA                                        000005
10205539814000112041300648601        CLEAN AMBIENTAL          00310215            109003102158             I02210121000031021500310215            05022100000000692543412897708000000000000000000000000000000000000000000000000000000000000000000000000000000000000000000000000000000230000000000000         00000000000000000000000CONDOMINIO EDIFICIO METROPOLE                                         000006
10205539814000112041300648601        CLEAN AMBIENTAL          00310216            109003102166             I02210121000031021600310216            30012100000000360623412897708000000000000000000000000000000000000000000000000000000000000000000000000000000000000000000000000000000120000000000000         00000000000000000000000RESTAURANTE REFOGADOS LTDA                                            000007
10205539814000112041300648601        CLEAN AMBIENTAL          00310217            109003102174             I02210121000031021700310217            05022100000000422693412897708000000000000000000000000000000000000000000000000000000000000000000000000000000000000000000000000000000140000000000000         00000000000000000000000ZUZU GORO RESTAURANTE LTDA - M                                        000008
10205539814000112041300648601        CLEAN AMBIENTAL          00310218            109003102182             I02210121000031021800310218            05022100000000295323412897708000000000000000000000000000000000000000000000000000000000000000000000000000000000000000000000000000000100000000000000         00000000000000000000000TEMAKI KEBAB BAR E RESTAURANTE                                        000009
10205539814000112041300648601        CLEAN AMBIENTAL          00310219            109003102190             I02210121000031021900310219            05022100000000396893412897708000000000000000000000000000000000000000000000000000000000000000000000000000000000000000000000000000000130000000000000         00000000000000000000000BAR CABANAS LTDA - EPP                                                000010
10205539814000112041300648601        CLEAN AMBIENTAL          00310220            109003102208             I02210121000031022000310220            05022100000000381393412897708000000000000000000000000000000000000000000000000000000000000000000000000000000000000000000000000000000130000000000000         00000000000000000000000CAFE E BAR VITORIA JC 2009 LTD                                        000011
10205539814000112041300648601        CLEAN AMBIENTAL          00310221            109003102216             I02210121000031022100310221            05022100000000196803412897708000000000000000000000000000000000000000000000000000000000000000000000000000000000000000000000000000000060000000000000         00000000000000000000000HLS BAR E LANCHONETE LTDA                                             000012
10205539814000112041300648601        CLEAN AMBIENTAL          00310222            109003102224             I02210121000031022200310222            05022100000000391893412897708000000000000000000000000000000000000000000000000000000000000000000000000000000000000000000000000000000130000000000000         00000000000000000000000SORVETERIA COPA 74 LTDA                                               000013
10205539814000112041300648601        CLEAN AMBIENTAL          00310223            109003102232             I02210121000031022300310223            05022100000000629023412897708000000000000000000000000000000000000000000000000000000000000000000000000000000000000000000000000000000210000000000000         00000000000000000000000LANCHONETE RAINHA DO SUL LTDA                                         000014
10205539814000112041300648601        CLEAN AMBIENTAL          00310224            109003102240             I02210121000031022400310224            30012100000000081253412897708000000000000000000000000000000000000000000000000000000000000000000000000000000000000000000000000000000030000000000000         00000000000000000000000RIO ODONTO SHOW CLINICAS ODONT                                        000015
10205539814000112041300648601        CLEAN AMBIENTAL          00310225            109003102257             I02210121000031022500310225            10022100000001225893412897708000000000000000000000000000000000000000000000000000000000000000000000000000000000000000000000000000004050000000000000         00000000000000000000000TALHOS E RETALHOS ATELIER CONF                                        000016
10205539814000112041300648601        CLEAN AMBIENTAL          00310226            109003102265             I02210121000031022600310226            01022100000000918953412897708000000000000000000000000000000000000000000000000000000000000000000000000000000000000000000000000000000300000000000000         00000000000000000000000CONDOMINIO EDIFICIO ATAULFO CO                                        000017
10205539814000112041300648601        CLEAN AMBIENTAL          00310227            109003102273             I02210121000031022700310227            01022100000002226523412897708000000000000000000000000000000000000000000000000000000000000000000000000000000000000000000000000000007350000000000000         00000000000000000000000RESTAURANTE E PIZZARIA PAPIZZO                                        000018
10205539814000112041300648601        CLEAN AMBIENTAL          00310228            109003102281             I02210121000031022800310228            30012100000000436423412897708000000000000000000000000000000000000000000000000000000000000000000000000000000000000000000000000000000140000000000000         00000000000000000000000OKAERI RESTAURANTE LTDA EPP                                           000019
10205539814000112041300648601        CLEAN AMBIENTAL          00310229            109003102299             I02210121000031022900310229            30012100000000567133412897708000000000000000000000000000000000000000000000000000000000000000000000000000000000000000000000000000000190000000000000         00000000000000000000000PANIFICACAO ALIANCA DO LINS LT                                        000020
10205539814000112041300648601        CLEAN AMBIENTAL          00310230            109003102307             I02210121000031023000310230            30012100000001003363412897708000000000000000000000000000000000000000000000000000000000000000000000000000000000000000000000000000003310000000000000         00000000000000000000000CONFEITARIA KURT LTDA - EPP                                           000021
10205539814000112041300648601        CLEAN AMBIENTAL          00310231            109003102315             I02210121000031023100310231            30012100000000409213412897708000000000000000000000000000000000000000000000000000000000000000000000000000000000000000000000000000000130000000000000         00000000000000000000000BIJU RESTAURANTE BAR LTDA                                             000022
10205539814000112041300648601        CLEAN AMBIENTAL          00310232            109003102323             I02210121000031023200310232            30012100000000437893412897708000000000000000000000000000000000000000000000000000000000000000000000000000000000000000000000000000000140000000000000         00000000000000000000000ACONCHEGO DOS AVOS RECUPERACAO                                        000023
10205539814000112041300648601        CLEAN AMBIENTAL          00310233            109003102331             I02210121000031023300310233            30012100000000834393412897708000000000000000000000000000000000000000000000000000000000000000000000000000000000000000000000000000000280000000000000         00000000000000000000000HOSPITAL VETERINARIO DE BOTAFO                                        000024
10205539814000112041300648601        CLEAN AMBIENTAL          00310234            109003102349             I02210121000031023400310234            10022100000003717353412897708000000000000000000000000000000000000000000000000000000000000000000000000000000000000000000000000000012270000000000000         00000000000000000000000CLUBE DOS MARIMBAS                                                    000025
10205539814000112041300648601        CLEAN AMBIENTAL          00310235            109003102356             I02210121000031023500310235            10022100000001281803412897708000000000000000000000000000000000000000000000000000000000000000000000000000000000000000000000000000004230000000000000         00000000000000000000000PALAZZO LARANJEIRAS CENTER PRO                                        000026
10205539814000112041300648601        CLEAN AMBIENTAL          00310236            109003102364             I02210121000031023600310236            30012100000000826043412897708000000000000000000000000000000000000000000000000000000000000000000000000000000000000000000000000000000270000000000000         00000000000000000000000DROGARIA ROSAS DE VALQUEIRE LT                                        000027
10205539814000112041300648601        CLEAN AMBIENTAL          00310237            109003102372             I02210121000031023700310237            10022100000000416843412897708000000000000000000000000000000000000000000000000000000000000000000000000000000000000000000000000000000140000000000000         00000000000000000000000PANIFICACAO RIO 2004 LTDA                                             000028
10205539814000112041300648601        CLEAN AMBIENTAL          00310238            109003102380             I02210121000031023800310238            30012100000000281533412897708000000000000000000000000000000000000000000000000000000000000000000000000000000000000000000000000000000090000000000000         00000000000000000000000LA VILLA RESTAURANTE LTDA                                             000029
10205539814000112041300648601        CLEAN AMBIENTAL          00310239            109003102398             I02210121000031023900310239            30012100000002885473410229508000000000000000000000000000000000000000000000000000000000000000000000000000000000000000000000000000009520000000000000         00000000000000000000000CRUZEIRO DO SUL MERCADO LTDA                                          000030
10205539814000112041300648601        CLEAN AMBIENTAL          00310240            109003102406             I02210121000031024000310240            10022100000003503373410686608000000000000000000000000000000000000000000000000000000000000000000000000000000000000000000000000000011560000000000000         00000000000000000000000FITAS FLAX DA AMAZONIA LTDA                                           000031
10205539814000112041300648601        CLEAN AMBIENTAL          00310241            109003102414             I02210121000031024100310241            05022100000000231163412897708000000000000000000000000000000000000000000000000000000000000000000000000000000000000000000000000000000080000000000000         00000000000000000000000LAPA BAKERY RESTAURANTE E PADA                                        000032
10205539814000112041300648601        CLEAN AMBIENTAL          00310242            109003102422             I02210121000031024200310242            30012100000000393843412897708000000000000000000000000000000000000000000000000000000000000000000000000000000000000000000000000000000130000000000000         00000000000000000000000POSTO JULIO DE CASTILHO LIMITA                                        000033
10205539814000112041300648601        CLEAN AMBIENTAL          00310243            109003102430             I02210121000031024300310243            30012100000000896343412897708000000000000000000000000000000000000000000000000000000000000000000000000000000000000000000000000000000300000000000000         00000000000000000000000CHOPERIA COMETA EXPRESSO DO ME                                        000034
10205539814000112041300648601        CLEAN AMBIENTAL          00310244            109003102448             I02210121000031024400310244            30012100000000443193412897708000000000000000000000000000000000000000000000000000000000000000000000000000000000000000000000000000000150000000000000         00000000000000000000000POSTO GARAGEM NOVO MODELO LTDA                                        000035
10205539814000112041300648601        CLEAN AMBIENTAL          00310245            109003102455             I02210121000031024500310245            30012100000000275483412897708000000000000000000000000000000000000000000000000000000000000000000000000000000000000000000000000000000090000000000000         00000000000000000000000BANCO BRADESCO S/A                                                    000036
10205539814000112041300648601        CLEAN AMBIENTAL          00310246            109003102463             I02210121000031024600310246            05022100000000594383412897708000000000000000000000000000000000000000000000000000000000000000000000000000000000000000000000000000000200000000000000         00000000000000000000000CONDOMINIO CENTRO COMERCIAL AS                                        000037
10205539814000112041300648601        CLEAN AMBIENTAL          00310247            109003102471             I02210121000031024700310247            30012100000000495953412897708000000000000000000000000000000000000000000000000000000000000000000000000000000000000000000000000000000160000000000000         00000000000000000000000BARRA MANCINI EMPREENDIMENTOS                                         000038
10205539814000112041300648601        CLEAN AMBIENTAL          00310248            109003102489             I02210121000031024800310248            30012100000000884483412897708000000000000000000000000000000000000000000000000000000000000000000000000000000000000000000000000000000290000000000000         00000000000000000000000CANECO 2 RESTAURANTE LTDA - EP                                        000039
10205539814000112041300648601        CLEAN AMBIENTAL          00310249            109003102497             I02210121000031024900310249            05022100000000439473412897708000000000000000000000000000000000000000000000000000000000000000000000000000000000000000000000000000000140000000000000         00000000000000000000000NOVA GERACAO COMESTIVEIS S.A                                          000040
10205539814000112041300648601        CLEAN AMBIENTAL          00310250            109003102505             I02210121000031025000310250            30012100000000318023412897708000000000000000000000000000000000000000000000000000000000000000000000000000000000000000000000000000000100000000000000         00000000000000000000000PASTELARIA BOM DIA DO ANDARAI                                         000041
10205539814000112041300648601        CLEAN AMBIENTAL          00310251            109003102513             I02210121000031025100310251            30012100000000091713412897708000000000000000000000000000000000000000000000000000000000000000000000000000000000000000000000000000000030000000000000         00000000000000000000000BOTECO DONA CLARA LTDA - ME                                           000042
10205539814000112041300648601        CLEAN AMBIENTAL          00310252            109003102521             I02210121000031025200310252            30012100000000506893412897708000000000000000000000000000000000000000000000000000000000000000000000000000000000000000000000000000000170000000000000         00000000000000000000000CONDOMINIO EDIFICIO VITRINE DA                                        000043
10205539814000112041300648601        CLEAN AMBIENTAL          00310253            109003102539             I02210121000031025300310253            30012100000000445743412897708000000000000000000000000000000000000000000000000000000000000000000000000000000000000000000000000000000150000000000000         00000000000000000000000PANIFICADORA DIVINO PAO LTDA -                                        000044
10205539814000112041300648601        CLEAN AMBIENTAL          00310254            109003102547             I02210121000031025400310254            05022100000000363653412897708000000000000000000000000000000000000000000000000000000000000000000000000000000000000000000000000000000120000000000000         00000000000000000000000MIRAFLORES BAR LTDA - ME                                              000045
10205539814000112041300648601        CLEAN AMBIENTAL          00310255            109003102554             I02210121000031025500310255            05022100000000493643412897708000000000000000000000000000000000000000000000000000000000000000000000000000000000000000000000000000000160000000000000         00000000000000000000000CAFE E BAR VIRGEM DE FATIMA LT                                        000046
10205539814000112041300648601        CLEAN AMBIENTAL          00310256            109003102562             I02210121000031025600310256            05022100000000409963412897708000000000000000000000000000000000000000000000000000000000000000000000000000000000000000000000000000000130000000000000         00000000000000000000000CAFE E BAR VILA VICOSA LTDA -                                         000047
10205539814000112041300648601        CLEAN AMBIENTAL          00310257            109003102570             I02210121000031025700310257            05022100000000949053412897708000000000000000000000000000000000000000000000000000000000000000000000000000000000000000000000000000000310000000000000         00000000000000000000000BAR RESTAURANTE E GALETERIA CO                                        000048
10205539814000112041300648601        CLEAN AMBIENTAL          00310258            109003102588             I02210121000031025800310258            05022100000000553163412897708000000000000000000000000000000000000000000000000000000000000000000000000000000000000000000000000000000180000000000000         00000000000000000000000CONFEITARIA E BAR TA EM TODAS                                         000049
10205539814000112041300648601        CLEAN AMBIENTAL          00310259            109003102596             I02210121000031025900310259            05022100000000390383412897708000000000000000000000000000000000000000000000000000000000000000000000000000000000000000000000000000000130000000000000         00000000000000000000000BOTECO DA PRAIA BAR LTDA - ME                                         000050
10205539814000112041300648601        CLEAN AMBIENTAL          00310260            109003102604             I02210121000031026000310260            05022100000000459013412897708000000000000000000000000000000000000000000000000000000000000000000000000000000000000000000000000000000150000000000000         00000000000000000000000RESTAURANTE PASTEUR LTDA - ME                                         000051
10205539814000112041300648601        CLEAN AMBIENTAL          00310261            109003102612             I02210121000031026100310261            05022100000000429543412897708000000000000000000000000000000000000000000000000000000000000000000000000000000000000000000000000000000140000000000000         00000000000000000000000BOTECO XIQUE RESTAURANTE LTDA                                         000052
10205539814000112041300648601        CLEAN AMBIENTAL          00310262            109003102620             I02210121000031026200310262            05022100000000624443412897708000000000000000000000000000000000000000000000000000000000000000000000000000000000000000000000000000000210000000000000         00000000000000000000000CAFE E BAR AGUIA DOS ANDES LTD                                        000053
10205539814000112041300648601        CLEAN AMBIENTAL          00310263            109003102638             I02210121000031026300310263            05022100000000398603412897708000000000000000000000000000000000000000000000000000000000000000000000000000000000000000000000000000000130000000000000         00000000000000000000000PARAISO DO FLAMENGO BAR LTDA -                                        000054
10205539814000112041300648601        CLEAN AMBIENTAL          00310264            109003102646             I02210121000031026400310264            05022100000000385383412897708000000000000000000000000000000000000000000000000000000000000000000000000000000000000000000000000000000130000000000000         00000000000000000000000CAFE E BAR BOTAFOGO LTDA - ME                                         000055
10205539814000112041300648601        CLEAN AMBIENTAL          00310265            109003102653             I02210121000031026500310265            05022100000000550263412897708000000000000000000000000000000000000000000000000000000000000000000000000000000000000000000000000000000180000000000000         00000000000000000000000CASA BRASIL COMESTIVEIS LTDA                                          000056
10205539814000112041300648601        CLEAN AMBIENTAL          00310266            109003102661             I02210121000031026600310266            05022100000000433403412897708000000000000000000000000000000000000000000000000000000000000000000000000000000000000000000000000000000140000000000000         00000000000000000000000COISA NOSSA RESTAURANTE LTDA                                          000057
10205539814000112041300648601        CLEAN AMBIENTAL          00310267            109003102679             I02210121000031026700310267            30012100000000402913412897708000000000000000000000000000000000000000000000000000000000000000000000000000000000000000000000000000000130000000000000         00000000000000000000000BAR DA FRENTE - RESTAURANTE E                                         000058
10205539814000112041300648601        CLEAN AMBIENTAL          00310268            109003102687             I02210121000031026800310268            10022100000000432593412897708000000000000000000000000000000000000000000000000000000000000000000000000000000000000000000000000000000140000000000000         00000000000000000000000CRECHE ALEGRIA & CIA LTDA - ME                                        000059
10205539814000112041300648601        CLEAN AMBIENTAL          00310269            109003102695             I02210121000031026900310269            05022100000000307263412897708000000000000000000000000000000000000000000000000000000000000000000000000000000000000000000000000000000100000000000000         00000000000000000000000SANTE CAFE E BISTRO LTDA - ME                                         000060
10205539814000112041300648601        CLEAN AMBIENTAL          00310270            109003102703             I02210121000031027000310270            30012100000000553933412897708000000000000000000000000000000000000000000000000000000000000000000000000000000000000000000000000000000180000000000000         00000000000000000000000AMI COMERCIO DE BEBIDAS E ALIM                                        000061
10205539814000112041300648601        CLEAN AMBIENTAL          00310271            109003102711             I02210121000031027100310271            30012100000000594003412897708000000000000000000000000000000000000000000000000000000000000000000000000000000000000000000000000000000200000000000000         00000000000000000000000KI DELICIA BOLOS E SALGADOS LT                                        000062
10205539814000112041300648601        CLEAN AMBIENTAL          00310272            109003102729             I02210121000031027200310272            30012100000000253723412897708000000000000000000000000000000000000000000000000000000000000000000000000000000000000000000000000000000080000000000000         00000000000000000000000ANDRIGEL COMERCIO DE ROUPAS E                                         000063
10205539814000112041300648601        CLEAN AMBIENTAL          00310273            109003102737             I02210121000031027300310273            30012100000000638233412897708000000000000000000000000000000000000000000000000000000000000000000000000000000000000000000000000000000210000000000000         00000000000000000000000CONDOMINIO EDIFICIO VICTOR NUN                                        000064
10205539814000112041300648601        CLEAN AMBIENTAL          00310274            109003102745             I02210121000031027400310274            30012100000000275023412897708000000000000000000000000000000000000000000000000000000000000000000000000000000000000000000000000000000090000000000000         00000000000000000000000CAFE, BAR E ENGRAXATARIA TREIS                                        000065
10205539814000112041300648601        CLEAN AMBIENTAL          00310275            109003102752             I02210121000031027500310275            30012100000000344813412897708000000000000000000000000000000000000000000000000000000000000000000000000000000000000000000000000000000110000000000000         00000000000000000000000HOTEL CHARM LTDA                                                      000066
10205539814000112041300648601        CLEAN AMBIENTAL          00310276            109003102760             I02210121000031027600310276            30012100000000549843412897708000000000000000000000000000000000000000000000000000000000000000000000000000000000000000000000000000000180000000000000         00000000000000000000000ASSOCIACAO DOS PESCADORES DO R                                        000067
10205539814000112041300648601        CLEAN AMBIENTAL          00310277            109003102778             I02210121000031027700310277            30012100000000254683412897708000000000000000000000000000000000000000000000000000000000000000000000000000000000000000000000000000000080000000000000         00000000000000000000000POSTO DE GASOLINA SOLAR DE CAM                                        000068
10205539814000112041300648601        CLEAN AMBIENTAL          00310278            109003102786             I02210121000031027800310278            30012100000000439113412897708000000000000000000000000000000000000000000000000000000000000000000000000000000000000000000000000000000140000000000000         00000000000000000000000POSTO DE GASOLINA E AUTO SERVI                                        000069
10205539814000112041300648601        CLEAN AMBIENTAL          00310279            109003102794             I02210121000031027900310279            30012100000000359153412897708000000000000000000000000000000000000000000000000000000000000000000000000000000000000000000000000000000120000000000000         00000000000000000000000CENTRO AUTOMOTIVO IMPERIAL DA                                         000070
10205539814000112041300648601        CLEAN AMBIENTAL          00310280            109003102802             I02210121000031028000310280            30012100000000618923412897708000000000000000000000000000000000000000000000000000000000000000000000000000000000000000000000000000000200000000000000         00000000000000000000000MBN2 RESTAURANTE LTDA                                                 000071
10205539814000112041300648601        CLEAN AMBIENTAL          00310281            109003102810             I02210121000031028100310281            30012100000000411593412897708000000000000000000000000000000000000000000000000000000000000000000000000000000000000000000000000000000140000000000000         00000000000000000000000BA AMARAL COMERCIO DE ALIMENTO                                        000072
10205539814000112041300648601        CLEAN AMBIENTAL          00310282            109003102828             I02210121000031028200310282            30012100000000352073412897708000000000000000000000000000000000000000000000000000000000000000000000000000000000000000000000000000000120000000000000         00000000000000000000000RESTAURANTE E PIZZARIA HADDOCK                                        000073
10205539814000112041300648601        CLEAN AMBIENTAL          00310283            109003102836             I02210121000031028300310283            30012100000001019743412897708000000000000000000000000000000000000000000000000000000000000000000000000000000000000000000000000000003370000000000000         00000000000000000000000MERCADO MULTIOFERTAS EIRELI                                           000074
10205539814000112041300648601        CLEAN AMBIENTAL          00310284            109003102844             I02210121000031028400310284            30012100000000669083412897708000000000000000000000000000000000000000000000000000000000000000000000000000000000000000000000000000000220000000000000         00000000000000000000000MERCADO LIDER DE ANCHIETA LTDA                                        000075
10205539814000112041300648601        CLEAN AMBIENTAL          00310285            109003102851             I02210121000031028500310285            30012100000000603213412897708000000000000000000000000000000000000000000000000000000000000000000000000000000000000000000000000000000200000000000000         00000000000000000000000PIZZARIA JOIA CARIOCA LTDA                                            000076
10205539814000112041300648601        CLEAN AMBIENTAL          00310286            109003102869             I02210121000031028600310286            30012100000000510793412897708000000000000000000000000000000000000000000000000000000000000000000000000000000000000000000000000000000170000000000000         00000000000000000000000L. L RODRIGUES HORTIFRUTI LTDA                                        000077
10205539814000112041300648601        CLEAN AMBIENTAL          00310287            109003102877             I02210121000031028700310287            30012100000000749473411282308000000000000000000000000000000000000000000000000000000000000000000000000000000000000000000000000000000250000000000000         00000000000000000000000RIO DROG'S DISTRIBUIDORA DE PR                                        000078
10205539814000112041300648601        CLEAN AMBIENTAL          00310288            109003102885             I02210121000031028800310288            30012100000000870613412897708000000000000000000000000000000000000000000000000000000000000000000000000000000000000000000000000000000290000000000000         00000000000000000000000DGS COMERCIO DE ALIMENTOS LTDA                                        000079
10205539814000112041300648601        CLEAN AMBIENTAL          00310289            109003102893             I02210121000031028900310289            30012100000000368383412897708000000000000000000000000000000000000000000000000000000000000000000000000000000000000000000000000000000120000000000000         00000000000000000000000BEM ESTAR MERCEARIA E HORTIFRU                                        000080
10205539814000112041300648601        CLEAN AMBIENTAL          00310290            109003102901             I02210121000031029000310290            16022100000001007783410229508000000000000000000000000000000000000000000000000000000000000000000000000000000000000000000000000000003330000000000000         00000000000000000000000LOCALIZA RENT A CAR SA                                                000081
10205539814000112041300648601        CLEAN AMBIENTAL          00310291            109003102919             I02210121000031029100310291            30012100000000516163412897708000000000000000000000000000000000000000000000000000000000000000000000000000000000000000000000000000000170000000000000         00000000000000000000000FC BOUTIQUES E LANCHES EIRELI                                         000082
10205539814000112041300648601        CLEAN AMBIENTAL          00310292            109003102927             I02210121000031029200310292            30012100000000226683412897708000000000000000000000000000000000000000000000000000000000000000000000000000000000000000000000000000000070000000000000         00000000000000000000000DIMANU INSTITUTO DE DEPILACAO                                         000083
10205539814000112041300648601        CLEAN AMBIENTAL          00310293            109003102935             I02210121000031029300310293            30012100000000657943412897708000000000000000000000000000000000000000000000000000000000000000000000000000000000000000000000000000000220000000000000         00000000000000000000000SABENAUTO COMERCIO DE VEICULOS                                        000084
10205539814000112041300648601        CLEAN AMBIENTAL          00310294            109003102943             I02210121000031029400310294            30012100000000046323412897708000000000000000000000000000000000000000000000000000000000000000000000000000000000000000000000000000000020000000000000         00000000000000000000000MUSEU DE ARTE MODERNA DO RIO D                                        000085
10205539814000112041300648601        CLEAN AMBIENTAL          00310295            109003102950             I02210121000031029500310295            30012100000001298423412897708000000000000000000000000000000000000000000000000000000000000000000000000000000000000000000000000000004280000000000000         00000000000000000000000MAREA RESTAURANTE LTDA                                                000086
10205539814000112041300648601        CLEAN AMBIENTAL          00310296            109003102968             I02210121000031029600310296            05022100000000302353412897708000000000000000000000000000000000000000000000000000000000000000000000000000000000000000000000000000000100000000000000         00000000000000000000000SUELY ZEITOUNE                                                        000087
10205539814000112041300648601        CLEAN AMBIENTAL          00310297            109003102976             I02210121000031029700310297            30012100000000315323412897708000000000000000000000000000000000000000000000000000000000000000000000000000000000000000000000000000000100000000000000         00000000000000000000000CROP CENTRO REGIONAL DE ODONTO                                        000088
10205539814000112041300648601        CLEAN AMBIENTAL          00310298            109003102984             I02210121000031029800310298            05022100000000778533412897708000000000000000000000000000000000000000000000000000000000000000000000000000000000000000000000000000000260000000000000         00000000000000000000000CONDOMINIO DO EDIFICIO PREMIER                                        000089
10205539814000112041300648601        CLEAN AMBIENTAL          00310299            109003102992             I02210121000031029900310299            07022100000000070533412897708000000000000000000000000000000000000000000000000000000000000000000000000000000000000000000000000000000020000000000000         00000000000000000000000CONDOMINIO CENTRO COMERCIAL DE                                        000090
10205539814000112041300648601        CLEAN AMBIENTAL          00310300            109003103008             I02210121000031030000310300            05022100000000249743412897708000000000000000000000000000000000000000000000000000000000000000000000000000000000000000000000000000000080000000000000         00000000000000000000000CONDOMINIO DO EDIFICIO ITAPOA                                         000091
10205539814000112041300648601        CLEAN AMBIENTAL          00310301            109003103016             I02210121000031030100310301            30012100000000476033412897708000000000000000000000000000000000000000000000000000000000000000000000000000000000000000000000000000000160000000000000         00000000000000000000000CONDOMINIO DO EDIFICIO SANTO A                                        000092
10205539814000112041300648601        CLEAN AMBIENTAL          00310302            109003103024             I02210121000031030200310302            30012100000000991953412897708000000000000000000000000000000000000000000000000000000000000000000000000000000000000000000000000000000330000000000000         00000000000000000000000CONDOMINIO DO EDIFICIO ITU                                            000093
10205539814000112041300648601        CLEAN AMBIENTAL          00310303            109003103032             I02210121000031030300310303            30012100000000361843412897708000000000000000000000000000000000000000000000000000000000000000000000000000000000000000000000000000000120000000000000         00000000000000000000000ANGELO D ALESSANDRO EMERICK                                           000094
10205539814000112041300648601        CLEAN AMBIENTAL          00310304            109003103040             I02210121000031030400310304            10022100000000177493412897708000000000000000000000000000000000000000000000000000000000000000000000000000000000000000000000000000000060000000000000         00000000000000000000000MARCELO HENRIQUE PIRES CARNEIR                                        000095
10205539814000112041300648601        CLEAN AMBIENTAL          00310305            109003103057             I02210121000031030500310305            05022100000000594893412897708000000000000000000000000000000000000000000000000000000000000000000000000000000000000000000000000000000200000000000000         00000000000000000000000CONDOMINIO DO ED POLO COMERCIA                                        000096
10205539814000112041300648601        CLEAN AMBIENTAL          00310306            109003103065             I02210121000031030600310306            30012100000000103463412897708000000000000000000000000000000000000000000000000000000000000000000000000000000000000000000000000000000030000000000000         00000000000000000000000BIO SINTESE HOSPITALAR LTDA                                           000097
10205539814000112041300648601        CLEAN AMBIENTAL          00310307            109003103073             I02210121000031030700310307            30012100000000677713410059608000000000000000000000000000000000000000000000000000000000000000000000000000000000000000000000000000000220000000000000         00000000000000000000000CONDOMINIO DO EDIFICIO JOSE CL                                        000098
10205539814000112041300648601        CLEAN AMBIENTAL          00310308            109003103081             I02210121000031030800310308            01022100000000117633412897708000000000000000000000000000000000000000000000000000000000000000000000000000000000000000000000000000000040000000000000         00000000000000000000000SUSANA FERREIRA BONNETTO                                              000099
10205539814000112041300648601        CLEAN AMBIENTAL          00310309            109003103099             I02210121000031030900310309            30012100000000353953410201408000000000000000000000000000000000000000000000000000000000000000000000000000000000000000000000000000000120000000000000         00000000000000000000000SILIPET QUIMICA INDUSTRIA E CO                                        000100
10205539814000112041300648601        CLEAN AMBIENTAL          00310310            109003103107             I02210121000031031000310310            30012100000000353953410201408000000000000000000000000000000000000000000000000000000000000000000000000000000000000000000000000000000120000000000000         00000000000000000000000SILIPLAST QUIMICA INDUSTRIA E                                         000101
10205539814000112041300648601        CLEAN AMBIENTAL          00310311            109003103115             I02210121000031031100310311            30012100000000120193412897708000000000000000000000000000000000000000000000000000000000000000000000000000000000000000000000000000000040000000000000         00000000000000000000000ARIANE DE LIMA RIBEIRO 1628838                                        000102
10205539814000112041300648601        CLEAN AMBIENTAL          00310312            109003103123             I02210121000031031200310312            30012100000000107673412897708000000000000000000000000000000000000000000000000000000000000000000000000000000000000000000000000000000040000000000000         00000000000000000000000CENTRO DE REFERENCIA VETERINAR                                        000103
10205539814000112041300648601        CLEAN AMBIENTAL          00310313            109003103131             I02210121000031031300310313            30012100000000806053412897708000000000000000000000000000000000000000000000000000000000000000000000000000000000000000000000000000000270000000000000         00000000000000000000000CONDOMINIO DO EDIFICIO CENTRO                                         000104
10205539814000112041300648601        CLEAN AMBIENTAL          00310314            109003103149             I02210121000031031400310314            30012100000000095023412897708000000000000000000000000000000000000000000000000000000000000000000000000000000000000000000000000000000030000000000000         00000000000000000000000CLINICA DE ODONTOLOGIA DR. ANT                                        000105
10205539814000112041300648601        CLEAN AMBIENTAL          00310315            109003103156             I02210121000031031500310315            30012100000000084413412897708000000000000000000000000000000000000000000000000000000000000000000000000000000000000000000000000000000030000000000000         00000000000000000000000DIGA X CLINICA ODONTOLOGICA LT                                        000106
10205539814000112041300648601        CLEAN AMBIENTAL          00310316            109003103164             I02210121000031031600310316            30012100000000473963414567408000000000000000000000000000000000000000000000000000000000000000000000000000000000000000000000000000000160000000000000         00000000000000000000000BRH SAUDE OCUPACIONAL LTDA                                            000107
10205539814000112041300648601        CLEAN AMBIENTAL          00310317            109003103172             I02210121000031031700310317            28012100000000084463412897708000000000000000000000000000000000000000000000000000000000000000000000000000000000000000000000000000000030000000000000         00000000000000000000000LETICIA PEREIRA GONCALVES                                             000108
10205539814000112041300648601        CLEAN AMBIENTAL          00310318            109003103180             I02210121000031031800310318            30012100000000041043412897708000000000000000000000000000000000000000000000000000000000000000000000000000000000000000000000000000000010000000000000         00000000000000000000000ZACARO BARBER SHOP EIRELI                                             000109
10205539814000112041300648601        CLEAN AMBIENTAL          00310320            109003103206             I02210121000031032000310320            30012100000000080063412897708000000000000000000000000000000000000000000000000000000000000000000000000000000000000000000000000000000030000000000000         00000000000000000000000RIO DROGAS COMERCIO DE MEDICAM                                        000110
10205539814000112041300648601        CLEAN AMBIENTAL          00310321            109003103214             I02210121000031032100310321            15022100000000142783412897708000000000000000000000000000000000000000000000000000000000000000000000000000000000000000000000000000000050000000000000         00000000000000000000000RHMED CONSULTORES ASSOCIADOS S                                        000111
10205539814000112041300648601        CLEAN AMBIENTAL          00310322            109003103222             I02210121000031032200310322            30012100000000131463412897708000000000000000000000000000000000000000000000000000000000000000000000000000000000000000000000000000000040000000000000         00000000000000000000000LIS MAINA PINCELLI 13092079760                                        000112
10205539814000112041300648601        CLEAN AMBIENTAL          00310323            109003103230             I02210121000031032300310323            30012100000000071993412897708000000000000000000000000000000000000000000000000000000000000000000000000000000000000000000000000000000020000000000000         00000000000000000000000FRANCINE CARVALHO CONDE DAS NE                                        000113
10205539814000112041300648601        CLEAN AMBIENTAL          00310325            109003103255             I02210121000031032500310325            30012100000000084463412897708000000000000000000000000000000000000000000000000000000000000000000000000000000000000000000000000000000030000000000000         00000000000000000000000LEVI JOSE FERNANDES DA SILVA                                          000114
10205539814000112041300648601        CLEAN AMBIENTAL          00310326            109003103263             I02210121000031032600310326            30012100000000254453412897708000000000000000000000000000000000000000000000000000000000000000000000000000000000000000000000000000000080000000000000         00000000000000000000000DEPETS CLINICA VETERINARIA LTD                                        000115
10205539814000112041300648601        CLEAN AMBIENTAL          00310327            109003103271             I02210121000031032700310327            30012100000000057633412897708000000000000000000000000000000000000000000000000000000000000000000000000000000000000000000000000000000020000000000000         00000000000000000000000RFP BARBEARIA E CABELEIREIROS                                         000116
10205539814000112041300648601        CLEAN AMBIENTAL          00310328            109003103289             I02210121000031032800310328            30012100000000198453412897708000000000000000000000000000000000000000000000000000000000000000000000000000000000000000000000000000000070000000000000         00000000000000000000000CLINICA ODONTOLOGICA SORRISO D                                        000117
10205539814000112041300648601        CLEAN AMBIENTAL          00310329            109003103297             I02210121000031032900310329            30012100000000087633412897708000000000000000000000000000000000000000000000000000000000000000000000000000000000000000000000000000000030000000000000         00000000000000000000000DROGARIA RCJ DE ROCHA MIRANDA                                         000118
10205539814000112041300648601        CLEAN AMBIENTAL          00310330            109003103305             I02210121000031033000310330            30012100000000087633412897708000000000000000000000000000000000000000000000000000000000000000000000000000000000000000000000000000000030000000000000         00000000000000000000000J G BARBEARIA LTDA                                                    000119
10205539814000112041300648601        CLEAN AMBIENTAL          00310331            109003103313             I02210121000031033100310331            30012100000000491323412897708000000000000000000000000000000000000000000000000000000000000000000000000000000000000000000000000000000160000000000000         00000000000000000000000CLINICA ODONTOLOGICA GR ODONTO                                        000120
10205539814000112041300648601        CLEAN AMBIENTAL          00310332            109003103321             I02210121000031033200310332            30012100000001502113412897708000000000000000000000000000000000000000000000000000000000000000000000000000000000000000000000000000004960000000000000         00000000000000000000000CDR CLINICA DE DOENCAS RENAIS                                         000121
10205539814000112041300648601        CLEAN AMBIENTAL          00310333            109003103339             I02210121000031033300310333            30012100000000096583412897708000000000000000000000000000000000000000000000000000000000000000000000000000000000000000000000000000000030000000000000         00000000000000000000000PL SAUDE E BELEZA S/S LTDA                                            000122
10205539814000112041300648601        CLEAN AMBIENTAL          00310334            109003103347             I02210121000031033400310334            30012100000000061323410229508000000000000000000000000000000000000000000000000000000000000000000000000000000000000000000000000000000020000000000000         00000000000000000000000CAMILA S VICENTE CENTRO DE EST                                        000123
10205539814000112041300648601        CLEAN AMBIENTAL          00310335            109003103354             I02210121000031033500310335            30012100000000108953412897708000000000000000000000000000000000000000000000000000000000000000000000000000000000000000000000000000000040000000000000         00000000000000000000000RAIO DE LUA SC SERVICOS E PROD                                        000124
10205539814000112041300648601        CLEAN AMBIENTAL          00310336            109003103362             I02210121000031033600310336            30012100000000117073412897708000000000000000000000000000000000000000000000000000000000000000000000000000000000000000000000000000000040000000000000         00000000000000000000000IRIO ORTO BANGU CLINICA ODONTO                                        000125
10205539814000112041300648601        CLEAN AMBIENTAL          00310337            109003103370             I02210121000031033700310337            30012100000000117633412897708000000000000000000000000000000000000000000000000000000000000000000000000000000000000000000000000000000040000000000000         00000000000000000000000KARIN EGGER                                                           000126
10205539814000112041300648601        CLEAN AMBIENTAL          00310338            109003103388             I02210121000031033800310338            30012100000000054683412897708000000000000000000000000000000000000000000000000000000000000000000000000000000000000000000000000000000020000000000000         00000000000000000000000ANGELA CRISTINA SANTOS DE QUIR                                        000127
10205539814000112041300648601        CLEAN AMBIENTAL          00310339            109003103396             I02210121000031033900310339            30012100000000562863412897708000000000000000000000000000000000000000000000000000000000000000000000000000000000000000000000000000000190000000000000         00000000000000000000000H3MED CENTRO DE ESPECIALIDADES                                        000128
10205539814000112041300648601        CLEAN AMBIENTAL          00310340            109003103404             I02210121000031034000310340            30012100000000117363412897708000000000000000000000000000000000000000000000000000000000000000000000000000000000000000000000000000000040000000000000         00000000000000000000000JANILSON DOS REIS CAVALCANTE                                          000129
10205539814000112041300648601        CLEAN AMBIENTAL          00310341            109003103412             I02210121000031034100310341            30012100000000184513412897708000000000000000000000000000000000000000000000000000000000000000000000000000000000000000000000000000000060000000000000         00000000000000000000000GINA FERNANDES                                                        000130
10205539814000112041300648601        CLEAN AMBIENTAL          00310342            109003103420             I02210121000031034200310342            08022100000000116683412897708000000000000000000000000000000000000000000000000000000000000000000000000000000000000000000000000000000040000000000000         00000000000000000000000FERNANDA CRISTINA GERYPERES FL                                        000131
10205539814000112041300648601        CLEAN AMBIENTAL          00310347            109003103479             I02210121000031034700310347            30012100000000112403412897708000000000000000000000000000000000000000000000000000000000000000000000000000000000000000000000000000000040000000000000         00000000000000000000000MARTA CRISTINA HAIK GRAMATICO                                         000132
10205539814000112041300648601        CLEAN AMBIENTAL          00310348            109003103487             I02210121000031034800310348            01022100000000125623412897708000000000000000000000000000000000000000000000000000000000000000000000000000000000000000000000000000000040000000000000         00000000000000000000000DOUTOR SILVESTRE VETERINARIA L                                        000133
10205539814000112041300648601        CLEAN AMBIENTAL          00310349            109003103495             I02210121000031034900310349            01022100000000132143412897708000000000000000000000000000000000000000000000000000000000000000000000000000000000000000000000000000000040000000000000         00000000000000000000000ANA CLAUDIA PEREIRA DIAS                                              000134
10205539814000112041300648601        CLEAN AMBIENTAL          00310350            109003103503             I02210121000031035000310350            01022100000000153673412897708000000000000000000000000000000000000000000000000000000000000000000000000000000000000000000000000000000050000000000000         00000000000000000000000CARDIOCOPA LTDA                                                       000135
10205539814000112041300648601        CLEAN AMBIENTAL          00310351            109003103511             I02210121000031035100310351            01022100000000107843412897708000000000000000000000000000000000000000000000000000000000000000000000000000000000000000000000000000000040000000000000         00000000000000000000000CENTRO DE ESTETICA SLIM LASER                                         000136
10205539814000112041300648601        CLEAN AMBIENTAL          00310352            109003103529             I02210121000031035200310352            01022100000000064993412897708000000000000000000000000000000000000000000000000000000000000000000000000000000000000000000000000000000020000000000000         00000000000000000000000BARBA CARIOCA URUGUAI LTDA - M                                        000137
10205539814000112041300648601        CLEAN AMBIENTAL          00310353            109003103537             I02210121000031035300310353            30012100000000352633412897708000000000000000000000000000000000000000000000000000000000000000000000000000000000000000000000000000000120000000000000         00000000000000000000000CENTRO DE NEFROLOGIA E DIALISE                                        000138
10205539814000112041300648601        CLEAN AMBIENTAL          00310359            109003103594             I02210121000031035900310359            01022100000000429473412897708000000000000000000000000000000000000000000000000000000000000000000000000000000000000000000000000000000140000000000000         00000000000000000000000RESTAURANTE GERO RIO S.A.                                             000139
10205539814000112041300648601        CLEAN AMBIENTAL          00310360            109003103602             I02210121000031036000310360            01022100000000205853412897708000000000000000000000000000000000000000000000000000000000000000000000000000000000000000000000000000000070000000000000         00000000000000000000000CLINICA ORTOPEDICA BANGU LTDA                                         000140
10205539814000112041300648601        CLEAN AMBIENTAL          00310361            109003103610             I02210121000031036100310361            08022100000000077373412897708000000000000000000000000000000000000000000000000000000000000000000000000000000000000000000000000000000030000000000000         00000000000000000000000CLINICA VETERINARIA JARDIM BOT                                        000141
10205539814000112041300648601        CLEAN AMBIENTAL          00310362            109003103628             I02210121000031036200310362            06022100000000363893410059608000000000000000000000000000000000000000000000000000000000000000000000000000000000000000000000000000000120000000000000         00000000000000000000000CONDOMINIO DO EDIFICIO ELITE                                          000142
10205539814000112041300648601        CLEAN AMBIENTAL          00310363            109003103636             I02210121000031036300310363            01022100000000057633412897708000000000000000000000000000000000000000000000000000000000000000000000000000000000000000000000000000000020000000000000         00000000000000000000000ALBERTO MORAES NETO                                                   000143
10205539814000112041300648601        CLEAN AMBIENTAL          00310364            109003103644             I02210121000031036400310364            01022100000000261633412897708000000000000000000000000000000000000000000000000000000000000000000000000000000000000000000000000000000090000000000000         00000000000000000000000ALEXANDRE FERRAZ CONSULTORIO M                                        000144
10205539814000112041300648601        CLEAN AMBIENTAL          00310365            109003103651             I02210121000031036500310365            01022100000000335333412897708000000000000000000000000000000000000000000000000000000000000000000000000000000000000000000000000000000110000000000000         00000000000000000000000CONDOMINIO DO EDIFICIO LEONARD                                        000145
10205539814000112041300648601        CLEAN AMBIENTAL          00310366            109003103669             I02210121000031036600310366            01022100000000466053412897708000000000000000000000000000000000000000000000000000000000000000000000000000000000000000000000000000000150000000000000         00000000000000000000000HOSPITAL VETERINARIO DE BOTAFO                                        000146
10205539814000112041300648601        CLEAN AMBIENTAL          00310367            109003103677             I02210121000031036700310367            05022100000000366193410201408000000000000000000000000000000000000000000000000000000000000000000000000000000000000000000000000000000120000000000000         00000000000000000000000LOJAS AMERICANAS S/A                                                  000147
10205539814000112041300648601        CLEAN AMBIENTAL          00310368            109003103685             I02210121000031036800310368            08022100000000113443412897708000000000000000000000000000000000000000000000000000000000000000000000000000000000000000000000000000000040000000000000         00000000000000000000000BROWN AZEVEDO CLINICA MEDICA L                                        000148
10205539814000112041300648601        CLEAN AMBIENTAL          00310369            109003103693             I02210121000031036900310369            30012100000000111423412897708000000000000000000000000000000000000000000000000000000000000000000000000000000000000000000000000000000040000000000000         00000000000000000000000DROGARIA FATIMA LTDA                                                  000149
10205539814000112041300648601        CLEAN AMBIENTAL          00310370            109003103701             I02210121000031037000310370            30012100000000134173412897708000000000000000000000000000000000000000000000000000000000000000000000000000000000000000000000000000000040000000000000         00000000000000000000000CSL CENTRO DE BELEZA LTDA                                             000150
10205539814000112041300648601        CLEAN AMBIENTAL          00310371            109003103719             I02210121000031037100310371            01022100000000333893410059608000000000000000000000000000000000000000000000000000000000000000000000000000000000000000000000000000000110000000000000         00000000000000000000000LABORATORIO MORALES LTDA                                              000151
10205539814000112041300648601        CLEAN AMBIENTAL          00310372            109003103727             I02210121000031037200310372            01022100000000644373410059608000000000000000000000000000000000000000000000000000000000000000000000000000000000000000000000000000000210000000000000         00000000000000000000000LABORATORIO MORALES LTDA                                              000152
10205539814000112041300648601        CLEAN AMBIENTAL          00310373            109003103735             I02210121000031037300310373            01022100000000110793412897708000000000000000000000000000000000000000000000000000000000000000000000000000000000000000000000000000000040000000000000         00000000000000000000000THE BOSS - BARBEARIA E BAR EIR                                        000153
10205539814000112041300648601        CLEAN AMBIENTAL          00310374            109003103743             I02210121000031037400310374            01022100000000046893412897708000000000000000000000000000000000000000000000000000000000000000000000000000000000000000000000000000000020000000000000         00000000000000000000000RICARDO FERNANDES NEIVA DE SOU                                        000154
10205539814000112041300648601        CLEAN AMBIENTAL          00310375            109003103750             I02210121000031037500310375            01022100000000046893412897708000000000000000000000000000000000000000000000000000000000000000000000000000000000000000000000000000000020000000000000         00000000000000000000000ELIENAI DE OLIVEIRA SOUSA JUNI                                        000155
10205539814000112041300648601        CLEAN AMBIENTAL          00310376            109003103768             I02210121000031037600310376            30012100000000104733412897708000000000000000000000000000000000000000000000000000000000000000000000000000000000000000000000000000000030000000000000         00000000000000000000000MED POINT SERVICOS MEDICOS LTD                                        000156
10205539814000112041300648601        CLEAN AMBIENTAL          00310377            109003103776             I02210121000031037700310377            01022100000000715203412897708000000000000000000000000000000000000000000000000000000000000000000000000000000000000000000000000000000240000000000000         00000000000000000000000CONDOMINIO DO EDIFICIO ENDEREC                                        000157
10205539814000112041300648601        CLEAN AMBIENTAL          00310378            109003103784             I02210121000031037800310378            01022100000000133623412897708000000000000000000000000000000000000000000000000000000000000000000000000000000000000000000000000000000040000000000000         00000000000000000000000C. R. DA SILVA COMERCIO E SERV                                        000158
10205539814000112041300648601        CLEAN AMBIENTAL          00310379            109003103792             I02210121000031037900310379            01022100000000202893412897708000000000000000000000000000000000000000000000000000000000000000000000000000000000000000000000000000000070000000000000         00000000000000000000000MR CAMPO GRANDE CLINICA DE ODO                                        000159
10205539814000112041300648601        CLEAN AMBIENTAL          00310380            109003103800             I02210121000031038000310380            01022100000000071993412897708000000000000000000000000000000000000000000000000000000000000000000000000000000000000000000000000000000020000000000000         00000000000000000000000ISABELLA SCHLUCKEBIER CASTILHO                                        000160
10205539814000112041300648601        CLEAN AMBIENTAL          00310381            109003103818             I02210121000031038100310381            01022100000000096583412897708000000000000000000000000000000000000000000000000000000000000000000000000000000000000000000000000000000030000000000000         00000000000000000000000VALESCA PEREIRA GONCALVES                                             000161
10205539814000112041300648601        CLEAN AMBIENTAL          00310382            109003103826             I02210121000031038200310382            01022100000000292113412897708000000000000000000000000000000000000000000000000000000000000000000000000000000000000000000000000000000100000000000000         00000000000000000000000CLINICA MEDICA INTERMED LTDA                                          000162
10205539814000112041300648601        CLEAN AMBIENTAL          00310383            109003103834             I02210121000031038300310383            01022100000000125003412897708000000000000000000000000000000000000000000000000000000000000000000000000000000000000000000000000000000040000000000000         00000000000000000000000ANA PATRICIA NAEGELE DIAS TORR                                        000163
10205539814000112041300648601        CLEAN AMBIENTAL          00310384            109003103842             I02210121000031038400310384            01022100000000094473412897708000000000000000000000000000000000000000000000000000000000000000000000000000000000000000000000000000000030000000000000         00000000000000000000000ORTO PLUS LTDA                                                        000164
10205539814000112041300648601        CLEAN AMBIENTAL          00310385            109003103859             I02210121000031038500310385            01022100000000088583412897708000000000000000000000000000000000000000000000000000000000000000000000000000000000000000000000000000000030000000000000         00000000000000000000000CEBRAF CENTRAL BRASILEIRA DE A                                        000165
10205539814000112041300648601        CLEAN AMBIENTAL          00310386            109003103867             I02210121000031038600310386            01022100000000068293412897708000000000000000000000000000000000000000000000000000000000000000000000000000000000000000000000000000000020000000000000         00000000000000000000000JOANA DE ALMEIDA FERREIRA                                             000166
10205539814000112041300648601        CLEAN AMBIENTAL          00310387            109003103875             I02210121000031038700310387            01022100000000085473412897708000000000000000000000000000000000000000000000000000000000000000000000000000000000000000000000000000000030000000000000         00000000000000000000000SANCOR ASSISTENCIA MEDICA E OD                                        000167
10205539814000112041300648601        CLEAN AMBIENTAL          00310388            109003103883             I02210121000031038800310388            01022100000000093993412897708000000000000000000000000000000000000000000000000000000000000000000000000000000000000000000000000000000030000000000000         00000000000000000000000NOVA ARCA PRODUTOS AGRICOLAS L                                        000168
10205539814000112041300648601        CLEAN AMBIENTAL          00310389            109003103891             I02210121000031038900310389            01022100000000114323412897708000000000000000000000000000000000000000000000000000000000000000000000000000000000000000000000000000000040000000000000         00000000000000000000000GRACIELLY DA COSTA GANDARAO                                           000169
10205539814000112041300648601        CLEAN AMBIENTAL          00310390            109003103909             I02210121000031039000310390            01022100000000130963412897708000000000000000000000000000000000000000000000000000000000000000000000000000000000000000000000000000000040000000000000         00000000000000000000000PETZILLA COMERCIO E SERVICOS L                                        000170
10205539814000112041300648601        CLEAN AMBIENTAL          00310391            109003103917             I02210121000031039100310391            01022100000000200113412897708000000000000000000000000000000000000000000000000000000000000000000000000000000000000000000000000000000070000000000000         00000000000000000000000MARIANE CRISTINE ALVES DE SOUZ                                        000171
10205539814000112041300648601        CLEAN AMBIENTAL          00310392            109003103925             I02210121000031039200310392            01022100000000272373412897708000000000000000000000000000000000000000000000000000000000000000000000000000000000000000000000000000000090000000000000         00000000000000000000000RM SERVICOS ODONTOLOGICOS LTDA                                        000172
10205539814000112041300648601        CLEAN AMBIENTAL          00310393            109003103933             I02210121000031039300310393            01022100000000138683412897708000000000000000000000000000000000000000000000000000000000000000000000000000000000000000000000000000000050000000000000         00000000000000000000000DANIELA LUGARINHO SA                                                  000173
10205539814000112041300648601        CLEAN AMBIENTAL          00310394            109003103941             I02210121000031039400310394            30012100000000295373412897708000000000000000000000000000000000000000000000000000000000000000000000000000000000000000000000000000000100000000000000         00000000000000000000000CASAS GUANABARA COMESTIVEIS LT                                        000174
10205539814000112041300648601        CLEAN AMBIENTAL          00310395            109003103958             I02210121000031039500310395            30012100000000175373410229508000000000000000000000000000000000000000000000000000000000000000000000000000000000000000000000000000000060000000000000         00000000000000000000000CASAS GUANABARA COMESTIVEIS LT                                        000175
10205539814000112041300648601        CLEAN AMBIENTAL          00310396            109003103966             I02210121000031039600310396            30012100000000236293412897708000000000000000000000000000000000000000000000000000000000000000000000000000000000000000000000000000000080000000000000         00000000000000000000000CASAS GUANABARA COMESTIVEIS LT                                        000176
10205539814000112041300648601        CLEAN AMBIENTAL          00310397            109003103974             I02210121000031039700310397            30012100000000295373412897708000000000000000000000000000000000000000000000000000000000000000000000000000000000000000000000000000000100000000000000         00000000000000000000000CASAS GUANABARA COMESTIVEIS LT                                        000177
10205539814000112041300648601        CLEAN AMBIENTAL          00310398            109003103982             I02210121000031039800310398            30012100000000066633410201408000000000000000000000000000000000000000000000000000000000000000000000000000000000000000000000000000000020000000000000         00000000000000000000000CASAS GUANABARA COMESTIVEIS LT                                        000178
10205539814000112041300648601        CLEAN AMBIENTAL          00310399            109003103990             I02210121000031039900310399            30012100000000231573411306008000000000000000000000000000000000000000000000000000000000000000000000000000000000000000000000000000000080000000000000         00000000000000000000000CASAS GUANABARA COMESTIVEIS LT                                        000179
10205539814000112041300648601        CLEAN AMBIENTAL          00310400            109003104006             I02210121000031040000310400            30012100000000236293412897708000000000000000000000000000000000000000000000000000000000000000000000000000000000000000000000000000000080000000000000         00000000000000000000000CASAS GUANABARA COMESTIVEIS LT                                        000180
10205539814000112041300648601        CLEAN AMBIENTAL          00310401            109003104014             I02210121000031040100310401            30012100000000236293412897708000000000000000000000000000000000000000000000000000000000000000000000000000000000000000000000000000000080000000000000         00000000000000000000000CASAS GUANABARA COMESTIVEIS LT                                        000181
10205539814000112041300648601        CLEAN AMBIENTAL          00310402            109003104022             I02210121000031040200310402            30012100000000236293412897708000000000000000000000000000000000000000000000000000000000000000000000000000000000000000000000000000000080000000000000         00000000000000000000000CASAS GUANABARA COMESTIVEIS LT                                        000182
10205539814000112041300648601        CLEAN AMBIENTAL          00310403            109003104030             I02210121000031040300310403            30012100000000084213412897708000000000000000000000000000000000000000000000000000000000000000000000000000000000000000000000000000000030000000000000         00000000000000000000000LUANA TAVEIROS FARIA                                                  000183
10205539814000112041300648601        CLEAN AMBIENTAL          00310404            109003104048             I02210121000031040400310404            30012100000000066843412897708000000000000000000000000000000000000000000000000000000000000000000000000000000000000000000000000000000020000000000000         00000000000000000000000FRANCISCO ALBERTO MARTINS TORQ                                        000184
10205539814000112041300648601        CLEAN AMBIENTAL          00310405            109003104055             I02210121000031040500310405            01022100000000071843412897708000000000000000000000000000000000000000000000000000000000000000000000000000000000000000000000000000000020000000000000         00000000000000000000000GABRIELLA MAATRIYK DE OLIVEIRA                                        000185
10205539814000112041300648601        CLEAN AMBIENTAL          00310406            109003104063             I02210121000031040600310406            30012100000000668163412897708000000000000000000000000000000000000000000000000000000000000000000000000000000000000000000000000000000220000000000000         00000000000000000000000CONTEXTO CONSULTORIA E EMPREEN                                        000186
10205539814000112041300648601        CLEAN AMBIENTAL          00310407            109003104071             I02210121000031040700310407            30012100000000053683412897708000000000000000000000000000000000000000000000000000000000000000000000000000000000000000000000000000000020000000000000         00000000000000000000000VETERINARIA VARGEM PEQUENA LTD                                        000187
10205539814000112041300648601        CLEAN AMBIENTAL          00310408            109003104089             I02210121000031040800310408            01022100000000068163416849408000000000000000000000000000000000000000000000000000000000000000000000000000000000000000000000000000000020000000000000         00000000000000000000000MARCELO NASCIMENTO DA SILVA                                           000188
10205539814000112041300648601        CLEAN AMBIENTAL          00310409            109003104097             I02210121000031040900310409            01022100000000053163412897708000000000000000000000000000000000000000000000000000000000000000000000000000000000000000000000000000000020000000000000         00000000000000000000000ANGELICA GOMES DA GRACA 071921                                        000189
10205539814000112041300648601        CLEAN AMBIENTAL          00310410            109003104105             I02210121000031041000310410            02022100000000056323411306008000000000000000000000000000000000000000000000000000000000000000000000000000000000000000000000000000000020000000000000         00000000000000000000000DOUTOR ODONTO CLINICA ODONTOLO                                        000190
10205539814000112041300648601        CLEAN AMBIENTAL          00310411            109003104113             I02210121000031041100310411            01022100000000093043412897708000000000000000000000000000000000000000000000000000000000000000000000000000000000000000000000000000000030000000000000         00000000000000000000000DOUTOR TUDO CLINICA MEDICA E O                                        000191
10205539814000112041300648601        CLEAN AMBIENTAL          00310412            109003104121             I02210121000031041200310412            20022100000000227113412897708000000000000000000000000000000000000000000000000000000000000000000000000000000000000000000000000000000070000000000000         00000000000000000000000CSO 2018 CENTRO SERVICOS ODONT                                        000192
10205539814000112041300648601        CLEAN AMBIENTAL          00310413            109003104139             I02210121000031041300310413            01022100000000303323412897708000000000000000000000000000000000000000000000000000000000000000000000000000000000000000000000000000000100000000000000         00000000000000000000000LETRAC DA PRATA BAR E LANCHONE                                        000193
10205539814000112041300648601        CLEAN AMBIENTAL          00310414            109003104147             I02210121000031041400310414            10022100000000736683412897708000000000000000000000000000000000000000000000000000000000000000000000000000000000000000000000000000000240000000000000         00000000000000000000000GASTROSERVICE REF LTDA                                                000194
10205539814000112041300648601        CLEAN AMBIENTAL          00310415            109003104154             I02210121000031041500310415            15022100000000821613412897708000000000000000000000000000000000000000000000000000000000000000000000000000000000000000000000000000000270000000000000         00000000000000000000000BANCO BRADESCO S.A.                                                   000195
10205539814000112041300648601        CLEAN AMBIENTAL          00310416            109003104162             I02210121000031041600310416            05022100000003352633412897708000000000000000000000000000000000000000000000000000000000000000000000000000000000000000000000000000011060000000000000         00000000000000000000000C DESIGN HOTEL EMPREENDIMENTOS                                        000196
10205539814000112041300648601        CLEAN AMBIENTAL          00310417            109003104170             I02210121000031041700310417            30012100000012261183410059608000000000000000000000000000000000000000000000000000000000000000000000000000000000000000000000000000040460000000000000         00000000000000000000000CASAS GUANABARA COMESTIVEIS LT                                        000197
10205539814000112041300648601        CLEAN AMBIENTAL          00310418            109003104188             I02210121000031041800310418            30012100000007177263412897708000000000000000000000000000000000000000000000000000000000000000000000000000000000000000000000000000023680000000000000         00000000000000000000000CASAS GUANABARA COMESTIVEIS LT                                        000198
10205539814000112041300648601        CLEAN AMBIENTAL          00310419            109003104196             I02210121000031041900310419            01022100000001652113412897708000000000000000000000000000000000000000000000000000000000000000000000000000000000000000000000000000005450000000000000         00000000000000000000000PANIFICACAO SANTA MARTA LTDA                                          000199
10205539814000112041300648601        CLEAN AMBIENTAL          00310420            109003104204             I02210121000031042000310420            01022100000001650003412897708000000000000000000000000000000000000000000000000000000000000000000000000000000000000000000000000000005450000000000000         00000000000000000000000PANIFICACAO E CONFEITARIA PANO                                        000200
10205539814000112041300648601        CLEAN AMBIENTAL          00310421            109003104212             I02210121000031042100310421            01022100000000590013412897708000000000000000000000000000000000000000000000000000000000000000000000000000000000000000000000000000000190000000000000         00000000000000000000000THE UNION CHURCH OF RIO DE JAN                                        000201
10205539814000112041300648601        CLEAN AMBIENTAL          00310422            109003104220             I02210121000031042200310422            30012100000005880133411306008000000000000000000000000000000000000000000000000000000000000000000000000000000000000000000000000000019400000000000000         00000000000000000000000CASAS GUANABARA COMESTIVEIS LT                                        000202
10205539814000112041300648601        CLEAN AMBIENTAL          00310423            109003104238             I02210121000031042300310423            30012100000004468423411306008000000000000000000000000000000000000000000000000000000000000000000000000000000000000000000000000000014750000000000000         00000000000000000000000PRA EMPREENDIMENTOS E PARTICIP                                        000203
10205539814000112041300648601        CLEAN AMBIENTAL          00310424            109003104246             I02210121000031042400310424            20022100000000399483412897708000000000000000000000000000000000000000000000000000000000000000000000000000000000000000000000000000000130000000000000         00000000000000000000000LEUZINGER & ELARRAT INSTITUTO                                         000204
10205539814000112041300648601        CLEAN AMBIENTAL          00310425            109003104253             I02210121000031042500310425            05022100000001677463412897708000000000000000000000000000000000000000000000000000000000000000000000000000000000000000000000000000005540000000000000         00000000000000000000000CLUBE OLIMPICO DE JACAREPAGUA                                         000205
10205539814000112041300648601        CLEAN AMBIENTAL          00310426            109003104261             I02210121000031042600310426            05022100000001268473412897708000000000000000000000000000000000000000000000000000000000000000000000000000000000000000000000000000004190000000000000         00000000000000000000000RUSTICO'S RESTAURANTE LTDA - M                                        000206
10205539814000112041300648601        CLEAN AMBIENTAL          00310427            109003104279             I02210121000031042700310427            07022100000000436423412897708000000000000000000000000000000000000000000000000000000000000000000000000000000000000000000000000000000140000000000000         00000000000000000000000NOVA GERACAO COMESTIVEIS S.A                                          000207
10205539814000112041300648601        CLEAN AMBIENTAL          00310428            109003104287             I02210121000031042800310428            10022100000001598543412897708000000000000000000000000000000000000000000000000000000000000000000000000000000000000000000000000000005280000000000000         00000000000000000000000CONDOMINIO DO EDIFICIO BLUE SQ                                        000208
10205539814000112041300648601        CLEAN AMBIENTAL          00310429            109003104295             I02210121000031042900310429            11022100000001485623412897708000000000000000000000000000000000000000000000000000000000000000000000000000000000000000000000000000004900000000000000         00000000000000000000000JV2D INSTITUTO DE BELEZA LTDA                                         000209
10205539814000112041300648601        CLEAN AMBIENTAL          00310430            109003104303             I02210121000031043000310430            30012100000004300383410229508000000000000000000000000000000000000000000000000000000000000000000000000000000000000000000000000000014190000000000000         00000000000000000000000CASAS GUANABARA COMESTIVEIS LT                                        000210
10205539814000112041300648601        CLEAN AMBIENTAL          00310431            109003104311             I02210121000031043100310431            30012100000003808423412897708000000000000000000000000000000000000000000000000000000000000000000000000000000000000000000000000000012570000000000000         00000000000000000000000CASAS GUANABARA COMESTIVEIS LT                                        000211
10205539814000112041300648601        CLEAN AMBIENTAL          00310432            109003104329             I02210121000031043200310432            30012100000007006153410201408000000000000000000000000000000000000000000000000000000000000000000000000000000000000000000000000000023120000000000000         00000000000000000000000CASAS GUANABARA COMESTIVEIS LT                                        000212
10205539814000112041300648601        CLEAN AMBIENTAL          00310433            109003104337             I02210121000031043300310433            30012100000004119663411282308000000000000000000000000000000000000000000000000000000000000000000000000000000000000000000000000000013590000000000000         00000000000000000000000CASAS GUANABARA COMESTIVEIS LT                                        000213
10205539814000112041300648601        CLEAN AMBIENTAL          00310434            109003104345             I02210121000031043400310434            30012100000001079163412897708000000000000000000000000000000000000000000000000000000000000000000000000000000000000000000000000000003560000000000000         00000000000000000000000CASAS GUANABARA COMESTIVEIS LT                                        000214
10205539814000112041300648601        CLEAN AMBIENTAL          00310435            109003104352             I02210121000031043500310435            30012100000005145263412897708000000000000000000000000000000000000000000000000000000000000000000000000000000000000000000000000000016980000000000000         00000000000000000000000CASAS GUANABARA COMESTIVEIS LT                                        000215
10205539814000112041300648601        CLEAN AMBIENTAL          00310436            109003104360             I02210121000031043600310436            01022100000001734403412897708000000000000000000000000000000000000000000000000000000000000000000000000000000000000000000000000000005720000000000000         00000000000000000000000FRANCISCO RAMOS ALIMENTOS LTDA                                        000216
10205539814000112041300648601        CLEAN AMBIENTAL          00310437            109003104378             I02210121000031043700310437            01022100000000846393412897708000000000000000000000000000000000000000000000000000000000000000000000000000000000000000000000000000000280000000000000         00000000000000000000000FIORINO BAR E RESTAURANTE LTDA                                        000217
10205539814000112041300648601        CLEAN AMBIENTAL          00310438            109003104386             I02210121000031043800310438            01022100000000628003412897708000000000000000000000000000000000000000000000000000000000000000000000000000000000000000000000000000000210000000000000         00000000000000000000000JHLC - PROSPER REFEICOES LTDA                                         000218
10205539814000112041300648601        CLEAN AMBIENTAL          00310439            109003104394             I02210121000031043900310439            01022100000000221593412897708000000000000000000000000000000000000000000000000000000000000000000000000000000000000000000000000000000070000000000000         00000000000000000000000SOCIEDADE EDUCACAO E CARIDADE                                         000219
10205539814000112041300648601        CLEAN AMBIENTAL          00310440            109003104402             I02210121000031044000310440            01022100000000553263412897708000000000000000000000000000000000000000000000000000000000000000000000000000000000000000000000000000000180000000000000         00000000000000000000000CAFE E BAR POLUMA LTDA                                                000220
10205539814000112041300648601        CLEAN AMBIENTAL          00310441            109003104410             I02210121000031044100310441            10022100000001120373412897708000000000000000000000000000000000000000000000000000000000000000000000000000000000000000000000000000003700000000000000         00000000000000000000000PEIXARIA LEBLON BAR E RESTAURA                                        000221
10205539814000112041300648601        CLEAN AMBIENTAL          00310442            109003104428             I02210121000031044200310442            01022100000000377113412897708000000000000000000000000000000000000000000000000000000000000000000000000000000000000000000000000000000120000000000000         00000000000000000000000RJ FRUTERE COMERCIO DE FRUTAS                                         000222
10205539814000112041300648601        CLEAN AMBIENTAL          00310443            109003104436             I02210121000031044300310443            01022100000000815533412897708000000000000000000000000000000000000000000000000000000000000000000000000000000000000000000000000000000270000000000000         00000000000000000000000BAKERY CONFEITARIA E PIZZARIA                                         000223
10205539814000112041300648601        CLEAN AMBIENTAL          00310444            109003104444             I02210121000031044400310444            01022100000001367883412897708000000000000000000000000000000000000000000000000000000000000000000000000000000000000000000000000000004510000000000000         00000000000000000000000MULTILIXO REMOCOES DE LIXO SS                                         000224
10205539814000112041300648601        CLEAN AMBIENTAL          00310445            109003104451             I02210121000031044500310445            01022100000000629173412897708000000000000000000000000000000000000000000000000000000000000000000000000000000000000000000000000000000210000000000000         00000000000000000000000EC JAPONES RESTAURANTE LTDA                                           000225
10205539814000112041300648601        CLEAN AMBIENTAL          00310446            109003104469             I02210121000031044600310446            01022100000000274473412897708000000000000000000000000000000000000000000000000000000000000000000000000000000000000000000000000000000090000000000000         00000000000000000000000CAFE E BAR CINCO VALPORTO LTDA                                        000226
10205539814000112041300648601        CLEAN AMBIENTAL          00310447            109003104477             I02210121000031044700310447            01022100000000616693412897708000000000000000000000000000000000000000000000000000000000000000000000000000000000000000000000000000000200000000000000         00000000000000000000000PADARIA E CONFEITARIA VILLA\\\                                        000227
10205539814000112041300648601        CLEAN AMBIENTAL          00310448            109003104485             I02210121000031044800310448            10022100000000273683412897708000000000000000000000000000000000000000000000000000000000000000000000000000000000000000000000000000000090000000000000         00000000000000000000000LANCHONETE E PASTELARIA NOVA B                                        000228
10205539814000112041300648601        CLEAN AMBIENTAL          00310449            109003104493             I02210121000031044900310449            01022100000000392633412897708000000000000000000000000000000000000000000000000000000000000000000000000000000000000000000000000000000130000000000000         00000000000000000000000LANCHONETE TOP DE CAMPO GRANDE                                        000229
10205539814000112041300648601        CLEAN AMBIENTAL          00310450            109003104501             I02210121000031045000310450            15022100000000787833412897708000000000000000000000000000000000000000000000000000000000000000000000000000000000000000000000000000000260000000000000         00000000000000000000000SPORT SUCOS GAVEA CONFEITARIA                                         000230
10205539814000112041300648601        CLEAN AMBIENTAL          00310451            109003104519             I02210121000031045100310451            01022100000000776753412897708000000000000000000000000000000000000000000000000000000000000000000000000000000000000000000000000000000260000000000000         00000000000000000000000EDIFICIO COPACABANA EXECUTIVE                                         000231
10205539814000112041300648601        CLEAN AMBIENTAL          00310452            109003104527             I02210121000031045200310452            10022100000000523483412897708000000000000000000000000000000000000000000000000000000000000000000000000000000000000000000000000000000170000000000000         00000000000000000000000IZAKAYA LANCHONETE LTDA                                               000232
10205539814000112041300648601        CLEAN AMBIENTAL          00310453            109003104535             I02210121000031045300310453            06022100000000452233412897708000000000000000000000000000000000000000000000000000000000000000000000000000000000000000000000000000000150000000000000         00000000000000000000000COND DO EDIF DA AVENIDA NOSSA                                         000233
10205539814000112041300648601        CLEAN AMBIENTAL          00310454            109003104543             I02210121000031045400310454            01022100000000414733412897708000000000000000000000000000000000000000000000000000000000000000000000000000000000000000000000000000000140000000000000         00000000000000000000000CHURRASQUETO DO LEME RESTAURAN                                        000234
10205539814000112041300648601        CLEAN AMBIENTAL          00310455            109003104550             I02210121000031045500310455            01022100000000326323412897708000000000000000000000000000000000000000000000000000000000000000000000000000000000000000000000000000000110000000000000         00000000000000000000000RESTAURANTE NOVO ENCONTRO LTDA                                        000235
10205539814000112041300648601        CLEAN AMBIENTAL          00310456            109003104568             I02210121000031045600310456            01022100000000597473412897708000000000000000000000000000000000000000000000000000000000000000000000000000000000000000000000000000000200000000000000         00000000000000000000000B LISCOS & P TISCOS BEBIDAS E                                         000236
10205539814000112041300648601        CLEAN AMBIENTAL          00310457            109003104576             I02210121000031045700310457            01022100000000525473412897708000000000000000000000000000000000000000000000000000000000000000000000000000000000000000000000000000000170000000000000         00000000000000000000000PADARIA E CONFEITARIA NOVA AUR                                        000237
10205539814000112041300648601        CLEAN AMBIENTAL          00310458            109003104584             I02210121000031045800310458            15022100000001564003412897708000000000000000000000000000000000000000000000000000000000000000000000000000000000000000000000000000005160000000000000         00000000000000000000000CONDOMINIO DO EDIFICIO BORDALL                                        000238
10205539814000112041300648601        CLEAN AMBIENTAL          00310459            109003104592             I02210121000031045900310459            01022100000000495023412897708000000000000000000000000000000000000000000000000000000000000000000000000000000000000000000000000000000160000000000000         00000000000000000000000CONDOMINIO DO CENTRO COMERCIAL                                        000239
10205539814000112041300648601        CLEAN AMBIENTAL          00310460            109003104600             I02210121000031046000310460            01022100000000245003412897708000000000000000000000000000000000000000000000000000000000000000000000000000000000000000000000000000000080000000000000         00000000000000000000000CAFE E BAR IMPERADOR DO LEME L                                        000240
10205539814000112041300648601        CLEAN AMBIENTAL          00310461            109003104618             I02210121000031046100310461            01022100000000534943412897708000000000000000000000000000000000000000000000000000000000000000000000000000000000000000000000000000000180000000000000         00000000000000000000000LANCHONETE CEPRANO LTDA - ME                                          000241
10205539814000112041300648601        CLEAN AMBIENTAL          00310462            109003104626             I02210121000031046200310462            01022100000000317793412897708000000000000000000000000000000000000000000000000000000000000000000000000000000000000000000000000000000100000000000000         00000000000000000000000LIDER RIO VEICULOS S/A                                                000242
10205539814000112041300648601        CLEAN AMBIENTAL          00310463            109003104634             I02210121000031046300310463            06022100000000137683412897708000000000000000000000000000000000000000000000000000000000000000000000000000000000000000000000000000000050000000000000         00000000000000000000000ACOUGUE LEME LIMITADA - EPP                                           000243
10205539814000112041300648601        CLEAN AMBIENTAL          00310464            109003104642             I02210121000031046400310464            01022100000000689213412897708000000000000000000000000000000000000000000000000000000000000000000000000000000000000000000000000000000230000000000000         00000000000000000000000CONDOMINIO DO EDIFICIO WAFA                                           000244
10205539814000112041300648601        CLEAN AMBIENTAL          00310465            109003104659             I02210121000031046500310465            01022100000000347823412897708000000000000000000000000000000000000000000000000000000000000000000000000000000000000000000000000000000110000000000000         00000000000000000000000J. PAIVA DE CAMPO GRANDE VIDRO                                        000245
10205539814000112041300648601        CLEAN AMBIENTAL          00310466            109003104667             I02210121000031046600310466            01022100000001379993412897708000000000000000000000000000000000000000000000000000000000000000000000000000000000000000000000000000004550000000000000         00000000000000000000000EDIFICIO SANTO AFONSO                                                 000246
10205539814000112041300648601        CLEAN AMBIENTAL          00310467            109003104675             I02210121000031046700310467            05022100000000345733412897708000000000000000000000000000000000000000000000000000000000000000000000000000000000000000000000000000000110000000000000         00000000000000000000000CONDOMINIO DO EDIFICIO PREMIER                                        000247
10205539814000112041300648601        CLEAN AMBIENTAL          00310468            109003104683             I02210121000031046800310468            01022100000000478403412897708000000000000000000000000000000000000000000000000000000000000000000000000000000000000000000000000000000160000000000000         00000000000000000000000CONDOMINIO DO EDIFICIO HERCULE                                        000248
