02RETORNO01COBRANCA       041300648601        CLEAN AMB SERV COL TRANSP LTDA341BANCO ITAU S.A.23122001600BPI02570231220                                                                                                                                                                                                                                                                                   000001
10205539814000112041300648601        CLEAN AMBIENTAL          00259474            109002594744             I04221220000025947400259474            29122000000000141483410201408000000000000000000000000000000000000000000000000000000000000000000000000000000000000000000000000000000000000000000000         00000000000000000000000L OREAL BRASIL COMERCIAL DE CO                                        000002
10205539814000112041300648601        CLEAN AMBIENTAL          00299271            109002992716             I04221220000029927100299271            23122000000000867893412897708000000000000000000000000000000000000000000000000000000000000000000000000000000000000000000000000000000000000000000000         00000000000000000000000CANTINA DA PRACA BAR E LANCHON                                        000003
10205539814000112041300648601        CLEAN AMBIENTAL          00299725            109002997251             I04221220000029972500299725            23122000000001491043412897708000000000000000000000000000000000000000000000000000000000000000000000000000000000000000000000000000000000000000000000         00000000000000000000000MERCEARIA DA PRACA COMERCIO DE                                        000004
10205539814000112041300648601        CLEAN AMBIENTAL          00300658            109003006581             I04221220000030065800300658            23122000000000392983412897708000000000000000000000000000000000000000000000000000000000000000000000000000000000000000000000000000000000000000000000         00000000000000000000000ASSOCIACAO CRISTA DE MOCOS DO                                         000005
10205539814000112041300648601        CLEAN AMBIENTAL          00300659            109003006599             I04221220000030065900300659            23122000000003301813412897708000000000000000000000000000000000000000000000000000000000000000000000000000000000000000000000000000000000000000000000         00000000000000000000000ASSOCIACAO CRISTA DE MOCOS DO                                         000006
10205539814000112041300648601        CLEAN AMBIENTAL          00302117            109003021176             I04221220000030211700302117            22122000000003238953412897708000000000000000000000000000000000000000000000000000000000000000000000000000000000000000000000000000000000000000000000         00000000000000000000000MERCADO ADONAI DA VILA NOVA LT                                        000007
10205539814000112041300648601        CLEAN AMBIENTAL          00302167            109003021671             I04221220000030216700302167            23122000000000117133412897708000000000000000000000000000000000000000000000000000000000000000000000000000000000000000000000000000000000000000000000         00000000000000000000000IDDO - INSTITUTO DIGITAL DE DI                                        000008
10205539814000112041300648601        CLEAN AMBIENTAL          00302278            109003022786             I04221220000030227800302278            22122000000002944213412897708000000000000000000000000000000000000000000000000000000000000000000000000000000000000000000000000000000000000000000000         00000000000000000000000MERCADO ADONAI DA RIO SAO PAUL                                        000009
10205539814000112041300648601        CLEAN AMBIENTAL          00302428            109003024287             I04221220000030242800302428            23122000000000426583412897708000000000000000000000000000000000000000000000000000000000000000000000000000000000000000000000000000000000000000000000         00000000000000000000000SUPERMERCADO DE CARNES BIFE BO                                        000010
10205539814000112041300648601        CLEAN AMBIENTAL          00302490            109003024907             I04221220000030249000302490            23122000000001923793412897708000000000000000000000000000000000000000000000000000000000000000000000000000000000000000000000000000000000000000000000         00000000000000000000000PANIFICACAO IPANEMA LTDA                                              000011
10205539814000112041300648601        CLEAN AMBIENTAL          00302770            109003027702             I04221220000030277000302770            23122000000000708723412897708000000000000000000000000000000000000000000000000000000000000000000000000000000000000000000000000000000000000000000000         00000000000000000000000CAFE E BAR LUSO TIJUCA                                                000012
10205539814000112041300648601        CLEAN AMBIENTAL          00302900            109003029005             I04221220000030290000302900            23122000000000416843410201408000000000000000000000000000000000000000000000000000000000000000000000000000000000000000000000000000000000000000000000         00000000000000000000000BAR E RESTAURANTE FORNERIA DEL                                        000013
10205539814000112041300648601        CLEAN AMBIENTAL          00302951            109003029518             I04221220000030295100302951            24122000000001658953412897708000000000000000000000000000000000000000000000000000000000000000000000000000000000000000000000000000000000000000000000         00000000000000000000000SARAU BAR E RESTAURANTE LTDA                                          000014
10205539814000112041300648601        CLEAN AMBIENTAL          00302953            109003029534             I04221220000030295300302953            23122000000000480193412897708000000000000000000000000000000000000000000000000000000000000000000000000000000000000000000000000000000000000000000000         00000000000000000000000RESTAURANTE FOLHAS E AMENDOAS                                         000015
10205539814000112041300648601        CLEAN AMBIENTAL          00303099            109003030995             I04221220000030309900303099            23122000000000852473412897708000000000000000000000000000000000000000000000000000000000000000000000000000000000000000000000000000000000000000000000         00000000000000000000000CENTRO GERIATRICO E GERONTOLOG                                        000016
10205539814000112041300648601        CLEAN AMBIENTAL          00303144            109003031449             I04221220000030314400303144            23122000000000418953412897708000000000000000000000000000000000000000000000000000000000000000000000000000000000000000000000000000000000000000000000         00000000000000000000000BANCO BRADESCO S/A                                                    000017
10205539814000112041300648601        CLEAN AMBIENTAL          00303262            109003032629             I04221220000030326200303262            23122000000001626883412897708000000000000000000000000000000000000000000000000000000000000000000000000000000000000000000000000000000000000000000000         00000000000000000000000LANCHONETE DIAS SANTOS LTDA                                           000018
10205539814000112041300648601        CLEAN AMBIENTAL          00303410            109003034104             I04221220000030341000303410            22122000000001496253412897708000000000000000000000000000000000000000000000000000000000000000000000000000000000000000000000000000000000000000000000         00000000000000000000000AMBIENT AIR AR CONDICIONADO LT                                        000019
10205539814000112041300648601        CLEAN AMBIENTAL          00303426            109003034260             I04221220000030342600303426            23122000000000560683412897708000000000000000000000000000000000000000000000000000000000000000000000000000000000000000000000000000000000000000000000         00000000000000000000000BIAMAR RIO DISTRIBUIDORA DE PE                                        000020
10205539814000112041300648601        CLEAN AMBIENTAL          00303698            109003036984             I04221220000030369800303698            23122000000000548453412897708000000000000000000000000000000000000000000000000000000000000000000000000000000000000000000000000000000000000000000000         00000000000000000000000STAMBUL IPANEMA BAR E RESTAURA                                        000021
10205539814000112041300648601        CLEAN AMBIENTAL          00303947            109003039475             I04221220000030394700303947            18122000000007818283412897708000000000000000000000000000000000000000000000000000000000000000000000000000000000000000000000000000000000000000000000         00000000000000000000000CASA DE SAUDE LARANJEIRAS LTDA                                        000022
10205539814000112041300648601        CLEAN AMBIENTAL          00304013            109003040135             I04221220000030401300304013            23122000000001002113412897708000000000000000000000000000000000000000000000000000000000000000000000000000000000000000000000000000000000000000000000         00000000000000000000000CANTINA DA PRACA BAR E LANCHON                                        000023
10205539814000112041300648601        CLEAN AMBIENTAL          00304233            109003042339             I04221220000030423300304233            24122000000000476053412897708000000000000000000000000000000000000000000000000000000000000000000000000000000000000000000000000000000000000000000000         00000000000000000000000MISTURA CASUAL RESTAURANTE LTD                                        000024
10205539814000112041300648601        CLEAN AMBIENTAL          00304262            109003042628             I04221220000030426200304262            23122000000000450363412897708000000000000000000000000000000000000000000000000000000000000000000000000000000000000000000000000000000000000000000000         00000000000000000000000ODONTOCLINICA DE PACIENCIA LTD                                        000025
10205539814000112041300648601        CLEAN AMBIENTAL          00304406            109003044061             I04221220000030440600304406            23122000000000430783412897708000000000000000000000000000000000000000000000000000000000000000000000000000000000000000000000000000000000000000000000         00000000000000000000000HORTIFRUT SAO CLEMENTE LTDA                                           000026
10205539814000112041300648601        CLEAN AMBIENTAL          00304412            109003044129             I04221220000030441200304412            23122000000001607893412897708000000000000000000000000000000000000000000000000000000000000000000000000000000000000000000000000000000000000000000000         00000000000000000000000MERCEARIA DA PRACA COMERCIO DE                                        000027
10205539814000112041300648601        CLEAN AMBIENTAL          00304428            109003044285             I04221220000030442800304428            22122000000000452263412897708000000000000000000000000000000000000000000000000000000000000000000000000000000000000000000000000000000000000000000000         00000000000000000000000B. SCHVARTZ MERCEARIA                                                 000028
10205539814000112041300648601        CLEAN AMBIENTAL          00304447            109003044475             I04221220000030444700304447            23122000000000463253412897708000000000000000000000000000000000000000000000000000000000000000000000000000000000000000000000000000000000000000000000         00000000000000000000000BAR PEIXE NA MESA LTDA                                                000029
10205539814000112041300648601        CLEAN AMBIENTAL          00304452            109003044525             I04221220000030445200304452            23122000000000440483412897708000000000000000000000000000000000000000000000000000000000000000000000000000000000000000000000000000000000000000000000         00000000000000000000000SUPERMERCADOS MULTI ECONOMIA E                                        000030
10205539814000112041300648601        CLEAN AMBIENTAL          00304467            109003044673             I04221220000030446700304467            23122000000000347053412897708000000000000000000000000000000000000000000000000000000000000000000000000000000000000000000000000000000000000000000000         00000000000000000000000PREIS COMERCIO DE PRODUTOS ALI                                        000031
10205539814000112041300648601        CLEAN AMBIENTAL          00304473            109003044731             I04221220000030447300304473            23122000000000460003412897708000000000000000000000000000000000000000000000000000000000000000000000000000000000000000000000000000000000000000000000         00000000000000000000000POSTO DE GASOLINA VILA FLOR LT                                        000032
10205539814000112041300648601        CLEAN AMBIENTAL          00304534            109003045340             I04221220000030453400304534            22122000000001607373412897708000000000000000000000000000000000000000000000000000000000000000000000000000000000000000000000000000000000000000000000         00000000000000000000000ALBANATO MEDICINA DIAGNOSTICA                                         000033
10205539814000112041300648601        CLEAN AMBIENTAL          00304887            109003048872             I04221220000030488700304887            23122000000000214213410059608000000000000000000000000000000000000000000000000000000000000219210000000000000000000000000000000000000000000000000000         00000000000000000000000DIVA S CENTRO DE BELEZA E ESTE                                        000034
10205539814000112041300648601        CLEAN AMBIENTAL          00305284            109003052841             I04221220000030528400305284            27122000000004211793412897708000000000000000000000000000000000000000000000000000000000000048420000000000000000000000000000000000000000000000000000         00000000000000000000000SUPERLAR LOJAS DE DEPARTAMENTO                                        000035
10205539814000112041300648601        CLEAN AMBIENTAL          00305589            109003055893             I04221220000030558900305589            30122000000000726843411282308000000000000000000000000000000000000000000000000000000000000005000000000000000000000000000000000000000000000000000000         00000000000000000000000RIO DROG S DISTRIBUIDORA DE PR                                        000036
10205539814000112041300648601        CLEAN AMBIENTAL          00305983            109003059838             I02231220000030598300305983            03012100000000080683412897708000000000000000000000000000000000000000000000000000000000000000000000000000000000000000000000000000000030000000000000         00000000000000000000000EDUART COIFFEUR CABELEIREIROS                                         000037
10205539814000112041300648601        CLEAN AMBIENTAL          00305984            109003059846             I02231220000030598400305984            03012100000000061323412897708000000000000000000000000000000000000000000000000000000000000000000000000000000000000000000000000000000020000000000000         00000000000000000000000LINLORS SERVICOS E ASSISTENCIA                                        000038
10205539814000112041300648601        CLEAN AMBIENTAL          00305985            109003059853             I02231220000030598500305985            03012100000000516383412897708000000000000000000000000000000000000000000000000000000000000000000000000000000000000000000000000000000170000000000000         00000000000000000000000IGOR HERNANDES ALVES DA COSTA                                         000039
10205539814000112041300648601        CLEAN AMBIENTAL          00305986            109003059861             I02231220000030598600305986            03012100000001305323412897708000000000000000000000000000000000000000000000000000000000000000000000000000000000000000000000000000004310000000000000         00000000000000000000000CASA DE REPOUSO PARA IDOSOS AM                                        000040
10205539814000112041300648601        CLEAN AMBIENTAL          00305987            109003059879             I02231220000030598700305987            03012100000000362143412897708000000000000000000000000000000000000000000000000000000000000000000000000000000000000000000000000000000120000000000000         00000000000000000000000SUCOS E LANCHES TRES AMIGOS LT                                        000041
10205539814000112041300648601        CLEAN AMBIENTAL          00305988            109003059887             I02231220000030598800305988            03012100000000528423412897708000000000000000000000000000000000000000000000000000000000000000000000000000000000000000000000000000000170000000000000         00000000000000000000000POLOBATO BAR E RESTAURANTE LTD                                        000042
10205539814000112041300648601        CLEAN AMBIENTAL          00305989            109003059895             I02231220000030598900305989            08012100000000433373412897708000000000000000000000000000000000000000000000000000000000000000000000000000000000000000000000000000000140000000000000         00000000000000000000000NOVA GERACAO COMESTIVEIS S.A                                          000043
10205539814000112041300648601        CLEAN AMBIENTAL          00305990            109003059903             I02231220000030599000305990            05012100000000681183412897708000000000000000000000000000000000000000000000000000000000000000000000000000000000000000000000000000000220000000000000         00000000000000000000000H STERN COMERCIO E INDUSTRIA S                                        000044
10205539814000112041300648601        CLEAN AMBIENTAL          00305991            109003059911             I02231220000030599100305991            05012100000000527553412897708000000000000000000000000000000000000000000000000000000000000000000000000000000000000000000000000000000170000000000000         00000000000000000000000H STERN COMERCIO E INDUSTRIA S                                        000045
10205539814000112041300648601        CLEAN AMBIENTAL          00305992            109003059929             I02231220000030599200305992            08012100000000474853412897708000000000000000000000000000000000000000000000000000000000000000000000000000000000000000000000000000000160000000000000         00000000000000000000000MANCHESTER LANCHES LTDA                                               000046
10205539814000112041300648601        CLEAN AMBIENTAL          00305993            109003059937             I02231220000030599300305993            08012100000000464733412897708000000000000000000000000000000000000000000000000000000000000000000000000000000000000000000000000000000150000000000000         00000000000000000000000LANCHES SACK S LTDA                                                   000047
10205539814000112041300648601        CLEAN AMBIENTAL          00305994            109003059945             I02231220000030599400305994            03012100000000347743412897708000000000000000000000000000000000000000000000000000000000000000000000000000000000000000000000000000000110000000000000         00000000000000000000000ESCOLA INTEGRADA BEM VIVER LTD                                        000048
10205539814000112041300648601        CLEAN AMBIENTAL          00305995            109003059952             I02231220000030599500305995            08012100000000375883412897708000000000000000000000000000000000000000000000000000000000000000000000000000000000000000000000000000000120000000000000         00000000000000000000000NOVA GERACAO COMESTIVEIS S.A                                          000049
10205539814000112041300648601        CLEAN AMBIENTAL          00305996            109003059960             I02231220000030599600305996            15012100000000831893412897708000000000000000000000000000000000000000000000000000000000000000000000000000000000000000000000000000000270000000000000         00000000000000000000000CASA DE REPOUSO JACINTO ALCIDE                                        000050
10205539814000112041300648601        CLEAN AMBIENTAL          00305997            109003059978             I02231220000030599700305997            08012100000000108323412897708000000000000000000000000000000000000000000000000000000000000000000000000000000000000000000000000000000040000000000000         00000000000000000000000NOVA GERACAO COMESTIVEIS S.A                                          000051
10205539814000112041300648601        CLEAN AMBIENTAL          00305998            109003059986             I02231220000030599800305998            03012100000000559583412897708000000000000000000000000000000000000000000000000000000000000000000000000000000000000000000000000000000180000000000000         00000000000000000000000MARTINS DO IRAJA FRUTAS LTDA -                                        000052
10205539814000112041300648601        CLEAN AMBIENTAL          00305999            109003059994             I02231220000030599900305999            18012100000000091093412897708000000000000000000000000000000000000000000000000000000000000000000000000000000000000000000000000000000030000000000000         00000000000000000000000TEMPERO DA PRACA BAR E RESTAUR                                        000053
10205539814000112041300648601        CLEAN AMBIENTAL          00306000            109003060000             I02231220000030600000306000            15012100000000452473412897708000000000000000000000000000000000000000000000000000000000000000000000000000000000000000000000000000000150000000000000         00000000000000000000000BANCO BRADESCO S/A                                                    000054
10205539814000112041300648601        CLEAN AMBIENTAL          00306001            109003060018             I02231220000030600100306001            03012100000000351963412897708000000000000000000000000000000000000000000000000000000000000000000000000000000000000000000000000000000120000000000000         00000000000000000000000MASSAS FLORIANO LTDA - ME                                             000055
10205539814000112041300648601        CLEAN AMBIENTAL          00306002            109003060026             I02231220000030600200306002            03012100000000312633412897708000000000000000000000000000000000000000000000000000000000000000000000000000000000000000000000000000000100000000000000         00000000000000000000000O REI DOS FRANGOS MARITIMOS BA                                        000056
10205539814000112041300648601        CLEAN AMBIENTAL          00306003            109003060034             I02231220000030600300306003            08012100000000361043412897708000000000000000000000000000000000000000000000000000000000000000000000000000000000000000000000000000000120000000000000         00000000000000000000000BAR E LANCHONETE REX LTDA - ME                                        000057
10205539814000112041300648601        CLEAN AMBIENTAL          00306004            109003060042             I02231220000030600400306004            08012100000000420793412897708000000000000000000000000000000000000000000000000000000000000000000000000000000000000000000000000000000140000000000000         00000000000000000000000COLEGIO BRASILEIRO DE SAO CRIS                                        000058
10205539814000112041300648601        CLEAN AMBIENTAL          00306005            109003060059             I02231220000030600500306005            03012100000000360583412897708000000000000000000000000000000000000000000000000000000000000000000000000000000000000000000000000000000120000000000000         00000000000000000000000CONDOMINIO DO EDIFICIO FRANCIL                                        000059
10205539814000112041300648601        CLEAN AMBIENTAL          00306006            109003060067             I02231220000030600600306006            15012100000000241193412897708000000000000000000000000000000000000000000000000000000000000000000000000000000000000000000000000000000080000000000000         00000000000000000000000COPA 706 LANCHONETE LTDA - EPP                                        000060
10205539814000112041300648601        CLEAN AMBIENTAL          00306007            109003060075             I02231220000030600700306007            03012100000000323343412897708000000000000000000000000000000000000000000000000000000000000000000000000000000000000000000000000000000110000000000000         00000000000000000000000LAS VEGANS PRODUTOS NATURAIS L                                        000061
10205539814000112041300648601        CLEAN AMBIENTAL          00306008            109003060083             I02231220000030600800306008            03012100000000251133412897708000000000000000000000000000000000000000000000000000000000000000000000000000000000000000000000000000000080000000000000         00000000000000000000000RR GARCEZ 905 LANCHES E REFEIC                                        000062
10205539814000112041300648601        CLEAN AMBIENTAL          00306009            109003060091             I02231220000030600900306009            03012100000000395133412897708000000000000000000000000000000000000000000000000000000000000000000000000000000000000000000000000000000130000000000000         00000000000000000000000TUDO NOVO RESTAURANTE E PIZZAR                                        000063
10205539814000112041300648601        CLEAN AMBIENTAL          00306010            109003060109             I02231220000030601000306010            03012100000000364153412897708000000000000000000000000000000000000000000000000000000000000000000000000000000000000000000000000000000120000000000000         00000000000000000000000PADARIA E CONF CENTRAL DE MARE                                        000064
10205539814000112041300648601        CLEAN AMBIENTAL          00306011            109003060117             I02231220000030601100306011            03012100000000383873412897708000000000000000000000000000000000000000000000000000000000000000000000000000000000000000000000000000000130000000000000         00000000000000000000000CLASSICOS DO MARACA CAFE E BAR                                        000065
10205539814000112041300648601        CLEAN AMBIENTAL          00306012            109003060125             I02231220000030601200306012            03012100000000447183412897708000000000000000000000000000000000000000000000000000000000000000000000000000000000000000000000000000000150000000000000         00000000000000000000000MAVIMIX ADESIVOS DECORATIVOS L                                        000066
10205539814000112041300648601        CLEAN AMBIENTAL          00306013            109003060133             I02231220000030601300306013            15012100000000491423412897708000000000000000000000000000000000000000000000000000000000000000000000000000000000000000000000000000000160000000000000         00000000000000000000000LANCHONETE MEU CANTAO LTDA - E                                        000067
10205539814000112041300648601        CLEAN AMBIENTAL          00306014            109003060141             I02231220000030601400306014            03012100000000988003412897708000000000000000000000000000000000000000000000000000000000000000000000000000000000000000000000000000000330000000000000         00000000000000000000000CASA DE SAUDE AFFONSO MAC DOWE                                        000068
10205539814000112041300648601        CLEAN AMBIENTAL          00306015            109003060158             I02231220000030601500306015            25012100000001320003412897708000000000000000000000000000000000000000000000000000000000000000000000000000000000000000000000000000004360000000000000         00000000000000000000000CONDOMINIO DO EDIFICIO COMERCI                                        000069
10205539814000112041300648601        CLEAN AMBIENTAL          00306016            109003060166             I02231220000030601600306016            03012100000000540263412897708000000000000000000000000000000000000000000000000000000000000000000000000000000000000000000000000000000180000000000000         00000000000000000000000RLS COMERCIO DE ALIMENTOS LTDA                                        000070
10205539814000112041300648601        CLEAN AMBIENTAL          00306017            109003060174             I02231220000030601700306017            03012100000000995763412897708000000000000000000000000000000000000000000000000000000000000000000000000000000000000000000000000000000330000000000000         00000000000000000000000NA BRASA COLUMBIA ALIMENTACAO                                         000071
10205539814000112041300648601        CLEAN AMBIENTAL          00306018            109003060182             I02231220000030601800306018            03012100000000466593412897708000000000000000000000000000000000000000000000000000000000000000000000000000000000000000000000000000000150000000000000         00000000000000000000000N.P. CABRAL PADARIA E RESTAURA                                        000072
10205539814000112041300648601        CLEAN AMBIENTAL          00306019            109003060190             I02231220000030601900306019            15012100000000397253412897708000000000000000000000000000000000000000000000000000000000000000000000000000000000000000000000000000000130000000000000         00000000000000000000000BANCO BRADESCO S/A                                                    000073
10205539814000112041300648601        CLEAN AMBIENTAL          00306020            109003060208             I02231220000030602000306020            03012100000000578583412897708000000000000000000000000000000000000000000000000000000000000000000000000000000000000000000000000000000190000000000000         00000000000000000000000J CUNHA EMPREENDIMENTOS IMOBIL                                        000074
10205539814000112041300648601        CLEAN AMBIENTAL          00306021            109003060216             I02231220000030602100306021            03012100000000050503412897708000000000000000000000000000000000000000000000000000000000000000000000000000000000000000000000000000000020000000000000         00000000000000000000000MAMUSCAFE E BAR LTDA.                                                 000075
10205539814000112041300648601        CLEAN AMBIENTAL          00306022            109003060224             I02231220000030602200306022            03012100000000381843412897708000000000000000000000000000000000000000000000000000000000000000000000000000000000000000000000000000000130000000000000         00000000000000000000000PROJETO EDUCACIONAL FUTURO MEL                                        000076
10205539814000112041300648601        CLEAN AMBIENTAL          00306023            109003060232             I02231220000030602300306023            03012100000000357893412897708000000000000000000000000000000000000000000000000000000000000000000000000000000000000000000000000000000120000000000000         00000000000000000000000PIBIS & PABIS CAFE BAR LTDA -                                         000077
10205539814000112041300648601        CLEAN AMBIENTAL          00306024            109003060240             I02231220000030602400306024            03012100000000525003412897708000000000000000000000000000000000000000000000000000000000000000000000000000000000000000000000000000000170000000000000         00000000000000000000000T & S COMERCIO DE PRODUTOS ALI                                        000078
10205539814000112041300648601        CLEAN AMBIENTAL          00306025            109003060257             I02231220000030602500306025            03012100000000690573412897708000000000000000000000000000000000000000000000000000000000000000000000000000000000000000000000000000000230000000000000         00000000000000000000000FRUITWAY HORTIFRUTI LTDA - EPP                                        000079
10205539814000112041300648601        CLEAN AMBIENTAL          00306026            109003060265             I02231220000030602600306026            03012100000000285603412897708000000000000000000000000000000000000000000000000000000000000000000000000000000000000000000000000000000090000000000000         00000000000000000000000ALEXANDRE MARTINS RAMOS ALIMEN                                        000080
10205539814000112041300648601        CLEAN AMBIENTAL          00306027            109003060273             I02231220000030602700306027            03012100000000844613410059608000000000000000000000000000000000000000000000000000000000000000000000000000000000000000000000000000000280000000000000         00000000000000000000000ALAMEDA POINT SUPER LANCHES LT                                        000081
10205539814000112041300648601        CLEAN AMBIENTAL          00306028            109003060281             I02231220000030602800306028            03012100000000426713412897708000000000000000000000000000000000000000000000000000000000000000000000000000000000000000000000000000000140000000000000         00000000000000000000000MERCEARIA BRILHANTE 273 LTDA                                          000082
10205539814000112041300648601        CLEAN AMBIENTAL          00306029            109003060299             I02231220000030602900306029            15012100000000481223412897708000000000000000000000000000000000000000000000000000000000000000000000000000000000000000000000000000000160000000000000         00000000000000000000000BANCO BRADESCO S/A                                                    000083
10205539814000112041300648601        CLEAN AMBIENTAL          00306030            109003060307             I02231220000030603000306030            03012100000000388163412897708000000000000000000000000000000000000000000000000000000000000000000000000000000000000000000000000000000130000000000000         00000000000000000000000REFEICOES BRAGA MIQUELINO LTDA                                        000084
10205539814000112041300648601        CLEAN AMBIENTAL          00306031            109003060315             I02231220000030603100306031            03012100000000231843412897708000000000000000000000000000000000000000000000000000000000000000000000000000000000000000000000000000000080000000000000         00000000000000000000000ZINZANE COMERCIO E CONFECCAO D                                        000085
10205539814000112041300648601        CLEAN AMBIENTAL          00306032            109003060323             I02231220000030603200306032            03012100000001544583412897708000000000000000000000000000000000000000000000000000000000000000000000000000000000000000000000000000005100000000000000         00000000000000000000000SOLARIUM CASA DE FESTAS LTDA                                          000086
10205539814000112041300648601        CLEAN AMBIENTAL          00306033            109003060331             I02231220000030603300306033            03012100000000471023412897708000000000000000000000000000000000000000000000000000000000000000000000000000000000000000000000000000000160000000000000         00000000000000000000000BANANA BEER RESTAURANTE LTDA                                          000087
10205539814000112041300648601        CLEAN AMBIENTAL          00306034            109003060349             I02231220000030603400306034            03012100000000456583412897708000000000000000000000000000000000000000000000000000000000000000000000000000000000000000000000000000000150000000000000         00000000000000000000000BAR E LANCHONETE ALIBI LTDA                                           000088
10205539814000112041300648601        CLEAN AMBIENTAL          00306035            109003060356             I02231220000030603500306035            03012100000000224173412897708000000000000000000000000000000000000000000000000000000000000000000000000000000000000000000000000000000070000000000000         00000000000000000000000DELICIAS DO DAVI BOMBONIERES,                                         000089
10205539814000112041300648601        CLEAN AMBIENTAL          00306036            109003060364             I02231220000030603600306036            03012100000000276253412897708000000000000000000000000000000000000000000000000000000000000000000000000000000000000000000000000000000090000000000000         00000000000000000000000CULTIVAR ALIMENTOS LTDA                                               000090
10205539814000112041300648601        CLEAN AMBIENTAL          00306037            109003060372             I02231220000030603700306037            03012100000000858953412897708000000000000000000000000000000000000000000000000000000000000000000000000000000000000000000000000000000280000000000000         00000000000000000000000S.E.R GLORIA - SERVICOS DE EXC                                        000091
10205539814000112041300648601        CLEAN AMBIENTAL          00306038            109003060380             I02231220000030603800306038            20012100000000979473412897708000000000000000000000000000000000000000000000000000000000000000000000000000000000000000000000000000000320000000000000         00000000000000000000000CENTURYLINK COMUNICACOES DO BR                                        000092
10205539814000112041300648601        CLEAN AMBIENTAL          00306039            109003060398             I02231220000030603900306039            03012100000000298783412897708000000000000000000000000000000000000000000000000000000000000000000000000000000000000000000000000000000100000000000000         00000000000000000000000NOVA GERACAO COMESTIVEIS S.A                                          000093
10205539814000112041300648601        CLEAN AMBIENTAL          00306040            109003060406             I02231220000030604000306040            03012100000000197993412897708000000000000000000000000000000000000000000000000000000000000000000000000000000000000000000000000000000070000000000000         00000000000000000000000ROCHA PINTO SUCOS LTDA                                                000094
10205539814000112041300648601        CLEAN AMBIENTAL          00306041            109003060414             I02231220000030604100306041            10012100000000731323411282308000000000000000000000000000000000000000000000000000000000000000000000000000000000000000000000000000000240000000000000         00000000000000000000000LR2 PRODUTOS ALIMENTICIOS LTDA                                        000095
10205539814000112041300648601        CLEAN AMBIENTAL          00306042            109003060422             I02231220000030604200306042            03012100000000438683412897708000000000000000000000000000000000000000000000000000000000000000000000000000000000000000000000000000000140000000000000         00000000000000000000000CAFE E BAR REDENTOR LTDA                                              000096
10205539814000112041300648601        CLEAN AMBIENTAL          00306043            109003060430             I02231220000030604300306043            03012100000001265003412897708000000000000000000000000000000000000000000000000000000000000000000000000000000000000000000000000000004170000000000000         00000000000000000000000RESTAURANTE LAGOA LTDA                                                000097
10205539814000112041300648601        CLEAN AMBIENTAL          00306044            109003060448             I02231220000030604400306044            03012100000000132603412897708000000000000000000000000000000000000000000000000000000000000000000000000000000000000000000000000000000040000000000000         00000000000000000000000PROSIL CLINICA MEDICA  INFANTI                                        000098
10205539814000112041300648601        CLEAN AMBIENTAL          00306045            109003060455             I02231220000030604500306045            03012100000000847113411282308000000000000000000000000000000000000000000000000000000000000000000000000000000000000000000000000000000280000000000000         00000000000000000000000WL 4735 POINT SUPER LANCHES LT                                        000099
10205539814000112041300648601        CLEAN AMBIENTAL          00306046            109003060463             I02231220000030604600306046            03012100000000278683412897708000000000000000000000000000000000000000000000000000000000000000000000000000000000000000000000000000000090000000000000         00000000000000000000000AUTO POSTO UNIVERSIDADE REALEN                                        000100
10205539814000112041300648601        CLEAN AMBIENTAL          00306047            109003060471             I02231220000030604700306047            03012100000000287113412897708000000000000000000000000000000000000000000000000000000000000000000000000000000000000000000000000000000090000000000000         00000000000000000000000BRANCOFRUT HORTIFRUTI E SUCOS                                         000101
10205539814000112041300648601        CLEAN AMBIENTAL          00306048            109003060489             I02231220000030604800306048            03012100000000425263412897708000000000000000000000000000000000000000000000000000000000000000000000000000000000000000000000000000000140000000000000         00000000000000000000000COLEGIO RIO DA PRATA LTDA                                             000102
10205539814000112041300648601        CLEAN AMBIENTAL          00306049            109003060497             I02231220000030604900306049            03012100000000356843412897708000000000000000000000000000000000000000000000000000000000000000000000000000000000000000000000000000000120000000000000         00000000000000000000000NOVO CONCEITO DE ACAI - EIRELI                                        000103
10205539814000112041300648601        CLEAN AMBIENTAL          00306050            109003060505             I02231220000030605000306050            03012100000000660013412897708000000000000000000000000000000000000000000000000000000000000000000000000000000000000000000000000000000220000000000000         00000000000000000000000COPA GRILL RESTAURANTE LTDA                                           000104
10205539814000112041300648601        CLEAN AMBIENTAL          00306051            109003060513             I02231220000030605100306051            03012100000000352373412897708000000000000000000000000000000000000000000000000000000000000000000000000000000000000000000000000000000120000000000000         00000000000000000000000CANTINA QUINTAL CARIOCA EIRELI                                        000105
10205539814000112041300648601        CLEAN AMBIENTAL          00306052            109003060521             I02231220000030605200306052            03012100000001176583412897708000000000000000000000000000000000000000000000000000000000000000000000000000000000000000000000000000003880000000000000         00000000000000000000000HFR ALIMENTOS EIRELI                                                  000106
10205539814000112041300648601        CLEAN AMBIENTAL          00306054            109003060547             I02231220000030605400306054            05012100000000299363412897708000000000000000000000000000000000000000000000000000000000000000000000000000000000000000000000000000000100000000000000         00000000000000000000000FABIANA CHARTONE RETTORE                                              000107
10205539814000112041300648601        CLEAN AMBIENTAL          00306055            109003060554             I02231220000030605500306055            03012100000000210853412897708000000000000000000000000000000000000000000000000000000000000000000000000000000000000000000000000000000070000000000000         00000000000000000000000ANDRE LUIZ VALE JOAQUIM                                               000108
10205539814000112041300648601        CLEAN AMBIENTAL          00306056            109003060562             I02231220000030605600306056            03012100000000147773412897708000000000000000000000000000000000000000000000000000000000000000000000000000000000000000000000000000000050000000000000         00000000000000000000000LABORATORIOS MEDICOS DR ELIEL                                         000109
10205539814000112041300648601        CLEAN AMBIENTAL          00306057            109003060570             I02231220000030605700306057            03012100000000377863412897708000000000000000000000000000000000000000000000000000000000000000000000000000000000000000000000000000000120000000000000         00000000000000000000000CENTRO DE PSIQUIATRIA E PESQUI                                        000110
10205539814000112041300648601        CLEAN AMBIENTAL          00306058            109003060588             I02231220000030605800306058            05012100000000163633412897708000000000000000000000000000000000000000000000000000000000000000000000000000000000000000000000000000000050000000000000         00000000000000000000000ALICE GRISI BACELLAR ALVES                                            000111
10205539814000112041300648601        CLEAN AMBIENTAL          00306059            109003060596             I02231220000030605900306059            03012100000000461723412897708000000000000000000000000000000000000000000000000000000000000000000000000000000000000000000000000000000150000000000000         00000000000000000000000REALCARE COM. E REPRES. DE MAT                                        000112
10205539814000112041300648601        CLEAN AMBIENTAL          00306060            109003060604             I02231220000030606000306060            03012100000000197733412897708000000000000000000000000000000000000000000000000000000000000000000000000000000000000000000000000000000070000000000000         00000000000000000000000ASSOCIACAO EVANGELICA DA FE                                           000113
10205539814000112041300648601        CLEAN AMBIENTAL          00306061            109003060612             I02231220000030606100306061            03012100000000091323412897708000000000000000000000000000000000000000000000000000000000000000000000000000000000000000000000000000000030000000000000         00000000000000000000000SALAO DE CABELEIREIRO UNISEX B                                        000114
10205539814000112041300648601        CLEAN AMBIENTAL          00306062            109003060620             I02231220000030606200306062            03012100000000098423412897708000000000000000000000000000000000000000000000000000000000000000000000000000000000000000000000000000000030000000000000         00000000000000000000000TRANSFORMACAO DO VISUAL LTDA                                          000115
10205539814000112041300648601        CLEAN AMBIENTAL          00306063            109003060638             I02231220000030606300306063            16012100000000088653412897708000000000000000000000000000000000000000000000000000000000000000000000000000000000000000000000000000000030000000000000         00000000000000000000000CAMILLA FERNANDES DA CRUZ                                             000116
10205539814000112041300648601        CLEAN AMBIENTAL          00306064            109003060646             I02231220000030606400306064            03012100000000069563412897708000000000000000000000000000000000000000000000000000000000000000000000000000000000000000000000000000000020000000000000         00000000000000000000000CLEBIO CANIJO SILVA                                                   000117
10205539814000112041300648601        CLEAN AMBIENTAL          00306065            109003060653             I02231220000030606500306065            03012100000000122773412897708000000000000000000000000000000000000000000000000000000000000000000000000000000000000000000000000000000040000000000000         00000000000000000000000FISIOMEVI FISIOTERAPIA LTDA ME                                        000118
10205539814000112041300648601        CLEAN AMBIENTAL          00306066            109003060661             I02231220000030606600306066            03012100000001993953412897708000000000000000000000000000000000000000000000000000000000000000000000000000000000000000000000000000006580000000000000         00000000000000000000000ASSOCIACAO FUNDO DE INCENTIVO                                         000119
10205539814000112041300648601        CLEAN AMBIENTAL          00306067            109003060679             I02231220000030606700306067            03012100000000054593412897708000000000000000000000000000000000000000000000000000000000000000000000000000000000000000000000000000000020000000000000         00000000000000000000000THAMIRIS DA SILVA MARTINS 1549                                        000120
10205539814000112041300648601        CLEAN AMBIENTAL          00306068            109003060687             I02231220000030606800306068            03012100000000226313412897708000000000000000000000000000000000000000000000000000000000000000000000000000000000000000000000000000000070000000000000         00000000000000000000000CLINICA ODONTOLOGICA ABOLICAO                                         000121
10205539814000112041300648601        CLEAN AMBIENTAL          00306069            109003060695             I02231220000030606900306069            03012100000000085723412897708000000000000000000000000000000000000000000000000000000000000000000000000000000000000000000000000000000030000000000000         00000000000000000000000ANA DANIELE LOPES BESSA DE ARA                                        000122
10205539814000112041300648601        CLEAN AMBIENTAL          00306070            109003060703             I02231220000030607000306070            03012100000000163943412897708000000000000000000000000000000000000000000000000000000000000000000000000000000000000000000000000000000050000000000000         00000000000000000000000LIVE CLINICA MEDICA E ODONTOLO                                        000123
10205539814000112041300648601        CLEAN AMBIENTAL          00306071            109003060711             I02231220000030607100306071            03012100000000072453412897708000000000000000000000000000000000000000000000000000000000000000000000000000000000000000000000000000000020000000000000         00000000000000000000000CARLA TEIXEIRA MACHADO PEIXOTO                                        000124
10205539814000112041300648601        CLEAN AMBIENTAL          00306072            109003060729             I02231220000030607200306072            03012100000000085533412897708000000000000000000000000000000000000000000000000000000000000000000000000000000000000000000000000000000030000000000000         00000000000000000000000NARA ISAULINA MANGARAVITE ENCI                                        000125
10205539814000112041300648601        CLEAN AMBIENTAL          00306073            109003060737             I02231220000030607300306073            03012100000000140433412897708000000000000000000000000000000000000000000000000000000000000000000000000000000000000000000000000000000050000000000000         00000000000000000000000EDGAR DE ANDRADE                                                      000126
10205539814000112041300648601        CLEAN AMBIENTAL          00306074            109003060745             I02231220000030607400306074            03012100000000135003410229508000000000000000000000000000000000000000000000000000000000000000000000000000000000000000000000000000000040000000000000         00000000000000000000000J SOUSA ANDRADE                                                       000127
10205539814000112041300648601        CLEAN AMBIENTAL          00306075            109003060752             I02231220000030607500306075            03012100000000077373412897708000000000000000000000000000000000000000000000000000000000000000000000000000000000000000000000000000000030000000000000         00000000000000000000000SORRIA PRIME ODONTOLOGIA LTDA                                         000128
10205539814000112041300648601        CLEAN AMBIENTAL          00306076            109003060760             I02231220000030607600306076            03012100000000087633412897708000000000000000000000000000000000000000000000000000000000000000000000000000000000000000000000000000000030000000000000         00000000000000000000000VAM ESTETICA E DEPILACAO LTDA                                         000129
10205539814000112041300648601        CLEAN AMBIENTAL          00306077            109003060778             I02231220000030607700306077            03012100000000071843411306008000000000000000000000000000000000000000000000000000000000000000000000000000000000000000000000000000000020000000000000         00000000000000000000000ODONTO ESTRELA SERVICOS ODONTO                                        000130
10205539814000112041300648601        CLEAN AMBIENTAL          00306078            109003060786             I02231220000030607800306078            03012100000000728953412897708000000000000000000000000000000000000000000000000000000000000000000000000000000000000000000000000000000240000000000000         00000000000000000000000LABI EXAMES S/A                                                       000131
10205539814000112041300648601        CLEAN AMBIENTAL          00306079            109003060794             I02231220000030607900306079            03012100000000068203412897708000000000000000000000000000000000000000000000000000000000000000000000000000000000000000000000000000000020000000000000         00000000000000000000000ODONTOCLINICA TIJUCA LTDA                                             000132
10205539814000112041300648601        CLEAN AMBIENTAL          00306080            109003060802             I02231220000030608000306080            03012100000000249213412897708000000000000000000000000000000000000000000000000000000000000000000000000000000000000000000000000000000080000000000000         00000000000000000000000VACINE SERVICOS DE SAUDE LTDA                                         000133
10205539814000112041300648601        CLEAN AMBIENTAL          00306081            109003060810             I02231220000030608100306081            03012100000000056323412897708000000000000000000000000000000000000000000000000000000000000000000000000000000000000000000000000000000020000000000000         00000000000000000000000CAA FISIOTERAPIA E ESTETICA LT                                        000134
10205539814000112041300648601        CLEAN AMBIENTAL          00306082            109003060828             I02231220000030608200306082            03012100000000200383412897708000000000000000000000000000000000000000000000000000000000000000000000000000000000000000000000000000000070000000000000         00000000000000000000000GILBERTO RONCHINI                                                     000135
10205539814000112041300648601        CLEAN AMBIENTAL          00306083            109003060836             I02231220000030608300306083            03012100000000210983412897708000000000000000000000000000000000000000000000000000000000000000000000000000000000000000000000000000000070000000000000         00000000000000000000000CARLOS LUDOVICO CRIM VALENTE                                          000136
10205539814000112041300648601        CLEAN AMBIENTAL          00306084            109003060844             I02231220000030608400306084            03012100000000211453412897708000000000000000000000000000000000000000000000000000000000000000000000000000000000000000000000000000000070000000000000         00000000000000000000000BIT SERVICES INOVACAO E TECNOL                                        000137
10205539814000112041300648601        CLEAN AMBIENTAL          00299799            109002997996             I06231220000029979900299799            03122000000000139541044062608000000000016400000000000000000000000000000000000000000000000000000000000000000000000001379000000000000000000000000000   23122000000000000000000000000JOJONATE PODOLOGOS LTDA ME                                          B3000138
10205539814000112041300648601        CLEAN AMBIENTAL          00300091            109003000915             I06231220000030009100300091            27112000000000326323418340208000000000016400000000000000000000000000000000000000000000000000000000000000000000000003246800000000000000000000000000   23122000000000000000000000000LABORATORIOS MEDICOS DR ELIEL                                       CK000139
10205539814000112041300648601        CLEAN AMBIENTAL          00300140            109003001400             I06231220000030014000300140            23122000000000217293416561508000000000016400000000000000000000000000000000000000000000000000000000000000000000000002156500000000000000000000000000   23122000000000000000000000000COLEGIO ELEVA EDUCACAO LTDA                                         CK000140
10205539814000112041300648601        CLEAN AMBIENTAL          00300878            109003008785             I06231220000030087800300878            14122000000000301282371629508000000000016400000000000000000000000000000000000000000000000000000000000000000000000002996400000000000000000000000000   23122000000000000000000000000TEMAKI KEBAB BAR E RESTAURANTE                                      B3000141
10205539814000112041300648601        CLEAN AMBIENTAL          00301122            109003011227             I06231220000030112200301122            30112000000000828421040542108000000000016400000000000000000000000000000000000000000000000000000000000000000000000008267800000000000000000000000000   23122000000000000000000000000CONDOMINIO DO EDIFICIO SANTO A                                      B3000142
10205539814000112041300648601        CLEAN AMBIENTAL          00301321            109003013215             I06231220000030132100301321            25122000000001178343415813108000000000016400000000000000000000000000000000000000000000000000000000000000000000000011767000000000000000000000000000   23122000000000000000000000000CONDOMINIO DO EDIFICIO COMERCI                                      CK000143
10205539814000112041300648601        CLEAN AMBIENTAL          00301334            109003013348             I06231220000030133400301334            21122000000000459352376874208000000000016400000000000000000000000000000000000000000000000000000000000000000000000004672000000000009490000000000000   23122000000000000000000000000BANCO BRADESCO S/A                                                  B1000144
10205539814000112041300648601        CLEAN AMBIENTAL          00302117            109003021176             I06231220000030211700302117            22122000000003238956340019008000000000016400000000000000000000000000000000000000000000000000000000000000000000000032373100000000000000000000000000   23122000000000000000000000000MERCADO ADONAI DA VILA NOVA LT                                      B7000145
10205539814000112041300648601        CLEAN AMBIENTAL          00302205            109003022059             I06231220000030220500302205            20122000000000442852371629508000000000016400000000000000000000000000000000000000000000000000000000000000000000000004412100000000000000000000000000   23122000000000000000000000000BANCO BRADESCO S/A                                                  B1000146
10205539814000112041300648601        CLEAN AMBIENTAL          00302225            109003022257             I06231220000030222500302225            23122000000001158150333689708000000000016400000000000000000000000000000000000000000000000000000000000000000000000011565100000000000000000000000000   23122000000000000000000000000SELINA FLORIANOPOLIS HOSPEDAGE                                      B3000147
10205539814000112041300648601        CLEAN AMBIENTAL          00302278            109003022786             I06231220000030227800302278            22122000000002944216340019008000000000016400000000000000000000000000000000000000000000000000000000000000000000000029425700000000000000000000000000   23122000000000000000000000000MERCADO ADONAI DA RIO SAO PAUL                                      B7000148
10205539814000112041300648601        CLEAN AMBIENTAL          00302301            109003023016             I06231220000030230100302301            17122000000000473472372743308000000000016400000000000000000000000000000000000000000000000000000000000000000000000004822600000000010430000000000000   23122000000000000000000000000CHURRASCARIA E REST. CRACK DOS                                      B1000149
10205539814000112041300648601        CLEAN AMBIENTAL          00302321            109003023214             I06231220000030232100302321            25122000000002637040333184908000000000016400000000000000000000000000000000000000000000000000000000000000000000000026354000000000000000000000000000   23122000000000000000000000000JORGE JABER CLINICA DE PSICOTE                                      B7000150
10205539814000112041300648601        CLEAN AMBIENTAL          00302334            109003023347             I06231220000030233400302334            25122000000000454912370887008000000000016400000000000000000000000000000000000000000000000000000000000000000000000004532700000000000000000000000000   23122000000000000000000000000VHF PARTICIPACOES E EMPREENDIM                                      B3000151
10205539814000112041300648601        CLEAN AMBIENTAL          00302339            109003023396             I06231220000030233900302339            25122000000001081473418113308000000000016400000000000000000000000000000000000000000000000000000000000000000000000010798300000000000000000000000000   23122000000000000000000000000COLEGIO SANTO AGOSTINHO                                             CK000152
10205539814000112041300648601        CLEAN AMBIENTAL          00302348            109003023487             I06231220000030234800302348            25122000000001002773410409308000000000016400000000000000000000000000000000000000000000000000000000000000000000000010011300000000000000000000000000   23122000000000000000000000000COPACABANA MAR HOTEL S/A                                            CK000153
10205539814000112041300648601        CLEAN AMBIENTAL          00302358            109003023586             I06231220000030235800302358            25122000000000900010333044508000000000016400000000000000000000000000000000000000000000000000000000000000000000000008983700000000000000000000000000   23122000000000000000000000000TRANSPORTES TONIATO LTDA                                            B7000154
10205539814000112041300648601        CLEAN AMBIENTAL          00302372            109003023727             I06231220000030237200302372            25122000000001028327564230908000000000016400000000000000000000000000000000000000000000000000000000000000000000000010266800000000000000000000000000   23122000000000000000000000000ELOHIM COMERCIO VAREJISTA LTDA                                      B3000155
10205539814000112041300648601        CLEAN AMBIENTAL          00302375            109003023750             I06231220000030237500302375            25122000000000611550330787208000000000016400000000000000000000000000000000000000000000000000000000000000000000000006099100000000000000000000000000   23122000000000000000000000000CENTRO DE ABAST GASTRON CAXIAS                                      B1000156
10205539814000112041300648601        CLEAN AMBIENTAL          00302382            109003023826             I06231220000030238200302382            25122000000000649463418582908000000000016400000000000000000000000000000000000000000000000000000000000000000000000006478200000000000000000000000000   23122000000000000000000000000A ! BODYTECH PARTICIPACOES S.A                                      CK000157
10205539814000112041300648601        CLEAN AMBIENTAL          00302384            109003023842             I06231220000030238400302384            25122000000000794953418582908000000000016400000000000000000000000000000000000000000000000000000000000000000000000007933100000000000000000000000000   23122000000000000000000000000A ! BODYTECH PARTICIPACOES S.A                                      CK000158
10205539814000112041300648601        CLEAN AMBIENTAL          00302409            109003024097             I06231220000030240900302409            15122000000001277390010576908000000000016400000000000000000000000000000000000000000000000000000000000000000000000013350600000000059310000000000000   23122000000000000000000000000CLUBE DOS EMPREGADOS DA PETROB                                      B3000159
10205539814000112041300648601        CLEAN AMBIENTAL          00302490            109003024907             I06231220000030249000302490            23122000000001923790019012608000000000016400000000000000000000000000000000000000000000000000000000000000000000000019221500000000000000000000000000   23122000000000000000000000000PANIFICACAO IPANEMA LTDA                                            B1000160
10205539814000112041300648601        CLEAN AMBIENTAL          00302492            109003024923             I06231220000030249200302492            20122000000000504890013519608000000000016400000000000000000000000000000000000000000000000000000000000000000000000005032500000000000000000000000000   23122000000000000000000000000CONFEITARIA LIDOMAR                                                 B6000161
10205539814000112041300648601        CLEAN AMBIENTAL          00302655            109003026555             I06231220000030265500302655            10122000000000710633416157208000000000016400000000000000000000000000000000000000000000000000000000000000500000000007039900000000000000000000000000   23122000000000000000000000000CONDOMINIO DO EDIFICIO DAS VIT                                      CK000162
10205539814000112041300648601        CLEAN AMBIENTAL          00302722            109003027223             I06231220000030272200302722            17122000000000513250333153408000000000016400000000000000000000000000000000000000000000000000000000000000000000000005116100000000000000000000000000   23122000000000000000000000000GALITOS GRILL RESTAURANTE E BA                                      B3000163
10205539814000112041300648601        CLEAN AMBIENTAL          00302770            109003027702             I06231220000030277000302770            23122000000000708722371434008000000000016400000000000000000000000000000000000000000000000000000000000000000000000007070800000000000000000000000000   23122000000000000000000000000CAFE E BAR LUSO TIJUCA                                              B3000164
10205539814000112041300648601        CLEAN AMBIENTAL          00302790            109003027900             I06231220000030279000302790            23122000000000401571043131008000000000016400000000000000000000000000000000000000000000000000000000000000000000000003999300000000000000000000000000   23122000000000000000000000000LANCHES VILLAGE LTDA                                                B5000165
10205539814000112041300648601        CLEAN AMBIENTAL          00302808            109003028080             I06231220000030280800302808            17122000000000981542370226108000000000016400000000000000000000000000000000000000000000000000000000000000000000000010014500000000021550000000000000   23122000000000000000000000000CANTINA DO SILVIO RESTAURANTE                                       B3000166
10205539814000112041300648601        CLEAN AMBIENTAL          00302820            109003028205             I06231220000030282000302820            24122000000001000980330787208000000000016400000000000000000000000000000000000000000000000000000000000000000000000009993400000000000000000000000000   23122000000000000000000000000AUTO POSTO DE ABASTECIMENTO DO                                      B1000167
10205539814000112041300648601        CLEAN AMBIENTAL          00302900            109003029005             I06231220000030290000302900            23122000000000416843418166108000000000016400000000000000000000000000000000000000000000000000000000000000000000000004152000000000000000000000000000   23122000000000000000000000000BAR E RESTAURANTE FORNERIA DEL                                      CK000168
10205539814000112041300648601        CLEAN AMBIENTAL          00303054            109003030540             I06231220000030305400303054            17122000000000182821041334208000000000016400000000000000000000000000000000000000000000000000000000000000000000000001852000000000004020000000000000   23122000000000000000000000000DANIELLE SANCHES GONCALVES                                          B3000169
10205539814000112041300648601        CLEAN AMBIENTAL          00303098            109003030987             I06231220000030309800303098            12122000000000292633410308708000000000016400000000000000000000000000000000000000000000000000000000000000000000000002979400000000006950000000000000   23122000000000000000000000000PELO COPA CENTRO DE DEPILACAO                                       CK000170
10205539814000112041300648601        CLEAN AMBIENTAL          00303099            109003030995             I06231220000030309900303099            23122000000000852473419290808000000000016400000000000000000000000000000000000000000000000000000000000000000000000008508300000000000000000000000000   23122000000000000000000000000CENTRO GERIATRICO E GERONTOLOG                                      CK000171
10205539814000112041300648601        CLEAN AMBIENTAL          00303144            109003031449             I06231220000030314400303144            23122000000000418952370473908000000000016400000000000000000000000000000000000000000000000000000000000000000000000004173100000000000000000000000000   23122000000000000000000000000BANCO BRADESCO S/A                                                  B1000172
10205539814000112041300648601        CLEAN AMBIENTAL          00303151            109003031514             I06231220000030315100303151            12122000000000172771043241708000000000016400000000000000000000000000000000000000000000000000000000000000000000000001752500000000004120000000000000   23122000000000000000000000000RESTAURANTE E LANCHONETE VILA                                       B3000173
10205539814000112041300648601        CLEAN AMBIENTAL          00303174            109003031746             I06231220000030317400303174            12122000000000520433410389708000000000016400000000000000000000000000000000000000000000000000000000000000000000000005310700000000012280000000000000   23122000000000000000000000000HORTIFRUTI DA PRAIA LTDA                                            CK000174
10205539814000112041300648601        CLEAN AMBIENTAL          00303201            109003032017             I06231220000030320100303201            13122000000000406260334395008000000000016400000000000000000000000000000000000000000000000000000000000000000000000004140500000000009430000000000000   23122000000000000000000000000CLINICA LOJA BANHO PARAISO LTD                                      B3000175
10205539814000112041300648601        CLEAN AMBIENTAL          00303216            109003032165             I06231220000030321600303216            13122000000000159742371075108000000000016400000000000000000000000000000000000000000000000000000000000000000000000001581000000000000000000000000000   23122000000000000000000000000BV BEACH FASHION SALAO DE CABE                                      B3000176
10205539814000112041300648601        CLEAN AMBIENTAL          00303262            109003032629             I06231220000030326200303262            23122000000001626882371785508000000000016400000000000000000000000000000000000000000000000000000000000000000000000016252400000000000000000000000000   23122000000000000000000000000LANCHONETE DIAS SANTOS LTDA                                         B3000177
10205539814000112041300648601        CLEAN AMBIENTAL          00303334            109003033346             I06231220000030333400303334            14122000000000078086330001808000000000016400000000000000000000000000000000000000000000000000000000000000000000000000782700000000001830000000000000   23122000000000000000000000000LAURA HELENA BEZERRA PEREIRA -                                      B3000178
10205539814000112041300648601        CLEAN AMBIENTAL          00303410            109003034104             I06231220000030341000303410            22122000000001496253410023208000000000016400000000000000000000000000000000000000000000000000000000000000000000000014946100000000000000000000000000   23122000000000000000000000000AMBIENT AIR AR CONDICIONADO LT                                      CK000179
10205539814000112041300648601        CLEAN AMBIENTAL          00303417            109003034179             I06231220000030341700303417            19122000000000330892371453008000000000016400000000000000000000000000000000000000000000000000000000000000000000000003363100000000007060000000000000   23122000000000000000000000000CARBONARA MOTEL LTDA - EPP                                          B3000180
10205539814000112041300648601        CLEAN AMBIENTAL          00303418            109003034187             I06231220000030341800303418            19122000000000330892371453008000000000016400000000000000000000000000000000000000000000000000000000000000000000000003363100000000007060000000000000   23122000000000000000000000000POPS MOTEL LTDA - EPP                                               B3000181
10205539814000112041300648601        CLEAN AMBIENTAL          00303497            109003034971             I06231220000030349700303497            21122000000000932932373370408000000000016400000000000000000000000000000000000000000000000000000000000000000000000009505700000000019280000000000000   23122000000000000000000000000CLFL COMERCIO DE ALIMENTOS LTD                                      B7000182
10205539814000112041300648601        CLEAN AMBIENTAL          00303560            109003035606             I06231220000030356000303560            15122000000000435082370472108000000000016400000000000000000000000000000000000000000000000000000000000000000000000004432600000000009820000000000000   23122000000000000000000000000INSTITUTO NACIONAL DE PROTECAO                                      B3000183
10205539814000112041300648601        CLEAN AMBIENTAL          00303568            109003035689             I06231220000030356800303568            25122000000001495003410272508000000000016400000000000000000000000000000000000000000000000000000000000000000000000014933600000000000000000000000000   23122000000000000000000000000COND DOS OFFICES DO SHOPPING L                                      CK000184
10205539814000112041300648601        CLEAN AMBIENTAL          00303570            109003035705             I06231220000030357000303570            15122000000000386040331792108000000000016400000000000000000000000000000000000000000000000000000000000000000000000003931600000000008760000000000000   23122000000000000000000000000SALAO DE CABELEIREIROS FER-WAL                                      B7000185
10205539814000112041300648601        CLEAN AMBIENTAL          00303579            109003035796             I06231220000030357900303579            15122000000000365772370472108000000000016400000000000000000000000000000000000000000000000000000000000000000000000003724100000000008280000000000000   23122000000000000000000000000INSTITUTO NACIONAL DE PROTECAO                                      B3000186
10205539814000112041300648601        CLEAN AMBIENTAL          00303626            109003036265             I06231220000030362600303626            21122000000000194080333823208000000000016400000000000000000000000000000000000000000000000000000000000000000000000001964400000000004000000000000000   23122000000000000000000000000JERONIMO GIGLIOS LOPES                                              B3000187
10205539814000112041300648601        CLEAN AMBIENTAL          00303635            109003036356             I06231220000030363500303635            20122000000000174610011575008000000000016400000000000000000000000000000000000000000000000000000000000000000000000001766400000000003670000000000000   23122000000000000000000000000SANDRA LUZIA MONTEIRO GOMES 07                                      B6000188
10205539814000112041300648601        CLEAN AMBIENTAL          00303644            109003036448             I06231220000030364400303644            25122000000002415583418356808000000000016400000000000000000000000000000000000000000000000000000000000000000000000024139400000000000000000000000000   23122000000000000000000000000VIACAO PAVUNENSE S/A                                                CK000189
10205539814000112041300648601        CLEAN AMBIENTAL          00303723            109003037230             I06231220000030372300303723            21122000000000568423410413508000000000016400000000000000000000000000000000000000000000000000000000000000000000000005667800000000000000000000000000   23122000000000000000000000000CONDOMINIO PLAZA CORPORATE                                          CK000190
10205539814000112041300648601        CLEAN AMBIENTAL          00303793            109003037933             I06231220000030379300303793            25122000000000532840333184908000000000016400000000000000000000000000000000000000000000000000000000000000000000000005312000000000000000000000000000   23122000000000000000000000000JORGE JABER CLINICA DE PSICOTE                                      B7000191
10205539814000112041300648601        CLEAN AMBIENTAL          00303795            109003037958             I06231220000030379500303795            25122000000000601813419236108000000000016400000000000000000000000000000000000000000000000000000000000000000000000006001700000000000000000000000000   23122000000000000000000000000CENTRO MEDICO CIRURGICO SAO PA                                      CK000192
10205539814000112041300648601        CLEAN AMBIENTAL          00303801            109003038014             I06231220000030380100303801            17122000000000203142370582708000000000016400000000000000000000000000000000000000000000000000000000000000000000000002059800000000004480000000000000   23122000000000000000000000000AZEVEDO & PATRICIO ABRIGO PARA                                      B3000193
10205539814000112041300648601        CLEAN AMBIENTAL          00303828            109003038287             I06231220000030382800303828            22122000000000555833414895908000000000016400000000000000000000000000000000000000000000000000000000000000000000000005654900000000011300000000000000   23122000000000000000000000000CONFEITARIA MARACANA LTDA - ME                                      CK000194
10205539814000112041300648601        CLEAN AMBIENTAL          00303833            109003038337             I06231220000030383300303833            17122000000000387372373019708000000000016400000000000000000000000000000000000000000000000000000000000000000000000003857300000000000000000000000000   23122000000000000000000000000CAFE E BAR CAMPEAO LTDA - EPP                                       B2000195
10205539814000112041300648601        CLEAN AMBIENTAL          00303842            109003038428             I06231220000030384200303842            25122000000000319667484501308000000000016400000000000000000000000000000000000000000000000000000000000000000000000003180200000000000000000000000000   23122000000000000000000000000CONDOMINIO DO EDIFICIO SAO JER                                      B3000196
10205539814000112041300648601        CLEAN AMBIENTAL          00303849            109003038493             I06231220000030384900303849            18122000000000369372370135408000000000016400000000000000000000000000000000000000000000000000000000000000000000000003677300000000000000000000000000   23122000000000000000000000000LANCHONETE MAYFLOWER LTDA                                           B3000197
10205539814000112041300648601        CLEAN AMBIENTAL          00303850            109003038501             I06231220000030385000303850            17122000000000344162373060108000000000016400000000000000000000000000000000000000000000000000000000000000000000000003500600000000007540000000000000   23122000000000000000000000000NOVO MUNDO 2007 RESTAURANTE LT                                      B3000198
10205539814000112041300648601        CLEAN AMBIENTAL          00303874            109003038741             I06231220000030387400303874            24122000000000925460330787208000000000016400000000000000000000000000000000000000000000000000000000000000000000000009238200000000000000000000000000   23122000000000000000000000000AUTO CENTER MAYARA LTDA                                             B1000199
10205539814000112041300648601        CLEAN AMBIENTAL          00303901            109003039012             I06231220000030390100303901            17122000000000165571040203008000000000016400000000000000000000000000000000000000000000000000000000000000000000000001639300000000000000000000000000   23122000000000000000000000000PONTOCAO.BR CLINICA VETERINARI                                      B3000200
10205539814000112041300648601        CLEAN AMBIENTAL          00303915            109003039152             I06231220000030391500303915            17122000000000056323410408508000000000016400000000000000000000000000000000000000000000000000000000000000000000000000546800000000000000000000000000   23122000000000000000000000000INSTITUTO DE ESTESTICA NUTRIPE                                      BL000201
10205539814000112041300648601        CLEAN AMBIENTAL          00303932            109003039327             I06231220000030393200303932            18122000000000966463418159608000000000016400000000000000000000000000000000000000000000000000000000000000000000000009857500000000020930000000000000   23122000000000000000000000000CONDOMINIO CENTRO MEDICO RICHE                                      CK000202
10205539814000112041300648601        CLEAN AMBIENTAL          00303977            109003039772             I06231220000030397700303977            23122000000000454840013086608000000000016400000000000000000000000000000000000000000000000000000000000000000000000004532000000000000000000000000000   23122000000000000000000000000BIOANALISES CLINICAS LTDA                                           B3000203
10205539814000112041300648601        CLEAN AMBIENTAL          00304011            109003040119             I06231220000030401100304011            23122000000000465743418117408000000000016400000000000000000000000000000000000000000000000000000000000000000000000004641000000000000000000000000000   23122000000000000000000000000CONDOMINIO DO EDIFICIO ITAPOA                                       CK000204
10205539814000112041300648601        CLEAN AMBIENTAL          00304029            109003040291             I06231220000030402900304029            22122000000001250723418072108000000000016400000000000000000000000000000000000000000000000000000000000000000000000012490800000000000000000000000000   23122000000000000000000000000QUALLY DA TIJUCA HORTIFRUTI LT                                      CP000205
10205539814000112041300648601        CLEAN AMBIENTAL          00304092            109003040929             I06231220000030409200304092            19122000000000405271041327608000000000016400000000000000000000000000000000000000000000000000000000000000000000000004122600000000008630000000000000   23122000000000000000000000000CATETE 2005 COMERCIO DE BISCOI                                      B5000206
10205539814000112041300648601        CLEAN AMBIENTAL          00304105            109003041059             I06231220000030410500304105            19122000000000654402371804408000000000016400000000000000000000000000000000000000000000000000000000000000000000000006667300000000013970000000000000   23122000000000000000000000000BAR E RESTAURANTE 266 DA FREGU                                      B3000207
10205539814000112041300648601        CLEAN AMBIENTAL          00304119            109003041190             I06231220000030411900304119            19122000000000240001040201408000000000016400000000000000000000000000000000000000000000000000000000000000000000000002434800000000005120000000000000   23122000000000000000000000000MARIA CID SILVA 02520015756                                         B5000208
10205539814000112041300648601        CLEAN AMBIENTAL          00304131            109003041315             I06231220000030413100304131            23122000000000198570010356608000000000016400000000000000000000000000000000000000000000000000000000000000000000000001969300000000000000000000000000   23122000000000000000000000000FABIO NOGUEIRA MARQUES                                              B6000209
10205539814000112041300648601        CLEAN AMBIENTAL          00304224            109003042248             I06231220000030422400304224            20122000000000354582372509808000000000016400000000000000000000000000000000000000000000000000000000000000000000000003603900000000007450000000000000   23122000000000000000000000000PADARIA E CONFEITARIA RIO 2001                                      B3000210
10205539814000112041300648601        CLEAN AMBIENTAL          00304231            109003042313             I06231220000030423100304231            20122000000000038350333457908000000000016400000000000000000000000000000000000000000000000000000000000000000000000000375100000000000800000000000000   23122000000000000000000000000PIZZARIA LIDER DE COPACABANA L                                      B3000211
10205539814000112041300648601        CLEAN AMBIENTAL          00304246            109003042461             I06231220000030424600304246            25122000000000577942370473908000000000016400000000000000000000000000000000000000000000000000000000000000000000000005763000000000000000000000000000   23122000000000000000000000000CONDOMINIO DO EDIFICIO SANTO A                                      B7000212
10205539814000112041300648601        CLEAN AMBIENTAL          00304258            109003042586             I06231220000030425800304258            20122000000000163403419290808000000000016400000000000000000000000000000000000000000000000000000000000000000000000001651800000000003420000000000000   23122000000000000000000000000CENTRO GERIATRICO E GERONTOLOG                                      CK000213
10205539814000112041300648601        CLEAN AMBIENTAL          00304262            109003042628             I06231220000030426200304262            23122000000000450361040229508000000000016400000000000000000000000000000000000000000000000000000000000000000000000004487200000000000000000000000000   23122000000000000000000000000ODONTOCLINICA DE PACIENCIA LTD                                      B5000214
10205539814000112041300648601        CLEAN AMBIENTAL          00304290            109003042909             I06231220000030429000304290            20122000000000138683419236108000000000016400000000000000000000000000000000000000000000000000000000000000000000000001399600000000002920000000000000   23122000000000000000000000000RAFAELLA GONZO DE C BARBOSA SE                                      BL000215
10205539814000112041300648601        CLEAN AMBIENTAL          00304291            109003042917             I06231220000030429100304291            20122000000000170263415646508000000000016400000000000000000000000000000000000000000000000000000000000000000000000001722100000000003590000000000000   23122000000000000000000000000DIEGO DE SOUZA ROCCO                                                BL000216
10205539814000112041300648601        CLEAN AMBIENTAL          00304294            109003042941             I06231220000030429400304294            20122000000000056320013519608000000000016400000000000000000000000000000000000000000000000000000000000000000000000000558700000000001190000000000000   23122000000000000000000000000MUNHOZ DA FONTOURA SERVICOS ME                                      B6000217
10205539814000112041300648601        CLEAN AMBIENTAL          00304297            109003042974             I06231220000030429700304297            20122000000000075536330001808000000000016400000000000000000000000000000000000000000000000000000000000000000000000000754600000000001570000000000000   23122000000000000000000000000JULIANA RODRIGUES DIAS 1666081                                      B3000218
10205539814000112041300648601        CLEAN AMBIENTAL          00304311            109003043113             I06231220000030431100304311            22122000000000663803410598308000000000016400000000000000000000000000000000000000000000000000000000000000500000000006571600000000000000000000000000   23122000000000000000000000000CENTRO MEDICO DE ANALISES CLIN                                      CK000219
10205539814000112041300648601        CLEAN AMBIENTAL          00304325            109003043253             I06231220000030432500304325            26122000000000279383416199408000000000016400000000000000000000000000000000000000000000000000000000000000000000000002777400000000000000000000000000   23122000000000000000000000000CONDOMINIO COMERCIAL GAVIAO PE                                      CK000220
10205539814000112041300648601        CLEAN AMBIENTAL          00304337            109003043378             I06231220000030433700304337            22122000000001437013410314508000000000016400000000000000000000000000000000000000000000000000000000000000000000000014688500000000033480000000000000   23122000000000000000000000000HOSPITAL LAR INTERLINK LTDA                                         CK000221
10205539814000112041300648601        CLEAN AMBIENTAL          00304406            109003044061             I06231220000030440600304406            23122000000000430783410389708000000000016400000000000000000000000000000000000000000000000000000000000000000000000004291400000000000000000000000000   23122000000000000000000000000HORTIFRUT SAO CLEMENTE LTDA                                         CK000222
10205539814000112041300648601        CLEAN AMBIENTAL          00304430            109003044301             I06231220000030443000304430            21122000000000938893410395408000000000016400000000000000000000000000000000000000000000000000000000000000000000000009566500000000019400000000000000   23122000000000000000000000000CONDOMINIO DO EDIFICIO GONCALV                                      CK000223
10205539814000112041300648601        CLEAN AMBIENTAL          00304432            109003044327             I06231220000030443200304432            20122000000000341490334218408000000000016400000000000000000000000000000000000000000000000000000000000000000000000003470100000000007160000000000000   23122000000000000000000000000MAJU BOLOS CASEIROS EIRELI - M                                      B3000224
10205539814000112041300648601        CLEAN AMBIENTAL          00304447            109003044475             I06231220000030444700304447            23122000000000463252372803508000000000016400000000000000000000000000000000000000000000000000000000000000000000000004616100000000000000000000000000   23122000000000000000000000000BAR PEIXE NA MESA LTDA                                              B3000225
10205539814000112041300648601        CLEAN AMBIENTAL          00304452            109003044525             I06231220000030445200304452            23122000000000440480331662608000000000016400000000000000000000000000000000000000000000000000000000000000000000000004388400000000000000000000000000   23122000000000000000000000000SUPERMERCADOS MULTI ECONOMIA E                                      B3000226
10205539814000112041300648601        CLEAN AMBIENTAL          00304467            109003044673             I06231220000030446700304467            23122000000000347053418476408000000000016400000000000000000000000000000000000000000000000000000000000000000000000003454100000000000000000000000000   23122000000000000000000000000PREIS COMERCIO DE PRODUTOS ALI                                      CK000227
10205539814000112041300648601        CLEAN AMBIENTAL          00304491            109003044913             I06231220000030449100304491            21122000000000164680013223508000000000016400000000000000000000000000000000000000000000000000000000000000000000000001664300000000003390000000000000   23122000000000000000000000000ROBERTA DANTAS MOREIRA DE CARV                                      B6000228
10205539814000112041300648601        CLEAN AMBIENTAL          00304494            109003044947             I06231220000030449400304494            21122000000000123451043613708000000000016400000000000000000000000000000000000000000000000000000000000000000000000001243600000000002550000000000000   23122000000000000000000000000DROGARIA ALPHA 2017 LTDA - EPP                                      B5000229
10205539814000112041300648601        CLEAN AMBIENTAL          00304512            109003045126             I06231220000030451200304512            21122000000000085720010729408000000000016400000000000000000000000000000000000000000000000000000000000000000000000000858500000000001770000000000000   23122000000000000000000000000MEDSERVICE SERVICOS MEDICOS LT                                      B3000230
10205539814000112041300648601        CLEAN AMBIENTAL          00304534            109003045340             I06231220000030453400304534            22122000000001607373412971008000000000016400000000000000000000000000000000000000000000000000000000000000000000000016431700000000037440000000000000   23122000000000000000000000000ALBANATO MEDICINA DIAGNOSTICA                                       CK000231
10205539814000112041300648601        CLEAN AMBIENTAL          00304536            109003045365             I06231220000030453600304536            21122000000000144093410301208000000000016400000000000000000000000000000000000000000000000000000000000000000000000001424500000000000000000000000000   23122000000000000000000000000CONDOMINIO DO EDIFICIO RECREIO                                      CK000232
10205539814000112041300648601        CLEAN AMBIENTAL          00304553            109003045530             I06231220000030455300304553            27122000000000773533418475608000000000016400000000000000000000000000000000000000000000000000000000000000000000000007718900000000000000000000000000   23122000000000000000000000000TIO SAM PRODUTOS ALIMENTICIOS                                       CK000233
10205539814000112041300648601        CLEAN AMBIENTAL          00304556            109003045563             I06231220000030455600304556            22122000000000558233410272508000000000016400000000000000000000000000000000000000000000000000000000000000000000000005565900000000000000000000000000   23122000000000000000000000000PARAISO DO SUSHI RESTAURANTE E                                      CK000234
10205539814000112041300648601        CLEAN AMBIENTAL          00304557            109003045571             I06231220000030455700304557            22122000000000502243410272508000000000016400000000000000000000000000000000000000000000000000000000000000000000000005006000000000000000000000000000   23122000000000000000000000000PARAISO DAS DELICIAS LANCHONET                                      CK000235
10205539814000112041300648601        CLEAN AMBIENTAL          00304558            109003045589             I06231220000030455800304558            22122000000000542673410272508000000000016400000000000000000000000000000000000000000000000000000000000000000000000005410300000000000000000000000000   23122000000000000000000000000KAZU RESTAURANTE E BAR LTDA                                         CK000236
10205539814000112041300648601        CLEAN AMBIENTAL          00304567            109003045670             I06231220000030456700304567            22122000000000349981041024908000000000016400000000000000000000000000000000000000000000000000000000000000000000000003483400000000000000000000000000   23122000000000000000000000000RESTAURANTE ADILIO LTDA                                             B3000237
10205539814000112041300648601        CLEAN AMBIENTAL          00304572            109003045720             I06231220000030457200304572            22122000000000883613418865808000000000016400000000000000000000000000000000000000000000000000000000000000000000000008819700000000000000000000000000   23122000000000000000000000000RECREIO VEICULOS S/A                                                CK000238
10205539814000112041300648601        CLEAN AMBIENTAL          00304573            109003045738             I06231220000030457300304573            22122000000000530183418865808000000000016400000000000000000000000000000000000000000000000000000000000000000000000005285400000000000000000000000000   23122000000000000000000000000RECREIO VEICULOS S.A.                                               CK000239
10205539814000112041300648601        CLEAN AMBIENTAL          00304591            109003045910             I06231220000030459100304591            22122000000000695461040221208000000000016400000000000000000000000000000000000000000000000000000000000000000000000007079600000000014140000000000000   23122000000000000000000000000ALVES E BARBOSA COMERCIO DE UT                                      B5000240
10205539814000112041300648601        CLEAN AMBIENTAL          00304594            109003045944             I06231220000030459400304594            30122000000000490791040217008000000000016400000000000000000000000000000000000000000000000000000000000000000000000004891500000000000000000000000000   23122000000000000000000000000SACI PERERE LANCHES AMERICANOS                                      B5000241
10205539814000112041300648601        CLEAN AMBIENTAL          00304596            109003045969             I06231220000030459600304596            22122000000000325143419373208000000000016400000000000000000000000000000000000000000000000000000000000000000000000003235000000000000000000000000000   23122000000000000000000000000SABOR DO BRASIL LANCHONETE LTD                                      CK000242
10205539814000112041300648601        CLEAN AMBIENTAL          00304601            109003046017             I06231220000030460100304601            22122000000000371603410726008000000000016400000000000000000000000000000000000000000000000000000000000000000000000003775100000000007550000000000000   23122000000000000000000000000IPANEMA PENSIONATO ESTUDANTIL                                       CK000243
10205539814000112041300648601        CLEAN AMBIENTAL          00304604            109003046041             I06231220000030460400304604            22122000000000488743418132308000000000016400000000000000000000000000000000000000000000000000000000000000000000000004970300000000009930000000000000   23122000000000000000000000000FLORICULTURA JARDIM SIMOES LTD                                      CK000244
10205539814000112041300648601        CLEAN AMBIENTAL          00304611            109003046116             I06231220000030461100304611            22122000000000588086330001808000000000016400000000000000000000000000000000000000000000000000000000000000000000000005983900000000011950000000000000   23122000000000000000000000000OBA OBA VP LTDA - ME                                                B3000245
10205539814000112041300648601        CLEAN AMBIENTAL          00304632            109003046322             I06231220000030463200304632            22122000000000638883410311108000000000016400000000000000000000000000000000000000000000000000000000000000000000000006502300000000012990000000000000   23122000000000000000000000000RESTAURANTE E BAR BOLEIA EIREL                                      CK000246
10205539814000112041300648601        CLEAN AMBIENTAL          00304650            109003046504             I06231220000030465000304650            23122000000000332470334212708000000000016400000000000000000000000000000000000000000000000000000000000000000000000003308300000000000000000000000000   23122000000000000000000000000CASA NA ARVORE ESPACO DE EDUCA                                      B3000247
10205539814000112041300648601        CLEAN AMBIENTAL          00304652            109003046520             I06231220000030465200304652            23122000000000331323418340208000000000016400000000000000000000000000000000000000000000000000000000000000500000000003246800000000000000000000000000   23122000000000000000000000000LABORATORIOS MEDICOS DR ELIEL                                       CK000248
